{
  "contractName": "AragonFundraisingControllerMock",
  "abi": [
    {
      "constant": true,
      "inputs": [],
      "name": "hasInitialized",
      "outputs": [
        {
          "name": "",
          "type": "bool"
        }
      ],
      "payable": false,
      "stateMutability": "view",
      "type": "function"
    },
    {
      "constant": true,
      "inputs": [
        {
          "name": "_script",
          "type": "bytes"
        }
      ],
      "name": "getEVMScriptExecutor",
      "outputs": [
        {
          "name": "",
          "type": "address"
        }
      ],
      "payable": false,
      "stateMutability": "view",
      "type": "function"
    },
    {
      "constant": true,
      "inputs": [],
      "name": "getRecoveryVault",
      "outputs": [
        {
          "name": "",
          "type": "address"
        }
      ],
      "payable": false,
      "stateMutability": "view",
      "type": "function"
    },
    {
      "constant": true,
      "inputs": [
        {
          "name": "token",
          "type": "address"
        }
      ],
      "name": "allowRecoverability",
      "outputs": [
        {
          "name": "",
          "type": "bool"
        }
      ],
      "payable": false,
      "stateMutability": "view",
      "type": "function"
    },
    {
      "constant": true,
      "inputs": [],
      "name": "appId",
      "outputs": [
        {
          "name": "",
          "type": "bytes32"
        }
      ],
      "payable": false,
      "stateMutability": "view",
      "type": "function"
    },
    {
      "constant": true,
      "inputs": [],
      "name": "getInitializationBlock",
      "outputs": [
        {
          "name": "",
          "type": "uint256"
        }
      ],
      "payable": false,
      "stateMutability": "view",
      "type": "function"
    },
    {
      "constant": false,
      "inputs": [
        {
          "name": "_token",
          "type": "address"
        }
      ],
      "name": "transferToVault",
      "outputs": [],
      "payable": false,
      "stateMutability": "nonpayable",
      "type": "function"
    },
    {
      "constant": true,
      "inputs": [
        {
          "name": "_sender",
          "type": "address"
        },
        {
          "name": "_role",
          "type": "bytes32"
        },
        {
          "name": "_params",
          "type": "uint256[]"
        }
      ],
      "name": "canPerform",
      "outputs": [
        {
          "name": "",
          "type": "bool"
        }
      ],
      "payable": false,
      "stateMutability": "view",
      "type": "function"
    },
    {
      "constant": true,
      "inputs": [],
      "name": "getEVMScriptRegistry",
      "outputs": [
        {
          "name": "",
          "type": "address"
        }
      ],
      "payable": false,
      "stateMutability": "view",
      "type": "function"
    },
    {
      "constant": true,
      "inputs": [],
      "name": "kernel",
      "outputs": [
        {
          "name": "",
          "type": "address"
        }
      ],
      "payable": false,
      "stateMutability": "view",
      "type": "function"
    },
    {
      "constant": true,
      "inputs": [],
      "name": "isPetrified",
      "outputs": [
        {
          "name": "",
          "type": "bool"
        }
      ],
      "payable": false,
      "stateMutability": "view",
      "type": "function"
    },
    {
      "anonymous": false,
      "inputs": [],
      "name": "OpenTrading",
      "type": "event"
    },
    {
      "anonymous": false,
      "inputs": [],
      "name": "ResetTokenTap",
      "type": "event"
    },
    {
      "anonymous": false,
      "inputs": [],
      "name": "UpdateTappedAmount",
      "type": "event"
    },
    {
      "anonymous": false,
      "inputs": [
        {
          "indexed": true,
          "name": "executor",
          "type": "address"
        },
        {
          "indexed": false,
          "name": "script",
          "type": "bytes"
        },
        {
          "indexed": false,
          "name": "input",
          "type": "bytes"
        },
        {
          "indexed": false,
          "name": "returnData",
          "type": "bytes"
        }
      ],
      "name": "ScriptResult",
      "type": "event"
    },
    {
      "anonymous": false,
      "inputs": [
        {
          "indexed": true,
          "name": "vault",
          "type": "address"
        },
        {
          "indexed": true,
          "name": "token",
          "type": "address"
        },
        {
          "indexed": false,
          "name": "amount",
          "type": "uint256"
        }
      ],
      "name": "RecoverToVault",
      "type": "event"
    },
    {
      "constant": false,
      "inputs": [],
      "name": "initialize",
      "outputs": [],
      "payable": false,
      "stateMutability": "nonpayable",
      "type": "function"
    },
    {
      "constant": false,
      "inputs": [],
      "name": "openTrading",
      "outputs": [],
      "payable": false,
      "stateMutability": "nonpayable",
      "type": "function"
    },
    {
      "constant": false,
      "inputs": [
        {
          "name": "_token",
          "type": "address"
        }
      ],
      "name": "resetTokenTap",
      "outputs": [],
      "payable": false,
      "stateMutability": "nonpayable",
      "type": "function"
    },
    {
      "constant": false,
      "inputs": [
        {
          "name": "_token",
          "type": "address"
        }
      ],
      "name": "updateTappedAmount",
      "outputs": [],
      "payable": false,
      "stateMutability": "nonpayable",
      "type": "function"
    },
    {
      "constant": true,
      "inputs": [
        {
          "name": "_collateral",
          "type": "address"
        }
      ],
      "name": "collateralsToBeClaimed",
      "outputs": [
        {
          "name": "",
          "type": "uint256"
        }
      ],
      "payable": false,
      "stateMutability": "view",
      "type": "function"
    },
    {
      "constant": true,
      "inputs": [
        {
          "name": "_who",
          "type": "address"
        },
        {
          "name": "_token",
          "type": "address"
        }
      ],
      "name": "balanceOf",
      "outputs": [
        {
          "name": "",
          "type": "uint256"
        }
      ],
      "payable": false,
      "stateMutability": "view",
      "type": "function"
    }
  ],
  "bytecode": "0x6080604052620000176401000000006200001d810204565b6200023b565b6200003064010000000062000125810204565b60408051808201909152601881527f494e49545f414c52454144595f494e495449414c495a45440000000000000000602082015290156200010c576040517f08c379a00000000000000000000000000000000000000000000000000000000081526004018080602001828103825283818151815260200191508051906020019080838360005b83811015620000d0578181015183820152602001620000b6565b50505050905090810190601f168015620000fe5780820380516001836020036101000a031916815260200191505b509250505060405180910390fd5b506200012360001964010000000062000154810204565b565b60006200014f600080516020620012a683398151915264010000000062000cd96200023382021704565b905090565b6200016764010000000062000125810204565b60408051808201909152601881527f494e49545f414c52454144595f494e495449414c495a454400000000000000006020820152901562000206576040517f08c379a000000000000000000000000000000000000000000000000000000000815260040180806020018281038252838181518152602001915080519060200190808383600083811015620000d0578181015183820152602001620000b6565b5062000230600080516020620012a68339815191528264010000000062000fac6200023782021704565b50565b5490565b9055565b61105b806200024b6000396000f3006080604052600436106100f05763ffffffff7c01000000000000000000000000000000000000000000000000000000006000350416630803fac081146100f55780632914b9bd1461011e57806332f0a3b5146101935780634afe6c47146101a85780637e7db6e1146101db57806380afdea8146101fc5780638129fc1c14610211578063846a0a89146102285780638b3dd749146102495780639d4941d81461025e578063a1658fad1461027f578063a479e508146102e6578063c9567bf9146102fb578063d4aae0c414610310578063dd57c85914610325578063de4796ed14610346578063f7888aec1461035b575b600080fd5b34801561010157600080fd5b5061010a610382565b604080519115158252519081900360200190f35b34801561012a57600080fd5b506040805160206004803580820135601f81018490048402850184019095528484526101779436949293602493928401919081908401838280828437509497506103ab9650505050505050565b60408051600160a060020a039092168252519081900360200190f35b34801561019f57600080fd5b506101776104ac565b3480156101b457600080fd5b506101c9600160a060020a036004351661053d565b60408051918252519081900360200190f35b3480156101e757600080fd5b5061010a600160a060020a036004351661055f565b34801561020857600080fd5b506101c9610565565b34801561021d57600080fd5b50610226610595565b005b34801561023457600080fd5b50610226600160a060020a0360043516610680565b34801561025557600080fd5b506101c96106ac565b34801561026a57600080fd5b50610226600160a060020a03600435166106d7565b34801561028b57600080fd5b50604080516020600460443581810135838102808601850190965280855261010a958335600160a060020a03169560248035963696956064959394920192918291850190849080828437509497506109ab9650505050505050565b3480156102f257600080fd5b50610177610b14565b34801561030757600080fd5b50610226610bfb565b34801561031c57600080fd5b50610177610c26565b34801561033157600080fd5b50610226600160a060020a0360043516610c51565b34801561035257600080fd5b5061010a610c7d565b34801561036757600080fd5b506101c9600160a060020a0360043581169060243516610c90565b60008061038d6106ac565b905080158015906103a55750806103a2610cd5565b10155b91505090565b60006103b5610b14565b600160a060020a03166304bf2a7f836040518263ffffffff167c01000000000000000000000000000000000000000000000000000000000281526004018080602001828103825283818151815260200191508051906020019080838360005b8381101561042c578181015183820152602001610414565b50505050905090810190601f1680156104595780820380516001836020036101000a031916815260200191505b5092505050602060405180830381600087803b15801561047857600080fd5b505af115801561048c573d6000803e3d6000fd5b505050506040513d60208110156104a257600080fd5b505190505b919050565b60006104b6610c26565b600160a060020a03166332f0a3b56040518163ffffffff167c0100000000000000000000000000000000000000000000000000000000028152600401602060405180830381600087803b15801561050c57600080fd5b505af1158015610520573d6000803e3d6000fd5b505050506040513d602081101561053657600080fd5b5051905090565b6000600160a060020a0382161515610557575060056104a7565b50600a6104a7565b50600190565b60006105907fd625496217aa6a3453eecb9c3489dc5a53e6c67b444329ea2b2cbc9ff547639b610cd9565b905090565b61059d6106ac565b60408051808201909152601881527f494e49545f414c52454144595f494e495449414c495a4544000000000000000060208201529015610675576040517f08c379a00000000000000000000000000000000000000000000000000000000081526004018080602001828103825283818151815260200191508051906020019080838360005b8381101561063a578181015183820152602001610622565b50505050905090810190601f1680156106675780820380516001836020036101000a031916815260200191505b509250505060405180910390fd5b5061067e610cdd565b565b6040517f67776cb3ba701e3e851166321db034337bc091185f67a825d97579d4ae2ecc9990600090a150565b60006105907febb05b386a8d34882b8711d156f463690983dc47815980fb82aeeff1aa43579e610cd9565b60008060006106e58461055f565b60408051808201909152601281527f5245434f5645525f444953414c4c4f57454400000000000000000000000000006020820152901515610782576040517f08c379a00000000000000000000000000000000000000000000000000000000081526004018080602001828103825283818151815260200191508051906020019080838360008381101561063a578181015183820152602001610622565b5061078b6104ac565b925061079683610dbe565b60408051808201909152601a81527f5245434f5645525f5641554c545f4e4f545f434f4e54524143540000000000006020820152901515610833576040517f08c379a00000000000000000000000000000000000000000000000000000000081526004018080602001828103825283818151815260200191508051906020019080838360008381101561063a578181015183820152602001610622565b50600160a060020a03841615156108845760405130319250600160a060020a0384169083156108fc029084906000818181858888f1935050505015801561087e573d6000803e3d6000fd5b5061095a565b508261089f600160a060020a0382163063ffffffff610deb16565b91506108bb600160a060020a038216848463ffffffff610f1716565b60408051808201909152601d81527f5245434f5645525f544f4b454e5f5452414e534645525f4641494c45440000006020820152901515610958576040517f08c379a00000000000000000000000000000000000000000000000000000000081526004018080602001828103825283818151815260200191508051906020019080838360008381101561063a578181015183820152602001610622565b505b83600160a060020a031683600160a060020a03167f596caf56044b55fb8c4ca640089bbc2b63cae3e978b851f5745cbb7c5b288e02846040518082815260200191505060405180910390a350505050565b6000806109b6610382565b15156109c55760009150610b0c565b6109cd610c26565b9050600160a060020a03811615156109e85760009150610b0c565b80600160a060020a031663fdef9106863087610a0388610fa2565b6040517c010000000000000000000000000000000000000000000000000000000063ffffffff8716028152600160a060020a03808616600483019081529085166024830152604482018490526080606483019081528351608484015283519192909160a490910190602085019080838360005b83811015610a8e578181015183820152602001610a76565b50505050905090810190601f168015610abb5780820380516001836020036101000a031916815260200191505b5095505050505050602060405180830381600087803b158015610add57600080fd5b505af1158015610af1573d6000803e3d6000fd5b505050506040513d6020811015610b0757600080fd5b505191505b509392505050565b600080610b1f610c26565b604080517fbe00bbd80000000000000000000000000000000000000000000000000000000081527fd6f028ca0e8edb4a8c9757ca4fdccab25fa1e0317da1188108f7d2dee14902fb60048201527fddbcfd564f642ab5627cf68b9b7d374fb4f8a36e941a75d89c87998cef03bd6160248201529051600160a060020a03929092169163be00bbd8916044808201926020929091908290030181600087803b158015610bc957600080fd5b505af1158015610bdd573d6000803e3d6000fd5b505050506040513d6020811015610bf357600080fd5b505192915050565b6040517f51cd7cc33235a1c89f708fecec535bf7cca0f94ed05216751befb052ca83e67990600090a1565b60006105907f4172f0f7d2289153072b0a6ca36959e0cbe2efc3afe50fc81636caa96338137b610cd9565b6040517f0ee4b37d7d159838a4e2a22d48a07940e712817a46664062a4c4aa65e462d07990600090a150565b6000600019610c8a6106ac565b14905090565b6000600160a060020a0382161515610cb35750600160a060020a03821631610ccf565b610ccc600160a060020a0383168463ffffffff610deb16565b90505b92915050565b4390565b5490565b610ce56106ac565b60408051808201909152601881527f494e49545f414c52454144595f494e495449414c495a4544000000000000000060208201529015610d81576040517f08c379a00000000000000000000000000000000000000000000000000000000081526004018080602001828103825283818151815260200191508051906020019080838360008381101561063a578181015183820152602001610622565b5061067e610d8d610cd5565b7febb05b386a8d34882b8711d156f463690983dc47815980fb82aeeff1aa43579e9063ffffffff610fac16565b5490565b600080600160a060020a0383161515610dda5760009150610de5565b823b90506000811191505b50919050565b60408051600160a060020a0383166024808301919091528251808303909101815260449091019091526020810180517bffffffffffffffffffffffffffffffffffffffffffffffffffffffff167f70a08231000000000000000000000000000000000000000000000000000000001790526000908180610e6b8684610fb0565b60408051808201909152601c81527f534146455f4552435f32305f42414c414e43455f52455645525445440000000060208201529193509150821515610f0d576040517f08c379a00000000000000000000000000000000000000000000000000000000081526004018080602001828103825283818151815260200191508051906020019080838360008381101561063a578181015183820152602001610622565b5095945050505050565b60408051600160a060020a038416602482015260448082018490528251808303909101815260649091019091526020810180517bffffffffffffffffffffffffffffffffffffffffffffffffffffffff167fa9059cbb00000000000000000000000000000000000000000000000000000000179052600090610f998582610fe1565b95945050505050565b8051602002815290565b9055565b6000806000806040516020818751602089018a5afa92506000831115610fd557805191505b50909590945092505050565b6000806040516020818551602087016000895af16000811115611025573d8015611012576020811461101b57611023565b60019350611023565b600183511493505b505b50909493505050505600a165627a7a723058200ad105223c0b8f7302b28c8177052d9094f7defe10f82c2f2b9ae052778400f10029ebb05b386a8d34882b8711d156f463690983dc47815980fb82aeeff1aa43579e",
  "source": "pragma solidity 0.4.24;\n\nimport \"@aragon/os/contracts/apps/AragonApp.sol\";\nimport \"@aragon/os/contracts/common/SafeERC20.sol\";\nimport \"@aragon/os/contracts/lib/token/ERC20.sol\";\nimport \"@ablack/fundraising-shared-interfaces/contracts/IAragonFundraisingController.sol\";\n\n\ncontract AragonFundraisingControllerMock is IAragonFundraisingController, AragonApp {\n    using SafeERC20 for ERC20;\n\n    event OpenTrading();\n    event ResetTokenTap();\n    event UpdateTappedAmount();\n\n    function initialize() external onlyInit {\n        initialized();\n    }\n\n    function openTrading() external {\n        emit OpenTrading();\n    }\n\n    function resetTokenTap(address _token) external {\n        emit ResetTokenTap();\n    }\n\n    function updateTappedAmount(address _token) external {\n        emit UpdateTappedAmount();\n    }\n\n    function collateralsToBeClaimed(address _collateral) public view returns (uint256) {\n        if (_collateral == ETH) {\n            return uint256(5);\n        } else {\n            return uint256(10);\n        }\n    }\n\n    function balanceOf(address _who, address _token) public view returns (uint256) {\n        if (_token == ETH) {\n            return _who.balance;\n        } else {\n            return ERC20(_token).staticBalanceOf(_who);\n        }\n    }\n}\n",
  "sourcePath": "@ablack/fundraising-shared-test-helpers/contracts/AragonFundraisingControllerMock.sol",
  "compiler": {
    "name": "solc",
    "version": "0.4.24+commit.e67f0147.Emscripten.clang"
  },
  "schemaVersion": "2.0.1",
  "updatedAt": "2020-02-07T14:16:15.472Z"
}