{
  "contractName": "EVMScriptRegistryFactory",
  "abi": [
    {
      "constant": true,
      "inputs": [],
      "name": "baseReg",
      "outputs": [
        {
          "name": "",
          "type": "address"
        }
      ],
      "payable": false,
      "stateMutability": "view",
      "type": "function"
    },
    {
      "constant": true,
      "inputs": [],
      "name": "baseCallScript",
      "outputs": [
        {
          "name": "",
          "type": "address"
        }
      ],
      "payable": false,
      "stateMutability": "view",
      "type": "function"
    },
    {
      "inputs": [],
      "payable": false,
      "stateMutability": "nonpayable",
      "type": "constructor"
    },
    {
      "constant": false,
      "inputs": [
        {
          "name": "_dao",
          "type": "address"
        }
      ],
      "name": "newEVMScriptRegistry",
      "outputs": [
        {
          "name": "reg",
          "type": "address"
        }
      ],
      "payable": false,
      "stateMutability": "nonpayable",
      "type": "function"
    }
  ],
  "bytecode": "0x608060405234801561001057600080fd5b506100196100a0565b604051809103906000f080158015610035573d6000803e3d6000fd5b5060008054600160a060020a031916600160a060020a039290921691909117905561005e6100b0565b604051809103906000f08015801561007a573d6000803e3d6000fd5b5060018054600160a060020a031916600160a060020a03929092169190911790556100c0565b604051611a168061088d83390190565b604051610a69806122a383390190565b6107be806100cf6000396000f3006080604052600436106100565763ffffffff7c0100000000000000000000000000000000000000000000000000000000600035041663127d679c811461005b57806333404143146100995780634de50a3a146100c7575b600080fd5b34801561006757600080fd5b506100706100dc565b6040805173ffffffffffffffffffffffffffffffffffffffff9092168252519081900360200190f35b3480156100a557600080fd5b5061007073ffffffffffffffffffffffffffffffffffffffff600435166100f8565b3480156100d357600080fd5b50610070610776565b60005473ffffffffffffffffffffffffffffffffffffffff1681565b604080516004808252602480830184526020830180517bffffffffffffffffffffffffffffffffffffffffffffffffffffffff167f8129fc1c000000000000000000000000000000000000000000000000000000001781526000805495517fc050a7a60000000000000000000000000000000000000000000000000000000081527fddbcfd564f642ab5627cf68b9b7d374fb4f8a36e941a75d89c87998cef03bd6194810185815273ffffffffffffffffffffffffffffffffffffffff97881694820185905260016064830181905260806044840190815288516084850152885194998a98908c169763c050a7a697919690958b95939260a4909101918083838e5b838110156102125781810151838201526020016101fa565b50505050905090810190601f16801561023f5780820380516001836020036101000a031916815260200191505b5095505050505050602060405180830381600087803b15801561026157600080fd5b505af1158015610275573d6000803e3d6000fd5b505050506040513d602081101561028b57600080fd5b5051604080517fde287359000000000000000000000000000000000000000000000000000000008152905191945073ffffffffffffffffffffffffffffffffffffffff86169163de287359916004808201926020929091908290030181600087803b1580156102f957600080fd5b505af115801561030d573d6000803e3d6000fd5b505050506040513d602081101561032357600080fd5b5051604080517f19f3d10f000000000000000000000000000000000000000000000000000000008152905191925073ffffffffffffffffffffffffffffffffffffffff8084169263be0384789230928892908316916319f3d10f9160048083019260209291908290030181600087803b15801561039f57600080fd5b505af11580156103b3573d6000803e3d6000fd5b505050506040513d60208110156103c957600080fd5b5051604080517c010000000000000000000000000000000000000000000000000000000063ffffffff871602815273ffffffffffffffffffffffffffffffffffffffff948516600482015292909316602483015260448201523060648201529051608480830192600092919082900301818387803b15801561044a57600080fd5b505af115801561045e573d6000803e3d6000fd5b5050600154604080517f87a16f1200000000000000000000000000000000000000000000000000000000815273ffffffffffffffffffffffffffffffffffffffff9283166004820152905191871693506387a16f1292506024808201926020929091908290030181600087803b1580156104d757600080fd5b505af11580156104eb573d6000803e3d6000fd5b505050506040513d602081101561050157600080fd5b5050604080517f19f3d10f000000000000000000000000000000000000000000000000000000008152905173ffffffffffffffffffffffffffffffffffffffff80841692639d0effdb9230928892908316916319f3d10f916004808201926020929091908290030181600087803b15801561057b57600080fd5b505af115801561058f573d6000803e3d6000fd5b505050506040513d60208110156105a557600080fd5b5051604080517c010000000000000000000000000000000000000000000000000000000063ffffffff871602815273ffffffffffffffffffffffffffffffffffffffff948516600482015292909316602483015260448201529051606480830192600092919082900301818387803b15801561062057600080fd5b505af1158015610634573d6000803e3d6000fd5b505050508073ffffffffffffffffffffffffffffffffffffffff1663a885508a848573ffffffffffffffffffffffffffffffffffffffff166319f3d10f6040518163ffffffff167c0100000000000000000000000000000000000000000000000000000000028152600401602060405180830381600087803b1580156106b957600080fd5b505af11580156106cd573d6000803e3d6000fd5b505050506040513d60208110156106e357600080fd5b5051604080517c010000000000000000000000000000000000000000000000000000000063ffffffff861602815273ffffffffffffffffffffffffffffffffffffffff9093166004840152602483019190915251604480830192600092919082900301818387803b15801561075757600080fd5b505af115801561076b573d6000803e3d6000fd5b505050505050919050565b60015473ffffffffffffffffffffffffffffffffffffffff16815600a165627a7a7230582014019a14bb203a70ba5c1294432f950b7ba4d042afa8adeb96ee68e39444558f00296080604052620000176401000000006200001d810204565b6200023b565b6200003064010000000062000125810204565b60408051808201909152601881527f494e49545f414c52454144595f494e495449414c495a45440000000000000000602082015290156200010c576040517f08c379a00000000000000000000000000000000000000000000000000000000081526004018080602001828103825283818151815260200191508051906020019080838360005b83811015620000d0578181015183820152602001620000b6565b50505050905090810190601f168015620000fe5780820380516001836020036101000a031916815260200191505b509250505060405180910390fd5b506200012360001964010000000062000154810204565b565b60006200014f600080516020620019f6833981519152640100000000620013cb6200023382021704565b905090565b6200016764010000000062000125810204565b60408051808201909152601881527f494e49545f414c52454144595f494e495449414c495a454400000000000000006020820152901562000206576040517f08c379a000000000000000000000000000000000000000000000000000000000815260040180806020018281038252838181518152602001915080519060200190808383600083811015620000d0578181015183820152602001620000b6565b5062000230600080516020620019f683398151915282640100000000620016d46200023782021704565b50565b5490565b9055565b6117ab806200024b6000396000f3006080604052600436106101065763ffffffff7c010000000000000000000000000000000000000000000000000000000060003504166304bf2a7f811461010b5780630803fac01461018057806319f3d10f146101a95780632914b9bd146101d057806332f0a3b5146102295780635ca4d4bb1461023e5780637e7db6e11461025857806380afdea8146102795780638129fc1c1461028e57806387a16f12146102a35780638b3dd749146102c45780639d4941d8146102d9578063a1658fad146102fa578063a479e50814610361578063bd8fde1c14610376578063cff606a01461038b578063d4aae0c4146103a3578063de4796ed146103b8578063f97a05df146103cd575b600080fd5b34801561011757600080fd5b506040805160206004803580820135601f81018490048402850184019095528484526101649436949293602493928401919081908401838280828437509497506104089650505050505050565b60408051600160a060020a039092168252519081900360200190f35b34801561018c57600080fd5b5061019561053b565b604080519115158252519081900360200190f35b3480156101b557600080fd5b506101be610564565b60408051918252519081900360200190f35b3480156101dc57600080fd5b506040805160206004803580820135601f81018490048402850184019095528484526101649436949293602493928401919081908401838280828437509497506105889650505050505050565b34801561023557600080fd5b50610164610687565b34801561024a57600080fd5b50610256600435610718565b005b34801561026457600080fd5b50610195600160a060020a03600435166108f1565b34801561028557600080fd5b506101be6108f7565b34801561029a57600080fd5b50610256610927565b3480156102af57600080fd5b506101be600160a060020a03600435166109c9565b3480156102d057600080fd5b506101be610b64565b3480156102e557600080fd5b50610256600160a060020a0360043516610b8f565b34801561030657600080fd5b506040805160206004604435818101358381028086018501909652808552610195958335600160a060020a0316956024803596369695606495939492019291829185019084908082843750949750610e2d9650505050505050565b34801561036d57600080fd5b50610164610f96565b34801561038257600080fd5b506101be61104b565b34801561039757600080fd5b5061025660043561106f565b3480156103af57600080fd5b506101646112fd565b3480156103c457600080fd5b50610195611328565b3480156103d957600080fd5b506103e560043561133b565b60408051600160a060020a03909316835290151560208301528051918290030190f35b60008060006004845110156040805190810160405280601e81526020017f45564d5245475f5343524950545f4c454e4754485f544f4f5f53484f525400008152509015156104dc5760405160008051602061176083398151915281526004018080602001828103825283818151815260200191508051906020019080838360005b838110156104a1578181015183820152602001610489565b50505050905090810190601f1680156104ce5780820380516001836020036101000a031916815260200191505b509250505060405180910390fd5b506104e684611373565b63ffffffff1660008181526001602052604090208054919350915074010000000000000000000000000000000000000000900460ff16610527576000610533565b8054600160a060020a03165b949350505050565b600080610546610b64565b9050801580159061055e57508061055b611386565b10155b91505090565b7fc4e90f38eea8c4212a009ca7b8947943ba4d4a58d19b683417f65291d1cd9ed281565b6000610592610f96565b600160a060020a03166304bf2a7f836040518263ffffffff167c01000000000000000000000000000000000000000000000000000000000281526004018080602001828103825283818151815260200191508051906020019080838360005b838110156106095781810151838201526020016105f1565b50505050905090810190601f1680156106365780820380516001836020036101000a031916815260200191505b5092505050602060405180830381600087803b15801561065557600080fd5b505af1158015610669573d6000803e3d6000fd5b505050506040513d602081101561067f57600080fd5b505192915050565b60006106916112fd565b600160a060020a03166332f0a3b56040518163ffffffff167c0100000000000000000000000000000000000000000000000000000000028152600401602060405180830381600087803b1580156106e757600080fd5b505af11580156106fb573d6000803e3d6000fd5b505050506040513d602081101561071157600080fd5b5051905090565b60007ff7a450ef335e1892cb42c8ca72e7242359d7711924b75db5717410da3f614aa36107448361138a565b61074f338383610e2d565b60408051808201909152600f81527f4150505f415554485f4641494c4544000000000000000000000000000000000060208201529015156107da576040516000805160206117608339815191528152600401808060200182810382528381815181526020019150805190602001908083836000838110156104a1578181015183820152602001610489565b5060008481526001602090815260409182902080548351808501909452601884527f45564d5245475f4558454355544f525f44495341424c4544000000000000000092840192909252945074010000000000000000000000000000000000000000900460ff161515610896576040516000805160206117608339815191528152600401808060200182810382528381815181526020019150805190602001908083836000838110156104a1578181015183820152602001610489565b50825474ff00000000000000000000000000000000000000001981168455604051600160a060020a039091169085907fc13cd9238f8ab1e5ab1f95cde77e89288fe5c328d04739adffd57b144b408fd190600090a350505050565b50600190565b60006109227fd625496217aa6a3453eecb9c3489dc5a53e6c67b444329ea2b2cbc9ff547639b6113cb565b905090565b61092f610b64565b60408051808201909152601881527f494e49545f414c52454144595f494e495449414c495a45440000000000000000602082015290156109b9576040516000805160206117608339815191528152600401808060200182810382528381815181526020019150805190602001908083836000838110156104a1578181015183820152602001610489565b506109c26113cf565b6001600055565b6040805160008082526020820190925281907fc4e90f38eea8c4212a009ca7b8947943ba4d4a58d19b683417f65291d1cd9ed290610a0a9033908390610e2d565b60408051808201909152600f81527f4150505f415554485f4641494c454400000000000000000000000000000000006020820152901515610a95576040516000805160206117608339815191528152600401808060200182810382528381815181526020019150805190602001908083836000838110156104a1578181015183820152602001610489565b506000805460018082018355604080518082018252600160a060020a03808a1680835260208084018681528789529590528387209251835495511515740100000000000000000000000000000000000000000274ff000000000000000000000000000000000000000019919093167fffffffffffffffffffffffff00000000000000000000000000000000000000009096169590951794909416179055519194509184917f7697fa3288629310075a63816e294207c84f3cfc18ccf8e18eb917ec0bb566999190a35092915050565b60006109227febb05b386a8d34882b8711d156f463690983dc47815980fb82aeeff1aa43579e6113cb565b6000806000610b9d846108f1565b60408051808201909152601281527f5245434f5645525f444953414c4c4f57454400000000000000000000000000006020820152901515610c28576040516000805160206117608339815191528152600401808060200182810382528381815181526020019150805190602001908083836000838110156104a1578181015183820152602001610489565b50610c31610687565b9250610c3c836114a0565b60408051808201909152601a81527f5245434f5645525f5641554c545f4e4f545f434f4e54524143540000000000006020820152901515610cc7576040516000805160206117608339815191528152600401808060200182810382528381815181526020019150805190602001908083836000838110156104a1578181015183820152602001610489565b50600160a060020a0384161515610d185760405130319250600160a060020a0384169083156108fc029084906000818181858888f19350505050158015610d12573d6000803e3d6000fd5b50610ddc565b5082610d33600160a060020a0382163063ffffffff6114cd16565b9150610d4f600160a060020a038216848463ffffffff6115e716565b60408051808201909152601d81527f5245434f5645525f544f4b454e5f5452414e534645525f4641494c45440000006020820152901515610dda576040516000805160206117608339815191528152600401808060200182810382528381815181526020019150805190602001908083836000838110156104a1578181015183820152602001610489565b505b83600160a060020a031683600160a060020a03167f596caf56044b55fb8c4ca640089bbc2b63cae3e978b851f5745cbb7c5b288e02846040518082815260200191505060405180910390a350505050565b600080610e3861053b565b1515610e475760009150610f8e565b610e4f6112fd565b9050600160a060020a0381161515610e6a5760009150610f8e565b80600160a060020a031663fdef9106863087610e8588611672565b6040517c010000000000000000000000000000000000000000000000000000000063ffffffff8716028152600160a060020a03808616600483019081529085166024830152604482018490526080606483019081528351608484015283519192909160a490910190602085019080838360005b83811015610f10578181015183820152602001610ef8565b50505050905090810190601f168015610f3d5780820380516001836020036101000a031916815260200191505b5095505050505050602060405180830381600087803b158015610f5f57600080fd5b505af1158015610f73573d6000803e3d6000fd5b505050506040513d6020811015610f8957600080fd5b505191505b509392505050565b600080610fa16112fd565b604080517fbe00bbd80000000000000000000000000000000000000000000000000000000081527fd6f028ca0e8edb4a8c9757ca4fdccab25fa1e0317da1188108f7d2dee14902fb60048201527fddbcfd564f642ab5627cf68b9b7d374fb4f8a36e941a75d89c87998cef03bd6160248201529051600160a060020a03929092169163be00bbd8916044808201926020929091908290030181600087803b15801561065557600080fd5b7ff7a450ef335e1892cb42c8ca72e7242359d7711924b75db5717410da3f614aa381565b60007ff7a450ef335e1892cb42c8ca72e7242359d7711924b75db5717410da3f614aa361109b8361138a565b6110a6338383610e2d565b60408051808201909152600f81527f4150505f415554485f4641494c454400000000000000000000000000000000006020820152901515611131576040516000805160206117608339815191528152600401808060200182810382528381815181526020019150805190602001908083836000838110156104a1578181015183820152602001610489565b5083600081118015611144575060005481105b60408051808201909152601a81527f45564d5245475f494e4558495354454e545f4558454355544f5200000000000060208201529015156111cf576040516000805160206117608339815191528152600401808060200182810382528381815181526020019150805190602001908083836000838110156104a1578181015183820152602001610489565b5060008581526001602090815260409182902080548351808501909452601784527f45564d5245475f4558454355544f525f454e41424c454400000000000000000092840192909252955074010000000000000000000000000000000000000000900460ff161561128a576040516000805160206117608339815191528152600401808060200182810382528381815181526020019150805190602001908083836000838110156104a1578181015183820152602001610489565b50835474ff000000000000000000000000000000000000000019167401000000000000000000000000000000000000000017808555604051600160a060020a039091169086907f7697fa3288629310075a63816e294207c84f3cfc18ccf8e18eb917ec0bb5669990600090a35050505050565b60006109227f4172f0f7d2289153072b0a6ca36959e0cbe2efc3afe50fc81636caa96338137b6113cb565b6000600019611335610b64565b14905090565b600160205260009081526040902054600160a060020a0381169074010000000000000000000000000000000000000000900460ff1682565b600061138082600061167c565b92915050565b4390565b60408051600180825281830190925260609160208083019080388339019050509050818160008151811015156113bc57fe5b60209081029091010152919050565b5490565b6113d7610b64565b60408051808201909152601881527f494e49545f414c52454144595f494e495449414c495a4544000000000000000060208201529015611461576040516000805160206117608339815191528152600401808060200182810382528381815181526020019150805190602001908083836000838110156104a1578181015183820152602001610489565b5061149a61146d611386565b7febb05b386a8d34882b8711d156f463690983dc47815980fb82aeeff1aa43579e9063ffffffff6116d416565b565b5490565b600080600160a060020a03831615156114bc57600091506114c7565b823b90506000811191505b50919050565b60408051600160a060020a0383166024808301919091528251808303909101815260449091019091526020810180517bffffffffffffffffffffffffffffffffffffffffffffffffffffffff167f70a0823100000000000000000000000000000000000000000000000000000000179052600090818061154d86846116d8565b60408051808201909152601c81527f534146455f4552435f32305f42414c414e43455f524556455254454400000000602082015291935091508215156115dd576040516000805160206117608339815191528152600401808060200182810382528381815181526020019150805190602001908083836000838110156104a1578181015183820152602001610489565b5095945050505050565b60408051600160a060020a038416602482015260448082018490528251808303909101815260649091019091526020810180517bffffffffffffffffffffffffffffffffffffffffffffffffffffffff167fa9059cbb000000000000000000000000000000000000000000000000000000001790526000906116698582611709565b95945050505050565b8051602002815290565b6000806116898484611757565b7c01000000000000000000000000000000000000000000000000000000007fffffffff0000000000000000000000000000000000000000000000000000000090911604949350505050565b9055565b6000806000806040516020818751602089018a5afa925060008311156116fd57805191505b50909590945092505050565b6000806040516020818551602087016000895af1600081111561174d573d801561173a57602081146117435761174b565b6001935061174b565b600183511493505b505b5090949350505050565b016020015190560008c379a000000000000000000000000000000000000000000000000000000000a165627a7a72305820c855db1dd99849e35e806780a8683bf636248d7e8f74b008bdf2da4f755d86510029ebb05b386a8d34882b8711d156f463690983dc47815980fb82aeeff1aa43579e608060405261001564010000000061001a810204565b610223565b61002b64010000000061011a810204565b60408051808201909152601881527f494e49545f414c52454144595f494e495449414c495a4544000000000000000060208201529015610103576040517f08c379a00000000000000000000000000000000000000000000000000000000081526004018080602001828103825283818151815260200191508051906020019080838360005b838110156100c85781810151838201526020016100b0565b50505050905090810190601f1680156100f55780820380516001836020036101000a031916815260200191505b509250505060405180910390fd5b50610118600019640100000000610145810204565b565b6000610140600080516020610a498339815191526401000000006107db61021b82021704565b905090565b61015664010000000061011a810204565b60408051808201909152601881527f494e49545f414c52454144595f494e495449414c495a45440000000000000000602082015290156101f2576040517f08c379a0000000000000000000000000000000000000000000000000000000008152600401808060200182810382528381815181526020019150805190602001908083836000838110156100c85781810151838201526020016100b0565b50610218600080516020610a49833981519152826401000000006107e761021f82021704565b50565b5490565b9055565b610817806102326000396000f30060806040526004361061006c5763ffffffff7c01000000000000000000000000000000000000000000000000000000006000350416630803fac08114610071578063279cea351461009a5780638333d9b2146101475780638b3dd7491461016e578063de4796ed14610183575b600080fd5b34801561007d57600080fd5b50610086610198565b604080519115158252519081900360200190f35b3480156100a657600080fd5b506100d260246004803582810192908201359181358083019290820135916044359182019101356101c1565b6040805160208082528351818301528351919283929083019185019080838360005b8381101561010c5781810151838201526020016100f4565b50505050905090810190601f1680156101395780820380516001836020036101000a031916815260200191505b509250505060405180910390f35b34801561015357600080fd5b5061015c6106dc565b60408051918252519081900360200190f35b34801561017a57600080fd5b5061015c610700565b34801561018f57600080fd5b50610086610730565b6000806101a3610700565b905080158015906101bb5750806101b8610743565b10155b91505090565b606060008060008060008060006101d6610198565b60408051808201909152601481527f494e49545f4e4f545f494e495449414c495a454400000000000000000000000060208201529015156102af576040517f08c379a00000000000000000000000000000000000000000000000000000000081526004018080602001828103825283818151815260200191508051906020019080838360005b8381101561027457818101518382015260200161025c565b50505050905090810190601f1680156102a15780820380516001836020036101000a031916815260200191505b509250505060405180910390fd5b50600496505b8c8710156106cb5760408051808201909152601781527f45564d43414c4c535f494e56414c49445f4c454e47544800000000000000000060208201526018888f03101561035e576040517f08c379a00000000000000000000000000000000000000000000000000000000081526004018080602001828103825283818151815260200191508051906020019080838360008381101561027457818101518382015260200161025c565b506103a2878f8f8080601f01602080910402602001604051908101604052809392919081815260200183838082843750949594505063ffffffff6107471692505050565b9550600094505b888510156104b4578989868181106103bd57fe5b9050602002013573ffffffffffffffffffffffffffffffffffffffff1673ffffffffffffffffffffffffffffffffffffffff168673ffffffffffffffffffffffffffffffffffffffff1614156040805190810160405280601981526020017f45564d43414c4c535f424c41434b4c49535445445f43414c4c000000000000008152509015156104a8576040517f08c379a00000000000000000000000000000000000000000000000000000000081526004018080602001828103825283818151815260200191508051906020019080838360008381101561027457818101518382015260200161025c565b506001909401936103a9565b60405173ffffffffffffffffffffffffffffffffffffffff871690309033907f9dcff9d94fbfdb4622d11edb383005f95e78efb446c72d92f8e615c6025c470390600090a461053f876014018f8f8080601f01602080910402602001604051908101604052809392919081815260200183838082843750949594505063ffffffff61077c1692505050565b63ffffffff169350866014016004019250610593838f8f8080601f01602080910402602001604051908101604052809392919081815260200183838082843750949594505063ffffffff6107d41692505050565b60408051808201909152601781527f45564d43414c4c535f494e56414c49445f4c454e475448000000000000000000602082015284860198509092508d881115610639576040517f08c379a00000000000000000000000000000000000000000000000000000000081526004018080602001828103825283818151815260200191508051906020019080838360008381101561027457818101518382015260200161025c565b50600080858460008a6113885a03f19050808015610656576106c5565b6040513d8015610669573d6000833e3d82fd5b7f08c379a000000000000000000000000000000000000000000000000000000000825260206004830152601660248301527f45564d43414c4c535f43414c4c5f5245564552544544000000000000000000006044830152606482fd5b506102b5565b505050505050509695505050505050565b7f2dc858a00f3e417be1394b87c07158e989ec681ce8cc68a9093680ac1a87030290565b600061072b7febb05b386a8d34882b8711d156f463690983dc47815980fb82aeeff1aa43579e6107db565b905090565b600060001961073d610700565b14905090565b4390565b60008061075484846107df565b6c010000000000000000000000006bffffffffffffffffffffffff1990911604949350505050565b60008061078984846107df565b7c01000000000000000000000000000000000000000000000000000000007fffffffff0000000000000000000000000000000000000000000000000000000090911604949350505050565b0160200190565b5490565b016020015190565b90555600a165627a7a7230582027416b7fef42151bdf61c558f3c31164707f5192f43c87f41b2e1251ff033b580029ebb05b386a8d34882b8711d156f463690983dc47815980fb82aeeff1aa43579e",
  "source": "pragma solidity 0.4.24;\n\nimport \"../evmscript/IEVMScriptExecutor.sol\";\nimport \"../evmscript/EVMScriptRegistry.sol\";\n\nimport \"../evmscript/executors/CallsScript.sol\";\n\nimport \"../kernel/Kernel.sol\";\nimport \"../acl/ACL.sol\";\n\n\ncontract EVMScriptRegistryFactory is EVMScriptRegistryConstants {\n    EVMScriptRegistry public baseReg;\n    IEVMScriptExecutor public baseCallScript;\n\n    /**\n    * @notice Create a new EVMScriptRegistryFactory.\n    */\n    constructor() public {\n        baseReg = new EVMScriptRegistry();\n        baseCallScript = IEVMScriptExecutor(new CallsScript());\n    }\n\n    /**\n    * @notice Install a new pinned instance of EVMScriptRegistry on `_dao`.\n    * @param _dao Kernel\n    * @return Installed EVMScriptRegistry\n    */\n    function newEVMScriptRegistry(Kernel _dao) public returns (EVMScriptRegistry reg) {\n        bytes memory initPayload = abi.encodeWithSelector(reg.initialize.selector);\n        reg = EVMScriptRegistry(_dao.newPinnedAppInstance(EVMSCRIPT_REGISTRY_APP_ID, baseReg, initPayload, true));\n\n        ACL acl = ACL(_dao.acl());\n\n        acl.createPermission(this, reg, reg.REGISTRY_ADD_EXECUTOR_ROLE(), this);\n\n        reg.addScriptExecutor(baseCallScript);     // spec 1 = CallsScript\n\n        // Clean up the permissions\n        acl.revokePermission(this, reg, reg.REGISTRY_ADD_EXECUTOR_ROLE());\n        acl.removePermissionManager(reg, reg.REGISTRY_ADD_EXECUTOR_ROLE());\n\n        return reg;\n    }\n}\n",
  "sourcePath": "@aragon/os/contracts/factory/EVMScriptRegistryFactory.sol",
  "compiler": {
    "name": "solc",
    "version": "0.4.24+commit.e67f0147.Emscripten.clang"
  },
  "schemaVersion": "2.0.1",
  "updatedAt": "2020-02-07T14:16:15.481Z"
}