{
  "contractName": "TokenManager",
  "abi": [
    {
      "constant": true,
      "inputs": [],
      "name": "hasInitialized",
      "outputs": [
        {
          "name": "",
          "type": "bool"
        }
      ],
      "payable": false,
      "stateMutability": "view",
      "type": "function"
    },
    {
      "constant": true,
      "inputs": [],
      "name": "MAX_VESTINGS_PER_ADDRESS",
      "outputs": [
        {
          "name": "",
          "type": "uint256"
        }
      ],
      "payable": false,
      "stateMutability": "view",
      "type": "function"
    },
    {
      "constant": true,
      "inputs": [
        {
          "name": "_script",
          "type": "bytes"
        }
      ],
      "name": "getEVMScriptExecutor",
      "outputs": [
        {
          "name": "",
          "type": "address"
        }
      ],
      "payable": false,
      "stateMutability": "view",
      "type": "function"
    },
    {
      "constant": true,
      "inputs": [],
      "name": "getRecoveryVault",
      "outputs": [
        {
          "name": "",
          "type": "address"
        }
      ],
      "payable": false,
      "stateMutability": "view",
      "type": "function"
    },
    {
      "constant": true,
      "inputs": [],
      "name": "appId",
      "outputs": [
        {
          "name": "",
          "type": "bytes32"
        }
      ],
      "payable": false,
      "stateMutability": "view",
      "type": "function"
    },
    {
      "constant": true,
      "inputs": [],
      "name": "ISSUE_ROLE",
      "outputs": [
        {
          "name": "",
          "type": "bytes32"
        }
      ],
      "payable": false,
      "stateMutability": "view",
      "type": "function"
    },
    {
      "constant": true,
      "inputs": [],
      "name": "getInitializationBlock",
      "outputs": [
        {
          "name": "",
          "type": "uint256"
        }
      ],
      "payable": false,
      "stateMutability": "view",
      "type": "function"
    },
    {
      "constant": true,
      "inputs": [
        {
          "name": "",
          "type": "address"
        }
      ],
      "name": "vestingsLengths",
      "outputs": [
        {
          "name": "",
          "type": "uint256"
        }
      ],
      "payable": false,
      "stateMutability": "view",
      "type": "function"
    },
    {
      "constant": false,
      "inputs": [
        {
          "name": "_token",
          "type": "address"
        }
      ],
      "name": "transferToVault",
      "outputs": [],
      "payable": false,
      "stateMutability": "nonpayable",
      "type": "function"
    },
    {
      "constant": true,
      "inputs": [
        {
          "name": "_sender",
          "type": "address"
        },
        {
          "name": "_role",
          "type": "bytes32"
        },
        {
          "name": "_params",
          "type": "uint256[]"
        }
      ],
      "name": "canPerform",
      "outputs": [
        {
          "name": "",
          "type": "bool"
        }
      ],
      "payable": false,
      "stateMutability": "view",
      "type": "function"
    },
    {
      "constant": true,
      "inputs": [],
      "name": "getEVMScriptRegistry",
      "outputs": [
        {
          "name": "",
          "type": "address"
        }
      ],
      "payable": false,
      "stateMutability": "view",
      "type": "function"
    },
    {
      "constant": true,
      "inputs": [],
      "name": "ASSIGN_ROLE",
      "outputs": [
        {
          "name": "",
          "type": "bytes32"
        }
      ],
      "payable": false,
      "stateMutability": "view",
      "type": "function"
    },
    {
      "constant": true,
      "inputs": [],
      "name": "BURN_ROLE",
      "outputs": [
        {
          "name": "",
          "type": "bytes32"
        }
      ],
      "payable": false,
      "stateMutability": "view",
      "type": "function"
    },
    {
      "constant": true,
      "inputs": [],
      "name": "kernel",
      "outputs": [
        {
          "name": "",
          "type": "address"
        }
      ],
      "payable": false,
      "stateMutability": "view",
      "type": "function"
    },
    {
      "constant": true,
      "inputs": [],
      "name": "isPetrified",
      "outputs": [
        {
          "name": "",
          "type": "bool"
        }
      ],
      "payable": false,
      "stateMutability": "view",
      "type": "function"
    },
    {
      "constant": true,
      "inputs": [],
      "name": "MINT_ROLE",
      "outputs": [
        {
          "name": "",
          "type": "bytes32"
        }
      ],
      "payable": false,
      "stateMutability": "view",
      "type": "function"
    },
    {
      "constant": true,
      "inputs": [],
      "name": "maxAccountTokens",
      "outputs": [
        {
          "name": "",
          "type": "uint256"
        }
      ],
      "payable": false,
      "stateMutability": "view",
      "type": "function"
    },
    {
      "constant": true,
      "inputs": [],
      "name": "REVOKE_VESTINGS_ROLE",
      "outputs": [
        {
          "name": "",
          "type": "bytes32"
        }
      ],
      "payable": false,
      "stateMutability": "view",
      "type": "function"
    },
    {
      "constant": true,
      "inputs": [],
      "name": "token",
      "outputs": [
        {
          "name": "",
          "type": "address"
        }
      ],
      "payable": false,
      "stateMutability": "view",
      "type": "function"
    },
    {
      "anonymous": false,
      "inputs": [
        {
          "indexed": true,
          "name": "receiver",
          "type": "address"
        },
        {
          "indexed": false,
          "name": "vestingId",
          "type": "uint256"
        },
        {
          "indexed": false,
          "name": "amount",
          "type": "uint256"
        }
      ],
      "name": "NewVesting",
      "type": "event"
    },
    {
      "anonymous": false,
      "inputs": [
        {
          "indexed": true,
          "name": "receiver",
          "type": "address"
        },
        {
          "indexed": false,
          "name": "vestingId",
          "type": "uint256"
        },
        {
          "indexed": false,
          "name": "nonVestedAmount",
          "type": "uint256"
        }
      ],
      "name": "RevokeVesting",
      "type": "event"
    },
    {
      "anonymous": false,
      "inputs": [
        {
          "indexed": true,
          "name": "executor",
          "type": "address"
        },
        {
          "indexed": false,
          "name": "script",
          "type": "bytes"
        },
        {
          "indexed": false,
          "name": "input",
          "type": "bytes"
        },
        {
          "indexed": false,
          "name": "returnData",
          "type": "bytes"
        }
      ],
      "name": "ScriptResult",
      "type": "event"
    },
    {
      "anonymous": false,
      "inputs": [
        {
          "indexed": true,
          "name": "vault",
          "type": "address"
        },
        {
          "indexed": true,
          "name": "token",
          "type": "address"
        },
        {
          "indexed": false,
          "name": "amount",
          "type": "uint256"
        }
      ],
      "name": "RecoverToVault",
      "type": "event"
    },
    {
      "constant": false,
      "inputs": [
        {
          "name": "_token",
          "type": "address"
        },
        {
          "name": "_transferable",
          "type": "bool"
        },
        {
          "name": "_maxAccountTokens",
          "type": "uint256"
        }
      ],
      "name": "initialize",
      "outputs": [],
      "payable": false,
      "stateMutability": "nonpayable",
      "type": "function"
    },
    {
      "constant": false,
      "inputs": [
        {
          "name": "_receiver",
          "type": "address"
        },
        {
          "name": "_amount",
          "type": "uint256"
        }
      ],
      "name": "mint",
      "outputs": [],
      "payable": false,
      "stateMutability": "nonpayable",
      "type": "function"
    },
    {
      "constant": false,
      "inputs": [
        {
          "name": "_amount",
          "type": "uint256"
        }
      ],
      "name": "issue",
      "outputs": [],
      "payable": false,
      "stateMutability": "nonpayable",
      "type": "function"
    },
    {
      "constant": false,
      "inputs": [
        {
          "name": "_receiver",
          "type": "address"
        },
        {
          "name": "_amount",
          "type": "uint256"
        }
      ],
      "name": "assign",
      "outputs": [],
      "payable": false,
      "stateMutability": "nonpayable",
      "type": "function"
    },
    {
      "constant": false,
      "inputs": [
        {
          "name": "_holder",
          "type": "address"
        },
        {
          "name": "_amount",
          "type": "uint256"
        }
      ],
      "name": "burn",
      "outputs": [],
      "payable": false,
      "stateMutability": "nonpayable",
      "type": "function"
    },
    {
      "constant": false,
      "inputs": [
        {
          "name": "_receiver",
          "type": "address"
        },
        {
          "name": "_amount",
          "type": "uint256"
        },
        {
          "name": "_start",
          "type": "uint64"
        },
        {
          "name": "_cliff",
          "type": "uint64"
        },
        {
          "name": "_vested",
          "type": "uint64"
        },
        {
          "name": "_revokable",
          "type": "bool"
        }
      ],
      "name": "assignVested",
      "outputs": [
        {
          "name": "",
          "type": "uint256"
        }
      ],
      "payable": false,
      "stateMutability": "nonpayable",
      "type": "function"
    },
    {
      "constant": false,
      "inputs": [
        {
          "name": "_holder",
          "type": "address"
        },
        {
          "name": "_vestingId",
          "type": "uint256"
        }
      ],
      "name": "revokeVesting",
      "outputs": [],
      "payable": false,
      "stateMutability": "nonpayable",
      "type": "function"
    },
    {
      "constant": false,
      "inputs": [
        {
          "name": "_from",
          "type": "address"
        },
        {
          "name": "_to",
          "type": "address"
        },
        {
          "name": "_amount",
          "type": "uint256"
        }
      ],
      "name": "onTransfer",
      "outputs": [
        {
          "name": "",
          "type": "bool"
        }
      ],
      "payable": false,
      "stateMutability": "nonpayable",
      "type": "function"
    },
    {
      "constant": false,
      "inputs": [
        {
          "name": "",
          "type": "address"
        },
        {
          "name": "",
          "type": "address"
        },
        {
          "name": "",
          "type": "uint256"
        }
      ],
      "name": "onApprove",
      "outputs": [
        {
          "name": "",
          "type": "bool"
        }
      ],
      "payable": false,
      "stateMutability": "nonpayable",
      "type": "function"
    },
    {
      "constant": false,
      "inputs": [
        {
          "name": "",
          "type": "address"
        }
      ],
      "name": "proxyPayment",
      "outputs": [
        {
          "name": "",
          "type": "bool"
        }
      ],
      "payable": true,
      "stateMutability": "payable",
      "type": "function"
    },
    {
      "constant": true,
      "inputs": [],
      "name": "isForwarder",
      "outputs": [
        {
          "name": "",
          "type": "bool"
        }
      ],
      "payable": false,
      "stateMutability": "pure",
      "type": "function"
    },
    {
      "constant": false,
      "inputs": [
        {
          "name": "_evmScript",
          "type": "bytes"
        }
      ],
      "name": "forward",
      "outputs": [],
      "payable": false,
      "stateMutability": "nonpayable",
      "type": "function"
    },
    {
      "constant": true,
      "inputs": [
        {
          "name": "_sender",
          "type": "address"
        },
        {
          "name": "",
          "type": "bytes"
        }
      ],
      "name": "canForward",
      "outputs": [
        {
          "name": "",
          "type": "bool"
        }
      ],
      "payable": false,
      "stateMutability": "view",
      "type": "function"
    },
    {
      "constant": true,
      "inputs": [
        {
          "name": "_recipient",
          "type": "address"
        },
        {
          "name": "_vestingId",
          "type": "uint256"
        }
      ],
      "name": "getVesting",
      "outputs": [
        {
          "name": "amount",
          "type": "uint256"
        },
        {
          "name": "start",
          "type": "uint64"
        },
        {
          "name": "cliff",
          "type": "uint64"
        },
        {
          "name": "vesting",
          "type": "uint64"
        },
        {
          "name": "revokable",
          "type": "bool"
        }
      ],
      "payable": false,
      "stateMutability": "view",
      "type": "function"
    },
    {
      "constant": true,
      "inputs": [
        {
          "name": "_holder",
          "type": "address"
        }
      ],
      "name": "spendableBalanceOf",
      "outputs": [
        {
          "name": "",
          "type": "uint256"
        }
      ],
      "payable": false,
      "stateMutability": "view",
      "type": "function"
    },
    {
      "constant": true,
      "inputs": [
        {
          "name": "_holder",
          "type": "address"
        },
        {
          "name": "_time",
          "type": "uint256"
        }
      ],
      "name": "transferableBalance",
      "outputs": [
        {
          "name": "",
          "type": "uint256"
        }
      ],
      "payable": false,
      "stateMutability": "view",
      "type": "function"
    },
    {
      "constant": true,
      "inputs": [
        {
          "name": "_token",
          "type": "address"
        }
      ],
      "name": "allowRecoverability",
      "outputs": [
        {
          "name": "",
          "type": "bool"
        }
      ],
      "payable": false,
      "stateMutability": "view",
      "type": "function"
    }
  ],
  "bytecode": "0x6080604052620000176401000000006200001d810204565b6200023b565b6200003064010000000062000125810204565b60408051808201909152601881527f494e49545f414c52454144595f494e495449414c495a45440000000000000000602082015290156200010c576040517f08c379a00000000000000000000000000000000000000000000000000000000081526004018080602001828103825283818151815260200191508051906020019080838360005b83811015620000d0578181015183820152602001620000b6565b50505050905090810190601f168015620000fe5780820380516001836020036101000a031916815260200191505b509250505060405180910390fd5b506200012360001964010000000062000154810204565b565b60006200014f60008051602062003ab883398151915264010000000062002bea6200023382021704565b905090565b6200016764010000000062000125810204565b60408051808201909152601881527f494e49545f414c52454144595f494e495449414c495a454400000000000000006020820152901562000206576040517f08c379a000000000000000000000000000000000000000000000000000000000815260040180806020018281038252838181518152602001915080519060200190808383600083811015620000d0578181015183820152602001620000b6565b506200023060008051602062003ab883398151915282640100000000620037926200023782021704565b50565b5490565b9055565b61386d806200024b6000396000f3006080604052600436106101c15763ffffffff7c01000000000000000000000000000000000000000000000000000000006000350416630803fac081146101c65780630db3971b146101ef5780630f8f8b831461021657806321cb18cd146102375780632914b9bd1461027957806332f0a3b5146102ee5780633e05a36d1461030357806340c10f19146103605780634a3931491461038657806372f8393c146103b05780637e7db6e1146103d457806380afdea8146103f5578063856222f11461040a5780638b3dd7491461041f57806397f2562a146104345780639d4941d8146104555780639dc29fac14610476578063a1658fad1461049a578063a479e50814610501578063a51d9a8e14610516578063b930908f1461052b578063be76048814610540578063c0774df314610564578063cc872b66146105cb578063d4aae0c4146105e3578063d948d468146105f8578063da682aeb14610651578063de4796ed1461067b578063e37ff29f14610690578063e9a9c850146106b9578063ecfda432146106ce578063edc168f1146106e3578063f48c3054146106f8578063fa6799f21461070c578063fc0c546a14610730578063fd64eccb14610745575b600080fd5b3480156101d257600080fd5b506101db61075a565b604080519115158252519081900360200190f35b3480156101fb57600080fd5b50610204610783565b60408051918252519081900360200190f35b34801561022257600080fd5b50610204600160a060020a0360043516610788565b34801561024357600080fd5b50610204600160a060020a036004351660243567ffffffffffffffff6044358116906064358116906084351660a435151561086c565b34801561028557600080fd5b506040805160206004803580820135601f81018490048402850184019095528484526102d2943694929360249392840191908190840183828082843750949750610cfc9650505050505050565b60408051600160a060020a039092168252519081900360200190f35b3480156102fa57600080fd5b506102d2610dfb565b34801561030f57600080fd5b50610327600160a060020a0360043516602435610e8c565b6040805195865267ffffffffffffffff948516602087015292841685840152921660608401529015156080830152519081900360a00190f35b34801561036c57600080fd5b50610384600160a060020a0360043516602435610fd7565b005b34801561039257600080fd5b506101db600160a060020a0360043581169060243516604435611146565b3480156103bc57600080fd5b50610204600160a060020a0360043516602435611203565b3480156103e057600080fd5b506101db600160a060020a03600435166112a5565b34801561040157600080fd5b506102046112ba565b34801561041657600080fd5b506102046112ea565b34801561042b57600080fd5b5061020461131f565b34801561044057600080fd5b50610204600160a060020a036004351661134a565b34801561046157600080fd5b50610384600160a060020a036004351661135c565b34801561048257600080fd5b50610384600160a060020a03600435166024356115eb565b3480156104a657600080fd5b5060408051602060046044358181013583810280860185019096528085526101db958335600160a060020a031695602480359636969560649593949201929182918501908490808284375094975061175d9650505050505050565b34801561050d57600080fd5b506102d26118c6565b34801561052257600080fd5b5061020461197b565b34801561053757600080fd5b506102046119b0565b34801561054c57600080fd5b50610384600160a060020a03600435166024356119e5565b34801561057057600080fd5b5060408051602060046024803582810135601f81018590048502860185019096528585526101db958335600160a060020a0316953695604494919390910191908190840183828082843750949750611abd9650505050505050565b3480156105d757600080fd5b50610384600435611b6a565b3480156105ef57600080fd5b506102d2611c46565b34801561060457600080fd5b506040805160206004803580820135601f8101849004840285018401909552848452610384943694929360249392840191908190840183828082843750949750611c719650505050505050565b34801561065d57600080fd5b506101db600160a060020a0360043581169060243516604435611d6e565b34801561068757600080fd5b506101db611e0c565b34801561069c57600080fd5b50610384600160a060020a03600435166024351515604435611e1f565b3480156106c557600080fd5b5061020461213c565b3480156106da57600080fd5b50610204612171565b3480156106ef57600080fd5b50610204612177565b6101db600160a060020a03600435166121ac565b34801561071857600080fd5b50610384600160a060020a0360043516602435612248565b34801561073c57600080fd5b506102d2612695565b34801561075157600080fd5b506101db6126a4565b60008061076561131f565b9050801580159061077d57508061077a6126a9565b10155b91505090565b603281565b600061079261075a565b60408051808201909152601481527f494e49545f4e4f545f494e495449414c495a454400000000000000000000000060208201529015156108545760405160e560020a62461bcd0281526004018080602001828103825283818151815260200191508051906020019080838360005b83811015610819578181015183820152602001610801565b50505050905090810190601f1680156108465780820380516001836020036101000a031916815260200191505b509250505060405180910390fd5b50610866826108616126ad565b6126b1565b92915050565b604080517f41535349474e5f524f4c450000000000000000000000000000000000000000008152905190819003600b01902060009081906108ad898961281d565b6108b833838361175d565b60408051808201909152600f81527f4150505f415554485f4641494c45440000000000000000000000000000000000602082015290151561093e5760405160e560020a62461bcd02815260040180806020018281038252838181518152602001915080519060200190808383600083811015610819578181015183820152602001610801565b5060408051808201909152601081527f544d5f56455354494e475f544f5f544d000000000000000000000000000000006020820152600160a060020a038b163014156109cf5760405160e560020a62461bcd02815260040180806020018281038252838181518152602001915080519060200190808383600083811015610819578181015183820152602001610801565b50600160a060020a038a16600090815260036020908152604091829020548251808401909352601483527f544d5f544f4f5f4d414e595f56455354494e475300000000000000000000000091830191909152603211610a735760405160e560020a62461bcd02815260040180806020018281038252838181518152602001915080519060200190808383600083811015610819578181015183820152602001610801565b508667ffffffffffffffff168867ffffffffffffffff1611158015610aac57508567ffffffffffffffff168767ffffffffffffffff1611155b60408051808201909152601381527f544d5f57524f4e475f434c4946465f44415445000000000000000000000000006020820152901515610b325760405160e560020a62461bcd02815260040180806020018281038252838181518152602001915080519060200190808383600083811015610819578181015183820152602001610801565b50600360008b600160a060020a0316600160a060020a03168152602001908152602001600020600081548092919060010191905055925060a0604051908101604052808a81526020018967ffffffffffffffff1681526020018867ffffffffffffffff1681526020018767ffffffffffffffff168152602001861515815250600260008c600160a060020a0316600160a060020a0316815260200190815260200160002060008581526020019081526020016000206000820151816000015560208201518160010160006101000a81548167ffffffffffffffff021916908367ffffffffffffffff16021790555060408201518160010160086101000a81548167ffffffffffffffff021916908367ffffffffffffffff16021790555060608201518160010160106101000a81548167ffffffffffffffff021916908367ffffffffffffffff16021790555060808201518160010160186101000a81548160ff021916908315150217905550905050610cab8a8a612832565b60408051848152602081018b90528151600160a060020a038d16927f627ad26dcfe82ec79b33fda0ddd062f6fab9f4914acac8345f79090dfd86fb54928290030190a2509098975050505050505050565b6000610d066118c6565b600160a060020a03166304bf2a7f836040518263ffffffff167c01000000000000000000000000000000000000000000000000000000000281526004018080602001828103825283818151815260200191508051906020019080838360005b83811015610d7d578181015183820152602001610d65565b50505050905090810190601f168015610daa5780820380516001836020036101000a031916815260200191505b5092505050602060405180830381600087803b158015610dc957600080fd5b505af1158015610ddd573d6000803e3d6000fd5b505050506040513d6020811015610df357600080fd5b505192915050565b6000610e05611c46565b600160a060020a03166332f0a3b56040518163ffffffff167c0100000000000000000000000000000000000000000000000000000000028152600401602060405180830381600087803b158015610e5b57600080fd5b505af1158015610e6f573d6000803e3d6000fd5b505050506040513d6020811015610e8557600080fd5b5051905090565b60008060008060008087876003600083600160a060020a0316600160a060020a031681526020019081526020016000205481106040805190810160405280600d81526020017f544d5f4e4f5f56455354494e4700000000000000000000000000000000000000815250901515610f475760405160e560020a62461bcd02815260040180806020018281038252838181518152602001915080519060200190808383600083811015610819578181015183820152602001610801565b50505050600160a060020a03969096166000908152600260209081526040808320978352969052949094208054600190910154909667ffffffffffffffff8083169750680100000000000000008304811696507001000000000000000000000000000000008304169450780100000000000000000000000000000000000000000000000090910460ff1692509050565b604080517f4d494e545f524f4c45000000000000000000000000000000000000000000000081529051908190036009019020611013838361281d565b61101e33838361175d565b60408051808201909152600f81527f4150505f415554485f4641494c4544000000000000000000000000000000000060208201529015156110a45760405160e560020a62461bcd02815260040180806020018281038252838181518152602001915080519060200190808383600083811015610819578181015183820152602001610801565b5060408051808201909152601681527f544d5f4d494e545f52454345495645525f49535f544d000000000000000000006020820152600160a060020a0385163014156111355760405160e560020a62461bcd02815260040180806020018281038252838181518152602001915080519060200190808383600083811015610819578181015183820152602001610801565b5061114084846129ed565b50505050565b6000805460408051808201909152601381527f544d5f43414c4c45525f4e4f545f544f4b454e00000000000000000000000000602082015290600160a060020a031633146111d95760405160e560020a62461bcd02815260040180806020018281038252838181518152602001915080519060200190808383600083811015610819578181015183820152602001610801565b506111e48383612b1a565b80156111fb5750816111f8856108616126ad565b10155b949350505050565b600061120d61075a565b60408051808201909152601481527f494e49545f4e4f545f494e495449414c495a454400000000000000000000000060208201529015156112935760405160e560020a62461bcd02815260040180806020018281038252838181518152602001915080519060200190808383600083811015610819578181015183820152602001610801565b5061129e83836126b1565b9392505050565b600054600160a060020a039081169116141590565b60006112e57fd625496217aa6a3453eecb9c3489dc5a53e6c67b444329ea2b2cbc9ff547639b612bea565b905090565b604080517f49535355455f524f4c45000000000000000000000000000000000000000000008152905190819003600a01902081565b60006112e57febb05b386a8d34882b8711d156f463690983dc47815980fb82aeeff1aa43579e612bea565b60036020526000908152604090205481565b600080600061136a846112a5565b60408051808201909152601281527f5245434f5645525f444953414c4c4f574544000000000000000000000000000060208201529015156113f05760405160e560020a62461bcd02815260040180806020018281038252838181518152602001915080519060200190808383600083811015610819578181015183820152602001610801565b506113f9610dfb565b925061140483612bf2565b60408051808201909152601a81527f5245434f5645525f5641554c545f4e4f545f434f4e5452414354000000000000602082015290151561148a5760405160e560020a62461bcd02815260040180806020018281038252838181518152602001915080519060200190808383600083811015610819578181015183820152602001610801565b50600160a060020a03841615156114db5760405130319250600160a060020a0384169083156108fc029084906000818181858888f193505050501580156114d5573d6000803e3d6000fd5b5061159a565b50826114f6600160a060020a0382163063ffffffff612c1f16565b9150611512600160a060020a038216848463ffffffff612d3416565b60408051808201909152601d81527f5245434f5645525f544f4b454e5f5452414e534645525f4641494c454400000060208201529015156115985760405160e560020a62461bcd02815260040180806020018281038252838181518152602001915080519060200190808383600083811015610819578181015183820152602001610801565b505b83600160a060020a031683600160a060020a03167f596caf56044b55fb8c4ca640089bbc2b63cae3e978b851f5745cbb7c5b288e02846040518082815260200191505060405180910390a350505050565b604080517f4255524e5f524f4c45000000000000000000000000000000000000000000000081529051908190036009019020611627838361281d565b61163233838361175d565b60408051808201909152600f81527f4150505f415554485f4641494c4544000000000000000000000000000000000060208201529015156116b85760405160e560020a62461bcd02815260040180806020018281038252838181518152602001915080519060200190808383600083811015610819578181015183820152602001610801565b5060008054604080517fd3ce77fe000000000000000000000000000000000000000000000000000000008152600160a060020a038881166004830152602482018890529151919092169263d3ce77fe92604480820193602093909283900390910190829087803b15801561172b57600080fd5b505af115801561173f573d6000803e3d6000fd5b505050506040513d602081101561175557600080fd5b505050505050565b60008061176861075a565b151561177757600091506118be565b61177f611c46565b9050600160a060020a038116151561179a57600091506118be565b80600160a060020a031663fdef91068630876117b588612dbf565b6040517c010000000000000000000000000000000000000000000000000000000063ffffffff8716028152600160a060020a03808616600483019081529085166024830152604482018490526080606483019081528351608484015283519192909160a490910190602085019080838360005b83811015611840578181015183820152602001611828565b50505050905090810190601f16801561186d5780820380516001836020036101000a031916815260200191505b5095505050505050602060405180830381600087803b15801561188f57600080fd5b505af11580156118a3573d6000803e3d6000fd5b505050506040513d60208110156118b957600080fd5b505191505b509392505050565b6000806118d1611c46565b604080517fbe00bbd80000000000000000000000000000000000000000000000000000000081527fd6f028ca0e8edb4a8c9757ca4fdccab25fa1e0317da1188108f7d2dee14902fb60048201527fddbcfd564f642ab5627cf68b9b7d374fb4f8a36e941a75d89c87998cef03bd6160248201529051600160a060020a03929092169163be00bbd8916044808201926020929091908290030181600087803b158015610dc957600080fd5b604080517f41535349474e5f524f4c450000000000000000000000000000000000000000008152905190819003600b01902081565b604080517f4255524e5f524f4c4500000000000000000000000000000000000000000000008152905190819003600901902081565b604080517f41535349474e5f524f4c450000000000000000000000000000000000000000008152905190819003600b019020611a21838361281d565b611a2c33838361175d565b60408051808201909152600f81527f4150505f415554485f4641494c454400000000000000000000000000000000006020820152901515611ab25760405160e560020a62461bcd02815260040180806020018281038252838181518152602001915080519060200190808383600083811015610819578181015183820152602001610801565b506111408484612832565b6000611ac761075a565b801561129e575060008054604080517f70a08231000000000000000000000000000000000000000000000000000000008152600160a060020a038781166004830152915191909216916370a0823191602480830192602092919082900301818787803b158015611b3657600080fd5b505af1158015611b4a573d6000803e3d6000fd5b505050506040513d6020811015611b6057600080fd5b5051119392505050565b604080517f49535355455f524f4c45000000000000000000000000000000000000000000008152905190819003600a019020611ba582612dc9565b611bb033838361175d565b60408051808201909152600f81527f4150505f415554485f4641494c454400000000000000000000000000000000006020820152901515611c365760405160e560020a62461bcd02815260040180806020018281038252838181518152602001915080519060200190808383600083811015610819578181015183820152602001610801565b50611c4130846129ed565b505050565b60006112e57f4172f0f7d2289153072b0a6ca36959e0cbe2efc3afe50fc81636caa96338137b612bea565b606080611c7e3384611abd565b60408051808201909152601281527f544d5f43414e5f4e4f545f464f525741524400000000000000000000000000006020820152901515611d045760405160e560020a62461bcd02815260040180806020018281038252838181518152602001915080519060200190808383600083811015610819578181015183820152602001610801565b506040805160008152600160208083018281526060840185529295509192909190850190803883395050600080548351939450600160a060020a0316928492508110611d4c57fe5b600160a060020a03909216602092830290910190910152611140838383612e0a565b6000805460408051808201909152601381527f544d5f43414c4c45525f4e4f545f544f4b454e00000000000000000000000000602082015290600160a060020a03163314611e015760405160e560020a62461bcd02815260040180806020018281038252838181518152602001915080519060200190808383600083811015610819578181015183820152602001610801565b506001949350505050565b6000600019611e1961131f565b14905090565b611e2761131f565b60408051808201909152601881527f494e49545f414c52454144595f494e495449414c495a4544000000000000000060208201529015611eac5760405160e560020a62461bcd02815260040180806020018281038252838181518152602001915080519060200190808383600083811015610819578181015183820152602001610801565b50611eb5613439565b30600160a060020a031683600160a060020a031663f77c47916040518163ffffffff167c0100000000000000000000000000000000000000000000000000000000028152600401602060405180830381600087803b158015611f1657600080fd5b505af1158015611f2a573d6000803e3d6000fd5b505050506040513d6020811015611f4057600080fd5b505160408051808201909152601381527f544d5f544f4b454e5f434f4e54524f4c4c455200000000000000000000000000602082015291600160a060020a0390911614611fd25760405160e560020a62461bcd02815260040180806020018281038252838181518152602001915080519060200190808383600083811015610819578181015183820152602001610801565b50600080547fffffffffffffffffffffffff000000000000000000000000000000000000000016600160a060020a03851617905580156120125780612016565b6000195b6001819055508115156000809054906101000a9004600160a060020a0316600160a060020a031663bef97c876040518163ffffffff167c0100000000000000000000000000000000000000000000000000000000028152600401602060405180830381600087803b15801561208a57600080fd5b505af115801561209e573d6000803e3d6000fd5b505050506040513d60208110156120b457600080fd5b5051151514611c415760008054604080517ff41e60c500000000000000000000000000000000000000000000000000000000815285151560048201529051600160a060020a039092169263f41e60c59260248084019382900301818387803b15801561211f57600080fd5b505af1158015612133573d6000803e3d6000fd5b50505050505050565b604080517f4d494e545f524f4c4500000000000000000000000000000000000000000000008152905190819003600901902081565b60015481565b604080517f5245564f4b455f56455354494e47535f524f4c450000000000000000000000008152905190819003601401902081565b6000805460408051808201909152601381527f544d5f43414c4c45525f4e4f545f544f4b454e00000000000000000000000000602082015290600160a060020a0316331461223f5760405160e560020a62461bcd02815260040180806020018281038252838181518152602001915080519060200190808383600083811015610819578181015183820152602001610801565b50600092915050565b604080517f5245564f4b455f56455354494e47535f524f4c4500000000000000000000000081529051908190036014019020600090819061228885613501565b61229333838361175d565b60408051808201909152600f81527f4150505f415554485f4641494c4544000000000000000000000000000000000060208201529015156123195760405160e560020a62461bcd02815260040180806020018281038252838181518152602001915080519060200190808383600083811015610819578181015183820152602001610801565b50600160a060020a038616600090815260036020908152604091829020548251808401909352600d83527f544d5f4e4f5f56455354494e4700000000000000000000000000000000000000918301919091528791879182106123c05760405160e560020a62461bcd02815260040180806020018281038252838181518152602001915080519060200190808383600083811015610819578181015183820152602001610801565b50600160a060020a03881660009081526002602090815260408083208a845282529182902060018101548351808501909452601884527f544d5f56455354494e475f4e4f545f5245564f4b41424c4500000000000000009284019290925297507801000000000000000000000000000000000000000000000000900460ff1615156124905760405160e560020a62461bcd02815260040180806020018281038252838181518152602001915080519060200190808383600083811015610819578181015183820152602001610801565b5085546124db9061249f6126ad565b600189015467ffffffffffffffff8082169168010000000000000000810482169170010000000000000000000000000000000090910416613515565b600160a060020a03808a1660008181526002602090815260408083208d8452825280832083815560010180547fffffffffffffff00000000000000000000000000000000000000000000000000169055825481517f23b872dd0000000000000000000000000000000000000000000000000000000081526004810195909552306024860152604485018790529051959a50909316936323b872dd936064808501949193918390030190829087803b15801561259557600080fd5b505af11580156125a9573d6000803e3d6000fd5b505050506040513d60208110156125bf57600080fd5b50516040805180820190915260208082527f544d5f5245564f4b455f5452414e534645525f46524f4d5f5245564552544544908201529015156126475760405160e560020a62461bcd02815260040180806020018281038252838181518152602001915080519060200190808383600083811015610819578181015183820152602001610801565b5060408051888152602081018790528151600160a060020a038b16927fafc516b1509f836efdc27d64d966d14f82ef53f456f0de74c12ac8a651a084cc928290030190a25050505050505050565b600054600160a060020a031681565b600190565b4390565b4290565b60008054604080517f70a08231000000000000000000000000000000000000000000000000000000008152600160a060020a03868116600483015291518493849384938493849392909216916370a082319160248082019260209290919082900301818787803b15801561272457600080fd5b505af1158015612738573d6000803e3d6000fd5b505050506040513d602081101561274e57600080fd5b50519450600160a060020a038816301461281157600160a060020a038816600090815260036020526040812054945092505b8383101561281157600160a060020a03881660009081526002602090815260408083208684529091529020805460018201549193506127f291899067ffffffffffffffff8082169168010000000000000000810482169170010000000000000000000000000000000090910416613515565b9050612804858263ffffffff61358f16565b9450600190920191612780565b50929695505050505050565b606061129e83600160a060020a03168361362a565b61283c8282612b1a565b60408051808201909152601a81527f544d5f42414c414e43455f494e435f4e4f545f414c4c4f57454400000000000060208201529015156128c25760405160e560020a62461bcd02815260040180806020018281038252838181518152602001915080519060200190808383600083811015610819578181015183820152602001610801565b5060008054604080517f23b872dd000000000000000000000000000000000000000000000000000000008152306004820152600160a060020a03868116602483015260448201869052915191909216926323b872dd92606480820193602093909283900390910190829087803b15801561293b57600080fd5b505af115801561294f573d6000803e3d6000fd5b505050506040513d602081101561296557600080fd5b50516040805180820190915260208082527f544d5f41535349474e5f5452414e534645525f46524f4d5f524556455254454490820152901515611c415760405160e560020a62461bcd02815260040180806020018281038252838181518152602001915080519060200190808383600083811015610819578181015183820152602001610801565b6129f78282612b1a565b60408051808201909152601a81527f544d5f42414c414e43455f494e435f4e4f545f414c4c4f5745440000000000006020820152901515612a7d5760405160e560020a62461bcd02815260040180806020018281038252838181518152602001915080519060200190808383600083811015610819578181015183820152602001610801565b5060008054604080517f827f32c0000000000000000000000000000000000000000000000000000000008152600160a060020a038681166004830152602482018690529151919092169263827f32c092604480820193602093909283900390910190829087803b158015612af057600080fd5b505af1158015612b04573d6000803e3d6000fd5b505050506040513d602081101561114057600080fd5b6000600160a060020a038316301415612b3557506001610866565b60015460008054604080517f70a08231000000000000000000000000000000000000000000000000000000008152600160a060020a0388811660048301529151612be194889493909316926370a0823192602480820193602093909283900390910190829087803b158015612ba957600080fd5b505af1158015612bbd573d6000803e3d6000fd5b505050506040513d6020811015612bd357600080fd5b50519063ffffffff61368516565b11159392505050565b5490565b5490565b600080600160a060020a0383161515612c0e5760009150612c19565b823b90506000811191505b50919050565b60408051600160a060020a0383166024808301919091528251808303909101815260449091019091526020810180517bffffffffffffffffffffffffffffffffffffffffffffffffffffffff167f70a08231000000000000000000000000000000000000000000000000000000001790526000908180612c9f8684613713565b60408051808201909152601c81527f534146455f4552435f32305f42414c414e43455f52455645525445440000000060208201529193509150821515612d2a5760405160e560020a62461bcd02815260040180806020018281038252838181518152602001915080519060200190808383600083811015610819578181015183820152602001610801565b5095945050505050565b60408051600160a060020a038416602482015260448082018490528251808303909101815260649091019091526020810180517bffffffffffffffffffffffffffffffffffffffffffffffffffffffff167fa9059cbb00000000000000000000000000000000000000000000000000000000179052600090612db68582613744565b95945050505050565b8051602002815290565b6040805160018082528183019092526060916020808301908038833901905050905081816000815181101515612dfb57fe5b60209081029091010152919050565b6060600080606080612e1a61075a565b60408051808201909152601481527f494e49545f4e4f545f494e495449414c495a45440000000000000000000000006020820152901515612ea05760405160e560020a62461bcd02815260040180806020018281038252838181518152602001915080519060200190808383600083811015610819578181015183820152602001610801565b50600080612eac611c46565b9150612eb66112ba565b9050612ec18a610cfc565b60408051808201909152601b81527f45564d52554e5f4558454355544f525f554e415641494c41424c4500000000006020820152909650600160a060020a0387161515612f535760405160e560020a62461bcd02815260040180806020018281038252838181518152602001915080519060200190808383600083811015610819578181015183820152602001610801565b506040516060602482019081528b5160848301528b517f279cea3500000000000000000000000000000000000000000000000000000000975087928d928d928d9282916044820191606481019160a490910190602089019080838360005b83811015612fc9578181015183820152602001612fb1565b50505050905090810190601f168015612ff65780820380516001836020036101000a031916815260200191505b50848103835286518152865160209182019188019080838360005b83811015613029578181015183820152602001613011565b50505050905090810190601f1680156130565780820380516001836020036101000a031916815260200191505b508481038252855181528551602091820191808801910280838360005b8381101561308b578181015183820152602001613073565b505050509050019650505050505050604051602081830303815290604052907bffffffffffffffffffffffffffffffffffffffffffffffffffffffff19166020820180517bffffffffffffffffffffffffffffffffffffffffffffffffffffffff83818316178352505050509350600080855160208701895af4604051935080801561317957603f3d11801561312e5760203d03806020883e8601604052613173565b60e560020a62461bcd02865260206004870152601e60248701527f45564d52554e5f4558454355544f525f494e56414c49445f52455455524e00006044870152606486fd5b50613182565b3d6000863e3d85fd5b505085600160a060020a03167f5229a5dba83a54ae8cb5b51bdd6de9474cacbe9dd332f5185f3a4f4f2e3f4ad98b8b8660405180806020018060200180602001848103845287818151815260200191508051906020019080838360005b838110156131f75781810151838201526020016131df565b50505050905090810190601f1680156132245780820380516001836020036101000a031916815260200191505b50848103835286518152865160209182019188019080838360005b8381101561325757818101518382015260200161323f565b50505050905090810190601f1680156132845780820380516001836020036101000a031916815260200191505b50848103825285518152855160209182019187019080838360005b838110156132b757818101518382015260200161329f565b50505050905090810190601f1680156132e45780820380516001836020036101000a031916815260200191505b50965050505050505060405180910390a282965081600160a060020a031661330a611c46565b600160a060020a0316146040805190810160405280601f81526020017f45564d52554e5f50524f5445435445445f53544154455f4d4f4449464945440081525090151561339c5760405160e560020a62461bcd02815260040180806020018281038252838181518152602001915080519060200190808383600083811015610819578181015183820152602001610801565b50806133a66112ba565b60408051808201909152601f81527f45564d52554e5f50524f5445435445445f53544154455f4d4f444946494544006020820152911461342b5760405160e560020a62461bcd02815260040180806020018281038252838181518152602001915080519060200190808383600083811015610819578181015183820152602001610801565b505050505050509392505050565b61344161131f565b60408051808201909152601881527f494e49545f414c52454144595f494e495449414c495a45440000000000000000602082015290156134c65760405160e560020a62461bcd02815260040180806020018281038252838181518152602001915080519060200190808383600083811015610819578181015183820152602001610801565b506134ff6134d26126a9565b7febb05b386a8d34882b8711d156f463690983dc47815980fb82aeeff1aa43579e9063ffffffff61379216565b565b606061086682600160a060020a0316612dc9565b6000808286106135285760009150612d2a565b8386101561353857869150612d2a565b613548838663ffffffff61358f16565b61356861355b888863ffffffff61358f16565b899063ffffffff61379616565b81151561357157fe5b049050613584878263ffffffff61358f16565b979650505050505050565b60408051808201909152601281527f4d4154485f5355425f554e444552464c4f570000000000000000000000000000602082015260009081908484111561361b5760405160e560020a62461bcd02815260040180806020018281038252838181518152602001915080519060200190808383600083811015610819578181015183820152602001610801565b505050808203805b5092915050565b60408051600280825260608083018452926020830190803883390190505090508281600081518110151561365a57fe5b60209081029091010152805182908290600190811061367557fe5b6020908102909101015292915050565b60408051808201909152601181527f4d4154485f4144445f4f564552464c4f57000000000000000000000000000000602082015260009083830190848210156118be5760405160e560020a62461bcd02815260040180806020018281038252838181518152602001915080519060200190808383600083811015610819578181015183820152602001610801565b6000806000806040516020818751602089018a5afa9250600083111561373857805191505b50909590945092505050565b6000806040516020818551602087016000895af16000811115613788573d8015613775576020811461377e57613786565b60019350613786565b600183511493505b505b5090949350505050565b9055565b6000808315156137a95760009150613623565b508282028284828115156137b957fe5b60408051808201909152601181527f4d4154485f4d554c5f4f564552464c4f57000000000000000000000000000000602082015292919004146118be5760405160e560020a62461bcd028152600401808060200182810382528381815181526020019150805190602001908083836000838110156108195781810151838201526020016108015600a165627a7a7230582058590afea753ebee848813117517d467e5dc227e87775e17e6f988775a35b4330029ebb05b386a8d34882b8711d156f463690983dc47815980fb82aeeff1aa43579e",
  "source": "/*\n * SPDX-License-Identitifer:    GPL-3.0-or-later\n */\n\n/* solium-disable function-order */\n\npragma solidity 0.4.24;\n\nimport \"@aragon/os/contracts/apps/AragonApp.sol\";\nimport \"@aragon/os/contracts/common/IForwarder.sol\";\n\nimport \"@aragon/os/contracts/lib/math/SafeMath.sol\";\n\nimport \"@aragon/apps-shared-minime/contracts/ITokenController.sol\";\nimport \"@aragon/apps-shared-minime/contracts/MiniMeToken.sol\";\n\n\ncontract TokenManager is ITokenController, IForwarder, AragonApp {\n    using SafeMath for uint256;\n\n    bytes32 public constant MINT_ROLE = keccak256(\"MINT_ROLE\");\n    bytes32 public constant ISSUE_ROLE = keccak256(\"ISSUE_ROLE\");\n    bytes32 public constant ASSIGN_ROLE = keccak256(\"ASSIGN_ROLE\");\n    bytes32 public constant REVOKE_VESTINGS_ROLE = keccak256(\"REVOKE_VESTINGS_ROLE\");\n    bytes32 public constant BURN_ROLE = keccak256(\"BURN_ROLE\");\n\n    uint256 public constant MAX_VESTINGS_PER_ADDRESS = 50;\n\n    string private constant ERROR_CALLER_NOT_TOKEN = \"TM_CALLER_NOT_TOKEN\";\n    string private constant ERROR_NO_VESTING = \"TM_NO_VESTING\";\n    string private constant ERROR_TOKEN_CONTROLLER = \"TM_TOKEN_CONTROLLER\";\n    string private constant ERROR_MINT_RECEIVER_IS_TM = \"TM_MINT_RECEIVER_IS_TM\";\n    string private constant ERROR_VESTING_TO_TM = \"TM_VESTING_TO_TM\";\n    string private constant ERROR_TOO_MANY_VESTINGS = \"TM_TOO_MANY_VESTINGS\";\n    string private constant ERROR_WRONG_CLIFF_DATE = \"TM_WRONG_CLIFF_DATE\";\n    string private constant ERROR_VESTING_NOT_REVOKABLE = \"TM_VESTING_NOT_REVOKABLE\";\n    string private constant ERROR_REVOKE_TRANSFER_FROM_REVERTED = \"TM_REVOKE_TRANSFER_FROM_REVERTED\";\n    string private constant ERROR_CAN_NOT_FORWARD = \"TM_CAN_NOT_FORWARD\";\n    string private constant ERROR_BALANCE_INCREASE_NOT_ALLOWED = \"TM_BALANCE_INC_NOT_ALLOWED\";\n    string private constant ERROR_ASSIGN_TRANSFER_FROM_REVERTED = \"TM_ASSIGN_TRANSFER_FROM_REVERTED\";\n\n    struct TokenVesting {\n        uint256 amount;\n        uint64 start;\n        uint64 cliff;\n        uint64 vesting;\n        bool revokable;\n    }\n\n    // Note that we COMPLETELY trust this MiniMeToken to not be malicious for proper operation of this contract\n    MiniMeToken public token;\n    uint256 public maxAccountTokens;\n\n    // We are mimicing an array in the inner mapping, we use a mapping instead to make app upgrade more graceful\n    mapping (address => mapping (uint256 => TokenVesting)) internal vestings;\n    mapping (address => uint256) public vestingsLengths;\n\n    // Other token specific events can be watched on the token address directly (avoids duplication)\n    event NewVesting(address indexed receiver, uint256 vestingId, uint256 amount);\n    event RevokeVesting(address indexed receiver, uint256 vestingId, uint256 nonVestedAmount);\n\n    modifier onlyToken() {\n        require(msg.sender == address(token), ERROR_CALLER_NOT_TOKEN);\n        _;\n    }\n\n    modifier vestingExists(address _holder, uint256 _vestingId) {\n        // TODO: it's not checking for gaps that may appear because of deletes in revokeVesting function\n        require(_vestingId < vestingsLengths[_holder], ERROR_NO_VESTING);\n        _;\n    }\n\n    /**\n    * @notice Initialize Token Manager for `_token.symbol(): string`, whose tokens are `transferable ? 'not' : ''` transferable`_maxAccountTokens > 0 ? ' and limited to a maximum of ' + @tokenAmount(_token, _maxAccountTokens, false) + ' per account' : ''`\n    * @param _token MiniMeToken address for the managed token (Token Manager instance must be already set as the token controller)\n    * @param _transferable whether the token can be transferred by holders\n    * @param _maxAccountTokens Maximum amount of tokens an account can have (0 for infinite tokens)\n    */\n    function initialize(\n        MiniMeToken _token,\n        bool _transferable,\n        uint256 _maxAccountTokens\n    )\n        external\n        onlyInit\n    {\n        initialized();\n\n        require(_token.controller() == address(this), ERROR_TOKEN_CONTROLLER);\n\n        token = _token;\n        maxAccountTokens = _maxAccountTokens == 0 ? uint256(-1) : _maxAccountTokens;\n\n        if (token.transfersEnabled() != _transferable) {\n            token.enableTransfers(_transferable);\n        }\n    }\n\n    /**\n    * @notice Mint `@tokenAmount(self.token(): address, _amount, false)` tokens for `_receiver`\n    * @param _receiver The address receiving the tokens, cannot be the Token Manager itself (use `issue()` instead)\n    * @param _amount Number of tokens minted\n    */\n    function mint(address _receiver, uint256 _amount) external authP(MINT_ROLE, arr(_receiver, _amount)) {\n        require(_receiver != address(this), ERROR_MINT_RECEIVER_IS_TM);\n        _mint(_receiver, _amount);\n    }\n\n    /**\n    * @notice Mint `@tokenAmount(self.token(): address, _amount, false)` tokens for the Token Manager\n    * @param _amount Number of tokens minted\n    */\n    function issue(uint256 _amount) external authP(ISSUE_ROLE, arr(_amount)) {\n        _mint(address(this), _amount);\n    }\n\n    /**\n    * @notice Assign `@tokenAmount(self.token(): address, _amount, false)` tokens to `_receiver` from the Token Manager's holdings\n    * @param _receiver The address receiving the tokens\n    * @param _amount Number of tokens transferred\n    */\n    function assign(address _receiver, uint256 _amount) external authP(ASSIGN_ROLE, arr(_receiver, _amount)) {\n        _assign(_receiver, _amount);\n    }\n\n    /**\n    * @notice Burn `@tokenAmount(self.token(): address, _amount, false)` tokens from `_holder`\n    * @param _holder Holder of tokens being burned\n    * @param _amount Number of tokens being burned\n    */\n    function burn(address _holder, uint256 _amount) external authP(BURN_ROLE, arr(_holder, _amount)) {\n        // minime.destroyTokens() never returns false, only reverts on failure\n        token.destroyTokens(_holder, _amount);\n    }\n\n    /**\n    * @notice Assign `@tokenAmount(self.token(): address, _amount, false)` tokens to `_receiver` from the Token Manager's holdings with a `_revokable : 'revokable' : ''` vesting starting at `@formatDate(_start)`, cliff at `@formatDate(_cliff)` (first portion of tokens transferable), and completed vesting at `@formatDate(_vested)` (all tokens transferable)\n    * @param _receiver The address receiving the tokens, cannot be Token Manager itself\n    * @param _amount Number of tokens vested\n    * @param _start Date the vesting calculations start\n    * @param _cliff Date when the initial portion of tokens are transferable\n    * @param _vested Date when all tokens are transferable\n    * @param _revokable Whether the vesting can be revoked by the Token Manager\n    */\n    function assignVested(\n        address _receiver,\n        uint256 _amount,\n        uint64 _start,\n        uint64 _cliff,\n        uint64 _vested,\n        bool _revokable\n    )\n        external\n        authP(ASSIGN_ROLE, arr(_receiver, _amount))\n        returns (uint256)\n    {\n        require(_receiver != address(this), ERROR_VESTING_TO_TM);\n        require(vestingsLengths[_receiver] < MAX_VESTINGS_PER_ADDRESS, ERROR_TOO_MANY_VESTINGS);\n        require(_start <= _cliff && _cliff <= _vested, ERROR_WRONG_CLIFF_DATE);\n\n        uint256 vestingId = vestingsLengths[_receiver]++;\n        vestings[_receiver][vestingId] = TokenVesting(\n            _amount,\n            _start,\n            _cliff,\n            _vested,\n            _revokable\n        );\n\n        _assign(_receiver, _amount);\n\n        emit NewVesting(_receiver, vestingId, _amount);\n\n        return vestingId;\n    }\n\n    /**\n    * @notice Revoke vesting #`_vestingId` from `_holder`, returning unvested tokens to the Token Manager\n    * @param _holder Address whose vesting to revoke\n    * @param _vestingId Numeric id of the vesting\n    */\n    function revokeVesting(address _holder, uint256 _vestingId)\n        external\n        authP(REVOKE_VESTINGS_ROLE, arr(_holder))\n        vestingExists(_holder, _vestingId)\n    {\n        TokenVesting storage v = vestings[_holder][_vestingId];\n        require(v.revokable, ERROR_VESTING_NOT_REVOKABLE);\n\n        uint256 nonVested = _calculateNonVestedTokens(\n            v.amount,\n            getTimestamp(),\n            v.start,\n            v.cliff,\n            v.vesting\n        );\n\n        // To make vestingIds immutable over time, we just zero out the revoked vesting\n        // Clearing this out also allows the token transfer back to the Token Manager to succeed\n        delete vestings[_holder][_vestingId];\n\n        // transferFrom always works as controller\n        // onTransfer hook always allows if transfering to token controller\n        require(token.transferFrom(_holder, address(this), nonVested), ERROR_REVOKE_TRANSFER_FROM_REVERTED);\n\n        emit RevokeVesting(_holder, _vestingId, nonVested);\n    }\n\n    // ITokenController fns\n    // `onTransfer()`, `onApprove()`, and `proxyPayment()` are callbacks from the MiniMe token\n    // contract and are only meant to be called through the managed MiniMe token that gets assigned\n    // during initialization.\n\n    /*\n    * @dev Notifies the controller about a token transfer allowing the controller to decide whether\n    *      to allow it or react if desired (only callable from the token).\n    *      Initialization check is implicitly provided by `onlyToken()`.\n    * @param _from The origin of the transfer\n    * @param _to The destination of the transfer\n    * @param _amount The amount of the transfer\n    * @return False if the controller does not authorize the transfer\n    */\n    function onTransfer(address _from, address _to, uint256 _amount) external onlyToken returns (bool) {\n        return _isBalanceIncreaseAllowed(_to, _amount) && _transferableBalance(_from, getTimestamp()) >= _amount;\n    }\n\n    /**\n    * @dev Notifies the controller about an approval allowing the controller to react if desired\n    *      Initialization check is implicitly provided by `onlyToken()`.\n    * @return False if the controller does not authorize the approval\n    */\n    function onApprove(address, address, uint) external onlyToken returns (bool) {\n        return true;\n    }\n\n    /**\n    * @dev Called when ether is sent to the MiniMe Token contract\n    *      Initialization check is implicitly provided by `onlyToken()`.\n    * @return True if the ether is accepted, false for it to throw\n    */\n    function proxyPayment(address) external payable onlyToken returns (bool) {\n        return false;\n    }\n\n    // Forwarding fns\n\n    function isForwarder() external pure returns (bool) {\n        return true;\n    }\n\n    /**\n    * @notice Execute desired action as a token holder\n    * @dev IForwarder interface conformance. Forwards any token holder action.\n    * @param _evmScript Script being executed\n    */\n    function forward(bytes _evmScript) public {\n        require(canForward(msg.sender, _evmScript), ERROR_CAN_NOT_FORWARD);\n        bytes memory input = new bytes(0); // TODO: Consider input for this\n\n        // Add the managed token to the blacklist to disallow a token holder from executing actions\n        // on the token controller's (this contract) behalf\n        address[] memory blacklist = new address[](1);\n        blacklist[0] = address(token);\n\n        runScript(_evmScript, input, blacklist);\n    }\n\n    function canForward(address _sender, bytes) public view returns (bool) {\n        return hasInitialized() && token.balanceOf(_sender) > 0;\n    }\n\n    // Getter fns\n\n    function getVesting(\n        address _recipient,\n        uint256 _vestingId\n    )\n        public\n        view\n        vestingExists(_recipient, _vestingId)\n        returns (\n            uint256 amount,\n            uint64 start,\n            uint64 cliff,\n            uint64 vesting,\n            bool revokable\n        )\n    {\n        TokenVesting storage tokenVesting = vestings[_recipient][_vestingId];\n        amount = tokenVesting.amount;\n        start = tokenVesting.start;\n        cliff = tokenVesting.cliff;\n        vesting = tokenVesting.vesting;\n        revokable = tokenVesting.revokable;\n    }\n\n    function spendableBalanceOf(address _holder) public view isInitialized returns (uint256) {\n        return _transferableBalance(_holder, getTimestamp());\n    }\n\n    function transferableBalance(address _holder, uint256 _time) public view isInitialized returns (uint256) {\n        return _transferableBalance(_holder, _time);\n    }\n\n    /**\n    * @dev Disable recovery escape hatch for own token,\n    *      as the it has the concept of issuing tokens without assigning them\n    */\n    function allowRecoverability(address _token) public view returns (bool) {\n        return _token != address(token);\n    }\n\n    // Internal fns\n\n    function _assign(address _receiver, uint256 _amount) internal {\n        require(_isBalanceIncreaseAllowed(_receiver, _amount), ERROR_BALANCE_INCREASE_NOT_ALLOWED);\n        // Must use transferFrom() as transfer() does not give the token controller full control\n        require(token.transferFrom(address(this), _receiver, _amount), ERROR_ASSIGN_TRANSFER_FROM_REVERTED);\n    }\n\n    function _mint(address _receiver, uint256 _amount) internal {\n        require(_isBalanceIncreaseAllowed(_receiver, _amount), ERROR_BALANCE_INCREASE_NOT_ALLOWED);\n        token.generateTokens(_receiver, _amount); // minime.generateTokens() never returns false\n    }\n\n    function _isBalanceIncreaseAllowed(address _receiver, uint256 _inc) internal view returns (bool) {\n        // Max balance doesn't apply to the token manager itself\n        if (_receiver == address(this)) {\n            return true;\n        }\n        return token.balanceOf(_receiver).add(_inc) <= maxAccountTokens;\n    }\n\n    /**\n    * @dev Calculate amount of non-vested tokens at a specifc time\n    * @param tokens The total amount of tokens vested\n    * @param time The time at which to check\n    * @param start The date vesting started\n    * @param cliff The cliff period\n    * @param vested The fully vested date\n    * @return The amount of non-vested tokens of a specific grant\n    *  transferableTokens\n    *   |                         _/--------   vestedTokens rect\n    *   |                       _/\n    *   |                     _/\n    *   |                   _/\n    *   |                 _/\n    *   |                /\n    *   |              .|\n    *   |            .  |\n    *   |          .    |\n    *   |        .      |\n    *   |      .        |\n    *   |    .          |\n    *   +===+===========+---------+----------> time\n    *      Start       Cliff    Vested\n    */\n    function _calculateNonVestedTokens(\n        uint256 tokens,\n        uint256 time,\n        uint256 start,\n        uint256 cliff,\n        uint256 vested\n    )\n        private\n        pure\n        returns (uint256)\n    {\n        // Shortcuts for before cliff and after vested cases.\n        if (time >= vested) {\n            return 0;\n        }\n        if (time < cliff) {\n            return tokens;\n        }\n\n        // Interpolate all vested tokens.\n        // As before cliff the shortcut returns 0, we can just calculate a value\n        // in the vesting rect (as shown in above's figure)\n\n        // vestedTokens = tokens * (time - start) / (vested - start)\n        // In assignVesting we enforce start <= cliff <= vested\n        // Here we shortcut time >= vested and time < cliff,\n        // so no division by 0 is possible\n        uint256 vestedTokens = tokens.mul(time.sub(start)) / vested.sub(start);\n\n        // tokens - vestedTokens\n        return tokens.sub(vestedTokens);\n    }\n\n    function _transferableBalance(address _holder, uint256 _time) internal view returns (uint256) {\n        uint256 transferable = token.balanceOf(_holder);\n\n        // This check is not strictly necessary for the current version of this contract, as\n        // Token Managers now cannot assign vestings to themselves.\n        // However, this was a possibility in the past, so in case there were vestings assigned to\n        // themselves, this will still return the correct value (entire balance, as the Token\n        // Manager does not have a spending limit on its own balance).\n        if (_holder != address(this)) {\n            uint256 vestingsCount = vestingsLengths[_holder];\n            for (uint256 i = 0; i < vestingsCount; i++) {\n                TokenVesting storage v = vestings[_holder][i];\n                uint256 nonTransferable = _calculateNonVestedTokens(\n                    v.amount,\n                    _time,\n                    v.start,\n                    v.cliff,\n                    v.vesting\n                );\n                transferable = transferable.sub(nonTransferable);\n            }\n        }\n\n        return transferable;\n    }\n}\n",
  "sourcePath": "@aragon/apps-token-manager/contracts/TokenManager.sol",
  "compiler": {
    "name": "solc",
    "version": "0.4.24+commit.e67f0147.Emscripten.clang"
  },
  "schemaVersion": "2.0.1",
  "updatedAt": "2020-02-07T14:16:15.568Z"
}