{
  "contractName": "Vault",
  "abi": [
    {
      "constant": true,
      "inputs": [],
      "name": "hasInitialized",
      "outputs": [
        {
          "name": "",
          "type": "bool"
        }
      ],
      "payable": false,
      "stateMutability": "view",
      "type": "function"
    },
    {
      "constant": true,
      "inputs": [],
      "name": "TRANSFER_ROLE",
      "outputs": [
        {
          "name": "",
          "type": "bytes32"
        }
      ],
      "payable": false,
      "stateMutability": "view",
      "type": "function"
    },
    {
      "constant": true,
      "inputs": [
        {
          "name": "_script",
          "type": "bytes"
        }
      ],
      "name": "getEVMScriptExecutor",
      "outputs": [
        {
          "name": "",
          "type": "address"
        }
      ],
      "payable": false,
      "stateMutability": "view",
      "type": "function"
    },
    {
      "constant": true,
      "inputs": [],
      "name": "getRecoveryVault",
      "outputs": [
        {
          "name": "",
          "type": "address"
        }
      ],
      "payable": false,
      "stateMutability": "view",
      "type": "function"
    },
    {
      "constant": true,
      "inputs": [],
      "name": "isDepositable",
      "outputs": [
        {
          "name": "",
          "type": "bool"
        }
      ],
      "payable": false,
      "stateMutability": "view",
      "type": "function"
    },
    {
      "constant": true,
      "inputs": [],
      "name": "appId",
      "outputs": [
        {
          "name": "",
          "type": "bytes32"
        }
      ],
      "payable": false,
      "stateMutability": "view",
      "type": "function"
    },
    {
      "constant": true,
      "inputs": [],
      "name": "getInitializationBlock",
      "outputs": [
        {
          "name": "",
          "type": "uint256"
        }
      ],
      "payable": false,
      "stateMutability": "view",
      "type": "function"
    },
    {
      "constant": false,
      "inputs": [
        {
          "name": "_token",
          "type": "address"
        }
      ],
      "name": "transferToVault",
      "outputs": [],
      "payable": false,
      "stateMutability": "nonpayable",
      "type": "function"
    },
    {
      "constant": true,
      "inputs": [
        {
          "name": "_sender",
          "type": "address"
        },
        {
          "name": "_role",
          "type": "bytes32"
        },
        {
          "name": "_params",
          "type": "uint256[]"
        }
      ],
      "name": "canPerform",
      "outputs": [
        {
          "name": "",
          "type": "bool"
        }
      ],
      "payable": false,
      "stateMutability": "view",
      "type": "function"
    },
    {
      "constant": true,
      "inputs": [],
      "name": "getEVMScriptRegistry",
      "outputs": [
        {
          "name": "",
          "type": "address"
        }
      ],
      "payable": false,
      "stateMutability": "view",
      "type": "function"
    },
    {
      "constant": true,
      "inputs": [],
      "name": "kernel",
      "outputs": [
        {
          "name": "",
          "type": "address"
        }
      ],
      "payable": false,
      "stateMutability": "view",
      "type": "function"
    },
    {
      "constant": true,
      "inputs": [],
      "name": "isPetrified",
      "outputs": [
        {
          "name": "",
          "type": "bool"
        }
      ],
      "payable": false,
      "stateMutability": "view",
      "type": "function"
    },
    {
      "payable": true,
      "stateMutability": "payable",
      "type": "fallback"
    },
    {
      "anonymous": false,
      "inputs": [
        {
          "indexed": true,
          "name": "token",
          "type": "address"
        },
        {
          "indexed": true,
          "name": "to",
          "type": "address"
        },
        {
          "indexed": false,
          "name": "amount",
          "type": "uint256"
        }
      ],
      "name": "VaultTransfer",
      "type": "event"
    },
    {
      "anonymous": false,
      "inputs": [
        {
          "indexed": true,
          "name": "token",
          "type": "address"
        },
        {
          "indexed": true,
          "name": "sender",
          "type": "address"
        },
        {
          "indexed": false,
          "name": "amount",
          "type": "uint256"
        }
      ],
      "name": "VaultDeposit",
      "type": "event"
    },
    {
      "anonymous": false,
      "inputs": [
        {
          "indexed": true,
          "name": "executor",
          "type": "address"
        },
        {
          "indexed": false,
          "name": "script",
          "type": "bytes"
        },
        {
          "indexed": false,
          "name": "input",
          "type": "bytes"
        },
        {
          "indexed": false,
          "name": "returnData",
          "type": "bytes"
        }
      ],
      "name": "ScriptResult",
      "type": "event"
    },
    {
      "anonymous": false,
      "inputs": [
        {
          "indexed": true,
          "name": "vault",
          "type": "address"
        },
        {
          "indexed": true,
          "name": "token",
          "type": "address"
        },
        {
          "indexed": false,
          "name": "amount",
          "type": "uint256"
        }
      ],
      "name": "RecoverToVault",
      "type": "event"
    },
    {
      "constant": false,
      "inputs": [],
      "name": "initialize",
      "outputs": [],
      "payable": false,
      "stateMutability": "nonpayable",
      "type": "function"
    },
    {
      "constant": false,
      "inputs": [
        {
          "name": "_token",
          "type": "address"
        },
        {
          "name": "_value",
          "type": "uint256"
        }
      ],
      "name": "deposit",
      "outputs": [],
      "payable": true,
      "stateMutability": "payable",
      "type": "function"
    },
    {
      "constant": false,
      "inputs": [
        {
          "name": "_token",
          "type": "address"
        },
        {
          "name": "_to",
          "type": "address"
        },
        {
          "name": "_value",
          "type": "uint256"
        }
      ],
      "name": "transfer",
      "outputs": [],
      "payable": false,
      "stateMutability": "nonpayable",
      "type": "function"
    },
    {
      "constant": true,
      "inputs": [
        {
          "name": "_token",
          "type": "address"
        }
      ],
      "name": "balance",
      "outputs": [
        {
          "name": "",
          "type": "uint256"
        }
      ],
      "payable": false,
      "stateMutability": "view",
      "type": "function"
    },
    {
      "constant": true,
      "inputs": [
        {
          "name": "",
          "type": "address"
        }
      ],
      "name": "allowRecoverability",
      "outputs": [
        {
          "name": "",
          "type": "bool"
        }
      ],
      "payable": false,
      "stateMutability": "view",
      "type": "function"
    }
  ],
  "bytecode": "0x6080604052620000176401000000006200001d810204565b6200023b565b6200003064010000000062000125810204565b60408051808201909152601881527f494e49545f414c52454144595f494e495449414c495a45440000000000000000602082015290156200010c576040517f08c379a00000000000000000000000000000000000000000000000000000000081526004018080602001828103825283818151815260200191508051906020019080838360005b83811015620000d0578181015183820152602001620000b6565b50505050905090810190601f168015620000fe5780820380516001836020036101000a031916815260200191505b509250505060405180910390fd5b506200012360001964010000000062000154810204565b565b60006200014f60008051602062001b01833981519152640100000000620014656200023382021704565b905090565b6200016764010000000062000125810204565b60408051808201909152601881527f494e49545f414c52454144595f494e495449414c495a454400000000000000006020820152901562000206576040517f08c379a000000000000000000000000000000000000000000000000000000000815260040180806020018281038252838181518152602001915080519060200190808383600083811015620000d0578181015183820152602001620000b6565b506200023060008051602062001b0183398151915282640100000000620017bc6200023782021704565b50565b5490565b9055565b6118b6806200024b6000396000f3006080604052600436106100f05763ffffffff7c01000000000000000000000000000000000000000000000000000000006000350416630803fac08114610258578063206b60f9146102815780632914b9bd146102a857806332f0a3b51461031d57806347e7ef241461033257806348a0c8dd146103495780637e7db6e11461035e57806380afdea81461037f5780638129fc1c146103945780638b3dd749146103a95780639d4941d8146103be578063a1658fad146103df578063a479e50814610446578063beabacc81461045b578063d4aae0c414610485578063de4796ed1461049a578063e3d670d7146104af575b6100f86104d0565b60408051808201909152601481527f494e49545f4e4f545f494e495449414c495a454400000000000000000000000060208201529015156101bf5760405160008051602061186b83398151915281526004018080602001828103825283818151815260200191508051906020019080838360005b8381101561018457818101518382015260200161016c565b50505050905090810190601f1680156101b15780820380516001836020036101000a031916815260200191505b509250505060405180910390fd5b5060408051808201909152601381527f5641554c545f444154415f4e4f4e5f5a45524f000000000000000000000000006020820152361561024a5760405160008051602061186b83398151915281526004018080602001828103825283818151815260200191508051906020019080838360008381101561018457818101518382015260200161016c565b506102566000346104f9565b005b34801561026457600080fd5b5061026d6104d0565b604080519115158252519081900360200190f35b34801561028d57600080fd5b506102966107a9565b60408051918252519081900360200190f35b3480156102b457600080fd5b506040805160206004803580820135601f81018490048402850184019095528484526103019436949293602493928401919081908401838280828437509497506107de9650505050505050565b60408051600160a060020a039092168252519081900360200190f35b34801561032957600080fd5b506103016108df565b610256600160a060020a0360043516602435610970565b34801561035557600080fd5b5061026d610a12565b34801561036a57600080fd5b5061026d600160a060020a0360043516610a42565b34801561038b57600080fd5b50610296610a48565b3480156103a057600080fd5b50610256610a73565b3480156103b557600080fd5b50610296610b1a565b3480156103ca57600080fd5b50610256600160a060020a0360043516610b45565b3480156103eb57600080fd5b50604080516020600460443581810135838102808601850190965280855261026d958335600160a060020a0316956024803596369695606495939492019291829185019084908082843750949750610de39650505050505050565b34801561045257600080fd5b50610301610f4c565b34801561046757600080fd5b50610256600160a060020a0360043581169060243516604435611033565b34801561049157600080fd5b50610301611355565b3480156104a657600080fd5b5061026d611380565b3480156104bb57600080fd5b50610296600160a060020a0360043516611393565b6000806104db610b1a565b905080158015906104f35750806104f06113cd565b10155b91505090565b610501610a12565b60408051808201909152601581527f5641554c545f4e4f545f4445504f53495441424c450000000000000000000000602082015290151561058c5760405160008051602061186b83398151915281526004018080602001828103825283818151815260200191508051906020019080838360008381101561018457818101518382015260200161016c565b5060408051808201909152601881527f5641554c545f4445504f5349545f56414c55455f5a45524f00000000000000006020820152600082116106195760405160008051602061186b83398151915281526004018080602001828103825283818151815260200191508051906020019080838360008381101561018457818101518382015260200161016c565b50600160a060020a03821615156106bb5760408051808201909152601481527f5641554c545f56414c55455f4d49534d4154434800000000000000000000000060208201523482146106b55760405160008051602061186b83398151915281526004018080602001828103825283818151815260200191508051906020019080838360008381101561018457818101518382015260200161016c565b50610765565b6106d6600160a060020a03831633308463ffffffff6113d116565b6040805190810160405280602081526020017f5641554c545f544f4b454e5f5452414e534645525f46524f4d5f5245564552548152509015156107635760405160008051602061186b83398151915281526004018080602001828103825283818151815260200191508051906020019080838360008381101561018457818101518382015260200161016c565b505b6040805182815290513391600160a060020a038516917f2790b90165fd3973ad7edde4eca71b4f8808dd4857a2a3a3e8ae5642a5cb196e9181900360200190a35050565b604080517f5452414e534645525f524f4c45000000000000000000000000000000000000008152905190819003600d01902081565b60006107e8610f4c565b600160a060020a03166304bf2a7f836040518263ffffffff167c01000000000000000000000000000000000000000000000000000000000281526004018080602001828103825283818151815260200191508051906020019080838360005b8381101561085f578181015183820152602001610847565b50505050905090810190601f16801561088c5780820380516001836020036101000a031916815260200191505b5092505050602060405180830381600087803b1580156108ab57600080fd5b505af11580156108bf573d6000803e3d6000fd5b505050506040513d60208110156108d557600080fd5b505190505b919050565b60006108e9611355565b600160a060020a03166332f0a3b56040518163ffffffff167c0100000000000000000000000000000000000000000000000000000000028152600401602060405180830381600087803b15801561093f57600080fd5b505af1158015610953573d6000803e3d6000fd5b505050506040513d602081101561096957600080fd5b5051905090565b6109786104d0565b60408051808201909152601481527f494e49545f4e4f545f494e495449414c495a45440000000000000000000000006020820152901515610a035760405160008051602061186b83398151915281526004018080602001828103825283818151815260200191508051906020019080838360008381101561018457818101518382015260200161016c565b50610a0e82826104f9565b5050565b6000610a3d7f665fd576fbbe6f247aff98f5c94a561e3f71ec2d3c988d56f12d342396c50cea611465565b905090565b50600090565b6000610a3d7fd625496217aa6a3453eecb9c3489dc5a53e6c67b444329ea2b2cbc9ff547639b611465565b610a7b610b1a565b60408051808201909152601881527f494e49545f414c52454144595f494e495449414c495a4544000000000000000060208201529015610b055760405160008051602061186b83398151915281526004018080602001828103825283818151815260200191508051906020019080838360008381101561018457818101518382015260200161016c565b50610b0e611469565b610b186001611534565b565b6000610a3d7febb05b386a8d34882b8711d156f463690983dc47815980fb82aeeff1aa43579e611465565b6000806000610b5384610a42565b60408051808201909152601281527f5245434f5645525f444953414c4c4f57454400000000000000000000000000006020820152901515610bde5760405160008051602061186b83398151915281526004018080602001828103825283818151815260200191508051906020019080838360008381101561018457818101518382015260200161016c565b50610be76108df565b9250610bf28361156b565b60408051808201909152601a81527f5245434f5645525f5641554c545f4e4f545f434f4e54524143540000000000006020820152901515610c7d5760405160008051602061186b83398151915281526004018080602001828103825283818151815260200191508051906020019080838360008381101561018457818101518382015260200161016c565b50600160a060020a0384161515610cce5760405130319250600160a060020a0384169083156108fc029084906000818181858888f19350505050158015610cc8573d6000803e3d6000fd5b50610d92565b5082610ce9600160a060020a0382163063ffffffff61159816565b9150610d05600160a060020a038216848463ffffffff6116b216565b60408051808201909152601d81527f5245434f5645525f544f4b454e5f5452414e534645525f4641494c45440000006020820152901515610d905760405160008051602061186b83398151915281526004018080602001828103825283818151815260200191508051906020019080838360008381101561018457818101518382015260200161016c565b505b83600160a060020a031683600160a060020a03167f596caf56044b55fb8c4ca640089bbc2b63cae3e978b851f5745cbb7c5b288e02846040518082815260200191505060405180910390a350505050565b600080610dee6104d0565b1515610dfd5760009150610f44565b610e05611355565b9050600160a060020a0381161515610e205760009150610f44565b80600160a060020a031663fdef9106863087610e3b8861173d565b6040517c010000000000000000000000000000000000000000000000000000000063ffffffff8716028152600160a060020a03808616600483019081529085166024830152604482018490526080606483019081528351608484015283519192909160a490910190602085019080838360005b83811015610ec6578181015183820152602001610eae565b50505050905090810190601f168015610ef35780820380516001836020036101000a031916815260200191505b5095505050505050602060405180830381600087803b158015610f1557600080fd5b505af1158015610f29573d6000803e3d6000fd5b505050506040513d6020811015610f3f57600080fd5b505191505b509392505050565b600080610f57611355565b604080517fbe00bbd80000000000000000000000000000000000000000000000000000000081527fd6f028ca0e8edb4a8c9757ca4fdccab25fa1e0317da1188108f7d2dee14902fb60048201527fddbcfd564f642ab5627cf68b9b7d374fb4f8a36e941a75d89c87998cef03bd6160248201529051600160a060020a03929092169163be00bbd8916044808201926020929091908290030181600087803b15801561100157600080fd5b505af1158015611015573d6000803e3d6000fd5b505050506040513d602081101561102b57600080fd5b505192915050565b604080517f5452414e534645525f524f4c45000000000000000000000000000000000000008152905190819003600d019020611070848484611747565b61107b338383610de3565b60408051808201909152600f81527f4150505f415554485f4641494c4544000000000000000000000000000000000060208201529015156111065760405160008051602061186b83398151915281526004018080602001828103825283818151815260200191508051906020019080838360008381101561018457818101518382015260200161016c565b5060408051808201909152601981527f5641554c545f5452414e534645525f56414c55455f5a45524f000000000000006020820152600084116111935760405160008051602061186b83398151915281526004018080602001828103825283818151815260200191508051906020019080838360008381101561018457818101518382015260200161016c565b50600160a060020a038516151561125c57604051600160a060020a0385169084156108fc029085906000818181858888f193505050506040805190810160405280601381526020017f5641554c545f53454e445f5245564552544544000000000000000000000000008152509015156112565760405160008051602061186b83398151915281526004018080602001828103825283818151815260200191508051906020019080838360008381101561018457818101518382015260200161016c565b50611303565b611276600160a060020a038616858563ffffffff6116b216565b60408051808201909152601d81527f5641554c545f544f4b454e5f5452414e534645525f524556455254454400000060208201529015156113015760405160008051602061186b83398151915281526004018080602001828103825283818151815260200191508051906020019080838360008381101561018457818101518382015260200161016c565b505b83600160a060020a031685600160a060020a03167f239e7f6cdac8fb35a788a46b431b54da87de90b82448a2c294be5e92a6e579af856040518082815260200191505060405180910390a35050505050565b6000610a3d7f4172f0f7d2289153072b0a6ca36959e0cbe2efc3afe50fc81636caa96338137b611465565b600060001961138d610b1a565b14905090565b6000600160a060020a03821615156113ad575030316108da565b6113c6600160a060020a0383163063ffffffff61159816565b90506108da565b4390565b60408051600160a060020a0385811660248301528416604482015260648082018490528251808303909101815260849091019091526020810180517bffffffffffffffffffffffffffffffffffffffffffffffffffffffff167f23b872dd0000000000000000000000000000000000000000000000000000000017905260009061145b868261176e565b9695505050505050565b5490565b611471610b1a565b60408051808201909152601881527f494e49545f414c52454144595f494e495449414c495a45440000000000000000602082015290156114fb5760405160008051602061186b83398151915281526004018080602001828103825283818151815260200191508051906020019080838360008381101561018457818101518382015260200161016c565b50610b186115076113cd565b7febb05b386a8d34882b8711d156f463690983dc47815980fb82aeeff1aa43579e9063ffffffff6117bc16565b6115647f665fd576fbbe6f247aff98f5c94a561e3f71ec2d3c988d56f12d342396c50cea8263ffffffff6117bc16565b50565b5490565b600080600160a060020a03831615156115875760009150611592565b823b90506000811191505b50919050565b60408051600160a060020a0383166024808301919091528251808303909101815260449091019091526020810180517bffffffffffffffffffffffffffffffffffffffffffffffffffffffff167f70a0823100000000000000000000000000000000000000000000000000000000179052600090818061161886846117c0565b60408051808201909152601c81527f534146455f4552435f32305f42414c414e43455f524556455254454400000000602082015291935091508215156116a85760405160008051602061186b83398151915281526004018080602001828103825283818151815260200191508051906020019080838360008381101561018457818101518382015260200161016c565b5095945050505050565b60408051600160a060020a038416602482015260448082018490528251808303909101815260649091019091526020810180517bffffffffffffffffffffffffffffffffffffffffffffffffffffffff167fa9059cbb00000000000000000000000000000000000000000000000000000000179052600090611734858261176e565b95945050505050565b8051602002815290565b606061176684600160a060020a031684600160a060020a0316846117f1565b949350505050565b6000806040516020818551602087016000895af160008111156117b2573d801561179f57602081146117a8576117b0565b600193506117b0565b600183511493505b505b5090949350505050565b9055565b6000806000806040516020818751602089018a5afa925060008311156117e557805191505b50909590945092505050565b604080516003808252608082019092526060916020820183803883390190505090508381600081518110151561182357fe5b60209081029091010152805183908290600190811061183e57fe5b60209081029091010152805182908290600290811061185957fe5b602090810290910101529392505050560008c379a000000000000000000000000000000000000000000000000000000000a165627a7a72305820e3e162c4b4c371cc50aebbd125d4007ba1f3874def759202b458b466a2e87d5f0029ebb05b386a8d34882b8711d156f463690983dc47815980fb82aeeff1aa43579e",
  "source": "pragma solidity 0.4.24;\n\nimport \"@aragon/os/contracts/apps/AragonApp.sol\";\nimport \"@aragon/os/contracts/common/DepositableStorage.sol\";\nimport \"@aragon/os/contracts/common/EtherTokenConstant.sol\";\nimport \"@aragon/os/contracts/common/SafeERC20.sol\";\nimport \"@aragon/os/contracts/lib/token/ERC20.sol\";\n\n\ncontract Vault is EtherTokenConstant, AragonApp, DepositableStorage {\n    using SafeERC20 for ERC20;\n\n    bytes32 public constant TRANSFER_ROLE = keccak256(\"TRANSFER_ROLE\");\n\n    string private constant ERROR_DATA_NON_ZERO = \"VAULT_DATA_NON_ZERO\";\n    string private constant ERROR_NOT_DEPOSITABLE = \"VAULT_NOT_DEPOSITABLE\";\n    string private constant ERROR_DEPOSIT_VALUE_ZERO = \"VAULT_DEPOSIT_VALUE_ZERO\";\n    string private constant ERROR_TRANSFER_VALUE_ZERO = \"VAULT_TRANSFER_VALUE_ZERO\";\n    string private constant ERROR_SEND_REVERTED = \"VAULT_SEND_REVERTED\";\n    string private constant ERROR_VALUE_MISMATCH = \"VAULT_VALUE_MISMATCH\";\n    string private constant ERROR_TOKEN_TRANSFER_FROM_REVERTED = \"VAULT_TOKEN_TRANSFER_FROM_REVERT\";\n    string private constant ERROR_TOKEN_TRANSFER_REVERTED = \"VAULT_TOKEN_TRANSFER_REVERTED\";\n\n    event VaultTransfer(address indexed token, address indexed to, uint256 amount);\n    event VaultDeposit(address indexed token, address indexed sender, uint256 amount);\n\n    /**\n    * @dev On a normal send() or transfer() this fallback is never executed as it will be\n    *      intercepted by the Proxy (see aragonOS#281)\n    */\n    function () external payable isInitialized {\n        require(msg.data.length == 0, ERROR_DATA_NON_ZERO);\n        _deposit(ETH, msg.value);\n    }\n\n    /**\n    * @notice Initialize Vault app\n    * @dev As an AragonApp it needs to be initialized in order for roles (`auth` and `authP`) to work\n    */\n    function initialize() external onlyInit {\n        initialized();\n        setDepositable(true);\n    }\n\n    /**\n    * @notice Deposit `_value` `_token` to the vault\n    * @param _token Address of the token being transferred\n    * @param _value Amount of tokens being transferred\n    */\n    function deposit(address _token, uint256 _value) external payable isInitialized {\n        _deposit(_token, _value);\n    }\n\n    /**\n    * @notice Transfer `_value` `_token` from the Vault to `_to`\n    * @param _token Address of the token being transferred\n    * @param _to Address of the recipient of tokens\n    * @param _value Amount of tokens being transferred\n    */\n    /* solium-disable-next-line function-order */\n    function transfer(address _token, address _to, uint256 _value)\n        external\n        authP(TRANSFER_ROLE, arr(_token, _to, _value))\n    {\n        require(_value > 0, ERROR_TRANSFER_VALUE_ZERO);\n\n        if (_token == ETH) {\n            require(_to.send(_value), ERROR_SEND_REVERTED);\n        } else {\n            require(ERC20(_token).safeTransfer(_to, _value), ERROR_TOKEN_TRANSFER_REVERTED);\n        }\n\n        emit VaultTransfer(_token, _to, _value);\n    }\n\n    function balance(address _token) public view returns (uint256) {\n        if (_token == ETH) {\n            return address(this).balance;\n        } else {\n            return ERC20(_token).staticBalanceOf(address(this));\n        }\n    }\n\n    /**\n    * @dev Disable recovery escape hatch, as it could be used\n    *      maliciously to transfer funds away from the vault\n    */\n    function allowRecoverability(address) public view returns (bool) {\n        return false;\n    }\n\n    function _deposit(address _token, uint256 _value) internal {\n        require(isDepositable(), ERROR_NOT_DEPOSITABLE);\n        require(_value > 0, ERROR_DEPOSIT_VALUE_ZERO);\n\n        if (_token == ETH) {\n            // Deposit is implicit in this case\n            require(msg.value == _value, ERROR_VALUE_MISMATCH);\n        } else {\n            require(\n                ERC20(_token).safeTransferFrom(msg.sender, address(this), _value),\n                ERROR_TOKEN_TRANSFER_FROM_REVERTED\n            );\n        }\n\n        emit VaultDeposit(_token, msg.sender, _value);\n    }\n}\n",
  "sourcePath": "@aragon/apps-vault/contracts/Vault.sol",
  "compiler": {
    "name": "solc",
    "version": "0.4.24+commit.e67f0147.Emscripten.clang"
  },
  "schemaVersion": "2.0.1",
  "updatedAt": "2020-02-07T14:16:15.506Z"
}