{
  "contractName": "AragonFundraisingControllerMock",
  "abi": [
    {
      "constant": true,
      "inputs": [],
      "name": "hasInitialized",
      "outputs": [
        {
          "name": "",
          "type": "bool"
        }
      ],
      "payable": false,
      "stateMutability": "view",
      "type": "function"
    },
    {
      "constant": true,
      "inputs": [
        {
          "name": "_script",
          "type": "bytes"
        }
      ],
      "name": "getEVMScriptExecutor",
      "outputs": [
        {
          "name": "",
          "type": "address"
        }
      ],
      "payable": false,
      "stateMutability": "view",
      "type": "function"
    },
    {
      "constant": true,
      "inputs": [],
      "name": "getRecoveryVault",
      "outputs": [
        {
          "name": "",
          "type": "address"
        }
      ],
      "payable": false,
      "stateMutability": "view",
      "type": "function"
    },
    {
      "constant": true,
      "inputs": [
        {
          "name": "token",
          "type": "address"
        }
      ],
      "name": "allowRecoverability",
      "outputs": [
        {
          "name": "",
          "type": "bool"
        }
      ],
      "payable": false,
      "stateMutability": "view",
      "type": "function"
    },
    {
      "constant": true,
      "inputs": [],
      "name": "appId",
      "outputs": [
        {
          "name": "",
          "type": "bytes32"
        }
      ],
      "payable": false,
      "stateMutability": "view",
      "type": "function"
    },
    {
      "constant": true,
      "inputs": [],
      "name": "getInitializationBlock",
      "outputs": [
        {
          "name": "",
          "type": "uint256"
        }
      ],
      "payable": false,
      "stateMutability": "view",
      "type": "function"
    },
    {
      "constant": false,
      "inputs": [
        {
          "name": "_token",
          "type": "address"
        }
      ],
      "name": "transferToVault",
      "outputs": [],
      "payable": false,
      "stateMutability": "nonpayable",
      "type": "function"
    },
    {
      "constant": true,
      "inputs": [
        {
          "name": "_sender",
          "type": "address"
        },
        {
          "name": "_role",
          "type": "bytes32"
        },
        {
          "name": "_params",
          "type": "uint256[]"
        }
      ],
      "name": "canPerform",
      "outputs": [
        {
          "name": "",
          "type": "bool"
        }
      ],
      "payable": false,
      "stateMutability": "view",
      "type": "function"
    },
    {
      "constant": true,
      "inputs": [],
      "name": "getEVMScriptRegistry",
      "outputs": [
        {
          "name": "",
          "type": "address"
        }
      ],
      "payable": false,
      "stateMutability": "view",
      "type": "function"
    },
    {
      "constant": true,
      "inputs": [],
      "name": "kernel",
      "outputs": [
        {
          "name": "",
          "type": "address"
        }
      ],
      "payable": false,
      "stateMutability": "view",
      "type": "function"
    },
    {
      "constant": true,
      "inputs": [],
      "name": "isPetrified",
      "outputs": [
        {
          "name": "",
          "type": "bool"
        }
      ],
      "payable": false,
      "stateMutability": "view",
      "type": "function"
    },
    {
      "anonymous": false,
      "inputs": [],
      "name": "OpenTrading",
      "type": "event"
    },
    {
      "anonymous": false,
      "inputs": [],
      "name": "ResetTokenTap",
      "type": "event"
    },
    {
      "anonymous": false,
      "inputs": [],
      "name": "UpdateTappedAmount",
      "type": "event"
    },
    {
      "anonymous": false,
      "inputs": [
        {
          "indexed": true,
          "name": "executor",
          "type": "address"
        },
        {
          "indexed": false,
          "name": "script",
          "type": "bytes"
        },
        {
          "indexed": false,
          "name": "input",
          "type": "bytes"
        },
        {
          "indexed": false,
          "name": "returnData",
          "type": "bytes"
        }
      ],
      "name": "ScriptResult",
      "type": "event"
    },
    {
      "anonymous": false,
      "inputs": [
        {
          "indexed": true,
          "name": "vault",
          "type": "address"
        },
        {
          "indexed": true,
          "name": "token",
          "type": "address"
        },
        {
          "indexed": false,
          "name": "amount",
          "type": "uint256"
        }
      ],
      "name": "RecoverToVault",
      "type": "event"
    },
    {
      "constant": false,
      "inputs": [],
      "name": "initialize",
      "outputs": [],
      "payable": false,
      "stateMutability": "nonpayable",
      "type": "function"
    },
    {
      "constant": false,
      "inputs": [],
      "name": "openTrading",
      "outputs": [],
      "payable": false,
      "stateMutability": "nonpayable",
      "type": "function"
    },
    {
      "constant": false,
      "inputs": [
        {
          "name": "_token",
          "type": "address"
        }
      ],
      "name": "resetTokenTap",
      "outputs": [],
      "payable": false,
      "stateMutability": "nonpayable",
      "type": "function"
    },
    {
      "constant": false,
      "inputs": [
        {
          "name": "_token",
          "type": "address"
        }
      ],
      "name": "updateTappedAmount",
      "outputs": [],
      "payable": false,
      "stateMutability": "nonpayable",
      "type": "function"
    },
    {
      "constant": true,
      "inputs": [
        {
          "name": "_collateral",
          "type": "address"
        }
      ],
      "name": "collateralsToBeClaimed",
      "outputs": [
        {
          "name": "",
          "type": "uint256"
        }
      ],
      "payable": false,
      "stateMutability": "view",
      "type": "function"
    },
    {
      "constant": true,
      "inputs": [
        {
          "name": "_who",
          "type": "address"
        },
        {
          "name": "_token",
          "type": "address"
        }
      ],
      "name": "balanceOf",
      "outputs": [
        {
          "name": "",
          "type": "uint256"
        }
      ],
      "payable": false,
      "stateMutability": "view",
      "type": "function"
    }
  ],
  "bytecode": "0x6080604052620000176401000000006200001d810204565b6200023b565b6200003064010000000062000125810204565b60408051808201909152601881527f494e49545f414c52454144595f494e495449414c495a45440000000000000000602082015290156200010c576040517f08c379a00000000000000000000000000000000000000000000000000000000081526004018080602001828103825283818151815260200191508051906020019080838360005b83811015620000d0578181015183820152602001620000b6565b50505050905090810190601f168015620000fe5780820380516001836020036101000a031916815260200191505b509250505060405180910390fd5b506200012360001964010000000062000154810204565b565b60006200014f6000805160206200142383398151915264010000000062000e2f6200023382021704565b905090565b6200016764010000000062000125810204565b60408051808201909152601881527f494e49545f414c52454144595f494e495449414c495a454400000000000000006020820152901562000206576040517f08c379a000000000000000000000000000000000000000000000000000000000815260040180806020018281038252838181518152602001915080519060200190808383600083811015620000d0578181015183820152602001620000b6565b50620002306000805160206200142383398151915282640100000000620011296200023782021704565b50565b5490565b9055565b6111d8806200024b6000396000f3006080604052600436106100f05763ffffffff7c01000000000000000000000000000000000000000000000000000000006000350416630803fac081146100f55780632914b9bd1461011e57806332f0a3b5146101a05780634afe6c47146101b55780637e7db6e1146101f557806380afdea8146102235780638129fc1c14610238578063846a0a891461024f5780638b3dd7491461027d5780639d4941d814610292578063a1658fad146102c0578063a479e50814610334578063c9567bf914610349578063d4aae0c41461035e578063dd57c85914610373578063de4796ed146103a1578063f7888aec146103b6575b600080fd5b34801561010157600080fd5b5061010a6103ea565b604080519115158252519081900360200190f35b34801561012a57600080fd5b506040805160206004803580820135601f81018490048402850184019095528484526101779436949293602493928401919081908401838280828437509497506104139650505050505050565b6040805173ffffffffffffffffffffffffffffffffffffffff9092168252519081900360200190f35b3480156101ac57600080fd5b50610177610521565b3480156101c157600080fd5b506101e373ffffffffffffffffffffffffffffffffffffffff600435166105bf565b60408051918252519081900360200190f35b34801561020157600080fd5b5061010a73ffffffffffffffffffffffffffffffffffffffff600435166105ee565b34801561022f57600080fd5b506101e36105f4565b34801561024457600080fd5b5061024d610624565b005b34801561025b57600080fd5b5061024d73ffffffffffffffffffffffffffffffffffffffff6004351661070f565b34801561028957600080fd5b506101e361073b565b34801561029e57600080fd5b5061024d73ffffffffffffffffffffffffffffffffffffffff60043516610766565b3480156102cc57600080fd5b50604080516020600460443581810135838102808601850190965280855261010a95833573ffffffffffffffffffffffffffffffffffffffff16956024803596369695606495939492019291829185019084908082843750949750610a889650505050505050565b34801561034057600080fd5b50610177610c18565b34801561035557600080fd5b5061024d610d0c565b34801561036a57600080fd5b50610177610d37565b34801561037f57600080fd5b5061024d73ffffffffffffffffffffffffffffffffffffffff60043516610d62565b3480156103ad57600080fd5b5061010a610d8e565b3480156103c257600080fd5b506101e373ffffffffffffffffffffffffffffffffffffffff60043581169060243516610dbf565b6000806103f561073b565b9050801580159061040d57508061040a610e2b565b10155b91505090565b600061041d610c18565b73ffffffffffffffffffffffffffffffffffffffff166304bf2a7f836040518263ffffffff167c01000000000000000000000000000000000000000000000000000000000281526004018080602001828103825283818151815260200191508051906020019080838360005b838110156104a1578181015183820152602001610489565b50505050905090810190601f1680156104ce5780820380516001836020036101000a031916815260200191505b5092505050602060405180830381600087803b1580156104ed57600080fd5b505af1158015610501573d6000803e3d6000fd5b505050506040513d602081101561051757600080fd5b505190505b919050565b600061052b610d37565b73ffffffffffffffffffffffffffffffffffffffff166332f0a3b56040518163ffffffff167c0100000000000000000000000000000000000000000000000000000000028152600401602060405180830381600087803b15801561058e57600080fd5b505af11580156105a2573d6000803e3d6000fd5b505050506040513d60208110156105b857600080fd5b5051905090565b600073ffffffffffffffffffffffffffffffffffffffff821615156105e65750600561051c565b50600a61051c565b50600190565b600061061f7fd625496217aa6a3453eecb9c3489dc5a53e6c67b444329ea2b2cbc9ff547639b610e2f565b905090565b61062c61073b565b60408051808201909152601881527f494e49545f414c52454144595f494e495449414c495a4544000000000000000060208201529015610704576040517f08c379a00000000000000000000000000000000000000000000000000000000081526004018080602001828103825283818151815260200191508051906020019080838360005b838110156106c95781810151838201526020016106b1565b50505050905090810190601f1680156106f65780820380516001836020036101000a031916815260200191505b509250505060405180910390fd5b5061070d610e33565b565b6040517f67776cb3ba701e3e851166321db034337bc091185f67a825d97579d4ae2ecc9990600090a150565b600061061f7febb05b386a8d34882b8711d156f463690983dc47815980fb82aeeff1aa43579e610e2f565b6000806000610774846105ee565b60408051808201909152601281527f5245434f5645525f444953414c4c4f57454400000000000000000000000000006020820152901515610811576040517f08c379a0000000000000000000000000000000000000000000000000000000008152600401808060200182810382528381815181526020019150805190602001908083836000838110156106c95781810151838201526020016106b1565b5061081a610521565b925061082583610f14565b60408051808201909152601a81527f5245434f5645525f5641554c545f4e4f545f434f4e545241435400000000000060208201529015156108c2576040517f08c379a0000000000000000000000000000000000000000000000000000000008152600401808060200182810382528381815181526020019150805190602001908083836000838110156106c95781810151838201526020016106b1565b5073ffffffffffffffffffffffffffffffffffffffff8416151561092d576040513031925073ffffffffffffffffffffffffffffffffffffffff84169083156108fc029084906000818181858888f19350505050158015610927573d6000803e3d6000fd5b50610a1d565b508261095573ffffffffffffffffffffffffffffffffffffffff82163063ffffffff610f4e16565b915061097e73ffffffffffffffffffffffffffffffffffffffff8216848463ffffffff61108716565b60408051808201909152601d81527f5245434f5645525f544f4b454e5f5452414e534645525f4641494c45440000006020820152901515610a1b576040517f08c379a0000000000000000000000000000000000000000000000000000000008152600401808060200182810382528381815181526020019150805190602001908083836000838110156106c95781810151838201526020016106b1565b505b8373ffffffffffffffffffffffffffffffffffffffff168373ffffffffffffffffffffffffffffffffffffffff167f596caf56044b55fb8c4ca640089bbc2b63cae3e978b851f5745cbb7c5b288e02846040518082815260200191505060405180910390a350505050565b600080610a936103ea565b1515610aa25760009150610c10565b610aaa610d37565b905073ffffffffffffffffffffffffffffffffffffffff81161515610ad25760009150610c10565b8073ffffffffffffffffffffffffffffffffffffffff1663fdef9106863087610afa8861111f565b6040517c010000000000000000000000000000000000000000000000000000000063ffffffff871602815273ffffffffffffffffffffffffffffffffffffffff808616600483019081529085166024830152604482018490526080606483019081528351608484015283519192909160a490910190602085019080838360005b83811015610b92578181015183820152602001610b7a565b50505050905090810190601f168015610bbf5780820380516001836020036101000a031916815260200191505b5095505050505050602060405180830381600087803b158015610be157600080fd5b505af1158015610bf5573d6000803e3d6000fd5b505050506040513d6020811015610c0b57600080fd5b505191505b509392505050565b600080610c23610d37565b604080517fbe00bbd80000000000000000000000000000000000000000000000000000000081527fd6f028ca0e8edb4a8c9757ca4fdccab25fa1e0317da1188108f7d2dee14902fb60048201527fddbcfd564f642ab5627cf68b9b7d374fb4f8a36e941a75d89c87998cef03bd616024820152905173ffffffffffffffffffffffffffffffffffffffff929092169163be00bbd8916044808201926020929091908290030181600087803b158015610cda57600080fd5b505af1158015610cee573d6000803e3d6000fd5b505050506040513d6020811015610d0457600080fd5b505192915050565b6040517f51cd7cc33235a1c89f708fecec535bf7cca0f94ed05216751befb052ca83e67990600090a1565b600061061f7f4172f0f7d2289153072b0a6ca36959e0cbe2efc3afe50fc81636caa96338137b610e2f565b6040517f0ee4b37d7d159838a4e2a22d48a07940e712817a46664062a4c4aa65e462d07990600090a150565b60007fffffffffffffffffffffffffffffffffffffffffffffffffffffffffffffffff610db961073b565b14905090565b600073ffffffffffffffffffffffffffffffffffffffff82161515610dfc575073ffffffffffffffffffffffffffffffffffffffff821631610e25565b610e2273ffffffffffffffffffffffffffffffffffffffff83168463ffffffff610f4e16565b90505b92915050565b4390565b5490565b610e3b61073b565b60408051808201909152601881527f494e49545f414c52454144595f494e495449414c495a4544000000000000000060208201529015610ed7576040517f08c379a0000000000000000000000000000000000000000000000000000000008152600401808060200182810382528381815181526020019150805190602001908083836000838110156106c95781810151838201526020016106b1565b5061070d610ee3610e2b565b7febb05b386a8d34882b8711d156f463690983dc47815980fb82aeeff1aa43579e9063ffffffff61112916565b5490565b60008073ffffffffffffffffffffffffffffffffffffffff83161515610f3d5760009150610f48565b823b90506000811191505b50919050565b6040805173ffffffffffffffffffffffffffffffffffffffff83166024808301919091528251808303909101815260449091019091526020810180517bffffffffffffffffffffffffffffffffffffffffffffffffffffffff167f70a08231000000000000000000000000000000000000000000000000000000001790526000908180610fdb868461112d565b60408051808201909152601c81527f534146455f4552435f32305f42414c414e43455f5245564552544544000000006020820152919350915082151561107d576040517f08c379a0000000000000000000000000000000000000000000000000000000008152600401808060200182810382528381815181526020019150805190602001908083836000838110156106c95781810151838201526020016106b1565b5095945050505050565b6040805173ffffffffffffffffffffffffffffffffffffffff8416602482015260448082018490528251808303909101815260649091019091526020810180517bffffffffffffffffffffffffffffffffffffffffffffffffffffffff167fa9059cbb00000000000000000000000000000000000000000000000000000000179052600090611116858261115e565b95945050505050565b8051602002815290565b9055565b6000806000806040516020818751602089018a5afa9250600083111561115257805191505b50909590945092505050565b6000806040516020818551602087016000895af160008111156111a2573d801561118f5760208114611198576111a0565b600193506111a0565b600183511493505b505b50909493505050505600a165627a7a72305820bf43a42e36cb78b908a5350d90a2f3676d4516997adde566006cda3bf1ef4e820029ebb05b386a8d34882b8711d156f463690983dc47815980fb82aeeff1aa43579e",
  "source": "pragma solidity 0.4.24;\n\nimport \"@aragon/os/contracts/apps/AragonApp.sol\";\nimport \"@aragon/os/contracts/common/SafeERC20.sol\";\nimport \"@aragon/os/contracts/lib/token/ERC20.sol\";\nimport \"@ablack/fundraising-shared-interfaces/contracts/IAragonFundraisingController.sol\";\n\n\ncontract AragonFundraisingControllerMock is IAragonFundraisingController, AragonApp {\n    using SafeERC20 for ERC20;\n\n    event OpenTrading();\n    event ResetTokenTap();\n    event UpdateTappedAmount();\n\n    function initialize() external onlyInit {\n        initialized();\n    }\n\n    function openTrading() external {\n        emit OpenTrading();\n    }\n\n    function resetTokenTap(address _token) external {\n        emit ResetTokenTap();\n    }\n\n    function updateTappedAmount(address _token) external {\n        emit UpdateTappedAmount();\n    }\n\n    function collateralsToBeClaimed(address _collateral) public view returns (uint256) {\n        if (_collateral == ETH) {\n            return uint256(5);\n        } else {\n            return uint256(10);\n        }\n    }\n\n    function balanceOf(address _who, address _token) public view returns (uint256) {\n        if (_token == ETH) {\n            return _who.balance;\n        } else {\n            return ERC20(_token).staticBalanceOf(_who);\n        }\n    }\n}\n",
  "sourcePath": "@ablack/fundraising-shared-test-helpers/contracts/AragonFundraisingControllerMock.sol",
  "compiler": {
    "name": "solc",
    "version": "0.4.24+commit.e67f0147.Emscripten.clang"
  },
  "schemaVersion": "2.0.1",
  "updatedAt": "2020-02-07T14:14:39.599Z"
}