{
  "contractName": "DAOFactory",
  "abi": [
    {
      "constant": true,
      "inputs": [],
      "name": "baseACL",
      "outputs": [
        {
          "name": "",
          "type": "address"
        }
      ],
      "payable": false,
      "stateMutability": "view",
      "type": "function"
    },
    {
      "constant": true,
      "inputs": [],
      "name": "regFactory",
      "outputs": [
        {
          "name": "",
          "type": "address"
        }
      ],
      "payable": false,
      "stateMutability": "view",
      "type": "function"
    },
    {
      "constant": true,
      "inputs": [],
      "name": "baseKernel",
      "outputs": [
        {
          "name": "",
          "type": "address"
        }
      ],
      "payable": false,
      "stateMutability": "view",
      "type": "function"
    },
    {
      "inputs": [
        {
          "name": "_baseKernel",
          "type": "address"
        },
        {
          "name": "_baseACL",
          "type": "address"
        },
        {
          "name": "_regFactory",
          "type": "address"
        }
      ],
      "payable": false,
      "stateMutability": "nonpayable",
      "type": "constructor"
    },
    {
      "anonymous": false,
      "inputs": [
        {
          "indexed": false,
          "name": "dao",
          "type": "address"
        }
      ],
      "name": "DeployDAO",
      "type": "event"
    },
    {
      "anonymous": false,
      "inputs": [
        {
          "indexed": false,
          "name": "reg",
          "type": "address"
        }
      ],
      "name": "DeployEVMScriptRegistry",
      "type": "event"
    },
    {
      "constant": false,
      "inputs": [
        {
          "name": "_root",
          "type": "address"
        }
      ],
      "name": "newDAO",
      "outputs": [
        {
          "name": "",
          "type": "address"
        }
      ],
      "payable": false,
      "stateMutability": "nonpayable",
      "type": "function"
    }
  ],
  "bytecode": "0x608060405234801561001057600080fd5b5060405160608061107d833981016040908152815160208301519190920151600160a060020a0381161561005a5760028054600160a060020a031916600160a060020a0383161790555b5060008054600160a060020a03938416600160a060020a03199182161790915560018054929093169116179055610fe7806100966000396000f3006080604052600436106100615763ffffffff7c0100000000000000000000000000000000000000000000000000000000600035041663086b339e811461006657806321687444146100a4578063656362b5146100d2578063b16dd130146100e7575b600080fd5b34801561007257600080fd5b5061007b6100fc565b6040805173ffffffffffffffffffffffffffffffffffffffff9092168252519081900360200190f35b3480156100b057600080fd5b5061007b73ffffffffffffffffffffffffffffffffffffffff60043516610118565b3480156100de57600080fd5b5061007b610a95565b3480156100f357600080fd5b5061007b610ab1565b60015473ffffffffffffffffffffffffffffffffffffffff1681565b600080548190819081908190819073ffffffffffffffffffffffffffffffffffffffff16610144610acd565b73ffffffffffffffffffffffffffffffffffffffff909116815260405190819003602001906000f08015801561017e573d6000803e3d6000fd5b5060025490955073ffffffffffffffffffffffffffffffffffffffff16151561023a57600154604080517f485cc95500000000000000000000000000000000000000000000000000000000815273ffffffffffffffffffffffffffffffffffffffff9283166004820152898316602482015290519187169163485cc9559160448082019260009290919082900301818387803b15801561021d57600080fd5b505af1158015610231573d6000803e3d6000fd5b50505050610a41565b600154604080517f485cc95500000000000000000000000000000000000000000000000000000000815273ffffffffffffffffffffffffffffffffffffffff928316600482015230602482015290519187169163485cc9559160448082019260009290919082900301818387803b1580156102b457600080fd5b505af11580156102c8573d6000803e3d6000fd5b505050508473ffffffffffffffffffffffffffffffffffffffff1663de2873596040518163ffffffff167c0100000000000000000000000000000000000000000000000000000000028152600401602060405180830381600087803b15801561033057600080fd5b505af1158015610344573d6000803e3d6000fd5b505050506040513d602081101561035a57600080fd5b5051604080517f3d6ab68f000000000000000000000000000000000000000000000000000000008152905191955073ffffffffffffffffffffffffffffffffffffffff861691633d6ab68f916004808201926020929091908290030181600087803b1580156103c857600080fd5b505af11580156103dc573d6000803e3d6000fd5b505050506040513d60208110156103f257600080fd5b5051604080517f8ea8dc9d000000000000000000000000000000000000000000000000000000008152905191945073ffffffffffffffffffffffffffffffffffffffff871691638ea8dc9d916004808201926020929091908290030181600087803b15801561046057600080fd5b505af1158015610474573d6000803e3d6000fd5b505050506040513d602081101561048a57600080fd5b5051600254604080517f0a8ed3db00000000000000000000000000000000000000000000000000000000815273ffffffffffffffffffffffffffffffffffffffff92831660048201529187166024830181905260448301879052905192945091630a8ed3db9160648082019260009290919082900301818387803b15801561051157600080fd5b505af1158015610525573d6000803e3d6000fd5b5050600254604080517fbe03847800000000000000000000000000000000000000000000000000000000815273ffffffffffffffffffffffffffffffffffffffff92831660048201528983166024820152604481018790523060648201529051918816935063be038478925060848082019260009290919082900301818387803b1580156105b257600080fd5b505af11580156105c6573d6000803e3d6000fd5b5050600254604080517f3340414300000000000000000000000000000000000000000000000000000000815273ffffffffffffffffffffffffffffffffffffffff8a8116600483015291519190921693506333404143925060248083019260209291908290030181600087803b15801561063f57600080fd5b505af1158015610653573d6000803e3d6000fd5b505050506040513d602081101561066957600080fd5b50516040805173ffffffffffffffffffffffffffffffffffffffff8316815290519192507f1a40224412580c1ae5a2fbe8029a565f49a3a029608a8fd9320b32477f314579919081900360200190a1600254604080517f9d0effdb00000000000000000000000000000000000000000000000000000000815273ffffffffffffffffffffffffffffffffffffffff9283166004820152878316602482015260448101859052905191861691639d0effdb9160648082019260009290919082900301818387803b15801561073b57600080fd5b505af115801561074f573d6000803e3d6000fd5b5050604080517fa885508a00000000000000000000000000000000000000000000000000000000815273ffffffffffffffffffffffffffffffffffffffff8981166004830152602482018790529151918816935063a885508a925060448082019260009290919082900301818387803b1580156107cb57600080fd5b505af11580156107df573d6000803e3d6000fd5b5050600254604080517f9d0effdb00000000000000000000000000000000000000000000000000000000815273ffffffffffffffffffffffffffffffffffffffff928316600482015291881660248301819052604483018890529051909350639d0effdb9250606480830192600092919082900301818387803b15801561086557600080fd5b505af1158015610879573d6000803e3d6000fd5b5050604080517f9d0effdb00000000000000000000000000000000000000000000000000000000815230600482015273ffffffffffffffffffffffffffffffffffffffff881660248201819052604482018890529151919350639d0effdb925060648082019260009290919082900301818387803b1580156108fa57600080fd5b505af115801561090e573d6000803e3d6000fd5b5050604080517f0a8ed3db00000000000000000000000000000000000000000000000000000000815273ffffffffffffffffffffffffffffffffffffffff8b81166004830152881660248201819052604482018890529151919350630a8ed3db925060648082019260009290919082900301818387803b15801561099157600080fd5b505af11580156109a5573d6000803e3d6000fd5b5050604080517fafd925df00000000000000000000000000000000000000000000000000000000815273ffffffffffffffffffffffffffffffffffffffff8b8116600483015288166024820181905260448201889052915191935063afd925df925060648082019260009290919082900301818387803b158015610a2857600080fd5b505af1158015610a3c573d6000803e3d6000fd5b505050505b6040805173ffffffffffffffffffffffffffffffffffffffff8716815290517f3a7eb042a769adf51e9be78b68ed7af0ad7b379246536efc376ed2ca012382829181900360200190a1509295945050505050565b60025473ffffffffffffffffffffffffffffffffffffffff1681565b60005473ffffffffffffffffffffffffffffffffffffffff1681565b6040516104de80610ade833901905600608060405234801561001057600080fd5b506040516020806104de833981016040525161003481640100000000610120810204565b151561003f57600080fd5b7f3b4bf6bf3ad5000ecf0f989d5befde585c6860fea3e574a4fab4c49d1c177d9c60008190527fc67454ed56db7ff90a4bb32fc9a8de1ab3174b221e5fecea22b7503a3111791f60209081527f8e2ed18767e9c33b25344c240cdf92034fae56be99e2c07f3d9946d949ffede48054600160a060020a031916600160a060020a03851690811790915560408051918252517fc681a85306374a5ab27f0bbc385296a54bcd314a1948b6cf61c4ea1bc44bb9f8927f2ec1ae0a449b7ae354b9dacfb3ade6b6332ba26b7fcbb935835fa39dd7263b23928290030190a35061014d565b600080600160a060020a038316151561013c5760009150610147565b823b90506000811191505b50919050565b6103828061015c6000396000f30060806040526004361061006c5763ffffffff7c01000000000000000000000000000000000000000000000000000000006000350416634555d5c9811461012b5780634558850c1461015257806348a0c8dd146101965780635c60da1b146101bf57806386070cfe146101d4575b60006127105a10156100e357600034118015610086575036155b151561009157600080fd5b6100996101e9565b15156100a457600080fd5b6040805133815234602082015281517f15eeaa57c7bd188c1388020bcadc2c436ec60d647d36ef5b9eb3c742217ddee1929181900390910190a1610128565b6100eb610219565b9050610128816000368080601f0160208091040260200160405190810160405280939291908181526020018383808284375061029c945050505050565b50005b34801561013757600080fd5b506101406102dd565b60408051918252519081900360200190f35b34801561015e57600080fd5b5061016d6004356024356102e2565b6040805173ffffffffffffffffffffffffffffffffffffffff9092168252519081900360200190f35b3480156101a257600080fd5b506101ab6101e9565b604080519115158252519081900360200190f35b3480156101cb57600080fd5b5061016d610219565b3480156101e057600080fd5b50610140610312565b60006102147f665fd576fbbe6f247aff98f5c94a561e3f71ec2d3c988d56f12d342396c50cea610318565b905090565b7f3b4bf6bf3ad5000ecf0f989d5befde585c6860fea3e574a4fab4c49d1c177d9c6000527fc67454ed56db7ff90a4bb32fc9a8de1ab3174b221e5fecea22b7503a3111791f6020527f8e2ed18767e9c33b25344c240cdf92034fae56be99e2c07f3d9946d949ffede45473ffffffffffffffffffffffffffffffffffffffff1690565b60006102a78361031c565b15156102b257600080fd5b612710905060008083516020850186855a03f43d604051816000823e8280156102d9578282f35b8282fd5b600290565b600060208181529281526040808220909352908152205473ffffffffffffffffffffffffffffffffffffffff1681565b60015481565b5490565b60008073ffffffffffffffffffffffffffffffffffffffff831615156103455760009150610350565b823b90506000811191505b509190505600a165627a7a72305820fa447e9dcf11905249b4909134ab3aa6cdc35edeb38b1c3ba3373761a4cc295c0029a165627a7a72305820005541b4afafe8a991f1977702697f0dc8d1f264d5a0f944ae15a058f0eb32740029",
  "source": "pragma solidity 0.4.24;\n\nimport \"../kernel/IKernel.sol\";\nimport \"../kernel/Kernel.sol\";\nimport \"../kernel/KernelProxy.sol\";\n\nimport \"../acl/IACL.sol\";\nimport \"../acl/ACL.sol\";\n\nimport \"./EVMScriptRegistryFactory.sol\";\n\n\ncontract DAOFactory {\n    IKernel public baseKernel;\n    IACL public baseACL;\n    EVMScriptRegistryFactory public regFactory;\n\n    event DeployDAO(address dao);\n    event DeployEVMScriptRegistry(address reg);\n\n    /**\n    * @notice Create a new DAOFactory, creating DAOs with Kernels proxied to `_baseKernel`, ACLs proxied to `_baseACL`, and new EVMScriptRegistries created from `_regFactory`.\n    * @param _baseKernel Base Kernel\n    * @param _baseACL Base ACL\n    * @param _regFactory EVMScriptRegistry factory\n    */\n    constructor(IKernel _baseKernel, IACL _baseACL, EVMScriptRegistryFactory _regFactory) public {\n        // No need to init as it cannot be killed by devops199\n        if (address(_regFactory) != address(0)) {\n            regFactory = _regFactory;\n        }\n\n        baseKernel = _baseKernel;\n        baseACL = _baseACL;\n    }\n\n    /**\n    * @notice Create a new DAO with `_root` set as the initial admin\n    * @param _root Address that will be granted control to setup DAO permissions\n    * @return Newly created DAO\n    */\n    function newDAO(address _root) public returns (Kernel) {\n        Kernel dao = Kernel(new KernelProxy(baseKernel));\n\n        if (address(regFactory) == address(0)) {\n            dao.initialize(baseACL, _root);\n        } else {\n            dao.initialize(baseACL, this);\n\n            ACL acl = ACL(dao.acl());\n            bytes32 permRole = acl.CREATE_PERMISSIONS_ROLE();\n            bytes32 appManagerRole = dao.APP_MANAGER_ROLE();\n\n            acl.grantPermission(regFactory, acl, permRole);\n\n            acl.createPermission(regFactory, dao, appManagerRole, this);\n\n            EVMScriptRegistry reg = regFactory.newEVMScriptRegistry(dao);\n            emit DeployEVMScriptRegistry(address(reg));\n\n            // Clean up permissions\n            // First, completely reset the APP_MANAGER_ROLE\n            acl.revokePermission(regFactory, dao, appManagerRole);\n            acl.removePermissionManager(dao, appManagerRole);\n\n            // Then, make root the only holder and manager of CREATE_PERMISSIONS_ROLE\n            acl.revokePermission(regFactory, acl, permRole);\n            acl.revokePermission(this, acl, permRole);\n            acl.grantPermission(_root, acl, permRole);\n            acl.setPermissionManager(_root, acl, permRole);\n        }\n\n        emit DeployDAO(address(dao));\n\n        return dao;\n    }\n}\n",
  "sourcePath": "@aragon/os/contracts/factory/DAOFactory.sol",
  "compiler": {
    "name": "solc",
    "version": "0.4.24+commit.e67f0147.Emscripten.clang"
  },
  "schemaVersion": "2.0.1",
  "updatedAt": "2020-02-07T14:14:39.627Z"
}