{
  "contractName": "Petrifiable",
  "abi": [
    {
      "constant": true,
      "inputs": [],
      "name": "hasInitialized",
      "outputs": [
        {
          "name": "",
          "type": "bool"
        }
      ],
      "payable": false,
      "stateMutability": "view",
      "type": "function"
    },
    {
      "constant": true,
      "inputs": [],
      "name": "getInitializationBlock",
      "outputs": [
        {
          "name": "",
          "type": "uint256"
        }
      ],
      "payable": false,
      "stateMutability": "view",
      "type": "function"
    },
    {
      "constant": true,
      "inputs": [],
      "name": "isPetrified",
      "outputs": [
        {
          "name": "",
          "type": "bool"
        }
      ],
      "payable": false,
      "stateMutability": "view",
      "type": "function"
    }
  ],
  "bytecode": "0x608060405234801561001057600080fd5b5061017e806100206000396000f3006080604052600436106100565763ffffffff7c01000000000000000000000000000000000000000000000000000000006000350416630803fac0811461005b5780638b3dd74914610084578063de4796ed146100ab575b600080fd5b34801561006757600080fd5b506100706100c0565b604080519115158252519081900360200190f35b34801561009057600080fd5b506100996100e9565b60408051918252519081900360200190f35b3480156100b757600080fd5b50610070610119565b6000806100cb6100e9565b905080158015906100e35750806100e061014a565b10155b91505090565b60006101147febb05b386a8d34882b8711d156f463690983dc47815980fb82aeeff1aa43579e61014e565b905090565b60007fffffffffffffffffffffffffffffffffffffffffffffffffffffffffffffffff6101446100e9565b14905090565b4390565b54905600a165627a7a7230582051784d708e1c6689ec919590dae8b6c44ade25abd6a291e32fea48260a5db10f0029",
  "source": "/*\n * SPDX-License-Identitifer:    MIT\n */\n\npragma solidity ^0.4.24;\n\nimport \"./Initializable.sol\";\n\n\ncontract Petrifiable is Initializable {\n    // Use block UINT256_MAX (which should be never) as the initializable date\n    uint256 internal constant PETRIFIED_BLOCK = uint256(-1);\n\n    function isPetrified() public view returns (bool) {\n        return getInitializationBlock() == PETRIFIED_BLOCK;\n    }\n\n    /**\n    * @dev Function to be called by top level contract to prevent being initialized.\n    *      Useful for freezing base contracts when they're used behind proxies.\n    */\n    function petrify() internal onlyInit {\n        initializedAt(PETRIFIED_BLOCK);\n    }\n}\n",
  "sourcePath": "@aragon/os/contracts/common/Petrifiable.sol",
  "compiler": {
    "name": "solc",
    "version": "0.4.24+commit.e67f0147.Emscripten.clang"
  },
  "schemaVersion": "2.0.1",
  "updatedAt": "2020-02-07T14:14:39.566Z"
}