{
  "contractName": "PresaleMock",
  "abi": [
    {
      "constant": true,
      "inputs": [],
      "name": "vestingCompletePeriod",
      "outputs": [
        {
          "name": "",
          "type": "uint64"
        }
      ],
      "payable": false,
      "stateMutability": "view",
      "type": "function"
    },
    {
      "constant": true,
      "inputs": [],
      "name": "hasInitialized",
      "outputs": [
        {
          "name": "",
          "type": "bool"
        }
      ],
      "payable": false,
      "stateMutability": "view",
      "type": "function"
    },
    {
      "constant": true,
      "inputs": [],
      "name": "PPM",
      "outputs": [
        {
          "name": "",
          "type": "uint256"
        }
      ],
      "payable": false,
      "stateMutability": "view",
      "type": "function"
    },
    {
      "constant": true,
      "inputs": [],
      "name": "supplyOfferedPct",
      "outputs": [
        {
          "name": "",
          "type": "uint256"
        }
      ],
      "payable": false,
      "stateMutability": "view",
      "type": "function"
    },
    {
      "constant": true,
      "inputs": [],
      "name": "vestingCliffPeriod",
      "outputs": [
        {
          "name": "",
          "type": "uint64"
        }
      ],
      "payable": false,
      "stateMutability": "view",
      "type": "function"
    },
    {
      "constant": true,
      "inputs": [
        {
          "name": "_script",
          "type": "bytes"
        }
      ],
      "name": "getEVMScriptExecutor",
      "outputs": [
        {
          "name": "",
          "type": "address"
        }
      ],
      "payable": false,
      "stateMutability": "view",
      "type": "function"
    },
    {
      "constant": true,
      "inputs": [],
      "name": "tokenManager",
      "outputs": [
        {
          "name": "",
          "type": "address"
        }
      ],
      "payable": false,
      "stateMutability": "view",
      "type": "function"
    },
    {
      "constant": true,
      "inputs": [],
      "name": "getRecoveryVault",
      "outputs": [
        {
          "name": "",
          "type": "address"
        }
      ],
      "payable": false,
      "stateMutability": "view",
      "type": "function"
    },
    {
      "constant": true,
      "inputs": [],
      "name": "beneficiary",
      "outputs": [
        {
          "name": "",
          "type": "address"
        }
      ],
      "payable": false,
      "stateMutability": "view",
      "type": "function"
    },
    {
      "constant": true,
      "inputs": [],
      "name": "exchangeRate",
      "outputs": [
        {
          "name": "",
          "type": "uint256"
        }
      ],
      "payable": false,
      "stateMutability": "view",
      "type": "function"
    },
    {
      "constant": true,
      "inputs": [],
      "name": "fundingForBeneficiaryPct",
      "outputs": [
        {
          "name": "",
          "type": "uint256"
        }
      ],
      "payable": false,
      "stateMutability": "view",
      "type": "function"
    },
    {
      "constant": true,
      "inputs": [],
      "name": "goal",
      "outputs": [
        {
          "name": "",
          "type": "uint256"
        }
      ],
      "payable": false,
      "stateMutability": "view",
      "type": "function"
    },
    {
      "constant": false,
      "inputs": [
        {
          "name": "_contributor",
          "type": "address"
        },
        {
          "name": "_vestedPurchaseId",
          "type": "uint256"
        }
      ],
      "name": "refund",
      "outputs": [],
      "payable": false,
      "stateMutability": "nonpayable",
      "type": "function"
    },
    {
      "constant": false,
      "inputs": [],
      "name": "close",
      "outputs": [],
      "payable": false,
      "stateMutability": "nonpayable",
      "type": "function"
    },
    {
      "constant": true,
      "inputs": [],
      "name": "contributionToken",
      "outputs": [
        {
          "name": "",
          "type": "address"
        }
      ],
      "payable": false,
      "stateMutability": "view",
      "type": "function"
    },
    {
      "constant": true,
      "inputs": [
        {
          "name": "",
          "type": "address"
        },
        {
          "name": "",
          "type": "uint256"
        }
      ],
      "name": "contributions",
      "outputs": [
        {
          "name": "",
          "type": "uint256"
        }
      ],
      "payable": false,
      "stateMutability": "view",
      "type": "function"
    },
    {
      "constant": false,
      "inputs": [
        {
          "name": "_seconds",
          "type": "uint256"
        }
      ],
      "name": "mockDecreaseTime",
      "outputs": [],
      "payable": false,
      "stateMutability": "nonpayable",
      "type": "function"
    },
    {
      "constant": false,
      "inputs": [
        {
          "name": "_timestamp",
          "type": "uint256"
        }
      ],
      "name": "mockSetTimestamp",
      "outputs": [],
      "payable": false,
      "stateMutability": "nonpayable",
      "type": "function"
    },
    {
      "constant": true,
      "inputs": [],
      "name": "OPEN_ROLE",
      "outputs": [
        {
          "name": "",
          "type": "bytes32"
        }
      ],
      "payable": false,
      "stateMutability": "view",
      "type": "function"
    },
    {
      "constant": true,
      "inputs": [],
      "name": "getBlockNumberPublic",
      "outputs": [
        {
          "name": "",
          "type": "uint256"
        }
      ],
      "payable": false,
      "stateMutability": "view",
      "type": "function"
    },
    {
      "constant": false,
      "inputs": [
        {
          "name": "_number",
          "type": "uint256"
        }
      ],
      "name": "mockAdvanceBlocks",
      "outputs": [],
      "payable": false,
      "stateMutability": "nonpayable",
      "type": "function"
    },
    {
      "constant": true,
      "inputs": [],
      "name": "getTimestampPublic",
      "outputs": [
        {
          "name": "",
          "type": "uint64"
        }
      ],
      "payable": false,
      "stateMutability": "view",
      "type": "function"
    },
    {
      "constant": true,
      "inputs": [
        {
          "name": "token",
          "type": "address"
        }
      ],
      "name": "allowRecoverability",
      "outputs": [
        {
          "name": "",
          "type": "bool"
        }
      ],
      "payable": false,
      "stateMutability": "view",
      "type": "function"
    },
    {
      "constant": true,
      "inputs": [],
      "name": "appId",
      "outputs": [
        {
          "name": "",
          "type": "bytes32"
        }
      ],
      "payable": false,
      "stateMutability": "view",
      "type": "function"
    },
    {
      "constant": false,
      "inputs": [
        {
          "name": "_contributor",
          "type": "address"
        },
        {
          "name": "_value",
          "type": "uint256"
        }
      ],
      "name": "contribute",
      "outputs": [],
      "payable": true,
      "stateMutability": "payable",
      "type": "function"
    },
    {
      "constant": true,
      "inputs": [],
      "name": "getInitializationBlock",
      "outputs": [
        {
          "name": "",
          "type": "uint256"
        }
      ],
      "payable": false,
      "stateMutability": "view",
      "type": "function"
    },
    {
      "constant": false,
      "inputs": [
        {
          "name": "_seconds",
          "type": "uint256"
        }
      ],
      "name": "mockIncreaseTime",
      "outputs": [],
      "payable": false,
      "stateMutability": "nonpayable",
      "type": "function"
    },
    {
      "constant": true,
      "inputs": [
        {
          "name": "_value",
          "type": "uint256"
        }
      ],
      "name": "contributionToTokens",
      "outputs": [
        {
          "name": "",
          "type": "uint256"
        }
      ],
      "payable": false,
      "stateMutability": "view",
      "type": "function"
    },
    {
      "constant": false,
      "inputs": [
        {
          "name": "_token",
          "type": "address"
        }
      ],
      "name": "transferToVault",
      "outputs": [],
      "payable": false,
      "stateMutability": "nonpayable",
      "type": "function"
    },
    {
      "constant": true,
      "inputs": [
        {
          "name": "_sender",
          "type": "address"
        },
        {
          "name": "_role",
          "type": "bytes32"
        },
        {
          "name": "_params",
          "type": "uint256[]"
        }
      ],
      "name": "canPerform",
      "outputs": [
        {
          "name": "",
          "type": "bool"
        }
      ],
      "payable": false,
      "stateMutability": "view",
      "type": "function"
    },
    {
      "constant": true,
      "inputs": [],
      "name": "CONTRIBUTE_ROLE",
      "outputs": [
        {
          "name": "",
          "type": "bytes32"
        }
      ],
      "payable": false,
      "stateMutability": "view",
      "type": "function"
    },
    {
      "constant": true,
      "inputs": [],
      "name": "getEVMScriptRegistry",
      "outputs": [
        {
          "name": "",
          "type": "address"
        }
      ],
      "payable": false,
      "stateMutability": "view",
      "type": "function"
    },
    {
      "constant": false,
      "inputs": [
        {
          "name": "_controller",
          "type": "address"
        },
        {
          "name": "_tokenManager",
          "type": "address"
        },
        {
          "name": "_reserve",
          "type": "address"
        },
        {
          "name": "_beneficiary",
          "type": "address"
        },
        {
          "name": "_contributionToken",
          "type": "address"
        },
        {
          "name": "_goal",
          "type": "uint256"
        },
        {
          "name": "_period",
          "type": "uint64"
        },
        {
          "name": "_exchangeRate",
          "type": "uint256"
        },
        {
          "name": "_vestingCliffPeriod",
          "type": "uint64"
        },
        {
          "name": "_vestingCompletePeriod",
          "type": "uint64"
        },
        {
          "name": "_supplyOfferedPct",
          "type": "uint256"
        },
        {
          "name": "_fundingForBeneficiaryPct",
          "type": "uint256"
        },
        {
          "name": "_openDate",
          "type": "uint64"
        }
      ],
      "name": "initialize",
      "outputs": [],
      "payable": false,
      "stateMutability": "nonpayable",
      "type": "function"
    },
    {
      "constant": true,
      "inputs": [],
      "name": "state",
      "outputs": [
        {
          "name": "",
          "type": "uint8"
        }
      ],
      "payable": false,
      "stateMutability": "view",
      "type": "function"
    },
    {
      "constant": true,
      "inputs": [],
      "name": "isClosed",
      "outputs": [
        {
          "name": "",
          "type": "bool"
        }
      ],
      "payable": false,
      "stateMutability": "view",
      "type": "function"
    },
    {
      "constant": true,
      "inputs": [],
      "name": "totalRaised",
      "outputs": [
        {
          "name": "",
          "type": "uint256"
        }
      ],
      "payable": false,
      "stateMutability": "view",
      "type": "function"
    },
    {
      "constant": true,
      "inputs": [],
      "name": "reserve",
      "outputs": [
        {
          "name": "",
          "type": "address"
        }
      ],
      "payable": false,
      "stateMutability": "view",
      "type": "function"
    },
    {
      "constant": true,
      "inputs": [],
      "name": "kernel",
      "outputs": [
        {
          "name": "",
          "type": "address"
        }
      ],
      "payable": false,
      "stateMutability": "view",
      "type": "function"
    },
    {
      "constant": true,
      "inputs": [],
      "name": "vestingCliffDate",
      "outputs": [
        {
          "name": "",
          "type": "uint64"
        }
      ],
      "payable": false,
      "stateMutability": "view",
      "type": "function"
    },
    {
      "constant": true,
      "inputs": [],
      "name": "isPetrified",
      "outputs": [
        {
          "name": "",
          "type": "bool"
        }
      ],
      "payable": false,
      "stateMutability": "view",
      "type": "function"
    },
    {
      "constant": true,
      "inputs": [],
      "name": "openDate",
      "outputs": [
        {
          "name": "",
          "type": "uint64"
        }
      ],
      "payable": false,
      "stateMutability": "view",
      "type": "function"
    },
    {
      "constant": true,
      "inputs": [],
      "name": "period",
      "outputs": [
        {
          "name": "",
          "type": "uint64"
        }
      ],
      "payable": false,
      "stateMutability": "view",
      "type": "function"
    },
    {
      "constant": true,
      "inputs": [],
      "name": "vestingCompleteDate",
      "outputs": [
        {
          "name": "",
          "type": "uint64"
        }
      ],
      "payable": false,
      "stateMutability": "view",
      "type": "function"
    },
    {
      "constant": true,
      "inputs": [],
      "name": "controller",
      "outputs": [
        {
          "name": "",
          "type": "address"
        }
      ],
      "payable": false,
      "stateMutability": "view",
      "type": "function"
    },
    {
      "constant": true,
      "inputs": [],
      "name": "token",
      "outputs": [
        {
          "name": "",
          "type": "address"
        }
      ],
      "payable": false,
      "stateMutability": "view",
      "type": "function"
    },
    {
      "constant": false,
      "inputs": [],
      "name": "open",
      "outputs": [],
      "payable": false,
      "stateMutability": "nonpayable",
      "type": "function"
    },
    {
      "anonymous": false,
      "inputs": [
        {
          "indexed": false,
          "name": "date",
          "type": "uint64"
        }
      ],
      "name": "SetOpenDate",
      "type": "event"
    },
    {
      "anonymous": false,
      "inputs": [],
      "name": "Close",
      "type": "event"
    },
    {
      "anonymous": false,
      "inputs": [
        {
          "indexed": true,
          "name": "contributor",
          "type": "address"
        },
        {
          "indexed": false,
          "name": "value",
          "type": "uint256"
        },
        {
          "indexed": false,
          "name": "amount",
          "type": "uint256"
        },
        {
          "indexed": false,
          "name": "vestedPurchaseId",
          "type": "uint256"
        }
      ],
      "name": "Contribute",
      "type": "event"
    },
    {
      "anonymous": false,
      "inputs": [
        {
          "indexed": true,
          "name": "contributor",
          "type": "address"
        },
        {
          "indexed": false,
          "name": "value",
          "type": "uint256"
        },
        {
          "indexed": false,
          "name": "amount",
          "type": "uint256"
        },
        {
          "indexed": false,
          "name": "vestedPurchaseId",
          "type": "uint256"
        }
      ],
      "name": "Refund",
      "type": "event"
    },
    {
      "anonymous": false,
      "inputs": [
        {
          "indexed": true,
          "name": "executor",
          "type": "address"
        },
        {
          "indexed": false,
          "name": "script",
          "type": "bytes"
        },
        {
          "indexed": false,
          "name": "input",
          "type": "bytes"
        },
        {
          "indexed": false,
          "name": "returnData",
          "type": "bytes"
        }
      ],
      "name": "ScriptResult",
      "type": "event"
    },
    {
      "anonymous": false,
      "inputs": [
        {
          "indexed": true,
          "name": "vault",
          "type": "address"
        },
        {
          "indexed": true,
          "name": "token",
          "type": "address"
        },
        {
          "indexed": false,
          "name": "amount",
          "type": "uint256"
        }
      ],
      "name": "RecoverToVault",
      "type": "event"
    }
  ],
  "bytecode": "0x6080604052620000176401000000006200001d810204565b6200023b565b6200003064010000000062000125810204565b60408051808201909152601881527f494e49545f414c52454144595f494e495449414c495a45440000000000000000602082015290156200010c576040517f08c379a00000000000000000000000000000000000000000000000000000000081526004018080602001828103825283818151815260200191508051906020019080838360005b83811015620000d0578181015183820152602001620000b6565b50505050905090810190601f168015620000fe5780820380516001836020036101000a031916815260200191505b509250505060405180910390fd5b506200012360001964010000000062000154810204565b565b60006200014f60008051602062004bad83398151915264010000000062002cd16200023382021704565b905090565b6200016764010000000062000125810204565b60408051808201909152601881527f494e49545f414c52454144595f494e495449414c495a454400000000000000006020820152901562000206576040517f08c379a000000000000000000000000000000000000000000000000000000000815260040180806020018281038252838181518152602001915080519060200190808383600083811015620000d0578181015183820152602001620000b6565b506200023060008051602062004bad8339815191528264010000000062002cd56200023782021704565b50565b5490565b9055565b614962806200024b6000396000f30060806040526004361061022e5763ffffffff7c0100000000000000000000000000000000000000000000000000000000600035041662fb40c281146102335780630803fac0146102655780630d720bbc1461028e5780631e4e5b61146102b557806325eeb6c6146102ca5780632914b9bd146102df5780632a709b141461036157806332f0a3b51461037657806338af3eed1461038b5780633ba0b9a9146103a05780633c2ab1ba146103b557806340193883146103ca578063410085df146103df57806343d726d6146104125780634bedf9a814610427578063550b521c1461043c57806360be675f1461046d5780636958839e146104855780636a928e8f1461049d5780636da1dfac146104b25780637750db14146104c75780637e365950146104df5780637e7db6e1146104f457806380afdea8146105225780638418cd99146105375780638b3dd7491461055b5780638f49e12f1461057057806396330f46146105885780639d4941d8146105a0578063a1658fad146105ce578063a2b96b6f14610642578063a479e50814610657578063b472fc811461066c578063c19d93fb146106e5578063c2b6b58c1461071e578063c5c4744c14610733578063cd3293de14610748578063d4aae0c41461075d578063daba92f914610772578063de4796ed14610787578063ec8cb2811461079c578063ef78d4fd146107b1578063eff1e3b2146107c6578063f77c4791146107db578063fc0c546a146107f0578063fcfff16f14610805575b600080fd5b34801561023f57600080fd5b5061024861081a565b6040805167ffffffffffffffff9092168252519081900360200190f35b34801561027157600080fd5b5061027a610836565b604080519115158252519081900360200190f35b34801561029a57600080fd5b506102a361085f565b60408051918252519081900360200190f35b3480156102c157600080fd5b506102a3610866565b3480156102d657600080fd5b5061024861086c565b3480156102eb57600080fd5b506040805160206004803580820135601f810184900484028501840190955284845261033894369492936024939284019190819084018382808284375094975061087c9650505050505050565b6040805173ffffffffffffffffffffffffffffffffffffffff9092168252519081900360200190f35b34801561036d57600080fd5b50610338610988565b34801561038257600080fd5b506103386109a4565b34801561039757600080fd5b50610338610a43565b3480156103ac57600080fd5b506102a3610a5f565b3480156103c157600080fd5b506102a3610a65565b3480156103d657600080fd5b506102a3610a6b565b3480156103eb57600080fd5b5061041073ffffffffffffffffffffffffffffffffffffffff60043516602435610a71565b005b34801561041e57600080fd5b50610410610d3b565b34801561043357600080fd5b50610338610fc5565b34801561044857600080fd5b506102a373ffffffffffffffffffffffffffffffffffffffff6004351660243561108a565b34801561047957600080fd5b506104106004356110a7565b34801561049157600080fd5b506104106004356110e1565b3480156104a957600080fd5b506102a36110e6565b3480156104be57600080fd5b506102a361110a565b3480156104d357600080fd5b50610410600435611119565b3480156104eb57600080fd5b50610248611152565b34801561050057600080fd5b5061027a73ffffffffffffffffffffffffffffffffffffffff6004351661115c565b34801561052e57600080fd5b506102a3611162565b61041073ffffffffffffffffffffffffffffffffffffffff6004351660243561118d565b34801561056757600080fd5b506102a3611650565b34801561057c57600080fd5b5061041060043561167b565b34801561059457600080fd5b506102a36004356116a6565b3480156105ac57600080fd5b5061041073ffffffffffffffffffffffffffffffffffffffff6004351661177c565b3480156105da57600080fd5b50604080516020600460443581810135838102808601850190965280855261027a95833573ffffffffffffffffffffffffffffffffffffffff16956024803596369695606495939492019291829185019084908082843750949750611a9e9650505050505050565b34801561064e57600080fd5b506102a3611c2e565b34801561066357600080fd5b50610338611c52565b34801561067857600080fd5b5061041073ffffffffffffffffffffffffffffffffffffffff6004358116906024358116906044358116906064358116906084351660a43567ffffffffffffffff60c43581169060e435906101043581169061012435811690610144359061016435906101843516611d14565b3480156106f157600080fd5b506106fa6127fb565b6040518082600481111561070a57fe5b60ff16815260200191505060405180910390f35b34801561072a57600080fd5b5061027a612946565b34801561073f57600080fd5b506102a361295b565b34801561075457600080fd5b50610338612961565b34801561076957600080fd5b5061033861297d565b34801561077e57600080fd5b506102486129a8565b34801561079357600080fd5b5061027a6129c5565b3480156107a857600080fd5b506102486129f6565b3480156107bd57600080fd5b50610248612a06565b3480156107d257600080fd5b50610248612a16565b3480156107e757600080fd5b50610338612a3b565b3480156107fc57600080fd5b50610338612a57565b34801561081157600080fd5b50610410612a73565b60095468010000000000000000900467ffffffffffffffff1681565b600080610841611650565b90508015801590610859575080610856612cb5565b10155b91505090565b620f424081565b600a5481565b60095467ffffffffffffffff1681565b6000610886611c52565b73ffffffffffffffffffffffffffffffffffffffff166304bf2a7f836040518263ffffffff167c01000000000000000000000000000000000000000000000000000000000281526004018080602001828103825283818151815260200191508051906020019080838360005b8381101561090a5781810151838201526020016108f2565b50505050905090810190601f1680156109375780820380516001836020036101000a031916815260200191505b5092505050602060405180830381600087803b15801561095657600080fd5b505af115801561096a573d6000803e3d6000fd5b505050506040513d602081101561098057600080fd5b505192915050565b60015473ffffffffffffffffffffffffffffffffffffffff1681565b60006109ae61297d565b73ffffffffffffffffffffffffffffffffffffffff166332f0a3b56040518163ffffffff167c0100000000000000000000000000000000000000000000000000000000028152600401602060405180830381600087803b158015610a1157600080fd5b505af1158015610a25573d6000803e3d6000fd5b505050506040513d6020811015610a3b57600080fd5b505190505b90565b60045473ffffffffffffffffffffffffffffffffffffffff1681565b60085481565b600b5481565b60065481565b610a9a7fe855346402235fdd185c890e68d2c4ecad599b88587635ee285bce2fda58dacb612cd1565b60408051808201909152601981527f5245454e5452414e43595f5245454e5452414e545f43414c4c0000000000000060208201529015610b72576040517f08c379a00000000000000000000000000000000000000000000000000000000081526004018080602001828103825283818151815260200191508051906020019080838360005b83811015610b37578181015183820152602001610b1f565b50505050905090810190601f168015610b645780820380516001836020036101000a031916815260200191505b509250505060405180910390fd5b50610ba47fe855346402235fdd185c890e68d2c4ecad599b88587635ee285bce2fda58dacb600163ffffffff612cd516565b610bac610836565b60408051808201909152601481527f494e49545f4e4f545f494e495449414c495a45440000000000000000000000006020820152901515610c49576040517f08c379a000000000000000000000000000000000000000000000000000000000815260040180806020018281038252838181518152602001915080519060200190808383600083811015610b37578181015183820152602001610b1f565b506002610c546127fb565b6004811115610c5f57fe5b60408051808201909152601581527f50524553414c455f494e56414c49445f5354415445000000000000000000000060208201529114610cfb576040517f08c379a000000000000000000000000000000000000000000000000000000000815260040180806020018281038252838181518152602001915080519060200190808383600083811015610b37578181015183820152602001610b1f565b50610d068282612cd9565b610d377fe855346402235fdd185c890e68d2c4ecad599b88587635ee285bce2fda58dacb600063ffffffff612cd516565b5050565b610d647fe855346402235fdd185c890e68d2c4ecad599b88587635ee285bce2fda58dacb612cd1565b60408051808201909152601981527f5245454e5452414e43595f5245454e5452414e545f43414c4c0000000000000060208201529015610e00576040517f08c379a000000000000000000000000000000000000000000000000000000000815260040180806020018281038252838181518152602001915080519060200190808383600083811015610b37578181015183820152602001610b1f565b50610e327fe855346402235fdd185c890e68d2c4ecad599b88587635ee285bce2fda58dacb600163ffffffff612cd516565b610e3a610836565b60408051808201909152601481527f494e49545f4e4f545f494e495449414c495a45440000000000000000000000006020820152901515610ed7576040517f08c379a000000000000000000000000000000000000000000000000000000000815260040180806020018281038252838181518152602001915080519060200190808383600083811015610b37578181015183820152602001610b1f565b506003610ee26127fb565b6004811115610eed57fe5b60408051808201909152601581527f50524553414c455f494e56414c49445f5354415445000000000000000000000060208201529114610f89576040517f08c379a000000000000000000000000000000000000000000000000000000000815260040180806020018281038252838181518152602001915080519060200190808383600083811015610b37578181015183820152602001610b1f565b50610f9261301b565b610fc37fe855346402235fdd185c890e68d2c4ecad599b88587635ee285bce2fda58dacb600063ffffffff612cd516565b565b6000610fcf610836565b60408051808201909152601481527f494e49545f4e4f545f494e495449414c495a4544000000000000000000000000602082015290151561106c576040517f08c379a000000000000000000000000000000000000000000000000000000000815260040180806020018281038252838181518152602001915080519060200190808383600083811015610b37578181015183820152602001610b1f565b505060055473ffffffffffffffffffffffffffffffffffffffff1690565b600e60209081526000928352604080842090915290825290205481565b600f54156110ca57600f546110c2908263ffffffff6134b216565b600f556110de565b6110da428263ffffffff6134b216565b600f555b50565b600f55565b7fefa06053e2ca99a43c97c4a4f3d8a394ee3323a8ff237e625fba09fe30ceb0a481565b6000611114612cb5565b905090565b6010541561113c57601054611134908263ffffffff61356416565b6010556110de565b61114c438263ffffffff61356416565b60105550565b6000611114613609565b50600190565b60006111147fd625496217aa6a3453eecb9c3489dc5a53e6c67b444329ea2b2cbc9ff547639b612cd1565b6111b67fe855346402235fdd185c890e68d2c4ecad599b88587635ee285bce2fda58dacb612cd1565b60408051808201909152601981527f5245454e5452414e43595f5245454e5452414e545f43414c4c0000000000000060208201529015611252576040517f08c379a000000000000000000000000000000000000000000000000000000000815260040180806020018281038252838181518152602001915080519060200190808383600083811015610b37578181015183820152602001610b1f565b506112847fe855346402235fdd185c890e68d2c4ecad599b88587635ee285bce2fda58dacb600163ffffffff612cd516565b604080516000808252602082019092527f9ccaca4edf2127f20c425fdd86af1ba178b9e5bee280cd70d88ac5f6874c4f07916112c69133918491905b50611a9e565b60408051808201909152600f81527f4150505f415554485f4641494c454400000000000000000000000000000000006020820152901515611363576040517f08c379a000000000000000000000000000000000000000000000000000000000815260040180806020018281038252838181518152602001915080519060200190808383600083811015610b37578181015183820152602001610b1f565b50600161136e6127fb565b600481111561137957fe5b60408051808201909152601581527f50524553414c455f494e56414c49445f5354415445000000000000000000000060208201529114611415576040517f08c379a000000000000000000000000000000000000000000000000000000000815260040180806020018281038252838181518152602001915080519060200190808383600083811015610b37578181015183820152602001610b1f565b506040805180820190915260208082527f50524553414c455f494e56414c49445f434f4e545249425554455f56414c5545908201528215156114b3576040517f08c379a000000000000000000000000000000000000000000000000000000000815260040180806020018281038252838181518152602001915080519060200190808383600083811015610b37578181015183820152602001610b1f565b5060055473ffffffffffffffffffffffffffffffffffffffff161515611576576040805180820190915260208082527f50524553414c455f494e56414c49445f434f4e545249425554455f56414c554590820152348314611570576040517f08c379a000000000000000000000000000000000000000000000000000000000815260040180806020018281038252838181518152602001915080519060200190808383600083811015610b37578181015183820152602001610b1f565b50611614565b6040805180820190915260208082527f50524553414c455f494e56414c49445f434f4e545249425554455f56414c5545908201523415611612576040517f08c379a000000000000000000000000000000000000000000000000000000000815260040180806020018281038252838181518152602001915080519060200190808383600083811015610b37578181015183820152602001610b1f565b505b61161e838361361b565b50610d377fe855346402235fdd185c890e68d2c4ecad599b88587635ee285bce2fda58dacb600063ffffffff612cd516565b60006111147febb05b386a8d34882b8711d156f463690983dc47815980fb82aeeff1aa43579e612cd1565b600f541561169657600f546110c2908263ffffffff61356416565b6110da428263ffffffff61356416565b60006116b0610836565b60408051808201909152601481527f494e49545f4e4f545f494e495449414c495a4544000000000000000000000000602082015290151561174d576040517f08c379a000000000000000000000000000000000000000000000000000000000815260040180806020018281038252838181518152602001915080519060200190808383600083811015610b37578181015183820152602001610b1f565b50611776620f424061176a60085485613bb090919063ffffffff16565b9063ffffffff613c7216565b92915050565b600080600061178a8461115c565b60408051808201909152601281527f5245434f5645525f444953414c4c4f57454400000000000000000000000000006020820152901515611827576040517f08c379a000000000000000000000000000000000000000000000000000000000815260040180806020018281038252838181518152602001915080519060200190808383600083811015610b37578181015183820152602001610b1f565b506118306109a4565b925061183b83613d29565b60408051808201909152601a81527f5245434f5645525f5641554c545f4e4f545f434f4e545241435400000000000060208201529015156118d8576040517f08c379a000000000000000000000000000000000000000000000000000000000815260040180806020018281038252838181518152602001915080519060200190808383600083811015610b37578181015183820152602001610b1f565b5073ffffffffffffffffffffffffffffffffffffffff84161515611943576040513031925073ffffffffffffffffffffffffffffffffffffffff84169083156108fc029084906000818181858888f1935050505015801561193d573d6000803e3d6000fd5b50611a33565b508261196b73ffffffffffffffffffffffffffffffffffffffff82163063ffffffff613d6316565b915061199473ffffffffffffffffffffffffffffffffffffffff8216848463ffffffff613e9c16565b60408051808201909152601d81527f5245434f5645525f544f4b454e5f5452414e534645525f4641494c45440000006020820152901515611a31576040517f08c379a000000000000000000000000000000000000000000000000000000000815260040180806020018281038252838181518152602001915080519060200190808383600083811015610b37578181015183820152602001610b1f565b505b8373ffffffffffffffffffffffffffffffffffffffff168373ffffffffffffffffffffffffffffffffffffffff167f596caf56044b55fb8c4ca640089bbc2b63cae3e978b851f5745cbb7c5b288e02846040518082815260200191505060405180910390a350505050565b600080611aa9610836565b1515611ab85760009150611c26565b611ac061297d565b905073ffffffffffffffffffffffffffffffffffffffff81161515611ae85760009150611c26565b8073ffffffffffffffffffffffffffffffffffffffff1663fdef9106863087611b1088613f34565b6040517c010000000000000000000000000000000000000000000000000000000063ffffffff871602815273ffffffffffffffffffffffffffffffffffffffff808616600483019081529085166024830152604482018490526080606483019081528351608484015283519192909160a490910190602085019080838360005b83811015611ba8578181015183820152602001611b90565b50505050905090810190601f168015611bd55780820380516001836020036101000a031916815260200191505b5095505050505050602060405180830381600087803b158015611bf757600080fd5b505af1158015611c0b573d6000803e3d6000fd5b505050506040513d6020811015611c2157600080fd5b505191505b509392505050565b7f9ccaca4edf2127f20c425fdd86af1ba178b9e5bee280cd70d88ac5f6874c4f0781565b600080611c5d61297d565b604080517fbe00bbd80000000000000000000000000000000000000000000000000000000081527fd6f028ca0e8edb4a8c9757ca4fdccab25fa1e0317da1188108f7d2dee14902fb60048201527fddbcfd564f642ab5627cf68b9b7d374fb4f8a36e941a75d89c87998cef03bd616024820152905173ffffffffffffffffffffffffffffffffffffffff929092169163be00bbd8916044808201926020929091908290030181600087803b15801561095657600080fd5b611d1c611650565b60408051808201909152601881527f494e49545f414c52454144595f494e495449414c495a4544000000000000000060208201529015611db8576040517f08c379a000000000000000000000000000000000000000000000000000000000815260040180806020018281038252838181518152602001915080519060200190808383600083811015610b37578181015183820152602001610b1f565b50611dc28d613d29565b60408051808201909152601781527f50524553414c455f434f4e54524143545f49535f454f410000000000000000006020820152901515611e5f576040517f08c379a000000000000000000000000000000000000000000000000000000000815260040180806020018281038252838181518152602001915080519060200190808383600083811015610b37578181015183820152602001610b1f565b50611e698c613d29565b60408051808201909152601781527f50524553414c455f434f4e54524143545f49535f454f410000000000000000006020820152901515611f06576040517f08c379a000000000000000000000000000000000000000000000000000000000815260040180806020018281038252838181518152602001915080519060200190808383600083811015610b37578181015183820152602001610b1f565b50611f108b613d29565b60408051808201909152601781527f50524553414c455f434f4e54524143545f49535f454f410000000000000000006020820152901515611fad576040517f08c379a000000000000000000000000000000000000000000000000000000000815260040180806020018281038252838181518152602001915080519060200190808383600083811015610b37578181015183820152602001610b1f565b5060408051808201909152601b81527f50524553414c455f494e56414c49445f42454e45464943494152590000000000602082015273ffffffffffffffffffffffffffffffffffffffff8b161515612061576040517f08c379a000000000000000000000000000000000000000000000000000000000815260040180806020018281038252838181518152602001915080519060200190808383600083811015610b37578181015183820152602001610b1f565b5061206b89613d29565b8061208a575073ffffffffffffffffffffffffffffffffffffffff8916155b6040805190810160405280602081526020017f50524553414c455f494e56414c49445f434f4e545249425554455f544f4b454e815250901515612129576040517f08c379a000000000000000000000000000000000000000000000000000000000815260040180806020018281038252838181518152602001915080519060200190808383600083811015610b37578181015183820152602001610b1f565b5060408051808201909152601481527f50524553414c455f494e56414c49445f474f414c0000000000000000000000006020820152600089116121c8576040517f08c379a000000000000000000000000000000000000000000000000000000000815260040180806020018281038252838181518152602001915080519060200190808383600083811015610b37578181015183820152602001610b1f565b5060408051808201909152601b81527f50524553414c455f494e56414c49445f54494d455f504552494f4400000000006020820152600067ffffffffffffffff891611612271576040517f08c379a000000000000000000000000000000000000000000000000000000000815260040180806020018281038252838181518152602001915080519060200190808383600083811015610b37578181015183820152602001610b1f565b5060408051808201909152601d81527f50524553414c455f494e56414c49445f45584348414e47455f52415445000000602082015260008711612310576040517f08c379a000000000000000000000000000000000000000000000000000000000815260040180806020018281038252838181518152602001915080519060200190808383600083811015610b37578181015183820152602001610b1f565b5060408051808201909152601b81527f50524553414c455f494e56414c49445f54494d455f504552494f440000000000602082015267ffffffffffffffff808916908716116123bb576040517f08c379a000000000000000000000000000000000000000000000000000000000815260040180806020018281038252838181518152602001915080519060200190808383600083811015610b37578181015183820152602001610b1f565b5060408051808201909152601b81527f50524553414c455f494e56414c49445f54494d455f504552494f440000000000602082015267ffffffffffffffff80871690861611612466576040517f08c379a000000000000000000000000000000000000000000000000000000000815260040180806020018281038252838181518152602001915080519060200190808383600083811015610b37578181015183820152602001610b1f565b5060008311801561247a5750620f42408311155b60408051808201909152601381527f50524553414c455f494e56414c49445f504354000000000000000000000000006020820152901515612517576040517f08c379a000000000000000000000000000000000000000000000000000000000815260040180806020018281038252838181518152602001915080519060200190808383600083811015610b37578181015183820152602001610b1f565b506000821015801561252c5750620f42408211155b60408051808201909152601381527f50524553414c455f494e56414c49445f5043540000000000000000000000000060208201529015156125c9576040517f08c379a000000000000000000000000000000000000000000000000000000000815260040180806020018281038252838181518152602001915080519060200190808383600083811015610b37578181015183820152602001610b1f565b506125d2613f3e565b8c6000806101000a81548173ffffffffffffffffffffffffffffffffffffffff021916908373ffffffffffffffffffffffffffffffffffffffff1602179055508b600160006101000a81548173ffffffffffffffffffffffffffffffffffffffff021916908373ffffffffffffffffffffffffffffffffffffffff1602179055508b73ffffffffffffffffffffffffffffffffffffffff1663fc0c546a6040518163ffffffff167c0100000000000000000000000000000000000000000000000000000000028152600401602060405180830381600087803b1580156126b757600080fd5b505af11580156126cb573d6000803e3d6000fd5b505050506040513d60208110156126e157600080fd5b5051600280547fffffffffffffffffffffffff000000000000000000000000000000000000000090811673ffffffffffffffffffffffffffffffffffffffff938416179091556003805482168e84161790556004805482168d841617905560058054909116918b169190911790556006889055600780547fffffffffffffffffffffffffffffffffffffffffffffffff000000000000000090811667ffffffffffffffff8a811691909117909255600888905560098054909116878316177fffffffffffffffffffffffffffffffff0000000000000000ffffffffffffffff166801000000000000000087841602179055600a849055600b8390558116156127ec576127ec8161401b565b50505050505050505050505050565b6000612805610836565b60408051808201909152601481527f494e49545f4e4f545f494e495449414c495a454400000000000000000000000060208201529015156128a2576040517f08c379a000000000000000000000000000000000000000000000000000000000815260040180806020018281038252838181518152602001915080519060200190808383600083811015610b37578181015183820152602001610b1f565b50600c5467ffffffffffffffff1615806128d257506128bf613609565b600c5467ffffffffffffffff9182169116115b156128df57506000610a40565b600654600d541061291157600c5468010000000000000000900460ff161561290957506004610a40565b506003610a40565b60075467ffffffffffffffff1661292661414c565b67ffffffffffffffff16101561293e57506001610a40565b506002610a40565b600c5468010000000000000000900460ff1681565b600d5481565b60035473ffffffffffffffffffffffffffffffffffffffff1681565b60006111147f4172f0f7d2289153072b0a6ca36959e0cbe2efc3afe50fc81636caa96338137b612cd1565b600c546901000000000000000000900467ffffffffffffffff1681565b60007fffffffffffffffffffffffffffffffffffffffffffffffffffffffffffffffff6129f0611650565b14905090565b600c5467ffffffffffffffff1681565b60075467ffffffffffffffff1681565b600c5471010000000000000000000000000000000000900467ffffffffffffffff1681565b60005473ffffffffffffffffffffffffffffffffffffffff1681565b60025473ffffffffffffffffffffffffffffffffffffffff1681565b604080516000808252602082019092527fefa06053e2ca99a43c97c4a4f3d8a394ee3323a8ff237e625fba09fe30ceb0a491612ab39133918491906112c0565b60408051808201909152600f81527f4150505f415554485f4641494c454400000000000000000000000000000000006020820152901515612b50576040517f08c379a000000000000000000000000000000000000000000000000000000000815260040180806020018281038252838181518152602001915080519060200190808383600083811015610b37578181015183820152602001610b1f565b506000612b5b6127fb565b6004811115612b6657fe5b60408051808201909152601581527f50524553414c455f494e56414c49445f5354415445000000000000000000000060208201529114612c02576040517f08c379a000000000000000000000000000000000000000000000000000000000815260040180806020018281038252838181518152602001915080519060200190808383600083811015610b37578181015183820152602001610b1f565b50600c5460408051808201909152601581527f50524553414c455f494e56414c49445f5354415445000000000000000000000060208201529067ffffffffffffffff1615612cac576040517f08c379a000000000000000000000000000000000000000000000000000000000815260040180806020018281038252838181518152602001915080519060200190808383600083811015610b37578181015183820152602001610b1f565b506110de6141a0565b60105460009015612cc95750601054610a40565b6111146141b0565b5490565b9055565b73ffffffffffffffffffffffffffffffffffffffff82166000908152600e602090815260408083208484528252808320548151808301909252601982527f50524553414c455f4e4f5448494e475f544f5f524546554e440000000000000092820192909252909190818311612daa576040517f08c379a000000000000000000000000000000000000000000000000000000000815260040180806020018281038252838181518152602001915080519060200190808383600083811015610b37578181015183820152602001610b1f565b5073ffffffffffffffffffffffffffffffffffffffff8085166000908152600e60209081526040808320878452909152812055600554612ded91163086856141b4565b600154604080517f3e05a36d00000000000000000000000000000000000000000000000000000000815273ffffffffffffffffffffffffffffffffffffffff87811660048301526024820187905291519190921691633e05a36d9160448083019260a09291908290030181600087803b158015612e6957600080fd5b505af1158015612e7d573d6000803e3d6000fd5b505050506040513d60a0811015612e9357600080fd5b5051600154604080517ffa6799f200000000000000000000000000000000000000000000000000000000815273ffffffffffffffffffffffffffffffffffffffff888116600483015260248201889052915193945091169163fa6799f29160448082019260009290919082900301818387803b158015612f1257600080fd5b505af1158015612f26573d6000803e3d6000fd5b5050600154604080517f9dc29fac00000000000000000000000000000000000000000000000000000000815273ffffffffffffffffffffffffffffffffffffffff90921660048301819052602483018690529051909350639dc29fac9250604480830192600092919082900301818387803b158015612fa457600080fd5b505af1158015612fb8573d6000803e3d6000fd5b50506040805185815260208101859052808201879052905173ffffffffffffffffffffffffffffffffffffffff881693507fb7048c2ad36aadee977bb16b4543a18866044d27a2ca753e1c7dbcfa7d7a696292509081900360600190a250505050565b600c80547fffffffffffffffffffffffffffffffffffffffffffffff00ffffffffffffffff1668010000000000000000179055600b54600d546000918291829161307491620f42409161176a919063ffffffff613bb016565b925060008311156130ab576005546004546130ab9173ffffffffffffffffffffffffffffffffffffffff90811691309116866141b4565b60055473ffffffffffffffffffffffffffffffffffffffff161561316d57600554604080517f70a08231000000000000000000000000000000000000000000000000000000008152306004820152905173ffffffffffffffffffffffffffffffffffffffff909216916370a08231916024808201926020929091908290030181600087803b15801561313c57600080fd5b505af1158015613150573d6000803e3d6000fd5b505050506040513d602081101561316657600080fd5b5051613170565b30315b60055460035491935061319f9173ffffffffffffffffffffffffffffffffffffffff91821691309116856141b4565b600a5461327a9061176a6131bc620f42408363ffffffff6134b216565b600260009054906101000a900473ffffffffffffffffffffffffffffffffffffffff1673ffffffffffffffffffffffffffffffffffffffff166318160ddd6040518163ffffffff167c0100000000000000000000000000000000000000000000000000000000028152600401602060405180830381600087803b15801561324257600080fd5b505af1158015613256573d6000803e3d6000fd5b505050506040513d602081101561326c57600080fd5b50519063ffffffff613bb016565b600154604080517fcc872b6600000000000000000000000000000000000000000000000000000000815260048101849052905192935073ffffffffffffffffffffffffffffffffffffffff9091169163cc872b669160248082019260009290919082900301818387803b1580156132f057600080fd5b505af1158015613304573d6000803e3d6000fd5b505060015460048054600c54604080517f21cb18cd00000000000000000000000000000000000000000000000000000000815273ffffffffffffffffffffffffffffffffffffffff938416948101949094526024840188905267ffffffffffffffff80831660448601526901000000000000000000830481166064860152710100000000000000000000000000000000009092049091166084840152600060a4840181905290519190931694506321cb18cd935060c48083019360209383900390910190829087803b1580156133d957600080fd5b505af11580156133ed573d6000803e3d6000fd5b505050506040513d602081101561340357600080fd5b505060008054604080517fc9567bf9000000000000000000000000000000000000000000000000000000008152905173ffffffffffffffffffffffffffffffffffffffff9092169263c9567bf99260048084019382900301818387803b15801561346c57600080fd5b505af1158015613480573d6000803e3d6000fd5b50506040517fc35789ccff76271dc0efa6bfde2f4d4a32cd48dd86278f75f8648cb068c86e3b925060009150a1505050565b60408051808201909152601281527f4d4154485f5355425f554e444552464c4f5700000000000000000000000000006020820152600090819084841115613555576040517f08c379a000000000000000000000000000000000000000000000000000000000815260040180806020018281038252838181518152602001915080519060200190808383600083811015610b37578181015183820152602001610b1f565b505050808203805b5092915050565b60408051808201909152601181527f4d4154485f4144445f4f564552464c4f5700000000000000000000000000000060208201526000908383019084821015611c26576040517f08c379a000000000000000000000000000000000000000000000000000000000815260040180806020018281038252838181518152602001915080519060200190808383600083811015610b37578181015183820152602001610b1f565b6000611114613616614532565b61454e565b600080600060065461363885600d5461356490919063ffffffff16565b116136435783613658565b600d546006546136589163ffffffff6134b216565b60055490935073ffffffffffffffffffffffffffffffffffffffff1615801561368057508284115b156136c357336108fc613699868663ffffffff6134b216565b6040518115909202916000818181858888f193505050501580156136c1573d6000803e3d6000fd5b505b60055473ffffffffffffffffffffffffffffffffffffffff161561399057600554604080517f70a0823100000000000000000000000000000000000000000000000000000000815273ffffffffffffffffffffffffffffffffffffffff88811660048301529151869392909216916370a08231916024808201926020929091908290030181600087803b15801561375957600080fd5b505af115801561376d573d6000803e3d6000fd5b505050506040513d602081101561378357600080fd5b505160408051808201909152601c81527f50524553414c455f494e53554646494349454e545f42414c414e4345000000006020820152911115613822576040517f08c379a000000000000000000000000000000000000000000000000000000000815260040180806020018281038252838181518152602001915080519060200190808383600083811015610b37578181015183820152602001610b1f565b50600554604080517fdd62ed3e00000000000000000000000000000000000000000000000000000000815273ffffffffffffffffffffffffffffffffffffffff888116600483015230602483015291518693929092169163dd62ed3e916044808201926020929091908290030181600087803b1580156138a157600080fd5b505af11580156138b5573d6000803e3d6000fd5b505050506040513d60208110156138cb57600080fd5b505160408051808201909152601e81527f50524553414c455f494e53554646494349454e545f414c4c4f57414e43450000602082015291111561396a576040517f08c379a000000000000000000000000000000000000000000000000000000000815260040180806020018281038252838181518152602001915080519060200190808383600083811015610b37578181015183820152602001610b1f565b506005546139909073ffffffffffffffffffffffffffffffffffffffff168630866141b4565b613999836116a6565b600154604080517fcc872b6600000000000000000000000000000000000000000000000000000000815260048101849052905192945073ffffffffffffffffffffffffffffffffffffffff9091169163cc872b669160248082019260009290919082900301818387803b158015613a0f57600080fd5b505af1158015613a23573d6000803e3d6000fd5b505060018054600c54604080517f21cb18cd00000000000000000000000000000000000000000000000000000000815273ffffffffffffffffffffffffffffffffffffffff8c81166004830152602482018a905267ffffffffffffffff8085166044840152690100000000000000000085048116606484015271010000000000000000000000000000000000909404909316608482015260a481019490945251911693506321cb18cd925060c48083019260209291908290030181600087803b158015613aef57600080fd5b505af1158015613b03573d6000803e3d6000fd5b505050506040513d6020811015613b1957600080fd5b5051600d54909150613b31908463ffffffff61356416565b600d5573ffffffffffffffffffffffffffffffffffffffff85166000818152600e60209081526040808320858452825291829020869055815186815290810185905280820184905290517f37e36ebc6d4ece9d361f20138c5dee2a19f8029f2236a30715e971bcf0f0b7349181900360600190a25050505050565b5490565b600080831515613bc3576000915061355d565b50828202828482811515613bd357fe5b60408051808201909152601181527f4d4154485f4d554c5f4f564552464c4f5700000000000000000000000000000060208201529291900414611c26576040517f08c379a000000000000000000000000000000000000000000000000000000000815260040180806020018281038252838181518152602001915080519060200190808383600083811015610b37578181015183820152602001610b1f565b60408051808201909152600d81527f4d4154485f4449565f5a45524f0000000000000000000000000000000000000060208201526000908190818411613d14576040517f08c379a000000000000000000000000000000000000000000000000000000000815260040180806020018281038252838181518152602001915080519060200190808383600083811015610b37578181015183820152602001610b1f565b508284811515613d2057fe5b04949350505050565b60008073ffffffffffffffffffffffffffffffffffffffff83161515613d525760009150613d5d565b823b90506000811191505b50919050565b6040805173ffffffffffffffffffffffffffffffffffffffff83166024808301919091528251808303909101815260449091019091526020810180517bffffffffffffffffffffffffffffffffffffffffffffffffffffffff167f70a08231000000000000000000000000000000000000000000000000000000001790526000908180613df086846145fe565b60408051808201909152601c81527f534146455f4552435f32305f42414c414e43455f52455645525445440000000060208201529193509150821515613e92576040517f08c379a000000000000000000000000000000000000000000000000000000000815260040180806020018281038252838181518152602001915080519060200190808383600083811015610b37578181015183820152602001610b1f565b5095945050505050565b6040805173ffffffffffffffffffffffffffffffffffffffff8416602482015260448082018490528251808303909101815260649091019091526020810180517bffffffffffffffffffffffffffffffffffffffffffffffffffffffff167fa9059cbb00000000000000000000000000000000000000000000000000000000179052600090613f2b858261462f565b95945050505050565b8051602002815290565b613f46611650565b60408051808201909152601881527f494e49545f414c52454144595f494e495449414c495a4544000000000000000060208201529015613fe2576040517f08c379a000000000000000000000000000000000000000000000000000000000815260040180806020018281038252838181518152602001915080519060200190808383600083811015610b37578181015183820152602001610b1f565b50610fc3613fee612cb5565b7febb05b386a8d34882b8711d156f463690983dc47815980fb82aeeff1aa43579e9063ffffffff612cd516565b614023613609565b60408051808201909152601b81527f50524553414c455f494e56414c49445f54494d455f504552494f44000000000060208201529067ffffffffffffffff90811690831610156140cf576040517f08c379a000000000000000000000000000000000000000000000000000000000815260040180806020018281038252838181518152602001915080519060200190808383600083811015610b37578181015183820152602001610b1f565b50600c80547fffffffffffffffffffffffffffffffffffffffffffffffff00000000000000001667ffffffffffffffff831617905561410c614681565b6040805167ffffffffffffffff8316815290517fab2aeaceefdbd207caa02bf58306335f7c37fd3b434a6cc547733be5e33a86779181900360200190a150565b600c5460009067ffffffffffffffff16151561416a57506000610a40565b600c546141999067ffffffffffffffff16614183613609565b67ffffffffffffffff169063ffffffff61472f16565b9050610a40565b610fc36141ab613609565b61401b565b4390565b73ffffffffffffffffffffffffffffffffffffffff841615156143835760408051808201909152601f81527f50524553414c455f544f4b454e5f5452414e534645525f524556455254454400602082015273ffffffffffffffffffffffffffffffffffffffff84163014614284576040517f08c379a000000000000000000000000000000000000000000000000000000000815260040180806020018281038252838181518152602001915080519060200190808383600083811015610b37578181015183820152602001610b1f565b5060408051808201909152601f81527f50524553414c455f544f4b454e5f5452414e534645525f524556455254454400602082015273ffffffffffffffffffffffffffffffffffffffff8316301415614339576040517f08c379a000000000000000000000000000000000000000000000000000000000815260040180806020018281038252838181518152602001915080519060200190808383600083811015610b37578181015183820152602001610b1f565b5060405173ffffffffffffffffffffffffffffffffffffffff83169082156108fc029083906000818181858888f1935050505015801561437d573d6000803e3d6000fd5b5061452c565b73ffffffffffffffffffffffffffffffffffffffff8316301415614465576143c873ffffffffffffffffffffffffffffffffffffffff8516838363ffffffff613e9c16565b60408051808201909152601f81527f50524553414c455f544f4b454e5f5452414e534645525f524556455254454400602082015290151561437d576040517f08c379a000000000000000000000000000000000000000000000000000000000815260040180806020018281038252838181518152602001915080519060200190808383600083811015610b37578181015183820152602001610b1f565b61448d73ffffffffffffffffffffffffffffffffffffffff851684848463ffffffff6147df16565b60408051808201909152601f81527f50524553414c455f544f4b454e5f5452414e534645525f524556455254454400602082015290151561452a576040517f08c379a000000000000000000000000000000000000000000000000000000000815260040180806020018281038252838181518152602001915080519060200190808383600083811015610b37578181015183820152602001610b1f565b505b50505050565b600f54600090156145465750600f54610a40565b611114614880565b60408051808201909152601581527f55494e5436345f4e554d4245525f544f4f5f4249470000000000000000000000602082015260009067ffffffffffffffff8311156145f7576040517f08c379a000000000000000000000000000000000000000000000000000000000815260040180806020018281038252838181518152602001915080519060200190808383600083811015610b37578181015183820152602001610b1f565b5090919050565b6000806000806040516020818751602089018a5afa9250600083111561462357805191505b50909590945092505050565b6000806040516020818551602087016000895af16000811115614673573d8015614660576020811461466957614671565b60019350614671565b600183511493505b505b5090949350505050565b9055565b600954600c546146a49167ffffffffffffffff918216911663ffffffff61488416565b600c80547fffffffffffffffffffffffffffffff0000000000000000ffffffffffffffffff16690100000000000000000067ffffffffffffffff93841602179081905560095461470592918216916801000000000000000090910416614884565b600c60116101000a81548167ffffffffffffffff021916908367ffffffffffffffff160217905550565b60408051808201909152601481527f4d41544836345f5355425f554e444552464c4f570000000000000000000000006020820152600090819067ffffffffffffffff8086169085161115613555576040517f08c379a000000000000000000000000000000000000000000000000000000000815260040180806020018281038252838181518152602001915080519060200190808383600083811015610b37578181015183820152602001610b1f565b6040805173ffffffffffffffffffffffffffffffffffffffff85811660248301528416604482015260648082018490528251808303909101815260849091019091526020810180517bffffffffffffffffffffffffffffffffffffffffffffffffffffffff167f23b872dd00000000000000000000000000000000000000000000000000000000179052600090614876868261462f565b9695505050505050565b4290565b60408051808201909152601381527f4d41544836345f4144445f4f564552464c4f570000000000000000000000000060208201526000908383019067ffffffffffffffff8086169083161015611c26576040517f08c379a000000000000000000000000000000000000000000000000000000000815260040180806020018281038252838181518152602001915080519060200190808383600083811015610b37578181015183820152602001610b1f5600a165627a7a72305820f261bec475e42d47a5b3346f38a8c161e68c7e163d2892b67df953af26ae05ce0029ebb05b386a8d34882b8711d156f463690983dc47815980fb82aeeff1aa43579e",
  "source": "pragma solidity ^0.4.24;\n\nimport \"../../Presale.sol\";\n\nimport \"@aragon/test-helpers/contracts/TimeHelpersMock.sol\";\n\n\ncontract PresaleMock is Presale, TimeHelpersMock {}\n",
  "sourcePath": "/Users/jonybang/workspace/fundraising/apps/presale/contracts/test/mocks/PresaleMock.sol",
  "compiler": {
    "name": "solc",
    "version": "0.4.24+commit.e67f0147.Emscripten.clang"
  },
  "schemaVersion": "2.0.1",
  "updatedAt": "2020-02-07T14:14:39.601Z"
}