{
  "contractName": "TimeHelpersMock",
  "abi": [
    {
      "constant": false,
      "inputs": [
        {
          "name": "_timestamp",
          "type": "uint256"
        }
      ],
      "name": "mockSetTimestamp",
      "outputs": [],
      "payable": false,
      "stateMutability": "nonpayable",
      "type": "function"
    },
    {
      "constant": false,
      "inputs": [
        {
          "name": "_seconds",
          "type": "uint256"
        }
      ],
      "name": "mockIncreaseTime",
      "outputs": [],
      "payable": false,
      "stateMutability": "nonpayable",
      "type": "function"
    },
    {
      "constant": false,
      "inputs": [
        {
          "name": "_seconds",
          "type": "uint256"
        }
      ],
      "name": "mockDecreaseTime",
      "outputs": [],
      "payable": false,
      "stateMutability": "nonpayable",
      "type": "function"
    },
    {
      "constant": false,
      "inputs": [
        {
          "name": "_number",
          "type": "uint256"
        }
      ],
      "name": "mockAdvanceBlocks",
      "outputs": [],
      "payable": false,
      "stateMutability": "nonpayable",
      "type": "function"
    },
    {
      "constant": true,
      "inputs": [],
      "name": "getTimestampPublic",
      "outputs": [
        {
          "name": "",
          "type": "uint64"
        }
      ],
      "payable": false,
      "stateMutability": "view",
      "type": "function"
    },
    {
      "constant": true,
      "inputs": [],
      "name": "getBlockNumberPublic",
      "outputs": [
        {
          "name": "",
          "type": "uint256"
        }
      ],
      "payable": false,
      "stateMutability": "view",
      "type": "function"
    }
  ],
  "bytecode": "0x608060405234801561001057600080fd5b506104b4806100206000396000f3006080604052600436106100775763ffffffff7c010000000000000000000000000000000000000000000000000000000060003504166360be675f811461007c5780636958839e146100965780636da1dfac146100ae5780637750db14146100d55780637e365950146100ed5780638f49e12f1461011f575b600080fd5b34801561008857600080fd5b50610094600435610137565b005b3480156100a257600080fd5b50610094600435610171565b3480156100ba57600080fd5b506100c3610176565b60408051918252519081900360200190f35b3480156100e157600080fd5b50610094600435610186565b3480156100f957600080fd5b506101026101bf565b6040805167ffffffffffffffff9092168252519081900360200190f35b34801561012b57600080fd5b506100946004356101c9565b6000541561015a57600054610152908263ffffffff6101f416565b60005561016e565b61016a428263ffffffff6101f416565b6000555b50565b600055565b60006101806102db565b90505b90565b600154156101a9576001546101a1908263ffffffff6102f716565b60015561016e565b6101b9438263ffffffff6102f716565b60015550565b60006101806103a4565b600054156101e457600054610152908263ffffffff6102f716565b61016a428263ffffffff6102f716565b60408051808201909152601281527f4d4154485f5355425f554e444552464c4f57000000000000000000000000000060208201526000908190848411156102d3576040517f08c379a00000000000000000000000000000000000000000000000000000000081526004018080602001828103825283818151815260200191508051906020019080838360005b83811015610298578181015183820152602001610280565b50505050905090810190601f1680156102c55780820380516001836020036101000a031916815260200191505b509250505060405180910390fd5b505050900390565b600154600090156102ef5750600154610183565b6101806103b6565b60408051808201909152601181527f4d4154485f4144445f4f564552464c4f570000000000000000000000000000006020820152600090838301908482101561039c576040517f08c379a000000000000000000000000000000000000000000000000000000000815260040180806020018281038252838181518152602001915080519060200190808383600083811015610298578181015183820152602001610280565b509392505050565b60006101806103b16103ba565b6103d4565b4390565b60008054156103cc5750600054610183565b610180610484565b60408051808201909152601581527f55494e5436345f4e554d4245525f544f4f5f4249470000000000000000000000602082015260009067ffffffffffffffff83111561047d576040517f08c379a000000000000000000000000000000000000000000000000000000000815260040180806020018281038252838181518152602001915080519060200190808383600083811015610298578181015183820152602001610280565b5090919050565b42905600a165627a7a7230582069b461e854a44a20bb1ae3b272d2911f6c8012b15d12ed76d54624488f7811dc0029",
  "source": "pragma solidity ^0.4.24;\n\nimport \"@aragon/os/contracts/common/TimeHelpers.sol\";\nimport \"@aragon/os/contracts/lib/math/SafeMath.sol\";\nimport \"@aragon/os/contracts/lib/math/SafeMath64.sol\";\n\n\ncontract TimeHelpersMock is TimeHelpers {\n    using SafeMath for uint256;\n    using SafeMath64 for uint64;\n\n    uint256 mockedTimestamp;\n    uint256 mockedBlockNumber;\n\n    /**\n    * @dev Sets a mocked timestamp value, used only for testing purposes\n    */\n    function mockSetTimestamp(uint256 _timestamp) public {\n        mockedTimestamp = _timestamp;\n    }\n\n    /**\n    * @dev Increases the mocked timestamp value, used only for testing purposes\n    */\n    function mockIncreaseTime(uint256 _seconds) public {\n        if (mockedTimestamp != 0) mockedTimestamp = mockedTimestamp.add(_seconds);\n        else mockedTimestamp = block.timestamp.add(_seconds);\n    }\n\n    /**\n    * @dev Decreases the mocked timestamp value, used only for testing purposes\n    */\n    function mockDecreaseTime(uint256 _seconds) public {\n        if (mockedTimestamp != 0) mockedTimestamp = mockedTimestamp.sub(_seconds);\n        else mockedTimestamp = block.timestamp.sub(_seconds);\n    }\n\n    /**\n    * @dev Advances the mocked block number value, used only for testing purposes\n    */\n    function mockAdvanceBlocks(uint256 _number) public {\n        if (mockedBlockNumber != 0) mockedBlockNumber = mockedBlockNumber.add(_number);\n        else mockedBlockNumber = block.number.add(_number);\n    }\n\n    /**\n    * @dev Returns the mocked timestamp value\n    */\n    function getTimestampPublic() public view returns (uint64) {\n        return getTimestamp64();\n    }\n\n    /**\n    * @dev Returns the mocked block number value\n    */\n    function getBlockNumberPublic() public view returns (uint256) {\n        return getBlockNumber();\n    }\n\n    /**\n    * @dev Returns the mocked timestamp if it was set, or current `block.timestamp`\n    */\n    function getTimestamp() internal view returns (uint256) {\n        if (mockedTimestamp != 0) return mockedTimestamp;\n        return super.getTimestamp();\n    }\n\n    /**\n    * @dev Returns the mocked block number if it was set, or current `block.number`\n    */\n    function getBlockNumber() internal view returns (uint256) {\n        if (mockedBlockNumber != 0) return mockedBlockNumber;\n        return super.getBlockNumber();\n    }\n}\n",
  "sourcePath": "@aragon/test-helpers/contracts/TimeHelpersMock.sol",
  "compiler": {
    "name": "solc",
    "version": "0.4.24+commit.e67f0147.Emscripten.clang"
  },
  "schemaVersion": "2.0.1",
  "updatedAt": "2020-02-07T14:14:39.613Z"
}