{
  "contractName": "Agent",
  "abi": [
    {
      "constant": true,
      "inputs": [],
      "name": "ADD_PROTECTED_TOKEN_ROLE",
      "outputs": [
        {
          "name": "",
          "type": "bytes32"
        }
      ],
      "payable": false,
      "stateMutability": "view",
      "type": "function"
    },
    {
      "constant": true,
      "inputs": [],
      "name": "hasInitialized",
      "outputs": [
        {
          "name": "",
          "type": "bool"
        }
      ],
      "payable": false,
      "stateMutability": "view",
      "type": "function"
    },
    {
      "constant": true,
      "inputs": [],
      "name": "ERC1271_INTERFACE_ID",
      "outputs": [
        {
          "name": "",
          "type": "bytes4"
        }
      ],
      "payable": false,
      "stateMutability": "view",
      "type": "function"
    },
    {
      "constant": true,
      "inputs": [],
      "name": "ERC1271_RETURN_INVALID_SIGNATURE",
      "outputs": [
        {
          "name": "",
          "type": "bytes4"
        }
      ],
      "payable": false,
      "stateMutability": "view",
      "type": "function"
    },
    {
      "constant": true,
      "inputs": [],
      "name": "TRANSFER_ROLE",
      "outputs": [
        {
          "name": "",
          "type": "bytes32"
        }
      ],
      "payable": false,
      "stateMutability": "view",
      "type": "function"
    },
    {
      "constant": true,
      "inputs": [
        {
          "name": "_script",
          "type": "bytes"
        }
      ],
      "name": "getEVMScriptExecutor",
      "outputs": [
        {
          "name": "",
          "type": "address"
        }
      ],
      "payable": false,
      "stateMutability": "view",
      "type": "function"
    },
    {
      "constant": true,
      "inputs": [],
      "name": "getRecoveryVault",
      "outputs": [
        {
          "name": "",
          "type": "address"
        }
      ],
      "payable": false,
      "stateMutability": "view",
      "type": "function"
    },
    {
      "constant": true,
      "inputs": [],
      "name": "RUN_SCRIPT_ROLE",
      "outputs": [
        {
          "name": "",
          "type": "bytes32"
        }
      ],
      "payable": false,
      "stateMutability": "view",
      "type": "function"
    },
    {
      "constant": true,
      "inputs": [],
      "name": "SAFE_EXECUTE_ROLE",
      "outputs": [
        {
          "name": "",
          "type": "bytes32"
        }
      ],
      "payable": false,
      "stateMutability": "view",
      "type": "function"
    },
    {
      "constant": true,
      "inputs": [],
      "name": "REMOVE_PROTECTED_TOKEN_ROLE",
      "outputs": [
        {
          "name": "",
          "type": "bytes32"
        }
      ],
      "payable": false,
      "stateMutability": "view",
      "type": "function"
    },
    {
      "constant": false,
      "inputs": [
        {
          "name": "_token",
          "type": "address"
        },
        {
          "name": "_value",
          "type": "uint256"
        }
      ],
      "name": "deposit",
      "outputs": [],
      "payable": true,
      "stateMutability": "payable",
      "type": "function"
    },
    {
      "constant": true,
      "inputs": [],
      "name": "isDepositable",
      "outputs": [
        {
          "name": "",
          "type": "bool"
        }
      ],
      "payable": false,
      "stateMutability": "view",
      "type": "function"
    },
    {
      "constant": true,
      "inputs": [],
      "name": "DESIGNATE_SIGNER_ROLE",
      "outputs": [
        {
          "name": "",
          "type": "bytes32"
        }
      ],
      "payable": false,
      "stateMutability": "view",
      "type": "function"
    },
    {
      "constant": true,
      "inputs": [],
      "name": "EXECUTE_ROLE",
      "outputs": [
        {
          "name": "",
          "type": "bytes32"
        }
      ],
      "payable": false,
      "stateMutability": "view",
      "type": "function"
    },
    {
      "constant": true,
      "inputs": [
        {
          "name": "",
          "type": "address"
        }
      ],
      "name": "allowRecoverability",
      "outputs": [
        {
          "name": "",
          "type": "bool"
        }
      ],
      "payable": false,
      "stateMutability": "view",
      "type": "function"
    },
    {
      "constant": true,
      "inputs": [],
      "name": "appId",
      "outputs": [
        {
          "name": "",
          "type": "bytes32"
        }
      ],
      "payable": false,
      "stateMutability": "view",
      "type": "function"
    },
    {
      "constant": false,
      "inputs": [],
      "name": "initialize",
      "outputs": [],
      "payable": false,
      "stateMutability": "nonpayable",
      "type": "function"
    },
    {
      "constant": true,
      "inputs": [
        {
          "name": "",
          "type": "uint256"
        }
      ],
      "name": "protectedTokens",
      "outputs": [
        {
          "name": "",
          "type": "address"
        }
      ],
      "payable": false,
      "stateMutability": "view",
      "type": "function"
    },
    {
      "constant": true,
      "inputs": [],
      "name": "getInitializationBlock",
      "outputs": [
        {
          "name": "",
          "type": "uint256"
        }
      ],
      "payable": false,
      "stateMutability": "view",
      "type": "function"
    },
    {
      "constant": true,
      "inputs": [],
      "name": "ERC1271_RETURN_VALID_SIGNATURE",
      "outputs": [
        {
          "name": "",
          "type": "bytes4"
        }
      ],
      "payable": false,
      "stateMutability": "view",
      "type": "function"
    },
    {
      "constant": false,
      "inputs": [
        {
          "name": "_token",
          "type": "address"
        }
      ],
      "name": "transferToVault",
      "outputs": [],
      "payable": false,
      "stateMutability": "nonpayable",
      "type": "function"
    },
    {
      "constant": true,
      "inputs": [
        {
          "name": "_sender",
          "type": "address"
        },
        {
          "name": "_role",
          "type": "bytes32"
        },
        {
          "name": "_params",
          "type": "uint256[]"
        }
      ],
      "name": "canPerform",
      "outputs": [
        {
          "name": "",
          "type": "bool"
        }
      ],
      "payable": false,
      "stateMutability": "view",
      "type": "function"
    },
    {
      "constant": true,
      "inputs": [],
      "name": "getEVMScriptRegistry",
      "outputs": [
        {
          "name": "",
          "type": "address"
        }
      ],
      "payable": false,
      "stateMutability": "view",
      "type": "function"
    },
    {
      "constant": true,
      "inputs": [],
      "name": "designatedSigner",
      "outputs": [
        {
          "name": "",
          "type": "address"
        }
      ],
      "payable": false,
      "stateMutability": "view",
      "type": "function"
    },
    {
      "constant": true,
      "inputs": [],
      "name": "PROTECTED_TOKENS_CAP",
      "outputs": [
        {
          "name": "",
          "type": "uint256"
        }
      ],
      "payable": false,
      "stateMutability": "view",
      "type": "function"
    },
    {
      "constant": true,
      "inputs": [],
      "name": "ADD_PRESIGNED_HASH_ROLE",
      "outputs": [
        {
          "name": "",
          "type": "bytes32"
        }
      ],
      "payable": false,
      "stateMutability": "view",
      "type": "function"
    },
    {
      "constant": true,
      "inputs": [
        {
          "name": "",
          "type": "bytes32"
        }
      ],
      "name": "isPresigned",
      "outputs": [
        {
          "name": "",
          "type": "bool"
        }
      ],
      "payable": false,
      "stateMutability": "view",
      "type": "function"
    },
    {
      "constant": false,
      "inputs": [
        {
          "name": "_token",
          "type": "address"
        },
        {
          "name": "_to",
          "type": "address"
        },
        {
          "name": "_value",
          "type": "uint256"
        }
      ],
      "name": "transfer",
      "outputs": [],
      "payable": false,
      "stateMutability": "nonpayable",
      "type": "function"
    },
    {
      "constant": true,
      "inputs": [],
      "name": "kernel",
      "outputs": [
        {
          "name": "",
          "type": "address"
        }
      ],
      "payable": false,
      "stateMutability": "view",
      "type": "function"
    },
    {
      "constant": true,
      "inputs": [],
      "name": "isPetrified",
      "outputs": [
        {
          "name": "",
          "type": "bool"
        }
      ],
      "payable": false,
      "stateMutability": "view",
      "type": "function"
    },
    {
      "constant": true,
      "inputs": [
        {
          "name": "_token",
          "type": "address"
        }
      ],
      "name": "balance",
      "outputs": [
        {
          "name": "",
          "type": "uint256"
        }
      ],
      "payable": false,
      "stateMutability": "view",
      "type": "function"
    },
    {
      "payable": true,
      "stateMutability": "payable",
      "type": "fallback"
    },
    {
      "anonymous": false,
      "inputs": [
        {
          "indexed": true,
          "name": "sender",
          "type": "address"
        },
        {
          "indexed": true,
          "name": "target",
          "type": "address"
        },
        {
          "indexed": false,
          "name": "data",
          "type": "bytes"
        }
      ],
      "name": "SafeExecute",
      "type": "event"
    },
    {
      "anonymous": false,
      "inputs": [
        {
          "indexed": true,
          "name": "sender",
          "type": "address"
        },
        {
          "indexed": true,
          "name": "target",
          "type": "address"
        },
        {
          "indexed": false,
          "name": "ethValue",
          "type": "uint256"
        },
        {
          "indexed": false,
          "name": "data",
          "type": "bytes"
        }
      ],
      "name": "Execute",
      "type": "event"
    },
    {
      "anonymous": false,
      "inputs": [
        {
          "indexed": true,
          "name": "token",
          "type": "address"
        }
      ],
      "name": "AddProtectedToken",
      "type": "event"
    },
    {
      "anonymous": false,
      "inputs": [
        {
          "indexed": true,
          "name": "token",
          "type": "address"
        }
      ],
      "name": "RemoveProtectedToken",
      "type": "event"
    },
    {
      "anonymous": false,
      "inputs": [
        {
          "indexed": true,
          "name": "sender",
          "type": "address"
        },
        {
          "indexed": true,
          "name": "hash",
          "type": "bytes32"
        }
      ],
      "name": "PresignHash",
      "type": "event"
    },
    {
      "anonymous": false,
      "inputs": [
        {
          "indexed": true,
          "name": "sender",
          "type": "address"
        },
        {
          "indexed": true,
          "name": "oldSigner",
          "type": "address"
        },
        {
          "indexed": true,
          "name": "newSigner",
          "type": "address"
        }
      ],
      "name": "SetDesignatedSigner",
      "type": "event"
    },
    {
      "anonymous": false,
      "inputs": [
        {
          "indexed": true,
          "name": "token",
          "type": "address"
        },
        {
          "indexed": true,
          "name": "to",
          "type": "address"
        },
        {
          "indexed": false,
          "name": "amount",
          "type": "uint256"
        }
      ],
      "name": "VaultTransfer",
      "type": "event"
    },
    {
      "anonymous": false,
      "inputs": [
        {
          "indexed": true,
          "name": "token",
          "type": "address"
        },
        {
          "indexed": true,
          "name": "sender",
          "type": "address"
        },
        {
          "indexed": false,
          "name": "amount",
          "type": "uint256"
        }
      ],
      "name": "VaultDeposit",
      "type": "event"
    },
    {
      "anonymous": false,
      "inputs": [
        {
          "indexed": true,
          "name": "executor",
          "type": "address"
        },
        {
          "indexed": false,
          "name": "script",
          "type": "bytes"
        },
        {
          "indexed": false,
          "name": "input",
          "type": "bytes"
        },
        {
          "indexed": false,
          "name": "returnData",
          "type": "bytes"
        }
      ],
      "name": "ScriptResult",
      "type": "event"
    },
    {
      "anonymous": false,
      "inputs": [
        {
          "indexed": true,
          "name": "vault",
          "type": "address"
        },
        {
          "indexed": true,
          "name": "token",
          "type": "address"
        },
        {
          "indexed": false,
          "name": "amount",
          "type": "uint256"
        }
      ],
      "name": "RecoverToVault",
      "type": "event"
    },
    {
      "constant": false,
      "inputs": [
        {
          "name": "_target",
          "type": "address"
        },
        {
          "name": "_ethValue",
          "type": "uint256"
        },
        {
          "name": "_data",
          "type": "bytes"
        }
      ],
      "name": "execute",
      "outputs": [],
      "payable": false,
      "stateMutability": "nonpayable",
      "type": "function"
    },
    {
      "constant": false,
      "inputs": [
        {
          "name": "_target",
          "type": "address"
        },
        {
          "name": "_data",
          "type": "bytes"
        }
      ],
      "name": "safeExecute",
      "outputs": [],
      "payable": false,
      "stateMutability": "nonpayable",
      "type": "function"
    },
    {
      "constant": false,
      "inputs": [
        {
          "name": "_token",
          "type": "address"
        }
      ],
      "name": "addProtectedToken",
      "outputs": [],
      "payable": false,
      "stateMutability": "nonpayable",
      "type": "function"
    },
    {
      "constant": false,
      "inputs": [
        {
          "name": "_token",
          "type": "address"
        }
      ],
      "name": "removeProtectedToken",
      "outputs": [],
      "payable": false,
      "stateMutability": "nonpayable",
      "type": "function"
    },
    {
      "constant": false,
      "inputs": [
        {
          "name": "_hash",
          "type": "bytes32"
        }
      ],
      "name": "presignHash",
      "outputs": [],
      "payable": false,
      "stateMutability": "nonpayable",
      "type": "function"
    },
    {
      "constant": false,
      "inputs": [
        {
          "name": "_designatedSigner",
          "type": "address"
        }
      ],
      "name": "setDesignatedSigner",
      "outputs": [],
      "payable": false,
      "stateMutability": "nonpayable",
      "type": "function"
    },
    {
      "constant": true,
      "inputs": [],
      "name": "isForwarder",
      "outputs": [
        {
          "name": "",
          "type": "bool"
        }
      ],
      "payable": false,
      "stateMutability": "pure",
      "type": "function"
    },
    {
      "constant": false,
      "inputs": [
        {
          "name": "_evmScript",
          "type": "bytes"
        }
      ],
      "name": "forward",
      "outputs": [],
      "payable": false,
      "stateMutability": "nonpayable",
      "type": "function"
    },
    {
      "constant": true,
      "inputs": [
        {
          "name": "_sender",
          "type": "address"
        },
        {
          "name": "_evmScript",
          "type": "bytes"
        }
      ],
      "name": "canForward",
      "outputs": [
        {
          "name": "",
          "type": "bool"
        }
      ],
      "payable": false,
      "stateMutability": "view",
      "type": "function"
    },
    {
      "constant": true,
      "inputs": [
        {
          "name": "_interfaceId",
          "type": "bytes4"
        }
      ],
      "name": "supportsInterface",
      "outputs": [
        {
          "name": "",
          "type": "bool"
        }
      ],
      "payable": false,
      "stateMutability": "pure",
      "type": "function"
    },
    {
      "constant": true,
      "inputs": [
        {
          "name": "_hash",
          "type": "bytes32"
        },
        {
          "name": "_signature",
          "type": "bytes"
        }
      ],
      "name": "isValidSignature",
      "outputs": [
        {
          "name": "",
          "type": "bytes4"
        }
      ],
      "payable": false,
      "stateMutability": "view",
      "type": "function"
    },
    {
      "constant": true,
      "inputs": [
        {
          "name": "_data",
          "type": "bytes"
        },
        {
          "name": "_signature",
          "type": "bytes"
        }
      ],
      "name": "isValidSignature",
      "outputs": [
        {
          "name": "",
          "type": "bytes4"
        }
      ],
      "payable": false,
      "stateMutability": "view",
      "type": "function"
    },
    {
      "constant": true,
      "inputs": [],
      "name": "getProtectedTokensLength",
      "outputs": [
        {
          "name": "",
          "type": "uint256"
        }
      ],
      "payable": false,
      "stateMutability": "view",
      "type": "function"
    }
  ],
  "bytecode": "0x6080604052620000176401000000006200001d810204565b6200023b565b6200003064010000000062000125810204565b60408051808201909152601881527f494e49545f414c52454144595f494e495449414c495a45440000000000000000602082015290156200010c576040517f08c379a00000000000000000000000000000000000000000000000000000000081526004018080602001828103825283818151815260200191508051906020019080838360005b83811015620000d0578181015183820152602001620000b6565b50505050905090810190601f168015620000fe5780820380516001836020036101000a031916815260200191505b509250505060405180910390fd5b506200012360001964010000000062000154810204565b565b60006200014f6000805160206200407883398151915264010000000062002b926200023382021704565b905090565b6200016764010000000062000125810204565b60408051808201909152601881527f494e49545f414c52454144595f494e495449414c495a454400000000000000006020820152901562000206576040517f08c379a000000000000000000000000000000000000000000000000000000000815260040180806020018281038252838181518152602001915080519060200190808383600083811015620000d0578181015183820152602001620000b6565b5062000230600080516020620040788339815191528264010000000062003b556200023782021704565b50565b5490565b9055565b613e2d806200024b6000396000f3006080604052600436106101ff5763ffffffff60e060020a6000350416627bb003811461034b57806301ffc9a7146103725780630803fac0146103a857806311a5e409146103bd5780631626ba7e146103ef5780631ce301811461044d578063206b60f91461046257806320c13b0b1461047757806326f06d241461050e5780632914b9bd1461052357806332f0a3b514610598578063368c3c34146105ad5780633e4eb756146105c257806342b2d066146105d757806347e7ef24146105ec57806348a0c8dd146106035780634c7ec0b01461061857806354842f1414610630578063578eb50b146106455780635fa5e4e6146106665780636298e9021461067b5780637e7db6e11461069c57806380afdea8146106bd5780638129fc1c146106d2578063851a3790146106e75780638b3dd749146106ff5780639890cdca146107145780639d4941d814610729578063a1658fad1461074a578063a479e508146107b1578063a83e52b4146107c6578063aae25051146107e7578063ab23c345146107fc578063b03bdb0414610829578063b06c42441461083e578063b4fa653c14610853578063b61d27f61461086b578063beabacc81461089c578063c0774df3146108c6578063d4aae0c41461092d578063d948d46814610942578063de4796ed1461099b578063e3d670d7146109b0578063fd64eccb146109d1575b6102076109e6565b6040805180820190915260148152600080516020613de283398151915260208201529015156102b75760405160e560020a62461bcd0281526004018080602001828103825283818151815260200191508051906020019080838360005b8381101561027c578181015183820152602001610264565b50505050905090810190601f1680156102a95780820380516001836020036101000a031916815260200191505b509250505060405180910390fd5b5060408051808201909152601381527f5641554c545f444154415f4e4f4e5f5a45524f000000000000000000000000006020820152361561033d5760405160e560020a62461bcd0281526004018080602001828103825283818151815260200191508051906020019080838360008381101561027c578181015183820152602001610264565b50610349600034610a10565b005b34801561035757600080fd5b50610360610cac565b60408051918252519081900360200190f35b34801561037e57600080fd5b50610394600160e060020a031960043516610cd0565b604080519115158252519081900360200190f35b3480156103b457600080fd5b506103946109e6565b3480156103c957600080fd5b506103d2610d25565b60408051600160e060020a03199092168252519081900360200190f35b3480156103fb57600080fd5b5060408051602060046024803582810135601f81018590048502860185019096528585526103d2958335953695604494919390910191908190840183828082843750949750610d339650505050505050565b34801561045957600080fd5b506103d2610da5565b34801561046e57600080fd5b50610360610daa565b34801561048357600080fd5b506040805160206004803580820135601f81018490048402850184019095528484526103d294369492936024939284019190819084018382808284375050604080516020601f89358b018035918201839004830284018301909452808352979a999881019791965091820194509250829150840183828082843750949750610ddf9650505050505050565b34801561051a57600080fd5b50610360610e4e565b34801561052f57600080fd5b506040805160206004803580820135601f810184900484028501840190955284845261057c943694929360249392840191908190840183828082843750949750610ed59650505050505050565b60408051600160a060020a039092168252519081900360200190f35b3480156105a457600080fd5b5061057c610fbb565b3480156105b957600080fd5b50610360611033565b3480156105ce57600080fd5b50610360611057565b3480156105e357600080fd5b5061036061107b565b610349600160a060020a036004351660243561109f565b34801561060f57600080fd5b5061039461112a565b34801561062457600080fd5b5061034960043561115a565b34801561063c57600080fd5b5061036061124c565b34801561065157600080fd5b50610349600160a060020a0360043516611270565b34801561067257600080fd5b506103606113b8565b34801561068757600080fd5b50610349600160a060020a03600435166113dc565b3480156106a857600080fd5b50610394600160a060020a0360043516611639565b3480156106c957600080fd5b5061036061163f565b3480156106de57600080fd5b5061034961166a565b3480156106f357600080fd5b5061057c60043561170c565b34801561070b57600080fd5b50610360611734565b34801561072057600080fd5b506103d261175f565b34801561073557600080fd5b50610349600160a060020a036004351661176d565b34801561075657600080fd5b506040805160206004604435818101358381028086018501909652808552610394958335600160a060020a03169560248035963696956064959394920192918291850190849080828437509497506119fc9650505050505050565b3480156107bd57600080fd5b5061057c611b4c565b3480156107d257600080fd5b50610349600160a060020a0360043516611c01565b3480156107f357600080fd5b5061057c611da1565b34801561080857600080fd5b5061034960048035600160a060020a03169060248035908101910135611db0565b34801561083557600080fd5b50610360612311565b34801561084a57600080fd5b50610360612316565b34801561085f57600080fd5b5061039460043561233a565b34801561087757600080fd5b5061034960048035600160a060020a031690602480359160443591820191013561234f565b3480156108a857600080fd5b50610349600160a060020a03600435811690602435166044356124fc565b3480156108d257600080fd5b5060408051602060046024803582810135601f8101859004850286018501909652858552610394958335600160a060020a03169536956044949193909101919081908401838280828437509497506127f89650505050505050565b34801561093957600080fd5b5061057c612835565b34801561094e57600080fd5b506040805160206004803580820135601f81018490048402850184019095528484526103499436949293602493928401919081908401838280828437509497506128609650505050505050565b3480156109a757600080fd5b50610394612923565b3480156109bc57600080fd5b50610360600160a060020a0360043516612936565b3480156109dd57600080fd5b50610394612970565b6000806109f1611734565b90508015801590610a09575080610a06612975565b10155b91505b5090565b610a1861112a565b60408051808201909152601581527f5641554c545f4e4f545f4445504f53495441424c4500000000000000000000006020820152901515610a9e5760405160e560020a62461bcd0281526004018080602001828103825283818151815260200191508051906020019080838360008381101561027c578181015183820152602001610264565b5060408051808201909152601881527f5641554c545f4445504f5349545f56414c55455f5a45524f0000000000000000602082015260008211610b265760405160e560020a62461bcd0281526004018080602001828103825283818151815260200191508051906020019080838360008381101561027c578181015183820152602001610264565b50600160a060020a0382161515610bc35760408051808201909152601481527f5641554c545f56414c55455f4d49534d415443480000000000000000000000006020820152348214610bbd5760405160e560020a62461bcd0281526004018080602001828103825283818151815260200191508051906020019080838360008381101561027c578181015183820152602001610264565b50610c68565b610bde600160a060020a03831633308463ffffffff61297916565b6040805190810160405280602081526020017f5641554c545f544f4b454e5f5452414e534645525f46524f4d5f524556455254815250901515610c665760405160e560020a62461bcd0281526004018080602001828103825283818151815260200191508051906020019080838360008381101561027c578181015183820152602001610264565b505b6040805182815290513391600160a060020a038516917f2790b90165fd3973ad7edde4eca71b4f8808dd4857a2a3a3e8ae5642a5cb196e9181900360200190a35050565b7f6eb2a499556bfa2872f5aa15812b956cc4a71b4d64eb3553f7073c7e41415aaa81565b6000600160e060020a0319821660e060020a63fb855dc9021480610d1d5750600160e060020a031982167f01ffc9a700000000000000000000000000000000000000000000000000000000145b90505b919050565b60e060020a63fb855dc90281565b600082815260208190526040812054819060ff1615610d5d57610d5660016129f8565b9150610d9e565b600154600160a060020a03161515610d7757506000610d92565b600154610d8f908590600160a060020a031685612a17565b90505b610d9b816129f8565b91505b5092915050565b600081565b604080517f5452414e534645525f524f4c45000000000000000000000000000000000000008152905190819003600d01902081565b6000610e47836040518082805190602001908083835b60208310610e145780518252601f199092019160209182019101610df5565b6001836020036101000a038019825116818451168082178552505050505050905001915050604051809103902083610d33565b9392505050565b6000610e586109e6565b6040805180820190915260148152600080516020613de28339815191526020820152901515610ecc5760405160e560020a62461bcd0281526004018080602001828103825283818151815260200191508051906020019080838360008381101561027c578181015183820152602001610264565b50506002545b90565b6000610edf611b4c565b600160a060020a03166304bf2a7f836040518263ffffffff1660e060020a0281526004018080602001828103825283818151815260200191508051906020019080838360005b83811015610f3d578181015183820152602001610f25565b50505050905090810190601f168015610f6a5780820380516001836020036101000a031916815260200191505b5092505050602060405180830381600087803b158015610f8957600080fd5b505af1158015610f9d573d6000803e3d6000fd5b505050506040513d6020811015610fb357600080fd5b505192915050565b6000610fc5612835565b600160a060020a03166332f0a3b56040518163ffffffff1660e060020a028152600401602060405180830381600087803b15801561100257600080fd5b505af1158015611016573d6000803e3d6000fd5b505050506040513d602081101561102c57600080fd5b5051905090565b7fb421f7ad7646747f3051c50c0b8e2377839296cd4973e27f63821d73e390338f81565b7f0a1ad7b87f5846153c6d5a1f761d71c7d0cfd122384f56066cd33239b793369481565b7f71eee93d500f6f065e38b27d242a756466a00a52a1dbcd6b4260f01a8640402a81565b6110a76109e6565b6040805180820190915260148152600080516020613de2833981519152602082015290151561111b5760405160e560020a62461bcd0281526004018080602001828103825283818151815260200191508051906020019080838360008381101561027c578181015183820152602001610264565b506111268282610a10565b5050565b60006111557f665fd576fbbe6f247aff98f5c94a561e3f71ec2d3c988d56f12d342396c50cea612b92565b905090565b7f0b29780bb523a130b3b01f231ef49ed2fa2781645591a0b0a44ca98f15a5994c61118482612b96565b61118f3383836119fc565b60408051808201909152600f8152600080516020613dc283398151915260208201529015156112035760405160e560020a62461bcd0281526004018080602001828103825283818151815260200191508051906020019080838360008381101561027c578181015183820152602001610264565b50600083815260208190526040808220805460ff1916600117905551849133917fb150212e573caa2a0216cf8f273ef996af143fd7b2d35abd92c8105536cac1609190a3505050565b7f23ce341656c3f14df6692eebd4757791e33662b7dcf9970c8308303da5472b7c81565b7f71eee93d500f6f065e38b27d242a756466a00a52a1dbcd6b4260f01a8640402a61129a82612ba1565b6112a53383836119fc565b60408051808201909152600f8152600080516020613dc283398151915260208201529015156113195760405160e560020a62461bcd0281526004018080602001828103825283818151815260200191508051906020019080838360008381101561027c578181015183820152602001610264565b5061132383612bb5565b60408051808201909152601981527f4147454e545f544f4b454e5f4e4f545f50524f5445435445440000000000000060208201529015156113a95760405160e560020a62461bcd0281526004018080602001828103825283818151815260200191508051906020019080838360008381101561027c578181015183820152602001610264565b506113b383612c13565b505050565b7fcebf517aa4440d1d125e0355aae64401211d0848a23c02cc5d29a14822580ba481565b7f6eb2a499556bfa2872f5aa15812b956cc4a71b4d64eb3553f7073c7e41415aaa61140682612ba1565b6114113383836119fc565b60408051808201909152600f8152600080516020613dc283398151915260208201529015156114855760405160e560020a62461bcd0281526004018080602001828103825283818151815260200191508051906020019080838360008381101561027c578181015183820152602001610264565b5060025460408051808201909152601881527f4147454e545f544f4b454e535f4341505f524541434845440000000000000000602082015290600a116115105760405160e560020a62461bcd0281526004018080602001828103825283818151815260200191508051906020019080838360008381101561027c578181015183820152602001610264565b5061151a83612cd0565b60408051808201909152601581527f4147454e545f544f4b454e5f4e4f545f4552433230000000000000000000000060208201529015156115a05760405160e560020a62461bcd0281526004018080602001828103825283818151815260200191508051906020019080838360008381101561027c578181015183820152602001610264565b506115aa83612bb5565b60408051808201909152601d81527f4147454e545f544f4b454e5f414c52454144595f50524f5445435445440000006020820152901561162f5760405160e560020a62461bcd0281526004018080602001828103825283818151815260200191508051906020019080838360008381101561027c578181015183820152602001610264565b506113b383612cfb565b50600090565b60006111557fd625496217aa6a3453eecb9c3489dc5a53e6c67b444329ea2b2cbc9ff547639b612b92565b611672611734565b60408051808201909152601881527f494e49545f414c52454144595f494e495449414c495a45440000000000000000602082015290156116f75760405160e560020a62461bcd0281526004018080602001828103825283818151815260200191508051906020019080838360008381101561027c578181015183820152602001610264565b50611700612d80565b61170a6001612e46565b565b600280548290811061171a57fe5b600091825260209091200154600160a060020a0316905081565b60006111557febb05b386a8d34882b8711d156f463690983dc47815980fb82aeeff1aa43579e612b92565b60e060020a6320c13b0b0281565b600080600061177b84611639565b60408051808201909152601281527f5245434f5645525f444953414c4c4f574544000000000000000000000000000060208201529015156118015760405160e560020a62461bcd0281526004018080602001828103825283818151815260200191508051906020019080838360008381101561027c578181015183820152602001610264565b5061180a610fbb565b925061181583612e7d565b60408051808201909152601a81527f5245434f5645525f5641554c545f4e4f545f434f4e5452414354000000000000602082015290151561189b5760405160e560020a62461bcd0281526004018080602001828103825283818151815260200191508051906020019080838360008381101561027c578181015183820152602001610264565b50600160a060020a03841615156118ec5760405130319250600160a060020a0384169083156108fc029084906000818181858888f193505050501580156118e6573d6000803e3d6000fd5b506119ab565b5082611907600160a060020a0382163063ffffffff612ea316565b9150611923600160a060020a038216848463ffffffff612fa316565b60408051808201909152601d81527f5245434f5645525f544f4b454e5f5452414e534645525f4641494c454400000060208201529015156119a95760405160e560020a62461bcd0281526004018080602001828103825283818151815260200191508051906020019080838360008381101561027c578181015183820152602001610264565b505b83600160a060020a031683600160a060020a03167f596caf56044b55fb8c4ca640089bbc2b63cae3e978b851f5745cbb7c5b288e02846040518082815260200191505060405180910390a350505050565b600080611a076109e6565b1515611a165760009150611b44565b611a1e612835565b9050600160a060020a0381161515611a395760009150611b44565b80600160a060020a031663fdef9106863087611a5488613019565b60405160e060020a63ffffffff8716028152600160a060020a03808616600483019081529085166024830152604482018490526080606483019081528351608484015283519192909160a490910190602085019080838360005b83811015611ac6578181015183820152602001611aae565b50505050905090810190601f168015611af35780820380516001836020036101000a031916815260200191505b5095505050505050602060405180830381600087803b158015611b1557600080fd5b505af1158015611b29573d6000803e3d6000fd5b505050506040513d6020811015611b3f57600080fd5b505191505b509392505050565b600080611b57612835565b604080517fbe00bbd80000000000000000000000000000000000000000000000000000000081527fd6f028ca0e8edb4a8c9757ca4fdccab25fa1e0317da1188108f7d2dee14902fb60048201527fddbcfd564f642ab5627cf68b9b7d374fb4f8a36e941a75d89c87998cef03bd6160248201529051600160a060020a03929092169163be00bbd8916044808201926020929091908290030181600087803b158015610f8957600080fd5b60007f23ce341656c3f14df6692eebd4757791e33662b7dcf9970c8308303da5472b7c611c2d83612ba1565b611c383383836119fc565b60408051808201909152600f8152600080516020613dc28339815191526020820152901515611cac5760405160e560020a62461bcd0281526004018080602001828103825283818151815260200191508051906020019080838360008381101561027c578181015183820152602001610264565b5060408051808201909152601881527f4147454e545f44455349474e415445445f544f5f53454c4600000000000000006020820152600160a060020a038516301415611d3d5760405160e560020a62461bcd0281526004018080602001828103825283818151815260200191508051906020019080838360008381101561027c578181015183820152602001610264565b5060018054600160a060020a0386811673ffffffffffffffffffffffffffffffffffffffff198316811790935560405191169450849033907f3ecf54ed9acd859c5ee7f080794267b8f08b65d2446d816cef1efccd6d00d73590600090a450505050565b600154600160a060020a031681565b60006060806000806000806000807f0a1ad7b87f5846153c6d5a1f761d71c7d0cfd122384f56066cd33239b7933694600102611e2b8d611e1f8e8e8080601f01602080910402602001604051908101604052809392919081815260200183838082843750613023945050505050565b60e060020a900461303c565b611e363383836119fc565b60408051808201909152600f8152600080516020613dc28339815191526020820152901515611eaa5760405160e560020a62461bcd0281526004018080602001828103825283818151815260200191508051906020019080838360008381101561027c578181015183820152602001610264565b50600254604080518281526020808402820101909152909b508b8015611eda578160200160208202803883390190505b5099508a604051908082528060200260200182016040528015611f07578160200160208202803883390190505b509850600097505b8a88101561201c576002805489908110611f2557fe5b6000918252602091829020015460408051808201909152601681527f4147454e545f5441524745545f50524f5445435445440000000000000000000092810192909252600160a060020a0390811698508f16881415611fc95760405160e560020a62461bcd0281526004018080602001828103825283818151815260200191508051906020019080838360008381101561027c578181015183820152602001610264565b50868a89815181101515611fd957fe5b600160a060020a03909216602092830290910190910152611ff987612936565b898981518110151561200757fe5b60209081029091010152600190970196611f0f565b8d600160a060020a03168d8d604051808383808284378201915050925050506000604051808303816000865af191505095503d935060405194503d85016040523d6000863e851561230d5760025460408051808201909152601f81527f4147454e545f50524f5445435445445f544f4b454e535f4d4f444946494544006020820152908c146120f05760405160e560020a62461bcd0281526004018080602001828103825283818151815260200191508051906020019080838360008381101561027c578181015183820152602001610264565b50600092505b8a8310156122a557898381518110151561210c57fe5b90602001906020020151600160a060020a031660028481548110151561212e57fe5b6000918252602091829020015460408051808201909152601f81527f4147454e545f50524f5445435445445f544f4b454e535f4d4f44494649454400928101929092529091600160a060020a03909116146121ce5760405160e560020a62461bcd0281526004018080602001828103825283818151815260200191508051906020019080838360008381101561027c578181015183820152602001610264565b5088838151811015156121dd57fe5b906020019060200201516122136002858154811015156121f957fe5b600091825260209091200154600160a060020a0316612936565b60408051808201909152601f81527f4147454e545f50524f5445435445445f42414c414e43455f4c4f57455245440060208201529111156122995760405160e560020a62461bcd0281526004018080602001828103825283818151815260200191508051906020019080838360008381101561027c578181015183820152602001610264565b506001909201916120f6565b8d600160a060020a031633600160a060020a03167f47f4287d5285559a03d8affeadc53ef3fca238a63c256c08a22bfd30fd5d33ce8f8f6040518080602001828103825284848281815260200192508082843760405192018290039550909350505050a38385f35b8385fd5b600a81565b7f0b29780bb523a130b3b01f231ef49ed2fa2781645591a0b0a44ca98f15a5994c81565b60006020819052908152604090205460ff1681565b60007fcebf517aa4440d1d125e0355aae64401211d0848a23c02cc5d29a14822580ba46001026123bf86866123b387878080601f01602080910402602001604051908101604052809392919081815260200183838082843750613023945050505050565b60e060020a9004613051565b6123ca3383836119fc565b60408051808201909152600f8152600080516020613dc2833981519152602082015290151561243e5760405160e560020a62461bcd0281526004018080602001828103825283818151815260200191508051906020019080838360008381101561027c578181015183820152602001610264565b5086600160a060020a03168686866040518083838082843782019150509250505060006040518083038185875af192505050925082156124e55786600160a060020a031633600160a060020a03167fc25cfed0b22da6a56f0e5ff784979a0b8623eddf2aee4acd33c2adefb09cbab6888888604051808481526020018060200182810382528484828181526020019250808284376040519201829003965090945050505050a35b6040513d6000823e8380156124f8573d82f35b3d82fd5b604080517f5452414e534645525f524f4c45000000000000000000000000000000000000008152905190819003600d01902061253984848461306f565b6125443383836119fc565b60408051808201909152600f8152600080516020613dc283398151915260208201529015156125b85760405160e560020a62461bcd0281526004018080602001828103825283818151815260200191508051906020019080838360008381101561027c578181015183820152602001610264565b5060408051808201909152601981527f5641554c545f5452414e534645525f56414c55455f5a45524f000000000000006020820152600084116126405760405160e560020a62461bcd0281526004018080602001828103825283818151815260200191508051906020019080838360008381101561027c578181015183820152602001610264565b50600160a060020a038516151561270457604051600160a060020a0385169084156108fc029085906000818181858888f193505050506040805190810160405280601381526020017f5641554c545f53454e445f5245564552544544000000000000000000000000008152509015156126fe5760405160e560020a62461bcd0281526004018080602001828103825283818151815260200191508051906020019080838360008381101561027c578181015183820152602001610264565b506127a6565b61271e600160a060020a038616858563ffffffff612fa316565b60408051808201909152601d81527f5641554c545f544f4b454e5f5452414e534645525f524556455254454400000060208201529015156127a45760405160e560020a62461bcd0281526004018080602001828103825283818151815260200191508051906020019080838360008381101561027c578181015183820152602001610264565b505b83600160a060020a031685600160a060020a03167f239e7f6cdac8fb35a788a46b431b54da87de90b82448a2c294be5e92a6e579af856040518082815260200191505060405180910390a35050505050565b6000610e47837fb421f7ad7646747f3051c50c0b8e2377839296cd4973e27f63821d73e390338f61283061282b8661308e565b613158565b6119fc565b60006111557f4172f0f7d2289153072b0a6ca36959e0cbe2efc3afe50fc81636caa96338137b612b92565b60608061286d33846127f8565b60408051808201909152601581527f4147454e545f43414e5f4e4f545f464f5257415244000000000000000000000060208201529015156128f35760405160e560020a62461bcd0281526004018080602001828103825283818151815260200191508051906020019080838360008381101561027c578181015183820152602001610264565b5050604080516020808201835260008083528351908152908101909252915061291d838383613199565b50505050565b6000600019612930611734565b14905090565b6000600160a060020a038216151561295057503031610d20565b612969600160a060020a0383163063ffffffff612ea316565b9050610d20565b600190565b4390565b60408051600160a060020a038581166024830152841660448201526064808201849052825180830390910181526084909101909152602081018051600160e060020a03167f23b872dd000000000000000000000000000000000000000000000000000000001790526000906129ee868261378c565b9695505050505050565b600081612a06576000610d1d565b5060e060020a6320c13b0b02919050565b6000806000835160001415612a2f5760009250612b89565b836000815181101515612a3e57fe5b016020015160f860020a908190048102049150600460ff831610612a655760009250612b89565b8160ff166004811115612a7457fe5b90506001816004811115612a8457fe5b1415612a9c57612a958686866137da565b9250612b89565b6002816004811115612aaa57fe5b1415612b5d57604080517f19457468657265756d205369676e6564204d6573736167653a0a333200000000602080830191909152603c8083018a905283518084039091018152605c909201928390528151612a9593918291908401908083835b60208310612b295780518252601f199092019160209182019101612b0a565b6001836020036101000a038019825116818451168082178552505050505050905001915050604051809103902086866137da565b6003816004811115612b6b57fe5b1415612b8457612a958587612b7f87613888565b61397d565b600092505b50509392505050565b5490565b6060610d1d82613158565b6060610d1d82600160a060020a0316613158565b6000805b600254811015612c085782600160a060020a0316600282815481101515612bdc57fe5b600091825260209091200154600160a060020a03161415612c005760019150612c0d565b600101612bb9565b600091505b50919050565b600280546000198101908110612c2557fe5b600091825260209091200154600160a060020a03166002612c4583613a86565b81548110612c4f57fe5b6000918252602090912001805473ffffffffffffffffffffffffffffffffffffffff1916600160a060020a03929092169190911790556002805490612c98906000198301613d88565b50604051600160a060020a038216907f3da25279c93c5b22b359bebff8b5ddbfd9b0506be8344b93c9a7dc999459fe0490600090a250565b6000612cdb82612e7d565b1515612ce957506000610d20565b612cf282612936565b50600192915050565b6002805460018101825560009182527f405787fa12a823e0f2b7631cc41b3ba8828b3321ca811111fa75cd3aa3bb5ace01805473ffffffffffffffffffffffffffffffffffffffff1916600160a060020a03841690811790915560405190917ff70a5123a7f334e5dac1d9aa3a6aafbc316712bf2519ffe0d3aa4f7cba52767e91a250565b612d88611734565b60408051808201909152601881527f494e49545f414c52454144595f494e495449414c495a4544000000000000000060208201529015612e0d5760405160e560020a62461bcd0281526004018080602001828103825283818151815260200191508051906020019080838360008381101561027c578181015183820152602001610264565b5061170a612e19612975565b7febb05b386a8d34882b8711d156f463690983dc47815980fb82aeeff1aa43579e9063ffffffff613b5516565b612e767f665fd576fbbe6f247aff98f5c94a561e3f71ec2d3c988d56f12d342396c50cea8263ffffffff613b5516565b50565b5490565b600080600160a060020a0383161515612e995760009150612c0d565b50506000903b1190565b60408051600160a060020a038316602480830191909152825180830390910181526044909101909152602081018051600160e060020a03167f70a08231000000000000000000000000000000000000000000000000000000001790526000908180612f0e8684613b59565b60408051808201909152601c81527f534146455f4552435f32305f42414c414e43455f52455645525445440000000060208201529193509150821515612f995760405160e560020a62461bcd0281526004018080602001828103825283818151815260200191508051906020019080838360008381101561027c578181015183820152602001610264565b5095945050505050565b60408051600160a060020a03841660248201526044808201849052825180830390910181526064909101909152602081018051600160e060020a03167fa9059cbb00000000000000000000000000000000000000000000000000000000179052600090613010858261378c565b95945050505050565b8051602002815290565b600060048251101561303457610d20565b506020015190565b6060610e4783600160a060020a031683613b8a565b606061306784600160a060020a03168484613be5565b949350505050565b606061306784600160a060020a031684600160a060020a031684613be5565b6000816040516020018082805190602001908083835b602083106130c35780518252601f1990920191602091820191016130a4565b6001836020036101000a0380198251168184511680821785525050505050509050019150506040516020818303038152906040526040518082805190602001908083835b602083106131265780518252601f199092019160209182019101613107565b5181516020939093036101000a6000190180199091169216919091179052604051920182900390912095945050505050565b604080516001808252818301909252606091602080830190803883390190505090508181600081518110151561318a57fe5b60209081029091010152919050565b60606000806060806131a96109e6565b6040805180820190915260148152600080516020613de2833981519152602082015290151561321d5760405160e560020a62461bcd0281526004018080602001828103825283818151815260200191508051906020019080838360008381101561027c578181015183820152602001610264565b50600080613229612835565b915061323361163f565b905061323e8a610ed5565b60408051808201909152601b81527f45564d52554e5f4558454355544f525f554e415641494c41424c4500000000006020820152909650600160a060020a03871615156132d05760405160e560020a62461bcd0281526004018080602001828103825283818151815260200191508051906020019080838360008381101561027c578181015183820152602001610264565b506040516060602482019081528b5160848301528b517f279cea3500000000000000000000000000000000000000000000000000000000975087928d928d928d9282916044820191606481019160a490910190602089019080838360005b8381101561334657818101518382015260200161332e565b50505050905090810190601f1680156133735780820380516001836020036101000a031916815260200191505b50848103835286518152865160209182019188019080838360005b838110156133a657818101518382015260200161338e565b50505050905090810190601f1680156133d35780820380516001836020036101000a031916815260200191505b508481038252855181528551602091820191808801910280838360005b838110156134085781810151838201526020016133f0565b50505050905001965050505050505060405160208183030381529060405290600160e060020a031916602082018051600160e060020a0383818316178352505050509350600080855160208701895af460405193508080156134cc57603f3d1180156134815760203d03806020883e86016040526134c6565b60e560020a62461bcd02865260206004870152601e60248701527f45564d52554e5f4558454355544f525f494e56414c49445f52455455524e00006044870152606486fd5b506134d5565b3d6000863e3d85fd5b505085600160a060020a03167f5229a5dba83a54ae8cb5b51bdd6de9474cacbe9dd332f5185f3a4f4f2e3f4ad98b8b8660405180806020018060200180602001848103845287818151815260200191508051906020019080838360005b8381101561354a578181015183820152602001613532565b50505050905090810190601f1680156135775780820380516001836020036101000a031916815260200191505b50848103835286518152865160209182019188019080838360005b838110156135aa578181015183820152602001613592565b50505050905090810190601f1680156135d75780820380516001836020036101000a031916815260200191505b50848103825285518152855160209182019187019080838360005b8381101561360a5781810151838201526020016135f2565b50505050905090810190601f1680156136375780820380516001836020036101000a031916815260200191505b50965050505050505060405180910390a282965081600160a060020a031661365d612835565b600160a060020a0316146040805190810160405280601f81526020017f45564d52554e5f50524f5445435445445f53544154455f4d4f444946494544008152509015156136ef5760405160e560020a62461bcd0281526004018080602001828103825283818151815260200191508051906020019080838360008381101561027c578181015183820152602001610264565b50806136f961163f565b60408051808201909152601f81527f45564d52554e5f50524f5445435445445f53544154455f4d4f444946494544006020820152911461377e5760405160e560020a62461bcd0281526004018080602001828103825283818151815260200191508051906020019080838360008381101561027c578181015183820152602001610264565b505050505050509392505050565b6000806040516020818551602087016000895af160008111156137d0573d80156137bd57602081146137c6576137ce565b600193506137ce565b600183511493505b505b5090949350505050565b60008060008060006137eb86613c5e565b93509350935093508315613802576000945061387d565b60408051600080825260208083018085528c905260ff8516838501526060830187905260808301869052925160019360a0808501949193601f19840193928390039091019190865af115801561385c573d6000803e3d6000fd5b50505060206040510351600160a060020a031687600160a060020a03161494505b505050509392505050565b805160408051808201909152601e81527f53494756414c5f494e56414c49445f4c454e4754485f504f505f42595445000060208201526060919060009081908184116139195760405160e560020a62461bcd0281526004018080602001828103825283818151815260200191508051906020019080838360008381101561027c578181015183820152602001610264565b50600183036040519080825280601f01601f19166020018201604052801561394b578160200160208202803883390190505b50935083516000141561395d57613975565b60218501915060208401905061397581838651613cea565b505050919050565b60408051602481018481526044820192835283516064830152835160009360609385937f1626ba7e000000000000000000000000000000000000000000000000000000009389938993909160849091019060208501908083838b5b838110156139f05781810151838201526020016139d8565b50505050905090810190601f168015613a1d5780820380516001836020036101000a031916815260200191505b50935050505060405160208183030381529060405290600160e060020a031916602082018051600160e060020a0383818316178352505050509150613a6686836203d090613d2e565b600160e060020a03191660e060020a6320c13b0b02149695505050505050565b6000805b600254811015613ad85782600160a060020a0316600282815481101515613aad57fe5b600091825260209091200154600160a060020a03161415613ad057809150612c0d565b600101613a8a565b604080518082018252601981527f4147454e545f544f4b454e5f4e4f545f50524f544543544544000000000000006020808301918252925160e560020a62461bcd0281526004810193845282516024820152825192939283926044909201919080838360008381101561027c578181015183820152602001610264565b9055565b6000806000806040516020818751602089018a5afa92506000831115613b7e57805191505b50909590945092505050565b604080516002808252606080830184529260208301908038833901905050905082816000815181101515613bba57fe5b602090810290910101528051829082906001908110613bd557fe5b6020908102909101015292915050565b6040805160038082526080820190925260609160208201838038833901905050905083816000815181101515613c1757fe5b602090810290910101528051839082906001908110613c3257fe5b602090810290910101528051829082906002908110613c4d57fe5b602090810290910101529392505050565b60008060008084516042141515613c785760019350613ce3565b846041815181101515613c8757fe5b90602001015160f860020a900460f860020a0260f860020a900490506021850151925060418501519150601b8160ff161015613cc157601b015b8060ff16601b14158015613cd957508060ff16601c14155b15613ce357600193505b9193509193565b60005b60208210613d0f578251845260209384019390920191601f1990910190613ced565b50905182516020929092036101000a6000190180199091169116179052565b60008060008060005a9350858411613d465783613d48565b855b9250600080885160208a018b87fa9150811515613d645761387d565b503d60208114613d735761387d565b604051816000823e5198975050505050505050565b8154818355818111156113b3576000838152602090206113b3918101908301610ed291905b80821115610a0c5760008155600101613dad56004150505f415554485f4641494c45440000000000000000000000000000000000494e49545f4e4f545f494e495449414c495a4544000000000000000000000000a165627a7a723058209f4391eb16aae6f737fd53d0dba7a3f3ba45f87e9222054d2ab94a8a5d2241690029ebb05b386a8d34882b8711d156f463690983dc47815980fb82aeeff1aa43579e",
  "source": "/*\n * SPDX-License-Identitifer:    GPL-3.0-or-later\n */\n\npragma solidity 0.4.24;\n\nimport \"./SignatureValidator.sol\";\nimport \"./standards/IERC165.sol\";\nimport \"./standards/ERC1271.sol\";\n\nimport \"@aragon/apps-vault/contracts/Vault.sol\";\n\nimport \"@aragon/os/contracts/common/IForwarder.sol\";\n\n\ncontract Agent is IERC165, ERC1271Bytes, IForwarder, IsContract, Vault {\n    /* Hardcoded constants to save gas\n    bytes32 public constant EXECUTE_ROLE = keccak256(\"EXECUTE_ROLE\");\n    bytes32 public constant SAFE_EXECUTE_ROLE = keccak256(\"SAFE_EXECUTE_ROLE\");\n    bytes32 public constant ADD_PROTECTED_TOKEN_ROLE = keccak256(\"ADD_PROTECTED_TOKEN_ROLE\");\n    bytes32 public constant REMOVE_PROTECTED_TOKEN_ROLE = keccak256(\"REMOVE_PROTECTED_TOKEN_ROLE\");\n    bytes32 public constant ADD_PRESIGNED_HASH_ROLE = keccak256(\"ADD_PRESIGNED_HASH_ROLE\");\n    bytes32 public constant DESIGNATE_SIGNER_ROLE = keccak256(\"DESIGNATE_SIGNER_ROLE\");\n    bytes32 public constant RUN_SCRIPT_ROLE = keccak256(\"RUN_SCRIPT_ROLE\");\n    */\n\n    bytes32 public constant EXECUTE_ROLE = 0xcebf517aa4440d1d125e0355aae64401211d0848a23c02cc5d29a14822580ba4;\n    bytes32 public constant SAFE_EXECUTE_ROLE = 0x0a1ad7b87f5846153c6d5a1f761d71c7d0cfd122384f56066cd33239b7933694;\n    bytes32 public constant ADD_PROTECTED_TOKEN_ROLE = 0x6eb2a499556bfa2872f5aa15812b956cc4a71b4d64eb3553f7073c7e41415aaa;\n    bytes32 public constant REMOVE_PROTECTED_TOKEN_ROLE = 0x71eee93d500f6f065e38b27d242a756466a00a52a1dbcd6b4260f01a8640402a;\n    bytes32 public constant ADD_PRESIGNED_HASH_ROLE = 0x0b29780bb523a130b3b01f231ef49ed2fa2781645591a0b0a44ca98f15a5994c;\n    bytes32 public constant DESIGNATE_SIGNER_ROLE = 0x23ce341656c3f14df6692eebd4757791e33662b7dcf9970c8308303da5472b7c;\n    bytes32 public constant RUN_SCRIPT_ROLE = 0xb421f7ad7646747f3051c50c0b8e2377839296cd4973e27f63821d73e390338f;\n\n    uint256 public constant PROTECTED_TOKENS_CAP = 10;\n\n    bytes4 private constant ERC165_INTERFACE_ID = 0x01ffc9a7;\n\n    string private constant ERROR_TARGET_PROTECTED = \"AGENT_TARGET_PROTECTED\";\n    string private constant ERROR_PROTECTED_TOKENS_MODIFIED = \"AGENT_PROTECTED_TOKENS_MODIFIED\";\n    string private constant ERROR_PROTECTED_BALANCE_LOWERED = \"AGENT_PROTECTED_BALANCE_LOWERED\";\n    string private constant ERROR_TOKENS_CAP_REACHED = \"AGENT_TOKENS_CAP_REACHED\";\n    string private constant ERROR_TOKEN_NOT_ERC20 = \"AGENT_TOKEN_NOT_ERC20\";\n    string private constant ERROR_TOKEN_ALREADY_PROTECTED = \"AGENT_TOKEN_ALREADY_PROTECTED\";\n    string private constant ERROR_TOKEN_NOT_PROTECTED = \"AGENT_TOKEN_NOT_PROTECTED\";\n    string private constant ERROR_DESIGNATED_TO_SELF = \"AGENT_DESIGNATED_TO_SELF\";\n    string private constant ERROR_CAN_NOT_FORWARD = \"AGENT_CAN_NOT_FORWARD\";\n\n    mapping (bytes32 => bool) public isPresigned;\n    address public designatedSigner;\n    address[] public protectedTokens;\n\n    event SafeExecute(address indexed sender, address indexed target, bytes data);\n    event Execute(address indexed sender, address indexed target, uint256 ethValue, bytes data);\n    event AddProtectedToken(address indexed token);\n    event RemoveProtectedToken(address indexed token);\n    event PresignHash(address indexed sender, bytes32 indexed hash);\n    event SetDesignatedSigner(address indexed sender, address indexed oldSigner, address indexed newSigner);\n\n    /**\n    * @notice Execute '`@radspec(_target, _data)`' on `_target``_ethValue == 0 ? '' : ' (Sending' + @tokenAmount(0x0000000000000000000000000000000000000000, _ethValue) + ')'`\n    * @param _target Address where the action is being executed\n    * @param _ethValue Amount of ETH from the contract that is sent with the action\n    * @param _data Calldata for the action\n    * @return Exits call frame forwarding the return data of the executed call (either error or success data)\n    */\n    function execute(address _target, uint256 _ethValue, bytes _data)\n        external // This function MUST always be external as the function performs a low level return, exiting the Agent app execution context\n        authP(EXECUTE_ROLE, arr(_target, _ethValue, uint256(_getSig(_data)))) // bytes4 casted as uint256 sets the bytes as the LSBs\n    {\n        bool result = _target.call.value(_ethValue)(_data);\n\n        if (result) {\n            emit Execute(msg.sender, _target, _ethValue, _data);\n        }\n\n        assembly {\n            let ptr := mload(0x40)\n            returndatacopy(ptr, 0, returndatasize)\n\n            // revert instead of invalid() bc if the underlying call failed with invalid() it already wasted gas.\n            // if the call returned error data, forward it\n            switch result case 0 { revert(ptr, returndatasize) }\n            default { return(ptr, returndatasize) }\n        }\n    }\n\n    /**\n    * @notice Execute '`@radspec(_target, _data)`' on `_target` ensuring that protected tokens can't be spent\n    * @param _target Address where the action is being executed\n    * @param _data Calldata for the action\n    * @return Exits call frame forwarding the return data of the executed call (either error or success data)\n    */\n    function safeExecute(address _target, bytes _data)\n        external // This function MUST always be external as the function performs a low level return, exiting the Agent app execution context\n        authP(SAFE_EXECUTE_ROLE, arr(_target, uint256(_getSig(_data)))) // bytes4 casted as uint256 sets the bytes as the LSBs\n    {\n        uint256 protectedTokensLength = protectedTokens.length;\n        address[] memory protectedTokens_ = new address[](protectedTokensLength);\n        uint256[] memory balances = new uint256[](protectedTokensLength);\n\n        for (uint256 i = 0; i < protectedTokensLength; i++) {\n            address token = protectedTokens[i];\n            require(_target != token, ERROR_TARGET_PROTECTED);\n            // we copy the protected tokens array to check whether the storage array has been modified during the underlying call\n            protectedTokens_[i] = token;\n            // we copy the balances to check whether they have been modified during the underlying call\n            balances[i] = balance(token);\n        }\n\n        bool result = _target.call(_data);\n\n        bytes32 ptr;\n        uint256 size;\n        assembly {\n            size := returndatasize\n            ptr := mload(0x40)\n            mstore(0x40, add(ptr, returndatasize))\n            returndatacopy(ptr, 0, returndatasize)\n        }\n\n        if (result) {\n            // if the underlying call has succeeded, we check that the protected tokens\n            // and their balances have not been modified and return the call's return data\n            require(protectedTokens.length == protectedTokensLength, ERROR_PROTECTED_TOKENS_MODIFIED);\n            for (uint256 j = 0; j < protectedTokensLength; j++) {\n                require(protectedTokens[j] == protectedTokens_[j], ERROR_PROTECTED_TOKENS_MODIFIED);\n                require(balance(protectedTokens[j]) >= balances[j], ERROR_PROTECTED_BALANCE_LOWERED);\n            }\n\n            emit SafeExecute(msg.sender, _target, _data);\n\n            assembly {\n                return(ptr, size)\n            }\n        } else {\n            // if the underlying call has failed, we revert and forward returned error data\n            assembly {\n                revert(ptr, size)\n            }\n        }\n    }\n\n    /**\n    * @notice Add `_token.symbol(): string` to the list of protected tokens\n    * @param _token Address of the token to be protected\n    */\n    function addProtectedToken(address _token) external authP(ADD_PROTECTED_TOKEN_ROLE, arr(_token)) {\n        require(protectedTokens.length < PROTECTED_TOKENS_CAP, ERROR_TOKENS_CAP_REACHED);\n        require(_isERC20(_token), ERROR_TOKEN_NOT_ERC20);\n        require(!_tokenIsProtected(_token), ERROR_TOKEN_ALREADY_PROTECTED);\n\n        _addProtectedToken(_token);\n    }\n\n    /**\n    * @notice Remove `_token.symbol(): string` from the list of protected tokens\n    * @param _token Address of the token to be unprotected\n    */\n    function removeProtectedToken(address _token) external authP(REMOVE_PROTECTED_TOKEN_ROLE, arr(_token)) {\n        require(_tokenIsProtected(_token), ERROR_TOKEN_NOT_PROTECTED);\n\n        _removeProtectedToken(_token);\n    }\n\n    /**\n    * @notice Pre-sign hash `_hash`\n    * @param _hash Hash that will be considered signed regardless of the signature checked with 'isValidSignature()'\n    */\n    function presignHash(bytes32 _hash)\n        external\n        authP(ADD_PRESIGNED_HASH_ROLE, arr(_hash))\n    {\n        isPresigned[_hash] = true;\n\n        emit PresignHash(msg.sender, _hash);\n    }\n\n    /**\n    * @notice Set `_designatedSigner` as the designated signer of the app, which will be able to sign messages on behalf of the app\n    * @param _designatedSigner Address that will be able to sign messages on behalf of the app\n    */\n    function setDesignatedSigner(address _designatedSigner)\n        external\n        authP(DESIGNATE_SIGNER_ROLE, arr(_designatedSigner))\n    {\n        // Prevent an infinite loop by setting the app itself as its designated signer.\n        // An undetectable loop can be created by setting a different contract as the\n        // designated signer which calls back into `isValidSignature`.\n        // Given that `isValidSignature` is always called with just 50k gas, the max\n        // damage of the loop is wasting 50k gas.\n        require(_designatedSigner != address(this), ERROR_DESIGNATED_TO_SELF);\n\n        address oldDesignatedSigner = designatedSigner;\n        designatedSigner = _designatedSigner;\n\n        emit SetDesignatedSigner(msg.sender, oldDesignatedSigner, _designatedSigner);\n    }\n\n    // Forwarding fns\n\n    /**\n    * @notice Tells whether the Agent app is a forwarder or not\n    * @dev IForwarder interface conformance\n    * @return Always true\n    */\n    function isForwarder() external pure returns (bool) {\n        return true;\n    }\n\n    /**\n    * @notice Execute the script as the Agent app\n    * @dev IForwarder interface conformance. Forwards any token holder action.\n    * @param _evmScript Script being executed\n    */\n    function forward(bytes _evmScript) public {\n        require(canForward(msg.sender, _evmScript), ERROR_CAN_NOT_FORWARD);\n\n        bytes memory input = \"\"; // no input\n        address[] memory blacklist = new address[](0); // no addr blacklist, can interact with anything\n        runScript(_evmScript, input, blacklist);\n        // We don't need to emit an event here as EVMScriptRunner will emit ScriptResult if successful\n    }\n\n    /**\n    * @notice Tells whether `_sender` can forward actions or not\n    * @dev IForwarder interface conformance\n    * @param _sender Address of the account intending to forward an action\n    * @return True if the given address can run scripts, false otherwise\n    */\n    function canForward(address _sender, bytes _evmScript) public view returns (bool) {\n        // Note that `canPerform()` implicitly does an initialization check itself\n        return canPerform(_sender, RUN_SCRIPT_ROLE, arr(_getScriptACLParam(_evmScript)));\n    }\n\n    // ERC-165 conformance\n\n    /**\n     * @notice Tells whether this contract supports a given ERC-165 interface\n     * @param _interfaceId Interface bytes to check\n     * @return True if this contract supports the interface\n     */\n    function supportsInterface(bytes4 _interfaceId) external pure returns (bool) {\n        return\n            _interfaceId == ERC1271_INTERFACE_ID ||\n            _interfaceId == ERC165_INTERFACE_ID;\n    }\n\n    // ERC-1271 conformance\n\n    /**\n     * @notice Tells whether a signature is seen as valid by this contract through ERC-1271\n     * @param _hash Arbitrary length data signed on the behalf of address (this)\n     * @param _signature Signature byte array associated with _data\n     * @return The ERC-1271 magic value if the signature is valid\n     */\n    function isValidSignature(bytes32 _hash, bytes _signature) public view returns (bytes4) {\n        // Short-circuit in case the hash was presigned. Optimization as performing calls\n        // and ecrecover is more expensive than an SLOAD.\n        if (isPresigned[_hash]) {\n            return returnIsValidSignatureMagicNumber(true);\n        }\n\n        bool isValid;\n        if (designatedSigner == address(0)) {\n            isValid = false;\n        } else {\n            isValid = SignatureValidator.isValidSignature(_hash, designatedSigner, _signature);\n        }\n\n        return returnIsValidSignatureMagicNumber(isValid);\n    }\n\n    // Getters\n\n    function getProtectedTokensLength() public view isInitialized returns (uint256) {\n        return protectedTokens.length;\n    }\n\n    // Internal fns\n\n    function _addProtectedToken(address _token) internal {\n        protectedTokens.push(_token);\n\n        emit AddProtectedToken(_token);\n    }\n\n    function _removeProtectedToken(address _token) internal {\n        protectedTokens[_protectedTokenIndex(_token)] = protectedTokens[protectedTokens.length - 1];\n        protectedTokens.length--;\n\n        emit RemoveProtectedToken(_token);\n    }\n\n    function _isERC20(address _token) internal view returns (bool) {\n        if (!isContract(_token)) {\n            return false;\n        }\n\n        // Throwaway sanity check to make sure the token's `balanceOf()` does not error (for now)\n        balance(_token);\n\n        return true;\n    }\n\n    function _protectedTokenIndex(address _token) internal view returns (uint256) {\n        for (uint i = 0; i < protectedTokens.length; i++) {\n            if (protectedTokens[i] == _token) {\n              return i;\n            }\n        }\n\n        revert(ERROR_TOKEN_NOT_PROTECTED);\n    }\n\n    function _tokenIsProtected(address _token) internal view returns (bool) {\n        for (uint256 i = 0; i < protectedTokens.length; i++) {\n            if (protectedTokens[i] == _token) {\n                return true;\n            }\n        }\n\n        return false;\n    }\n\n    function _getScriptACLParam(bytes _evmScript) internal pure returns (uint256) {\n        return uint256(keccak256(abi.encodePacked(_evmScript)));\n    }\n\n    function _getSig(bytes _data) internal pure returns (bytes4 sig) {\n        if (_data.length < 4) {\n            return;\n        }\n\n        assembly { sig := mload(add(_data, 0x20)) }\n    }\n}\n",
  "sourcePath": "@aragon/apps-agent/contracts/Agent.sol",
  "compiler": {
    "name": "solc",
    "version": "0.4.24+commit.e67f0147.Emscripten.clang"
  },
  "schemaVersion": "2.0.1",
  "updatedAt": "2020-03-21T01:36:19.216Z"
}