{
  "contractName": "APMRegistry",
  "abi": [
    {
      "constant": true,
      "inputs": [],
      "name": "hasInitialized",
      "outputs": [
        {
          "name": "",
          "type": "bool"
        }
      ],
      "payable": false,
      "stateMutability": "view",
      "type": "function"
    },
    {
      "constant": true,
      "inputs": [
        {
          "name": "_script",
          "type": "bytes"
        }
      ],
      "name": "getEVMScriptExecutor",
      "outputs": [
        {
          "name": "",
          "type": "address"
        }
      ],
      "payable": false,
      "stateMutability": "view",
      "type": "function"
    },
    {
      "constant": true,
      "inputs": [],
      "name": "registrar",
      "outputs": [
        {
          "name": "",
          "type": "address"
        }
      ],
      "payable": false,
      "stateMutability": "view",
      "type": "function"
    },
    {
      "constant": true,
      "inputs": [],
      "name": "getRecoveryVault",
      "outputs": [
        {
          "name": "",
          "type": "address"
        }
      ],
      "payable": false,
      "stateMutability": "view",
      "type": "function"
    },
    {
      "constant": true,
      "inputs": [],
      "name": "ens",
      "outputs": [
        {
          "name": "",
          "type": "address"
        }
      ],
      "payable": false,
      "stateMutability": "view",
      "type": "function"
    },
    {
      "constant": true,
      "inputs": [],
      "name": "CREATE_REPO_ROLE",
      "outputs": [
        {
          "name": "",
          "type": "bytes32"
        }
      ],
      "payable": false,
      "stateMutability": "view",
      "type": "function"
    },
    {
      "constant": true,
      "inputs": [
        {
          "name": "token",
          "type": "address"
        }
      ],
      "name": "allowRecoverability",
      "outputs": [
        {
          "name": "",
          "type": "bool"
        }
      ],
      "payable": false,
      "stateMutability": "view",
      "type": "function"
    },
    {
      "constant": true,
      "inputs": [],
      "name": "appId",
      "outputs": [
        {
          "name": "",
          "type": "bytes32"
        }
      ],
      "payable": false,
      "stateMutability": "view",
      "type": "function"
    },
    {
      "constant": true,
      "inputs": [],
      "name": "getInitializationBlock",
      "outputs": [
        {
          "name": "",
          "type": "uint256"
        }
      ],
      "payable": false,
      "stateMutability": "view",
      "type": "function"
    },
    {
      "constant": false,
      "inputs": [
        {
          "name": "_token",
          "type": "address"
        }
      ],
      "name": "transferToVault",
      "outputs": [],
      "payable": false,
      "stateMutability": "nonpayable",
      "type": "function"
    },
    {
      "constant": true,
      "inputs": [
        {
          "name": "_sender",
          "type": "address"
        },
        {
          "name": "_role",
          "type": "bytes32"
        },
        {
          "name": "_params",
          "type": "uint256[]"
        }
      ],
      "name": "canPerform",
      "outputs": [
        {
          "name": "",
          "type": "bool"
        }
      ],
      "payable": false,
      "stateMutability": "view",
      "type": "function"
    },
    {
      "constant": true,
      "inputs": [],
      "name": "getEVMScriptRegistry",
      "outputs": [
        {
          "name": "",
          "type": "address"
        }
      ],
      "payable": false,
      "stateMutability": "view",
      "type": "function"
    },
    {
      "constant": false,
      "inputs": [
        {
          "name": "_kernel",
          "type": "address"
        },
        {
          "name": "_appId",
          "type": "bytes32"
        },
        {
          "name": "_initializePayload",
          "type": "bytes"
        }
      ],
      "name": "newAppProxyPinned",
      "outputs": [
        {
          "name": "",
          "type": "address"
        }
      ],
      "payable": false,
      "stateMutability": "nonpayable",
      "type": "function"
    },
    {
      "constant": true,
      "inputs": [],
      "name": "kernel",
      "outputs": [
        {
          "name": "",
          "type": "address"
        }
      ],
      "payable": false,
      "stateMutability": "view",
      "type": "function"
    },
    {
      "constant": true,
      "inputs": [],
      "name": "isPetrified",
      "outputs": [
        {
          "name": "",
          "type": "bool"
        }
      ],
      "payable": false,
      "stateMutability": "view",
      "type": "function"
    },
    {
      "constant": false,
      "inputs": [
        {
          "name": "_kernel",
          "type": "address"
        },
        {
          "name": "_appId",
          "type": "bytes32"
        }
      ],
      "name": "newAppProxy",
      "outputs": [
        {
          "name": "",
          "type": "address"
        }
      ],
      "payable": false,
      "stateMutability": "nonpayable",
      "type": "function"
    },
    {
      "constant": false,
      "inputs": [
        {
          "name": "_kernel",
          "type": "address"
        },
        {
          "name": "_appId",
          "type": "bytes32"
        },
        {
          "name": "_initializePayload",
          "type": "bytes"
        }
      ],
      "name": "newAppProxy",
      "outputs": [
        {
          "name": "",
          "type": "address"
        }
      ],
      "payable": false,
      "stateMutability": "nonpayable",
      "type": "function"
    },
    {
      "constant": false,
      "inputs": [
        {
          "name": "_kernel",
          "type": "address"
        },
        {
          "name": "_appId",
          "type": "bytes32"
        }
      ],
      "name": "newAppProxyPinned",
      "outputs": [
        {
          "name": "",
          "type": "address"
        }
      ],
      "payable": false,
      "stateMutability": "nonpayable",
      "type": "function"
    },
    {
      "anonymous": false,
      "inputs": [
        {
          "indexed": false,
          "name": "id",
          "type": "bytes32"
        },
        {
          "indexed": false,
          "name": "name",
          "type": "string"
        },
        {
          "indexed": false,
          "name": "repo",
          "type": "address"
        }
      ],
      "name": "NewRepo",
      "type": "event"
    },
    {
      "anonymous": false,
      "inputs": [
        {
          "indexed": false,
          "name": "proxy",
          "type": "address"
        },
        {
          "indexed": false,
          "name": "isUpgradeable",
          "type": "bool"
        },
        {
          "indexed": false,
          "name": "appId",
          "type": "bytes32"
        }
      ],
      "name": "NewAppProxy",
      "type": "event"
    },
    {
      "anonymous": false,
      "inputs": [
        {
          "indexed": true,
          "name": "executor",
          "type": "address"
        },
        {
          "indexed": false,
          "name": "script",
          "type": "bytes"
        },
        {
          "indexed": false,
          "name": "input",
          "type": "bytes"
        },
        {
          "indexed": false,
          "name": "returnData",
          "type": "bytes"
        }
      ],
      "name": "ScriptResult",
      "type": "event"
    },
    {
      "anonymous": false,
      "inputs": [
        {
          "indexed": true,
          "name": "vault",
          "type": "address"
        },
        {
          "indexed": true,
          "name": "token",
          "type": "address"
        },
        {
          "indexed": false,
          "name": "amount",
          "type": "uint256"
        }
      ],
      "name": "RecoverToVault",
      "type": "event"
    },
    {
      "constant": false,
      "inputs": [
        {
          "name": "_registrar",
          "type": "address"
        }
      ],
      "name": "initialize",
      "outputs": [],
      "payable": false,
      "stateMutability": "nonpayable",
      "type": "function"
    },
    {
      "constant": false,
      "inputs": [
        {
          "name": "_name",
          "type": "string"
        },
        {
          "name": "_dev",
          "type": "address"
        }
      ],
      "name": "newRepo",
      "outputs": [
        {
          "name": "",
          "type": "address"
        }
      ],
      "payable": false,
      "stateMutability": "nonpayable",
      "type": "function"
    },
    {
      "constant": false,
      "inputs": [
        {
          "name": "_name",
          "type": "string"
        },
        {
          "name": "_dev",
          "type": "address"
        },
        {
          "name": "_initialSemanticVersion",
          "type": "uint16[3]"
        },
        {
          "name": "_contractAddress",
          "type": "address"
        },
        {
          "name": "_contentURI",
          "type": "bytes"
        }
      ],
      "name": "newRepoWithVersion",
      "outputs": [
        {
          "name": "",
          "type": "address"
        }
      ],
      "payable": false,
      "stateMutability": "nonpayable",
      "type": "function"
    }
  ],
  "bytecode": "0x6080604052620000176401000000006200001d810204565b6200023b565b6200003064010000000062000125810204565b60408051808201909152601881527f494e49545f414c52454144595f494e495449414c495a45440000000000000000602082015290156200010c576040517f08c379a00000000000000000000000000000000000000000000000000000000081526004018080602001828103825283818151815260200191508051906020019080838360005b83811015620000d0578181015183820152602001620000b6565b50505050905090810190601f168015620000fe5780820380516001836020036101000a031916815260200191505b509250505060405180910390fd5b506200012360001964010000000062000154810204565b565b60006200014f600080516020620035b883398151915264010000000062001f806200023382021704565b905090565b6200016764010000000062000125810204565b60408051808201909152601881527f494e49545f414c52454144595f494e495449414c495a454400000000000000006020820152901562000206576040517f08c379a000000000000000000000000000000000000000000000000000000000815260040180806020018281038252838181518152602001915080519060200190808383600083811015620000d0578181015183820152602001620000b6565b5062000230600080516020620035b883398151915282640100000000620023116200023782021704565b50565b5490565b9055565b61336d806200024b6000396000f300608060405260043610620001195763ffffffff60e060020a6000350416630803fac081146200011e5780632914b9bd146200014a5780632b20e39714620001c257806332ab6af014620001da57806332f0a3b514620002b95780633f15457f14620002d15780635e1f3fa814620002e95780637e7db6e1146200031357806380afdea814620003375780638b3dd749146200034f5780639d4941d81462000367578063a1658fad146200038d578063a479e50814620003f7578063b0927de7146200040f578063c4d66de81462000476578063d162f8b0146200049a578063d4aae0c41462000506578063de4796ed146200051e578063e156a8f31462000536578063ede658b0146200055d578063ff289fc514620005c9575b600080fd5b3480156200012b57600080fd5b5062000136620005f0565b604080519115158252519081900360200190f35b3480156200015757600080fd5b506040805160206004803580820135601f8101849004840285018401909552848452620001a69436949293602493928401919081908401838280828437509497506200061e9650505050505050565b60408051600160a060020a039092168252519081900360200190f35b348015620001cf57600080fd5b50620001a66200070c565b348015620001e757600080fd5b506040805160206004803580820135601f8101849004840285018401909552848452620001a6943694929360249392840191908190840183828082843750506040805160608181019092529598600160a060020a0388351698909790966080820196509450602001925060039150839083908082843750506040805160208781013589018035601f81018390048302840183018552808452979a8935600160a060020a03169a9099909894019650919450908101925081908401838280828437509497506200071b9650505050505050565b348015620002c657600080fd5b50620001a662000c84565b348015620002de57600080fd5b50620001a662000d01565b348015620002f657600080fd5b506200030162000d10565b60408051918252519081900360200190f35b3480156200032057600080fd5b5062000136600160a060020a036004351662000d23565b3480156200034457600080fd5b506200030162000d29565b3480156200035c57600080fd5b506200030162000d5b565b3480156200037457600080fd5b506200038b600160a060020a036004351662000d88565b005b3480156200039a57600080fd5b50604080516020600460443581810135838102808601850190965280855262000136958335600160a060020a03169560248035963696956064959394920192918291850190849080828437509497506200102d9650505050505050565b3480156200040457600080fd5b50620001a66200118d565b3480156200041c57600080fd5b506040805160206004803580820135601f8101849004840285018401909552848452620001a694369492936024939284019190819084018382808284375094975050509235600160a060020a031693506200124592505050565b3480156200048357600080fd5b506200038b600160a060020a036004351662001314565b348015620004a757600080fd5b50604080516020600460443581810135601f8101849004840285018401909552848452620001a6948235600160a060020a0316946024803595369594606494920191908190840183828082843750949750620018b49650505050505050565b3480156200051357600080fd5b50620001a6620019bf565b3480156200052b57600080fd5b5062000136620019ec565b3480156200054357600080fd5b50620001a6600160a060020a036004351660243562001a01565b3480156200056a57600080fd5b50604080516020600460443581810135601f8101849004840285018401909552848452620001a6948235600160a060020a031694602480359536959460649492019190819084018382808284375094975062001a279650505050505050565b348015620005d657600080fd5b50620001a6600160a060020a036004351660243562001b32565b600080620005fd62000d5b565b90508015801590620006185750806200061562001b51565b10155b91505090565b60006200062a6200118d565b600160a060020a03166304bf2a7f836040518263ffffffff1660e060020a0281526004018080602001828103825283818151815260200191508051906020019080838360005b838110156200068a57818101518382015260200162000670565b50505050905090810190601f168015620006b85780820380516001836020036101000a031916815260200191505b5092505050602060405180830381600087803b158015620006d857600080fd5b505af1158015620006ed573d6000803e3d6000fd5b505050506040513d60208110156200070457600080fd5b505192915050565b600154600160a060020a031681565b60408051600080825260208201909252819081906000805160206200332283398151915290620007529033908390855b506200102d565b60408051808201909152600f81527f4150505f415554485f4641494c454400000000000000000000000000000000006020820152901515620008185760405160e560020a62461bcd0281526004018080602001828103825283818151815260200191508051906020019080838360005b83811015620007dc578181015183820152602001620007c2565b50505050905090810190601f1680156200080a5780820380516001836020036101000a031916815260200191505b509250505060405180910390fd5b5062000825893062001b55565b925082600160a060020a031663730534108888886040518463ffffffff1660e060020a0281526004018084600360200280838360005b83811015620008755781810151838201526020016200085b565b5050505090500183600160a060020a0316600160a060020a0316815260200180602001828103825283818151815260200191508051906020019080838360005b83811015620008cf578181015183820152602001620008b5565b50505050905090810190601f168015620008fd5780820380516001836020036101000a031916815260200191505b50945050505050600060405180830381600087803b1580156200091f57600080fd5b505af115801562000934573d6000803e3d6000fd5b5050505062000942620019bf565b600160a060020a031663de2873596040518163ffffffff1660e060020a028152600401602060405180830381600087803b1580156200098057600080fd5b505af115801562000995573d6000803e3d6000fd5b505050506040513d6020811015620009ac57600080fd5b50516040805160e160020a635530c9250281529051919350600160a060020a0380851692639d0effdb92309288929083169163aa61924a9160048083019260209291908290030181600087803b15801562000a0657600080fd5b505af115801562000a1b573d6000803e3d6000fd5b505050506040513d602081101562000a3257600080fd5b50516040805160e060020a63ffffffff8716028152600160a060020a03948516600482015292909316602483015260448201529051606480830192600092919082900301818387803b15801562000a8857600080fd5b505af115801562000a9d573d6000803e3d6000fd5b5050505081600160a060020a0316630a8ed3db898586600160a060020a031663aa61924a6040518163ffffffff1660e060020a028152600401602060405180830381600087803b15801562000af157600080fd5b505af115801562000b06573d6000803e3d6000fd5b505050506040513d602081101562000b1d57600080fd5b50516040805160e060020a63ffffffff8716028152600160a060020a03948516600482015292909316602483015260448201529051606480830192600092919082900301818387803b15801562000b7357600080fd5b505af115801562000b88573d6000803e3d6000fd5b5050505081600160a060020a031663afd925df898586600160a060020a031663aa61924a6040518163ffffffff1660e060020a028152600401602060405180830381600087803b15801562000bdc57600080fd5b505af115801562000bf1573d6000803e3d6000fd5b505050506040513d602081101562000c0857600080fd5b50516040805160e060020a63ffffffff8716028152600160a060020a03948516600482015292909316602483015260448201529051606480830192600092919082900301818387803b15801562000c5e57600080fd5b505af115801562000c73573d6000803e3d6000fd5b50949b9a5050505050505050505050565b600062000c90620019bf565b600160a060020a03166332f0a3b56040518163ffffffff1660e060020a028152600401602060405180830381600087803b15801562000cce57600080fd5b505af115801562000ce3573d6000803e3d6000fd5b505050506040513d602081101562000cfa57600080fd5b5051905090565b600054600160a060020a031681565b6000805160206200332283398151915281565b50600190565b600062000d567fd625496217aa6a3453eecb9c3489dc5a53e6c67b444329ea2b2cbc9ff547639b62001f80565b905090565b600062000d567febb05b386a8d34882b8711d156f463690983dc47815980fb82aeeff1aa43579e62001f80565b600080600062000d988462000d23565b60408051808201909152601281527f5245434f5645525f444953414c4c4f5745440000000000000000000000000000602082015290151562000e215760405160e560020a62461bcd02815260040180806020018281038252838181518152602001915080519060200190808383600083811015620007dc578181015183820152602001620007c2565b5062000e2c62000c84565b925062000e398362001f88565b60408051808201909152601a81527f5245434f5645525f5641554c545f4e4f545f434f4e5452414354000000000000602082015290151562000ec25760405160e560020a62461bcd02815260040180806020018281038252838181518152602001915080519060200190808383600083811015620007dc578181015183820152602001620007c2565b50600160a060020a038416151562000f165760405130319250600160a060020a0384169083156108fc029084906000818181858888f1935050505015801562000f0f573d6000803e3d6000fd5b5062000fdc565b508262000f33600160a060020a0382163063ffffffff62001fb716565b915062000f51600160a060020a038216848463ffffffff620020bc16565b60408051808201909152601d81527f5245434f5645525f544f4b454e5f5452414e534645525f4641494c4544000000602082015290151562000fda5760405160e560020a62461bcd02815260040180806020018281038252838181518152602001915080519060200190808383600083811015620007dc578181015183820152602001620007c2565b505b83600160a060020a031683600160a060020a03167f596caf56044b55fb8c4ca640089bbc2b63cae3e978b851f5745cbb7c5b288e02846040518082815260200191505060405180910390a350505050565b6000806200103a620005f0565b15156200104b576000915062001185565b62001055620019bf565b9050600160a060020a038116151562001072576000915062001185565b80600160a060020a031663fdef91068630876200108f8862002134565b60405160e060020a63ffffffff8716028152600160a060020a03808616600483019081529085166024830152604482018490526080606483019081528351608484015283519192909160a490910190602085019080838360005b8381101562001103578181015183820152602001620010e9565b50505050905090810190601f168015620011315780820380516001836020036101000a031916815260200191505b5095505050505050602060405180830381600087803b1580156200115457600080fd5b505af115801562001169573d6000803e3d6000fd5b505050506040513d60208110156200118057600080fd5b505191505b509392505050565b6000806200119a620019bf565b604080517fbe00bbd80000000000000000000000000000000000000000000000000000000081527fd6f028ca0e8edb4a8c9757ca4fdccab25fa1e0317da1188108f7d2dee14902fb60048201527fddbcfd564f642ab5627cf68b9b7d374fb4f8a36e941a75d89c87998cef03bd6160248201529051600160a060020a03929092169163be00bbd8916044808201926020929091908290030181600087803b158015620006d857600080fd5b604080516000808252602082019092526000805160206200332283398151915290620012769033908390856200074b565b60408051808201909152600f81527f4150505f415554485f4641494c454400000000000000000000000000000000006020820152901515620012ff5760405160e560020a62461bcd02815260040180806020018281038252838181518152602001915080519060200190808383600083811015620007dc578181015183820152602001620007c2565b506200130c848462001b55565b949350505050565b60006200132062000d5b565b60408051808201909152601881527f494e49545f414c52454144595f494e495449414c495a4544000000000000000060208201529015620013a85760405160e560020a62461bcd02815260040180806020018281038252838181518152602001915080519060200190808383600083811015620007dc578181015183820152602001620007c2565b50620013b36200213e565b6001805473ffffffffffffffffffffffffffffffffffffffff1916600160a060020a038481169190911791829055604080517f3f15457f00000000000000000000000000000000000000000000000000000000815290519290911691633f15457f916004808201926020929091908290030181600087803b1580156200143857600080fd5b505af11580156200144d573d6000803e3d6000fd5b505050506040513d60208110156200146457600080fd5b50516000805473ffffffffffffffffffffffffffffffffffffffff1916600160a060020a03928316178155600154604080517fdb6069310000000000000000000000000000000000000000000000000000000081523060048201529051919093169263db60693192602480830193919282900301818387803b158015620014ea57600080fd5b505af1158015620014ff573d6000803e3d6000fd5b505050506200150d620019bf565b600160a060020a031663de2873596040518163ffffffff1660e060020a028152600401602060405180830381600087803b1580156200154b57600080fd5b505af115801562001560573d6000803e3d6000fd5b505050506040513d60208110156200157757600080fd5b5051600154604080517ffef47e380000000000000000000000000000000000000000000000000000000081529051929350600160a060020a0380851693636d6712d8933093921691829163fef47e38916004808201926020929091908290030181600087803b158015620015ea57600080fd5b505af1158015620015ff573d6000803e3d6000fd5b505050506040513d60208110156200161657600080fd5b50516040805160e060020a63ffffffff8716028152600160a060020a0394851660048201529290931660248301526044820152905160648083019260209291908290030181600087803b1580156200166d57600080fd5b505af115801562001682573d6000803e3d6000fd5b505050506040513d60208110156200169957600080fd5b505160408051808201909152601781527f41504d5245475f494e49545f5045524d495353494f4e530000000000000000006020820152901515620017245760405160e560020a62461bcd02815260040180806020018281038252838181518152602001915080519060200190808383600083811015620007dc578181015183820152602001620007c2565b5080600160a060020a0316636d6712d8308384600160a060020a0316633d6ab68f6040518163ffffffff1660e060020a028152600401602060405180830381600087803b1580156200177557600080fd5b505af11580156200178a573d6000803e3d6000fd5b505050506040513d6020811015620017a157600080fd5b50516040805160e060020a63ffffffff8716028152600160a060020a0394851660048201529290931660248301526044820152905160648083019260209291908290030181600087803b158015620017f857600080fd5b505af11580156200180d573d6000803e3d6000fd5b505050506040513d60208110156200182457600080fd5b505160408051808201909152601781527f41504d5245475f494e49545f5045524d495353494f4e530000000000000000006020820152901515620018af5760405160e560020a62461bcd02815260040180806020018281038252838181518152602001915080519060200190808383600083811015620007dc578181015183820152602001620007c2565b505050565b600080848484620018c46200251d565b600160a060020a038416815260208082018490526060604083018181528451918401919091528351909160808401919085019080838360005b8381101562001917578181015183820152602001620018fd565b50505050905090810190601f168015620019455780820380516001836020036101000a031916815260200191505b50945050505050604051809103906000f08015801562001969573d6000803e3d6000fd5b5060408051600160a060020a03831681526000602082015280820187905290519192507fd880e726dced8808d727f02dd0e6fdd3a945b24bfee77e13367bcbe61ddbaf47919081900360600190a1949350505050565b600062000d567f4172f0f7d2289153072b0a6ca36959e0cbe2efc3afe50fc81636caa96338137b62001f80565b6000600019620019fb62000d5b565b14905090565b6040805160008082526020820190925262001a20908490849062001a27565b9392505050565b60008084848462001a376200252e565b600160a060020a038416815260208082018490526060604083018181528451918401919091528351909160808401919085019080838360005b8381101562001a8a57818101518382015260200162001a70565b50505050905090810190601f16801562001ab85780820380516001836020036101000a031916815260200191505b50945050505050604051809103906000f08015801562001adc573d6000803e3d6000fd5b5060408051600160a060020a03831681526001602082015280820187905290519192507fd880e726dced8808d727f02dd0e6fdd3a945b24bfee77e13367bcbe61ddbaf47919081900360600190a1949350505050565b6040805160008082526020820190925262001a209084908490620018b4565b4390565b6000806000808551116040805190810160405280601181526020017f41504d5245475f454d5054595f4e414d4500000000000000000000000000000081525090151562001be95760405160e560020a62461bcd02815260040180806020018281038252838181518152602001915080519060200190808383600083811015620007dc578181015183820152602001620007c2565b5062001bf46200220f565b915062001c00620019bf565b600160a060020a031663de2873596040518163ffffffff1660e060020a028152600401602060405180830381600087803b15801562001c3e57600080fd5b505af115801562001c53573d6000803e3d6000fd5b505050506040513d602081101562001c6a57600080fd5b50516040805160e160020a635530c9250281529051600160a060020a039283169263be038478928892879283169163aa61924a9160048083019260209291908290030181600087803b15801562001cc057600080fd5b505af115801562001cd5573d6000803e3d6000fd5b505050506040513d602081101562001cec57600080fd5b50516040805160e060020a63ffffffff8716028152600160a060020a0394851660048201529284166024840152604483019190915291881660648201529051608480830192600092919082900301818387803b15801562001d4c57600080fd5b505af115801562001d61573d6000803e3d6000fd5b50506001546040518851600160a060020a0390921693506365b0bc85925088916020918201918291908401908083835b6020831062001db25780518252601f19909201916020918201910162001d91565b6001836020036101000a0380198251168184511680821785525050505050509050019150506040516020818303038152906040526040518082805190602001908083835b6020831062001e175780518252601f19909201916020918201910162001df6565b51815160209384036101000a60001901801990921691161790526040805192909401829003822063ffffffff881660e060020a0283526004830152600160a060020a038a166024830152925160448083019650939450929083900301905081600087803b15801562001e8857600080fd5b505af115801562001e9d573d6000803e3d6000fd5b505050506040513d602081101562001eb457600080fd5b505160408051828152600160a060020a038516918101919091526060602082810182815289519284019290925288519394507f526d4ccf8c3d7b6f0b6d4cc0de526d515c87d1ea3bd264ace0b5c2e70d1b22089385938a9388939192909160808401919086019080838360005b8381101562001f3b57818101518382015260200162001f21565b50505050905090810190601f16801562001f695780820380516001836020036101000a031916815260200191505b5094505050505060405180910390a1509392505050565b5490565b5490565b600080600160a060020a038316151562001fa6576000915062001fb1565b823b90506000811191505b50919050565b60408051600160a060020a038316602480830191909152825180830390910181526044909101909152602081018051600160e060020a03167f70a082310000000000000000000000000000000000000000000000000000000017905260009081806200202486846200228c565b60408051808201909152601c81527f534146455f4552435f32305f42414c414e43455f52455645525445440000000060208201529193509150821515620020b25760405160e560020a62461bcd02815260040180806020018281038252838181518152602001915080519060200190808383600083811015620007dc578181015183820152602001620007c2565b5095945050505050565b60408051600160a060020a03841660248201526044808201849052825180830390910181526064909101909152602081018051600160e060020a03167fa9059cbb000000000000000000000000000000000000000000000000000000001790526000906200212b8582620022be565b95945050505050565b8051602002815290565b6200214862000d5b565b60408051808201909152601881527f494e49545f414c52454144595f494e495449414c495a4544000000000000000060208201529015620021d05760405160e560020a62461bcd02815260040180806020018281038252838181518152602001915080519060200190808383600083811015620007dc578181015183820152602001620007c2565b506200220d620021df62001b51565b7febb05b386a8d34882b8711d156f463690983dc47815980fb82aeeff1aa43579e9063ffffffff6200231116565b565b60006200222f6200221f620019bf565b6200222962002315565b62001a01565b905080600160a060020a0316638129fc1c6040518163ffffffff1660e060020a028152600401600060405180830381600087803b1580156200227057600080fd5b505af115801562002285573d6000803e3d6000fd5b5050505090565b6000806000806040516020818751602089018a5afa92506000831115620022b257805191505b50909590945092505050565b6000806040516020818551602087016000895af1600081111562002307573d8015620022f35760208114620022fd5762002305565b6001935062002305565b600183511493505b505b5090949350505050565b9055565b600154604080517ffaff50a80000000000000000000000000000000000000000000000000000000081529051600092600160a060020a03169163faff50a891600480830192602092919082900301818787803b1580156200237557600080fd5b505af11580156200238a573d6000803e3d6000fd5b505050506040513d6020811015620023a157600080fd5b505160408051808201825260088082527f61706d2d7265706f000000000000000000000000000000000000000000000000602083810191825293519293929092019182918083835b602083106200240a5780518252601f199092019160209182019101620023e9565b6001836020036101000a0380198251168184511680821785525050505050509050019150506040516020818303038152906040526040518082805190602001908083835b602083106200246f5780518252601f1990920191602091820191016200244e565b51815160209384036101000a6000190180199092169116179052604080519290940182900382208282019790975281840196909652825180820384018152606090910192839052805190959294508493509185019190508083835b60208310620024eb5780518252601f199092019160209182019101620024ca565b6001836020036101000a0380198251168184511680821785525050505050509050019150506040518091039020905090565b6040516106f9806200254083390190565b6040516106e98062002c39833901905600608060405234801561001057600080fd5b506040516106f93803806106f98339810160409081528151602083015191830151909201828282600061004b8464010000000061017a810204565b61005d836401000000006101a2810204565b61006f836401000000006101d9810204565b90506000825111156101185761008d816401000000006102a9810204565b151561009857600080fd5b80600160a060020a03168260405180828051906020019080838360005b838110156100cd5781810151838201526020016100b5565b50505050905090810190601f1680156100fa5780820380516001836020036101000a031916815260200191505b50915050600060405180830381855af4915050151561011857600080fd5b50505050610145610137836101d9640100000000026401000000009004565b6401000000006102d6810204565b6101676101596401000000006102fb810204565b6401000000006102a9810204565b151561017257600080fd5b505050610354565b61019f6000805160206106b98339815191528264010000000061032261032682021704565b50565b61019f7fd625496217aa6a3453eecb9c3489dc5a53e6c67b444329ea2b2cbc9ff547639b8264010000000061032261032682021704565b60006101ec64010000000061032a810204565b604080517fbe00bbd80000000000000000000000000000000000000000000000000000000081527ff1f3eb40f5bc1ad1344716ced8b8a0431d840b5783aea1fd01786bc26f35ac0f6004820152602481018590529051600160a060020a03929092169163be00bbd8916044808201926020929091908290030181600087803b15801561027757600080fd5b505af115801561028b573d6000803e3d6000fd5b505050506040513d60208110156102a157600080fd5b505192915050565b600080600160a060020a03831615156102c557600091506102d0565b823b90506000811191505b50919050565b61019f6000805160206106d98339815191528264010000000061032261032682021704565b60006103216000805160206106d98339815191526401000000006102b561035082021704565b905090565b9055565b60006103216000805160206106b98339815191526401000000006102b561035082021704565b5490565b610356806103636000396000f30060806040526004361061006c5763ffffffff7c01000000000000000000000000000000000000000000000000000000006000350416634555d5c9811461012b57806348a0c8dd146101525780635c60da1b1461017b57806380afdea8146101b9578063d4aae0c4146101ce575b60006127105a10156100e357600034118015610086575036155b151561009157600080fd5b6100996101e3565b15156100a457600080fd5b6040805133815234602082015281517f15eeaa57c7bd188c1388020bcadc2c436ec60d647d36ef5b9eb3c742217ddee1929181900390910190a1610128565b6100eb610213565b9050610128816000368080601f0160208091040260200160405190810160405280939291908181526020018383808284375061021d945050505050565b50005b34801561013757600080fd5b5061014061025e565b60408051918252519081900360200190f35b34801561015e57600080fd5b506101676101e3565b604080519115158252519081900360200190f35b34801561018757600080fd5b50610190610213565b6040805173ffffffffffffffffffffffffffffffffffffffff9092168252519081900360200190f35b3480156101c557600080fd5b50610140610263565b3480156101da57600080fd5b5061019061028e565b600061020e7f665fd576fbbe6f247aff98f5c94a561e3f71ec2d3c988d56f12d342396c50cea6102b5565b905090565b600061020e6102b9565b6000610228836102e4565b151561023357600080fd5b612710905060008083516020850186855a03f43d604051816000823e82801561025a578282f35b8282fd5b600190565b600061020e7fd625496217aa6a3453eecb9c3489dc5a53e6c67b444329ea2b2cbc9ff547639b6102b5565b600061020e7f4172f0f7d2289153072b0a6ca36959e0cbe2efc3afe50fc81636caa96338137b5b5490565b600061020e7fdee64df20d65e53d7f51cb6ab6d921a0a6a638a91e942e1d8d02df28e31c038e6102b5565b60008073ffffffffffffffffffffffffffffffffffffffff8316151561030d5760009150610318565b823b90506000811191505b50919050565b5490565b9055565b90555600a165627a7a7230582087dbcc548140837392cd2b6157b038075b0c708beb8c5a3e630708bb5efe70b700294172f0f7d2289153072b0a6ca36959e0cbe2efc3afe50fc81636caa96338137bdee64df20d65e53d7f51cb6ab6d921a0a6a638a91e942e1d8d02df28e31c038e608060405234801561001057600080fd5b506040516106e93803806106e98339810160409081528151602083015191830151909201828282600061004b84640100000000610124810204565b61005d8364010000000061014c810204565b61006f83640100000000610183810204565b90506000825111156101185761008d81640100000000610253810204565b151561009857600080fd5b80600160a060020a03168260405180828051906020019080838360005b838110156100cd5781810151838201526020016100b5565b50505050905090810190601f1680156100fa5780820380516001836020036101000a031916815260200191505b50915050600060405180830381855af4915050151561011857600080fd5b505050505050506102b3565b6101496000805160206106c9833981519152826401000000006103d361028082021704565b50565b6101497fd625496217aa6a3453eecb9c3489dc5a53e6c67b444329ea2b2cbc9ff547639b826401000000006103d361028082021704565b6000610196640100000000610284810204565b604080517fbe00bbd80000000000000000000000000000000000000000000000000000000081527ff1f3eb40f5bc1ad1344716ced8b8a0431d840b5783aea1fd01786bc26f35ac0f6004820152602481018590529051600160a060020a03929092169163be00bbd8916044808201926020929091908290030181600087803b15801561022157600080fd5b505af1158015610235573d6000803e3d6000fd5b505050506040513d602081101561024b57600080fd5b505192915050565b600080600160a060020a038316151561026f576000915061027a565b823b90506000811191505b50919050565b9055565b60006102aa6000805160206106c98339815191526401000000006102bd6102af82021704565b905090565b5490565b610407806102c26000396000f30060806040526004361061006c5763ffffffff7c01000000000000000000000000000000000000000000000000000000006000350416634555d5c9811461012b57806348a0c8dd146101525780635c60da1b1461017b57806380afdea8146101b9578063d4aae0c4146101ce575b60006127105a10156100e357600034118015610086575036155b151561009157600080fd5b6100996101e3565b15156100a457600080fd5b6040805133815234602082015281517f15eeaa57c7bd188c1388020bcadc2c436ec60d647d36ef5b9eb3c742217ddee1929181900390910190a1610128565b6100eb610213565b9050610128816000368080601f01602080910402602001604051908101604052809392919081815260200183838082843750610225945050505050565b50005b34801561013757600080fd5b50610140610266565b60408051918252519081900360200190f35b34801561015e57600080fd5b506101676101e3565b604080519115158252519081900360200190f35b34801561018757600080fd5b50610190610213565b6040805173ffffffffffffffffffffffffffffffffffffffff9092168252519081900360200190f35b3480156101c557600080fd5b5061014061026b565b3480156101da57600080fd5b50610190610296565b600061020e7f665fd576fbbe6f247aff98f5c94a561e3f71ec2d3c988d56f12d342396c50cea6102bd565b905090565b600061020e61022061026b565b6102c1565b600061023083610395565b151561023b57600080fd5b612710905060008083516020850186855a03f43d604051816000823e828015610262578282f35b8282fd5b600290565b600061020e7fd625496217aa6a3453eecb9c3489dc5a53e6c67b444329ea2b2cbc9ff547639b6102bd565b600061020e7f4172f0f7d2289153072b0a6ca36959e0cbe2efc3afe50fc81636caa96338137b5b5490565b60006102cb610296565b604080517fbe00bbd80000000000000000000000000000000000000000000000000000000081527ff1f3eb40f5bc1ad1344716ced8b8a0431d840b5783aea1fd01786bc26f35ac0f600482015260248101859052905173ffffffffffffffffffffffffffffffffffffffff929092169163be00bbd8916044808201926020929091908290030181600087803b15801561036357600080fd5b505af1158015610377573d6000803e3d6000fd5b505050506040513d602081101561038d57600080fd5b505192915050565b60008073ffffffffffffffffffffffffffffffffffffffff831615156103be57600091506103c9565b823b90506000811191505b50919050565b5490565b9055565b90555600a165627a7a72305820d7599b4332d11e92faf91db8535dd467741af3269bcbd84fa64cefe9d1947ae600294172f0f7d2289153072b0a6ca36959e0cbe2efc3afe50fc81636caa96338137b2a9494d64846c9fdbf0158785aa330d8bc9caf45af27fa0e8898eb4d55adcea6a165627a7a72305820e81f7587c05801926014c22c134a6ee270ed44d19ae8ac40e1c5304a2379d67e0029ebb05b386a8d34882b8711d156f463690983dc47815980fb82aeeff1aa43579e",
  "source": "pragma solidity 0.4.24;\n\nimport \"../lib/ens/AbstractENS.sol\";\nimport \"../ens/ENSSubdomainRegistrar.sol\";\nimport \"../factory/AppProxyFactory.sol\";\nimport \"../apps/AragonApp.sol\";\nimport \"../acl/ACL.sol\";\nimport \"./Repo.sol\";\n\n\ncontract APMInternalAppNames {\n    string internal constant APM_APP_NAME = \"apm-registry\";\n    string internal constant REPO_APP_NAME = \"apm-repo\";\n    string internal constant ENS_SUB_APP_NAME = \"apm-enssub\";\n}\n\n\ncontract APMRegistry is AragonApp, AppProxyFactory, APMInternalAppNames {\n    /* Hardcoded constants to save gas\n    bytes32 public constant CREATE_REPO_ROLE = keccak256(\"CREATE_REPO_ROLE\");\n    */\n    bytes32 public constant CREATE_REPO_ROLE = 0x2a9494d64846c9fdbf0158785aa330d8bc9caf45af27fa0e8898eb4d55adcea6;\n\n    string private constant ERROR_INIT_PERMISSIONS = \"APMREG_INIT_PERMISSIONS\";\n    string private constant ERROR_EMPTY_NAME = \"APMREG_EMPTY_NAME\";\n\n    AbstractENS public ens;\n    ENSSubdomainRegistrar public registrar;\n\n    event NewRepo(bytes32 id, string name, address repo);\n\n    /**\n    * NEEDS CREATE_NAME_ROLE and POINT_ROOTNODE_ROLE permissions on registrar\n    * @dev Initialize can only be called once. It saves the block number in which it was initialized\n    * @notice Initialize this APMRegistry instance and set `_registrar` as the ENS subdomain registrar\n    * @param _registrar ENSSubdomainRegistrar instance that holds registry root node ownership\n    */\n    function initialize(ENSSubdomainRegistrar _registrar) public onlyInit {\n        initialized();\n\n        registrar = _registrar;\n        ens = registrar.ens();\n\n        registrar.pointRootNode(this);\n\n        // Check APM has all permissions it needss\n        ACL acl = ACL(kernel().acl());\n        require(acl.hasPermission(this, registrar, registrar.CREATE_NAME_ROLE()), ERROR_INIT_PERMISSIONS);\n        require(acl.hasPermission(this, acl, acl.CREATE_PERMISSIONS_ROLE()), ERROR_INIT_PERMISSIONS);\n    }\n\n    /**\n    * @notice Create new repo in registry with `_name`\n    * @param _name Repo name, must be ununsed\n    * @param _dev Address that will be given permission to create versions\n    */\n    function newRepo(string _name, address _dev) public auth(CREATE_REPO_ROLE) returns (Repo) {\n        return _newRepo(_name, _dev);\n    }\n\n    /**\n    * @notice Create new repo in registry with `_name` and publish a first version with contract `_contractAddress` and content `@fromHex(_contentURI)`\n    * @param _name Repo name\n    * @param _dev Address that will be given permission to create versions\n    * @param _initialSemanticVersion Semantic version for new repo version\n    * @param _contractAddress address for smart contract logic for version (if set to 0, it uses last versions' contractAddress)\n    * @param _contentURI External URI for fetching new version's content\n    */\n    function newRepoWithVersion(\n        string _name,\n        address _dev,\n        uint16[3] _initialSemanticVersion,\n        address _contractAddress,\n        bytes _contentURI\n    ) public auth(CREATE_REPO_ROLE) returns (Repo)\n    {\n        Repo repo = _newRepo(_name, this); // need to have permissions to create version\n        repo.newVersion(_initialSemanticVersion, _contractAddress, _contentURI);\n\n        // Give permissions to _dev\n        ACL acl = ACL(kernel().acl());\n        acl.revokePermission(this, repo, repo.CREATE_VERSION_ROLE());\n        acl.grantPermission(_dev, repo, repo.CREATE_VERSION_ROLE());\n        acl.setPermissionManager(_dev, repo, repo.CREATE_VERSION_ROLE());\n        return repo;\n    }\n\n    function _newRepo(string _name, address _dev) internal returns (Repo) {\n        require(bytes(_name).length > 0, ERROR_EMPTY_NAME);\n\n        Repo repo = newClonedRepo();\n\n        ACL(kernel().acl()).createPermission(_dev, repo, repo.CREATE_VERSION_ROLE(), _dev);\n\n        // Creates [name] subdomain in the rootNode and sets registry as resolver\n        // This will fail if repo name already exists\n        bytes32 node = registrar.createNameAndPoint(keccak256(abi.encodePacked(_name)), repo);\n\n        emit NewRepo(node, _name, repo);\n\n        return repo;\n    }\n\n    function newClonedRepo() internal returns (Repo repo) {\n        repo = Repo(newAppProxy(kernel(), repoAppId()));\n        repo.initialize();\n    }\n\n    function repoAppId() internal view returns (bytes32) {\n        return keccak256(abi.encodePacked(registrar.rootNode(), keccak256(abi.encodePacked(REPO_APP_NAME))));\n    }\n}\n",
  "sourcePath": "@aragon/os/contracts/apm/APMRegistry.sol",
  "compiler": {
    "name": "solc",
    "version": "0.4.24+commit.e67f0147.Emscripten.clang"
  },
  "schemaVersion": "2.0.1",
  "updatedAt": "2020-02-09T15:22:16.318Z"
}