{
  "contractName": "BatchedBancorMarketMaker",
  "abi": [
    {
      "constant": true,
      "inputs": [],
      "name": "hasInitialized",
      "outputs": [
        {
          "name": "",
          "type": "bool"
        }
      ],
      "payable": false,
      "stateMutability": "view",
      "type": "function"
    },
    {
      "constant": true,
      "inputs": [],
      "name": "PPM",
      "outputs": [
        {
          "name": "",
          "type": "uint32"
        }
      ],
      "payable": false,
      "stateMutability": "view",
      "type": "function"
    },
    {
      "constant": true,
      "inputs": [],
      "name": "UPDATE_FORMULA_ROLE",
      "outputs": [
        {
          "name": "",
          "type": "bytes32"
        }
      ],
      "payable": false,
      "stateMutability": "view",
      "type": "function"
    },
    {
      "constant": true,
      "inputs": [
        {
          "name": "",
          "type": "uint256"
        }
      ],
      "name": "metaBatches",
      "outputs": [
        {
          "name": "initialized",
          "type": "bool"
        },
        {
          "name": "realSupply",
          "type": "uint256"
        },
        {
          "name": "buyFeePct",
          "type": "uint256"
        },
        {
          "name": "sellFeePct",
          "type": "uint256"
        },
        {
          "name": "formula",
          "type": "address"
        }
      ],
      "payable": false,
      "stateMutability": "view",
      "type": "function"
    },
    {
      "constant": true,
      "inputs": [
        {
          "name": "_script",
          "type": "bytes"
        }
      ],
      "name": "getEVMScriptExecutor",
      "outputs": [
        {
          "name": "",
          "type": "address"
        }
      ],
      "payable": false,
      "stateMutability": "view",
      "type": "function"
    },
    {
      "constant": true,
      "inputs": [],
      "name": "tokenManager",
      "outputs": [
        {
          "name": "",
          "type": "address"
        }
      ],
      "payable": false,
      "stateMutability": "view",
      "type": "function"
    },
    {
      "constant": true,
      "inputs": [],
      "name": "OPEN_BUY_ORDER_ROLE",
      "outputs": [
        {
          "name": "",
          "type": "bytes32"
        }
      ],
      "payable": false,
      "stateMutability": "view",
      "type": "function"
    },
    {
      "constant": true,
      "inputs": [],
      "name": "UPDATE_COLLATERAL_TOKEN_ROLE",
      "outputs": [
        {
          "name": "",
          "type": "bytes32"
        }
      ],
      "payable": false,
      "stateMutability": "view",
      "type": "function"
    },
    {
      "constant": true,
      "inputs": [],
      "name": "getRecoveryVault",
      "outputs": [
        {
          "name": "",
          "type": "address"
        }
      ],
      "payable": false,
      "stateMutability": "view",
      "type": "function"
    },
    {
      "constant": true,
      "inputs": [],
      "name": "beneficiary",
      "outputs": [
        {
          "name": "",
          "type": "address"
        }
      ],
      "payable": false,
      "stateMutability": "view",
      "type": "function"
    },
    {
      "constant": true,
      "inputs": [],
      "name": "UPDATE_BENEFICIARY_ROLE",
      "outputs": [
        {
          "name": "",
          "type": "bytes32"
        }
      ],
      "payable": false,
      "stateMutability": "view",
      "type": "function"
    },
    {
      "constant": true,
      "inputs": [],
      "name": "isOpen",
      "outputs": [
        {
          "name": "",
          "type": "bool"
        }
      ],
      "payable": false,
      "stateMutability": "view",
      "type": "function"
    },
    {
      "constant": true,
      "inputs": [
        {
          "name": "",
          "type": "address"
        }
      ],
      "name": "collateralsToBeClaimed",
      "outputs": [
        {
          "name": "",
          "type": "uint256"
        }
      ],
      "payable": false,
      "stateMutability": "view",
      "type": "function"
    },
    {
      "constant": true,
      "inputs": [],
      "name": "formula",
      "outputs": [
        {
          "name": "",
          "type": "address"
        }
      ],
      "payable": false,
      "stateMutability": "view",
      "type": "function"
    },
    {
      "constant": true,
      "inputs": [],
      "name": "ADD_COLLATERAL_TOKEN_ROLE",
      "outputs": [
        {
          "name": "",
          "type": "bytes32"
        }
      ],
      "payable": false,
      "stateMutability": "view",
      "type": "function"
    },
    {
      "constant": true,
      "inputs": [],
      "name": "UPDATE_FEES_ROLE",
      "outputs": [
        {
          "name": "",
          "type": "bytes32"
        }
      ],
      "payable": false,
      "stateMutability": "view",
      "type": "function"
    },
    {
      "constant": true,
      "inputs": [],
      "name": "OPEN_ROLE",
      "outputs": [
        {
          "name": "",
          "type": "bytes32"
        }
      ],
      "payable": false,
      "stateMutability": "view",
      "type": "function"
    },
    {
      "constant": true,
      "inputs": [],
      "name": "sellFeePct",
      "outputs": [
        {
          "name": "",
          "type": "uint256"
        }
      ],
      "payable": false,
      "stateMutability": "view",
      "type": "function"
    },
    {
      "constant": true,
      "inputs": [
        {
          "name": "token",
          "type": "address"
        }
      ],
      "name": "allowRecoverability",
      "outputs": [
        {
          "name": "",
          "type": "bool"
        }
      ],
      "payable": false,
      "stateMutability": "view",
      "type": "function"
    },
    {
      "constant": true,
      "inputs": [],
      "name": "appId",
      "outputs": [
        {
          "name": "",
          "type": "bytes32"
        }
      ],
      "payable": false,
      "stateMutability": "view",
      "type": "function"
    },
    {
      "constant": true,
      "inputs": [],
      "name": "getInitializationBlock",
      "outputs": [
        {
          "name": "",
          "type": "uint256"
        }
      ],
      "payable": false,
      "stateMutability": "view",
      "type": "function"
    },
    {
      "constant": true,
      "inputs": [],
      "name": "tokensToBeMinted",
      "outputs": [
        {
          "name": "",
          "type": "uint256"
        }
      ],
      "payable": false,
      "stateMutability": "view",
      "type": "function"
    },
    {
      "constant": false,
      "inputs": [
        {
          "name": "_token",
          "type": "address"
        }
      ],
      "name": "transferToVault",
      "outputs": [],
      "payable": false,
      "stateMutability": "nonpayable",
      "type": "function"
    },
    {
      "constant": true,
      "inputs": [
        {
          "name": "_sender",
          "type": "address"
        },
        {
          "name": "_role",
          "type": "bytes32"
        },
        {
          "name": "_params",
          "type": "uint256[]"
        }
      ],
      "name": "canPerform",
      "outputs": [
        {
          "name": "",
          "type": "bool"
        }
      ],
      "payable": false,
      "stateMutability": "view",
      "type": "function"
    },
    {
      "constant": true,
      "inputs": [],
      "name": "getEVMScriptRegistry",
      "outputs": [
        {
          "name": "",
          "type": "address"
        }
      ],
      "payable": false,
      "stateMutability": "view",
      "type": "function"
    },
    {
      "constant": true,
      "inputs": [],
      "name": "REMOVE_COLLATERAL_TOKEN_ROLE",
      "outputs": [
        {
          "name": "",
          "type": "bytes32"
        }
      ],
      "payable": false,
      "stateMutability": "view",
      "type": "function"
    },
    {
      "constant": true,
      "inputs": [],
      "name": "batchBlocks",
      "outputs": [
        {
          "name": "",
          "type": "uint256"
        }
      ],
      "payable": false,
      "stateMutability": "view",
      "type": "function"
    },
    {
      "constant": true,
      "inputs": [],
      "name": "reserve",
      "outputs": [
        {
          "name": "",
          "type": "address"
        }
      ],
      "payable": false,
      "stateMutability": "view",
      "type": "function"
    },
    {
      "constant": true,
      "inputs": [],
      "name": "OPEN_SELL_ORDER_ROLE",
      "outputs": [
        {
          "name": "",
          "type": "bytes32"
        }
      ],
      "payable": false,
      "stateMutability": "view",
      "type": "function"
    },
    {
      "constant": true,
      "inputs": [],
      "name": "kernel",
      "outputs": [
        {
          "name": "",
          "type": "address"
        }
      ],
      "payable": false,
      "stateMutability": "view",
      "type": "function"
    },
    {
      "constant": true,
      "inputs": [],
      "name": "isPetrified",
      "outputs": [
        {
          "name": "",
          "type": "bool"
        }
      ],
      "payable": false,
      "stateMutability": "view",
      "type": "function"
    },
    {
      "constant": true,
      "inputs": [
        {
          "name": "",
          "type": "address"
        }
      ],
      "name": "collaterals",
      "outputs": [
        {
          "name": "whitelisted",
          "type": "bool"
        },
        {
          "name": "virtualSupply",
          "type": "uint256"
        },
        {
          "name": "virtualBalance",
          "type": "uint256"
        },
        {
          "name": "reserveRatio",
          "type": "uint32"
        },
        {
          "name": "slippage",
          "type": "uint256"
        }
      ],
      "payable": false,
      "stateMutability": "view",
      "type": "function"
    },
    {
      "constant": true,
      "inputs": [],
      "name": "controller",
      "outputs": [
        {
          "name": "",
          "type": "address"
        }
      ],
      "payable": false,
      "stateMutability": "view",
      "type": "function"
    },
    {
      "constant": true,
      "inputs": [],
      "name": "buyFeePct",
      "outputs": [
        {
          "name": "",
          "type": "uint256"
        }
      ],
      "payable": false,
      "stateMutability": "view",
      "type": "function"
    },
    {
      "constant": true,
      "inputs": [],
      "name": "token",
      "outputs": [
        {
          "name": "",
          "type": "address"
        }
      ],
      "payable": false,
      "stateMutability": "view",
      "type": "function"
    },
    {
      "constant": true,
      "inputs": [],
      "name": "PCT_BASE",
      "outputs": [
        {
          "name": "",
          "type": "uint256"
        }
      ],
      "payable": false,
      "stateMutability": "view",
      "type": "function"
    },
    {
      "anonymous": false,
      "inputs": [
        {
          "indexed": true,
          "name": "beneficiary",
          "type": "address"
        }
      ],
      "name": "UpdateBeneficiary",
      "type": "event"
    },
    {
      "anonymous": false,
      "inputs": [
        {
          "indexed": true,
          "name": "formula",
          "type": "address"
        }
      ],
      "name": "UpdateFormula",
      "type": "event"
    },
    {
      "anonymous": false,
      "inputs": [
        {
          "indexed": false,
          "name": "buyFeePct",
          "type": "uint256"
        },
        {
          "indexed": false,
          "name": "sellFeePct",
          "type": "uint256"
        }
      ],
      "name": "UpdateFees",
      "type": "event"
    },
    {
      "anonymous": false,
      "inputs": [
        {
          "indexed": true,
          "name": "id",
          "type": "uint256"
        },
        {
          "indexed": false,
          "name": "supply",
          "type": "uint256"
        },
        {
          "indexed": false,
          "name": "buyFeePct",
          "type": "uint256"
        },
        {
          "indexed": false,
          "name": "sellFeePct",
          "type": "uint256"
        },
        {
          "indexed": false,
          "name": "formula",
          "type": "address"
        }
      ],
      "name": "NewMetaBatch",
      "type": "event"
    },
    {
      "anonymous": false,
      "inputs": [
        {
          "indexed": true,
          "name": "id",
          "type": "uint256"
        },
        {
          "indexed": true,
          "name": "collateral",
          "type": "address"
        },
        {
          "indexed": false,
          "name": "supply",
          "type": "uint256"
        },
        {
          "indexed": false,
          "name": "balance",
          "type": "uint256"
        },
        {
          "indexed": false,
          "name": "reserveRatio",
          "type": "uint32"
        },
        {
          "indexed": false,
          "name": "slippage",
          "type": "uint256"
        }
      ],
      "name": "NewBatch",
      "type": "event"
    },
    {
      "anonymous": false,
      "inputs": [
        {
          "indexed": true,
          "name": "id",
          "type": "uint256"
        },
        {
          "indexed": true,
          "name": "collateral",
          "type": "address"
        }
      ],
      "name": "CancelBatch",
      "type": "event"
    },
    {
      "anonymous": false,
      "inputs": [
        {
          "indexed": true,
          "name": "collateral",
          "type": "address"
        },
        {
          "indexed": false,
          "name": "virtualSupply",
          "type": "uint256"
        },
        {
          "indexed": false,
          "name": "virtualBalance",
          "type": "uint256"
        },
        {
          "indexed": false,
          "name": "reserveRatio",
          "type": "uint32"
        },
        {
          "indexed": false,
          "name": "slippage",
          "type": "uint256"
        }
      ],
      "name": "AddCollateralToken",
      "type": "event"
    },
    {
      "anonymous": false,
      "inputs": [
        {
          "indexed": true,
          "name": "collateral",
          "type": "address"
        }
      ],
      "name": "RemoveCollateralToken",
      "type": "event"
    },
    {
      "anonymous": false,
      "inputs": [
        {
          "indexed": true,
          "name": "collateral",
          "type": "address"
        },
        {
          "indexed": false,
          "name": "virtualSupply",
          "type": "uint256"
        },
        {
          "indexed": false,
          "name": "virtualBalance",
          "type": "uint256"
        },
        {
          "indexed": false,
          "name": "reserveRatio",
          "type": "uint32"
        },
        {
          "indexed": false,
          "name": "slippage",
          "type": "uint256"
        }
      ],
      "name": "UpdateCollateralToken",
      "type": "event"
    },
    {
      "anonymous": false,
      "inputs": [],
      "name": "Open",
      "type": "event"
    },
    {
      "anonymous": false,
      "inputs": [
        {
          "indexed": true,
          "name": "buyer",
          "type": "address"
        },
        {
          "indexed": true,
          "name": "batchId",
          "type": "uint256"
        },
        {
          "indexed": true,
          "name": "collateral",
          "type": "address"
        },
        {
          "indexed": false,
          "name": "fee",
          "type": "uint256"
        },
        {
          "indexed": false,
          "name": "value",
          "type": "uint256"
        }
      ],
      "name": "OpenBuyOrder",
      "type": "event"
    },
    {
      "anonymous": false,
      "inputs": [
        {
          "indexed": true,
          "name": "seller",
          "type": "address"
        },
        {
          "indexed": true,
          "name": "batchId",
          "type": "uint256"
        },
        {
          "indexed": true,
          "name": "collateral",
          "type": "address"
        },
        {
          "indexed": false,
          "name": "amount",
          "type": "uint256"
        }
      ],
      "name": "OpenSellOrder",
      "type": "event"
    },
    {
      "anonymous": false,
      "inputs": [
        {
          "indexed": true,
          "name": "buyer",
          "type": "address"
        },
        {
          "indexed": true,
          "name": "batchId",
          "type": "uint256"
        },
        {
          "indexed": true,
          "name": "collateral",
          "type": "address"
        },
        {
          "indexed": false,
          "name": "amount",
          "type": "uint256"
        }
      ],
      "name": "ClaimBuyOrder",
      "type": "event"
    },
    {
      "anonymous": false,
      "inputs": [
        {
          "indexed": true,
          "name": "seller",
          "type": "address"
        },
        {
          "indexed": true,
          "name": "batchId",
          "type": "uint256"
        },
        {
          "indexed": true,
          "name": "collateral",
          "type": "address"
        },
        {
          "indexed": false,
          "name": "fee",
          "type": "uint256"
        },
        {
          "indexed": false,
          "name": "value",
          "type": "uint256"
        }
      ],
      "name": "ClaimSellOrder",
      "type": "event"
    },
    {
      "anonymous": false,
      "inputs": [
        {
          "indexed": true,
          "name": "buyer",
          "type": "address"
        },
        {
          "indexed": true,
          "name": "batchId",
          "type": "uint256"
        },
        {
          "indexed": true,
          "name": "collateral",
          "type": "address"
        },
        {
          "indexed": false,
          "name": "value",
          "type": "uint256"
        }
      ],
      "name": "ClaimCancelledBuyOrder",
      "type": "event"
    },
    {
      "anonymous": false,
      "inputs": [
        {
          "indexed": true,
          "name": "seller",
          "type": "address"
        },
        {
          "indexed": true,
          "name": "batchId",
          "type": "uint256"
        },
        {
          "indexed": true,
          "name": "collateral",
          "type": "address"
        },
        {
          "indexed": false,
          "name": "amount",
          "type": "uint256"
        }
      ],
      "name": "ClaimCancelledSellOrder",
      "type": "event"
    },
    {
      "anonymous": false,
      "inputs": [
        {
          "indexed": true,
          "name": "batchId",
          "type": "uint256"
        },
        {
          "indexed": true,
          "name": "collateral",
          "type": "address"
        },
        {
          "indexed": false,
          "name": "totalBuySpend",
          "type": "uint256"
        },
        {
          "indexed": false,
          "name": "totalBuyReturn",
          "type": "uint256"
        },
        {
          "indexed": false,
          "name": "totalSellSpend",
          "type": "uint256"
        },
        {
          "indexed": false,
          "name": "totalSellReturn",
          "type": "uint256"
        }
      ],
      "name": "UpdatePricing",
      "type": "event"
    },
    {
      "anonymous": false,
      "inputs": [
        {
          "indexed": true,
          "name": "executor",
          "type": "address"
        },
        {
          "indexed": false,
          "name": "script",
          "type": "bytes"
        },
        {
          "indexed": false,
          "name": "input",
          "type": "bytes"
        },
        {
          "indexed": false,
          "name": "returnData",
          "type": "bytes"
        }
      ],
      "name": "ScriptResult",
      "type": "event"
    },
    {
      "anonymous": false,
      "inputs": [
        {
          "indexed": true,
          "name": "vault",
          "type": "address"
        },
        {
          "indexed": true,
          "name": "token",
          "type": "address"
        },
        {
          "indexed": false,
          "name": "amount",
          "type": "uint256"
        }
      ],
      "name": "RecoverToVault",
      "type": "event"
    },
    {
      "constant": false,
      "inputs": [
        {
          "name": "_controller",
          "type": "address"
        },
        {
          "name": "_tokenManager",
          "type": "address"
        },
        {
          "name": "_formula",
          "type": "address"
        },
        {
          "name": "_reserve",
          "type": "address"
        },
        {
          "name": "_beneficiary",
          "type": "address"
        },
        {
          "name": "_batchBlocks",
          "type": "uint256"
        },
        {
          "name": "_buyFeePct",
          "type": "uint256"
        },
        {
          "name": "_sellFeePct",
          "type": "uint256"
        }
      ],
      "name": "initialize",
      "outputs": [],
      "payable": false,
      "stateMutability": "nonpayable",
      "type": "function"
    },
    {
      "constant": false,
      "inputs": [],
      "name": "open",
      "outputs": [],
      "payable": false,
      "stateMutability": "nonpayable",
      "type": "function"
    },
    {
      "constant": false,
      "inputs": [
        {
          "name": "_formula",
          "type": "address"
        }
      ],
      "name": "updateFormula",
      "outputs": [],
      "payable": false,
      "stateMutability": "nonpayable",
      "type": "function"
    },
    {
      "constant": false,
      "inputs": [
        {
          "name": "_beneficiary",
          "type": "address"
        }
      ],
      "name": "updateBeneficiary",
      "outputs": [],
      "payable": false,
      "stateMutability": "nonpayable",
      "type": "function"
    },
    {
      "constant": false,
      "inputs": [
        {
          "name": "_buyFeePct",
          "type": "uint256"
        },
        {
          "name": "_sellFeePct",
          "type": "uint256"
        }
      ],
      "name": "updateFees",
      "outputs": [],
      "payable": false,
      "stateMutability": "nonpayable",
      "type": "function"
    },
    {
      "constant": false,
      "inputs": [
        {
          "name": "_collateral",
          "type": "address"
        },
        {
          "name": "_virtualSupply",
          "type": "uint256"
        },
        {
          "name": "_virtualBalance",
          "type": "uint256"
        },
        {
          "name": "_reserveRatio",
          "type": "uint32"
        },
        {
          "name": "_slippage",
          "type": "uint256"
        }
      ],
      "name": "addCollateralToken",
      "outputs": [],
      "payable": false,
      "stateMutability": "nonpayable",
      "type": "function"
    },
    {
      "constant": false,
      "inputs": [
        {
          "name": "_collateral",
          "type": "address"
        }
      ],
      "name": "removeCollateralToken",
      "outputs": [],
      "payable": false,
      "stateMutability": "nonpayable",
      "type": "function"
    },
    {
      "constant": false,
      "inputs": [
        {
          "name": "_collateral",
          "type": "address"
        },
        {
          "name": "_virtualSupply",
          "type": "uint256"
        },
        {
          "name": "_virtualBalance",
          "type": "uint256"
        },
        {
          "name": "_reserveRatio",
          "type": "uint32"
        },
        {
          "name": "_slippage",
          "type": "uint256"
        }
      ],
      "name": "updateCollateralToken",
      "outputs": [],
      "payable": false,
      "stateMutability": "nonpayable",
      "type": "function"
    },
    {
      "constant": false,
      "inputs": [
        {
          "name": "_buyer",
          "type": "address"
        },
        {
          "name": "_collateral",
          "type": "address"
        },
        {
          "name": "_value",
          "type": "uint256"
        }
      ],
      "name": "openBuyOrder",
      "outputs": [],
      "payable": true,
      "stateMutability": "payable",
      "type": "function"
    },
    {
      "constant": false,
      "inputs": [
        {
          "name": "_seller",
          "type": "address"
        },
        {
          "name": "_collateral",
          "type": "address"
        },
        {
          "name": "_amount",
          "type": "uint256"
        }
      ],
      "name": "openSellOrder",
      "outputs": [],
      "payable": false,
      "stateMutability": "nonpayable",
      "type": "function"
    },
    {
      "constant": false,
      "inputs": [
        {
          "name": "_buyer",
          "type": "address"
        },
        {
          "name": "_batchId",
          "type": "uint256"
        },
        {
          "name": "_collateral",
          "type": "address"
        }
      ],
      "name": "claimBuyOrder",
      "outputs": [],
      "payable": false,
      "stateMutability": "nonpayable",
      "type": "function"
    },
    {
      "constant": false,
      "inputs": [
        {
          "name": "_seller",
          "type": "address"
        },
        {
          "name": "_batchId",
          "type": "uint256"
        },
        {
          "name": "_collateral",
          "type": "address"
        }
      ],
      "name": "claimSellOrder",
      "outputs": [],
      "payable": false,
      "stateMutability": "nonpayable",
      "type": "function"
    },
    {
      "constant": false,
      "inputs": [
        {
          "name": "_buyer",
          "type": "address"
        },
        {
          "name": "_batchId",
          "type": "uint256"
        },
        {
          "name": "_collateral",
          "type": "address"
        }
      ],
      "name": "claimCancelledBuyOrder",
      "outputs": [],
      "payable": false,
      "stateMutability": "nonpayable",
      "type": "function"
    },
    {
      "constant": false,
      "inputs": [
        {
          "name": "_seller",
          "type": "address"
        },
        {
          "name": "_batchId",
          "type": "uint256"
        },
        {
          "name": "_collateral",
          "type": "address"
        }
      ],
      "name": "claimCancelledSellOrder",
      "outputs": [],
      "payable": false,
      "stateMutability": "nonpayable",
      "type": "function"
    },
    {
      "constant": true,
      "inputs": [],
      "name": "getCurrentBatchId",
      "outputs": [
        {
          "name": "",
          "type": "uint256"
        }
      ],
      "payable": false,
      "stateMutability": "view",
      "type": "function"
    },
    {
      "constant": true,
      "inputs": [
        {
          "name": "_collateral",
          "type": "address"
        }
      ],
      "name": "getCollateralToken",
      "outputs": [
        {
          "name": "",
          "type": "bool"
        },
        {
          "name": "",
          "type": "uint256"
        },
        {
          "name": "",
          "type": "uint256"
        },
        {
          "name": "",
          "type": "uint32"
        },
        {
          "name": "",
          "type": "uint256"
        }
      ],
      "payable": false,
      "stateMutability": "view",
      "type": "function"
    },
    {
      "constant": true,
      "inputs": [
        {
          "name": "_batchId",
          "type": "uint256"
        },
        {
          "name": "_collateral",
          "type": "address"
        }
      ],
      "name": "getBatch",
      "outputs": [
        {
          "name": "",
          "type": "bool"
        },
        {
          "name": "",
          "type": "bool"
        },
        {
          "name": "",
          "type": "uint256"
        },
        {
          "name": "",
          "type": "uint256"
        },
        {
          "name": "",
          "type": "uint32"
        },
        {
          "name": "",
          "type": "uint256"
        },
        {
          "name": "",
          "type": "uint256"
        },
        {
          "name": "",
          "type": "uint256"
        },
        {
          "name": "",
          "type": "uint256"
        },
        {
          "name": "",
          "type": "uint256"
        }
      ],
      "payable": false,
      "stateMutability": "view",
      "type": "function"
    },
    {
      "constant": true,
      "inputs": [
        {
          "name": "_supply",
          "type": "uint256"
        },
        {
          "name": "_balance",
          "type": "uint256"
        },
        {
          "name": "_reserveRatio",
          "type": "uint32"
        }
      ],
      "name": "getStaticPricePPM",
      "outputs": [
        {
          "name": "",
          "type": "uint256"
        }
      ],
      "payable": false,
      "stateMutability": "view",
      "type": "function"
    }
  ],
  "bytecode": "0x6080604052620000176401000000006200001d810204565b6200023b565b6200003064010000000062000125810204565b60408051808201909152601881527f494e49545f414c52454144595f494e495449414c495a45440000000000000000602082015290156200010c576040517f08c379a00000000000000000000000000000000000000000000000000000000081526004018080602001828103825283818151815260200191508051906020019080838360005b83811015620000d0578181015183820152602001620000b6565b50505050905090810190601f168015620000fe5780820380516001836020036101000a031916815260200191505b509250505060405180910390fd5b506200012360001964010000000062000154810204565b565b60006200014f60008051602062005e49833981519152640100000000620040b16200023382021704565b905090565b6200016764010000000062000125810204565b60408051808201909152601881527f494e49545f414c52454144595f494e495449414c495a454400000000000000006020820152901562000206576040517f08c379a000000000000000000000000000000000000000000000000000000000815260040180806020018281038252838181518152602001915080519060200190808383600083811015620000d0578181015183820152602001620000b6565b506200023060008051602062005e4983398151915282640100000000620040b56200023782021704565b50565b5490565b9055565b615bfe806200024b6000396000f30060806040526004361061026e5763ffffffff60e060020a6000350416630803fac081146102735780630aaffd2a1461029c5780630d720bbc146102bf5780630e85d277146102ed5780630f1ff5ea14610314578063177c14991461033e5780632914b9bd1461038c5780632a709b14146104015780632cd4a270146104165780633017dbed1461042b57806332f0a3b51461044057806338af3eed146104555780633fae9bfb1461046a57806341644f8c1461048757806347535d7b1461049c5780634afe6c47146104b15780634b75f54f146104d25780635e6f6c77146104e7578063608bac051461051257806360e14b6014610527578063683dee471461053c5780636a928e8f146105b75780636db79437146105cc5780637403c6cd146105e757806378ea6103146106295780637b9e86bf146106545780637cfab0cb146106695780637e7db6e11461068d57806380afdea8146106ae5780638a9b1e2d146106c35780638b3dd749146106f65780639249be281461070b57806394f9059f146107365780639ba9dada146107575780639d4941d81461076c578063a1658fad1461078d578063a479e508146107f4578063b6e9c82614610809578063c56f0f6c1461081e578063cd3293de14610833578063cf9d82f214610848578063d4aae0c41461085d578063d5b49a7114610872578063dbbdf2fe14610893578063de4796ed146108be578063e720ac8e146108d3578063eeb97d3b146108e8578063f190e4271461093c578063f77c47911461095d578063f79c5c7c14610972578063fc0c546a14610987578063fc157cb41461099c578063fcfff16f146109b1578063fd531e03146109c6575b600080fd5b34801561027f57600080fd5b506102886109f9565b604080519115158252519081900360200190f35b3480156102a857600080fd5b506102bd600160a060020a0360043516610a22565b005b3480156102cb57600080fd5b506102d4610bb2565b6040805163ffffffff9092168252519081900360200190f35b3480156102f957600080fd5b50610302610bb9565b60408051918252519081900360200190f35b34801561032057600080fd5b506102bd600160a060020a0360043581169060243516604435610bdd565b34801561034a57600080fd5b50610356600435610ec4565b6040805195151586526020860194909452848401929092526060840152600160a060020a03166080830152519081900360a00190f35b34801561039857600080fd5b506040805160206004803580820135601f81018490048402850184019095528484526103e5943694929360249392840191908190840183828082843750949750610f009650505050505050565b60408051600160a060020a039092168252519081900360200190f35b34801561040d57600080fd5b506103e5610fe6565b34801561042257600080fd5b50610302610ff5565b34801561043757600080fd5b50610302611019565b34801561044c57600080fd5b506103e561103d565b34801561046157600080fd5b506103e56110b5565b6102bd600160a060020a03600435811690602435166044356110c4565b34801561049357600080fd5b506103026113a1565b3480156104a857600080fd5b506102886113c5565b3480156104bd57600080fd5b50610302600160a060020a03600435166113ce565b3480156104de57600080fd5b506103e56113e0565b3480156104f357600080fd5b506102bd600160a060020a0360043581169060243590604435166113ef565b34801561051e57600080fd5b50610302611751565b34801561053357600080fd5b50610302611775565b34801561054857600080fd5b50610560600435600160a060020a0360243516611799565b604080519a15158b5298151560208b015289890197909752606089019590955263ffffffff909316608088015260a087019190915260c086015260e085015261010084015261012083015251908190036101400190f35b3480156105c357600080fd5b506103026118e2565b3480156105d857600080fd5b506102bd600435602435611906565b3480156105f357600080fd5b506102bd600160a060020a036004358116906024358116906044358116906064358116906084351660a43560c43560e435611a65565b34801561063557600080fd5b506102bd600160a060020a036004358116906024359060443516612050565b34801561066057600080fd5b5061030261238e565b34801561067557600080fd5b5061030260043560243563ffffffff60443516612394565b34801561069957600080fd5b50610288600160a060020a0360043516612428565b3480156106ba57600080fd5b5061030261242e565b3480156106cf57600080fd5b506102bd600160a060020a036004351660243560443563ffffffff6064351660843561245e565b34801561070257600080fd5b50610302612636565b34801561071757600080fd5b506102bd600160a060020a036004358116906024359060443516612661565b34801561074257600080fd5b506102bd600160a060020a03600435166128a4565b34801561076357600080fd5b506103026129e0565b34801561077857600080fd5b506102bd600160a060020a03600435166129e6565b34801561079957600080fd5b506040805160206004604435818101358381028086018501909652808552610288958335600160a060020a0316956024803596369695606495939492019291829185019084908082843750949750612c759650505050505050565b34801561080057600080fd5b506103e5612dc5565b34801561081557600080fd5b50610302612e7a565b34801561082a57600080fd5b50610302612e9e565b34801561083f57600080fd5b506103e5612ea4565b34801561085457600080fd5b50610302612eb3565b34801561086957600080fd5b506103e5612ed7565b34801561087e57600080fd5b506102bd600160a060020a0360043516612f02565b34801561089f57600080fd5b506102bd600160a060020a03600435811690602435906044351661303e565b3480156108ca57600080fd5b50610288613281565b3480156108df57600080fd5b50610302613294565b3480156108f457600080fd5b50610909600160a060020a036004351661331b565b60408051951515865260208601949094528484019290925263ffffffff1660608401526080830152519081900360a00190f35b34801561094857600080fd5b50610909600160a060020a0360043516613354565b34801561096957600080fd5b506103e5613426565b34801561097e57600080fd5b50610302613435565b34801561099357600080fd5b506103e561343b565b3480156109a857600080fd5b5061030261344a565b3480156109bd57600080fd5b506102bd613456565b3480156109d257600080fd5b506102bd600160a060020a036004351660243560443563ffffffff606435166084356135a2565b600080610a04612636565b90508015801590610a1c575080610a1961384d565b10155b91505090565b604080516000808252602082019092527ff7ea2b80c7b6a2cab2c11d2290cb005c3748397358a25e17113658c83b73259391610a649133918491905b50612c75565b60408051808201909152600f8152600080516020615ad38339815191526020820152901515610b145760405160e560020a62461bcd0281526004018080602001828103825283818151815260200191508051906020019080838360005b83811015610ad9578181015183820152602001610ac1565b50505050905090810190601f168015610b065780820380516001836020036101000a031916815260200191505b509250505060405180910390fd5b50610b1e82613851565b60408051808201909152601681527f4d4d5f494e56414c49445f42454e4546494349415259000000000000000000006020820152901515610ba45760405160e560020a62461bcd02815260040180806020018281038252838181518152602001915080519060200190808383600083811015610ad9578181015183820152602001610ac1565b50610bae8261385f565b5050565b620f424081565b7fbfb76d8d43f55efe58544ea32af187792a7bdb983850d8fed33478266eec3cbb81565b604080516000808252602082019092527fd68ba2b769fa37a2a7bd4bed9241b448bc99eca41f519ef037406386a8f291c091610c1d913391849190610a5e565b60408051808201909152600f8152600080516020615ad38339815191526020820152901515610c915760405160e560020a62461bcd02815260040180806020018281038252838181518152602001915080519060200190808383600083811015610ad9578181015183820152602001610ac1565b5060095460408051808201909152600b81527f4d4d5f4e4f545f4f50454e00000000000000000000000000000000000000000060208201529060ff161515610d1e5760405160e560020a62461bcd02815260040180806020018281038252838181518152602001915080519060200190808383600083811015610ad9578181015183820152602001610ac1565b50610d28836138a9565b60408051808201909152601d8152600080516020615b538339815191526020820152901515610d9c5760405160e560020a62461bcd02815260040180806020018281038252838181518152602001915080519060200190808383600083811015610ad9578181015183820152602001610ac1565b50610dae610da86138c7565b846138ed565b6040805180820190915260128152600080516020615af383398151915260208201529015610e215760405160e560020a62461bcd02815260040180806020018281038252838181518152602001915080519060200190808383600083811015610ad9578181015183820152602001610ac1565b50610e2c8483613921565b60408051808201909152601681527f4d4d5f494e56414c49445f424f4e445f414d4f554e54000000000000000000006020820152901515610eb25760405160e560020a62461bcd02815260040180806020018281038252838181518152602001915080519060200190808383600083811015610ad9578181015183820152602001610ac1565b50610ebe8484846139cd565b50505050565b600d602052600090815260409020805460018201546002830154600384015460049094015460ff909316939192909190600160a060020a031685565b6000610f0a612dc5565b600160a060020a03166304bf2a7f836040518263ffffffff1660e060020a0281526004018080602001828103825283818151815260200191508051906020019080838360005b83811015610f68578181015183820152602001610f50565b50505050905090810190601f168015610f955780820380516001836020036101000a031916815260200191505b5092505050602060405180830381600087803b158015610fb457600080fd5b505af1158015610fc8573d6000803e3d6000fd5b505050506040513d6020811015610fde57600080fd5b505192915050565b600154600160a060020a031681565b7fa589c8f284b76fc8d510d9d553485c47dbef1b0745ae00e0f3fd4e28fcd77ea781565b7fe0565c2c43e0d841e206bb36a37f12f22584b4652ccee6f9e0c071b697a2e13d81565b6000611047612ed7565b600160a060020a03166332f0a3b56040518163ffffffff1660e060020a028152600401602060405180830381600087803b15801561108457600080fd5b505af1158015611098573d6000803e3d6000fd5b505050506040513d60208110156110ae57600080fd5b5051905090565b600454600160a060020a031681565b604080516000808252602082019092527fa589c8f284b76fc8d510d9d553485c47dbef1b0745ae00e0f3fd4e28fcd77ea791611104913391849190610a5e565b60408051808201909152600f8152600080516020615ad383398151915260208201529015156111785760405160e560020a62461bcd02815260040180806020018281038252838181518152602001915080519060200190808383600083811015610ad9578181015183820152602001610ac1565b5060095460408051808201909152600b81527f4d4d5f4e4f545f4f50454e00000000000000000000000000000000000000000060208201529060ff1615156112055760405160e560020a62461bcd02815260040180806020018281038252838181518152602001915080519060200190808383600083811015610ad9578181015183820152602001610ac1565b5061120f836138a9565b60408051808201909152601d8152600080516020615b5383398151915260208201529015156112835760405160e560020a62461bcd02815260040180806020018281038252838181518152602001915080519060200190808383600083811015610ad9578181015183820152602001610ac1565b5061128f610da86138c7565b6040805180820190915260128152600080516020615af3833981519152602082015290156113025760405160e560020a62461bcd02815260040180806020018281038252838181518152602001915080519060200190808383600083811015610ad9578181015183820152602001610ac1565b5061130f84848434613cce565b60408051808201909152601b81527f4d4d5f494e56414c49445f434f4c4c41544552414c5f56414c5545000000000060208201529015156113955760405160e560020a62461bcd02815260040180806020018281038252838181518152602001915080519060200190808383600083811015610ad9578181015183820152602001610ac1565b50610ebe848484613e3b565b7ff7ea2b80c7b6a2cab2c11d2290cb005c3748397358a25e17113658c83b73259381565b60095460ff1681565b600b6020526000908152604090205481565b600554600160a060020a031681565b611406600080516020615b738339815191526140b1565b6040805180820190915260198152600080516020615b13833981519152602082015290156114795760405160e560020a62461bcd02815260040180806020018281038252838181518152602001915080519060200190808383600083811015610ad9578181015183820152602001610ac1565b50611499600080516020615b73833981519152600163ffffffff6140b516565b6114a16109f9565b6040805180820190915260148152600080516020615bb383398151915260208201529015156115155760405160e560020a62461bcd02815260040180806020018281038252838181518152602001915080519060200190808383600083811015610ad9578181015183820152602001610ac1565b5061151f816138a9565b60408051808201909152601d8152600080516020615b5383398151915260208201529015156115935760405160e560020a62461bcd02815260040180806020018281038252838181518152602001915080519060200190808383600083811015610ad9578181015183820152602001610ac1565b5061159d826140b9565b60408051808201909152601181527f4d4d5f42415443485f4e4f545f4f56455200000000000000000000000000000060208201529015156116235760405160e560020a62461bcd02815260040180806020018281038252838181518152602001915080519060200190808383600083811015610ad9578181015183820152602001610ac1565b5061162e82826138ed565b6040805180820190915260128152600080516020615af3833981519152602082015290156116a15760405160e560020a62461bcd02815260040180806020018281038252838181518152602001915080519060200190808383600083811015610ad9578181015183820152602001610ac1565b506116ad8282856140cb565b6040805180820190915260138152600080516020615b9383398151915260208201529015156117215760405160e560020a62461bcd02815260040180806020018281038252838181518152602001915080519060200190808383600083811015610ad9578181015183820152602001610ac1565b5061172d838383614105565b61174c600080516020615b73833981519152600063ffffffff6140b516565b505050565b7f217b79cb2bc7760defc88529853ef81ab33ae5bb315408ce9f5af09c8776662d81565b7f5f9be2932ed3a723f295a763be1804c7ebfd1a41c1348fb8bdf5be1c5cdca82281565b60008060008060008060008060008060006117b26109f9565b6040805180820190915260148152600080516020615bb383398151915260208201529015156118265760405160e560020a62461bcd02815260040180806020018281038252838181518152602001915080519060200190808383600083811015610ad9578181015183820152602001610ac1565b50600d60008e815260200190815260200160002060050160008d600160a060020a0316600160a060020a0316815260200190815260200160002090508060000160009054906101000a900460ff168160000160019054906101000a900460ff16826001015483600201548460030160009054906101000a900463ffffffff16856004015486600501548760060154886007015489600801549a509a509a509a509a509a509a509a509a509a50509295989b9194979a5092959850565b7fefa06053e2ca99a43c97c4a4f3d8a394ee3323a8ff237e625fba09fe30ceb0a481565b604080516000808252602082019092527f5f9be2932ed3a723f295a763be1804c7ebfd1a41c1348fb8bdf5be1c5cdca82291611946913391849190610a5e565b60408051808201909152600f8152600080516020615ad383398151915260208201529015156119ba5760405160e560020a62461bcd02815260040180806020018281038252838181518152602001915080519060200190808383600083811015610ad9578181015183820152602001610ac1565b506119c483614367565b80156119d457506119d482614367565b60408051808201909152601581527f4d4d5f494e56414c49445f50455243454e5441474500000000000000000000006020820152901515611a5a5760405160e560020a62461bcd02815260040180806020018281038252838181518152602001915080519060200190808383600083811015610ad9578181015183820152602001610ac1565b5061174c8383614374565b611a6d612636565b60408051808201909152601881527f494e49545f414c52454144595f494e495449414c495a4544000000000000000060208201529015611af25760405160e560020a62461bcd02815260040180806020018281038252838181518152602001915080519060200190808383600083811015610ad9578181015183820152602001610ac1565b50611afb6143bd565b611b0488614485565b6040805180820190915260128152600080516020615b338339815191526020820152901515611b785760405160e560020a62461bcd02815260040180806020018281038252838181518152602001915080519060200190808383600083811015610ad9578181015183820152602001610ac1565b50611b8287614485565b6040805180820190915260128152600080516020615b338339815191526020820152901515611bf65760405160e560020a62461bcd02815260040180806020018281038252838181518152602001915080519060200190808383600083811015610ad9578181015183820152602001610ac1565b50611c0086614485565b6040805180820190915260128152600080516020615b338339815191526020820152901515611c745760405160e560020a62461bcd02815260040180806020018281038252838181518152602001915080519060200190808383600083811015610ad9578181015183820152602001610ac1565b50611c7e85614485565b6040805180820190915260128152600080516020615b338339815191526020820152901515611cf25760405160e560020a62461bcd02815260040180806020018281038252838181518152602001915080519060200190808383600083811015610ad9578181015183820152602001610ac1565b50611cfc84613851565b60408051808201909152601681527f4d4d5f494e56414c49445f42454e4546494349415259000000000000000000006020820152901515611d825760405160e560020a62461bcd02815260040180806020018281038252838181518152602001915080519060200190808383600083811015610ad9578181015183820152602001610ac1565b5060408051808201909152601781527f4d4d5f494e56414c49445f42415443485f424c4f434b53000000000000000000602082015260008411611e0a5760405160e560020a62461bcd02815260040180806020018281038252838181518152602001915080519060200190808383600083811015610ad9578181015183820152602001610ac1565b50611e1482614367565b8015611e245750611e2481614367565b60408051808201909152601581527f4d4d5f494e56414c49445f50455243454e5441474500000000000000000000006020820152901515611eaa5760405160e560020a62461bcd02815260040180806020018281038252838181518152602001915080519060200190808383600083811015610ad9578181015183820152602001610ac1565b50611eb4876144b2565b60408051808201909152601581527f4d4d5f494e56414c49445f544d5f53455454494e4700000000000000000000006020820152901515611f3a5760405160e560020a62461bcd02815260040180806020018281038252838181518152602001915080519060200190808383600083811015610ad9578181015183820152602001610ac1565b5060008054600160a060020a03808b16600160a060020a0319928316178355600180548b831693169290921791829055604080517ffc0c546a0000000000000000000000000000000000000000000000000000000081529051929091169263fc0c546a926004808401936020939083900390910190829087803b158015611fc057600080fd5b505af1158015611fd4573d6000803e3d6000fd5b505050506040513d6020811015611fea57600080fd5b505160028054600160a060020a03928316600160a060020a03199182161790915560058054988316988216989098179097556003805496821696881696909617909555600480549490951693909516929092179092556006919091556007556008555050565b612067600080516020615b738339815191526140b1565b6040805180820190915260198152600080516020615b13833981519152602082015290156120da5760405160e560020a62461bcd02815260040180806020018281038252838181518152602001915080519060200190808383600083811015610ad9578181015183820152602001610ac1565b506120fa600080516020615b73833981519152600163ffffffff6140b516565b6121026109f9565b6040805180820190915260148152600080516020615bb383398151915260208201529015156121765760405160e560020a62461bcd02815260040180806020018281038252838181518152602001915080519060200190808383600083811015610ad9578181015183820152602001610ac1565b50612180816138a9565b60408051808201909152601d8152600080516020615b5383398151915260208201529015156121f45760405160e560020a62461bcd02815260040180806020018281038252838181518152602001915080519060200190808383600083811015610ad9578181015183820152602001610ac1565b506121fe826140b9565b60408051808201909152601181527f4d4d5f42415443485f4e4f545f4f56455200000000000000000000000000000060208201529015156122845760405160e560020a62461bcd02815260040180806020018281038252838181518152602001915080519060200190808383600083811015610ad9578181015183820152602001610ac1565b5061228f82826138ed565b6040805180820190915260128152600080516020615af3833981519152602082015290156123025760405160e560020a62461bcd02815260040180806020018281038252838181518152602001915080519060200190808383600083811015610ad9578181015183820152602001610ac1565b5061230e828285614528565b6040805180820190915260138152600080516020615b9383398151915260208201529015156123825760405160e560020a62461bcd02815260040180806020018281038252838181518152602001915080519060200190808383600083811015610ad9578181015183820152602001610ac1565b5061172d838383614562565b60085481565b600061239e6109f9565b6040805180820190915260148152600080516020615bb383398151915260208201529015156124125760405160e560020a62461bcd02815260040180806020018281038252838181518152602001915080519060200190808383600083811015610ad9578181015183820152602001610ac1565b5061241e8484846146bc565b90505b9392505050565b50600190565b60006124597fd625496217aa6a3453eecb9c3489dc5a53e6c67b444329ea2b2cbc9ff547639b6140b1565b905090565b604080516000808252602082019092527fe0565c2c43e0d841e206bb36a37f12f22584b4652ccee6f9e0c071b697a2e13d9161249e913391849190610a5e565b60408051808201909152600f8152600080516020615ad383398151915260208201529015156125125760405160e560020a62461bcd02815260040180806020018281038252838181518152602001915080519060200190808383600083811015610ad9578181015183820152602001610ac1565b5061251c866138a9565b60408051808201909152601d8152600080516020615b5383398151915260208201529015156125905760405160e560020a62461bcd02815260040180806020018281038252838181518152602001915080519060200190808383600083811015610ad9578181015183820152602001610ac1565b5061259a836146e5565b60408051808201909152601881527f4d4d5f494e56414c49445f524553455256455f524154494f000000000000000060208201529015156126205760405160e560020a62461bcd02815260040180806020018281038252838181518152602001915080519060200190808383600083811015610ad9578181015183820152602001610ac1565b5061262e86868686866146f7565b505050505050565b60006124597febb05b386a8d34882b8711d156f463690983dc47815980fb82aeeff1aa43579e6140b1565b612678600080516020615b738339815191526140b1565b6040805180820190915260198152600080516020615b13833981519152602082015290156126eb5760405160e560020a62461bcd02815260040180806020018281038252838181518152602001915080519060200190808383600083811015610ad9578181015183820152602001610ac1565b5061270b600080516020615b73833981519152600163ffffffff6140b516565b6127136109f9565b6040805180820190915260148152600080516020615bb383398151915260208201529015156127875760405160e560020a62461bcd02815260040180806020018281038252838181518152602001915080519060200190808383600083811015610ad9578181015183820152602001610ac1565b5061279282826138ed565b60408051808201909152601681527f4d4d5f42415443485f4e4f545f43414e43454c4c45440000000000000000000060208201529015156128185760405160e560020a62461bcd02815260040180806020018281038252838181518152602001915080519060200190808383600083811015610ad9578181015183820152602001610ac1565b50612824828285614528565b6040805180820190915260138152600080516020615b9383398151915260208201529015156128985760405160e560020a62461bcd02815260040180806020018281038252838181518152602001915080519060200190808383600083811015610ad9578181015183820152602001610ac1565b5061172d838383614791565b604080516000808252602082019092527f2044e56de223845e4be7d0a6f4e9a29b635547f16413a6d1327c58d9db438ee2916128e4913391849190610a5e565b60408051808201909152600f8152600080516020615ad383398151915260208201529015156129585760405160e560020a62461bcd02815260040180806020018281038252838181518152602001915080519060200190808383600083811015610ad9578181015183820152602001610ac1565b50612962826138a9565b60408051808201909152601d8152600080516020615b5383398151915260208201529015156129d65760405160e560020a62461bcd02815260040180806020018281038252838181518152602001915080519060200190808383600083811015610ad9578181015183820152602001610ac1565b50610bae826148dd565b600a5481565b60008060006129f484612428565b60408051808201909152601281527f5245434f5645525f444953414c4c4f57454400000000000000000000000000006020820152901515612a7a5760405160e560020a62461bcd02815260040180806020018281038252838181518152602001915080519060200190808383600083811015610ad9578181015183820152602001610ac1565b50612a8361103d565b9250612a8e83614485565b60408051808201909152601a81527f5245434f5645525f5641554c545f4e4f545f434f4e54524143540000000000006020820152901515612b145760405160e560020a62461bcd02815260040180806020018281038252838181518152602001915080519060200190808383600083811015610ad9578181015183820152602001610ac1565b50600160a060020a0384161515612b655760405130319250600160a060020a0384169083156108fc029084906000818181858888f19350505050158015612b5f573d6000803e3d6000fd5b50612c24565b5082612b80600160a060020a0382163063ffffffff61495a16565b9150612b9c600160a060020a038216848463ffffffff614a5a16565b60408051808201909152601d81527f5245434f5645525f544f4b454e5f5452414e534645525f4641494c45440000006020820152901515612c225760405160e560020a62461bcd02815260040180806020018281038252838181518152602001915080519060200190808383600083811015610ad9578181015183820152602001610ac1565b505b83600160a060020a031683600160a060020a03167f596caf56044b55fb8c4ca640089bbc2b63cae3e978b851f5745cbb7c5b288e02846040518082815260200191505060405180910390a350505050565b600080612c806109f9565b1515612c8f5760009150612dbd565b612c97612ed7565b9050600160a060020a0381161515612cb25760009150612dbd565b80600160a060020a031663fdef9106863087612ccd88614ad0565b60405160e060020a63ffffffff8716028152600160a060020a03808616600483019081529085166024830152604482018490526080606483019081528351608484015283519192909160a490910190602085019080838360005b83811015612d3f578181015183820152602001612d27565b50505050905090810190601f168015612d6c5780820380516001836020036101000a031916815260200191505b5095505050505050602060405180830381600087803b158015612d8e57600080fd5b505af1158015612da2573d6000803e3d6000fd5b505050506040513d6020811015612db857600080fd5b505191505b509392505050565b600080612dd0612ed7565b604080517fbe00bbd80000000000000000000000000000000000000000000000000000000081527fd6f028ca0e8edb4a8c9757ca4fdccab25fa1e0317da1188108f7d2dee14902fb60048201527fddbcfd564f642ab5627cf68b9b7d374fb4f8a36e941a75d89c87998cef03bd6160248201529051600160a060020a03929092169163be00bbd8916044808201926020929091908290030181600087803b158015610fb457600080fd5b7f2044e56de223845e4be7d0a6f4e9a29b635547f16413a6d1327c58d9db438ee281565b60065481565b600354600160a060020a031681565b7fd68ba2b769fa37a2a7bd4bed9241b448bc99eca41f519ef037406386a8f291c081565b60006124597f4172f0f7d2289153072b0a6ca36959e0cbe2efc3afe50fc81636caa96338137b6140b1565b604080516000808252602082019092527fbfb76d8d43f55efe58544ea32af187792a7bdb983850d8fed33478266eec3cbb91612f42913391849190610a5e565b60408051808201909152600f8152600080516020615ad38339815191526020820152901515612fb65760405160e560020a62461bcd02815260040180806020018281038252838181518152602001915080519060200190808383600083811015610ad9578181015183820152602001610ac1565b50612fc082614485565b6040805180820190915260128152600080516020615b3383398151915260208201529015156130345760405160e560020a62461bcd02815260040180806020018281038252838181518152602001915080519060200190808383600083811015610ad9578181015183820152602001610ac1565b50610bae82614ada565b613055600080516020615b738339815191526140b1565b6040805180820190915260198152600080516020615b13833981519152602082015290156130c85760405160e560020a62461bcd02815260040180806020018281038252838181518152602001915080519060200190808383600083811015610ad9578181015183820152602001610ac1565b506130e8600080516020615b73833981519152600163ffffffff6140b516565b6130f06109f9565b6040805180820190915260148152600080516020615bb383398151915260208201529015156131645760405160e560020a62461bcd02815260040180806020018281038252838181518152602001915080519060200190808383600083811015610ad9578181015183820152602001610ac1565b5061316f82826138ed565b60408051808201909152601681527f4d4d5f42415443485f4e4f545f43414e43454c4c45440000000000000000000060208201529015156131f55760405160e560020a62461bcd02815260040180806020018281038252838181518152602001915080519060200190808383600083811015610ad9578181015183820152602001610ac1565b506132018282856140cb565b6040805180820190915260138152600080516020615b9383398151915260208201529015156132755760405160e560020a62461bcd02815260040180806020018281038252838181518152602001915080519060200190808383600083811015610ad9578181015183820152602001610ac1565b5061172d838383614b24565b600060001961328e612636565b14905090565b600061329e6109f9565b6040805180820190915260148152600080516020615bb383398151915260208201529015156133125760405160e560020a62461bcd02815260040180806020018281038252838181518152602001915080519060200190808383600083811015610ad9578181015183820152602001610ac1565b506124596138c7565b600c602052600090815260409020805460018201546002830154600384015460049094015460ff909316939192909163ffffffff169085565b6000806000806000806133656109f9565b6040805180820190915260148152600080516020615bb383398151915260208201529015156133d95760405160e560020a62461bcd02815260040180806020018281038252838181518152602001915080519060200190808383600083811015610ad9578181015183820152602001610ac1565b50505050600160a060020a03939093166000908152600c60205260409020805460018201546002830154600384015460049094015460ff90931697919650945063ffffffff909216925090565b600054600160a060020a031681565b60075481565b600254600160a060020a031681565b670de0b6b3a764000081565b604080516000808252602082019092527fefa06053e2ca99a43c97c4a4f3d8a394ee3323a8ff237e625fba09fe30ceb0a491613496913391849190610a5e565b60408051808201909152600f8152600080516020615ad3833981519152602082015290151561350a5760405160e560020a62461bcd02815260040180806020018281038252838181518152602001915080519060200190808383600083811015610ad9578181015183820152602001610ac1565b5060095460408051808201909152600f81527f4d4d5f414c52454144595f4f50454e000000000000000000000000000000000060208201529060ff16156135965760405160e560020a62461bcd02815260040180806020018281038252838181518152602001915080519060200190808383600083811015610ad9578181015183820152602001610ac1565b5061359f614c43565b50565b604080516000808252602082019092527f217b79cb2bc7760defc88529853ef81ab33ae5bb315408ce9f5af09c8776662d916135e2913391849190610a5e565b60408051808201909152600f8152600080516020615ad383398151915260208201529015156136565760405160e560020a62461bcd02815260040180806020018281038252838181518152602001915080519060200190808383600083811015610ad9578181015183820152602001610ac1565b5061366086614485565b806136725750600160a060020a038616155b60408051808201909152601581527f4d4d5f494e56414c49445f434f4c4c41544552414c000000000000000000000060208201529015156136f85760405160e560020a62461bcd02815260040180806020018281038252838181518152602001915080519060200190808383600083811015610ad9578181015183820152602001610ac1565b50613702866138a9565b60408051606081018252602181527f4d4d5f434f4c4c41544552414c5f414c52454144595f57484954454c4953544560208201527f44000000000000000000000000000000000000000000000000000000000000009181019190915290156137af5760405160e560020a62461bcd02815260040180806020018281038252838181518152602001915080519060200190808383600083811015610ad9578181015183820152602001610ac1565b506137b9836146e5565b60408051808201909152601881527f4d4d5f494e56414c49445f524553455256455f524154494f0000000000000000602082015290151561383f5760405160e560020a62461bcd02815260040180806020018281038252838181518152602001915080519060200190808383600083811015610ad9578181015183820152602001610ac1565b5061262e8686868686614c7b565b4390565b600160a060020a0316151590565b60048054600160a060020a031916600160a060020a0383169081179091556040517fe6131a64e93e9aa4ff38892c34d563c06dcc1e03b3d6897cc65f0903e2ad684890600090a250565b600160a060020a03166000908152600c602052604090205460ff1690565b600654600090612459906138e1438263ffffffff614d1c16565b9063ffffffff614dc116565b6000918252600d60209081526040808420600160a060020a0393909316845260059092019052902054610100900460ff1690565b600081158015906124215750600154604080517f0f8f8b83000000000000000000000000000000000000000000000000000000008152600160a060020a038681166004830152915185939290921691630f8f8b83916024808201926020929091908290030181600087803b15801561399857600080fd5b505af11580156139ac573d6000803e3d6000fd5b505050506040513d60208110156139c257600080fd5b505110159392505050565b6000806000806139dc86614e6c565b600154604080517f9dc29fac000000000000000000000000000000000000000000000000000000008152600160a060020a038c81166004830152602482018b905291519498509296501691639dc29fac9160448082019260009290919082900301818387803b158015613a4e57600080fd5b505af1158015613a62573d6000803e3d6000fd5b5050506006840154600885015460078601549194509250613a8a91508663ffffffff6151e916565b6007840155600160a060020a0387166000908152600a84016020526040902054613aba908663ffffffff6151e916565b600160a060020a0388166000908152600a85016020526040902055613ae0838588615277565b613b098360060154613afd84600a5461559190919063ffffffff16565b9063ffffffff6151e916565b600a556008830154600160a060020a0387166000908152600b6020526040902054613b3f9190613afd908463ffffffff61559116565b600160a060020a0387166000908152600b6020526040902055613b628387615625565b60408051808201909152601981527f4d4d5f534c4950504147455f455843454544535f4c494d4954000000000000006020820152901515613be85760405160e560020a62461bcd02815260040180806020018281038252838181518152602001915080519060200190808383600083811015610ad9578181015183820152602001610ac1565b50613bf28661568f565b60408051808201909152601c81527f4d4d5f494e53554646494349454e545f504f4f4c5f42414c414e4345000000006020820152901515613c785760405160e560020a62461bcd02815260040180806020018281038252838181518152602001915080519060200190808383600083811015610ad9578181015183820152602001610ac1565b5085600160a060020a03168488600160a060020a03167f8c103b7b044048ad0382ad31454a2ca34da952258d6526af3a57a9e799cbb7ec886040518082815260200191505060405180910390a450505050505050565b6000821515613cdf57506000613e33565b600160a060020a0384161515613cf85750808214613e33565b81158015613d8f5750600080546040805160e260020a633de222bb028152600160a060020a038981166004830152888116602483015291518794929093169263f7888aec92604480840193602093929083900390910190829087803b158015613d6057600080fd5b505af1158015613d74573d6000803e3d6000fd5b505050506040513d6020811015613d8a57600080fd5b505110155b8015613e305750604080517fdd62ed3e000000000000000000000000000000000000000000000000000000008152600160a060020a0387811660048301523060248301529151859287169163dd62ed3e9160448083019260209291908290030181600087803b158015613e0157600080fd5b505af1158015613e15573d6000803e3d6000fd5b505050506040513d6020811015613e2b57600080fd5b505110155b90505b949350505050565b600080600080600080613e4d88614e6c565b6000828152600d60205260409020600201549197509550613e8f90670de0b6b3a764000090613e83908a9063ffffffff614dc116565b9063ffffffff614d1c16565b9350613ea1878563ffffffff61559116565b92506000841115613ec557600454613ec5908a90600160a060020a03168a87615731565b600354613ede908a90600160a060020a03168a86615731565b5050600683015460088401546005850154613eff908463ffffffff6151e916565b6005860155600160a060020a0389166000908152600986016020526040902054613f2f908463ffffffff6151e916565b600160a060020a038a166000908152600987016020526040902055613f5585878a615277565b613f728560060154613afd84600a5461559190919063ffffffff16565b600a556008850154600160a060020a0389166000908152600b6020526040902054613fa89190613afd908463ffffffff61559116565b600160a060020a0389166000908152600b6020526040902055613fcb8589615625565b60408051808201909152601981527f4d4d5f534c4950504147455f455843454544535f4c494d49540000000000000060208201529015156140515760405160e560020a62461bcd02815260040180806020018281038252838181518152602001915080519060200190808383600083811015610ad9578181015183820152602001610ac1565b5087600160a060020a0316868a600160a060020a03167fecab89c21a18231f17bff6027decbe0682bc9916e969562a87781927b18b2e4d8787604051808381526020018281526020019250505060405180910390a4505050505050505050565b5490565b9055565b60006140c36138c7565b909110919050565b6000928352600d60209081526040808520600160a060020a0394851686526005018252808520929093168452600a90910190528120541190565b6000828152600d60209081526040808320600160a060020a03808616855260059091018352818420600781015460088201549289168652600a820190945291842054919392839283926141629291613e839163ffffffff614dc116565b6000878152600d602052604090206003015490935061419690670de0b6b3a764000090613e8390869063ffffffff614dc116565b91506141a8838363ffffffff61559116565b600160a060020a0388166000908152600a86016020526040812081905590915081111561428357600160a060020a0385166000908152600b60205260409020546141f8908463ffffffff61559116565b600160a060020a038087166000818152600b602052604080822094909455600354845160e360020a6317d5759902815260048101939093528b84166024840152604483018690529351939092169263beabacc89260648084019391929182900301818387803b15801561426a57600080fd5b505af115801561427e573d6000803e3d6000fd5b505050505b600082111561430a57600354600480546040805160e360020a6317d57599028152600160a060020a038a81169482019490945291831660248301526044820186905251919092169163beabacc891606480830192600092919082900301818387803b1580156142f157600080fd5b505af1158015614305573d6000803e3d6000fd5b505050505b84600160a060020a03168688600160a060020a03167f0eca047a22717e04fff16b883e2490c1490c953ec49bf7af9270fffddd8b53028585604051808381526020018281526020019250505060405180910390a450505050505050565b670de0b6b3a76400001190565b60078290556008819055604080518381526020810183905281517f53482196ef67ac615caab1c3eca2c270acbfdcd75e57c5f24c1b98b10c8e6e04929181900390910190a15050565b6143c5612636565b60408051808201909152601881527f494e49545f414c52454144595f494e495449414c495a454400000000000000006020820152901561444a5760405160e560020a62461bcd02815260040180806020018281038252838181518152602001915080519060200190808383600083811015610ad9578181015183820152602001610ac1565b5061448361445661384d565b7febb05b386a8d34882b8711d156f463690983dc47815980fb82aeeff1aa43579e9063ffffffff6140b516565b565b600080600160a060020a03831615156144a157600091506144ac565b823b90506000811191505b50919050565b600060001982600160a060020a031663ecfda4326040518163ffffffff1660e060020a028152600401602060405180830381600087803b1580156144f557600080fd5b505af1158015614509573d6000803e3d6000fd5b505050506040513d602081101561451f57600080fd5b50511492915050565b6000928352600d60209081526040808520600160a060020a0394851686526005018252808520929093168452600990910190528120541190565b6000828152600d60209081526040808320600160a060020a03808616855260059182018452828520918201546006830154918916865260098301909452918420549093926145bb929091613e839163ffffffff614dc116565b600160a060020a0386166000908152600984016020526040812081905590915081111561466957600a546145f5908263ffffffff61559116565b600a556001546040805160e060020a6340c10f19028152600160a060020a03888116600483015260248201859052915191909216916340c10f1991604480830192600092919082900301818387803b15801561465057600080fd5b505af1158015614664573d6000803e3d6000fd5b505050505b82600160a060020a03168486600160a060020a03167f1d3062ef0b6bc8ec6a09d7a72a4f2f8c332a0a1055605166c7ae24592c33a50b846040518082815260200191505060405180910390a45050505050565b600061241e6146d48563ffffffff80861690614dc116565b613e83856138e1620f424080614dc1565b620f424063ffffffff82161115919050565b600160a060020a0385166000818152600c6020908152604091829020600181018890556002810187905560038101805463ffffffff881663ffffffff19909116811790915560049091018590558251888152918201879052818301526060810184905290517f1b8a18e7f392180ec571af2dd1c185cbc26951042ba1f62e87db979ee7643a2c9181900360800190a25050505050565b5490565b6000828152600d60209081526040808320600160a060020a038086168552600590910183528184209087168452600981019092528220805490839055909181111561488a57600160a060020a0383166000908152600b60205260409020546147ff908263ffffffff61559116565b600160a060020a038085166000818152600b602052604080822094909455600354845160e360020a6317d5759902815260048101939093528984166024840152604483018690529351939092169263beabacc89260648084019391929182900301818387803b15801561487157600080fd5b505af1158015614885573d6000803e3d6000fd5b505050505b82600160a060020a03168486600160a060020a03167feb3996b71a45309a78196a4ec37faf4860dccc26536b7f6232e078b47baf2cb8846040518082815260200191505060405180910390a45050505050565b60006148e882615829565b50600160a060020a0381166000818152600c6020526040808220805460ff19168155600181018390556002810183905560038101805463ffffffff191690556004810183905590519092917fef578b3b1649eb50cb7766e79f596caa69b7de7e3fef0c0f4e678976a5d51e1591a25050565b60408051600160a060020a038316602480830191909152825180830390910181526044909101909152602081018051600160e060020a03167f70a082310000000000000000000000000000000000000000000000000000000017905260009081806149c58684615900565b60408051808201909152601c81527f534146455f4552435f32305f42414c414e43455f52455645525445440000000060208201529193509150821515614a505760405160e560020a62461bcd02815260040180806020018281038252838181518152602001915080519060200190808383600083811015610ad9578181015183820152602001610ac1565b5095945050505050565b60408051600160a060020a03841660248201526044808201849052825180830390910181526064909101909152602081018051600160e060020a03167fa9059cbb00000000000000000000000000000000000000000000000000000000179052600090614ac78582615931565b95945050505050565b8051602002815290565b60058054600160a060020a031916600160a060020a0383169081179091556040517f050a79a49cc1dc3aeeccd8636685ad0469db41a9bd51254a34fc1cf616693d4190600090a250565b6000828152600d60209081526040808320600160a060020a038086168552600590910183528184209087168452600a810190925282208054908390559091811115614bf057600a54614b7c908263ffffffff61559116565b600a556001546040805160e060020a6340c10f19028152600160a060020a03888116600483015260248201859052915191909216916340c10f1991604480830192600092919082900301818387803b158015614bd757600080fd5b505af1158015614beb573d6000803e3d6000fd5b505050505b82600160a060020a03168486600160a060020a03167f27335af9c3970a20380b78bda3af53f3ff8ad00e68ec511285c933afe4d42dd7846040518082815260200191505060405180910390a45050505050565b6009805460ff191660011790556040517f59ebeb90bc63057b6515673c3ecf9438e5058bca0f92585014eced636878c9a590600090a1565b600160a060020a0385166000818152600c6020908152604091829020805460ff19166001908117825581018890556002810187905560038101805463ffffffff881663ffffffff19909116811790915560049091018590558251888152918201879052818301526060810184905290517f769df79ace8fd94960b301fa390e66bcd330b25e4a6001f7107540a6d5e55eed9181900360800190a25050505050565b60408051808201909152600d81527f4d4154485f4449565f5a45524f0000000000000000000000000000000000000060208201526000908190818411614da75760405160e560020a62461bcd02815260040180806020018281038252838181518152602001915080519060200190808383600083811015610ad9578181015183820152602001610ac1565b508284811515614db357fe5b0490508091505b5092915050565b600080831515614dd45760009150614dba565b50828202828482811515614de457fe5b60408051808201909152601181527f4d4154485f4d554c5f4f564552464c4f5700000000000000000000000000000060208201529291900414612dbd5760405160e560020a62461bcd02815260040180806020018281038252838181518152602001915080519060200190808383600083811015610ad9578181015183820152602001610ac1565b6000806000806000614e7c6138c7565b6000818152600d60209081526040808320600160a060020a038b168452600581019092529091208154929550909350915060ff161515614feb57600a54600254604080517f18160ddd0000000000000000000000000000000000000000000000000000000081529051614f539392600160a060020a0316916318160ddd9160048083019260209291908290030181600087803b158015614f1b57600080fd5b505af1158015614f2f573d6000803e3d6000fd5b505050506040513d6020811015614f4557600080fd5b50519063ffffffff6151e916565b60018084018290556007546002850181905560085460038601819055600554600487018054600160a060020a031916600160a060020a039283161790819055875460ff19169094178755604080519586526020860193909352848301919091529190911660608301525184917f78ac2fc513d7c0ec8ae43a339f0da247ef78f9db22b6d6769163943f05c1a7fe919081900360800190a25b805460ff1615156151dd5760008054604080517f846a0a89000000000000000000000000000000000000000000000000000000008152600160a060020a038a811660048301529151919092169263846a0a89926024808201939182900301818387803b15801561505a57600080fd5b505af115801561506e573d6000803e3d6000fd5b50505050600160a060020a0386166000908152600c602052604090206001908101549083015461509d916151e9565b6001820155600160a060020a038087166000818152600b6020908152604080832054600c8352818420600201548454600354845160e260020a633de222bb028152908916600482015260248101979097529251615133979296615127969295949093169363f7888aec93604480820194929392918390030190829087803b158015614f1b57600080fd5b9063ffffffff61559116565b60028201819055600160a060020a0387166000818152600c6020908152604091829020600380820154908701805463ffffffff191663ffffffff9283161790819055600492830154928801839055875460ff1916600190811789558801548551908152938401969096529490941681830152606081019390935251909185917f4bdd04ed9d5392ce48b8fc80abc6fdc0916ce12072be2d571c2d482416349a389181900360800190a35b91959194509092505050565b60408051808201909152601181527f4d4154485f4144445f4f564552464c4f5700000000000000000000000000000060208201526000908383019084821015612dbd5760405160e560020a62461bcd02815260040180806020018281038252838181518152602001915080519060200190808383600083811015610ad9578181015183820152602001610ac1565b6000806000806000806152a789600101548a600201548b60030160009054906101000a900463ffffffff166146bc565b60078a01549096506152c290620f424090613e839089614dc1565b945088600501548511156154055760058901546152e8908790613e8390620f4240614dc1565b60068a0181905560078a01546153039163ffffffff61559116565b9350600d600089815260200190815260200160002060040160009054906101000a9004600160a060020a0316600160a060020a03166349f9b0f78a600101548b600201548c60030160009054906101000a900463ffffffff16886040518563ffffffff1660e060020a028152600401808581526020018481526020018363ffffffff1663ffffffff168152602001828152602001945050505050602060405180830381600087803b1580156153b757600080fd5b505af11580156153cb573d6000803e3d6000fd5b505050506040513d60208110156153e157600080fd5b505160058a01549093506153fb908463ffffffff6151e916565b60088a015561551f565b600889018590556005890154615421908663ffffffff61559116565b9150600d600089815260200190815260200160002060040160009054906101000a9004600160a060020a0316600160a060020a03166329a00e7c8a600101548b600201548c60030160009054906101000a900463ffffffff16866040518563ffffffff1660e060020a028152600401808581526020018481526020018363ffffffff1663ffffffff168152602001828152602001945050505050602060405180830381600087803b1580156154d557600080fd5b505af11580156154e9573d6000803e3d6000fd5b505050506040513d60208110156154ff57600080fd5b505160078a0154909150615519908263ffffffff6151e916565b60068a01555b600589015460068a015460078b015460088c015460408051948552602085019390935283830191909152606083015251600160a060020a038916918a917f365713522b06a53828592398186ff46abd75365ace3b70c1fad31872ae5da2229181900360800190a3505050505050505050565b60408051808201909152601281527f4d4154485f5355425f554e444552464c4f570000000000000000000000000000602082015260009081908484111561561d5760405160e560020a62461bcd02815260040180806020018281038252838181518152602001915080519060200190808383600083811015610ad9578181015183820152602001610ac1565b505050900390565b6001820154600283015460038401546000928392839261564c92919063ffffffff166146bc565b91508460040154905081600014156156675760019250615687565b61567285838361597f565b801561568457506156848583836159e9565b92505b505092915050565b600160a060020a038082166000818152600b60209081526040808320548354600354835160e260020a633de222bb0281529088166004820152602481019690965291519395909491169263f7888aec9260448084019391929182900301818887803b1580156156fd57600080fd5b505af1158015615711573d6000803e3d6000fd5b505050506040513d602081101561572757600080fd5b5051101592915050565b600160a060020a038216151561577d57604051600160a060020a0384169082156108fc029083906000818181858888f19350505050158015615777573d6000803e3d6000fd5b50610ebe565b615798600160a060020a03831685858463ffffffff615a5316565b60408051808201909152601781527f4d4d5f5452414e534645525f46524f4d5f4641494c4544000000000000000000602082015290151561581e5760405160e560020a62461bcd02815260040180806020018281038252838181518152602001915080519060200190808383600083811015610ad9578181015183820152602001610ac1565b5050505050565b9055565b60008061583583614e6c565b80549193509150610100900460ff16151561174c57805461ff00191661010017815560078101546006820154600a546158799291613afd919063ffffffff61559116565b600a5560088101546005820154600160a060020a0385166000908152600b60205260409020546158b49291615127919063ffffffff6151e916565b600160a060020a0384166000818152600b6020526040808220939093559151909184917f75fe92dc34008d900951376546f4b5a99223fe53a5241a96516002ad912029e19190a3505050565b6000806000806040516020818751602089018a5afa9250600083111561592557805191505b50909590945092505050565b6000806040516020818551602087016000895af16000811115615975573d8015615962576020811461596b57615973565b60019350615973565b600183511493505b505b5090949350505050565b60058301546000906159a290620f4240906138e190670de0b6b3a7640000614dc1565b6159d26159bd670de0b6b3a76400008563ffffffff6151e916565b60068701546138e1908763ffffffff614dc116565b106159df57506001612421565b5060009392505050565b6000670de0b6b3a76400008210615a0257506001612421565b6007840154615a33906138e1615a26670de0b6b3a76400008663ffffffff61559116565b869063ffffffff614dc116565b60088501546159d290620f4240906138e190670de0b6b3a7640000614dc1565b60408051600160a060020a038581166024830152841660448201526064808201849052825180830390910181526084909101909152602081018051600160e060020a03167f23b872dd00000000000000000000000000000000000000000000000000000000179052600090615ac88682615931565b969550505050505056004150505f415554485f4641494c454400000000000000000000000000000000004d4d5f42415443485f43414e43454c4c454400000000000000000000000000005245454e5452414e43595f5245454e5452414e545f43414c4c000000000000004d4d5f434f4e54524143545f49535f454f4100000000000000000000000000004d4d5f434f4c4c41544552414c5f4e4f545f57484954454c4953544544000000e855346402235fdd185c890e68d2c4ecad599b88587635ee285bce2fda58dacb4d4d5f4e4f5448494e475f544f5f434c41494d00000000000000000000000000494e49545f4e4f545f494e495449414c495a4544000000000000000000000000a165627a7a7230582048d63069fcf7982ab73471225cd641bb11cdbbfa9c5043bde6dc569d752151b30029ebb05b386a8d34882b8711d156f463690983dc47815980fb82aeeff1aa43579e",
  "source": "pragma solidity 0.4.24;\n\nimport \"@aragon/os/contracts/apps/AragonApp.sol\";\nimport \"@aragon/os/contracts/common/EtherTokenConstant.sol\";\nimport \"@aragon/os/contracts/common/IsContract.sol\";\nimport \"@aragon/os/contracts/common/SafeERC20.sol\";\nimport \"@aragon/os/contracts/lib/math/SafeMath.sol\";\nimport \"@aragon/os/contracts/lib/token/ERC20.sol\";\nimport \"@aragon/apps-token-manager/contracts/TokenManager.sol\";\nimport \"@aragon/apps-vault/contracts/Vault.sol\";\nimport \"@ablack/fundraising-bancor-formula/contracts/BancorFormula.sol\";\nimport \"@ablack/fundraising-shared-interfaces/contracts/IAragonFundraisingController.sol\";\n\n\ncontract BatchedBancorMarketMaker is EtherTokenConstant, IsContract, AragonApp {\n    using SafeERC20 for ERC20;\n    using SafeMath  for uint256;\n\n    /**\n    Hardcoded constants to save gas\n    bytes32 public constant OPEN_ROLE                    = keccak256(\"OPEN_ROLE\");\n    bytes32 public constant UPDATE_FORMULA_ROLE          = keccak256(\"UPDATE_FORMULA_ROLE\");\n    bytes32 public constant UPDATE_BENEFICIARY_ROLE      = keccak256(\"UPDATE_BENEFICIARY_ROLE\");\n    bytes32 public constant UPDATE_FEES_ROLE             = keccak256(\"UPDATE_FEES_ROLE\");\n    bytes32 public constant ADD_COLLATERAL_TOKEN_ROLE    = keccak256(\"ADD_COLLATERAL_TOKEN_ROLE\");\n    bytes32 public constant REMOVE_COLLATERAL_TOKEN_ROLE = keccak256(\"REMOVE_COLLATERAL_TOKEN_ROLE\");\n    bytes32 public constant UPDATE_COLLATERAL_TOKEN_ROLE = keccak256(\"UPDATE_COLLATERAL_TOKEN_ROLE\");\n    bytes32 public constant OPEN_BUY_ORDER_ROLE          = keccak256(\"OPEN_BUY_ORDER_ROLE\");\n    bytes32 public constant OPEN_SELL_ORDER_ROLE         = keccak256(\"OPEN_SELL_ORDER_ROLE\");\n    */\n    bytes32 public constant OPEN_ROLE                    = 0xefa06053e2ca99a43c97c4a4f3d8a394ee3323a8ff237e625fba09fe30ceb0a4;\n    bytes32 public constant UPDATE_FORMULA_ROLE          = 0xbfb76d8d43f55efe58544ea32af187792a7bdb983850d8fed33478266eec3cbb;\n    bytes32 public constant UPDATE_BENEFICIARY_ROLE      = 0xf7ea2b80c7b6a2cab2c11d2290cb005c3748397358a25e17113658c83b732593;\n    bytes32 public constant UPDATE_FEES_ROLE             = 0x5f9be2932ed3a723f295a763be1804c7ebfd1a41c1348fb8bdf5be1c5cdca822;\n    bytes32 public constant ADD_COLLATERAL_TOKEN_ROLE    = 0x217b79cb2bc7760defc88529853ef81ab33ae5bb315408ce9f5af09c8776662d;\n    bytes32 public constant REMOVE_COLLATERAL_TOKEN_ROLE = 0x2044e56de223845e4be7d0a6f4e9a29b635547f16413a6d1327c58d9db438ee2;\n    bytes32 public constant UPDATE_COLLATERAL_TOKEN_ROLE = 0xe0565c2c43e0d841e206bb36a37f12f22584b4652ccee6f9e0c071b697a2e13d;\n    bytes32 public constant OPEN_BUY_ORDER_ROLE          = 0xa589c8f284b76fc8d510d9d553485c47dbef1b0745ae00e0f3fd4e28fcd77ea7;\n    bytes32 public constant OPEN_SELL_ORDER_ROLE         = 0xd68ba2b769fa37a2a7bd4bed9241b448bc99eca41f519ef037406386a8f291c0;\n\n    uint256 public constant PCT_BASE = 10 ** 18; // 0% = 0; 1% = 10 ** 16; 100% = 10 ** 18\n    uint32  public constant PPM      = 1000000;\n\n    string private constant ERROR_CONTRACT_IS_EOA                = \"MM_CONTRACT_IS_EOA\";\n    string private constant ERROR_INVALID_BENEFICIARY            = \"MM_INVALID_BENEFICIARY\";\n    string private constant ERROR_INVALID_BATCH_BLOCKS           = \"MM_INVALID_BATCH_BLOCKS\";\n    string private constant ERROR_INVALID_PERCENTAGE             = \"MM_INVALID_PERCENTAGE\";\n    string private constant ERROR_INVALID_RESERVE_RATIO          = \"MM_INVALID_RESERVE_RATIO\";\n    string private constant ERROR_INVALID_TM_SETTING             = \"MM_INVALID_TM_SETTING\";\n    string private constant ERROR_INVALID_COLLATERAL             = \"MM_INVALID_COLLATERAL\";\n    string private constant ERROR_INVALID_COLLATERAL_VALUE       = \"MM_INVALID_COLLATERAL_VALUE\";\n    string private constant ERROR_INVALID_BOND_AMOUNT            = \"MM_INVALID_BOND_AMOUNT\";\n    string private constant ERROR_ALREADY_OPEN                   = \"MM_ALREADY_OPEN\";\n    string private constant ERROR_NOT_OPEN                       = \"MM_NOT_OPEN\";\n    string private constant ERROR_COLLATERAL_ALREADY_WHITELISTED = \"MM_COLLATERAL_ALREADY_WHITELISTED\";\n    string private constant ERROR_COLLATERAL_NOT_WHITELISTED     = \"MM_COLLATERAL_NOT_WHITELISTED\";\n    string private constant ERROR_NOTHING_TO_CLAIM               = \"MM_NOTHING_TO_CLAIM\";\n    string private constant ERROR_BATCH_NOT_OVER                 = \"MM_BATCH_NOT_OVER\";\n    string private constant ERROR_BATCH_CANCELLED                = \"MM_BATCH_CANCELLED\";\n    string private constant ERROR_BATCH_NOT_CANCELLED            = \"MM_BATCH_NOT_CANCELLED\";\n    string private constant ERROR_SLIPPAGE_EXCEEDS_LIMIT         = \"MM_SLIPPAGE_EXCEEDS_LIMIT\";\n    string private constant ERROR_INSUFFICIENT_POOL_BALANCE      = \"MM_INSUFFICIENT_POOL_BALANCE\";\n    string private constant ERROR_TRANSFER_FROM_FAILED           = \"MM_TRANSFER_FROM_FAILED\";\n\n    struct Collateral {\n        bool    whitelisted;\n        uint256 virtualSupply;\n        uint256 virtualBalance;\n        uint32  reserveRatio;\n        uint256 slippage;\n    }\n\n    struct MetaBatch {\n        bool           initialized;\n        uint256        realSupply;\n        uint256        buyFeePct;\n        uint256        sellFeePct;\n        IBancorFormula formula;\n        mapping(address => Batch) batches;\n    }\n\n    struct Batch {\n        bool    initialized;\n        bool    cancelled;\n        uint256 supply;\n        uint256 balance;\n        uint32  reserveRatio;\n        uint256 slippage;\n        uint256 totalBuySpend;\n        uint256 totalBuyReturn;\n        uint256 totalSellSpend;\n        uint256 totalSellReturn;\n        mapping(address => uint256) buyers;\n        mapping(address => uint256) sellers;\n    }\n\n    IAragonFundraisingController   public controller;\n    TokenManager                   public tokenManager;\n    ERC20                          public token;\n    Vault                          public reserve;\n    address                        public beneficiary;\n    IBancorFormula                 public formula;\n\n    uint256                        public batchBlocks;\n    uint256                        public buyFeePct;\n    uint256                        public sellFeePct;\n\n    bool                           public isOpen;\n    uint256                        public tokensToBeMinted;\n    mapping(address => uint256)    public collateralsToBeClaimed;\n    mapping(address => Collateral) public collaterals;\n    mapping(uint256 => MetaBatch)  public metaBatches;\n\n    event UpdateBeneficiary      (address indexed beneficiary);\n    event UpdateFormula          (address indexed formula);\n    event UpdateFees             (uint256 buyFeePct, uint256 sellFeePct);\n    event NewMetaBatch           (uint256 indexed id, uint256 supply, uint256 buyFeePct, uint256 sellFeePct, address formula);\n    event NewBatch               (\n        uint256 indexed id,\n        address indexed collateral,\n        uint256 supply,\n        uint256 balance,\n        uint32  reserveRatio,\n        uint256 slippage)\n    ;\n    event CancelBatch            (uint256 indexed id, address indexed collateral);\n    event AddCollateralToken     (\n        address indexed collateral,\n        uint256 virtualSupply,\n        uint256 virtualBalance,\n        uint32  reserveRatio,\n        uint256 slippage\n    );\n    event RemoveCollateralToken  (address indexed collateral);\n    event UpdateCollateralToken  (\n        address indexed collateral,\n        uint256 virtualSupply,\n        uint256 virtualBalance,\n        uint32  reserveRatio,\n        uint256 slippage\n    );\n    event Open                   ();\n    event OpenBuyOrder           (address indexed buyer, uint256 indexed batchId, address indexed collateral, uint256 fee, uint256 value);\n    event OpenSellOrder          (address indexed seller, uint256 indexed batchId, address indexed collateral, uint256 amount);\n    event ClaimBuyOrder          (address indexed buyer, uint256 indexed batchId, address indexed collateral, uint256 amount);\n    event ClaimSellOrder         (address indexed seller, uint256 indexed batchId, address indexed collateral, uint256 fee, uint256 value);\n    event ClaimCancelledBuyOrder (address indexed buyer, uint256 indexed batchId, address indexed collateral, uint256 value);\n    event ClaimCancelledSellOrder(address indexed seller, uint256 indexed batchId, address indexed collateral, uint256 amount);\n    event UpdatePricing          (\n        uint256 indexed batchId,\n        address indexed collateral,\n        uint256 totalBuySpend,\n        uint256 totalBuyReturn,\n        uint256 totalSellSpend,\n        uint256 totalSellReturn\n    );\n\n\n    /***** external function *****/\n\n    /**\n     * @notice Initialize market maker\n     * @param _controller   The address of the controller contract\n     * @param _tokenManager The address of the [bonded token] token manager contract\n     * @param _reserve      The address of the reserve [pool] contract\n     * @param _beneficiary  The address of the beneficiary [to whom fees are to be sent]\n     * @param _formula      The address of the BancorFormula [computation] contract\n     * @param _batchBlocks  The number of blocks batches are to last\n     * @param _buyFeePct    The fee to be deducted from buy orders [in PCT_BASE]\n     * @param _sellFeePct   The fee to be deducted from sell orders [in PCT_BASE]\n    */\n    function initialize(\n        IAragonFundraisingController _controller,\n        TokenManager                 _tokenManager,\n        IBancorFormula               _formula,\n        Vault                        _reserve,\n        address                      _beneficiary,\n        uint256                      _batchBlocks,\n        uint256                      _buyFeePct,\n        uint256                      _sellFeePct\n    )\n        external\n        onlyInit\n    {\n        initialized();\n\n        require(isContract(_controller),                             ERROR_CONTRACT_IS_EOA);\n        require(isContract(_tokenManager),                           ERROR_CONTRACT_IS_EOA);\n        require(isContract(_formula),                                ERROR_CONTRACT_IS_EOA);\n        require(isContract(_reserve),                                ERROR_CONTRACT_IS_EOA);\n        require(_beneficiaryIsValid(_beneficiary),                   ERROR_INVALID_BENEFICIARY);\n        require(_batchBlocks > 0,                                    ERROR_INVALID_BATCH_BLOCKS);\n        require(_feeIsValid(_buyFeePct) && _feeIsValid(_sellFeePct), ERROR_INVALID_PERCENTAGE);\n        require(_tokenManagerSettingIsValid(_tokenManager),          ERROR_INVALID_TM_SETTING);\n\n        controller = _controller;\n        tokenManager = _tokenManager;\n        token = ERC20(tokenManager.token());\n        formula = _formula;\n        reserve = _reserve;\n        beneficiary = _beneficiary;\n        batchBlocks = _batchBlocks;\n        buyFeePct = _buyFeePct;\n        sellFeePct = _sellFeePct;\n    }\n\n    /* generic settings related function */\n\n    /**\n     * @notice Open market making [enabling users to open buy and sell orders]\n    */\n    function open() external auth(OPEN_ROLE) {\n        require(!isOpen, ERROR_ALREADY_OPEN);\n\n        _open();\n    }\n\n    /**\n     * @notice Update formula to `_formula`\n     * @param _formula The address of the new BancorFormula [computation] contract\n    */\n    function updateFormula(IBancorFormula _formula) external auth(UPDATE_FORMULA_ROLE) {\n        require(isContract(_formula), ERROR_CONTRACT_IS_EOA);\n\n        _updateFormula(_formula);\n    }\n\n    /**\n     * @notice Update beneficiary to `_beneficiary`\n     * @param _beneficiary The address of the new beneficiary [to whom fees are to be sent]\n    */\n    function updateBeneficiary(address _beneficiary) external auth(UPDATE_BENEFICIARY_ROLE) {\n        require(_beneficiaryIsValid(_beneficiary), ERROR_INVALID_BENEFICIARY);\n\n        _updateBeneficiary(_beneficiary);\n    }\n\n    /**\n     * @notice Update fees deducted from buy and sell orders to respectively `@formatPct(_buyFeePct)`% and `@formatPct(_sellFeePct)`%\n     * @param _buyFeePct  The new fee to be deducted from buy orders [in PCT_BASE]\n     * @param _sellFeePct The new fee to be deducted from sell orders [in PCT_BASE]\n    */\n    function updateFees(uint256 _buyFeePct, uint256 _sellFeePct) external auth(UPDATE_FEES_ROLE) {\n        require(_feeIsValid(_buyFeePct) && _feeIsValid(_sellFeePct), ERROR_INVALID_PERCENTAGE);\n\n        _updateFees(_buyFeePct, _sellFeePct);\n    }\n\n    /* collateral tokens related functions */\n\n    /**\n     * @notice Add `_collateral.symbol(): string` as a whitelisted collateral token\n     * @param _collateral     The address of the collateral token to be whitelisted\n     * @param _virtualSupply  The virtual supply to be used for that collateral token [in wei]\n     * @param _virtualBalance The virtual balance to be used for that collateral token [in wei]\n     * @param _reserveRatio   The reserve ratio to be used for that collateral token [in PPM]\n     * @param _slippage       The price slippage below which each batch is to be kept for that collateral token [in PCT_BASE]\n    */\n    function addCollateralToken(address _collateral, uint256 _virtualSupply, uint256 _virtualBalance, uint32 _reserveRatio, uint256 _slippage)\n        external\n        auth(ADD_COLLATERAL_TOKEN_ROLE)\n    {\n        require(isContract(_collateral) || _collateral == ETH, ERROR_INVALID_COLLATERAL);\n        require(!_collateralIsWhitelisted(_collateral),        ERROR_COLLATERAL_ALREADY_WHITELISTED);\n        require(_reserveRatioIsValid(_reserveRatio),           ERROR_INVALID_RESERVE_RATIO);\n\n        _addCollateralToken(_collateral, _virtualSupply, _virtualBalance, _reserveRatio, _slippage);\n    }\n\n    /**\n      * @notice Remove `_collateral.symbol(): string` as a whitelisted collateral token\n      * @param _collateral The address of the collateral token to be un-whitelisted\n    */\n    function removeCollateralToken(address _collateral) external auth(REMOVE_COLLATERAL_TOKEN_ROLE) {\n        require(_collateralIsWhitelisted(_collateral), ERROR_COLLATERAL_NOT_WHITELISTED);\n\n        _removeCollateralToken(_collateral);\n    }\n\n    /**\n     * @notice Update `_collateral.symbol(): string` collateralization settings\n     * @param _collateral     The address of the collateral token whose collateralization settings are to be updated\n     * @param _virtualSupply  The new virtual supply to be used for that collateral token [in wei]\n     * @param _virtualBalance The new virtual balance to be used for that collateral token [in wei]\n     * @param _reserveRatio   The new reserve ratio to be used for that collateral token [in PPM]\n     * @param _slippage       The new price slippage below which each batch is to be kept for that collateral token [in PCT_BASE]\n    */\n    function updateCollateralToken(address _collateral, uint256 _virtualSupply, uint256 _virtualBalance, uint32 _reserveRatio, uint256 _slippage)\n        external\n        auth(UPDATE_COLLATERAL_TOKEN_ROLE)\n    {\n        require(_collateralIsWhitelisted(_collateral), ERROR_COLLATERAL_NOT_WHITELISTED);\n        require(_reserveRatioIsValid(_reserveRatio),   ERROR_INVALID_RESERVE_RATIO);\n\n        _updateCollateralToken(_collateral, _virtualSupply, _virtualBalance, _reserveRatio, _slippage);\n    }\n\n    /* market making related functions */\n\n    /**\n     * @notice Open a buy order worth `@tokenAmount(_collateral, _value)`\n     * @param _buyer      The address of the buyer\n     * @param _collateral The address of the collateral token to be spent\n     * @param _value      The amount of collateral token to be spent\n    */\n    function openBuyOrder(address _buyer, address _collateral, uint256 _value) external payable auth(OPEN_BUY_ORDER_ROLE) {\n        require(isOpen,                                                          ERROR_NOT_OPEN);\n        require(_collateralIsWhitelisted(_collateral),                           ERROR_COLLATERAL_NOT_WHITELISTED);\n        require(!_batchIsCancelled(_currentBatchId(), _collateral),              ERROR_BATCH_CANCELLED);\n        require(_collateralValueIsValid(_buyer, _collateral, _value, msg.value), ERROR_INVALID_COLLATERAL_VALUE);\n\n        _openBuyOrder(_buyer, _collateral, _value);\n    }\n\n    /**\n     * @notice Open a sell order worth `@tokenAmount(self.token(): address, _amount)` against `_collateral.symbol(): string`\n     * @param _seller     The address of the seller\n     * @param _collateral The address of the collateral token to be returned\n     * @param _amount     The amount of bonded token to be spent\n    */\n    function openSellOrder(address _seller, address _collateral, uint256 _amount) external auth(OPEN_SELL_ORDER_ROLE) {\n        require(isOpen,                                             ERROR_NOT_OPEN);\n        require(_collateralIsWhitelisted(_collateral),              ERROR_COLLATERAL_NOT_WHITELISTED);\n        require(!_batchIsCancelled(_currentBatchId(), _collateral), ERROR_BATCH_CANCELLED);\n        require(_bondAmountIsValid(_seller, _amount),               ERROR_INVALID_BOND_AMOUNT);\n\n        _openSellOrder(_seller, _collateral, _amount);\n    }\n\n    /**\n     * @notice Claim the results of `_buyer`'s `_collateral.symbol(): string` buy orders from batch #`_batchId`\n     * @param _buyer      The address of the user whose buy orders are to be claimed\n     * @param _batchId    The id of the batch in which buy orders are to be claimed\n     * @param _collateral The address of the collateral token against which buy orders are to be claimed\n    */\n    function claimBuyOrder(address _buyer, uint256 _batchId, address _collateral) external nonReentrant isInitialized {\n        require(_collateralIsWhitelisted(_collateral),       ERROR_COLLATERAL_NOT_WHITELISTED);\n        require(_batchIsOver(_batchId),                      ERROR_BATCH_NOT_OVER);\n        require(!_batchIsCancelled(_batchId, _collateral),   ERROR_BATCH_CANCELLED);\n        require(_userIsBuyer(_batchId, _collateral, _buyer), ERROR_NOTHING_TO_CLAIM);\n\n        _claimBuyOrder(_buyer, _batchId, _collateral);\n    }\n\n    /**\n     * @notice Claim the results of `_seller`'s `_collateral.symbol(): string` sell orders from batch #`_batchId`\n     * @param _seller     The address of the user whose sell orders are to be claimed\n     * @param _batchId    The id of the batch in which sell orders are to be claimed\n     * @param _collateral The address of the collateral token against which sell orders are to be claimed\n    */\n    function claimSellOrder(address _seller, uint256 _batchId, address _collateral) external nonReentrant isInitialized {\n        require(_collateralIsWhitelisted(_collateral),         ERROR_COLLATERAL_NOT_WHITELISTED);\n        require(_batchIsOver(_batchId),                        ERROR_BATCH_NOT_OVER);\n        require(!_batchIsCancelled(_batchId, _collateral),     ERROR_BATCH_CANCELLED);\n        require(_userIsSeller(_batchId, _collateral, _seller), ERROR_NOTHING_TO_CLAIM);\n\n        _claimSellOrder(_seller, _batchId, _collateral);\n    }\n\n    /**\n     * @notice Claim the investments of `_buyer`'s `_collateral.symbol(): string` buy orders from cancelled batch #`_batchId`\n     * @param _buyer      The address of the user whose cancelled buy orders are to be claimed\n     * @param _batchId    The id of the batch in which cancelled buy orders are to be claimed\n     * @param _collateral The address of the collateral token against which cancelled buy orders are to be claimed\n    */\n    function claimCancelledBuyOrder(address _buyer, uint256 _batchId, address _collateral) external nonReentrant isInitialized {\n        require(_batchIsCancelled(_batchId, _collateral),    ERROR_BATCH_NOT_CANCELLED);\n        require(_userIsBuyer(_batchId, _collateral, _buyer), ERROR_NOTHING_TO_CLAIM);\n\n        _claimCancelledBuyOrder(_buyer, _batchId, _collateral);\n    }\n\n    /**\n     * @notice Claim the investments of `_seller`'s `_collateral.symbol(): string` sell orders from cancelled batch #`_batchId`\n     * @param _seller     The address of the user whose cancelled sell orders are to be claimed\n     * @param _batchId    The id of the batch in which cancelled sell orders are to be claimed\n     * @param _collateral The address of the collateral token against which cancelled sell orders are to be claimed\n    */\n    function claimCancelledSellOrder(address _seller, uint256 _batchId, address _collateral) external nonReentrant isInitialized {\n        require(_batchIsCancelled(_batchId, _collateral),      ERROR_BATCH_NOT_CANCELLED);\n        require(_userIsSeller(_batchId, _collateral, _seller), ERROR_NOTHING_TO_CLAIM);\n\n        _claimCancelledSellOrder(_seller, _batchId, _collateral);\n    }\n\n    /***** public view functions *****/\n\n    function getCurrentBatchId() public view isInitialized returns (uint256) {\n        return _currentBatchId();\n    }\n\n    function getCollateralToken(address _collateral) public view isInitialized returns (bool, uint256, uint256, uint32, uint256) {\n        Collateral storage collateral = collaterals[_collateral];\n\n        return (collateral.whitelisted, collateral.virtualSupply, collateral.virtualBalance, collateral.reserveRatio, collateral.slippage);\n    }\n\n    function getBatch(uint256 _batchId, address _collateral)\n        public view isInitialized\n        returns (bool, bool, uint256, uint256, uint32, uint256, uint256, uint256, uint256, uint256)\n    {\n        Batch storage batch = metaBatches[_batchId].batches[_collateral];\n\n        return (\n            batch.initialized,\n            batch.cancelled,\n            batch.supply,\n            batch.balance,\n            batch.reserveRatio,\n            batch.slippage,\n            batch.totalBuySpend,\n            batch.totalBuyReturn,\n            batch.totalSellSpend,\n            batch.totalSellReturn\n        );\n    }\n\n    function getStaticPricePPM(uint256 _supply, uint256 _balance, uint32 _reserveRatio) public view isInitialized returns (uint256) {\n        return _staticPricePPM(_supply, _balance, _reserveRatio);\n    }\n\n    /***** internal functions *****/\n\n    /* computation functions */\n\n    function _staticPricePPM(uint256 _supply, uint256 _balance, uint32 _reserveRatio) internal pure returns (uint256) {\n        return uint256(PPM).mul(uint256(PPM)).mul(_balance).div(_supply.mul(uint256(_reserveRatio)));\n    }\n\n    function _currentBatchId() internal view returns (uint256) {\n        return (block.number.div(batchBlocks)).mul(batchBlocks);\n    }\n\n    /* check functions */\n\n    function _beneficiaryIsValid(address _beneficiary) internal pure returns (bool) {\n        return _beneficiary != address(0);\n    }\n\n    function _feeIsValid(uint256 _fee) internal pure returns (bool) {\n        return _fee < PCT_BASE;\n    }\n\n    function _reserveRatioIsValid(uint32 _reserveRatio) internal pure returns (bool) {\n        return _reserveRatio <= PPM;\n    }\n\n    function _tokenManagerSettingIsValid(TokenManager _tokenManager) internal view returns (bool) {\n        return _tokenManager.maxAccountTokens() == uint256(-1);\n    }\n\n    function _collateralValueIsValid(address _buyer, address _collateral, uint256 _value, uint256 _msgValue) internal view returns (bool) {\n        if (_value == 0) {\n            return false;\n        }\n\n        if (_collateral == ETH) {\n            return _msgValue == _value;\n        }\n\n        return (\n            _msgValue == 0 &&\n            controller.balanceOf(_buyer, _collateral) >= _value &&\n            ERC20(_collateral).allowance(_buyer, address(this)) >= _value\n        );\n    }\n\n    function _bondAmountIsValid(address _seller, uint256 _amount) internal view returns (bool) {\n        return _amount != 0 && tokenManager.spendableBalanceOf(_seller) >= _amount;\n    }\n\n    function _collateralIsWhitelisted(address _collateral) internal view returns (bool) {\n        return collaterals[_collateral].whitelisted;\n    }\n\n    function _batchIsOver(uint256 _batchId) internal view returns (bool) {\n        return _batchId < _currentBatchId();\n    }\n\n    function _batchIsCancelled(uint256 _batchId, address _collateral) internal view returns (bool) {\n        return metaBatches[_batchId].batches[_collateral].cancelled;\n    }\n\n    function _userIsBuyer(uint256 _batchId, address _collateral, address _user) internal view returns (bool) {\n        Batch storage batch = metaBatches[_batchId].batches[_collateral];\n        return batch.buyers[_user] > 0;\n    }\n\n    function _userIsSeller(uint256 _batchId, address _collateral, address _user) internal view returns (bool) {\n        Batch storage batch = metaBatches[_batchId].batches[_collateral];\n        return batch.sellers[_user] > 0;\n    }\n\n    function _poolBalanceIsSufficient(address _collateral) internal view returns (bool) {\n        return controller.balanceOf(address(reserve), _collateral) >= collateralsToBeClaimed[_collateral];\n    }\n\n    function _slippageIsValid(Batch storage _batch, address _collateral) internal view returns (bool) {\n        uint256 staticPricePPM = _staticPricePPM(_batch.supply, _batch.balance, _batch.reserveRatio);\n        uint256 maximumSlippage = _batch.slippage;\n\n        // if static price is zero let's consider that every slippage is valid\n        if (staticPricePPM == 0) {\n            return true;\n        }\n\n        return _buySlippageIsValid(_batch, staticPricePPM, maximumSlippage) && _sellSlippageIsValid(_batch, staticPricePPM, maximumSlippage);\n    }\n\n    function _buySlippageIsValid(Batch storage _batch, uint256 _startingPricePPM, uint256 _maximumSlippage) internal view returns (bool) {\n        /**\n         * NOTE\n         * the case where starting price is zero is handled\n         * in the meta function _slippageIsValid()\n        */\n\n        /**\n         * NOTE\n         * slippage is valid if:\n         * totalBuyReturn >= totalBuySpend / (startingPrice * (1 + maxSlippage))\n         * totalBuyReturn >= totalBuySpend / ((startingPricePPM / PPM) * (1 + maximumSlippage / PCT_BASE))\n         * totalBuyReturn >= totalBuySpend / ((startingPricePPM / PPM) * (1 + maximumSlippage / PCT_BASE))\n         * totalBuyReturn >= totalBuySpend / ((startingPricePPM / PPM) * (PCT + maximumSlippage) / PCT_BASE)\n         * totalBuyReturn * startingPrice * ( PCT + maximumSlippage) >= totalBuySpend * PCT_BASE * PPM\n        */\n        if (\n            _batch.totalBuyReturn.mul(_startingPricePPM).mul(PCT_BASE.add(_maximumSlippage)) >=\n            _batch.totalBuySpend.mul(PCT_BASE).mul(uint256(PPM))\n        ) {\n            return true;\n        }\n\n        return false;\n    }\n\n    function _sellSlippageIsValid(Batch storage _batch, uint256 _startingPricePPM, uint256 _maximumSlippage) internal view returns (bool) {\n        /**\n         * NOTE\n         * the case where starting price is zero is handled\n         * in the meta function _slippageIsValid()\n        */\n\n        // if allowed sell slippage >= 100%\n        // then any sell slippage is valid\n        if (_maximumSlippage >= PCT_BASE) {\n            return true;\n        }\n\n        /**\n         * NOTE\n         * slippage is valid if\n         * totalSellReturn >= startingPrice * (1 - maxSlippage) * totalBuySpend\n         * totalSellReturn >= (startingPricePPM / PPM) * (1 - maximumSlippage / PCT_BASE) * totalBuySpend\n         * totalSellReturn >= (startingPricePPM / PPM) * (PCT_BASE - maximumSlippage) * totalBuySpend / PCT_BASE\n         * totalSellReturn * PCT_BASE * PPM = startingPricePPM * (PCT_BASE - maximumSlippage) * totalBuySpend\n        */\n\n        if (\n            _batch.totalSellReturn.mul(PCT_BASE).mul(uint256(PPM)) >=\n            _startingPricePPM.mul(PCT_BASE.sub(_maximumSlippage)).mul(_batch.totalSellSpend)\n        ) {\n            return true;\n        }\n\n        return false;\n    }\n\n    /* initialization functions */\n\n    function _currentBatch(address _collateral) internal returns (uint256, Batch storage) {\n        uint256 batchId = _currentBatchId();\n        MetaBatch storage metaBatch = metaBatches[batchId];\n        Batch storage batch = metaBatch.batches[_collateral];\n\n        if (!metaBatch.initialized) {\n            /**\n             * NOTE\n             * all collateral batches should be initialized with the same supply to\n             * avoid price manipulation between different collaterals in the same meta-batch\n             * we don't need to do the same with collateral balances as orders against one collateral\n             * can't affect the pool's balance against another collateral and tap is a step-function\n             * of the meta-batch duration\n            */\n\n            /**\n             * NOTE\n             * realSupply(metaBatch) = totalSupply(metaBatchInitialization) + tokensToBeMinted(metaBatchInitialization)\n             * 1. buy and sell orders incoming during the current meta-batch and affecting totalSupply or tokensToBeMinted\n             * should not be taken into account in the price computation [they are already a part of the batched pricing computation]\n             * 2. the only way for totalSupply to be modified during a meta-batch [outside of incoming buy and sell orders]\n             * is for buy orders from previous meta-batches to be claimed [and tokens to be minted]:\n             * as such totalSupply(metaBatch) + tokenToBeMinted(metaBatch) will always equal totalSupply(metaBatchInitialization) + tokenToBeMinted(metaBatchInitialization)\n            */\n            metaBatch.realSupply = token.totalSupply().add(tokensToBeMinted);\n            metaBatch.buyFeePct = buyFeePct;\n            metaBatch.sellFeePct = sellFeePct;\n            metaBatch.formula = formula;\n            metaBatch.initialized = true;\n\n            emit NewMetaBatch(batchId, metaBatch.realSupply, metaBatch.buyFeePct, metaBatch.sellFeePct, metaBatch.formula);\n        }\n\n        if (!batch.initialized) {\n            /**\n             * NOTE\n             * supply(batch) = realSupply(metaBatch) + virtualSupply(batchInitialization)\n             * virtualSupply can technically be updated during a batch: the on-going batch will still use\n             * its value at the time of initialization [it's up to the updater to act wisely]\n            */\n\n            /**\n             * NOTE\n             * balance(batch) = poolBalance(batchInitialization) - collateralsToBeClaimed(batchInitialization) + virtualBalance(metaBatchInitialization)\n             * 1. buy and sell orders incoming during the current batch and affecting poolBalance or collateralsToBeClaimed\n             * should not be taken into account in the price computation [they are already a part of the batched price computation]\n             * 2. the only way for poolBalance to be modified during a batch [outside of incoming buy and sell orders]\n             * is for sell orders from previous meta-batches to be claimed [and collateral to be transfered] as the tap is a step-function of the meta-batch duration:\n             * as such poolBalance(batch) - collateralsToBeClaimed(batch) will always equal poolBalance(batchInitialization) - collateralsToBeClaimed(batchInitialization)\n             * 3. virtualBalance can technically be updated during a batch: the on-going batch will still use\n             * its value at the time of initialization [it's up to the updater to act wisely]\n            */\n            controller.updateTappedAmount(_collateral);\n            batch.supply = metaBatch.realSupply.add(collaterals[_collateral].virtualSupply);\n            batch.balance = controller.balanceOf(address(reserve), _collateral).add(collaterals[_collateral].virtualBalance).sub(collateralsToBeClaimed[_collateral]);\n            batch.reserveRatio = collaterals[_collateral].reserveRatio;\n            batch.slippage = collaterals[_collateral].slippage;\n            batch.initialized = true;\n\n            emit NewBatch(batchId, _collateral, batch.supply, batch.balance, batch.reserveRatio, batch.slippage);\n        }\n\n        return (batchId, batch);\n    }\n\n    /* state modifiying functions */\n\n    function _open() internal {\n        isOpen = true;\n\n        emit Open();\n    }\n\n    function _updateBeneficiary(address _beneficiary) internal {\n        beneficiary = _beneficiary;\n\n        emit UpdateBeneficiary(_beneficiary);\n    }\n\n    function _updateFormula(IBancorFormula _formula) internal {\n        formula = _formula;\n\n        emit UpdateFormula(address(_formula));\n    }\n\n    function _updateFees(uint256 _buyFeePct, uint256 _sellFeePct) internal {\n        buyFeePct = _buyFeePct;\n        sellFeePct = _sellFeePct;\n\n        emit UpdateFees(_buyFeePct, _sellFeePct);\n    }\n\n    function _cancelCurrentBatch(address _collateral) internal {\n        (uint256 batchId, Batch storage batch) = _currentBatch(_collateral);\n        if (!batch.cancelled) {\n            batch.cancelled = true;\n\n            // bought bonds are cancelled but sold bonds are due back\n            // bought collaterals are cancelled but sold collaterals are due back\n            tokensToBeMinted = tokensToBeMinted.sub(batch.totalBuyReturn).add(batch.totalSellSpend);\n            collateralsToBeClaimed[_collateral] = collateralsToBeClaimed[_collateral].add(batch.totalBuySpend).sub(batch.totalSellReturn);\n\n            emit CancelBatch(batchId, _collateral);\n        }\n    }\n\n    function _addCollateralToken(address _collateral, uint256 _virtualSupply, uint256 _virtualBalance, uint32 _reserveRatio, uint256 _slippage)\n        internal\n    {\n        collaterals[_collateral].whitelisted = true;\n        collaterals[_collateral].virtualSupply = _virtualSupply;\n        collaterals[_collateral].virtualBalance = _virtualBalance;\n        collaterals[_collateral].reserveRatio = _reserveRatio;\n        collaterals[_collateral].slippage = _slippage;\n\n        emit AddCollateralToken(_collateral, _virtualSupply, _virtualBalance, _reserveRatio, _slippage);\n    }\n\n    function _removeCollateralToken(address _collateral) internal {\n        _cancelCurrentBatch(_collateral);\n\n        Collateral storage collateral = collaterals[_collateral];\n        delete collateral.whitelisted;\n        delete collateral.virtualSupply;\n        delete collateral.virtualBalance;\n        delete collateral.reserveRatio;\n        delete collateral.slippage;\n\n        emit RemoveCollateralToken(_collateral);\n    }\n\n    function _updateCollateralToken(\n        address _collateral,\n        uint256 _virtualSupply,\n        uint256 _virtualBalance,\n        uint32  _reserveRatio,\n        uint256 _slippage\n    )\n        internal\n    {\n        collaterals[_collateral].virtualSupply = _virtualSupply;\n        collaterals[_collateral].virtualBalance = _virtualBalance;\n        collaterals[_collateral].reserveRatio = _reserveRatio;\n        collaterals[_collateral].slippage = _slippage;\n\n        emit UpdateCollateralToken(_collateral, _virtualSupply, _virtualBalance, _reserveRatio, _slippage);\n    }\n\n    function _openBuyOrder(address _buyer, address _collateral, uint256 _value) internal {\n        (uint256 batchId, Batch storage batch) = _currentBatch(_collateral);\n\n        // deduct fee\n        uint256 fee = _value.mul(metaBatches[batchId].buyFeePct).div(PCT_BASE);\n        uint256 value = _value.sub(fee);\n\n        // collect fee and collateral\n        if (fee > 0) {\n            _transfer(_buyer, beneficiary, _collateral, fee);\n        }\n        _transfer(_buyer, address(reserve), _collateral, value);\n\n        // save batch\n        uint256 deprecatedBuyReturn = batch.totalBuyReturn;\n        uint256 deprecatedSellReturn = batch.totalSellReturn;\n\n        // update batch\n        batch.totalBuySpend = batch.totalBuySpend.add(value);\n        batch.buyers[_buyer] = batch.buyers[_buyer].add(value);\n\n        // update pricing\n        _updatePricing(batch, batchId, _collateral);\n\n        // update the amount of tokens to be minted and collaterals to be claimed\n        tokensToBeMinted = tokensToBeMinted.sub(deprecatedBuyReturn).add(batch.totalBuyReturn);\n        collateralsToBeClaimed[_collateral] = collateralsToBeClaimed[_collateral].sub(deprecatedSellReturn).add(batch.totalSellReturn);\n\n        // sanity checks\n        require(_slippageIsValid(batch, _collateral), ERROR_SLIPPAGE_EXCEEDS_LIMIT);\n\n        emit OpenBuyOrder(_buyer, batchId, _collateral, fee, value);\n    }\n\n    function _openSellOrder(address _seller, address _collateral, uint256 _amount) internal {\n        (uint256 batchId, Batch storage batch) = _currentBatch(_collateral);\n\n        // burn bonds\n        tokenManager.burn(_seller, _amount);\n\n        // save batch\n        uint256 deprecatedBuyReturn = batch.totalBuyReturn;\n        uint256 deprecatedSellReturn = batch.totalSellReturn;\n\n        // update batch\n        batch.totalSellSpend = batch.totalSellSpend.add(_amount);\n        batch.sellers[_seller] = batch.sellers[_seller].add(_amount);\n\n        // update pricing\n        _updatePricing(batch, batchId, _collateral);\n\n        // update the amount of tokens to be minted and collaterals to be claimed\n        tokensToBeMinted = tokensToBeMinted.sub(deprecatedBuyReturn).add(batch.totalBuyReturn);\n        collateralsToBeClaimed[_collateral] = collateralsToBeClaimed[_collateral].sub(deprecatedSellReturn).add(batch.totalSellReturn);\n\n        // sanity checks\n        require(_slippageIsValid(batch, _collateral), ERROR_SLIPPAGE_EXCEEDS_LIMIT);\n        require(_poolBalanceIsSufficient(_collateral), ERROR_INSUFFICIENT_POOL_BALANCE);\n\n        emit OpenSellOrder(_seller, batchId, _collateral, _amount);\n    }\n\n    function _claimBuyOrder(address _buyer, uint256 _batchId, address _collateral) internal {\n        Batch storage batch = metaBatches[_batchId].batches[_collateral];\n        uint256 buyReturn = (batch.buyers[_buyer].mul(batch.totalBuyReturn)).div(batch.totalBuySpend);\n\n        batch.buyers[_buyer] = 0;\n\n        if (buyReturn > 0) {\n            tokensToBeMinted = tokensToBeMinted.sub(buyReturn);\n            tokenManager.mint(_buyer, buyReturn);\n        }\n\n        emit ClaimBuyOrder(_buyer, _batchId, _collateral, buyReturn);\n    }\n\n    function _claimSellOrder(address _seller, uint256 _batchId, address _collateral) internal {\n        Batch storage batch = metaBatches[_batchId].batches[_collateral];\n        uint256 saleReturn = (batch.sellers[_seller].mul(batch.totalSellReturn)).div(batch.totalSellSpend);\n        uint256 fee = saleReturn.mul(metaBatches[_batchId].sellFeePct).div(PCT_BASE);\n        uint256 value = saleReturn.sub(fee);\n\n        batch.sellers[_seller] = 0;\n\n        if (value > 0) {\n            collateralsToBeClaimed[_collateral] = collateralsToBeClaimed[_collateral].sub(saleReturn);\n            reserve.transfer(_collateral, _seller, value);\n        }\n        if (fee > 0) {\n            reserve.transfer(_collateral, beneficiary, fee);\n        }\n\n\n        emit ClaimSellOrder(_seller, _batchId, _collateral, fee, value);\n    }\n\n    function _claimCancelledBuyOrder(address _buyer, uint256 _batchId, address _collateral) internal {\n        Batch storage batch = metaBatches[_batchId].batches[_collateral];\n\n        uint256 value = batch.buyers[_buyer];\n        batch.buyers[_buyer] = 0;\n\n        if (value > 0) {\n            collateralsToBeClaimed[_collateral] = collateralsToBeClaimed[_collateral].sub(value);\n            reserve.transfer(_collateral, _buyer, value);\n        }\n\n        emit ClaimCancelledBuyOrder(_buyer, _batchId, _collateral, value);\n    }\n\n    function _claimCancelledSellOrder(address _seller, uint256 _batchId, address _collateral) internal {\n        Batch storage batch = metaBatches[_batchId].batches[_collateral];\n\n        uint256 amount = batch.sellers[_seller];\n        batch.sellers[_seller] = 0;\n\n        if (amount > 0) {\n            tokensToBeMinted = tokensToBeMinted.sub(amount);\n            tokenManager.mint(_seller, amount);\n        }\n\n        emit ClaimCancelledSellOrder(_seller, _batchId, _collateral, amount);\n    }\n\n    function _updatePricing(Batch storage batch, uint256 _batchId, address _collateral) internal {\n        // the situation where there are no buy nor sell orders can't happen [keep commented]\n        // if (batch.totalSellSpend == 0 && batch.totalBuySpend == 0)\n        //     return;\n\n        // static price is the current exact price in collateral\n        // per token according to the initial state of the batch\n        // [expressed in PPM for precision sake]\n        uint256 staticPricePPM = _staticPricePPM(batch.supply, batch.balance, batch.reserveRatio);\n\n        // [NOTE]\n        // if staticPrice is zero then resultOfSell [= 0] <= batch.totalBuySpend\n        // so totalSellReturn will be zero and totalBuyReturn will be\n        // computed normally along the formula\n\n        // 1. we want to find out if buy orders are worth more sell orders [or vice-versa]\n        // 2. we thus check the return of sell orders at the current exact price\n        // 3. if the return of sell orders is larger than the pending buys,\n        //    there are more sells than buys [and vice-versa]\n        uint256 resultOfSell = batch.totalSellSpend.mul(staticPricePPM).div(uint256(PPM));\n\n        if (resultOfSell > batch.totalBuySpend) {\n            // >> sell orders are worth more than buy orders\n\n            // 1. first we execute all pending buy orders at the current exact\n            // price because there is at least one sell order for each buy order\n            // 2. then the final sell return is the addition of this first\n            // matched return with the remaining bonding curve return\n\n            // the number of tokens bought as a result of all buy orders matched at the\n            // current exact price [which is less than the total amount of tokens to be sold]\n            batch.totalBuyReturn = batch.totalBuySpend.mul(uint256(PPM)).div(staticPricePPM);\n            // the number of tokens left over to be sold along the curve which is the difference\n            // between the original total sell order and the result of all the buy orders\n            uint256 remainingSell = batch.totalSellSpend.sub(batch.totalBuyReturn);\n            // the amount of collateral generated by selling tokens left over to be sold\n            // along the bonding curve in the batch initial state [as if the buy orders\n            // never existed and the sell order was just smaller than originally thought]\n            uint256 remainingSellReturn = metaBatches[_batchId].formula.calculateSaleReturn(batch.supply, batch.balance, batch.reserveRatio, remainingSell);\n            // the total result of all sells is the original amount of buys which were matched\n            // plus the remaining sells which were executed along the bonding curve\n            batch.totalSellReturn = batch.totalBuySpend.add(remainingSellReturn);\n        } else {\n            // >> buy orders are worth more than sell orders\n\n            // 1. first we execute all pending sell orders at the current exact\n            // price because there is at least one buy order for each sell order\n            // 2. then the final buy return is the addition of this first\n            // matched return with the remaining bonding curve return\n\n            // the number of collaterals bought as a result of all sell orders matched at the\n            // current exact price [which is less than the total amount of collateral to be spent]\n            batch.totalSellReturn = resultOfSell;\n            // the number of collaterals left over to be spent along the curve which is the difference\n            // between the original total buy order and the result of all the sell orders\n            uint256 remainingBuy = batch.totalBuySpend.sub(resultOfSell);\n            // the amount of tokens generated by selling collaterals left over to be spent\n            // along the bonding curve in the batch initial state [as if the sell orders\n            // never existed and the buy order was just smaller than originally thought]\n            uint256 remainingBuyReturn = metaBatches[_batchId].formula.calculatePurchaseReturn(batch.supply, batch.balance, batch.reserveRatio, remainingBuy);\n            // the total result of all buys is the original amount of buys which were matched\n            // plus the remaining buys which were executed along the bonding curve\n            batch.totalBuyReturn = batch.totalSellSpend.add(remainingBuyReturn);\n        }\n\n\n        emit UpdatePricing(_batchId, _collateral, batch.totalBuySpend, batch.totalBuyReturn, batch.totalSellSpend, batch.totalSellReturn);\n    }\n\n    function _transfer(address _from, address _to, address _collateralToken, uint256 _amount) internal {\n        if (_collateralToken == ETH) {\n            _to.transfer(_amount);\n        } else {\n            require(ERC20(_collateralToken).safeTransferFrom(_from, _to, _amount), ERROR_TRANSFER_FROM_FAILED);\n        }\n    }\n}\n",
  "sourcePath": "@ablack/fundraising-batched-bancor-market-maker/contracts/BatchedBancorMarketMaker.sol",
  "compiler": {
    "name": "solc",
    "version": "0.4.24+commit.e67f0147.Emscripten.clang"
  },
  "schemaVersion": "2.0.1",
  "updatedAt": "2020-02-09T01:44:08.726Z"
}