{
  "contractName": "ENSFactory",
  "abi": [
    {
      "anonymous": false,
      "inputs": [
        {
          "indexed": false,
          "name": "ens",
          "type": "address"
        }
      ],
      "name": "DeployENS",
      "type": "event"
    },
    {
      "constant": false,
      "inputs": [
        {
          "name": "_owner",
          "type": "address"
        }
      ],
      "name": "newENS",
      "outputs": [
        {
          "name": "",
          "type": "address"
        }
      ],
      "payable": false,
      "stateMutability": "nonpayable",
      "type": "function"
    }
  ],
  "bytecode": "0x608060405234801561001057600080fd5b50611bec806100206000396000f3006080604052600436106100405763ffffffff7c0100000000000000000000000000000000000000000000000000000000600035041663e9358b018114610045575b600080fd5b34801561005157600080fd5b50610066600160a060020a0360043516610082565b60408051600160a060020a039092168252519081900360200190f35b600080600061008f6104a5565b604051809103906000f0801580156100ab573d6000803e3d6000fd5b506040805160e060020a6306ab59230281526000600482018190527f4f5b812789fc606be1b3b16908db13fc7a9adf7ca72641f84d75b47069d3d7f060248301523060448301529151929450600160a060020a038516926306ab59239260648084019391929182900301818387803b15801561012657600080fd5b505af115801561013a573d6000803e3d6000fd5b50505050816101476104b5565b600160a060020a03909116815260405190819003602001906000f080158015610174573d6000803e3d6000fd5b506040805160e060020a6306ab59230281527f93cdeb708b7545dc668eb9280176169d1c33cfd8ed6f04690a0bcc88a93fc4ae60048201527f329539a1d23af1810c48a07fe7fc66a3b34fbc8b37e9b3cdb97bb88ceab7e4bf60248201523060448201529051919250600160a060020a038416916306ab59239160648082019260009290919082900301818387803b15801561020f57600080fd5b505af1158015610223573d6000803e3d6000fd5b5050604080517f1896f70a0000000000000000000000000000000000000000000000000000000081527ffdd5d5de6dd63db72bbc2d487944ba13bf775b50a80805fe6fcaba9b0fba88f56004820152600160a060020a03858116602483015291519186169350631896f70a925060448082019260009290919082900301818387803b1580156102b157600080fd5b505af11580156102c5573d6000803e3d6000fd5b5050604080517fd5fa2b000000000000000000000000000000000000000000000000000000000081527ffdd5d5de6dd63db72bbc2d487944ba13bf775b50a80805fe6fcaba9b0fba88f56004820152600160a060020a03851660248201819052915191935063d5fa2b00925060448082019260009290919082900301818387803b15801561035257600080fd5b505af1158015610366573d6000803e3d6000fd5b50506040805160e060020a635b0fc9c30281527f93cdeb708b7545dc668eb9280176169d1c33cfd8ed6f04690a0bcc88a93fc4ae6004820152600160a060020a03888116602483015291519186169350635b0fc9c3925060448082019260009290919082900301818387803b1580156103de57600080fd5b505af11580156103f2573d6000803e3d6000fd5b50506040805160e060020a635b0fc9c3028152600060048201819052600160a060020a03898116602484015292519287169450635b0fc9c39350604480830193919282900301818387803b15801561044957600080fd5b505af115801561045d573d6000803e3d6000fd5b505060408051600160a060020a038616815290517fdbfb5ababf63f86424e8df6053dfb90f8b63ea26d7e1e8f68407af4fb2d2c4f29350908190036020019150a15092915050565b604051610556806104c683390190565b6040516111a580610a1c833901905600608060405234801561001057600080fd5b5060008080526020527fad3228b676f7d3cd4284a5443f17f1962b36e491b30a40b2405849e597ba5fb58054600160a060020a031916331790556104fd806100596000396000f3006080604052600436106100825763ffffffff7c01000000000000000000000000000000000000000000000000000000006000350416630178b8bf811461008757806302571be3146100bb57806306ab5923146100d357806314ab9038146100fc57806316a25cbd146101215780631896f70a146101565780635b0fc9c31461017a575b600080fd5b34801561009357600080fd5b5061009f60043561019e565b60408051600160a060020a039092168252519081900360200190f35b3480156100c757600080fd5b5061009f6004356101bc565b3480156100df57600080fd5b506100fa600435602435600160a060020a03604435166101d7565b005b34801561010857600080fd5b506100fa60043567ffffffffffffffff60243516610291565b34801561012d57600080fd5b50610139600435610357565b6040805167ffffffffffffffff9092168252519081900360200190f35b34801561016257600080fd5b506100fa600435600160a060020a036024351661038e565b34801561018657600080fd5b506100fa600435600160a060020a0360243516610431565b600090815260208190526040902060010154600160a060020a031690565b600090815260208190526040902054600160a060020a031690565b6000838152602081905260408120548490600160a060020a031633146101fc57600080fd5b60408051868152602080820187905282519182900383018220600160a060020a03871683529251929450869288927fce0457fe73731f824cc272376169235128c118b49d344817417c6d108d155e8292908290030190a3506000908152602081905260409020805473ffffffffffffffffffffffffffffffffffffffff1916600160a060020a03929092169190911790555050565b6000828152602081905260409020548290600160a060020a031633146102b657600080fd5b6040805167ffffffffffffffff84168152905184917f1d4f9bbfc9cab89d66e1a1562f2233ccbf1308cb4f63de2ead5787adddb8fa68919081900360200190a250600091825260208290526040909120600101805467ffffffffffffffff90921674010000000000000000000000000000000000000000027bffffffffffffffff000000000000000000000000000000000000000019909216919091179055565b60009081526020819052604090206001015474010000000000000000000000000000000000000000900467ffffffffffffffff1690565b6000828152602081905260409020548290600160a060020a031633146103b357600080fd5b60408051600160a060020a0384168152905184917f335721b01866dc23fbee8b6b2c7b1e14d6f05c28cd35a2c934239f94095602a0919081900360200190a250600091825260208290526040909120600101805473ffffffffffffffffffffffffffffffffffffffff1916600160a060020a03909216919091179055565b6000828152602081905260409020548290600160a060020a0316331461045657600080fd5b60408051600160a060020a0384168152905184917fd4735d920b0f87494915f556dd9b54c8f309026070caea5c737245152564d266919081900360200190a250600091825260208290526040909120805473ffffffffffffffffffffffffffffffffffffffff1916600160a060020a039092169190911790555600a165627a7a7230582013bb7f65cc006d808f69ecef4c9928fdbb40356364c72a385a8f222efac75cb20029608060405234801561001057600080fd5b506040516020806111a5833981016040525160008054600160a060020a03909216600160a060020a0319909216919091179055611153806100526000396000f3006080604052600436106100c45763ffffffff7c010000000000000000000000000000000000000000000000000000000060003504166301ffc9a781146100c957806310f13a8c146100ff5780632203ab561461019d57806329cd62ea146102375780632dff6941146102555780633b3b57de1461027f57806359d1d43c146102b3578063623195b014610386578063691f3431146103e657806377372213146103fe578063c3d014d61461045c578063c869023314610477578063d5fa2b00146104a8575b600080fd5b3480156100d557600080fd5b506100eb600160e060020a0319600435166104cc565b604080519115158252519081900360200190f35b34801561010b57600080fd5b5060408051602060046024803582810135601f810185900485028601850190965285855261019b95833595369560449491939091019190819084018382808284375050604080516020601f89358b018035918201839004830284018301909452808352979a9998810197919650918201945092508291508401838280828437509497506106399650505050505050565b005b3480156101a957600080fd5b506101b8600435602435610849565b6040518083815260200180602001828103825283818151815260200191508051906020019080838360005b838110156101fb5781810151838201526020016101e3565b50505050905090810190601f1680156102285780820380516001836020036101000a031916815260200191505b50935050505060405180910390f35b34801561024357600080fd5b5061019b600435602435604435610955565b34801561026157600080fd5b5061026d600435610a55565b60408051918252519081900360200190f35b34801561028b57600080fd5b50610297600435610a6b565b60408051600160a060020a039092168252519081900360200190f35b3480156102bf57600080fd5b5060408051602060046024803582810135601f8101859004850286018501909652858552610311958335953695604494919390910191908190840183828082843750949750610a869650505050505050565b6040805160208082528351818301528351919283929083019185019080838360005b8381101561034b578181015183820152602001610333565b50505050905090810190601f1680156103785780820380516001836020036101000a031916815260200191505b509250505060405180910390f35b34801561039257600080fd5b50604080516020600460443581810135601f810184900484028501840190955284845261019b948235946024803595369594606494920191908190840183828082843750949750610b8f9650505050505050565b3480156103f257600080fd5b50610311600435610c90565b34801561040a57600080fd5b5060408051602060046024803582810135601f810185900485028601850190965285855261019b958335953695604494919390910191908190840183828082843750949750610d349650505050505050565b34801561046857600080fd5b5061019b600435602435610e8a565b34801561048357600080fd5b5061048f600435610f6b565b6040805192835260208301919091528051918290030190f35b3480156104b457600080fd5b5061019b600435600160a060020a0360243516610f88565b6000600160e060020a031982167f3b3b57de00000000000000000000000000000000000000000000000000000000148061052f5750600160e060020a031982167fd8389dc500000000000000000000000000000000000000000000000000000000145b806105635750600160e060020a031982167f691f343100000000000000000000000000000000000000000000000000000000145b806105975750600160e060020a031982167f2203ab5600000000000000000000000000000000000000000000000000000000145b806105cb5750600160e060020a031982167fc869023300000000000000000000000000000000000000000000000000000000145b806105ff5750600160e060020a031982167f59d1d43c00000000000000000000000000000000000000000000000000000000145b806106335750600160e060020a031982167f01ffc9a700000000000000000000000000000000000000000000000000000000145b92915050565b600080546040805160e060020a6302571be302815260048101879052905186933393600160a060020a0316926302571be39260248083019360209383900390910190829087803b15801561068c57600080fd5b505af11580156106a0573d6000803e3d6000fd5b505050506040513d60208110156106b657600080fd5b5051600160a060020a0316146106cb57600080fd5b6000848152600160209081526040918290209151855185936005019287929182918401908083835b602083106107125780518252601f1990920191602091820191016106f3565b51815160209384036101000a60001901801990921691161790529201948552506040519384900381019093208451610753959194919091019250905061108c565b50826040518082805190602001908083835b602083106107845780518252601f199092019160209182019101610765565b51815160209384036101000a60001901801990921691161790526040805192909401829003822081835289518383015289519096508a95507fd8c9334b1a9c2f9da342a0a2b32629c1a229b6445dad78947f674b44444a7550948a94508392908301919085019080838360005b838110156108095781810151838201526020016107f1565b50505050905090810190601f1680156108365780820380516001836020036101000a031916815260200191505b509250505060405180910390a350505050565b60008281526001602081905260409091206060905b83831161094857828416158015906108975750600083815260068201602052604081205460026000196101006001841615020190911604115b1561093d57600083815260068201602090815260409182902080548351601f6002600019610100600186161502019093169290920491820184900484028101840190945280845290918301828280156109315780601f1061090657610100808354040283529160200191610931565b820191906000526020600020905b81548152906001019060200180831161091457829003601f168201915b5050505050915061094d565b60029092029161085e565b600092505b509250929050565b600080546040805160e060020a6302571be302815260048101879052905186933393600160a060020a0316926302571be39260248083019360209383900390910190829087803b1580156109a857600080fd5b505af11580156109bc573d6000803e3d6000fd5b505050506040513d60208110156109d257600080fd5b5051600160a060020a0316146109e757600080fd5b604080518082018252848152602080820185815260008881526001835284902092516003840155516004909201919091558151858152908101849052815186927f1d6f5e03d3f63eb58751986629a5439baee5079ff04f345becb66e23eb154e46928290030190a250505050565b6000908152600160208190526040909120015490565b600090815260016020526040902054600160a060020a031690565b600082815260016020908152604091829020915183516060936005019285929182918401908083835b60208310610ace5780518252601f199092019160209182019101610aaf565b518151600019602094850361010090810a820192831692199390931691909117909252949092019687526040805197889003820188208054601f6002600183161590980290950116959095049283018290048202880182019052818752929450925050830182828015610b825780601f10610b5757610100808354040283529160200191610b82565b820191906000526020600020905b815481529060010190602001808311610b6557829003601f168201915b5050505050905092915050565b600080546040805160e060020a6302571be302815260048101879052905186933393600160a060020a0316926302571be39260248083019360209383900390910190829087803b158015610be257600080fd5b505af1158015610bf6573d6000803e3d6000fd5b505050506040513d6020811015610c0c57600080fd5b5051600160a060020a031614610c2157600080fd5b6000198301831615610c3257600080fd5b600084815260016020908152604080832086845260060182529091208351610c5c9285019061108c565b50604051839085907faa121bbeef5f32f5961a2a28966e769023910fc9479059ee3495d4c1a696efe390600090a350505050565b6000818152600160208181526040928390206002908101805485516000199582161561010002959095011691909104601f81018390048302840183019094528383526060939091830182828015610d285780601f10610cfd57610100808354040283529160200191610d28565b820191906000526020600020905b815481529060010190602001808311610d0b57829003601f168201915b50505050509050919050565b600080546040805160e060020a6302571be302815260048101869052905185933393600160a060020a0316926302571be39260248083019360209383900390910190829087803b158015610d8757600080fd5b505af1158015610d9b573d6000803e3d6000fd5b505050506040513d6020811015610db157600080fd5b5051600160a060020a031614610dc657600080fd5b60008381526001602090815260409091208351610deb9260029092019185019061108c565b50604080516020808252845181830152845186937fb7d29e911041e8d9b843369e890bcb72c9388692ba48b65ac54e7214c4c348f79387939092839283019185019080838360005b83811015610e4b578181015183820152602001610e33565b50505050905090810190601f168015610e785780820380516001836020036101000a031916815260200191505b509250505060405180910390a2505050565b600080546040805160e060020a6302571be302815260048101869052905185933393600160a060020a0316926302571be39260248083019360209383900390910190829087803b158015610edd57600080fd5b505af1158015610ef1573d6000803e3d6000fd5b505050506040513d6020811015610f0757600080fd5b5051600160a060020a031614610f1c57600080fd5b6000838152600160208181526040928390209091018490558151848152915185927f0424b6fe0d9c3bdbece0e7879dc241bb0c22e900be8b6c168b4ee08bd9bf83bc92908290030190a2505050565b600090815260016020526040902060038101546004909101549091565b600080546040805160e060020a6302571be302815260048101869052905185933393600160a060020a0316926302571be39260248083019360209383900390910190829087803b158015610fdb57600080fd5b505af1158015610fef573d6000803e3d6000fd5b505050506040513d602081101561100557600080fd5b5051600160a060020a03161461101a57600080fd5b600083815260016020908152604091829020805473ffffffffffffffffffffffffffffffffffffffff1916600160a060020a0386169081179091558251908152915185927f52d7d861f09ab3d26239d492e8968629f95e9e318cf0b73bfddc441522a15fd292908290030190a2505050565b828054600181600116156101000203166002900490600052602060002090601f016020900481019282601f106110cd57805160ff19168380011785556110fa565b828001600101855582156110fa579182015b828111156110fa5782518255916020019190600101906110df565b5061110692915061110a565b5090565b61112491905b808211156111065760008155600101611110565b905600a165627a7a72305820db02861400c6b3a36d9fa5c8af267332f178c718fdab62db1c5516e7e17815470029a165627a7a723058202f0c8eb0ba0fff94eb7138a0cff84cd8851f27f25cdf1d23bb1e3bb4081b033e0029",
  "source": "pragma solidity 0.4.24;\n\nimport \"../lib/ens/ENS.sol\";\nimport \"../lib/ens/PublicResolver.sol\";\nimport \"../ens/ENSConstants.sol\";\n\n\n// WARNING: This is an incredibly trustful ENS deployment, do NOT use in production!\n// This contract is NOT meant to be deployed to a live network.\n// Its only purpose is to easily create ENS instances for testing aragonPM.\ncontract ENSFactory is ENSConstants {\n    event DeployENS(address ens);\n\n    /**\n    * @notice Create a new ENS and set `_owner` as the owner of the top level domain.\n    * @param _owner Owner of .eth\n    * @return ENS\n    */\n    function newENS(address _owner) public returns (ENS) {\n        ENS ens = new ENS();\n\n        // Setup .eth TLD\n        ens.setSubnodeOwner(ENS_ROOT, ETH_TLD_LABEL, this);\n\n        // Setup public resolver\n        PublicResolver resolver = new PublicResolver(ens);\n        ens.setSubnodeOwner(ETH_TLD_NODE, PUBLIC_RESOLVER_LABEL, this);\n        ens.setResolver(PUBLIC_RESOLVER_NODE, resolver);\n        resolver.setAddr(PUBLIC_RESOLVER_NODE, resolver);\n\n        ens.setOwner(ETH_TLD_NODE, _owner);\n        ens.setOwner(ENS_ROOT, _owner);\n\n        emit DeployENS(ens);\n\n        return ens;\n    }\n}\n",
  "sourcePath": "@aragon/os/contracts/factory/ENSFactory.sol",
  "compiler": {
    "name": "solc",
    "version": "0.4.24+commit.e67f0147.Emscripten.clang"
  },
  "schemaVersion": "2.0.1",
  "updatedAt": "2020-02-08T22:24:06.550Z"
}