{
  "contractName": "ENSSubdomainRegistrar",
  "abi": [
    {
      "constant": true,
      "inputs": [],
      "name": "hasInitialized",
      "outputs": [
        {
          "name": "",
          "type": "bool"
        }
      ],
      "payable": false,
      "stateMutability": "view",
      "type": "function"
    },
    {
      "constant": true,
      "inputs": [
        {
          "name": "_script",
          "type": "bytes"
        }
      ],
      "name": "getEVMScriptExecutor",
      "outputs": [
        {
          "name": "",
          "type": "address"
        }
      ],
      "payable": false,
      "stateMutability": "view",
      "type": "function"
    },
    {
      "constant": true,
      "inputs": [],
      "name": "POINT_ROOTNODE_ROLE",
      "outputs": [
        {
          "name": "",
          "type": "bytes32"
        }
      ],
      "payable": false,
      "stateMutability": "view",
      "type": "function"
    },
    {
      "constant": true,
      "inputs": [],
      "name": "getRecoveryVault",
      "outputs": [
        {
          "name": "",
          "type": "address"
        }
      ],
      "payable": false,
      "stateMutability": "view",
      "type": "function"
    },
    {
      "constant": true,
      "inputs": [],
      "name": "ens",
      "outputs": [
        {
          "name": "",
          "type": "address"
        }
      ],
      "payable": false,
      "stateMutability": "view",
      "type": "function"
    },
    {
      "constant": true,
      "inputs": [
        {
          "name": "token",
          "type": "address"
        }
      ],
      "name": "allowRecoverability",
      "outputs": [
        {
          "name": "",
          "type": "bool"
        }
      ],
      "payable": false,
      "stateMutability": "view",
      "type": "function"
    },
    {
      "constant": true,
      "inputs": [],
      "name": "appId",
      "outputs": [
        {
          "name": "",
          "type": "bytes32"
        }
      ],
      "payable": false,
      "stateMutability": "view",
      "type": "function"
    },
    {
      "constant": true,
      "inputs": [],
      "name": "getInitializationBlock",
      "outputs": [
        {
          "name": "",
          "type": "uint256"
        }
      ],
      "payable": false,
      "stateMutability": "view",
      "type": "function"
    },
    {
      "constant": false,
      "inputs": [
        {
          "name": "_token",
          "type": "address"
        }
      ],
      "name": "transferToVault",
      "outputs": [],
      "payable": false,
      "stateMutability": "nonpayable",
      "type": "function"
    },
    {
      "constant": true,
      "inputs": [
        {
          "name": "_sender",
          "type": "address"
        },
        {
          "name": "_role",
          "type": "bytes32"
        },
        {
          "name": "_params",
          "type": "uint256[]"
        }
      ],
      "name": "canPerform",
      "outputs": [
        {
          "name": "",
          "type": "bool"
        }
      ],
      "payable": false,
      "stateMutability": "view",
      "type": "function"
    },
    {
      "constant": true,
      "inputs": [],
      "name": "getEVMScriptRegistry",
      "outputs": [
        {
          "name": "",
          "type": "address"
        }
      ],
      "payable": false,
      "stateMutability": "view",
      "type": "function"
    },
    {
      "constant": true,
      "inputs": [],
      "name": "DELETE_NAME_ROLE",
      "outputs": [
        {
          "name": "",
          "type": "bytes32"
        }
      ],
      "payable": false,
      "stateMutability": "view",
      "type": "function"
    },
    {
      "constant": true,
      "inputs": [],
      "name": "kernel",
      "outputs": [
        {
          "name": "",
          "type": "address"
        }
      ],
      "payable": false,
      "stateMutability": "view",
      "type": "function"
    },
    {
      "constant": true,
      "inputs": [],
      "name": "isPetrified",
      "outputs": [
        {
          "name": "",
          "type": "bool"
        }
      ],
      "payable": false,
      "stateMutability": "view",
      "type": "function"
    },
    {
      "constant": true,
      "inputs": [],
      "name": "rootNode",
      "outputs": [
        {
          "name": "",
          "type": "bytes32"
        }
      ],
      "payable": false,
      "stateMutability": "view",
      "type": "function"
    },
    {
      "constant": true,
      "inputs": [],
      "name": "CREATE_NAME_ROLE",
      "outputs": [
        {
          "name": "",
          "type": "bytes32"
        }
      ],
      "payable": false,
      "stateMutability": "view",
      "type": "function"
    },
    {
      "anonymous": false,
      "inputs": [
        {
          "indexed": true,
          "name": "node",
          "type": "bytes32"
        },
        {
          "indexed": true,
          "name": "label",
          "type": "bytes32"
        }
      ],
      "name": "NewName",
      "type": "event"
    },
    {
      "anonymous": false,
      "inputs": [
        {
          "indexed": true,
          "name": "node",
          "type": "bytes32"
        },
        {
          "indexed": true,
          "name": "label",
          "type": "bytes32"
        }
      ],
      "name": "DeleteName",
      "type": "event"
    },
    {
      "anonymous": false,
      "inputs": [
        {
          "indexed": true,
          "name": "executor",
          "type": "address"
        },
        {
          "indexed": false,
          "name": "script",
          "type": "bytes"
        },
        {
          "indexed": false,
          "name": "input",
          "type": "bytes"
        },
        {
          "indexed": false,
          "name": "returnData",
          "type": "bytes"
        }
      ],
      "name": "ScriptResult",
      "type": "event"
    },
    {
      "anonymous": false,
      "inputs": [
        {
          "indexed": true,
          "name": "vault",
          "type": "address"
        },
        {
          "indexed": true,
          "name": "token",
          "type": "address"
        },
        {
          "indexed": false,
          "name": "amount",
          "type": "uint256"
        }
      ],
      "name": "RecoverToVault",
      "type": "event"
    },
    {
      "constant": false,
      "inputs": [
        {
          "name": "_ens",
          "type": "address"
        },
        {
          "name": "_rootNode",
          "type": "bytes32"
        }
      ],
      "name": "initialize",
      "outputs": [],
      "payable": false,
      "stateMutability": "nonpayable",
      "type": "function"
    },
    {
      "constant": false,
      "inputs": [
        {
          "name": "_label",
          "type": "bytes32"
        },
        {
          "name": "_owner",
          "type": "address"
        }
      ],
      "name": "createName",
      "outputs": [
        {
          "name": "node",
          "type": "bytes32"
        }
      ],
      "payable": false,
      "stateMutability": "nonpayable",
      "type": "function"
    },
    {
      "constant": false,
      "inputs": [
        {
          "name": "_label",
          "type": "bytes32"
        },
        {
          "name": "_target",
          "type": "address"
        }
      ],
      "name": "createNameAndPoint",
      "outputs": [
        {
          "name": "node",
          "type": "bytes32"
        }
      ],
      "payable": false,
      "stateMutability": "nonpayable",
      "type": "function"
    },
    {
      "constant": false,
      "inputs": [
        {
          "name": "_label",
          "type": "bytes32"
        }
      ],
      "name": "deleteName",
      "outputs": [],
      "payable": false,
      "stateMutability": "nonpayable",
      "type": "function"
    },
    {
      "constant": false,
      "inputs": [
        {
          "name": "_target",
          "type": "address"
        }
      ],
      "name": "pointRootNode",
      "outputs": [],
      "payable": false,
      "stateMutability": "nonpayable",
      "type": "function"
    }
  ],
  "bytecode": "0x6080604052620000176401000000006200001d810204565b6200023b565b6200003064010000000062000125810204565b60408051808201909152601881527f494e49545f414c52454144595f494e495449414c495a45440000000000000000602082015290156200010c576040517f08c379a00000000000000000000000000000000000000000000000000000000081526004018080602001828103825283818151815260200191508051906020019080838360005b83811015620000d0578181015183820152602001620000b6565b50505050905090810190601f168015620000fe5780820380516001836020036101000a031916815260200191505b509250505060405180910390fd5b506200012360001964010000000062000154810204565b565b60006200014f60008051602062001d36833981519152640100000000620015c96200023382021704565b905090565b6200016764010000000062000125810204565b60408051808201909152601881527f494e49545f414c52454144595f494e495449414c495a454400000000000000006020820152901562000206576040517f08c379a000000000000000000000000000000000000000000000000000000000815260040180806020018281038252838181518152602001915080519060200190808383600083811015620000d0578181015183820152602001620000b6565b506200023060008051602062001d368339815191528264010000000062001a7b6200023782021704565b50565b5490565b9055565b611aeb806200024b6000396000f3006080604052600436106101035763ffffffff60e060020a6000350416630803fac081146101085780632914b9bd14610131578063307482cf146101a657806332f0a3b5146101cd5780633f15457f146101e257806365b0bc85146101f75780636b62cb1b1461021b5780637e7db6e11461023f57806380afdea8146102605780638b3dd749146102755780639d4941d81461028a578063a1658fad146102ad578063a479e50814610314578063bdbf7d4c14610329578063be13f47c1461033e578063d4aae0c414610362578063db60693114610377578063dc371e5414610398578063de4796ed146103b0578063faff50a8146103c5578063fef47e38146103da575b600080fd5b34801561011457600080fd5b5061011d6103ef565b604080519115158252519081900360200190f35b34801561013d57600080fd5b506040805160206004803580820135601f810184900484028501840190955284845261018a9436949293602493928401919081908401838280828437509497506104189650505050505050565b60408051600160a060020a039092168252519081900360200190f35b3480156101b257600080fd5b506101bb6104fe565b60408051918252519081900360200190f35b3480156101d957600080fd5b5061018a610522565b3480156101ee57600080fd5b5061018a61059a565b34801561020357600080fd5b506101bb600435600160a060020a03602435166105a9565b34801561022757600080fd5b506101bb600435600160a060020a03602435166106a7565b34801561024b57600080fd5b5061011d600160a060020a036004351661075c565b34801561026c57600080fd5b506101bb610762565b34801561028157600080fd5b506101bb610792565b34801561029657600080fd5b506102ab600160a060020a03600435166107bd565b005b3480156102b957600080fd5b50604080516020600460443581810135838102808601850190965280855261011d958335600160a060020a0316956024803596369695606495939492019291829185019084908082843750949750610a4c9650505050505050565b34801561032057600080fd5b5061018a610b9c565b34801561033557600080fd5b506101bb610c51565b34801561034a57600080fd5b506102ab600160a060020a0360043516602435610c75565b34801561036e57600080fd5b5061018a610e4a565b34801561038357600080fd5b506102ab600160a060020a0360043516610e75565b3480156103a457600080fd5b506102ab600435610f3a565b3480156103bc57600080fd5b5061011d6112b2565b3480156103d157600080fd5b506101bb6112c5565b3480156103e657600080fd5b506101bb6112cb565b6000806103fa610792565b9050801580159061041257508061040f6112dd565b10155b91505090565b6000610422610b9c565b600160a060020a03166304bf2a7f836040518263ffffffff1660e060020a0281526004018080602001828103825283818151815260200191508051906020019080838360005b83811015610480578181015183820152602001610468565b50505050905090810190601f1680156104ad5780820380516001836020036101000a031916815260200191505b5092505050602060405180830381600087803b1580156104cc57600080fd5b505af11580156104e0573d6000803e3d6000fd5b505050506040513d60208110156104f657600080fd5b505192915050565b7f9ecd0e7bddb2e241c41b595a436c4ea4fd33c9fa0caa8056acf084fc3aa3bfbe81565b600061052c610e4a565b600160a060020a03166332f0a3b56040518163ffffffff1660e060020a028152600401602060405180830381600087803b15801561056957600080fd5b505af115801561057d573d6000803e3d6000fd5b505050506040513d602081101561059357600080fd5b5051905090565b600054600160a060020a031681565b60408051600080825260208201909252600080516020611a80833981519152906105d99033908390855b50610a4c565b60408051808201909152600f8152600080516020611aa083398151915260208201529015156106895760405160e560020a62461bcd0281526004018080602001828103825283818151815260200191508051906020019080838360005b8381101561064e578181015183820152602001610636565b50505050905090810190601f16801561067b5780820380516001836020036101000a031916815260200191505b509250505060405180910390fd5b5061069484306112e1565b91506106a082846114a6565b5092915050565b60408051600080825260208201909252600080516020611a80833981519152906106d59033908390856105d3565b60408051808201909152600f8152600080516020611aa083398151915260208201529015156107495760405160e560020a62461bcd0281526004018080602001828103825283818151815260200191508051906020019080838360008381101561064e578181015183820152602001610636565b5061075484846112e1565b949350505050565b50600190565b600061078d7fd625496217aa6a3453eecb9c3489dc5a53e6c67b444329ea2b2cbc9ff547639b6115c9565b905090565b600061078d7febb05b386a8d34882b8711d156f463690983dc47815980fb82aeeff1aa43579e6115c9565b60008060006107cb8461075c565b60408051808201909152601281527f5245434f5645525f444953414c4c4f574544000000000000000000000000000060208201529015156108515760405160e560020a62461bcd0281526004018080602001828103825283818151815260200191508051906020019080838360008381101561064e578181015183820152602001610636565b5061085a610522565b9250610865836115d1565b60408051808201909152601a81527f5245434f5645525f5641554c545f4e4f545f434f4e545241435400000000000060208201529015156108eb5760405160e560020a62461bcd0281526004018080602001828103825283818151815260200191508051906020019080838360008381101561064e578181015183820152602001610636565b50600160a060020a038416151561093c5760405130319250600160a060020a0384169083156108fc029084906000818181858888f19350505050158015610936573d6000803e3d6000fd5b506109fb565b5082610957600160a060020a0382163063ffffffff6115fe16565b9150610973600160a060020a038216848463ffffffff6116fe16565b60408051808201909152601d81527f5245434f5645525f544f4b454e5f5452414e534645525f4641494c454400000060208201529015156109f95760405160e560020a62461bcd0281526004018080602001828103825283818151815260200191508051906020019080838360008381101561064e578181015183820152602001610636565b505b83600160a060020a031683600160a060020a03167f596caf56044b55fb8c4ca640089bbc2b63cae3e978b851f5745cbb7c5b288e02846040518082815260200191505060405180910390a350505050565b600080610a576103ef565b1515610a665760009150610b94565b610a6e610e4a565b9050600160a060020a0381161515610a895760009150610b94565b80600160a060020a031663fdef9106863087610aa488611774565b60405160e060020a63ffffffff8716028152600160a060020a03808616600483019081529085166024830152604482018490526080606483019081528351608484015283519192909160a490910190602085019080838360005b83811015610b16578181015183820152602001610afe565b50505050905090810190601f168015610b435780820380516001836020036101000a031916815260200191505b5095505050505050602060405180830381600087803b158015610b6557600080fd5b505af1158015610b79573d6000803e3d6000fd5b505050506040513d6020811015610b8f57600080fd5b505191505b509392505050565b600080610ba7610e4a565b604080517fbe00bbd80000000000000000000000000000000000000000000000000000000081527fd6f028ca0e8edb4a8c9757ca4fdccab25fa1e0317da1188108f7d2dee14902fb60048201527fddbcfd564f642ab5627cf68b9b7d374fb4f8a36e941a75d89c87998cef03bd6160248201529051600160a060020a03929092169163be00bbd8916044808201926020929091908290030181600087803b1580156104cc57600080fd5b7f03d74c8724218ad4a99859bcb2d846d39999449fd18013dd8d69096627e6862281565b610c7d610792565b60408051808201909152601881527f494e49545f414c52454144595f494e495449414c495a4544000000000000000060208201529015610d025760405160e560020a62461bcd0281526004018080602001828103825283818151815260200191508051906020019080838360008381101561064e578181015183820152602001610636565b50610d0b61177e565b6040805160e060020a6302571be30281526004810183905290513091600160a060020a038516916302571be3916024808201926020929091908290030181600087803b158015610d5a57600080fd5b505af1158015610d6e573d6000803e3d6000fd5b505050506040513d6020811015610d8457600080fd5b505160408051808201909152601881527f454e535355425f4e4f5f4e4f44455f4f574e4552534849500000000000000000602082015291600160a060020a0390911614610e165760405160e560020a62461bcd0281526004018080602001828103825283818151815260200191508051906020019080838360008381101561064e578181015183820152602001610636565b506000805473ffffffffffffffffffffffffffffffffffffffff1916600160a060020a039390931692909217909155600155565b600061078d7f4172f0f7d2289153072b0a6ca36959e0cbe2efc3afe50fc81636caa96338137b6115c9565b604080516000808252602082019092527f9ecd0e7bddb2e241c41b595a436c4ea4fd33c9fa0caa8056acf084fc3aa3bfbe91610eb59133918491906105d3565b60408051808201909152600f8152600080516020611aa08339815191526020820152901515610f295760405160e560020a62461bcd0281526004018080602001828103825283818151815260200191508051906020019080838360008381101561064e578181015183820152602001610636565b50610f36600154836114a6565b5050565b6040805160008082526020820190925281907f03d74c8724218ad4a99859bcb2d846d39999449fd18013dd8d69096627e6862290610f7c9033908390856105d3565b60408051808201909152600f8152600080516020611aa08339815191526020820152901515610ff05760405160e560020a62461bcd0281526004018080602001828103825283818151815260200191508051906020019080838360008381101561064e578181015183820152602001610636565b50610ffa84611846565b600080546040805160e060020a6302571be3028152600481018590529051939650600160a060020a03909116926302571be392602480840193602093929083900390910190829087803b15801561105057600080fd5b505af1158015611064573d6000803e3d6000fd5b505050506040513d602081101561107a57600080fd5b505160408051808201909152601381527f454e535355425f444f45534e545f4558495354000000000000000000000000006020820152909250600160a060020a038316151561110e5760405160e560020a62461bcd0281526004018080602001828103825283818151815260200191508051906020019080838360008381101561064e578181015183820152602001610636565b50600160a060020a038216301461119357600080546001546040805160e060020a6306ab592302815260048101929092526024820188905230604483015251600160a060020a03909216926306ab59239260648084019382900301818387803b15801561117a57600080fd5b505af115801561118e573d6000803e3d6000fd5b505050505b600080546040805160e160020a630c4b7b8502815260048101879052602481018490529051600160a060020a0390921692631896f70a9260448084019382900301818387803b1580156111e557600080fd5b505af11580156111f9573d6000803e3d6000fd5b505060008054604080517f5b0fc9c300000000000000000000000000000000000000000000000000000000815260048101899052602481018490529051600160a060020a039092169450635b0fc9c39350604480820193929182900301818387803b15801561126757600080fd5b505af115801561127b573d6000803e3d6000fd5b50506040518692508591507f49a4cd9bb38e10e402c44a680c5e13f710666ed683cb9cbbc131f7dc9f8b9d6090600090a350505050565b60006000196112bf610792565b14905090565b60015481565b600080516020611a8083398151915281565b4390565b60006112ec83611846565b600080546040805160e060020a6302571be30281526004810185905290519394509192600160a060020a03909116916302571be391602480830192602092919082900301818787803b15801561134157600080fd5b505af1158015611355573d6000803e3d6000fd5b505050506040513d602081101561136b57600080fd5b505160408051808201909152601281527f454e535355425f4e414d455f4558495354530000000000000000000000000000602082015291600160a060020a03909116146113fd5760405160e560020a62461bcd0281526004018080602001828103825283818151815260200191508051906020019080838360008381101561064e578181015183820152602001610636565b50600080546001546040805160e060020a6306ab5923028152600481019290925260248201879052600160a060020a03868116604484015290519216926306ab59239260648084019382900301818387803b15801561145b57600080fd5b505af115801561146f573d6000803e3d6000fd5b50506040518592508391507f8f858576a6066f5ecb4d2f49d40fac9db317ff8d5f7610d58b616b657d7044cf90600090a392915050565b60006114d17ffdd5d5de6dd63db72bbc2d487944ba13bf775b50a80805fe6fcaba9b0fba88f56118d1565b600080546040805160e160020a630c4b7b8502815260048101889052600160a060020a0380861660248301529151949550911692631896f70a9260448084019391929182900301818387803b15801561152957600080fd5b505af115801561153d573d6000803e3d6000fd5b5050604080517fd5fa2b0000000000000000000000000000000000000000000000000000000000815260048101879052600160a060020a0386811660248301529151918516935063d5fa2b00925060448082019260009290919082900301818387803b1580156115ac57600080fd5b505af11580156115c0573d6000803e3d6000fd5b50505050505050565b5490565b5490565b600080600160a060020a03831615156115ed57600091506115f8565b823b90506000811191505b50919050565b60408051600160a060020a038316602480830191909152825180830390910181526044909101909152602081018051600160e060020a03167f70a0823100000000000000000000000000000000000000000000000000000000179052600090818061166986846119fc565b60408051808201909152601c81527f534146455f4552435f32305f42414c414e43455f524556455254454400000000602082015291935091508215156116f45760405160e560020a62461bcd0281526004018080602001828103825283818151815260200191508051906020019080838360008381101561064e578181015183820152602001610636565b5095945050505050565b60408051600160a060020a03841660248201526044808201849052825180830390910181526064909101909152602081018051600160e060020a03167fa9059cbb0000000000000000000000000000000000000000000000000000000017905260009061176b8582611a2d565b95945050505050565b8051602002815290565b611786610792565b60408051808201909152601881527f494e49545f414c52454144595f494e495449414c495a454400000000000000006020820152901561180b5760405160e560020a62461bcd0281526004018080602001828103825283818151815260200191508051906020019080838360008381101561064e578181015183820152602001610636565b506118446118176112dd565b7febb05b386a8d34882b8711d156f463690983dc47815980fb82aeeff1aa43579e9063ffffffff611a7b16565b565b6001546040805160208082019390935280820184905281518082038301815260609091019182905280516000939192918291908401908083835b6020831061189f5780518252601f199092019160209182019101611880565b5181516020939093036101000a6000190180199091169216919091179052604051920182900390912095945050505050565b60008054604080517f0178b8bf0000000000000000000000000000000000000000000000000000000081526004810185905290518392600160a060020a031691630178b8bf91602480830192602092919082900301818787803b15801561193757600080fd5b505af115801561194b573d6000803e3d6000fd5b505050506040513d602081101561196157600080fd5b5051604080517f3b3b57de000000000000000000000000000000000000000000000000000000008152600481018690529051919250600160a060020a03831691633b3b57de916024808201926020929091908290030181600087803b1580156119c957600080fd5b505af11580156119dd573d6000803e3d6000fd5b505050506040513d60208110156119f357600080fd5b50519392505050565b6000806000806040516020818751602089018a5afa92506000831115611a2157805191505b50909590945092505050565b6000806040516020818551602087016000895af16000811115611a71573d8015611a5e5760208114611a6757611a6f565b60019350611a6f565b600183511493505b505b5090949350505050565b90555600f86bc2abe0919ab91ef714b2bec7c148d94f61fdb069b91a6cfe9ecdee1799ba4150505f415554485f4641494c45440000000000000000000000000000000000a165627a7a7230582071a3677514152021a83a3fd25e097e0aaff94f3d8aed494172b3a216d534deda0029ebb05b386a8d34882b8711d156f463690983dc47815980fb82aeeff1aa43579e",
  "source": "pragma solidity 0.4.24;\n\nimport \"../lib/ens/AbstractENS.sol\";\nimport \"../lib/ens/PublicResolver.sol\";\nimport \"./ENSConstants.sol\";\n\nimport \"../apps/AragonApp.sol\";\n\n\n/* solium-disable function-order */\n// Allow public initialize() to be first\ncontract ENSSubdomainRegistrar is AragonApp, ENSConstants {\n    /* Hardcoded constants to save gas\n    bytes32 public constant CREATE_NAME_ROLE = keccak256(\"CREATE_NAME_ROLE\");\n    bytes32 public constant DELETE_NAME_ROLE = keccak256(\"DELETE_NAME_ROLE\");\n    bytes32 public constant POINT_ROOTNODE_ROLE = keccak256(\"POINT_ROOTNODE_ROLE\");\n    */\n    bytes32 public constant CREATE_NAME_ROLE = 0xf86bc2abe0919ab91ef714b2bec7c148d94f61fdb069b91a6cfe9ecdee1799ba;\n    bytes32 public constant DELETE_NAME_ROLE = 0x03d74c8724218ad4a99859bcb2d846d39999449fd18013dd8d69096627e68622;\n    bytes32 public constant POINT_ROOTNODE_ROLE = 0x9ecd0e7bddb2e241c41b595a436c4ea4fd33c9fa0caa8056acf084fc3aa3bfbe;\n\n    string private constant ERROR_NO_NODE_OWNERSHIP = \"ENSSUB_NO_NODE_OWNERSHIP\";\n    string private constant ERROR_NAME_EXISTS = \"ENSSUB_NAME_EXISTS\";\n    string private constant ERROR_NAME_DOESNT_EXIST = \"ENSSUB_DOESNT_EXIST\";\n\n    AbstractENS public ens;\n    bytes32 public rootNode;\n\n    event NewName(bytes32 indexed node, bytes32 indexed label);\n    event DeleteName(bytes32 indexed node, bytes32 indexed label);\n\n    /**\n    * @dev Initialize can only be called once. It saves the block number in which it was initialized. This contract must be the owner of the `_rootNode` node so that it can create subdomains.\n    * @notice Initialize this ENSSubdomainRegistrar instance with `_ens` as the root ENS registry and `_rootNode` as the node to allocate subdomains under\n    * @param _ens Address of ENS registry\n    * @param _rootNode Node to allocate subdomains under\n    */\n    function initialize(AbstractENS _ens, bytes32 _rootNode) public onlyInit {\n        initialized();\n\n        // We need ownership to create subnodes\n        require(_ens.owner(_rootNode) == address(this), ERROR_NO_NODE_OWNERSHIP);\n\n        ens = _ens;\n        rootNode = _rootNode;\n    }\n\n    /**\n    * @notice Create a new ENS subdomain record for `_label` and assign ownership to `_owner`\n    * @param _label Label of new subdomain\n    * @param _owner Owner of new subdomain\n    * @return node Hash of created node\n    */\n    function createName(bytes32 _label, address _owner) external auth(CREATE_NAME_ROLE) returns (bytes32 node) {\n        return _createName(_label, _owner);\n    }\n\n    /**\n    * @notice Create a new ENS subdomain record for `_label` that resolves to `_target` and is owned by this ENSSubdomainRegistrar\n    * @param _label Label of new subdomain\n    * @param _target Ethereum address this new subdomain label will point to\n    * @return node Hash of created node\n    */\n    function createNameAndPoint(bytes32 _label, address _target) external auth(CREATE_NAME_ROLE) returns (bytes32 node) {\n        node = _createName(_label, this);\n        _pointToResolverAndResolve(node, _target);\n    }\n\n    /**\n    * @notice Deregister ENS subdomain record for `_label`\n    * @param _label Label of subdomain to deregister\n    */\n    function deleteName(bytes32 _label) external auth(DELETE_NAME_ROLE) {\n        bytes32 node = getNodeForLabel(_label);\n\n        address currentOwner = ens.owner(node);\n\n        require(currentOwner != address(0), ERROR_NAME_DOESNT_EXIST); // fail if deleting unset name\n\n        if (currentOwner != address(this)) { // needs to reclaim ownership so it can set resolver\n            ens.setSubnodeOwner(rootNode, _label, this);\n        }\n\n        ens.setResolver(node, address(0)); // remove resolver so it ends resolving\n        ens.setOwner(node, address(0));\n\n        emit DeleteName(node, _label);\n    }\n\n    /**\n    * @notice Resolve this ENSSubdomainRegistrar's root node to `_target`\n    * @param _target Ethereum address root node will point to\n    */\n    function pointRootNode(address _target) external auth(POINT_ROOTNODE_ROLE) {\n        _pointToResolverAndResolve(rootNode, _target);\n    }\n\n    function _createName(bytes32 _label, address _owner) internal returns (bytes32 node) {\n        node = getNodeForLabel(_label);\n        require(ens.owner(node) == address(0), ERROR_NAME_EXISTS); // avoid name reset\n\n        ens.setSubnodeOwner(rootNode, _label, _owner);\n\n        emit NewName(node, _label);\n\n        return node;\n    }\n\n    function _pointToResolverAndResolve(bytes32 _node, address _target) internal {\n        address publicResolver = getAddr(PUBLIC_RESOLVER_NODE);\n        ens.setResolver(_node, publicResolver);\n\n        PublicResolver(publicResolver).setAddr(_node, _target);\n    }\n\n    function getAddr(bytes32 node) internal view returns (address) {\n        address resolver = ens.resolver(node);\n        return PublicResolver(resolver).addr(node);\n    }\n\n    function getNodeForLabel(bytes32 _label) internal view returns (bytes32) {\n        return keccak256(abi.encodePacked(rootNode, _label));\n    }\n}\n",
  "sourcePath": "@aragon/os/contracts/ens/ENSSubdomainRegistrar.sol",
  "compiler": {
    "name": "solc",
    "version": "0.4.24+commit.e67f0147.Emscripten.clang"
  },
  "schemaVersion": "2.0.1",
  "updatedAt": "2020-03-21T01:36:19.043Z"
}