{
  "contractName": "EVMScriptRegistry",
  "abi": [
    {
      "constant": true,
      "inputs": [],
      "name": "hasInitialized",
      "outputs": [
        {
          "name": "",
          "type": "bool"
        }
      ],
      "payable": false,
      "stateMutability": "view",
      "type": "function"
    },
    {
      "constant": true,
      "inputs": [],
      "name": "REGISTRY_ADD_EXECUTOR_ROLE",
      "outputs": [
        {
          "name": "",
          "type": "bytes32"
        }
      ],
      "payable": false,
      "stateMutability": "view",
      "type": "function"
    },
    {
      "constant": true,
      "inputs": [
        {
          "name": "_script",
          "type": "bytes"
        }
      ],
      "name": "getEVMScriptExecutor",
      "outputs": [
        {
          "name": "",
          "type": "address"
        }
      ],
      "payable": false,
      "stateMutability": "view",
      "type": "function"
    },
    {
      "constant": true,
      "inputs": [],
      "name": "getRecoveryVault",
      "outputs": [
        {
          "name": "",
          "type": "address"
        }
      ],
      "payable": false,
      "stateMutability": "view",
      "type": "function"
    },
    {
      "constant": true,
      "inputs": [
        {
          "name": "token",
          "type": "address"
        }
      ],
      "name": "allowRecoverability",
      "outputs": [
        {
          "name": "",
          "type": "bool"
        }
      ],
      "payable": false,
      "stateMutability": "view",
      "type": "function"
    },
    {
      "constant": true,
      "inputs": [],
      "name": "appId",
      "outputs": [
        {
          "name": "",
          "type": "bytes32"
        }
      ],
      "payable": false,
      "stateMutability": "view",
      "type": "function"
    },
    {
      "constant": true,
      "inputs": [],
      "name": "getInitializationBlock",
      "outputs": [
        {
          "name": "",
          "type": "uint256"
        }
      ],
      "payable": false,
      "stateMutability": "view",
      "type": "function"
    },
    {
      "constant": false,
      "inputs": [
        {
          "name": "_token",
          "type": "address"
        }
      ],
      "name": "transferToVault",
      "outputs": [],
      "payable": false,
      "stateMutability": "nonpayable",
      "type": "function"
    },
    {
      "constant": true,
      "inputs": [
        {
          "name": "_sender",
          "type": "address"
        },
        {
          "name": "_role",
          "type": "bytes32"
        },
        {
          "name": "_params",
          "type": "uint256[]"
        }
      ],
      "name": "canPerform",
      "outputs": [
        {
          "name": "",
          "type": "bool"
        }
      ],
      "payable": false,
      "stateMutability": "view",
      "type": "function"
    },
    {
      "constant": true,
      "inputs": [],
      "name": "getEVMScriptRegistry",
      "outputs": [
        {
          "name": "",
          "type": "address"
        }
      ],
      "payable": false,
      "stateMutability": "view",
      "type": "function"
    },
    {
      "constant": true,
      "inputs": [],
      "name": "REGISTRY_MANAGER_ROLE",
      "outputs": [
        {
          "name": "",
          "type": "bytes32"
        }
      ],
      "payable": false,
      "stateMutability": "view",
      "type": "function"
    },
    {
      "constant": true,
      "inputs": [],
      "name": "kernel",
      "outputs": [
        {
          "name": "",
          "type": "address"
        }
      ],
      "payable": false,
      "stateMutability": "view",
      "type": "function"
    },
    {
      "constant": true,
      "inputs": [],
      "name": "isPetrified",
      "outputs": [
        {
          "name": "",
          "type": "bool"
        }
      ],
      "payable": false,
      "stateMutability": "view",
      "type": "function"
    },
    {
      "constant": true,
      "inputs": [
        {
          "name": "",
          "type": "uint256"
        }
      ],
      "name": "executors",
      "outputs": [
        {
          "name": "executor",
          "type": "address"
        },
        {
          "name": "enabled",
          "type": "bool"
        }
      ],
      "payable": false,
      "stateMutability": "view",
      "type": "function"
    },
    {
      "anonymous": false,
      "inputs": [
        {
          "indexed": true,
          "name": "executorId",
          "type": "uint256"
        },
        {
          "indexed": true,
          "name": "executorAddress",
          "type": "address"
        }
      ],
      "name": "EnableExecutor",
      "type": "event"
    },
    {
      "anonymous": false,
      "inputs": [
        {
          "indexed": true,
          "name": "executorId",
          "type": "uint256"
        },
        {
          "indexed": true,
          "name": "executorAddress",
          "type": "address"
        }
      ],
      "name": "DisableExecutor",
      "type": "event"
    },
    {
      "anonymous": false,
      "inputs": [
        {
          "indexed": true,
          "name": "executor",
          "type": "address"
        },
        {
          "indexed": false,
          "name": "script",
          "type": "bytes"
        },
        {
          "indexed": false,
          "name": "input",
          "type": "bytes"
        },
        {
          "indexed": false,
          "name": "returnData",
          "type": "bytes"
        }
      ],
      "name": "ScriptResult",
      "type": "event"
    },
    {
      "anonymous": false,
      "inputs": [
        {
          "indexed": true,
          "name": "vault",
          "type": "address"
        },
        {
          "indexed": true,
          "name": "token",
          "type": "address"
        },
        {
          "indexed": false,
          "name": "amount",
          "type": "uint256"
        }
      ],
      "name": "RecoverToVault",
      "type": "event"
    },
    {
      "constant": false,
      "inputs": [],
      "name": "initialize",
      "outputs": [],
      "payable": false,
      "stateMutability": "nonpayable",
      "type": "function"
    },
    {
      "constant": false,
      "inputs": [
        {
          "name": "_executor",
          "type": "address"
        }
      ],
      "name": "addScriptExecutor",
      "outputs": [
        {
          "name": "id",
          "type": "uint256"
        }
      ],
      "payable": false,
      "stateMutability": "nonpayable",
      "type": "function"
    },
    {
      "constant": false,
      "inputs": [
        {
          "name": "_executorId",
          "type": "uint256"
        }
      ],
      "name": "disableScriptExecutor",
      "outputs": [],
      "payable": false,
      "stateMutability": "nonpayable",
      "type": "function"
    },
    {
      "constant": false,
      "inputs": [
        {
          "name": "_executorId",
          "type": "uint256"
        }
      ],
      "name": "enableScriptExecutor",
      "outputs": [],
      "payable": false,
      "stateMutability": "nonpayable",
      "type": "function"
    },
    {
      "constant": true,
      "inputs": [
        {
          "name": "_script",
          "type": "bytes"
        }
      ],
      "name": "getScriptExecutor",
      "outputs": [
        {
          "name": "",
          "type": "address"
        }
      ],
      "payable": false,
      "stateMutability": "view",
      "type": "function"
    }
  ],
  "bytecode": "0x6080604052620000176401000000006200001d810204565b6200023b565b6200003064010000000062000125810204565b60408051808201909152601881527f494e49545f414c52454144595f494e495449414c495a45440000000000000000602082015290156200010c576040517f08c379a00000000000000000000000000000000000000000000000000000000081526004018080602001828103825283818151815260200191508051906020019080838360005b83811015620000d0578181015183820152602001620000b6565b50505050905090810190601f168015620000fe5780820380516001836020036101000a031916815260200191505b509250505060405180910390fd5b506200012360001964010000000062000154810204565b565b60006200014f60008051602062001824833981519152640100000000620012296200023382021704565b905090565b6200016764010000000062000125810204565b60408051808201909152601881527f494e49545f414c52454144595f494e495449414c495a454400000000000000006020820152901562000206576040517f08c379a000000000000000000000000000000000000000000000000000000000815260040180806020018281038252838181518152602001915080519060200190808383600083811015620000d0578181015183820152602001620000b6565b50620002306000805160206200182483398151915282640100000000620014e26200023782021704565b50565b5490565b9055565b6115d9806200024b6000396000f3006080604052600436106100ed5763ffffffff60e060020a60003504166304bf2a7f81146100f25780630803fac01461016757806319f3d10f146101905780632914b9bd146101b757806332f0a3b5146102105780635ca4d4bb146102255780637e7db6e11461023f57806380afdea8146102605780638129fc1c1461027557806387a16f121461028a5780638b3dd749146102ab5780639d4941d8146102c0578063a1658fad146102e1578063a479e50814610348578063bd8fde1c1461035d578063cff606a014610372578063d4aae0c41461038a578063de4796ed1461039f578063f97a05df146103b4575b600080fd5b3480156100fe57600080fd5b506040805160206004803580820135601f810184900484028501840190955284845261014b9436949293602493928401919081908401838280828437509497506103ef9650505050505050565b60408051600160a060020a039092168252519081900360200190f35b34801561017357600080fd5b5061017c61050c565b604080519115158252519081900360200190f35b34801561019c57600080fd5b506101a5610535565b60408051918252519081900360200190f35b3480156101c357600080fd5b506040805160206004803580820135601f810184900484028501840190955284845261014b9436949293602493928401919081908401838280828437509497506105599650505050505050565b34801561021c57600080fd5b5061014b61063f565b34801561023157600080fd5b5061023d6004356106b7565b005b34801561024b57600080fd5b5061017c600160a060020a0360043516610843565b34801561026c57600080fd5b506101a5610849565b34801561028157600080fd5b5061023d610879565b34801561029657600080fd5b506101a5600160a060020a0360043516610916565b3480156102b757600080fd5b506101a5610a70565b3480156102cc57600080fd5b5061023d600160a060020a0360043516610a9b565b3480156102ed57600080fd5b50604080516020600460443581810135838102808601850190965280855261017c958335600160a060020a0316956024803596369695606495939492019291829185019084908082843750949750610d2a9650505050505050565b34801561035457600080fd5b5061014b610e7a565b34801561036957600080fd5b506101a5610f2f565b34801561037e57600080fd5b5061023d600435610f41565b34801561039657600080fd5b5061014b61116c565b3480156103ab57600080fd5b5061017c611197565b3480156103c057600080fd5b506103cc6004356111aa565b60408051600160a060020a03909316835290151560208301528051918290030190f35b60008060006004845110156040805190810160405280601e81526020017f45564d5245475f5343524950545f4c454e4754485f544f4f5f53484f525400008152509015156104be5760405160e560020a62461bcd0281526004018080602001828103825283818151815260200191508051906020019080838360005b8381101561048357818101518382015260200161046b565b50505050905090810190601f1680156104b05780820380516001836020036101000a031916815260200191505b509250505060405180910390fd5b506104c8846111d1565b63ffffffff1660008181526001602052604090208054919350915060a060020a900460ff166104f8576000610504565b8054600160a060020a03165b949350505050565b600080610517610a70565b9050801580159061052f57508061052c6111e4565b10155b91505090565b7fc4e90f38eea8c4212a009ca7b8947943ba4d4a58d19b683417f65291d1cd9ed281565b6000610563610e7a565b600160a060020a03166304bf2a7f836040518263ffffffff1660e060020a0281526004018080602001828103825283818151815260200191508051906020019080838360005b838110156105c15781810151838201526020016105a9565b50505050905090810190601f1680156105ee5780820380516001836020036101000a031916815260200191505b5092505050602060405180830381600087803b15801561060d57600080fd5b505af1158015610621573d6000803e3d6000fd5b505050506040513d602081101561063757600080fd5b505192915050565b600061064961116c565b600160a060020a03166332f0a3b56040518163ffffffff1660e060020a028152600401602060405180830381600087803b15801561068657600080fd5b505af115801561069a573d6000803e3d6000fd5b505050506040513d60208110156106b057600080fd5b5051905090565b600060008051602061158e8339815191526106d1836111e8565b6106dc338383610d2a565b60408051808201909152600f815260008051602061156e83398151915260208201529015156107505760405160e560020a62461bcd0281526004018080602001828103825283818151815260200191508051906020019080838360008381101561048357818101518382015260200161046b565b5060008481526001602090815260409182902080548351808501909452601884527f45564d5245475f4558454355544f525f44495341424c4544000000000000000092840192909252945060a060020a900460ff1615156107f65760405160e560020a62461bcd0281526004018080602001828103825283818151815260200191508051906020019080838360008381101561048357818101518382015260200161046b565b50825460a060020a60ff021981168455604051600160a060020a039091169085907fc13cd9238f8ab1e5ab1f95cde77e89288fe5c328d04739adffd57b144b408fd190600090a350505050565b50600190565b60006108747fd625496217aa6a3453eecb9c3489dc5a53e6c67b444329ea2b2cbc9ff547639b611229565b905090565b610881610a70565b60408051808201909152601881527f494e49545f414c52454144595f494e495449414c495a45440000000000000000602082015290156109065760405160e560020a62461bcd0281526004018080602001828103825283818151815260200191508051906020019080838360008381101561048357818101518382015260200161046b565b5061090f61122d565b6001600055565b6040805160008082526020820190925281907fc4e90f38eea8c4212a009ca7b8947943ba4d4a58d19b683417f65291d1cd9ed2906109579033908390610d2a565b60408051808201909152600f815260008051602061156e83398151915260208201529015156109cb5760405160e560020a62461bcd0281526004018080602001828103825283818151815260200191508051906020019080838360008381101561048357818101518382015260200161046b565b506000805460018082018355604080518082018252600160a060020a03808a168083526020808401868152878952959052838720925183549551151560a060020a0260a060020a60ff02199190931673ffffffffffffffffffffffffffffffffffffffff199096169590951794909416179055519194509184917f7697fa3288629310075a63816e294207c84f3cfc18ccf8e18eb917ec0bb566999190a35092915050565b60006108747febb05b386a8d34882b8711d156f463690983dc47815980fb82aeeff1aa43579e611229565b6000806000610aa984610843565b60408051808201909152601281527f5245434f5645525f444953414c4c4f57454400000000000000000000000000006020820152901515610b2f5760405160e560020a62461bcd0281526004018080602001828103825283818151815260200191508051906020019080838360008381101561048357818101518382015260200161046b565b50610b3861063f565b9250610b43836112f9565b60408051808201909152601a81527f5245434f5645525f5641554c545f4e4f545f434f4e54524143540000000000006020820152901515610bc95760405160e560020a62461bcd0281526004018080602001828103825283818151815260200191508051906020019080838360008381101561048357818101518382015260200161046b565b50600160a060020a0384161515610c1a5760405130319250600160a060020a0384169083156108fc029084906000818181858888f19350505050158015610c14573d6000803e3d6000fd5b50610cd9565b5082610c35600160a060020a0382163063ffffffff61132616565b9150610c51600160a060020a038216848463ffffffff61142616565b60408051808201909152601d81527f5245434f5645525f544f4b454e5f5452414e534645525f4641494c45440000006020820152901515610cd75760405160e560020a62461bcd0281526004018080602001828103825283818151815260200191508051906020019080838360008381101561048357818101518382015260200161046b565b505b83600160a060020a031683600160a060020a03167f596caf56044b55fb8c4ca640089bbc2b63cae3e978b851f5745cbb7c5b288e02846040518082815260200191505060405180910390a350505050565b600080610d3561050c565b1515610d445760009150610e72565b610d4c61116c565b9050600160a060020a0381161515610d675760009150610e72565b80600160a060020a031663fdef9106863087610d828861149c565b60405160e060020a63ffffffff8716028152600160a060020a03808616600483019081529085166024830152604482018490526080606483019081528351608484015283519192909160a490910190602085019080838360005b83811015610df4578181015183820152602001610ddc565b50505050905090810190601f168015610e215780820380516001836020036101000a031916815260200191505b5095505050505050602060405180830381600087803b158015610e4357600080fd5b505af1158015610e57573d6000803e3d6000fd5b505050506040513d6020811015610e6d57600080fd5b505191505b509392505050565b600080610e8561116c565b604080517fbe00bbd80000000000000000000000000000000000000000000000000000000081527fd6f028ca0e8edb4a8c9757ca4fdccab25fa1e0317da1188108f7d2dee14902fb60048201527fddbcfd564f642ab5627cf68b9b7d374fb4f8a36e941a75d89c87998cef03bd6160248201529051600160a060020a03929092169163be00bbd8916044808201926020929091908290030181600087803b15801561060d57600080fd5b60008051602061158e83398151915281565b600060008051602061158e833981519152610f5b836111e8565b610f66338383610d2a565b60408051808201909152600f815260008051602061156e8339815191526020820152901515610fda5760405160e560020a62461bcd0281526004018080602001828103825283818151815260200191508051906020019080838360008381101561048357818101518382015260200161046b565b5083600081118015610fed575060005481105b60408051808201909152601a81527f45564d5245475f494e4558495354454e545f4558454355544f5200000000000060208201529015156110735760405160e560020a62461bcd0281526004018080602001828103825283818151815260200191508051906020019080838360008381101561048357818101518382015260200161046b565b5060008581526001602090815260409182902080548351808501909452601784527f45564d5245475f4558454355544f525f454e41424c454400000000000000000092840192909252955060a060020a900460ff16156111185760405160e560020a62461bcd0281526004018080602001828103825283818151815260200191508051906020019080838360008381101561048357818101518382015260200161046b565b50835460a060020a60ff02191660a060020a17808555604051600160a060020a039091169086907f7697fa3288629310075a63816e294207c84f3cfc18ccf8e18eb917ec0bb5669990600090a35050505050565b60006108747f4172f0f7d2289153072b0a6ca36959e0cbe2efc3afe50fc81636caa96338137b611229565b60006000196111a4610a70565b14905090565b600160205260009081526040902054600160a060020a0381169060a060020a900460ff1682565b60006111de8260006114a6565b92915050565b4390565b604080516001808252818301909252606091602080830190803883390190505090508181600081518110151561121a57fe5b60209081029091010152919050565b5490565b611235610a70565b60408051808201909152601881527f494e49545f414c52454144595f494e495449414c495a45440000000000000000602082015290156112ba5760405160e560020a62461bcd0281526004018080602001828103825283818151815260200191508051906020019080838360008381101561048357818101518382015260200161046b565b506112f36112c66111e4565b7febb05b386a8d34882b8711d156f463690983dc47815980fb82aeeff1aa43579e9063ffffffff6114e216565b565b5490565b600080600160a060020a03831615156113155760009150611320565b823b90506000811191505b50919050565b60408051600160a060020a038316602480830191909152825180830390910181526044909101909152602081018051600160e060020a03167f70a0823100000000000000000000000000000000000000000000000000000000179052600090818061139186846114e6565b60408051808201909152601c81527f534146455f4552435f32305f42414c414e43455f5245564552544544000000006020820152919350915082151561141c5760405160e560020a62461bcd0281526004018080602001828103825283818151815260200191508051906020019080838360008381101561048357818101518382015260200161046b565b5095945050505050565b60408051600160a060020a03841660248201526044808201849052825180830390910181526064909101909152602081018051600160e060020a03167fa9059cbb000000000000000000000000000000000000000000000000000000001790526000906114938582611517565b95945050505050565b8051602002815290565b6000806114b38484611565565b60e060020a7bffffffffffffffffffffffffffffffffffffffffffffffffffffffff1990911604949350505050565b9055565b6000806000806040516020818751602089018a5afa9250600083111561150b57805191505b50909590945092505050565b6000806040516020818551602087016000895af1600081111561155b573d8015611548576020811461155157611559565b60019350611559565b600183511493505b505b5090949350505050565b01602001519056004150505f415554485f4641494c45440000000000000000000000000000000000f7a450ef335e1892cb42c8ca72e7242359d7711924b75db5717410da3f614aa3a165627a7a72305820a38f004643456bdf10c7e8ac32bad45d3130f9b07d3617d56c5720e33e709dc30029ebb05b386a8d34882b8711d156f463690983dc47815980fb82aeeff1aa43579e",
  "source": "pragma solidity 0.4.24;\n\nimport \"../apps/AragonApp.sol\";\nimport \"./ScriptHelpers.sol\";\nimport \"./IEVMScriptExecutor.sol\";\nimport \"./IEVMScriptRegistry.sol\";\n\n\n/* solium-disable function-order */\n// Allow public initialize() to be first\ncontract EVMScriptRegistry is IEVMScriptRegistry, EVMScriptRegistryConstants, AragonApp {\n    using ScriptHelpers for bytes;\n\n    /* Hardcoded constants to save gas\n    bytes32 public constant REGISTRY_ADD_EXECUTOR_ROLE = keccak256(\"REGISTRY_ADD_EXECUTOR_ROLE\");\n    bytes32 public constant REGISTRY_MANAGER_ROLE = keccak256(\"REGISTRY_MANAGER_ROLE\");\n    */\n    bytes32 public constant REGISTRY_ADD_EXECUTOR_ROLE = 0xc4e90f38eea8c4212a009ca7b8947943ba4d4a58d19b683417f65291d1cd9ed2;\n    // WARN: Manager can censor all votes and the like happening in an org\n    bytes32 public constant REGISTRY_MANAGER_ROLE = 0xf7a450ef335e1892cb42c8ca72e7242359d7711924b75db5717410da3f614aa3;\n\n    uint256 internal constant SCRIPT_START_LOCATION = 4;\n\n    string private constant ERROR_INEXISTENT_EXECUTOR = \"EVMREG_INEXISTENT_EXECUTOR\";\n    string private constant ERROR_EXECUTOR_ENABLED = \"EVMREG_EXECUTOR_ENABLED\";\n    string private constant ERROR_EXECUTOR_DISABLED = \"EVMREG_EXECUTOR_DISABLED\";\n    string private constant ERROR_SCRIPT_LENGTH_TOO_SHORT = \"EVMREG_SCRIPT_LENGTH_TOO_SHORT\";\n\n    struct ExecutorEntry {\n        IEVMScriptExecutor executor;\n        bool enabled;\n    }\n\n    uint256 private executorsNextIndex;\n    mapping (uint256 => ExecutorEntry) public executors;\n\n    event EnableExecutor(uint256 indexed executorId, address indexed executorAddress);\n    event DisableExecutor(uint256 indexed executorId, address indexed executorAddress);\n\n    modifier executorExists(uint256 _executorId) {\n        require(_executorId > 0 && _executorId < executorsNextIndex, ERROR_INEXISTENT_EXECUTOR);\n        _;\n    }\n\n    /**\n    * @notice Initialize the registry\n    */\n    function initialize() public onlyInit {\n        initialized();\n        // Create empty record to begin executor IDs at 1\n        executorsNextIndex = 1;\n    }\n\n    /**\n    * @notice Add a new script executor with address `_executor` to the registry\n    * @param _executor Address of the IEVMScriptExecutor that will be added to the registry\n    * @return id Identifier of the executor in the registry\n    */\n    function addScriptExecutor(IEVMScriptExecutor _executor) external auth(REGISTRY_ADD_EXECUTOR_ROLE) returns (uint256 id) {\n        uint256 executorId = executorsNextIndex++;\n        executors[executorId] = ExecutorEntry(_executor, true);\n        emit EnableExecutor(executorId, _executor);\n        return executorId;\n    }\n\n    /**\n    * @notice Disable script executor with ID `_executorId`\n    * @param _executorId Identifier of the executor in the registry\n    */\n    function disableScriptExecutor(uint256 _executorId)\n        external\n        authP(REGISTRY_MANAGER_ROLE, arr(_executorId))\n    {\n        // Note that we don't need to check for an executor's existence in this case, as only\n        // existing executors can be enabled\n        ExecutorEntry storage executorEntry = executors[_executorId];\n        require(executorEntry.enabled, ERROR_EXECUTOR_DISABLED);\n        executorEntry.enabled = false;\n        emit DisableExecutor(_executorId, executorEntry.executor);\n    }\n\n    /**\n    * @notice Enable script executor with ID `_executorId`\n    * @param _executorId Identifier of the executor in the registry\n    */\n    function enableScriptExecutor(uint256 _executorId)\n        external\n        authP(REGISTRY_MANAGER_ROLE, arr(_executorId))\n        executorExists(_executorId)\n    {\n        ExecutorEntry storage executorEntry = executors[_executorId];\n        require(!executorEntry.enabled, ERROR_EXECUTOR_ENABLED);\n        executorEntry.enabled = true;\n        emit EnableExecutor(_executorId, executorEntry.executor);\n    }\n\n    /**\n    * @dev Get the script executor that can execute a particular script based on its first 4 bytes\n    * @param _script EVMScript being inspected\n    */\n    function getScriptExecutor(bytes _script) public view returns (IEVMScriptExecutor) {\n        require(_script.length >= SCRIPT_START_LOCATION, ERROR_SCRIPT_LENGTH_TOO_SHORT);\n        uint256 id = _script.getSpecId();\n\n        // Note that we don't need to check for an executor's existence in this case, as only\n        // existing executors can be enabled\n        ExecutorEntry storage entry = executors[id];\n        return entry.enabled ? entry.executor : IEVMScriptExecutor(0);\n    }\n}\n",
  "sourcePath": "@aragon/os/contracts/evmscript/EVMScriptRegistry.sol",
  "compiler": {
    "name": "solc",
    "version": "0.4.24+commit.e67f0147.Emscripten.clang"
  },
  "schemaVersion": "2.0.1",
  "updatedAt": "2020-02-08T22:24:06.673Z"
}