{
  "contractName": "FIFSResolvingRegistrar",
  "abi": [
    {
      "constant": true,
      "inputs": [],
      "name": "rootNode",
      "outputs": [
        {
          "name": "",
          "type": "bytes32"
        }
      ],
      "payable": false,
      "stateMutability": "view",
      "type": "function"
    },
    {
      "inputs": [
        {
          "name": "_ensAddr",
          "type": "address"
        },
        {
          "name": "_defaultResolver",
          "type": "address"
        },
        {
          "name": "_node",
          "type": "bytes32"
        }
      ],
      "payable": false,
      "stateMutability": "nonpayable",
      "type": "constructor"
    },
    {
      "anonymous": false,
      "inputs": [
        {
          "indexed": true,
          "name": "subnode",
          "type": "bytes32"
        },
        {
          "indexed": true,
          "name": "owner",
          "type": "address"
        },
        {
          "indexed": true,
          "name": "resolver",
          "type": "address"
        }
      ],
      "name": "ClaimSubdomain",
      "type": "event"
    },
    {
      "constant": false,
      "inputs": [
        {
          "name": "_subnode",
          "type": "bytes32"
        },
        {
          "name": "_owner",
          "type": "address"
        }
      ],
      "name": "register",
      "outputs": [],
      "payable": false,
      "stateMutability": "nonpayable",
      "type": "function"
    },
    {
      "constant": false,
      "inputs": [
        {
          "name": "_subnode",
          "type": "bytes32"
        },
        {
          "name": "_owner",
          "type": "address"
        },
        {
          "name": "_resolver",
          "type": "address"
        }
      ],
      "name": "registerWithResolver",
      "outputs": [],
      "payable": false,
      "stateMutability": "nonpayable",
      "type": "function"
    }
  ],
  "bytecode": "0x608060405234801561001057600080fd5b5060405160608061056083398101604090815281516020830151919092015160018054600160a060020a03948516600160a060020a031991821617909155600280549490931693169290921790556000556104f0806100706000396000f3006080604052600436106100565763ffffffff7c0100000000000000000000000000000000000000000000000000000000600035041663d22057a9811461005b578063f858fc0b14610081578063faff50a8146100ab575b600080fd5b34801561006757600080fd5b5061007f600435600160a060020a03602435166100d2565b005b34801561008d57600080fd5b5061007f600435600160a060020a03602435811690604435166100ef565b3480156100b757600080fd5b506100c06104be565b60408051918252519081900360200190f35b6002546100eb9083908390600160a060020a03166100ef565b5050565b60008054604080519182526020808301879052815192839003820183206001547f02571be3000000000000000000000000000000000000000000000000000000008552600485018290529251909493600160a060020a03909316926302571be392602480830193919282900301818787803b15801561016d57600080fd5b505af1158015610181573d6000803e3d6000fd5b505050506040513d602081101561019757600080fd5b50519050600160a060020a038116156101af57600080fd5b60015460008054604080517f06ab592300000000000000000000000000000000000000000000000000000000815260048101929092526024820189905230604483015251600160a060020a03909316926306ab59239260648084019391929182900301818387803b15801561022357600080fd5b505af1158015610237573d6000803e3d6000fd5b5050600154604080517f1896f70a00000000000000000000000000000000000000000000000000000000815260048101879052600160a060020a0388811660248301529151919092169350631896f70a9250604480830192600092919082900301818387803b1580156102a957600080fd5b505af11580156102bd573d6000803e3d6000fd5b5050604080517f01ffc9a70000000000000000000000000000000000000000000000000000000081527f3b3b57de0000000000000000000000000000000000000000000000000000000060048201529051600160a060020a03871693506301ffc9a7925060248083019260209291908290030181600087803b15801561034257600080fd5b505af1158015610356573d6000803e3d6000fd5b505050506040513d602081101561036c57600080fd5b5051156103f757604080517fd5fa2b0000000000000000000000000000000000000000000000000000000000815260048101849052600160a060020a03868116602483015291519185169163d5fa2b009160448082019260009290919082900301818387803b1580156103de57600080fd5b505af11580156103f2573d6000803e3d6000fd5b505050505b600154604080517f5b0fc9c300000000000000000000000000000000000000000000000000000000815260048101859052600160a060020a03878116602483015291519190921691635b0fc9c391604480830192600092919082900301818387803b15801561046557600080fd5b505af1158015610479573d6000803e3d6000fd5b5050604051600160a060020a0380871693508716915087907fe27a5a369e0d2c5056ccfcbd5f83f145f43350142d42aaf46ff9a9e461d543df90600090a45050505050565b600054815600a165627a7a72305820a0ead551d74827f46d6b6c834d727988471a5c9a19be931cc901f51abcb6e5d60029",
  "source": "pragma solidity 0.4.24;\n\nimport \"@aragon/os/contracts/lib/ens/AbstractENS.sol\";\nimport \"./ens/IPublicResolver.sol\";\nimport \"./IFIFSResolvingRegistrar.sol\";\n\n\n/**\n * A registrar that allocates subdomains and sets resolvers to the first person to claim them.\n *\n * Adapted from ENS' FIFSRegistrar:\n *   https://github.com/ethereum/ens/blob/master/contracts/FIFSRegistrar.sol\n */\ncontract FIFSResolvingRegistrar is IFIFSResolvingRegistrar {\n    bytes32 public rootNode;\n    AbstractENS internal ens;\n    IPublicResolver internal defaultResolver;\n\n    bytes4 private constant ADDR_INTERFACE_ID = 0x3b3b57de;\n\n    event ClaimSubdomain(bytes32 indexed subnode, address indexed owner, address indexed resolver);\n\n    /**\n     * Constructor.\n     * @param _ensAddr The address of the ENS registry.\n     * @param _defaultResolver The address of the default resolver to use for subdomains.\n     * @param _node The node that this registrar administers.\n     */\n    constructor(AbstractENS _ensAddr, IPublicResolver _defaultResolver, bytes32 _node)\n        public\n    {\n        ens = _ensAddr;\n        defaultResolver = _defaultResolver;\n        rootNode = _node;\n    }\n\n    /**\n     * Register a subdomain with the default resolver if it hasn't been claimed yet.\n     * @param _subnode The hash of the label to register.\n     * @param _owner The address of the new owner.\n     */\n    function register(bytes32 _subnode, address _owner) external {\n        registerWithResolver(_subnode, _owner, defaultResolver);\n    }\n\n    /**\n     * Register a subdomain if it hasn't been claimed yet.\n     * @param _subnode The hash of the label to register.\n     * @param _owner The address of the new owner.\n     * @param _resolver The address of the resolver.\n     *                  If the resolver supports the address interface, the subdomain's address will\n     *                  be set to the new owner.\n     */\n    function registerWithResolver(bytes32 _subnode, address _owner, IPublicResolver _resolver) public {\n        bytes32 node = keccak256(rootNode, _subnode);\n        address currentOwner = ens.owner(node);\n        require(currentOwner == address(0));\n\n        ens.setSubnodeOwner(rootNode, _subnode, address(this));\n        ens.setResolver(node, _resolver);\n        if (_resolver.supportsInterface(ADDR_INTERFACE_ID)) {\n            _resolver.setAddr(node, _owner);\n        }\n\n        // Give ownership to the claimer\n        ens.setOwner(node, _owner);\n\n        emit ClaimSubdomain(_subnode, _owner, address(_resolver));\n    }\n}\n",
  "sourcePath": "@aragon/id/contracts/FIFSResolvingRegistrar.sol",
  "compiler": {
    "name": "solc",
    "version": "0.4.24+commit.e67f0147.Emscripten.clang"
  },
  "schemaVersion": "2.0.1",
  "updatedAt": "2020-03-20T23:33:06.457Z"
}