{
  "contractName": "Finance",
  "abi": [
    {
      "constant": true,
      "inputs": [],
      "name": "hasInitialized",
      "outputs": [
        {
          "name": "",
          "type": "bool"
        }
      ],
      "payable": false,
      "stateMutability": "view",
      "type": "function"
    },
    {
      "constant": true,
      "inputs": [],
      "name": "CREATE_PAYMENTS_ROLE",
      "outputs": [
        {
          "name": "",
          "type": "bytes32"
        }
      ],
      "payable": false,
      "stateMutability": "view",
      "type": "function"
    },
    {
      "constant": true,
      "inputs": [
        {
          "name": "_script",
          "type": "bytes"
        }
      ],
      "name": "getEVMScriptExecutor",
      "outputs": [
        {
          "name": "",
          "type": "address"
        }
      ],
      "payable": false,
      "stateMutability": "view",
      "type": "function"
    },
    {
      "constant": true,
      "inputs": [],
      "name": "getRecoveryVault",
      "outputs": [
        {
          "name": "",
          "type": "address"
        }
      ],
      "payable": false,
      "stateMutability": "view",
      "type": "function"
    },
    {
      "constant": true,
      "inputs": [],
      "name": "CHANGE_PERIOD_ROLE",
      "outputs": [
        {
          "name": "",
          "type": "bytes32"
        }
      ],
      "payable": false,
      "stateMutability": "view",
      "type": "function"
    },
    {
      "constant": true,
      "inputs": [],
      "name": "CHANGE_BUDGETS_ROLE",
      "outputs": [
        {
          "name": "",
          "type": "bytes32"
        }
      ],
      "payable": false,
      "stateMutability": "view",
      "type": "function"
    },
    {
      "constant": true,
      "inputs": [],
      "name": "periodsLength",
      "outputs": [
        {
          "name": "",
          "type": "uint64"
        }
      ],
      "payable": false,
      "stateMutability": "view",
      "type": "function"
    },
    {
      "constant": true,
      "inputs": [],
      "name": "appId",
      "outputs": [
        {
          "name": "",
          "type": "bytes32"
        }
      ],
      "payable": false,
      "stateMutability": "view",
      "type": "function"
    },
    {
      "constant": true,
      "inputs": [],
      "name": "getInitializationBlock",
      "outputs": [
        {
          "name": "",
          "type": "uint256"
        }
      ],
      "payable": false,
      "stateMutability": "view",
      "type": "function"
    },
    {
      "constant": true,
      "inputs": [],
      "name": "EXECUTE_PAYMENTS_ROLE",
      "outputs": [
        {
          "name": "",
          "type": "bytes32"
        }
      ],
      "payable": false,
      "stateMutability": "view",
      "type": "function"
    },
    {
      "constant": false,
      "inputs": [
        {
          "name": "_token",
          "type": "address"
        }
      ],
      "name": "transferToVault",
      "outputs": [],
      "payable": false,
      "stateMutability": "nonpayable",
      "type": "function"
    },
    {
      "constant": true,
      "inputs": [
        {
          "name": "_sender",
          "type": "address"
        },
        {
          "name": "_role",
          "type": "bytes32"
        },
        {
          "name": "_params",
          "type": "uint256[]"
        }
      ],
      "name": "canPerform",
      "outputs": [
        {
          "name": "",
          "type": "bool"
        }
      ],
      "payable": false,
      "stateMutability": "view",
      "type": "function"
    },
    {
      "constant": true,
      "inputs": [],
      "name": "getEVMScriptRegistry",
      "outputs": [
        {
          "name": "",
          "type": "address"
        }
      ],
      "payable": false,
      "stateMutability": "view",
      "type": "function"
    },
    {
      "constant": true,
      "inputs": [],
      "name": "kernel",
      "outputs": [
        {
          "name": "",
          "type": "address"
        }
      ],
      "payable": false,
      "stateMutability": "view",
      "type": "function"
    },
    {
      "constant": true,
      "inputs": [],
      "name": "paymentsNextIndex",
      "outputs": [
        {
          "name": "",
          "type": "uint256"
        }
      ],
      "payable": false,
      "stateMutability": "view",
      "type": "function"
    },
    {
      "constant": true,
      "inputs": [],
      "name": "isPetrified",
      "outputs": [
        {
          "name": "",
          "type": "bool"
        }
      ],
      "payable": false,
      "stateMutability": "view",
      "type": "function"
    },
    {
      "constant": true,
      "inputs": [],
      "name": "MANAGE_PAYMENTS_ROLE",
      "outputs": [
        {
          "name": "",
          "type": "bytes32"
        }
      ],
      "payable": false,
      "stateMutability": "view",
      "type": "function"
    },
    {
      "constant": true,
      "inputs": [],
      "name": "transactionsNextIndex",
      "outputs": [
        {
          "name": "",
          "type": "uint256"
        }
      ],
      "payable": false,
      "stateMutability": "view",
      "type": "function"
    },
    {
      "constant": true,
      "inputs": [],
      "name": "vault",
      "outputs": [
        {
          "name": "",
          "type": "address"
        }
      ],
      "payable": false,
      "stateMutability": "view",
      "type": "function"
    },
    {
      "payable": true,
      "stateMutability": "payable",
      "type": "fallback"
    },
    {
      "anonymous": false,
      "inputs": [
        {
          "indexed": true,
          "name": "periodId",
          "type": "uint64"
        },
        {
          "indexed": false,
          "name": "periodStarts",
          "type": "uint64"
        },
        {
          "indexed": false,
          "name": "periodEnds",
          "type": "uint64"
        }
      ],
      "name": "NewPeriod",
      "type": "event"
    },
    {
      "anonymous": false,
      "inputs": [
        {
          "indexed": true,
          "name": "token",
          "type": "address"
        },
        {
          "indexed": false,
          "name": "amount",
          "type": "uint256"
        },
        {
          "indexed": false,
          "name": "hasBudget",
          "type": "bool"
        }
      ],
      "name": "SetBudget",
      "type": "event"
    },
    {
      "anonymous": false,
      "inputs": [
        {
          "indexed": true,
          "name": "paymentId",
          "type": "uint256"
        },
        {
          "indexed": true,
          "name": "recipient",
          "type": "address"
        },
        {
          "indexed": false,
          "name": "maxExecutions",
          "type": "uint64"
        },
        {
          "indexed": false,
          "name": "reference",
          "type": "string"
        }
      ],
      "name": "NewPayment",
      "type": "event"
    },
    {
      "anonymous": false,
      "inputs": [
        {
          "indexed": true,
          "name": "transactionId",
          "type": "uint256"
        },
        {
          "indexed": false,
          "name": "incoming",
          "type": "bool"
        },
        {
          "indexed": true,
          "name": "entity",
          "type": "address"
        },
        {
          "indexed": false,
          "name": "amount",
          "type": "uint256"
        },
        {
          "indexed": false,
          "name": "reference",
          "type": "string"
        }
      ],
      "name": "NewTransaction",
      "type": "event"
    },
    {
      "anonymous": false,
      "inputs": [
        {
          "indexed": true,
          "name": "paymentId",
          "type": "uint256"
        },
        {
          "indexed": false,
          "name": "active",
          "type": "bool"
        }
      ],
      "name": "ChangePaymentState",
      "type": "event"
    },
    {
      "anonymous": false,
      "inputs": [
        {
          "indexed": false,
          "name": "newDuration",
          "type": "uint64"
        }
      ],
      "name": "ChangePeriodDuration",
      "type": "event"
    },
    {
      "anonymous": false,
      "inputs": [
        {
          "indexed": false,
          "name": "paymentId",
          "type": "uint256"
        }
      ],
      "name": "PaymentFailure",
      "type": "event"
    },
    {
      "anonymous": false,
      "inputs": [
        {
          "indexed": true,
          "name": "executor",
          "type": "address"
        },
        {
          "indexed": false,
          "name": "script",
          "type": "bytes"
        },
        {
          "indexed": false,
          "name": "input",
          "type": "bytes"
        },
        {
          "indexed": false,
          "name": "returnData",
          "type": "bytes"
        }
      ],
      "name": "ScriptResult",
      "type": "event"
    },
    {
      "anonymous": false,
      "inputs": [
        {
          "indexed": true,
          "name": "vault",
          "type": "address"
        },
        {
          "indexed": true,
          "name": "token",
          "type": "address"
        },
        {
          "indexed": false,
          "name": "amount",
          "type": "uint256"
        }
      ],
      "name": "RecoverToVault",
      "type": "event"
    },
    {
      "constant": false,
      "inputs": [
        {
          "name": "_vault",
          "type": "address"
        },
        {
          "name": "_periodDuration",
          "type": "uint64"
        }
      ],
      "name": "initialize",
      "outputs": [],
      "payable": false,
      "stateMutability": "nonpayable",
      "type": "function"
    },
    {
      "constant": false,
      "inputs": [
        {
          "name": "_token",
          "type": "address"
        },
        {
          "name": "_amount",
          "type": "uint256"
        },
        {
          "name": "_reference",
          "type": "string"
        }
      ],
      "name": "deposit",
      "outputs": [],
      "payable": true,
      "stateMutability": "payable",
      "type": "function"
    },
    {
      "constant": false,
      "inputs": [
        {
          "name": "_token",
          "type": "address"
        },
        {
          "name": "_receiver",
          "type": "address"
        },
        {
          "name": "_amount",
          "type": "uint256"
        },
        {
          "name": "_reference",
          "type": "string"
        }
      ],
      "name": "newImmediatePayment",
      "outputs": [],
      "payable": false,
      "stateMutability": "nonpayable",
      "type": "function"
    },
    {
      "constant": false,
      "inputs": [
        {
          "name": "_token",
          "type": "address"
        },
        {
          "name": "_receiver",
          "type": "address"
        },
        {
          "name": "_amount",
          "type": "uint256"
        },
        {
          "name": "_initialPaymentTime",
          "type": "uint64"
        },
        {
          "name": "_interval",
          "type": "uint64"
        },
        {
          "name": "_maxExecutions",
          "type": "uint64"
        },
        {
          "name": "_reference",
          "type": "string"
        }
      ],
      "name": "newScheduledPayment",
      "outputs": [
        {
          "name": "paymentId",
          "type": "uint256"
        }
      ],
      "payable": false,
      "stateMutability": "nonpayable",
      "type": "function"
    },
    {
      "constant": false,
      "inputs": [
        {
          "name": "_periodDuration",
          "type": "uint64"
        }
      ],
      "name": "setPeriodDuration",
      "outputs": [],
      "payable": false,
      "stateMutability": "nonpayable",
      "type": "function"
    },
    {
      "constant": false,
      "inputs": [
        {
          "name": "_token",
          "type": "address"
        },
        {
          "name": "_amount",
          "type": "uint256"
        }
      ],
      "name": "setBudget",
      "outputs": [],
      "payable": false,
      "stateMutability": "nonpayable",
      "type": "function"
    },
    {
      "constant": false,
      "inputs": [
        {
          "name": "_token",
          "type": "address"
        }
      ],
      "name": "removeBudget",
      "outputs": [],
      "payable": false,
      "stateMutability": "nonpayable",
      "type": "function"
    },
    {
      "constant": false,
      "inputs": [
        {
          "name": "_paymentId",
          "type": "uint256"
        }
      ],
      "name": "executePayment",
      "outputs": [],
      "payable": false,
      "stateMutability": "nonpayable",
      "type": "function"
    },
    {
      "constant": false,
      "inputs": [
        {
          "name": "_paymentId",
          "type": "uint256"
        }
      ],
      "name": "receiverExecutePayment",
      "outputs": [],
      "payable": false,
      "stateMutability": "nonpayable",
      "type": "function"
    },
    {
      "constant": false,
      "inputs": [
        {
          "name": "_paymentId",
          "type": "uint256"
        },
        {
          "name": "_active",
          "type": "bool"
        }
      ],
      "name": "setPaymentStatus",
      "outputs": [],
      "payable": false,
      "stateMutability": "nonpayable",
      "type": "function"
    },
    {
      "constant": false,
      "inputs": [
        {
          "name": "_token",
          "type": "address"
        }
      ],
      "name": "recoverToVault",
      "outputs": [],
      "payable": false,
      "stateMutability": "nonpayable",
      "type": "function"
    },
    {
      "constant": false,
      "inputs": [
        {
          "name": "_maxTransitions",
          "type": "uint64"
        }
      ],
      "name": "tryTransitionAccountingPeriod",
      "outputs": [
        {
          "name": "success",
          "type": "bool"
        }
      ],
      "payable": false,
      "stateMutability": "nonpayable",
      "type": "function"
    },
    {
      "constant": true,
      "inputs": [
        {
          "name": "",
          "type": "address"
        }
      ],
      "name": "allowRecoverability",
      "outputs": [
        {
          "name": "",
          "type": "bool"
        }
      ],
      "payable": false,
      "stateMutability": "view",
      "type": "function"
    },
    {
      "constant": true,
      "inputs": [
        {
          "name": "_paymentId",
          "type": "uint256"
        }
      ],
      "name": "getPayment",
      "outputs": [
        {
          "name": "token",
          "type": "address"
        },
        {
          "name": "receiver",
          "type": "address"
        },
        {
          "name": "amount",
          "type": "uint256"
        },
        {
          "name": "initialPaymentTime",
          "type": "uint64"
        },
        {
          "name": "interval",
          "type": "uint64"
        },
        {
          "name": "maxExecutions",
          "type": "uint64"
        },
        {
          "name": "inactive",
          "type": "bool"
        },
        {
          "name": "executions",
          "type": "uint64"
        },
        {
          "name": "createdBy",
          "type": "address"
        }
      ],
      "payable": false,
      "stateMutability": "view",
      "type": "function"
    },
    {
      "constant": true,
      "inputs": [
        {
          "name": "_transactionId",
          "type": "uint256"
        }
      ],
      "name": "getTransaction",
      "outputs": [
        {
          "name": "periodId",
          "type": "uint64"
        },
        {
          "name": "amount",
          "type": "uint256"
        },
        {
          "name": "paymentId",
          "type": "uint256"
        },
        {
          "name": "paymentExecutionNumber",
          "type": "uint64"
        },
        {
          "name": "token",
          "type": "address"
        },
        {
          "name": "entity",
          "type": "address"
        },
        {
          "name": "isIncoming",
          "type": "bool"
        },
        {
          "name": "date",
          "type": "uint64"
        }
      ],
      "payable": false,
      "stateMutability": "view",
      "type": "function"
    },
    {
      "constant": true,
      "inputs": [
        {
          "name": "_periodId",
          "type": "uint64"
        }
      ],
      "name": "getPeriod",
      "outputs": [
        {
          "name": "isCurrent",
          "type": "bool"
        },
        {
          "name": "startTime",
          "type": "uint64"
        },
        {
          "name": "endTime",
          "type": "uint64"
        },
        {
          "name": "firstTransactionId",
          "type": "uint256"
        },
        {
          "name": "lastTransactionId",
          "type": "uint256"
        }
      ],
      "payable": false,
      "stateMutability": "view",
      "type": "function"
    },
    {
      "constant": true,
      "inputs": [
        {
          "name": "_periodId",
          "type": "uint64"
        },
        {
          "name": "_token",
          "type": "address"
        }
      ],
      "name": "getPeriodTokenStatement",
      "outputs": [
        {
          "name": "expenses",
          "type": "uint256"
        },
        {
          "name": "income",
          "type": "uint256"
        }
      ],
      "payable": false,
      "stateMutability": "view",
      "type": "function"
    },
    {
      "constant": true,
      "inputs": [],
      "name": "currentPeriodId",
      "outputs": [
        {
          "name": "",
          "type": "uint64"
        }
      ],
      "payable": false,
      "stateMutability": "view",
      "type": "function"
    },
    {
      "constant": true,
      "inputs": [],
      "name": "getPeriodDuration",
      "outputs": [
        {
          "name": "",
          "type": "uint64"
        }
      ],
      "payable": false,
      "stateMutability": "view",
      "type": "function"
    },
    {
      "constant": true,
      "inputs": [
        {
          "name": "_token",
          "type": "address"
        }
      ],
      "name": "getBudget",
      "outputs": [
        {
          "name": "budget",
          "type": "uint256"
        },
        {
          "name": "hasBudget",
          "type": "bool"
        }
      ],
      "payable": false,
      "stateMutability": "view",
      "type": "function"
    },
    {
      "constant": true,
      "inputs": [
        {
          "name": "_token",
          "type": "address"
        }
      ],
      "name": "getRemainingBudget",
      "outputs": [
        {
          "name": "",
          "type": "uint256"
        }
      ],
      "payable": false,
      "stateMutability": "view",
      "type": "function"
    },
    {
      "constant": true,
      "inputs": [
        {
          "name": "_token",
          "type": "address"
        },
        {
          "name": "_amount",
          "type": "uint256"
        }
      ],
      "name": "canMakePayment",
      "outputs": [
        {
          "name": "",
          "type": "bool"
        }
      ],
      "payable": false,
      "stateMutability": "view",
      "type": "function"
    },
    {
      "constant": true,
      "inputs": [
        {
          "name": "_paymentId",
          "type": "uint256"
        }
      ],
      "name": "nextPaymentTime",
      "outputs": [
        {
          "name": "",
          "type": "uint64"
        }
      ],
      "payable": false,
      "stateMutability": "view",
      "type": "function"
    }
  ],
  "bytecode": "0x6080604052620000176401000000006200001d810204565b6200023b565b6200003064010000000062000125810204565b60408051808201909152601881527f494e49545f414c52454144595f494e495449414c495a45440000000000000000602082015290156200010c576040517f08c379a00000000000000000000000000000000000000000000000000000000081526004018080602001828103825283818151815260200191508051906020019080838360005b83811015620000d0578181015183820152602001620000b6565b50505050905090810190601f168015620000fe5780820380516001836020036101000a031916815260200191505b509250505060405180910390fd5b506200012360001964010000000062000154810204565b565b60006200014f60008051602062004e7a833981519152640100000000620041066200023382021704565b905090565b6200016764010000000062000125810204565b60408051808201909152601881527f494e49545f414c52454144595f494e495449414c495a454400000000000000006020820152901562000206576040517f08c379a000000000000000000000000000000000000000000000000000000000815260040180806020018281038252838181518152602001915080519060200190808383600083811015620000d0578181015183820152602001620000b6565b506200023060008051602062004e7a833981519152826401000000006200494d6200023782021704565b50565b5490565b9055565b614c2f806200024b6000396000f3006080604052600436106101ea5763ffffffff60e060020a6000350416630803fac081146103fc5780630842ace414610425578063149204381461044c578063162a0cf8146104a05780631798de81146104ba57806318f053da146104e757806319b7d7bd146105085780632914b9bd146105425780632d00cad3146105b75780633280a836146105d457806332f0a3b51461065157806333ea3dc8146106665780635985feec146106d95780635b14dbc8146106ee5780636436f1891461070357806367047c4a1461071b578063671273f4146107755780636abe602d1461079657806374bfb426146107c75780637e7db6e1146107eb57806380afdea81461080c5780638b3dd749146108215780639297d86014610836578063981cc34214610857578063988e65951461086c5780639d4941d814610881578063a1658fad146108a2578063a479e50814610909578063a66294411461091e578063b36fec571461093f578063bfe07da614610954578063cb045a9614610978578063d2d27b4114610990578063d4aae0c4146109d6578063de048a7b146109eb578063de4796ed14610a00578063e90a1b6e14610a15578063e94ebac514610a39578063eaa7ec6814610a4e578063eca8181714610a63578063f636484614610a84578063fbfa77cf14610abd575b6101f2610ad2565b6040805180820190915260148152600080516020614be483398151915260208201529015156102a25760405160e560020a62461bcd0281526004018080602001828103825283818151815260200191508051906020019080838360005b8381101561026757818101518382015260200161024f565b50505050905090810190601f1680156102945780820380516001836020036101000a031916815260200191505b509250505060405180910390fd5b5060006102b56102b0610afb565b610b01565b60408051808201909152601b8152600080516020614ba4833981519152602082015290915081151561032c5760405160e560020a62461bcd0281526004018080602001828103825283818151815260200191508051906020019080838360008381101561026757818101518382015260200161024f565b5060408051808201909152601b81527f46494e414e43455f4445504f5349545f414d4f554e545f5a45524f00000000006020820152600034116103b45760405160e560020a62461bcd0281526004018080602001828103825283818151815260200191508051906020019080838360008381101561026757818101518382015260200161024f565b506103f96000346040805190810160405280601d81526020017f4574686572207472616e7366657220746f2046696e616e636520617070000000815250336001610bd9565b50005b34801561040857600080fd5b50610411610ad2565b604080519115158252519081900360200190f35b34801561043157600080fd5b5061043a610e30565b60408051918252519081900360200190f35b34801561045857600080fd5b5061043a600160a060020a03600480358216916024803590911691604435916001604060020a0360643581169260843582169260a4359092169160c435908101910135610e53565b3480156104ac57600080fd5b506104b8600435611472565b005b3480156104c657600080fd5b506104b8600160a060020a03600435166001604060020a0360243516611656565b3480156104f357600080fd5b506104b8600160a060020a03600435166118ba565b34801561051457600080fd5b50610529600160a060020a0360043516611a91565b6040805192835290151560208301528051918290030190f35b34801561054e57600080fd5b506040805160206004803580820135601f810184900484028501840190955284845261059b943694929360249392840191908190840183828082843750949750611b419650505050505050565b60408051600160a060020a039092168252519081900360200190f35b3480156105c357600080fd5b506104b86004356024351515611c27565b3480156105e057600080fd5b506105ec600435611df4565b60408051600160a060020a039a8b168152988a1660208a0152888101979097526001604060020a039586166060890152938516608088015291841660a0870152151560c086015290911660e08401529092166101008201529051908190036101200190f35b34801561065d57600080fd5b5061059b611f09565b34801561067257600080fd5b5061067e600435611f81565b604080516001604060020a03998a1681526020810198909852878101969096529387166060870152600160a060020a039283166080870152911660a0850152151560c084015290921660e08201529051908190036101000190f35b3480156106e557600080fd5b5061043a61209a565b3480156106fa57600080fd5b5061043a6120cf565b34801561070f57600080fd5b506104b86004356120f2565b34801561072757600080fd5b5061073c6001604060020a03600435166122ac565b6040805195151586526001604060020a039485166020870152929093168483015260608401526080830191909152519081900360a00190f35b34801561078157600080fd5b506104b86001604060020a03600435166123ae565b3480156107a257600080fd5b506107ab6125ea565b604080516001604060020a039092168252519081900360200190f35b3480156107d357600080fd5b506104b8600160a060020a03600435166024356125f9565b3480156107f757600080fd5b50610411600160a060020a03600435166127f6565b34801561081857600080fd5b5061043a612807565b34801561082d57600080fd5b5061043a612837565b34801561084257600080fd5b506104b8600160a060020a0360043516612862565b34801561086357600080fd5b5061043a612a64565b34801561087857600080fd5b506107ab612a99565b34801561088d57600080fd5b506104b8600160a060020a0360043516612b20565b3480156108ae57600080fd5b506040805160206004604435818101358381028086018501909652808552610411958335600160a060020a0316956024803596369695606495939492019291829185019084908082843750949750612daf9650505050505050565b34801561091557600080fd5b5061059b612eff565b34801561092a57600080fd5b506104116001604060020a0360043516612fb4565b34801561094b57600080fd5b506107ab613042565b6104b860048035600160a060020a03169060248035916044359182019101356130d1565b34801561098457600080fd5b506107ab600435613333565b34801561099c57600080fd5b506109bd6001604060020a0360043516600160a060020a03602435166133ce565b6040805192835260208301919091528051918290030190f35b3480156109e257600080fd5b5061059b6134b3565b3480156109f757600080fd5b5061043a6134de565b348015610a0c57600080fd5b506104116134e4565b348015610a2157600080fd5b50610411600160a060020a03600435166024356134f7565b348015610a4557600080fd5b5061043a613587565b348015610a5a57600080fd5b5061043a6135bc565b348015610a6f57600080fd5b5061043a600160a060020a03600435166135c2565b348015610a9057600080fd5b506104b8600160a060020a036004803582169160248035909116916044359160643590810191013561364a565b348015610ac957600080fd5b5061059b613858565b600080610add612837565b90508015801590610af5575080610af2613867565b10155b91505090565b60001990565b600080600060086000610b1261386b565b6001604060020a03166001604060020a031681526020019081526020016000209150610b3c61387e565b90505b81546001604060020a03604060020a90910481169082161115610bcd576001604060020a0384161515610b755760009250610bd2565b60018201546000199094019315610ba057600754610b9a90600163ffffffff61389016565b60028301555b8154610bc690610bc190604060020a90046001604060020a03166001613924565b6139be565b9150610b3f565b600192505b5050919050565b610be585838686613a9f565b600160a060020a0385161515610c6957600080546040805160e260020a6311f9fbc902815260048101849052602481018890529051600160a060020a03909216926347e7ef24928892604480820193929182900301818588803b158015610c4b57600080fd5b505af1158015610c5f573d6000803e3d6000fd5b5050505050610e29565b8015610d1457610c8a600160a060020a03861633308763ffffffff613ab616565b6040805190810160405280602081526020017f46494e414e43455f544b4e5f5452414e534645525f46524f4d5f524556455254815250901515610d125760405160e560020a62461bcd0281526004018080602001828103825283818151815260200191508051906020019080838360008381101561026757818101518382015260200161024f565b505b600054610d3490600160a060020a0387811691168663ffffffff613b3516565b60408051808201909152601a81527f46494e414e43455f544b4e5f415050524f56455f4641494c45440000000000006020820152901515610dba5760405160e560020a62461bcd0281526004018080602001828103825283818151815260200191508051906020019080838360008381101561026757818101518382015260200161024f565b50600080546040805160e260020a6311f9fbc9028152600160a060020a03898116600483015260248201899052915191909216926347e7ef24926044808201939182900301818387803b158015610e1057600080fd5b505af1158015610e24573d6000803e3d6000fd5b505050505b5050505050565b60408051600080516020614b848339815191528152905190819003601401902081565b6000806040518080600080516020614b8483398151915281525060140190506040518091039020610ea38b8b8b8a6001604060020a03168a6001604060020a03168d6001604060020a0316613bab565b610eae338383612daf565b60408051808201909152600f8152600080516020614b448339815191526020820152901515610f225760405160e560020a62461bcd0281526004018080602001828103825283818151815260200191508051906020019080838360008381101561026757818101518382015260200161024f565b506000610f306102b0610afb565b60408051808201909152601b8152600080516020614ba48339815191526020820152909150811515610fa75760405160e560020a62461bcd0281526004018080602001828103825283818151815260200191508051906020019080838360008381101561026757818101518382015260200161024f565b5060408051808201909152601f81527f46494e414e43455f4e45575f5041594d454e545f414d4f554e545f5a45524f00602082015260008c1161102f5760405160e560020a62461bcd0281526004018080602001828103825283818151815260200191508051906020019080838360008381101561026757818101518382015260200161024f565b5060408051808201909152601f81527f46494e414e43455f4e45575f5041594d454e545f494e5452564c5f5a45524f00602082015260006001604060020a038b16116110c05760405160e560020a62461bcd0281526004018080602001828103825283818151815260200191508051906020019080838360008381101561026757818101518382015260200161024f565b5060408051808201909152601e81527f46494e414e43455f4e45575f5041594d454e545f45584543535f5a45524f0000602082015260006001604060020a038a16116111515760405160e560020a62461bcd0281526004018080602001828103825283818151815260200191508051906020019080838360008381101561026757818101518382015260200161024f565b50600160a060020a038d1660009081526003602052604090205460ff1615806111925750600160a060020a038d166000908152600260205260409020548b11155b60408051808201909152600e81527f46494e414e43455f42554447455400000000000000000000000000000000000060208201529015156112185760405160e560020a62461bcd0281526004018080602001828103825283818151815260200191508051906020019080838360008381101561026757818101518382015260200161024f565b50876001604060020a0316600114156112c85761123361387e565b60408051808201909152601d81527f46494e414e43455f4e45575f5041594d454e545f494d4d4544494154450000006020820152906001604060020a03908116908c16116112c65760405160e560020a62461bcd0281526004018080602001828103825283818151815260200191508051906020019080838360008381101561026757818101518382015260200161024f565b505b6005805460018101909155604080516001604060020a038b16815260208101828152918101899052919650600160a060020a038e169187917f41e8c14bdf2b044354d788d944b364e1de0b64aeddeba755b8ef69ab68bd9083918c918c918c91606082018484808284376040519201829003965090945050505050a36004600086815260200190815260200160002093508c8460000160006101000a815481600160a060020a030219169083600160a060020a031602179055508b8460010160006101000a815481600160a060020a030219169083600160a060020a031602179055508a8460030181905550898460040160006101000a8154816001604060020a0302191690836001604060020a03160217905550888460040160086101000a8154816001604060020a0302191690836001604060020a03160217905550878460040160106101000a8154816001604060020a0302191690836001604060020a03160217905550338460020160006101000a815481600160a060020a030219169083600160a060020a0316021790555061146185613c8b565b505050505098975050505050505050565b604080517f455845435554455f5041594d454e54535f524f4c450000000000000000000000815281519081900360150190206000838152600460205291909120600301546114c1908390613e6c565b6114cc338383612daf565b60408051808201909152600f8152600080516020614b4483398151915260208201529015156115405760405160e560020a62461bcd0281526004018080602001828103825283818151815260200191508051906020019080838360008381101561026757818101518382015260200161024f565b5082600081118015611553575060055481105b60408051808201909152601c8152600080516020614b6483398151915260208201529015156115c75760405160e560020a62461bcd0281526004018080602001828103825283818151815260200191508051906020019080838360008381101561026757818101518382015260200161024f565b5060006115d56102b0610afb565b60408051808201909152601b8152600080516020614ba4833981519152602082015290915081151561164c5760405160e560020a62461bcd0281526004018080602001828103825283818151815260200191508051906020019080838360008381101561026757818101518382015260200161024f565b50610e2985613ec7565b61165e612837565b60408051808201909152601881527f494e49545f414c52454144595f494e495449414c495a45440000000000000000602082015290156116e35760405160e560020a62461bcd0281526004018080602001828103825283818151815260200191508051906020019080838360008381101561026757818101518382015260200161024f565b506116ec614001565b6116f5826140c9565b60408051808201909152601a81527f46494e414e43455f5641554c545f4e4f545f434f4e5452414354000000000000602082015290151561177b5760405160e560020a62461bcd0281526004018080602001828103825283818151815260200191508051906020019080838360008381101561026757818101518382015260200161024f565b506000805473ffffffffffffffffffffffffffffffffffffffff1916600160a060020a03841617905560408051808201909152601c81527f46494e414e43455f5345545f504552494f445f544f4f5f53484f5254000000006020820152620151806001604060020a03831610156118375760405160e560020a62461bcd0281526004018080602001828103825283818151815260200191508051906020019080838360008381101561026757818101518382015260200161024f565b50600180546001604060020a03831667ffffffffffffffff199091161781556000805260046020527f17ef568e3e12ab5b9c7254a8d58478811de00f9e6eb34345acd53bf8fd09d3ee805474ff0000000000000000000000000000000000000000191660a060020a17905560058190556007556118b5610bc161387e565b505050565b60408051600080516020614bc483398151915281528151908190036013019020600160a060020a038316600090815260026020908152838220546003909152928120549192611920928592919060ff16611915576000611918565b60015b60ff166140ef565b61192b338383612daf565b60408051808201909152600f8152600080516020614b44833981519152602082015290151561199f5760405160e560020a62461bcd0281526004018080602001828103825283818151815260200191508051906020019080838360008381101561026757818101518382015260200161024f565b5060006119ad6102b0610afb565b60408051808201909152601b8152600080516020614ba48339815191526020820152909150811515611a245760405160e560020a62461bcd0281526004018080602001828103825283818151815260200191508051906020019080838360008381101561026757818101518382015260200161024f565b50600160a060020a038416600081815260026020908152604080832083905560038252808320805460ff1916905580518381529182019290925281517f6e768d8fe4a1460cae6d5af9382c3e9abbc41f66f2ec91fda24b12e3c2796f03929181900390910190a250505050565b600080611a9c610ad2565b6040805180820190915260148152600080516020614be48339815191526020820152901515611b105760405160e560020a62461bcd0281526004018080602001828103825283818151815260200191508051906020019080838360008381101561026757818101518382015260200161024f565b505050600160a060020a0316600090815260026020908152604080832054600390925290912054909160ff90911690565b6000611b4b612eff565b600160a060020a03166304bf2a7f836040518263ffffffff1660e060020a0281526004018080602001828103825283818151815260200191508051906020019080838360005b83811015611ba9578181015183820152602001611b91565b50505050905090810190601f168015611bd65780820380516001836020036101000a031916815260200191505b5092505050602060405180830381600087803b158015611bf557600080fd5b505af1158015611c09573d6000803e3d6000fd5b505050506040513d6020811015611c1f57600080fd5b505192915050565b604080517f4d414e4147455f5041594d454e54535f524f4c4500000000000000000000000081529051908190036014019020611c748383611c69576000611c6c565b60015b60ff16613e6c565b611c7f338383612daf565b60408051808201909152600f8152600080516020614b448339815191526020820152901515611cf35760405160e560020a62461bcd0281526004018080602001828103825283818151815260200191508051906020019080838360008381101561026757818101518382015260200161024f565b5083600081118015611d06575060055481105b60408051808201909152601c8152600080516020614b648339815191526020820152901515611d7a5760405160e560020a62461bcd0281526004018080602001828103825283818151815260200191508051906020019080838360008381101561026757818101518382015260200161024f565b50600085815260046020908152604091829020600201805474ff00000000000000000000000000000000000000001916871560a060020a810291909117909155825190158152915187927faca91836ee6e44bf1c422f7ee89afb243a4fb775d9fe87150ff5f8e566dc161292908290030190a25050505050565b6000806000806000806000806000808a600081118015611e15575060055481105b60408051808201909152601c8152600080516020614b648339815191526020820152901515611e895760405160e560020a62461bcd0281526004018080602001828103825283818151815260200191508051906020019080838360008381101561026757818101518382015260200161024f565b5050506000998a5250506004602081905260409098208054600182015460038301549a830154600290930154600160a060020a039283169c9183169b9a506001604060020a038085169a50604060020a850481169950608060020a85048116985060ff60a060020a830416975060c060020a909404909316945091169150565b6000611f136134b3565b600160a060020a03166332f0a3b56040518163ffffffff1660e060020a028152600401602060405180830381600087803b158015611f5057600080fd5b505af1158015611f64573d6000803e3d6000fd5b505050506040513d6020811015611f7a57600080fd5b5051905090565b600080600080600080600080600089600081118015611fa1575060075481105b60408051808201909152601681527f46494e414e43455f4e4f5f5452414e53414354494f4e0000000000000000000060208201529015156120275760405160e560020a62461bcd0281526004018080602001828103825283818151815260200191508051906020019080838360008381101561026757818101518382015260200161024f565b5050506000988952505060066020525050604090942080546001820154600483015460028401546003909401546001604060020a03608060020a830481169a9599509097508082169650600160a060020a0393841695509282169360a060020a90920460ff1692604060020a9091041690565b604080517f4348414e47455f504552494f445f524f4c4500000000000000000000000000008152905190819003601201902081565b60408051600080516020614bc48339815191528152905190819003601301902081565b80600081118015612104575060055481105b60408051808201909152601c8152600080516020614b6483398151915260208201529015156121785760405160e560020a62461bcd0281526004018080602001828103825283818151815260200191508051906020019080838360008381101561026757818101518382015260200161024f565b5060006121866102b0610afb565b60408051808201909152601b8152600080516020614ba483398151915260208201529091508115156121fd5760405160e560020a62461bcd0281526004018080602001828103825283818151815260200191508051906020019080838360008381101561026757818101518382015260200161024f565b50600083815260046020908152604091829020600101548251808401909352601883527f46494e414e43455f5041594d454e545f5245434549564552000000000000000091830191909152600160a060020a031633146122a25760405160e560020a62461bcd0281526004018080602001828103825283818151815260200191508051906020019080838360008381101561026757818101518382015260200161024f565b506118b583613ec7565b60095460408051808201909152601181527f46494e414e43455f4e4f5f504552494f4400000000000000000000000000000060208201526000918291829182918291829188916001604060020a03908116908316106123505760405160e560020a62461bcd0281526004018080602001828103825283818151815260200191508051906020019080838360008381101561026757818101518382015260200161024f565b506001604060020a0388166000818152600860205260409020925061237361386b565b835460018501546002909501546001604060020a03928316939093149b8183169b50604060020a909104909116985092965094509092505050565b604080517f4348414e47455f504552494f445f524f4c450000000000000000000000000000815290519081900360120190206001546123f9906001604060020a038085169116613e6c565b612404338383612daf565b60408051808201909152600f8152600080516020614b4483398151915260208201529015156124785760405160e560020a62461bcd0281526004018080602001828103825283818151815260200191508051906020019080838360008381101561026757818101518382015260200161024f565b5060006124866102b0610afb565b60408051808201909152601b8152600080516020614ba483398151915260208201529091508115156124fd5760405160e560020a62461bcd0281526004018080602001828103825283818151815260200191508051906020019080838360008381101561026757818101518382015260200161024f565b5060408051808201909152601c81527f46494e414e43455f5345545f504552494f445f544f4f5f53484f5254000000006020820152620151806001604060020a03861610156125915760405160e560020a62461bcd0281526004018080602001828103825283818151815260200191508051906020019080838360008381101561026757818101518382015260200161024f565b50600180546001604060020a03861667ffffffffffffffff19909116811790915560408051918252517fa32389dd0d5a3bf7cc635f8c30fee3b70d06a6c547d6dbf31628378ee267bfc99181900360200190a150505050565b6009546001604060020a031681565b60408051600080516020614bc483398151915281528151908190036013019020600160a060020a038416600090815260026020908152838220546003909152929020549091612654918591859160ff16611915576000611918565b61265f338383612daf565b60408051808201909152600f8152600080516020614b4483398151915260208201529015156126d35760405160e560020a62461bcd0281526004018080602001828103825283818151815260200191508051906020019080838360008381101561026757818101518382015260200161024f565b5060006126e16102b0610afb565b60408051808201909152601b8152600080516020614ba483398151915260208201529091508115156127585760405160e560020a62461bcd0281526004018080602001828103825283818151815260200191508051906020019080838360008381101561026757818101518382015260200161024f565b50600160a060020a0385166000908152600260209081526040808320879055600390915290205460ff1615156127ac57600160a060020a0385166000908152600360205260409020805460ff191660011790555b60408051858152600160208201528151600160a060020a038816927f6e768d8fe4a1460cae6d5af9382c3e9abbc41f66f2ec91fda24b12e3c2796f03928290030190a25050505050565b6000612800610ad2565b1592915050565b60006128327fd625496217aa6a3453eecb9c3489dc5a53e6c67b444329ea2b2cbc9ff547639b614106565b905090565b60006128327febb05b386a8d34882b8711d156f463690983dc47815980fb82aeeff1aa43579e614106565b600061286c610ad2565b6040805180820190915260148152600080516020614be483398151915260208201529015156128e05760405160e560020a62461bcd0281526004018080602001828103825283818151815260200191508051906020019080838360008381101561026757818101518382015260200161024f565b5060006128ee6102b0610afb565b60408051808201909152601b8152600080516020614ba483398151915260208201529091508115156129655760405160e560020a62461bcd0281526004018080602001828103825283818151815260200191508051906020019080838360008381101561026757818101518382015260200161024f565b50600160a060020a038316156129935761298e600160a060020a0384163063ffffffff61410e16565b612996565b30315b60408051808201909152601b81527f46494e414e43455f5245434f5645525f414d4f554e545f5a45524f0000000000602082015290925060008311612a205760405160e560020a62461bcd0281526004018080602001828103825283818151815260200191508051906020019080838360008381101561026757818101518382015260200161024f565b506118b583836040805190810160405280601081526020017f5265636f76657220746f205661756c7400000000000000000000000000000000815250306000610bd9565b604080517f455845435554455f5041594d454e54535f524f4c4500000000000000000000008152905190819003601501902081565b6000612aa3610ad2565b6040805180820190915260148152600080516020614be48339815191526020820152901515612b175760405160e560020a62461bcd0281526004018080602001828103825283818151815260200191508051906020019080838360008381101561026757818101518382015260200161024f565b5061283261386b565b6000806000612b2e846127f6565b60408051808201909152601281527f5245434f5645525f444953414c4c4f57454400000000000000000000000000006020820152901515612bb45760405160e560020a62461bcd0281526004018080602001828103825283818151815260200191508051906020019080838360008381101561026757818101518382015260200161024f565b50612bbd611f09565b9250612bc8836140c9565b60408051808201909152601a81527f5245434f5645525f5641554c545f4e4f545f434f4e54524143540000000000006020820152901515612c4e5760405160e560020a62461bcd0281526004018080602001828103825283818151815260200191508051906020019080838360008381101561026757818101518382015260200161024f565b50600160a060020a0384161515612c9f5760405130319250600160a060020a0384169083156108fc029084906000818181858888f19350505050158015612c99573d6000803e3d6000fd5b50612d5e565b5082612cba600160a060020a0382163063ffffffff61410e16565b9150612cd6600160a060020a038216848463ffffffff61420e16565b60408051808201909152601d81527f5245434f5645525f544f4b454e5f5452414e534645525f4641494c45440000006020820152901515612d5c5760405160e560020a62461bcd0281526004018080602001828103825283818151815260200191508051906020019080838360008381101561026757818101518382015260200161024f565b505b83600160a060020a031683600160a060020a03167f596caf56044b55fb8c4ca640089bbc2b63cae3e978b851f5745cbb7c5b288e02846040518082815260200191505060405180910390a350505050565b600080612dba610ad2565b1515612dc95760009150612ef7565b612dd16134b3565b9050600160a060020a0381161515612dec5760009150612ef7565b80600160a060020a031663fdef9106863087612e078861427b565b60405160e060020a63ffffffff8716028152600160a060020a03808616600483019081529085166024830152604482018490526080606483019081528351608484015283519192909160a490910190602085019080838360005b83811015612e79578181015183820152602001612e61565b50505050905090810190601f168015612ea65780820380516001836020036101000a031916815260200191505b5095505050505050602060405180830381600087803b158015612ec857600080fd5b505af1158015612edc573d6000803e3d6000fd5b505050506040513d6020811015612ef257600080fd5b505191505b509392505050565b600080612f0a6134b3565b604080517fbe00bbd80000000000000000000000000000000000000000000000000000000081527fd6f028ca0e8edb4a8c9757ca4fdccab25fa1e0317da1188108f7d2dee14902fb60048201527fddbcfd564f642ab5627cf68b9b7d374fb4f8a36e941a75d89c87998cef03bd6160248201529051600160a060020a03929092169163be00bbd8916044808201926020929091908290030181600087803b158015611bf557600080fd5b6000612fbe610ad2565b6040805180820190915260148152600080516020614be483398151915260208201529015156130325760405160e560020a62461bcd0281526004018080602001828103825283818151815260200191508051906020019080838360008381101561026757818101518382015260200161024f565b5061303c82610b01565b92915050565b600061304c610ad2565b6040805180820190915260148152600080516020614be483398151915260208201529015156130c05760405160e560020a62461bcd0281526004018080602001828103825283818151815260200191508051906020019080838360008381101561026757818101518382015260200161024f565b50506001546001604060020a031690565b6130d9610ad2565b6040805180820190915260148152600080516020614be4833981519152602082015290151561314d5760405160e560020a62461bcd0281526004018080602001828103825283818151815260200191508051906020019080838360008381101561026757818101518382015260200161024f565b50600061315b6102b0610afb565b60408051808201909152601b8152600080516020614ba483398151915260208201529091508115156131d25760405160e560020a62461bcd0281526004018080602001828103825283818151815260200191508051906020019080838360008381101561026757818101518382015260200161024f565b5060408051808201909152601b81527f46494e414e43455f4445504f5349545f414d4f554e545f5a45524f000000000060208201526000851161325a5760405160e560020a62461bcd0281526004018080602001828103825283818151815260200191508051906020019080838360008381101561026757818101518382015260200161024f565b50600160a060020a03851615156132f35760408051808201909152601a81527f46494e414e43455f4554485f56414c55455f4d49534d4154434800000000000060208201523485146132f15760405160e560020a62461bcd0281526004018080602001828103825283818151815260200191508051906020019080838360008381101561026757818101518382015260200161024f565b505b610e29858585858080601f016020809104026020016040519081016040528093929190818152602001838380828437820191505050505050336001610bd9565b600081600081118015613347575060055481105b60408051808201909152601c8152600080516020614b6483398151915260208201529015156133bb5760405160e560020a62461bcd0281526004018080602001828103825283818151815260200191508051906020019080838360008381101561026757818101518382015260200161024f565b506133c583614285565b91505b50919050565b60095460408051808201909152601181527f46494e414e43455f4e4f5f504552494f440000000000000000000000000000006020820152600091829182918691906001604060020a039081169083161061346d5760405160e560020a62461bcd0281526004018080602001828103825283818151815260200191508051906020019080838360008381101561026757818101518382015260200161024f565b505050506001604060020a03929092166000908152600860209081526040808320600160a060020a03949094168352600390930190522080546001909101549092909150565b60006128327f4172f0f7d2289153072b0a6ca36959e0cbe2efc3afe50fc81636caa96338137b614106565b60055481565b60006000196134f1612837565b14905090565b6000613501610ad2565b6040805180820190915260148152600080516020614be483398151915260208201529015156135755760405160e560020a62461bcd0281526004018080602001828103825283818151815260200191508051906020019080838360008381101561026757818101518382015260200161024f565b50613580838361430f565b9392505050565b604080517f4d414e4147455f5041594d454e54535f524f4c450000000000000000000000008152905190819003601401902081565b60075481565b60006135cc610ad2565b6040805180820190915260148152600080516020614be483398151915260208201529015156136405760405160e560020a62461bcd0281526004018080602001828103825283818151815260200191508051906020019080838360008381101561026757818101518382015260200161024f565b5061303c826143c6565b60408051600080516020614b8483398151915281529051908190036014019020613682868686600019600161367d614469565b613bab565b61368d338383612daf565b60408051808201909152600f8152600080516020614b4483398151915260208201529015156137015760405160e560020a62461bcd0281526004018080602001828103825283818151815260200191508051906020019080838360008381101561026757818101518382015260200161024f565b50600061370f6102b0610afb565b60408051808201909152601b8152600080516020614ba483398151915260208201529091508115156137865760405160e560020a62461bcd0281526004018080602001828103825283818151815260200191508051906020019080838360008381101561026757818101518382015260200161024f565b5060408051808201909152601f81527f46494e414e43455f4e45575f5041594d454e545f414d4f554e545f5a45524f0060208201526000871161380e5760405160e560020a62461bcd0281526004018080602001828103825283818151815260200191508051906020019080838360008381101561026757818101518382015260200161024f565b5061384e8888886000808a8a8080601f0160208091040260200160405190810160405280939291908181526020018383808284375061446d945050505050565b5050505050505050565b600054600160a060020a031681565b4390565b6009546001604060020a03166000190190565b600061283261388b614469565b614514565b60408051808201909152601281527f4d4154485f5355425f554e444552464c4f570000000000000000000000000000602082015260009081908484111561391c5760405160e560020a62461bcd0281526004018080602001828103825283818151815260200191508051906020019080838360008381101561026757818101518382015260200161024f565b505050900390565b60408051808201909152601381527f4d41544836345f4144445f4f564552464c4f57000000000000000000000000006020820152600090838301906001604060020a038086169083161015612ef75760405160e560020a62461bcd0281526004018080602001828103825283818151815260200191508051906020019080838360008381101561026757818101518382015260200161024f565b600980546001604060020a038082166001818101831667ffffffffffffffff1994851617909455600081815260086020526040812080548785169516851781559454909491939192600019918116870191909101919082161015613a2157506000195b81546fffffffffffffffff00000000000000001916604060020a6001604060020a0383811682029290921780855560408051828516815292909104831660208301528051928616927fe183df4530c4b573af76d47f020d4b86e418cef40ed4c9ce924b563e791b832c9281900390910190a28193505b505050919050565b613ab06001858585600080876145ac565b50505050565b60408051600160a060020a038581166024830152841660448201526064808201849052825180830390910181526084909101909152602081018051600160e060020a03167f23b872dd00000000000000000000000000000000000000000000000000000000179052600090613b2b868261485c565b9695505050505050565b60408051600160a060020a03841660248201526044808201849052825180830390910181526064909101909152602081018051600160e060020a03167f095ea7b300000000000000000000000000000000000000000000000000000000179052600090613ba2858261485c565b95945050505050565b60408051600680825260e082019092526060916020820160c08038833901905050905086600160a060020a0316816000815181101515613be757fe5b602090810290910101528051600160a060020a0387169082906001908110613c0b57fe5b602090810290910101528051859082906002908110613c2657fe5b602090810290910101528051849082906003908110613c4157fe5b602090810290910101528051839082906004908110613c5c57fe5b602090810290910101528051829082906005908110613c7757fe5b602090810290910101529695505050505050565b600081815260046020908152604080832060028101548251808401909352601883527f46494e414e43455f5041594d454e545f494e4143544956450000000000000000938301939093529183919060a060020a900460ff1615613d335760405160e560020a62461bcd0281526004018080602001828103825283818151815260200191508051906020019080838360008381101561026757818101518382015260200161024f565b50600090505b613d4161387e565b6001604060020a0316613d5385614285565b6001604060020a031611158015613d7357506014816001604060020a0316105b15613e5c5781546003830154613d9291600160a060020a03169061430f565b1515613dd0576040805185815290517f5f352e4123f4620cacbb8eb0dd683705aaa3e1f9384adbbd85b665b205097f519181900360200190a1613e5c565b6004820180546001604060020a0360c060020a808304821660019081018316820277ffffffffffffffffffffffffffffffffffffffffffffffff909416939093179384905585548684015460038801546040805160208101909152600081529790950196613e5796600160a060020a0393841696929093169491938b9304909116906148aa565b613d39565b6001604060020a03169392505050565b604080516002808252606080830184529260208301908038833901905050905082816000815181101515613e9c57fe5b602090810290910101528051829082906001908110613eb757fe5b6020908102909101015292915050565b6000613ed282613c8b565b9050801515613ffd57613ee361387e565b6001604060020a0316613ef583614285565b6001604060020a031611613f8057604080518082018252601b81527f46494e414e43455f455845435554455f5041594d454e545f4e554d00000000006020808301918252925160e560020a62461bcd0281526004810193845282516024820152825192939283926044909201919080838360008381101561026757818101518382015260200161024f565b604080518082018252601c81527f46494e414e43455f455845435554455f5041594d454e545f54494d45000000006020808301918252925160e560020a62461bcd0281526004810193845282516024820152825192939283926044909201919080838360008381101561026757818101518382015260200161024f565b5050565b614009612837565b60408051808201909152601881527f494e49545f414c52454144595f494e495449414c495a454400000000000000006020820152901561408e5760405160e560020a62461bcd0281526004018080602001828103825283818151815260200191508051906020019080838360008381101561026757818101518382015260200161024f565b506140c761409a613867565b7febb05b386a8d34882b8711d156f463690983dc47815980fb82aeeff1aa43579e9063ffffffff61494d16565b565b600080600160a060020a03831615156140e557600091506133c8565b50506000903b1190565b6060613ba285600160a060020a0316858585614951565b5490565b5490565b60408051600160a060020a038316602480830191909152825180830390910181526044909101909152602081018051600160e060020a03167f70a0823100000000000000000000000000000000000000000000000000000000179052600090818061417986846149e7565b60408051808201909152601c81527f534146455f4552435f32305f42414c414e43455f524556455254454400000000602082015291935091508215156142045760405160e560020a62461bcd0281526004018080602001828103825283818151815260200191508051906020019080838360008381101561026757818101518382015260200161024f565b5095945050505050565b60408051600160a060020a03841660248201526044808201849052825180830390910181526064909101909152602081018051600160e060020a03167fa9059cbb00000000000000000000000000000000000000000000000000000000179052600090613ba2858261485c565b8051602002815290565b6000818152600460208190526040822090810154829081906001604060020a03608060020a8204811660c060020a90920416106142c6576000199350613a97565b60048301546142ee906001604060020a0360c060020a8204811691604060020a900416614a18565b6004840154909250613ba2906001604060020a03168363ffffffff61392416565b60008161431b846143c6565b10158015613580575060008054604080517fe3d670d7000000000000000000000000000000000000000000000000000000008152600160a060020a03878116600483015291518694929093169263e3d670d792602480840193602093929083900390910190829087803b15801561439157600080fd5b505af11580156143a5573d6000803e3d6000fd5b505050506040513d60208110156143bb57600080fd5b505110159392505050565b600160a060020a0381166000908152600360205260408120548190819060ff1615156143f6576000199250610bd2565b600160a060020a038416600090815260026020526040812054925060089061441c61386b565b6001604060020a0316815260208082019290925260409081016000908120600160a060020a038816825260030190925290205490508181106144615760009250610bd2565b900392915050565b4290565b83614477876143c6565b60408051808201909152601881527f46494e414e43455f52454d41494e494e475f425544474554000000000000000060208201529111156144fd5760405160e560020a62461bcd0281526004018080602001828103825283818151815260200191508051906020019080838360008381101561026757818101518382015260200161024f565b5061450c8686868686866148aa565b505050505050565b60408051808201909152601581527f55494e5436345f4e554d4245525f544f4f5f424947000000000000000000000060208201526000906001604060020a038311156145a55760405160e560020a62461bcd0281526004018080602001828103825283818151815260200191508051906020019080838360008381101561026757818101518382015260200161024f565b5090919050565b60008060008060006145bc61386b565b945060086000866001604060020a03166001604060020a0316815260200190815260200160002060030160008c600160a060020a0316600160a060020a0316815260200190815260200160002093508b15614630576001840154614626908a63ffffffff614ab516565b6001850155614645565b8354614642908a63ffffffff614ab516565b84555b600760008154809291906001019190505592506006600084815260200190815260200160002091508a8260000160006101000a815481600160a060020a030219169083600160a060020a03160217905550898260010160006101000a815481600160a060020a030219169083600160a060020a031602179055508b8260010160146101000a81548160ff021916908315150217905550888260020181905550878260030181905550868260040160006101000a8154816001604060020a0302191690836001604060020a0316021790555061471e61387e565b6004830180546fffffffffffffffff00000000000000001916604060020a6001604060020a03938416021777ffffffffffffffff000000000000000000000000000000001916608060020a92881692830217905560009081526008602052604090206001810154909150151561479657600181018390555b89600160a060020a0316837f5b2c6f4cb53711ae51d600df17fa68f8239b4a704f766c99642f667d1d7bd40e8e8c8a604051808415151515815260200183815260200180602001828103825283818151815260200191508051906020019080838360005b838110156148125781810151838201526020016147fa565b50505050905090810190601f16801561483f5780820380516001836020036101000a031916815260200191505b5094505050505060405180910390a3505050505050505050505050565b6000806040516020818551602087016000895af160008111156148a0573d801561488d57602081146148965761489e565b6001935061489e565b600183511493505b505b5090949350505050565b6148ba60008787878787876145ac565b60008054604080517fbeabacc8000000000000000000000000000000000000000000000000000000008152600160a060020a038a811660048301528981166024830152604482018990529151919092169263beabacc8926064808201939182900301818387803b15801561492d57600080fd5b505af1158015614941573d6000803e3d6000fd5b50505050505050505050565b9055565b60408051600480825260a08201909252606091602082016080803883390190505090508481600081518110151561498457fe5b60209081029091010152805184908290600190811061499f57fe5b6020908102909101015280518390829060029081106149ba57fe5b6020908102909101015280518290829060039081106149d557fe5b60209081029091010152949350505050565b6000806000806040516020818751602089018a5afa92506000831115614a0c57805191505b50909590945092505050565b60408051808201909152601381527f4d41544836345f4d554c5f4f564552464c4f570000000000000000000000000060208201526000906001604060020a038481169084160290604060020a8210612ef75760405160e560020a62461bcd0281526004018080602001828103825283818151815260200191508051906020019080838360008381101561026757818101518382015260200161024f565b60408051808201909152601181527f4d4154485f4144445f4f564552464c4f5700000000000000000000000000000060208201526000908383019084821015612ef75760405160e560020a62461bcd0281526004018080602001828103825283818151815260200191508051906020019080838360008381101561026757818101518382015260200161024f56004150505f415554485f4641494c4544000000000000000000000000000000000046494e414e43455f4e4f5f5343484544554c45445f5041594d454e54000000004352454154455f5041594d454e54535f524f4c4500000000000000000000000046494e414e43455f434f4d504c4554455f5452414e534954494f4e00000000004348414e47455f425544474554535f524f4c4500000000000000000000000000494e49545f4e4f545f494e495449414c495a4544000000000000000000000000a165627a7a7230582015d2119866802089840642c42d9cacb526ed634c3b7929015445d5ee2e61bd690029ebb05b386a8d34882b8711d156f463690983dc47815980fb82aeeff1aa43579e",
  "source": "/*\n * SPDX-License-Identitifer:    GPL-3.0-or-later\n */\n\npragma solidity 0.4.24;\n\nimport \"@aragon/os/contracts/apps/AragonApp.sol\";\nimport \"@aragon/os/contracts/common/EtherTokenConstant.sol\";\nimport \"@aragon/os/contracts/common/IsContract.sol\";\nimport \"@aragon/os/contracts/common/SafeERC20.sol\";\n\nimport \"@aragon/os/contracts/lib/token/ERC20.sol\";\nimport \"@aragon/os/contracts/lib/math/SafeMath.sol\";\nimport \"@aragon/os/contracts/lib/math/SafeMath64.sol\";\n\nimport \"@aragon/apps-vault/contracts/Vault.sol\";\n\n\ncontract Finance is EtherTokenConstant, IsContract, AragonApp {\n    using SafeMath for uint256;\n    using SafeMath64 for uint64;\n    using SafeERC20 for ERC20;\n\n    bytes32 public constant CREATE_PAYMENTS_ROLE = keccak256(\"CREATE_PAYMENTS_ROLE\");\n    bytes32 public constant CHANGE_PERIOD_ROLE = keccak256(\"CHANGE_PERIOD_ROLE\");\n    bytes32 public constant CHANGE_BUDGETS_ROLE = keccak256(\"CHANGE_BUDGETS_ROLE\");\n    bytes32 public constant EXECUTE_PAYMENTS_ROLE = keccak256(\"EXECUTE_PAYMENTS_ROLE\");\n    bytes32 public constant MANAGE_PAYMENTS_ROLE = keccak256(\"MANAGE_PAYMENTS_ROLE\");\n\n    uint256 internal constant NO_SCHEDULED_PAYMENT = 0;\n    uint256 internal constant NO_TRANSACTION = 0;\n    uint256 internal constant MAX_SCHEDULED_PAYMENTS_PER_TX = 20;\n    uint256 internal constant MAX_UINT256 = uint256(-1);\n    uint64 internal constant MAX_UINT64 = uint64(-1);\n    uint64 internal constant MINIMUM_PERIOD = uint64(1 days);\n\n    string private constant ERROR_COMPLETE_TRANSITION = \"FINANCE_COMPLETE_TRANSITION\";\n    string private constant ERROR_NO_SCHEDULED_PAYMENT = \"FINANCE_NO_SCHEDULED_PAYMENT\";\n    string private constant ERROR_NO_TRANSACTION = \"FINANCE_NO_TRANSACTION\";\n    string private constant ERROR_NO_PERIOD = \"FINANCE_NO_PERIOD\";\n    string private constant ERROR_VAULT_NOT_CONTRACT = \"FINANCE_VAULT_NOT_CONTRACT\";\n    string private constant ERROR_SET_PERIOD_TOO_SHORT = \"FINANCE_SET_PERIOD_TOO_SHORT\";\n    string private constant ERROR_NEW_PAYMENT_AMOUNT_ZERO = \"FINANCE_NEW_PAYMENT_AMOUNT_ZERO\";\n    string private constant ERROR_NEW_PAYMENT_INTERVAL_ZERO = \"FINANCE_NEW_PAYMENT_INTRVL_ZERO\";\n    string private constant ERROR_NEW_PAYMENT_EXECS_ZERO = \"FINANCE_NEW_PAYMENT_EXECS_ZERO\";\n    string private constant ERROR_NEW_PAYMENT_IMMEDIATE = \"FINANCE_NEW_PAYMENT_IMMEDIATE\";\n    string private constant ERROR_RECOVER_AMOUNT_ZERO = \"FINANCE_RECOVER_AMOUNT_ZERO\";\n    string private constant ERROR_DEPOSIT_AMOUNT_ZERO = \"FINANCE_DEPOSIT_AMOUNT_ZERO\";\n    string private constant ERROR_ETH_VALUE_MISMATCH = \"FINANCE_ETH_VALUE_MISMATCH\";\n    string private constant ERROR_BUDGET = \"FINANCE_BUDGET\";\n    string private constant ERROR_EXECUTE_PAYMENT_NUM = \"FINANCE_EXECUTE_PAYMENT_NUM\";\n    string private constant ERROR_EXECUTE_PAYMENT_TIME = \"FINANCE_EXECUTE_PAYMENT_TIME\";\n    string private constant ERROR_PAYMENT_RECEIVER = \"FINANCE_PAYMENT_RECEIVER\";\n    string private constant ERROR_TOKEN_TRANSFER_FROM_REVERTED = \"FINANCE_TKN_TRANSFER_FROM_REVERT\";\n    string private constant ERROR_TOKEN_APPROVE_FAILED = \"FINANCE_TKN_APPROVE_FAILED\";\n    string private constant ERROR_PAYMENT_INACTIVE = \"FINANCE_PAYMENT_INACTIVE\";\n    string private constant ERROR_REMAINING_BUDGET = \"FINANCE_REMAINING_BUDGET\";\n\n    // Order optimized for storage\n    struct ScheduledPayment {\n        address token;\n        address receiver;\n        address createdBy;\n        bool inactive;\n        uint256 amount;\n        uint64 initialPaymentTime;\n        uint64 interval;\n        uint64 maxExecutions;\n        uint64 executions;\n    }\n\n    // Order optimized for storage\n    struct Transaction {\n        address token;\n        address entity;\n        bool isIncoming;\n        uint256 amount;\n        uint256 paymentId;\n        uint64 paymentExecutionNumber;\n        uint64 date;\n        uint64 periodId;\n    }\n\n    struct TokenStatement {\n        uint256 expenses;\n        uint256 income;\n    }\n\n    struct Period {\n        uint64 startTime;\n        uint64 endTime;\n        uint256 firstTransactionId;\n        uint256 lastTransactionId;\n        mapping (address => TokenStatement) tokenStatement;\n    }\n\n    struct Settings {\n        uint64 periodDuration;\n        mapping (address => uint256) budgets;\n        mapping (address => bool) hasBudget;\n    }\n\n    Vault public vault;\n    Settings internal settings;\n\n    // We are mimicing arrays, we use mappings instead to make app upgrade more graceful\n    mapping (uint256 => ScheduledPayment) internal scheduledPayments;\n    // Payments start at index 1, to allow us to use scheduledPayments[0] for transactions that are not\n    // linked to a scheduled payment\n    uint256 public paymentsNextIndex;\n\n    mapping (uint256 => Transaction) internal transactions;\n    uint256 public transactionsNextIndex;\n\n    mapping (uint64 => Period) internal periods;\n    uint64 public periodsLength;\n\n    event NewPeriod(uint64 indexed periodId, uint64 periodStarts, uint64 periodEnds);\n    event SetBudget(address indexed token, uint256 amount, bool hasBudget);\n    event NewPayment(uint256 indexed paymentId, address indexed recipient, uint64 maxExecutions, string reference);\n    event NewTransaction(uint256 indexed transactionId, bool incoming, address indexed entity, uint256 amount, string reference);\n    event ChangePaymentState(uint256 indexed paymentId, bool active);\n    event ChangePeriodDuration(uint64 newDuration);\n    event PaymentFailure(uint256 paymentId);\n\n    // Modifier used by all methods that impact accounting to make sure accounting period\n    // is changed before the operation if needed\n    // NOTE: its use **MUST** be accompanied by an initialization check\n    modifier transitionsPeriod {\n        bool completeTransition = _tryTransitionAccountingPeriod(getMaxPeriodTransitions());\n        require(completeTransition, ERROR_COMPLETE_TRANSITION);\n        _;\n    }\n\n    modifier scheduledPaymentExists(uint256 _paymentId) {\n        require(_paymentId > 0 && _paymentId < paymentsNextIndex, ERROR_NO_SCHEDULED_PAYMENT);\n        _;\n    }\n\n    modifier transactionExists(uint256 _transactionId) {\n        require(_transactionId > 0 && _transactionId < transactionsNextIndex, ERROR_NO_TRANSACTION);\n        _;\n    }\n\n    modifier periodExists(uint64 _periodId) {\n        require(_periodId < periodsLength, ERROR_NO_PERIOD);\n        _;\n    }\n\n    /**\n     * @notice Deposit ETH to the Vault, to avoid locking them in this Finance app forever\n     * @dev Send ETH to Vault. Send all the available balance.\n     */\n    function () external payable isInitialized transitionsPeriod {\n        require(msg.value > 0, ERROR_DEPOSIT_AMOUNT_ZERO);\n        _deposit(\n            ETH,\n            msg.value,\n            \"Ether transfer to Finance app\",\n            msg.sender,\n            true\n        );\n    }\n\n    /**\n    * @notice Initialize Finance app for Vault at `_vault` with period length of `@transformTime(_periodDuration)`\n    * @param _vault Address of the vault Finance will rely on (non changeable)\n    * @param _periodDuration Duration in seconds of each period\n    */\n    function initialize(Vault _vault, uint64 _periodDuration) external onlyInit {\n        initialized();\n\n        require(isContract(_vault), ERROR_VAULT_NOT_CONTRACT);\n        vault = _vault;\n\n        require(_periodDuration >= MINIMUM_PERIOD, ERROR_SET_PERIOD_TOO_SHORT);\n        settings.periodDuration = _periodDuration;\n\n        // Reserve the first scheduled payment index as an unused index for transactions not linked\n        // to a scheduled payment\n        scheduledPayments[0].inactive = true;\n        paymentsNextIndex = 1;\n\n        // Reserve the first transaction index as an unused index for periods with no transactions\n        transactionsNextIndex = 1;\n\n        // Start the first period\n        _newPeriod(getTimestamp64());\n    }\n\n    /**\n    * @notice Deposit `@tokenAmount(_token, _amount)`\n    * @dev Deposit for approved ERC20 tokens or ETH\n    * @param _token Address of deposited token\n    * @param _amount Amount of tokens sent\n    * @param _reference Reason for payment\n    */\n    function deposit(address _token, uint256 _amount, string _reference) external payable isInitialized transitionsPeriod {\n        require(_amount > 0, ERROR_DEPOSIT_AMOUNT_ZERO);\n        if (_token == ETH) {\n            // Ensure that the ETH sent with the transaction equals the amount in the deposit\n            require(msg.value == _amount, ERROR_ETH_VALUE_MISMATCH);\n        }\n\n        _deposit(\n            _token,\n            _amount,\n            _reference,\n            msg.sender,\n            true\n        );\n    }\n\n    /**\n    * @notice Create a new payment of `@tokenAmount(_token, _amount)` to `_receiver` for '`_reference`'\n    * @dev Note that this function is protected by the `CREATE_PAYMENTS_ROLE` but uses `MAX_UINT256`\n    *      as its interval auth parameter (as a sentinel value for \"never repeating\").\n    *      While this protects against most cases (you typically want to set a baseline requirement\n    *      for interval time), it does mean users will have to explicitly check for this case when\n    *      granting a permission that includes a upperbound requirement on the interval time.\n    * @param _token Address of token for payment\n    * @param _receiver Address that will receive payment\n    * @param _amount Tokens that are paid every time the payment is due\n    * @param _reference String detailing payment reason\n    */\n    function newImmediatePayment(address _token, address _receiver, uint256 _amount, string _reference)\n        external\n        // Use MAX_UINT256 as the interval parameter, as this payment will never repeat\n        // Payment time parameter is left as the last param as it was added later\n        authP(CREATE_PAYMENTS_ROLE, _arr(_token, _receiver, _amount, MAX_UINT256, uint256(1), getTimestamp()))\n        transitionsPeriod\n    {\n        require(_amount > 0, ERROR_NEW_PAYMENT_AMOUNT_ZERO);\n\n        _makePaymentTransaction(\n            _token,\n            _receiver,\n            _amount,\n            NO_SCHEDULED_PAYMENT,   // unrelated to any payment id; it isn't created\n            0,   // also unrelated to any payment executions\n            _reference\n        );\n    }\n\n    /**\n    * @notice Create a new payment of `@tokenAmount(_token, _amount)` to `_receiver` for `_reference`, executing `_maxExecutions` times at intervals of `@transformTime(_interval)`\n    * @dev See `newImmediatePayment()` for limitations on how the interval auth parameter can be used\n    * @param _token Address of token for payment\n    * @param _receiver Address that will receive payment\n    * @param _amount Tokens that are paid every time the payment is due\n    * @param _initialPaymentTime Timestamp for when the first payment is done\n    * @param _interval Number of seconds that need to pass between payment transactions\n    * @param _maxExecutions Maximum instances a payment can be executed\n    * @param _reference String detailing payment reason\n    */\n    function newScheduledPayment(\n        address _token,\n        address _receiver,\n        uint256 _amount,\n        uint64 _initialPaymentTime,\n        uint64 _interval,\n        uint64 _maxExecutions,\n        string _reference\n    )\n        external\n        // Payment time parameter is left as the last param as it was added later\n        authP(CREATE_PAYMENTS_ROLE, _arr(_token, _receiver, _amount, uint256(_interval), uint256(_maxExecutions), uint256(_initialPaymentTime)))\n        transitionsPeriod\n        returns (uint256 paymentId)\n    {\n        require(_amount > 0, ERROR_NEW_PAYMENT_AMOUNT_ZERO);\n        require(_interval > 0, ERROR_NEW_PAYMENT_INTERVAL_ZERO);\n        require(_maxExecutions > 0, ERROR_NEW_PAYMENT_EXECS_ZERO);\n\n        // Token budget must not be set at all or allow at least one instance of this payment each period\n        require(!settings.hasBudget[_token] || settings.budgets[_token] >= _amount, ERROR_BUDGET);\n\n        // Don't allow creating single payments that are immediately executable, use `newImmediatePayment()` instead\n        if (_maxExecutions == 1) {\n            require(_initialPaymentTime > getTimestamp64(), ERROR_NEW_PAYMENT_IMMEDIATE);\n        }\n\n        paymentId = paymentsNextIndex++;\n        emit NewPayment(paymentId, _receiver, _maxExecutions, _reference);\n\n        ScheduledPayment storage payment = scheduledPayments[paymentId];\n        payment.token = _token;\n        payment.receiver = _receiver;\n        payment.amount = _amount;\n        payment.initialPaymentTime = _initialPaymentTime;\n        payment.interval = _interval;\n        payment.maxExecutions = _maxExecutions;\n        payment.createdBy = msg.sender;\n\n        // We skip checking how many times the new payment was executed to allow creating new\n        // scheduled payments before having enough vault balance\n        _executePayment(paymentId);\n    }\n\n    /**\n    * @notice Change period duration to `@transformTime(_periodDuration)`, effective for next accounting period\n    * @param _periodDuration Duration in seconds for accounting periods\n    */\n    function setPeriodDuration(uint64 _periodDuration)\n        external\n        authP(CHANGE_PERIOD_ROLE, arr(uint256(_periodDuration), uint256(settings.periodDuration)))\n        transitionsPeriod\n    {\n        require(_periodDuration >= MINIMUM_PERIOD, ERROR_SET_PERIOD_TOO_SHORT);\n        settings.periodDuration = _periodDuration;\n        emit ChangePeriodDuration(_periodDuration);\n    }\n\n    /**\n    * @notice Set budget for `_token.symbol(): string` to `@tokenAmount(_token, _amount, false)`, effective immediately\n    * @param _token Address for token\n    * @param _amount New budget amount\n    */\n    function setBudget(\n        address _token,\n        uint256 _amount\n    )\n        external\n        authP(CHANGE_BUDGETS_ROLE, arr(_token, _amount, settings.budgets[_token], uint256(settings.hasBudget[_token] ? 1 : 0)))\n        transitionsPeriod\n    {\n        settings.budgets[_token] = _amount;\n        if (!settings.hasBudget[_token]) {\n            settings.hasBudget[_token] = true;\n        }\n        emit SetBudget(_token, _amount, true);\n    }\n\n    /**\n    * @notice Remove spending limit for `_token.symbol(): string`, effective immediately\n    * @param _token Address for token\n    */\n    function removeBudget(address _token)\n        external\n        authP(CHANGE_BUDGETS_ROLE, arr(_token, uint256(0), settings.budgets[_token], uint256(settings.hasBudget[_token] ? 1 : 0)))\n        transitionsPeriod\n    {\n        settings.budgets[_token] = 0;\n        settings.hasBudget[_token] = false;\n        emit SetBudget(_token, 0, false);\n    }\n\n    /**\n    * @notice Execute pending payment #`_paymentId`\n    * @dev Executes any payment (requires role)\n    * @param _paymentId Identifier for payment\n    */\n    function executePayment(uint256 _paymentId)\n        external\n        authP(EXECUTE_PAYMENTS_ROLE, arr(_paymentId, scheduledPayments[_paymentId].amount))\n        scheduledPaymentExists(_paymentId)\n        transitionsPeriod\n    {\n        _executePaymentAtLeastOnce(_paymentId);\n    }\n\n    /**\n    * @notice Execute pending payment #`_paymentId`\n    * @dev Always allow receiver of a payment to trigger execution\n    *      Initialization check is implicitly provided by `scheduledPaymentExists()` as new\n    *      scheduled payments can only be created via `newScheduledPayment(),` which requires initialization\n    * @param _paymentId Identifier for payment\n    */\n    function receiverExecutePayment(uint256 _paymentId) external scheduledPaymentExists(_paymentId) transitionsPeriod {\n        require(scheduledPayments[_paymentId].receiver == msg.sender, ERROR_PAYMENT_RECEIVER);\n        _executePaymentAtLeastOnce(_paymentId);\n    }\n\n    /**\n    * @notice `_active ? 'Activate' : 'Disable'` payment #`_paymentId`\n    * @dev Note that we do not require this action to transition periods, as it doesn't directly\n    *      impact any accounting periods.\n    *      Not having to transition periods also makes disabling payments easier to prevent funds\n    *      from being pulled out in the event of a breach.\n    * @param _paymentId Identifier for payment\n    * @param _active Whether it will be active or inactive\n    */\n    function setPaymentStatus(uint256 _paymentId, bool _active)\n        external\n        authP(MANAGE_PAYMENTS_ROLE, arr(_paymentId, uint256(_active ? 1 : 0)))\n        scheduledPaymentExists(_paymentId)\n    {\n        scheduledPayments[_paymentId].inactive = !_active;\n        emit ChangePaymentState(_paymentId, _active);\n    }\n\n    /**\n     * @notice Send tokens held in this contract to the Vault\n     * @dev Allows making a simple payment from this contract to the Vault, to avoid locked tokens.\n     *      This contract should never receive tokens with a simple transfer call, but in case it\n     *      happens, this function allows for their recovery.\n     * @param _token Token whose balance is going to be transferred.\n     */\n    function recoverToVault(address _token) external isInitialized transitionsPeriod {\n        uint256 amount = _token == ETH ? address(this).balance : ERC20(_token).staticBalanceOf(address(this));\n        require(amount > 0, ERROR_RECOVER_AMOUNT_ZERO);\n\n        _deposit(\n            _token,\n            amount,\n            \"Recover to Vault\",\n            address(this),\n            false\n        );\n    }\n\n    /**\n    * @notice Transition accounting period if needed\n    * @dev Transitions accounting periods if needed. For preventing OOG attacks, a maxTransitions\n    *      param is provided. If more than the specified number of periods need to be transitioned,\n    *      it will return false.\n    * @param _maxTransitions Maximum periods that can be transitioned\n    * @return success Boolean indicating whether the accounting period is the correct one (if false,\n    *                 maxTransitions was surpased and another call is needed)\n    */\n    function tryTransitionAccountingPeriod(uint64 _maxTransitions) external isInitialized returns (bool success) {\n        return _tryTransitionAccountingPeriod(_maxTransitions);\n    }\n\n    // Getter fns\n\n    /**\n    * @dev Disable recovery escape hatch if the app has been initialized, as it could be used\n    *      maliciously to transfer funds in the Finance app to another Vault\n    *      finance#recoverToVault() should be used to recover funds to the Finance's vault\n    */\n    function allowRecoverability(address) public view returns (bool) {\n        return !hasInitialized();\n    }\n\n    function getPayment(uint256 _paymentId)\n        public\n        view\n        scheduledPaymentExists(_paymentId)\n        returns (\n            address token,\n            address receiver,\n            uint256 amount,\n            uint64 initialPaymentTime,\n            uint64 interval,\n            uint64 maxExecutions,\n            bool inactive,\n            uint64 executions,\n            address createdBy\n        )\n    {\n        ScheduledPayment storage payment = scheduledPayments[_paymentId];\n\n        token = payment.token;\n        receiver = payment.receiver;\n        amount = payment.amount;\n        initialPaymentTime = payment.initialPaymentTime;\n        interval = payment.interval;\n        maxExecutions = payment.maxExecutions;\n        executions = payment.executions;\n        inactive = payment.inactive;\n        createdBy = payment.createdBy;\n    }\n\n    function getTransaction(uint256 _transactionId)\n        public\n        view\n        transactionExists(_transactionId)\n        returns (\n            uint64 periodId,\n            uint256 amount,\n            uint256 paymentId,\n            uint64 paymentExecutionNumber,\n            address token,\n            address entity,\n            bool isIncoming,\n            uint64 date\n        )\n    {\n        Transaction storage transaction = transactions[_transactionId];\n\n        token = transaction.token;\n        entity = transaction.entity;\n        isIncoming = transaction.isIncoming;\n        date = transaction.date;\n        periodId = transaction.periodId;\n        amount = transaction.amount;\n        paymentId = transaction.paymentId;\n        paymentExecutionNumber = transaction.paymentExecutionNumber;\n    }\n\n    function getPeriod(uint64 _periodId)\n        public\n        view\n        periodExists(_periodId)\n        returns (\n            bool isCurrent,\n            uint64 startTime,\n            uint64 endTime,\n            uint256 firstTransactionId,\n            uint256 lastTransactionId\n        )\n    {\n        Period storage period = periods[_periodId];\n\n        isCurrent = _currentPeriodId() == _periodId;\n\n        startTime = period.startTime;\n        endTime = period.endTime;\n        firstTransactionId = period.firstTransactionId;\n        lastTransactionId = period.lastTransactionId;\n    }\n\n    function getPeriodTokenStatement(uint64 _periodId, address _token)\n        public\n        view\n        periodExists(_periodId)\n        returns (uint256 expenses, uint256 income)\n    {\n        TokenStatement storage tokenStatement = periods[_periodId].tokenStatement[_token];\n        expenses = tokenStatement.expenses;\n        income = tokenStatement.income;\n    }\n\n    /**\n    * @dev We have to check for initialization as periods are only valid after initializing\n    */\n    function currentPeriodId() public view isInitialized returns (uint64) {\n        return _currentPeriodId();\n    }\n\n    /**\n    * @dev We have to check for initialization as periods are only valid after initializing\n    */\n    function getPeriodDuration() public view isInitialized returns (uint64) {\n        return settings.periodDuration;\n    }\n\n    /**\n    * @dev We have to check for initialization as budgets are only valid after initializing\n    */\n    function getBudget(address _token) public view isInitialized returns (uint256 budget, bool hasBudget) {\n        budget = settings.budgets[_token];\n        hasBudget = settings.hasBudget[_token];\n    }\n\n    /**\n    * @dev We have to check for initialization as budgets are only valid after initializing\n    */\n    function getRemainingBudget(address _token) public view isInitialized returns (uint256) {\n        return _getRemainingBudget(_token);\n    }\n\n    /**\n    * @dev We have to check for initialization as budgets are only valid after initializing\n    */\n    function canMakePayment(address _token, uint256 _amount) public view isInitialized returns (bool) {\n        return _canMakePayment(_token, _amount);\n    }\n\n    /**\n    * @dev Initialization check is implicitly provided by `scheduledPaymentExists()` as new\n    *      scheduled payments can only be created via `newScheduledPayment(),` which requires initialization\n    */\n    function nextPaymentTime(uint256 _paymentId) public view scheduledPaymentExists(_paymentId) returns (uint64) {\n        return _nextPaymentTime(_paymentId);\n    }\n\n    // Internal fns\n\n    function _deposit(address _token, uint256 _amount, string _reference, address _sender, bool _isExternalDeposit) internal {\n        _recordIncomingTransaction(\n            _token,\n            _sender,\n            _amount,\n            _reference\n        );\n\n        if (_token == ETH) {\n            vault.deposit.value(_amount)(ETH, _amount);\n        } else {\n            // First, transfer the tokens to Finance if necessary\n            // External deposit will be false when the assets were already in the Finance app\n            // and just need to be transferred to the Vault\n            if (_isExternalDeposit) {\n                // This assumes the sender has approved the tokens for Finance\n                require(\n                    ERC20(_token).safeTransferFrom(msg.sender, address(this), _amount),\n                    ERROR_TOKEN_TRANSFER_FROM_REVERTED\n                );\n            }\n            // Approve the tokens for the Vault (it does the actual transferring)\n            require(ERC20(_token).safeApprove(vault, _amount), ERROR_TOKEN_APPROVE_FAILED);\n            // Finally, initiate the deposit\n            vault.deposit(_token, _amount);\n        }\n    }\n\n    function _executePayment(uint256 _paymentId) internal returns (uint256) {\n        ScheduledPayment storage payment = scheduledPayments[_paymentId];\n        require(!payment.inactive, ERROR_PAYMENT_INACTIVE);\n\n        uint64 paid = 0;\n        while (_nextPaymentTime(_paymentId) <= getTimestamp64() && paid < MAX_SCHEDULED_PAYMENTS_PER_TX) {\n            if (!_canMakePayment(payment.token, payment.amount)) {\n                emit PaymentFailure(_paymentId);\n                break;\n            }\n\n            // The while() predicate prevents these two from ever overflowing\n            payment.executions += 1;\n            paid += 1;\n\n            // We've already checked the remaining budget with `_canMakePayment()`\n            _unsafeMakePaymentTransaction(\n                payment.token,\n                payment.receiver,\n                payment.amount,\n                _paymentId,\n                payment.executions,\n                \"\"\n            );\n        }\n\n        return paid;\n    }\n\n    function _executePaymentAtLeastOnce(uint256 _paymentId) internal {\n        uint256 paid = _executePayment(_paymentId);\n        if (paid == 0) {\n            if (_nextPaymentTime(_paymentId) <= getTimestamp64()) {\n                revert(ERROR_EXECUTE_PAYMENT_NUM);\n            } else {\n                revert(ERROR_EXECUTE_PAYMENT_TIME);\n            }\n        }\n    }\n\n    function _makePaymentTransaction(\n        address _token,\n        address _receiver,\n        uint256 _amount,\n        uint256 _paymentId,\n        uint64 _paymentExecutionNumber,\n        string _reference\n    )\n        internal\n    {\n        require(_getRemainingBudget(_token) >= _amount, ERROR_REMAINING_BUDGET);\n        _unsafeMakePaymentTransaction(_token, _receiver, _amount, _paymentId, _paymentExecutionNumber, _reference);\n    }\n\n    /**\n    * @dev Unsafe version of _makePaymentTransaction that assumes you have already checked the\n    *      remaining budget\n    */\n    function _unsafeMakePaymentTransaction(\n        address _token,\n        address _receiver,\n        uint256 _amount,\n        uint256 _paymentId,\n        uint64 _paymentExecutionNumber,\n        string _reference\n    )\n        internal\n    {\n        _recordTransaction(\n            false,\n            _token,\n            _receiver,\n            _amount,\n            _paymentId,\n            _paymentExecutionNumber,\n            _reference\n        );\n\n        vault.transfer(_token, _receiver, _amount);\n    }\n\n    function _newPeriod(uint64 _startTime) internal returns (Period storage) {\n        // There should be no way for this to overflow since each period is at least one day\n        uint64 newPeriodId = periodsLength++;\n\n        Period storage period = periods[newPeriodId];\n        period.startTime = _startTime;\n\n        // Be careful here to not overflow; if startTime + periodDuration overflows, we set endTime\n        // to MAX_UINT64 (let's assume that's the end of time for now).\n        uint64 endTime = _startTime + settings.periodDuration - 1;\n        if (endTime < _startTime) { // overflowed\n            endTime = MAX_UINT64;\n        }\n        period.endTime = endTime;\n\n        emit NewPeriod(newPeriodId, period.startTime, period.endTime);\n\n        return period;\n    }\n\n    function _recordIncomingTransaction(\n        address _token,\n        address _sender,\n        uint256 _amount,\n        string _reference\n    )\n        internal\n    {\n        _recordTransaction(\n            true, // incoming transaction\n            _token,\n            _sender,\n            _amount,\n            NO_SCHEDULED_PAYMENT, // unrelated to any existing payment\n            0, // and no payment executions\n            _reference\n        );\n    }\n\n    function _recordTransaction(\n        bool _incoming,\n        address _token,\n        address _entity,\n        uint256 _amount,\n        uint256 _paymentId,\n        uint64 _paymentExecutionNumber,\n        string _reference\n    )\n        internal\n    {\n        uint64 periodId = _currentPeriodId();\n        TokenStatement storage tokenStatement = periods[periodId].tokenStatement[_token];\n        if (_incoming) {\n            tokenStatement.income = tokenStatement.income.add(_amount);\n        } else {\n            tokenStatement.expenses = tokenStatement.expenses.add(_amount);\n        }\n\n        uint256 transactionId = transactionsNextIndex++;\n\n        Transaction storage transaction = transactions[transactionId];\n        transaction.token = _token;\n        transaction.entity = _entity;\n        transaction.isIncoming = _incoming;\n        transaction.amount = _amount;\n        transaction.paymentId = _paymentId;\n        transaction.paymentExecutionNumber = _paymentExecutionNumber;\n        transaction.date = getTimestamp64();\n        transaction.periodId = periodId;\n\n        Period storage period = periods[periodId];\n        if (period.firstTransactionId == NO_TRANSACTION) {\n            period.firstTransactionId = transactionId;\n        }\n\n        emit NewTransaction(transactionId, _incoming, _entity, _amount, _reference);\n    }\n\n    function _tryTransitionAccountingPeriod(uint64 _maxTransitions) internal returns (bool success) {\n        Period storage currentPeriod = periods[_currentPeriodId()];\n        uint64 timestamp = getTimestamp64();\n\n        // Transition periods if necessary\n        while (timestamp > currentPeriod.endTime) {\n            if (_maxTransitions == 0) {\n                // Required number of transitions is over allowed number, return false indicating\n                // it didn't fully transition\n                return false;\n            }\n            // We're already protected from underflowing above\n            _maxTransitions -= 1;\n\n            // If there were any transactions in period, record which was the last\n            // In case 0 transactions occured, first and last tx id will be 0\n            if (currentPeriod.firstTransactionId != NO_TRANSACTION) {\n                currentPeriod.lastTransactionId = transactionsNextIndex.sub(1);\n            }\n\n            // New period starts at end time + 1\n            currentPeriod = _newPeriod(currentPeriod.endTime.add(1));\n        }\n\n        return true;\n    }\n\n    function _canMakePayment(address _token, uint256 _amount) internal view returns (bool) {\n        return _getRemainingBudget(_token) >= _amount && vault.balance(_token) >= _amount;\n    }\n\n    function _currentPeriodId() internal view returns (uint64) {\n        // There is no way for this to overflow if protected by an initialization check\n        return periodsLength - 1;\n    }\n\n    function _getRemainingBudget(address _token) internal view returns (uint256) {\n        if (!settings.hasBudget[_token]) {\n            return MAX_UINT256;\n        }\n\n        uint256 budget = settings.budgets[_token];\n        uint256 spent = periods[_currentPeriodId()].tokenStatement[_token].expenses;\n\n        // A budget decrease can cause the spent amount to be greater than period budget\n        // If so, return 0 to not allow more spending during period\n        if (spent >= budget) {\n            return 0;\n        }\n\n        // We're already protected from the overflow above\n        return budget - spent;\n    }\n\n    function _nextPaymentTime(uint256 _paymentId) internal view returns (uint64) {\n        ScheduledPayment storage payment = scheduledPayments[_paymentId];\n\n        if (payment.executions >= payment.maxExecutions) {\n            return MAX_UINT64; // re-executes in some billions of years time... should not need to worry\n        }\n\n        // Split in multiple lines to circumvent linter warning\n        uint64 increase = payment.executions.mul(payment.interval);\n        uint64 nextPayment = payment.initialPaymentTime.add(increase);\n        return nextPayment;\n    }\n\n    // Syntax sugar\n\n    function _arr(address _a, address _b, uint256 _c, uint256 _d, uint256 _e, uint256 _f) internal pure returns (uint256[] r) {\n        r = new uint256[](6);\n        r[0] = uint256(_a);\n        r[1] = uint256(_b);\n        r[2] = _c;\n        r[3] = _d;\n        r[4] = _e;\n        r[5] = _f;\n    }\n\n    // Mocked fns (overrided during testing)\n    // Must be view for mocking purposes\n\n    function getMaxPeriodTransitions() internal view returns (uint64) { return MAX_UINT64; }\n}\n",
  "sourcePath": "@aragon/apps-finance/contracts/Finance.sol",
  "compiler": {
    "name": "solc",
    "version": "0.4.24+commit.e67f0147.Emscripten.clang"
  },
  "schemaVersion": "2.0.1",
  "updatedAt": "2020-02-09T01:44:08.535Z"
}