{
  "contractName": "FundraisingMultisigTemplate",
  "abi": [
    {
      "constant": true,
      "inputs": [
        {
          "name": "",
          "type": "uint256"
        }
      ],
      "name": "collaterals",
      "outputs": [
        {
          "name": "",
          "type": "address"
        }
      ],
      "payable": false,
      "stateMutability": "view",
      "type": "function"
    },
    {
      "inputs": [
        {
          "name": "_daoFactory",
          "type": "address"
        },
        {
          "name": "_ens",
          "type": "address"
        },
        {
          "name": "_miniMeFactory",
          "type": "address"
        },
        {
          "name": "_aragonID",
          "type": "address"
        },
        {
          "name": "_dai",
          "type": "address"
        },
        {
          "name": "_ant",
          "type": "address"
        }
      ],
      "payable": false,
      "stateMutability": "nonpayable",
      "type": "constructor"
    },
    {
      "anonymous": false,
      "inputs": [
        {
          "indexed": false,
          "name": "dao",
          "type": "address"
        }
      ],
      "name": "DeployDao",
      "type": "event"
    },
    {
      "anonymous": false,
      "inputs": [
        {
          "indexed": false,
          "name": "dao",
          "type": "address"
        }
      ],
      "name": "SetupDao",
      "type": "event"
    },
    {
      "anonymous": false,
      "inputs": [
        {
          "indexed": false,
          "name": "token",
          "type": "address"
        }
      ],
      "name": "DeployToken",
      "type": "event"
    },
    {
      "anonymous": false,
      "inputs": [
        {
          "indexed": false,
          "name": "appProxy",
          "type": "address"
        },
        {
          "indexed": false,
          "name": "appId",
          "type": "bytes32"
        }
      ],
      "name": "InstalledApp",
      "type": "event"
    },
    {
      "constant": false,
      "inputs": [
        {
          "name": "_boardTokenName",
          "type": "string"
        },
        {
          "name": "_boardTokenSymbol",
          "type": "string"
        },
        {
          "name": "_boardMembers",
          "type": "address[]"
        },
        {
          "name": "_boardVotingSettings",
          "type": "uint64[3]"
        },
        {
          "name": "_financePeriod",
          "type": "uint64"
        }
      ],
      "name": "prepareInstance",
      "outputs": [],
      "payable": false,
      "stateMutability": "nonpayable",
      "type": "function"
    },
    {
      "constant": false,
      "inputs": [
        {
          "name": "_shareTokenName",
          "type": "string"
        },
        {
          "name": "_shareTokenSymbol",
          "type": "string"
        },
        {
          "name": "_shareVotingSettings",
          "type": "uint64[3]"
        }
      ],
      "name": "installShareApps",
      "outputs": [],
      "payable": false,
      "stateMutability": "nonpayable",
      "type": "function"
    },
    {
      "constant": false,
      "inputs": [
        {
          "name": "_goal",
          "type": "uint256"
        },
        {
          "name": "_period",
          "type": "uint64"
        },
        {
          "name": "_exchangeRate",
          "type": "uint256"
        },
        {
          "name": "_vestingCliffPeriod",
          "type": "uint64"
        },
        {
          "name": "_vestingCompletePeriod",
          "type": "uint64"
        },
        {
          "name": "_supplyOfferedPct",
          "type": "uint256"
        },
        {
          "name": "_fundingForBeneficiaryPct",
          "type": "uint256"
        },
        {
          "name": "_openDate",
          "type": "uint64"
        },
        {
          "name": "_batchBlocks",
          "type": "uint256"
        },
        {
          "name": "_maxTapRateIncreasePct",
          "type": "uint256"
        },
        {
          "name": "_maxTapFloorDecreasePct",
          "type": "uint256"
        }
      ],
      "name": "installFundraisingApps",
      "outputs": [],
      "payable": false,
      "stateMutability": "nonpayable",
      "type": "function"
    },
    {
      "constant": false,
      "inputs": [],
      "name": "setupFundraisingPermissions",
      "outputs": [],
      "payable": false,
      "stateMutability": "nonpayable",
      "type": "function"
    },
    {
      "constant": false,
      "inputs": [
        {
          "name": "_id",
          "type": "string"
        },
        {
          "name": "_virtualSupplies",
          "type": "uint256[2]"
        },
        {
          "name": "_virtualBalances",
          "type": "uint256[2]"
        },
        {
          "name": "_slippages",
          "type": "uint256[2]"
        },
        {
          "name": "_rateDAI",
          "type": "uint256"
        },
        {
          "name": "_floorDAI",
          "type": "uint256"
        }
      ],
      "name": "finalizeInstance",
      "outputs": [],
      "payable": false,
      "stateMutability": "nonpayable",
      "type": "function"
    }
  ],
  "bytecode": "0x60806040523480156200001157600080fd5b5060405160c0806200618483398101604090815281516020830151918301516060840151608085015160a09095015192949192909190858585856200005f83640100000000620004ed810204565b60408051808201909152601981527f54454d504c4154455f454e535f4e4f545f434f4e54524143540000000000000060208201529015156200013c576040517f08c379a00000000000000000000000000000000000000000000000000000000081526004018080602001828103825283818151815260200191508051906020019080838360005b8381101562000100578181015183820152602001620000e6565b50505050905090810190601f1680156200012e5780820380516001836020036101000a031916815260200191505b509250505060405180910390fd5b506200015184640100000000620004ed810204565b60408051808201909152601d81527f54454d504c4154455f44414f5f4641435f4e4f545f434f4e54524143540000006020820152901515620001f1576040517f08c379a00000000000000000000000000000000000000000000000000000000081526004018080602001828103825283818151815260200191508051906020019080838360008381101562000100578181015183820152602001620000e6565b5060008054600160a060020a0319908116600160a060020a0395861617909155600380548216928516929092179091556001805482169484169490941790935560028054909316911617905562000251836401000000006200051c810204565b6200026584640100000000620005d4810204565b6200027982640100000000620004ed810204565b60408051808201909152600f81527f464d5f4241445f53455454494e47530000000000000000000000000000000000602082015290151562000319576040517f08c379a00000000000000000000000000000000000000000000000000000000081526004018080602001828103825283818151815260200191508051906020019080838360008381101562000100578181015183820152602001620000e6565b506200032e81640100000000620004ed810204565b60408051808201909152600f81527f464d5f4241445f53455454494e475300000000000000000000000000000000006020820152901515620003ce576040517f08c379a00000000000000000000000000000000000000000000000000000000081526004018080602001828103825283818151815260200191508051906020019080838360008381101562000100578181015183820152602001620000e6565b5060408051808201909152600f81527f464d5f4241445f53455454494e475300000000000000000000000000000000006020820152600160a060020a0383811690831614156200047c576040517f08c379a00000000000000000000000000000000000000000000000000000000081526004018080602001828103825283818151815260200191508051906020019080838360008381101562000100578181015183820152602001620000e6565b50600480546001818101835560008390527f8a35acfbc15ff81a39ae7d344fd709f28e8600b4aa8c65c6b64bfe7fe36bd19b9182018054600160a060020a03968716600160a060020a0319918216179091558354918201909355018054929093169116179055506200068a92505050565b600080600160a060020a03831615156200050b576000915062000516565b823b90506000811191505b50919050565b6200053081640100000000620004ed810204565b60408051808201909152601f81527f54454d504c4154455f415241474f4e5f49445f4e4f545f434f4e5452414354006020820152901515620005d0576040517f08c379a00000000000000000000000000000000000000000000000000000000081526004018080602001828103825283818151815260200191508051906020019080838360008381101562000100578181015183820152602001620000e6565b5050565b620005e881640100000000620004ed810204565b6040805190810160405280602081526020017f54454d504c4154455f4d494e494d455f4641435f4e4f545f434f4e5452414354815250901515620005d0576040517f08c379a00000000000000000000000000000000000000000000000000000000081526004018080602001828103825283818151815260200191508051906020019080838360008381101562000100578181015183820152602001620000e6565b615aea806200069a6000396000f30060806040526004361061005e5763ffffffff60e060020a6000350416631aed6f4e811461006357806324c1173b146100ac578063350cbe71146100e057806385ddd98e1461010e578063b95b1b681461013c578063d23a70a31461018b575b600080fd5b34801561006f57600080fd5b506100aa6024600480358281019290820135918135808301929082013591604435918201910135606467ffffffffffffffff60c435166101a0565b005b3480156100b857600080fd5b506100c460043561037e565b60408051600160a060020a039092168252519081900360200190f35b3480156100ec57600080fd5b506100aa6024600480358281019291013590606460a460e435610104356103a6565b34801561011a57600080fd5b506100aa602460048035828101929082013591813591820191013560446105bb565b34801561014857600080fd5b506100aa60043567ffffffffffffffff6024358116906044359060643581169060843581169060a4359060c4359060e4351661010435610124356101443561069f565b34801561019757600080fd5b506100aa6106d0565b60408051808201909152600f8152600080516020615a9f83398151915260208201526000908190819081908188116102595760405160e560020a62461bcd0281526004018080602001828103825283818151815260200191508051906020019080838360005b8381101561021e578181015183820152602001610206565b50505050905090810190601f16801561024b5780820380516001836020036101000a031916815260200191505b509250505060405180910390fd5b5060408051808201909152600f8152600080516020615a9f833981519152602082015250610285612780565b935093506102f88c8c8080601f0160208091040260200160405190810160405280939291908181526020018383808284378201915050505050508b8b8080601f01602080910402602001604051908101604052809392919081815260200183838082843750600094506129459350505050565b915061032a8483886003806020026040519081016040528092919082600360200280828437508c9350612ba992505050565b905061036783828a8a808060200260200160405190810160405280939291908181526020018383602002808284375060019450612c199350505050565b61037084612d84565b505050505050505050505050565b600480548290811061038c57fe5b600091825260209091200154600160a060020a0316905081565b60408051808201909152600f8152600080516020615a9f833981519152602082015260009081908190818a116104215760405160e560020a62461bcd0281526004018080602001828103825283818151815260200191508051906020019080838360008381101561021e578181015183820152602001610206565b50604080518082018252600f808252600080516020615a9f8339815191526020928301819052835180850185528281528301819052835180850190945290835291015261046c612db3565b610474612eaa565b925082600160a060020a031663de2873596040518163ffffffff1660e060020a028152600401602060405180830381600087803b1580156104b457600080fd5b505af11580156104c8573d6000803e3d6000fd5b505050506040513d60208110156104de57600080fd5b505191506104ea612ec6565b91505061055683896002806020026040519081016040528092919082600260200280828437505060408051808201825293508d9250600291508390839080828437505060408051808201825293508d925060029150839083908082843782019150505050508989612ef1565b6105618282836131b3565b61056c838283613423565b6105a78a8a8080601f016020809104026020016040519081016040528093929190818152602001838380828437508994506135689350505050565b6105af613739565b50505050505050505050565b60408051808201909152600f8152600080516020615a9f8339815191526020909101526000806105e96137ca565b6105f1612eaa565b915061065d87878080601f0160208091040260200160405190810160405280939291908181526020018383808284375050604080516020601f8d018190048102820181019092528b815294508b93508a9250829150840183828082843750601294506129459350505050565b905061068d8282856003806020026040519081016040528092919082600360200280828437506138a29350505050565b610696826138cc565b50505050505050565b60006106a9613999565b6106b1612eaa565b90506106c7818d8d8d8d8d8d8d8d8d8d8d613a41565b61037081613a76565b600080600080600080600080600060606106e8612db3565b6106f0612eaa565b995089600160a060020a031663de2873596040518163ffffffff1660e060020a028152600401602060405180830381600087803b15801561073057600080fd5b505af1158015610744573d6000803e3d6000fd5b505050506040513d602081101561075a57600080fd5b50519850610766613fd4565b5050985050610773612ec6565b97505061077e61400f565b60408051600280825260608201909252959b5093995091975095509350816020016020820280388339019050509050828160008151811015156107bd57fe5b600160a060020a0390921660209283029091019091015280518490829060019081106107e557fe5b90602001906020020190600160a060020a03169081600160a060020a03168152505088600160a060020a031663be038478888889600160a060020a0316633e4eb7566040518163ffffffff1660e060020a028152600401602060405180830381600087803b15801561085657600080fd5b505af115801561086a573d6000803e3d6000fd5b505050506040513d602081101561088057600080fd5b50516040805160e060020a63ffffffff8716028152600160a060020a03948516600482015292841660248401526044830191909152918b1660648201529051608480830192600092919082900301818387803b1580156108df57600080fd5b505af11580156108f3573d6000803e3d6000fd5b5050505088600160a060020a031663be038478838889600160a060020a0316627bb0036040518163ffffffff1660e060020a028152600401602060405180830381600087803b15801561094557600080fd5b505af1158015610959573d6000803e3d6000fd5b505050506040513d602081101561096f57600080fd5b50516040805160e060020a63ffffffff8716028152600160a060020a03948516600482015292841660248401526044830191909152918b1660648201529051608480830192600092919082900301818387803b1580156109ce57600080fd5b505af11580156109e2573d6000803e3d6000fd5b50505050610a5c89828889600160a060020a031663206b60f96040518163ffffffff1660e060020a028152600401602060405180830381600087803b158015610a2a57600080fd5b505af1158015610a3e573d6000803e3d6000fd5b505050506040513d6020811015610a5457600080fd5b50518b614055565b88600160a060020a031663be038478838788600160a060020a0316636a928e8f6040518163ffffffff1660e060020a028152600401602060405180830381600087803b158015610aab57600080fd5b505af1158015610abf573d6000803e3d6000fd5b505050506040513d6020811015610ad557600080fd5b50516040805160e060020a63ffffffff8716028152600160a060020a03948516600482015292841660248401526044830191909152918b1660648201529051608480830192600092919082900301818387803b158015610b3457600080fd5b505af1158015610b48573d6000803e3d6000fd5b5050505088600160a060020a031663be038478838788600160a060020a031663a2b96b6f6040518163ffffffff1660e060020a028152600401602060405180830381600087803b158015610b9b57600080fd5b505af1158015610baf573d6000803e3d6000fd5b505050506040513d6020811015610bc557600080fd5b50516040805160e060020a63ffffffff8716028152600160a060020a03948516600482015292841660248401526044830191909152918b1660648201529051608480830192600092919082900301818387803b158015610c2457600080fd5b505af1158015610c38573d6000803e3d6000fd5b5050505088600160a060020a031663be038478838687600160a060020a0316636a928e8f6040518163ffffffff1660e060020a028152600401602060405180830381600087803b158015610c8b57600080fd5b505af1158015610c9f573d6000803e3d6000fd5b505050506040513d6020811015610cb557600080fd5b50516040805160e060020a63ffffffff8716028152600160a060020a03948516600482015292841660248401526044830191909152918b1660648201529051608480830192600092919082900301818387803b158015610d1457600080fd5b505af1158015610d28573d6000803e3d6000fd5b5050505088600160a060020a031663be038478838687600160a060020a03166341644f8c6040518163ffffffff1660e060020a028152600401602060405180830381600087803b158015610d7b57600080fd5b505af1158015610d8f573d6000803e3d6000fd5b505050506040513d6020811015610da557600080fd5b50516040805160e060020a63ffffffff8716028152600160a060020a03948516600482015292841660248401526044830191909152918b1660648201529051608480830192600092919082900301818387803b158015610e0457600080fd5b505af1158015610e18573d6000803e3d6000fd5b5050505088600160a060020a031663be038478838687600160a060020a03166360e14b606040518163ffffffff1660e060020a028152600401602060405180830381600087803b158015610e6b57600080fd5b505af1158015610e7f573d6000803e3d6000fd5b505050506040513d6020811015610e9557600080fd5b50516040805160e060020a63ffffffff8716028152600160a060020a03948516600482015292841660248401526044830191909152918b1660648201529051608480830192600092919082900301818387803b158015610ef457600080fd5b505af1158015610f08573d6000803e3d6000fd5b5050505088600160a060020a031663be038478838687600160a060020a031663608bac056040518163ffffffff1660e060020a028152600401602060405180830381600087803b158015610f5b57600080fd5b505af1158015610f6f573d6000803e3d6000fd5b505050506040513d6020811015610f8557600080fd5b50516040805160e060020a63ffffffff8716028152600160a060020a03948516600482015292841660248401526044830191909152918b1660648201529051608480830192600092919082900301818387803b158015610fe457600080fd5b505af1158015610ff8573d6000803e3d6000fd5b5050505088600160a060020a031663be038478838687600160a060020a031663b6e9c8266040518163ffffffff1660e060020a028152600401602060405180830381600087803b15801561104b57600080fd5b505af115801561105f573d6000803e3d6000fd5b505050506040513d602081101561107557600080fd5b50516040805160e060020a63ffffffff8716028152600160a060020a03948516600482015292841660248401526044830191909152918b1660648201529051608480830192600092919082900301818387803b1580156110d457600080fd5b505af11580156110e8573d6000803e3d6000fd5b5050505088600160a060020a031663be038478838687600160a060020a0316633017dbed6040518163ffffffff1660e060020a028152600401602060405180830381600087803b15801561113b57600080fd5b505af115801561114f573d6000803e3d6000fd5b505050506040513d602081101561116557600080fd5b50516040805160e060020a63ffffffff8716028152600160a060020a03948516600482015292841660248401526044830191909152918b1660648201529051608480830192600092919082900301818387803b1580156111c457600080fd5b505af11580156111d8573d6000803e3d6000fd5b5050505088600160a060020a031663be038478838687600160a060020a0316632cd4a2706040518163ffffffff1660e060020a028152600401602060405180830381600087803b15801561122b57600080fd5b505af115801561123f573d6000803e3d6000fd5b505050506040513d602081101561125557600080fd5b50516040805160e060020a63ffffffff8716028152600160a060020a03948516600482015292841660248401526044830191909152918b1660648201529051608480830192600092919082900301818387803b1580156112b457600080fd5b505af11580156112c8573d6000803e3d6000fd5b5050505088600160a060020a031663be038478838687600160a060020a031663cf9d82f26040518163ffffffff1660e060020a028152600401602060405180830381600087803b15801561131b57600080fd5b505af115801561132f573d6000803e3d6000fd5b505050506040513d602081101561134557600080fd5b50516040805160e060020a63ffffffff8716028152600160a060020a03948516600482015292841660248401526044830191909152918b1660648201529051608480830192600092919082900301818387803b1580156113a457600080fd5b505af11580156113b8573d6000803e3d6000fd5b5050505088600160a060020a031663be038478838586600160a060020a03166341644f8c6040518163ffffffff1660e060020a028152600401602060405180830381600087803b15801561140b57600080fd5b505af115801561141f573d6000803e3d6000fd5b505050506040513d602081101561143557600080fd5b50516040805160e060020a63ffffffff8716028152600160a060020a03948516600482015292841660248401526044830191909152918b1660648201529051608480830192600092919082900301818387803b15801561149457600080fd5b505af11580156114a8573d6000803e3d6000fd5b5050505088600160a060020a031663be038478838586600160a060020a031663c102b1b56040518163ffffffff1660e060020a028152600401602060405180830381600087803b1580156114fb57600080fd5b505af115801561150f573d6000803e3d6000fd5b505050506040513d602081101561152557600080fd5b50516040805160e060020a63ffffffff8716028152600160a060020a03948516600482015292841660248401526044830191909152918b1660648201529051608480830192600092919082900301818387803b15801561158457600080fd5b505af1158015611598573d6000803e3d6000fd5b5050505088600160a060020a031663be038478838586600160a060020a031663cc77491b6040518163ffffffff1660e060020a028152600401602060405180830381600087803b1580156115eb57600080fd5b505af11580156115ff573d6000803e3d6000fd5b505050506040513d602081101561161557600080fd5b50516040805160e060020a63ffffffff8716028152600160a060020a03948516600482015292841660248401526044830191909152918b1660648201529051608480830192600092919082900301818387803b15801561167457600080fd5b505af1158015611688573d6000803e3d6000fd5b5050505088600160a060020a031663be038478838586600160a060020a03166372405ee06040518163ffffffff1660e060020a028152600401602060405180830381600087803b1580156116db57600080fd5b505af11580156116ef573d6000803e3d6000fd5b505050506040513d602081101561170557600080fd5b50516040805160e060020a63ffffffff8716028152600160a060020a03948516600482015292841660248401526044830191909152918b1660648201529051608480830192600092919082900301818387803b15801561176457600080fd5b505af1158015611778573d6000803e3d6000fd5b5050505088600160a060020a031663be038478838586600160a060020a031663bf5ae7436040518163ffffffff1660e060020a028152600401602060405180830381600087803b1580156117cb57600080fd5b505af11580156117df573d6000803e3d6000fd5b505050506040513d60208110156117f557600080fd5b50516040805160e060020a63ffffffff8716028152600160a060020a03948516600482015292841660248401526044830191909152918b1660648201529051608480830192600092919082900301818387803b15801561185457600080fd5b505af1158015611868573d6000803e3d6000fd5b5050505088600160a060020a031663be038478838586600160a060020a03166378986e646040518163ffffffff1660e060020a028152600401602060405180830381600087803b1580156118bb57600080fd5b505af11580156118cf573d6000803e3d6000fd5b505050506040513d60208110156118e557600080fd5b50516040805160e060020a63ffffffff8716028152600160a060020a03948516600482015292841660248401526044830191909152918b1660648201529051608480830192600092919082900301818387803b15801561194457600080fd5b505af1158015611958573d6000803e3d6000fd5b5050505088600160a060020a031663be038478838586600160a060020a031663e02023a16040518163ffffffff1660e060020a028152600401602060405180830381600087803b1580156119ab57600080fd5b505af11580156119bf573d6000803e3d6000fd5b505050506040513d60208110156119d557600080fd5b50516040805160e060020a63ffffffff8716028152600160a060020a03948516600482015292841660248401526044830191909152918b1660648201529051608480830192600092919082900301818387803b158015611a3457600080fd5b505af1158015611a48573d6000803e3d6000fd5b5050505088600160a060020a031663be038478888485600160a060020a03166341644f8c6040518163ffffffff1660e060020a028152600401602060405180830381600087803b158015611a9b57600080fd5b505af1158015611aaf573d6000803e3d6000fd5b505050506040513d6020811015611ac557600080fd5b50516040805160e060020a63ffffffff8716028152600160a060020a03948516600482015292841660248401526044830191909152918b1660648201529051608480830192600092919082900301818387803b158015611b2457600080fd5b505af1158015611b38573d6000803e3d6000fd5b5050505088600160a060020a031663be038478888485600160a060020a03166360e14b606040518163ffffffff1660e060020a028152600401602060405180830381600087803b158015611b8b57600080fd5b505af1158015611b9f573d6000803e3d6000fd5b505050506040513d6020811015611bb557600080fd5b50516040805160e060020a63ffffffff8716028152600160a060020a03948516600482015292841660248401526044830191909152918b1660648201529051608480830192600092919082900301818387803b158015611c1457600080fd5b505af1158015611c28573d6000803e3d6000fd5b5050505088600160a060020a031663be038478888485600160a060020a031663b6e9c8266040518163ffffffff1660e060020a028152600401602060405180830381600087803b158015611c7b57600080fd5b505af1158015611c8f573d6000803e3d6000fd5b505050506040513d6020811015611ca557600080fd5b50516040805160e060020a63ffffffff8716028152600160a060020a03948516600482015292841660248401526044830191909152918b1660648201529051608480830192600092919082900301818387803b158015611d0457600080fd5b505af1158015611d18573d6000803e3d6000fd5b5050505088600160a060020a031663be038478888485600160a060020a0316633017dbed6040518163ffffffff1660e060020a028152600401602060405180830381600087803b158015611d6b57600080fd5b505af1158015611d7f573d6000803e3d6000fd5b505050506040513d6020811015611d9557600080fd5b50516040805160e060020a63ffffffff8716028152600160a060020a03948516600482015292841660248401526044830191909152918b1660648201529051608480830192600092919082900301818387803b158015611df457600080fd5b505af1158015611e08573d6000803e3d6000fd5b5050505088600160a060020a031663be038478888485600160a060020a031663c102b1b56040518163ffffffff1660e060020a028152600401602060405180830381600087803b158015611e5b57600080fd5b505af1158015611e6f573d6000803e3d6000fd5b505050506040513d6020811015611e8557600080fd5b50516040805160e060020a63ffffffff8716028152600160a060020a03948516600482015292841660248401526044830191909152918b1660648201529051608480830192600092919082900301818387803b158015611ee457600080fd5b505af1158015611ef8573d6000803e3d6000fd5b5050505088600160a060020a031663be038478888485600160a060020a031663cc77491b6040518163ffffffff1660e060020a028152600401602060405180830381600087803b158015611f4b57600080fd5b505af1158015611f5f573d6000803e3d6000fd5b505050506040513d6020811015611f7557600080fd5b50516040805160e060020a63ffffffff8716028152600160a060020a03948516600482015292841660248401526044830191909152918b1660648201529051608480830192600092919082900301818387803b158015611fd457600080fd5b505af1158015611fe8573d6000803e3d6000fd5b5050505088600160a060020a031663be038478888485600160a060020a0316638b4886346040518163ffffffff1660e060020a028152600401602060405180830381600087803b15801561203b57600080fd5b505af115801561204f573d6000803e3d6000fd5b505050506040513d602081101561206557600080fd5b50516040805160e060020a63ffffffff8716028152600160a060020a03948516600482015292841660248401526044830191909152918b1660648201529051608480830192600092919082900301818387803b1580156120c457600080fd5b505af11580156120d8573d6000803e3d6000fd5b5050505088600160a060020a031663be038478888485600160a060020a031663b0d88a406040518163ffffffff1660e060020a028152600401602060405180830381600087803b15801561212b57600080fd5b505af115801561213f573d6000803e3d6000fd5b505050506040513d602081101561215557600080fd5b50516040805160e060020a63ffffffff8716028152600160a060020a03948516600482015292841660248401526044830191909152918b1660648201529051608480830192600092919082900301818387803b1580156121b457600080fd5b505af11580156121c8573d6000803e3d6000fd5b5050505088600160a060020a031663be038478898485600160a060020a0316631c1966596040518163ffffffff1660e060020a028152600401602060405180830381600087803b15801561221b57600080fd5b505af115801561222f573d6000803e3d6000fd5b505050506040513d602081101561224557600080fd5b50516040805160e060020a63ffffffff8716028152600160a060020a03948516600482015292841660248401526044830191909152918b1660648201529051608480830192600092919082900301818387803b1580156122a457600080fd5b505af11580156122b8573d6000803e3d6000fd5b5050505088600160a060020a031663be038478868485600160a060020a0316630f97e2fe6040518163ffffffff1660e060020a028152600401602060405180830381600087803b15801561230b57600080fd5b505af115801561231f573d6000803e3d6000fd5b505050506040513d602081101561233557600080fd5b50516040805160e060020a63ffffffff8716028152600160a060020a03948516600482015292841660248401526044830191909152918b1660648201529051608480830192600092919082900301818387803b15801561239457600080fd5b505af11580156123a8573d6000803e3d6000fd5b5050505088600160a060020a031663be0384786000198485600160a060020a031663a2b96b6f6040518163ffffffff1660e060020a028152600401602060405180830381600087803b1580156123fd57600080fd5b505af1158015612411573d6000803e3d6000fd5b505050506040513d602081101561242757600080fd5b50516040805160e060020a63ffffffff8716028152600160a060020a03948516600482015292841660248401526044830191909152918b1660648201529051608480830192600092919082900301818387803b15801561248657600080fd5b505af115801561249a573d6000803e3d6000fd5b5050505088600160a060020a031663be0384786000198485600160a060020a0316632cd4a2706040518163ffffffff1660e060020a028152600401602060405180830381600087803b1580156124ef57600080fd5b505af1158015612503573d6000803e3d6000fd5b505050506040513d602081101561251957600080fd5b50516040805160e060020a63ffffffff8716028152600160a060020a03948516600482015292841660248401526044830191909152918b1660648201529051608480830192600092919082900301818387803b15801561257857600080fd5b505af115801561258c573d6000803e3d6000fd5b5050505088600160a060020a031663be0384786000198485600160a060020a031663cf9d82f26040518163ffffffff1660e060020a028152600401602060405180830381600087803b1580156125e157600080fd5b505af11580156125f5573d6000803e3d6000fd5b505050506040513d602081101561260b57600080fd5b50516040805160e060020a63ffffffff8716028152600160a060020a03948516600482015292841660248401526044830191909152918b1660648201529051608480830192600092919082900301818387803b15801561266a57600080fd5b505af115801561267e573d6000803e3d6000fd5b5050505088600160a060020a031663be0384786000198485600160a060020a031663e02023a16040518163ffffffff1660e060020a028152600401602060405180830381600087803b1580156126d357600080fd5b505af11580156126e7573d6000803e3d6000fd5b505050506040513d60208110156126fd57600080fd5b50516040805160e060020a63ffffffff8716028152600160a060020a03948516600482015292841660248401526044830191909152918b1660648201529051608480830192600092919082900301818387803b15801561275c57600080fd5b505af1158015612770573d6000803e3d6000fd5b5050505050505050505050505050565b600154604080517f2168744400000000000000000000000000000000000000000000000000000000815230600482015290516000928392600160a060020a039091169163216874449160248082019260209290919082900301818787803b1580156127ea57600080fd5b505af11580156127fe573d6000803e3d6000fd5b505050506040513d602081101561281457600080fd5b505160408051600160a060020a038316815290519193507f0b13a9ab90735191cd544fd95ba68d1385144561cbdeb8acb8035de9a86432f5919081900360200190a181600160a060020a031663de2873596040518163ffffffff1660e060020a028152600401602060405180830381600087803b15801561289457600080fd5b505af11580156128a8573d6000803e3d6000fd5b505050506040513d60208110156128be57600080fd5b50516040805160e060020a638ea8dc9d02815290519192506129419183918591600160a060020a03831691638ea8dc9d9160048083019260209291908290030181600087803b15801561291057600080fd5b505af1158015612924573d6000803e3d6000fd5b505050506040513d602081101561293a57600080fd5b5051614280565b9091565b6002546040805180820190915260208082527f54454d504c4154455f4d494e494d455f4641435f4e4f545f50524f564944454490820152600091829190600160a060020a031615156129dc5760405160e560020a62461bcd0281526004018080602001828103825283818151815260200191508051906020019080838360008381101561021e578181015183820152602001610206565b506002546040517f5b7b72c10000000000000000000000000000000000000000000000000000000081526000600482018181526024830182905260ff87166064840152600160a4840181905260c0604485019081528a5160c48601528a51600160a060020a0390961695635b7b72c19585948d948c948e9491939091608482019160e4019060208901908083838d5b83811015612a83578181015183820152602001612a6b565b50505050905090810190601f168015612ab05780820380516001836020036101000a031916815260200191505b50838103825285518152855160209182019187019080838360005b83811015612ae3578181015183820152602001612acb565b50505050905090810190601f168015612b105780820380516001836020036101000a031916815260200191505b5098505050505050505050602060405180830381600087803b158015612b3557600080fd5b505af1158015612b49573d6000803e3d6000fd5b505050506040513d6020811015612b5f57600080fd5b505160408051600160a060020a038316815290519192507fd18525bc6595a90cc21e9fbd517ada6fc07a7e87b7d2cdb6ee9284c450ebffa4919081900360200190a1949350505050565b6000806000806000612bbf89896000600161430f565b9350612bcc898989614446565b9250612bd78961446c565b9150612bfe898367ffffffffffffffff891615612bf45788612bf9565b62278d005b6144cd565b9050612c0c84848484614570565b5091979650505050505050565b6000612c5e858586600160a060020a031663e9a9c8506040518163ffffffff1660e060020a028152600401602060405180830381600087803b15801561291057600080fd5b5060005b8251811015612d095783600160a060020a03166340c10f198483815181101515612c8857fe5b90602001906020020151846040518363ffffffff1660e060020a0281526004018083600160a060020a0316600160a060020a0316815260200182815260200192505050600060405180830381600087803b158015612ce557600080fd5b505af1158015612cf9573d6000803e3d6000fd5b505060019092019150612c629050565b612d7d858586600160a060020a031663e9a9c8506040518163ffffffff1660e060020a028152600401602060405180830381600087803b158015612d4c57600080fd5b505af1158015612d60573d6000803e3d6000fd5b505050506040513d6020811015612d7657600080fd5b50516145d8565b5050505050565b3360009081526005602052604090208054600160a060020a031916600160a060020a0392909216919091179055565b3360009081526005602052604090206007810154600160a060020a031615801590612dea57506008810154600160a060020a031615155b8015612e0257506009810154600160a060020a031615155b8015612e1a5750600a810154600160a060020a031615155b8015612e325750600b810154600160a060020a031615155b6040805180820190915260108152600080516020615a7f8339815191526020820152901515612ea65760405160e560020a62461bcd0281526004018080602001828103825283818151815260200191508051906020019080838360008381101561021e578181015183820152602001610206565b5050565b33600090815260056020526040902054600160a060020a031690565b3360009081526005602081905260409091206006810154910154600160a060020a0391821692911690565b600080600088600160a060020a031663de2873596040518163ffffffff1660e060020a028152600401602060405180830381600087803b158015612f3457600080fd5b505af1158015612f48573d6000803e3d6000fd5b505050506040513d6020811015612f5e57600080fd5b50519250612f6a612ec6565b925050612f7561400f565b945050505050612fbe838283600160a060020a031663608bac056040518163ffffffff1660e060020a028152600401602060405180830381600087803b15801561291057600080fd5b80600160a060020a03166397ff256a60046000815481101515612fdd57fe5b60009182526020822001548b518b518b516040805160e060020a63ffffffff8916028152600160a060020a03909516600486015260248501939093526044840191909152620186a06064840152608483015260a482018a905260c482018990525160e4808301939282900301818387803b15801561305a57600080fd5b505af115801561306e573d6000803e3d6000fd5b5050505080600160a060020a03166397ff256a6004600181548110151561309157fe5b60009182526020808320909101548c8201518c830151928c01516040805160e060020a63ffffffff8916028152600160a060020a039094166004850152602484019290925260448301939093526127106064830152608482019290925260a4810183905260c48101839052905160e4808301939282900301818387803b15801561311a57600080fd5b505af115801561312e573d6000803e3d6000fd5b505050506131a883828484600160a060020a031663608bac056040518163ffffffff1660e060020a028152600401602060405180830381600087803b15801561317657600080fd5b505af115801561318a573d6000803e3d6000fd5b505050506040513d60208110156131a057600080fd5b5051866146b6565b505050505050505050565b600083600160a060020a031663a479e5086040518163ffffffff1660e060020a028152600401602060405180830381600087803b1580156131f357600080fd5b505af1158015613207573d6000803e3d6000fd5b505050506040513d602081101561321d57600080fd5b5051604080517fbd8fde1c0000000000000000000000000000000000000000000000000000000081529051919250600160a060020a038087169263be03847892879286929083169163bd8fde1c9160048083019260209291908290030181600087803b15801561328c57600080fd5b505af11580156132a0573d6000803e3d6000fd5b505050506040513d60208110156132b657600080fd5b50516040805160e060020a63ffffffff8716028152600160a060020a0394851660048201529284166024840152604483019190915291861660648201529051608480830192600092919082900301818387803b15801561331557600080fd5b505af1158015613329573d6000803e3d6000fd5b5050505083600160a060020a031663be038478848384600160a060020a03166319f3d10f6040518163ffffffff1660e060020a028152600401602060405180830381600087803b15801561337c57600080fd5b505af1158015613390573d6000803e3d6000fd5b505050506040513d60208110156133a657600080fd5b50516040805160e060020a63ffffffff8716028152600160a060020a0394851660048201529284166024840152604483019190915291861660648201529051608480830192600092919082900301818387803b15801561340557600080fd5b505af1158015613419573d6000803e3d6000fd5b5050505050505050565b600083600160a060020a031663de2873596040518163ffffffff1660e060020a028152600401602060405180830381600087803b15801561346357600080fd5b505af1158015613477573d6000803e3d6000fd5b505050506040513d602081101561348d57600080fd5b50516040805160e060020a638ea8dc9d02815290519192506134e291839187918791600160a060020a03841691638ea8dc9d916004808201926020929091908290030181600087803b15801561317657600080fd5b61352681828584600160a060020a0316633d6ab68f6040518163ffffffff1660e060020a028152600401602060405180830381600087803b15801561317657600080fd5b60408051600160a060020a038616815290517f17592627a66846ce06d92a1708275bc653b2a3f34aec855584b819872a8ba4139181900360200190a150505050565b60035460408051808201909152601f81527f54454d504c4154455f415241474f4e5f49445f4e4f545f50524f564944454400602082015290600160a060020a031615156135fa5760405160e560020a62461bcd0281526004018080602001828103825283818151815260200191508051906020019080838360008381101561021e578181015183820152602001610206565b506003546040518351600160a060020a039092169163d22057a99185916020918201918291908401908083835b602083106136465780518252601f199092019160209182019101613627565b6001836020036101000a0380198251168184511680821785525050505050509050019150506040516020818303038152906040526040518082805190602001908083835b602083106136a95780518252601f19909201916020918201910161368a565b5181516020939093036101000a60001901801990911692169190911790526040805191909301819003812063ffffffff871660e060020a0282526004820152600160a060020a0388166024820152915160448084019550600094509092839003019050818387803b15801561371d57600080fd5b505af1158015613731573d6000803e3d6000fd5b505050505050565b3360009081526005602081905260409091208054600160a060020a031990811682556001820180548216905560028201805482169055600382018054821690556004820180548216905591810180548316905560068101805483169055600781018054831690556008810180548316905560098101805483169055600a8101805483169055600b0180549091169055565b3360009081526005602052604090206001810154600160a060020a03161580159061380157506002810154600160a060020a031615155b801561381957506003810154600160a060020a031615155b8015612e32575060048101546040805180820190915260108152600080516020615a7f833981519152602082015290600160a060020a03161515612ea65760405160e560020a62461bcd0281526004018080602001828103825283818151815260200191508051906020019080838360008381101561021e578181015183820152602001610206565b6000806138b385856001600061430f565b91506138c0858585614446565b9050612d7d8282614825565b60008060008060008086600160a060020a031663de2873596040518163ffffffff1660e060020a028152600401602060405180830381600087803b15801561391357600080fd5b505af1158015613927573d6000803e3d6000fd5b505050506040513d602081101561393d57600080fd5b50519550613949613fd4565b9450945094509450613959612ec6565b91505061396886868684614867565b6139758685868885614a2f565b61398186848484614ce7565b61398d86838684614d36565b61069686838684614e75565b3360009081526005602052604090206006810154600160a060020a031615801590612e32575060058101546040805180820190915260108152600080516020615a7f833981519152602082015290600160a060020a03161515612ea65760405160e560020a62461bcd0281526004018080602001828103825283818151815260200191508051906020019080838360008381101561021e578181015183820152602001610206565b613a4a8c614ec4565b613a5a8b8b8b8b8b8b8b8b614f94565b613a63836150a1565b613a6e8383836151b8565b610370615263565b600080600080600080606087600160a060020a031663de2873596040518163ffffffff1660e060020a028152600401602060405180830381600087803b158015613abf57600080fd5b505af1158015613ad3573d6000803e3d6000fd5b505050506040513d6020811015613ae957600080fd5b50519650613af5613fd4565b5050509550613b02612ec6565b94509450613b0e61400f565b505060408051600280825260608201835293975091955090925060208301908038833901905050905081816000815181101515613b4757fe5b600160a060020a039092166020928302909101909101528051839082906001908110613b6f57fe5b90602001906020020190600160a060020a03169081600160a060020a03168152505086600160a060020a031663be038478838788600160a060020a031663e9a9c8506040518163ffffffff1660e060020a028152600401602060405180830381600087803b158015613be057600080fd5b505af1158015613bf4573d6000803e3d6000fd5b505050506040513d6020811015613c0a57600080fd5b50516040805160e060020a63ffffffff8716028152600160a060020a0394851660048201529284166024840152604483019190915291881660648201529051608480830192600092919082900301818387803b158015613c6957600080fd5b505af1158015613c7d573d6000803e3d6000fd5b5050505086600160a060020a031663be038478848788600160a060020a031663856222f16040518163ffffffff1660e060020a028152600401602060405180830381600087803b158015613cd057600080fd5b505af1158015613ce4573d6000803e3d6000fd5b505050506040513d6020811015613cfa57600080fd5b50516040805160e060020a63ffffffff8716028152600160a060020a0394851660048201529284166024840152604483019190915291881660648201529051608480830192600092919082900301818387803b158015613d5957600080fd5b505af1158015613d6d573d6000803e3d6000fd5b5050505086600160a060020a031663be038478848788600160a060020a031663a51d9a8e6040518163ffffffff1660e060020a028152600401602060405180830381600087803b158015613dc057600080fd5b505af1158015613dd4573d6000803e3d6000fd5b505050506040513d6020811015613dea57600080fd5b50516040805160e060020a63ffffffff8716028152600160a060020a0394851660048201529284166024840152604483019190915291881660648201529051608480830192600092919082900301818387803b158015613e4957600080fd5b505af1158015613e5d573d6000803e3d6000fd5b5050505086600160a060020a031663be038478848788600160a060020a031663edc168f16040518163ffffffff1660e060020a028152600401602060405180830381600087803b158015613eb057600080fd5b505af1158015613ec4573d6000803e3d6000fd5b505050506040513d6020811015613eda57600080fd5b50516040805160e060020a63ffffffff8716028152600160a060020a0394851660048201529284166024840152604483019190915291881660648201529051608480830192600092919082900301818387803b158015613f3957600080fd5b505af1158015613f4d573d6000803e3d6000fd5b50505050613fc787828788600160a060020a031663b930908f6040518163ffffffff1660e060020a028152600401602060405180830381600087803b158015613f9557600080fd5b505af1158015613fa9573d6000803e3d6000fd5b505050506040513d6020811015613fbf57600080fd5b505188614055565b6134198785868988614a2f565b336000908152600560205260409020600181015460028201546003830154600490930154600160a060020a0392831694918316938316921690565b336000908152600560205260409020600781015460088201546009830154600a840154600b90940154600160a060020a0393841695928416949184169391821692911690565b600085600160a060020a031663be03847886600081518110151561407557fe5b602090810290910101516040805160e060020a63ffffffff8516028152600160a060020a03928316600482015291881660248301526044820187905230606483015251608480830192600092919082900301818387803b1580156140d857600080fd5b505af11580156140ec573d6000803e3d6000fd5b50505050600190505b845181101561419c5785600160a060020a0316630a8ed3db868381518110151561411b57fe5b602090810290910101516040805160e060020a63ffffffff8516028152600160a060020a03928316600482015291881660248301526044820187905251606480830192600092919082900301818387803b15801561417857600080fd5b505af115801561418c573d6000803e3d6000fd5b5050600190920191506140f59050565b6040805160e060020a639d0effdb028152306004820152600160a060020a03868116602483015260448201869052915191881691639d0effdb9160648082019260009290919082900301818387803b1580156141f757600080fd5b505af115801561420b573d6000803e3d6000fd5b50506040805160e060020a63afd925df028152600160a060020a0386811660048301528881166024830152604482018890529151918a16935063afd925df925060648082019260009290919082900301818387803b15801561426c57600080fd5b505af11580156105af573d6000803e3d6000fd5b604080517fbe0384780000000000000000000000000000000000000000000000000000000081523060048201819052600160a060020a03858116602484015260448301859052606483019190915291519185169163be0384789160848082019260009290919082900301818387803b1580156142fb57600080fd5b505af1158015610696573d6000803e3d6000fd5b60008061433c867f6b20a3010614eeebf2138ccec99f028a61c811b3b1a3343b6ff635985c75c91f6153b1565b905084600160a060020a0316633cebb823826040518263ffffffff1660e060020a0281526004018082600160a060020a0316600160a060020a03168152602001915050600060405180830381600087803b15801561439957600080fd5b505af11580156143ad573d6000803e3d6000fd5b5050604080517fe37ff29f000000000000000000000000000000000000000000000000000000008152600160a060020a0389811660048301528815156024830152604482018890529151918516935063e37ff29f925060648082019260009290919082900301818387803b15801561442457600080fd5b505af1158015614438573d6000803e3d6000fd5b509298975050505050505050565b805160208201516040830151600092614464928792879291906153ce565b949350505050565b604080516004815260248101909152602081018051600160e060020a031660e260020a63204a7f07021790526000906144c6837f7e852e0fcfce6551c13800f1e7476f982525c2b5277ba14b24339c68416336d183615483565b9392505050565b60408051600160a060020a038416602482015267ffffffffffffffff8316604480830191909152825180830390910181526064909101909152602081018051600160e060020a03167f1798de8100000000000000000000000000000000000000000000000000000000179052600090614567857fbf8491150dafc5dcaee5b861414dca922de09ccffa344964ae167212e8c673ae83615492565b95945050505050565b336000908152600560205260409020600181018054600160a060020a03968716600160a060020a031991821617909155600282018054958716958216959095179094556003810180549386169385169390931790925560049091018054919093169116179055565b6040805160e060020a639d0effdb028152306004820152600160a060020a03848116602483015260448201849052915191851691639d0effdb9160648082019260009290919082900301818387803b15801561463357600080fd5b505af1158015614647573d6000803e3d6000fd5b5050604080517fa885508a000000000000000000000000000000000000000000000000000000008152600160a060020a038681166004830152602482018690529151918716935063a885508a925060448082019260009290919082900301818387803b1580156142fb57600080fd5b604080517f0a8ed3db000000000000000000000000000000000000000000000000000000008152600160a060020a038581166004830152868116602483015260448201859052915191871691630a8ed3db9160648082019260009290919082900301818387803b15801561472957600080fd5b505af115801561473d573d6000803e3d6000fd5b50506040805160e060020a639d0effdb028152306004820152600160a060020a0388811660248301526044820187905291519189169350639d0effdb925060648082019260009290919082900301818387803b15801561479c57600080fd5b505af11580156147b0573d6000803e3d6000fd5b50506040805160e060020a63afd925df028152600160a060020a0385811660048301528881166024830152604482018790529151918916935063afd925df925060648082019260009290919082900301818387803b15801561481157600080fd5b505af11580156131a8573d6000803e3d6000fd5b336000908152600560208190526040909120600681018054600160a060020a03958616600160a060020a03199182161790915591018054929093169116179055565b83600160a060020a031663be038478838586600160a060020a031663e9a9c8506040518163ffffffff1660e060020a028152600401602060405180830381600087803b1580156148b657600080fd5b505af11580156148ca573d6000803e3d6000fd5b505050506040513d60208110156148e057600080fd5b50516040805160e060020a63ffffffff8716028152600160a060020a0394851660048201529284166024840152604483019190915291851660648201529051608480830192600092919082900301818387803b15801561493f57600080fd5b505af1158015614953573d6000803e3d6000fd5b5050505083600160a060020a031663be038478838586600160a060020a031663b930908f6040518163ffffffff1660e060020a028152600401602060405180830381600087803b1580156149a657600080fd5b505af11580156149ba573d6000803e3d6000fd5b505050506040513d60208110156149d057600080fd5b50516040805160e060020a63ffffffff8716028152600160a060020a0394851660048201529284166024840152604483019190915291851660648201529051608480830192600092919082900301818387803b15801561340557600080fd5b84600160a060020a031663be038478848687600160a060020a0316633c624c756040518163ffffffff1660e060020a028152600401602060405180830381600087803b158015614a7e57600080fd5b505af1158015614a92573d6000803e3d6000fd5b505050506040513d6020811015614aa857600080fd5b50516040805160e060020a63ffffffff8716028152600160a060020a0394851660048201529284166024840152604483019190915291851660648201529051608480830192600092919082900301818387803b158015614b0757600080fd5b505af1158015614b1b573d6000803e3d6000fd5b5050505084600160a060020a031663be038478848687600160a060020a03166362de7e5a6040518163ffffffff1660e060020a028152600401602060405180830381600087803b158015614b6e57600080fd5b505af1158015614b82573d6000803e3d6000fd5b505050506040513d6020811015614b9857600080fd5b50516040805160e060020a63ffffffff8716028152600160a060020a0394851660048201529284166024840152604483019190915291851660648201529051608480830192600092919082900301818387803b158015614bf757600080fd5b505af1158015614c0b573d6000803e3d6000fd5b5050505084600160a060020a031663be038478838687600160a060020a031663be2c64d46040518163ffffffff1660e060020a028152600401602060405180830381600087803b158015614c5e57600080fd5b505af1158015614c72573d6000803e3d6000fd5b505050506040513d6020811015614c8857600080fd5b50516040805160e060020a63ffffffff8716028152600160a060020a0394851660048201529284166024840152604483019190915291851660648201529051608480830192600092919082900301818387803b15801561481157600080fd5b83600160a060020a031663be038478838586600160a060020a031663206b60f96040518163ffffffff1660e060020a028152600401602060405180830381600087803b1580156149a657600080fd5b83600160a060020a031663be038478838586600160a060020a031663981cc3426040518163ffffffff1660e060020a028152600401602060405180830381600087803b158015614d8557600080fd5b505af1158015614d99573d6000803e3d6000fd5b505050506040513d6020811015614daf57600080fd5b50516040805160e060020a63ffffffff8716028152600160a060020a0394851660048201529284166024840152604483019190915291851660648201529051608480830192600092919082900301818387803b158015614e0e57600080fd5b505af1158015614e22573d6000803e3d6000fd5b5050505083600160a060020a031663be038478838586600160a060020a031663e94ebac56040518163ffffffff1660e060020a028152600401602060405180830381600087803b1580156149a657600080fd5b83600160a060020a031663be038478838586600160a060020a0316630842ace46040518163ffffffff1660e060020a028152600401602060405180830381600087803b1580156149a657600080fd5b6000806000806000614ed5866154a1565b9450614f01867f5de9bbdeaf6584c220c7b7f1922383bcd8bbcd4b48832080afd9d5ebf9a04df56154fb565b9350614f2d867fc2bb88ab974c474221f15f691ed9da38be2f5d37364180cec05403c656981bf06154fb565b9250614f59867f82967efab7144b764bc9bca2f31a721269b6618c0ff4e50545737700a5e9c9dc6154fb565b9150614f85867f5fc8fca88a696fa79cf16460ed65d5ab1181e24a79c34c66848b71051ed65ea66154fb565b905061373185858585856155de565b614f9c615658565b600160a060020a031663b472fc81614fb2615677565b614fba615696565b614fc26156b5565b614fca6156d4565b600480546000908110614fd957fe5b60009182526020822001546040805160e060020a63ffffffff8a16028152600160a060020a0397881660048201529587166024870152938616604486015291851660648501529316608483015260a482018d905267ffffffffffffffff808d1660c484015260e483018c9052808b16610104840152808a16610124840152610144830189905261016483018890528616610184830152516101a4808301939282900301818387803b15801561508d57600080fd5b505af1158015610370573d6000803e3d6000fd5b600080808080806150d17fd71dde5e4bea1928026c1779bde7ed27bd7ef3d0ce9802e4117631eb6fa4ed7d6156f3565b95506150db613fd4565b50965050506150e8612ec6565b5093506150f361400f565b604080517f7403c6cd000000000000000000000000000000000000000000000000000000008152600160a060020a0380841660048301528b811660248301528d8116604483015280881660648301528c8116608483015260a482018f9052600060c4830181905260e483018190529251979a5094985091965092871694637403c6cd9450610104808301949350909182900301818387803b15801561519757600080fd5b505af11580156151ab573d6000803e3d6000fd5b5050505050505050505050565b6000806000806151c6613fd4565b50955050506151d361400f565b604080517f728cdbca000000000000000000000000000000000000000000000000000000008152600160a060020a03808416600483015280881660248301528b81166044830152606482018f9052608482018e905260a482018d9052915196995092975090955086169363728cdbca935060c4808301935060009282900301818387803b15801561519757600080fd5b6000806000806000606061527561400f565b604080516001808252818301909252959b509399509197509550935060208083019080388339019050509050600460008154811015156152b157fe5b60009182526020822001548251600160a060020a0390911691839181106152d457fe5b600160a060020a0392831660209182029092018101919091526040517ff8453e7c0000000000000000000000000000000000000000000000000000000081528783166004820190815287841660248301528984166044830152868416606483015260a060848301908152855160a484015285519487169463f8453e7c948b948b948e948c948b949293919260c490920191858101910280838360005b83811015615388578181015183820152602001615370565b505050509050019650505050505050600060405180830381600087803b15801561426c57600080fd5b604080516000808252602082019092526144c69084908490615492565b60408051600160a060020a038616602482015267ffffffffffffffff8086166044830152808516606483015283166084808301919091528251808303909101815260a4909101909152602081018051600160e060020a03167fdf3d330500000000000000000000000000000000000000000000000000000000179052600090615478877f9fa3927f639745e587912d4b0fea7ef9013bf93fb907d29faeab57417ba6e1d483615492565b979650505050505050565b60006144648484846001615911565b60006144648484846000615911565b604080516004815260248101909152602081018051600160e060020a031660e260020a63204a7f07021790526000906144c6837f9ac98dc5f995bf0211ed589ef022719d1487e5cb2bab505676f0d084c07cf89a83615492565b60008083600160a060020a03166380cd5ac384615517866156f3565b6040805160e060020a63ffffffff86160281526004810193909352600160a060020a0390911660248301525160448083019260209291908290030181600087803b15801561556457600080fd5b505af1158015615578573d6000803e3d6000fd5b505050506040513d602081101561558e57600080fd5b505160408051600160a060020a03831681526020810186905281519293507f2b183a501d4b1bbd30e6611ebac40ab18a00390e6c6bed324bf92a265c9ce6e3929081900390910190a19392505050565b336000908152600560205260409020600781018054600160a060020a0319908116600160a060020a0398891617909155600882018054821696881696909617909555600981018054861694871694909417909355600a83018054851692861692909217909155600b90910180549092169216919091179055565b33600090815260056020526040902060080154600160a060020a031690565b336000908152600560205260409020600b0154600160a060020a031690565b33600090815260056020526040902060060154600160a060020a031690565b33600090815260056020526040902060070154600160a060020a031690565b33600090815260056020526040902060030154600160a060020a031690565b60008054604080517f0178b8bf0000000000000000000000000000000000000000000000000000000081526004810185905290518392600160a060020a031691630178b8bf91602480830192602092919082900301818787803b15801561575957600080fd5b505af115801561576d573d6000803e3d6000fd5b505050506040513d602081101561578357600080fd5b5051604080517f3b3b57de000000000000000000000000000000000000000000000000000000008152600481018690529051600160a060020a0390921691633b3b57de916024808201926020929091908290030181600087803b1580156157e957600080fd5b505af11580156157fd573d6000803e3d6000fd5b505050506040513d602081101561581357600080fd5b5051604080517fc36af4600000000000000000000000000000000000000000000000000000000081529051919250600160a060020a0383169163c36af4609160048082019260009290919082900301818387803b15801561587357600080fd5b505af1158015615887573d6000803e3d6000fd5b505050506040513d6000823e601f3d908101601f1916820160405260a08110156158b057600080fd5b606082015160808301805191928401918491906401000000008111156158d557600080fd5b820160208101848111156158e857600080fd5b815164010000000081118282018710171561590257600080fd5b50949998505050505050505050565b600080600061591f866156f3565b6040517f397edd4100000000000000000000000000000000000000000000000000000000815260048101888152600160a060020a0380841660248401528715156064840152608060448401908152895160848501528951949650908b169363397edd41938b9388938c938c9360a40190602086019080838360005b838110156159b257818101518382015260200161599a565b50505050905090810190601f1680156159df5780820380516001836020036101000a031916815260200191505b5095505050505050602060405180830381600087803b158015615a0157600080fd5b505af1158015615a15573d6000803e3d6000fd5b505050506040513d6020811015615a2b57600080fd5b505160408051600160a060020a03831681526020810189905281519293507f2b183a501d4b1bbd30e6611ebac40ab18a00390e6c6bed324bf92a265c9ce6e3929081900390910190a196955050505050505600464d5f4d495353494e475f434143484500000000000000000000000000000000464d5f4241445f53455454494e47530000000000000000000000000000000000a165627a7a72305820bd003e9512691a462e0a1dab5666744cd3e4dd934839fc43cdbf76003925953a0029",
  "source": "pragma solidity 0.4.24;\n\nimport \"@aragon/os/contracts/common/EtherTokenConstant.sol\";\nimport \"@aragon/templates-shared/contracts/BaseTemplate.sol\";\nimport \"@aragon/apps-agent/contracts/Agent.sol\";\nimport \"@ablack/fundraising-bancor-formula/contracts/BancorFormula.sol\";\nimport {AragonFundraisingController as Controller} from \"@ablack/fundraising-aragon-fundraising/contracts/AragonFundraisingController.sol\";\nimport {BatchedBancorMarketMaker as MarketMaker} from \"@ablack/fundraising-batched-bancor-market-maker/contracts/BatchedBancorMarketMaker.sol\";\nimport \"@ablack/fundraising-presale/contracts/Presale.sol\";\nimport \"@ablack/fundraising-tap/contracts/Tap.sol\";\n\n\ncontract FundraisingMultisigTemplate is EtherTokenConstant, BaseTemplate {\n    string    private constant ERROR_BAD_SETTINGS     = \"FM_BAD_SETTINGS\";\n    string    private constant ERROR_MISSING_CACHE    = \"FM_MISSING_CACHE\";\n\n    bool      private constant BOARD_TRANSFERABLE     = false;\n    uint8     private constant BOARD_TOKEN_DECIMALS   = uint8(0);\n    uint256   private constant BOARD_MAX_PER_ACCOUNT  = uint256(1);\n\n    bool      private constant SHARE_TRANSFERABLE     = true;\n    uint8     private constant SHARE_TOKEN_DECIMALS   = uint8(18);\n    uint256   private constant SHARE_MAX_PER_ACCOUNT  = uint256(0);\n\n    uint64    private constant DEFAULT_FINANCE_PERIOD = uint64(30 days);\n\n    uint256   private constant BUY_FEE_PCT            = 0;\n    uint256   private constant SELL_FEE_PCT           = 0;\n\n    uint32    private constant DAI_RESERVE_RATIO      = 100000; // 10%\n    uint32    private constant ANT_RESERVE_RATIO      = 10000;  // 1%\n\n    bytes32   private constant BANCOR_FORMULA_ID      = 0xd71dde5e4bea1928026c1779bde7ed27bd7ef3d0ce9802e4117631eb6fa4ed7d;\n    bytes32   private constant PRESALE_ID             = 0x5de9bbdeaf6584c220c7b7f1922383bcd8bbcd4b48832080afd9d5ebf9a04df5;\n    bytes32   private constant MARKET_MAKER_ID        = 0xc2bb88ab974c474221f15f691ed9da38be2f5d37364180cec05403c656981bf0;\n    // eth-ens-namehash(config.fundraisingName)\n    bytes32   private constant ARAGON_FUNDRAISING_ID  = 0x5fc8fca88a696fa79cf16460ed65d5ab1181e24a79c34c66848b71051ed65ea6;\n    bytes32   private constant TAP_ID                 = 0x82967efab7144b764bc9bca2f31a721269b6618c0ff4e50545737700a5e9c9dc;\n\n    struct Cache {\n        address dao;\n        address boardTokenManager;\n        address boardVoting;\n        address vault;\n        address finance;\n        address shareVoting;\n        address shareTokenManager;\n        address reserve;\n        address presale;\n        address marketMaker;\n        address tap;\n        address controller;\n    }\n\n    address[] public collaterals;\n    mapping (address => Cache) private cache;\n\n    constructor(\n        DAOFactory              _daoFactory,\n        ENS                     _ens,\n        MiniMeTokenFactory      _miniMeFactory,\n        IFIFSResolvingRegistrar _aragonID,\n        address                 _dai,\n        address                 _ant\n    )\n        BaseTemplate(_daoFactory, _ens, _miniMeFactory, _aragonID)\n        public\n    {\n        _ensureAragonIdIsValid(_aragonID);\n        _ensureMiniMeFactoryIsValid(_miniMeFactory);\n        require(isContract(_dai), ERROR_BAD_SETTINGS);\n        require(isContract(_ant), ERROR_BAD_SETTINGS);\n        require(_dai != _ant,     ERROR_BAD_SETTINGS);\n\n        collaterals.push(_dai);\n        collaterals.push(_ant);\n    }\n\n    /***** external functions *****/\n\n    function prepareInstance(\n        string    _boardTokenName,\n        string    _boardTokenSymbol,\n        address[] _boardMembers,\n        uint64[3] _boardVotingSettings,\n        uint64    _financePeriod\n    )\n        external\n    {\n        require(_boardMembers.length > 0,         ERROR_BAD_SETTINGS);\n        require(_boardVotingSettings.length == 3, ERROR_BAD_SETTINGS);\n\n        // deploy DAO\n        (Kernel dao, ACL acl) = _createDAO();\n        // deploy board token\n        MiniMeToken boardToken = _createToken(_boardTokenName, _boardTokenSymbol, BOARD_TOKEN_DECIMALS);\n        // install board apps\n        TokenManager tm = _installBoardApps(dao, boardToken, _boardVotingSettings, _financePeriod);\n        // mint board tokens\n        _mintTokens(acl, tm, _boardMembers, 1);\n        // cache DAO\n        _cacheDao(dao);\n    }\n\n    function installShareApps(\n        string    _shareTokenName,\n        string    _shareTokenSymbol,\n        uint64[3] _shareVotingSettings\n    )\n        external\n    {\n        require(_shareVotingSettings.length == 3, ERROR_BAD_SETTINGS);\n        _ensureBoardAppsCache();\n\n        Kernel dao = _daoCache();\n        // deploy share token\n        MiniMeToken shareToken = _createToken(_shareTokenName, _shareTokenSymbol, SHARE_TOKEN_DECIMALS);\n        // install share apps\n        _installShareApps(dao, shareToken, _shareVotingSettings);\n        // setup board apps permissions [now that share apps have been installed]\n        _setupBoardPermissions(dao);\n    }\n\n    function installFundraisingApps(\n        uint256 _goal,\n        uint64  _period,\n        uint256 _exchangeRate,\n        uint64  _vestingCliffPeriod,\n        uint64  _vestingCompletePeriod,\n        uint256 _supplyOfferedPct,\n        uint256 _fundingForBeneficiaryPct,\n        uint64  _openDate,\n        uint256 _batchBlocks,\n        uint256 _maxTapRateIncreasePct,\n        uint256 _maxTapFloorDecreasePct\n    )\n        external\n    {\n        _ensureShareAppsCache();\n\n        Kernel dao = _daoCache();\n        // install fundraising apps\n        _installFundraisingApps(\n            dao,\n            _goal,\n            _period,\n            _exchangeRate,\n            _vestingCliffPeriod,\n            _vestingCompletePeriod,\n            _supplyOfferedPct,\n            _fundingForBeneficiaryPct,\n            _openDate,\n            _batchBlocks,\n            _maxTapRateIncreasePct,\n            _maxTapFloorDecreasePct\n        );\n        // setup share apps permissions [now that fundraising apps have been installed]\n        _setupSharePermissions(dao);\n    }\n\n    function setupFundraisingPermissions() external {\n        _ensureFundraisingAppsCache();\n\n        // setup fundraising apps permissions\n        Kernel _dao = _daoCache();\n        ACL acl = ACL(_dao.acl());\n\n        (, Voting boardVoting,,) = _boardAppsCache();\n        (, Voting shareVoting) = _shareAppsCache();\n        (Agent reserve, Presale presale, MarketMaker marketMaker, Tap tap, Controller controller) = _fundraisingAppsCache();\n\n        // reserve\n        address[] memory grantees = new address[](2);\n        grantees[0] = address(tap);\n        grantees[1] = address(marketMaker);\n        acl.createPermission(shareVoting, reserve, reserve.SAFE_EXECUTE_ROLE(), shareVoting);\n        acl.createPermission(controller, reserve, reserve.ADD_PROTECTED_TOKEN_ROLE(), shareVoting);\n        _createPermissions(acl, grantees, reserve, reserve.TRANSFER_ROLE(), shareVoting);\n        // presale\n        acl.createPermission(controller, presale, presale.OPEN_ROLE(), shareVoting);\n        acl.createPermission(controller, presale, presale.CONTRIBUTE_ROLE(), shareVoting);\n        // market maker\n        acl.createPermission(controller, marketMaker, marketMaker.OPEN_ROLE(), shareVoting);\n        acl.createPermission(controller, marketMaker, marketMaker.UPDATE_BENEFICIARY_ROLE(), shareVoting);\n        acl.createPermission(controller, marketMaker, marketMaker.UPDATE_FEES_ROLE(), shareVoting);\n        acl.createPermission(controller, marketMaker, marketMaker.ADD_COLLATERAL_TOKEN_ROLE(), shareVoting);\n        acl.createPermission(controller, marketMaker, marketMaker.REMOVE_COLLATERAL_TOKEN_ROLE(), shareVoting);\n        acl.createPermission(controller, marketMaker, marketMaker.UPDATE_COLLATERAL_TOKEN_ROLE(), shareVoting);\n        acl.createPermission(controller, marketMaker, marketMaker.OPEN_BUY_ORDER_ROLE(), shareVoting);\n        acl.createPermission(controller, marketMaker, marketMaker.OPEN_SELL_ORDER_ROLE(), shareVoting);\n        // tap\n        acl.createPermission(controller, tap, tap.UPDATE_BENEFICIARY_ROLE(), shareVoting);\n        acl.createPermission(controller, tap, tap.UPDATE_MAXIMUM_TAP_RATE_INCREASE_PCT_ROLE(), shareVoting);\n        acl.createPermission(controller, tap, tap.UPDATE_MAXIMUM_TAP_FLOOR_DECREASE_PCT_ROLE(), shareVoting);\n        acl.createPermission(controller, tap, tap.ADD_TAPPED_TOKEN_ROLE(), shareVoting);\n        acl.createPermission(controller, tap, tap.UPDATE_TAPPED_TOKEN_ROLE(), shareVoting);\n        acl.createPermission(controller, tap, tap.RESET_TAPPED_TOKEN_ROLE(), shareVoting);\n        acl.createPermission(controller, tap, tap.WITHDRAW_ROLE(), shareVoting);\n        // controller\n        // ADD_COLLATERAL_TOKEN_ROLE is handled later [after collaterals have been added]\n        acl.createPermission(shareVoting, controller, controller.UPDATE_BENEFICIARY_ROLE(), shareVoting);\n        acl.createPermission(shareVoting, controller, controller.UPDATE_FEES_ROLE(), shareVoting);\n        // acl.createPermission(shareVoting, controller, controller.ADD_COLLATERAL_TOKEN_ROLE(), shareVoting);\n        acl.createPermission(shareVoting, controller, controller.REMOVE_COLLATERAL_TOKEN_ROLE(), shareVoting);\n        acl.createPermission(shareVoting, controller, controller.UPDATE_COLLATERAL_TOKEN_ROLE(), shareVoting);\n        acl.createPermission(shareVoting, controller, controller.UPDATE_MAXIMUM_TAP_RATE_INCREASE_PCT_ROLE(), shareVoting);\n        acl.createPermission(shareVoting, controller, controller.UPDATE_MAXIMUM_TAP_FLOOR_DECREASE_PCT_ROLE(), shareVoting);\n        acl.createPermission(shareVoting, controller, controller.ADD_TOKEN_TAP_ROLE(), shareVoting);\n        acl.createPermission(shareVoting, controller, controller.UPDATE_TOKEN_TAP_ROLE(), shareVoting);\n        acl.createPermission(boardVoting, controller, controller.OPEN_PRESALE_ROLE(), shareVoting);\n        acl.createPermission(presale, controller, controller.OPEN_TRADING_ROLE(), shareVoting);\n        acl.createPermission(address(-1), controller, controller.CONTRIBUTE_ROLE(), shareVoting);\n        acl.createPermission(address(-1), controller, controller.OPEN_BUY_ORDER_ROLE(), shareVoting);\n        acl.createPermission(address(-1), controller, controller.OPEN_SELL_ORDER_ROLE(), shareVoting);\n        acl.createPermission(address(-1), controller, controller.WITHDRAW_ROLE(), shareVoting);\n    }\n\n    function finalizeInstance(\n        string     _id,\n        uint256[2] _virtualSupplies,\n        uint256[2] _virtualBalances,\n        uint256[2] _slippages,\n        uint256    _rateDAI,\n        uint256    _floorDAI\n    )\n        external\n    {\n        require(bytes(_id).length > 0,        ERROR_BAD_SETTINGS);\n        require(_virtualSupplies.length == 2, ERROR_BAD_SETTINGS);\n        require(_virtualBalances.length == 2, ERROR_BAD_SETTINGS);\n        require(_slippages.length == 2,       ERROR_BAD_SETTINGS);\n        _ensureFundraisingAppsCache();\n\n        Kernel dao = _daoCache();\n        ACL acl = ACL(dao.acl());\n        (, Voting shareVoting) = _shareAppsCache();\n\n        // setup collaterals\n        _setupCollaterals(dao, _virtualSupplies, _virtualBalances, _slippages, _rateDAI, _floorDAI);\n        // setup EVM script registry permissions\n        _createEvmScriptsRegistryPermissions(acl, shareVoting, shareVoting);\n        // clear DAO permissions\n        _transferRootPermissionsFromTemplateAndFinalizeDAO(dao, shareVoting, shareVoting);\n        // register id\n        _registerID(_id, address(dao));\n        // clear cache\n        _clearCache();\n    }\n\n    /***** internal apps installation functions *****/\n\n    function _installBoardApps(Kernel _dao, MiniMeToken _token, uint64[3] _votingSettings, uint64 _financePeriod)\n        internal\n        returns (TokenManager)\n    {\n        TokenManager tm = _installTokenManagerApp(_dao, _token, BOARD_TRANSFERABLE, BOARD_MAX_PER_ACCOUNT);\n        Voting voting = _installVotingApp(_dao, _token, _votingSettings);\n        Vault vault = _installVaultApp(_dao);\n        Finance finance = _installFinanceApp(_dao, vault, _financePeriod == 0 ? DEFAULT_FINANCE_PERIOD : _financePeriod);\n\n        _cacheBoardApps(tm, voting, vault, finance);\n\n        return tm;\n    }\n\n    function _installShareApps(Kernel _dao, MiniMeToken _shareToken, uint64[3] _shareVotingSettings)\n        internal\n    {\n        TokenManager tm = _installTokenManagerApp(_dao, _shareToken, SHARE_TRANSFERABLE, SHARE_MAX_PER_ACCOUNT);\n        Voting voting = _installVotingApp(_dao, _shareToken, _shareVotingSettings);\n\n        _cacheShareApps(tm, voting);\n    }\n\n    function _installFundraisingApps(\n        Kernel  _dao,\n        uint256 _goal,\n        uint64  _period,\n        uint256 _exchangeRate,\n        uint64  _vestingCliffPeriod,\n        uint64  _vestingCompletePeriod,\n        uint256 _supplyOfferedPct,\n        uint256 _fundingForBeneficiaryPct,\n        uint64  _openDate,\n        uint256 _batchBlocks,\n        uint256 _maxTapRateIncreasePct,\n        uint256 _maxTapFloorDecreasePct\n    )\n        internal\n    {\n        _proxifyFundraisingApps(_dao);\n\n        _initializePresale(\n            _goal,\n            _period,\n            _exchangeRate,\n            _vestingCliffPeriod,\n            _vestingCompletePeriod,\n            _supplyOfferedPct,\n            _fundingForBeneficiaryPct,\n            _openDate\n        );\n        _initializeMarketMaker(_batchBlocks);\n        _initializeTap(_batchBlocks, _maxTapRateIncreasePct, _maxTapFloorDecreasePct);\n        _initializeController();\n    }\n\n    function _proxifyFundraisingApps(Kernel _dao) internal {\n        Agent reserve = _installNonDefaultAgentApp(_dao);\n        Presale presale = Presale(_registerApp(_dao, PRESALE_ID));\n        MarketMaker marketMaker = MarketMaker(_registerApp(_dao, MARKET_MAKER_ID));\n        Tap tap = Tap(_registerApp(_dao, TAP_ID));\n        Controller controller = Controller(_registerApp(_dao, ARAGON_FUNDRAISING_ID));\n\n        _cacheFundraisingApps(reserve, presale, marketMaker, tap, controller);\n    }\n\n    /***** internal apps initialization functions *****/\n\n    function _initializePresale(\n        uint256 _goal,\n        uint64  _period,\n        uint256 _exchangeRate,\n        uint64  _vestingCliffPeriod,\n        uint64  _vestingCompletePeriod,\n        uint256 _supplyOfferedPct,\n        uint256 _fundingForBeneficiaryPct,\n        uint64  _openDate\n    )\n        internal\n    {\n        _presaleCache().initialize(\n            _controllerCache(),\n            _shareTMCache(),\n            _reserveCache(),\n            _vaultCache(),\n            collaterals[0],\n            _goal,\n            _period,\n            _exchangeRate,\n            _vestingCliffPeriod,\n            _vestingCompletePeriod,\n            _supplyOfferedPct,\n            _fundingForBeneficiaryPct,\n            _openDate\n        );\n    }\n\n    function _initializeMarketMaker(uint256 _batchBlocks) internal {\n        IBancorFormula bancorFormula = IBancorFormula(_latestVersionAppBase(BANCOR_FORMULA_ID));\n\n        (,, Vault beneficiary,) = _boardAppsCache();\n        (TokenManager shareTM,) = _shareAppsCache();\n        (Agent reserve,, MarketMaker marketMaker,, Controller controller) = _fundraisingAppsCache();\n\n        marketMaker.initialize(controller, shareTM, bancorFormula, reserve, beneficiary, _batchBlocks, BUY_FEE_PCT, SELL_FEE_PCT);\n    }\n\n    function _initializeTap(uint256 _batchBlocks, uint256 _maxTapRateIncreasePct, uint256 _maxTapFloorDecreasePct) internal {\n        (,, Vault beneficiary,) = _boardAppsCache();\n        (Agent reserve,,, Tap tap, Controller controller) = _fundraisingAppsCache();\n\n        tap.initialize(controller, reserve, beneficiary, _batchBlocks, _maxTapRateIncreasePct, _maxTapFloorDecreasePct);\n    }\n\n    function _initializeController() internal {\n        (Agent reserve, Presale presale, MarketMaker marketMaker, Tap tap, Controller controller) = _fundraisingAppsCache();\n        address[] memory toReset = new address[](1);\n        toReset[0] = collaterals[0];\n        controller.initialize(presale, marketMaker, reserve, tap, toReset);\n    }\n\n    /***** internal setup functions *****/\n\n    function _setupCollaterals(\n        Kernel     _dao,\n        uint256[2] _virtualSupplies,\n        uint256[2] _virtualBalances,\n        uint256[2] _slippages,\n        uint256    _rateDAI,\n        uint256    _floorDAI\n    )\n        internal\n    {\n        ACL acl = ACL(_dao.acl());\n        (, Voting shareVoting) = _shareAppsCache();\n        (,,,, Controller controller) = _fundraisingAppsCache();\n\n        // create and grant ADD_COLLATERAL_TOKEN_ROLE to this template\n        _createPermissionForTemplate(acl, address(controller), controller.ADD_COLLATERAL_TOKEN_ROLE());\n        // add DAI both as a protected collateral and a tapped token\n        controller.addCollateralToken(\n            collaterals[0],\n            _virtualSupplies[0],\n            _virtualBalances[0],\n            DAI_RESERVE_RATIO,\n            _slippages[0],\n            _rateDAI,\n            _floorDAI\n        );\n        // add ANT as a protected collateral [but not as a tapped token]\n        controller.addCollateralToken(\n            collaterals[1],\n            _virtualSupplies[1],\n            _virtualBalances[1],\n            ANT_RESERVE_RATIO,\n            _slippages[1],\n            0,\n            0\n        );\n        // transfer ADD_COLLATERAL_TOKEN_ROLE\n        _transferPermissionFromTemplate(acl, controller, shareVoting, controller.ADD_COLLATERAL_TOKEN_ROLE(), shareVoting);\n    }\n\n    /***** internal permissions functions *****/\n\n    function _setupBoardPermissions(Kernel _dao) internal {\n        ACL acl = ACL(_dao.acl());\n\n        (TokenManager boardTM, Voting boardVoting, Vault vault, Finance finance) = _boardAppsCache();\n        (, Voting shareVoting) = _shareAppsCache();\n\n        // token manager\n        _createTokenManagerPermissions(acl, boardTM, boardVoting, shareVoting);\n        // voting\n        _createVotingPermissions(acl, boardVoting, boardVoting, boardTM, shareVoting);\n        // vault\n        _createVaultPermissions(acl, vault, finance, shareVoting);\n        // finance\n        _createFinancePermissions(acl, finance, boardVoting, shareVoting);\n        _createFinanceCreatePaymentsPermission(acl, finance, boardVoting, shareVoting);\n    }\n\n    function _setupSharePermissions(Kernel _dao) internal {\n        ACL acl = ACL(_dao.acl());\n\n        (TokenManager boardTM,,,) = _boardAppsCache();\n        (TokenManager shareTM, Voting shareVoting) = _shareAppsCache();\n        (, Presale presale, MarketMaker marketMaker,,) = _fundraisingAppsCache();\n\n        // token manager\n        address[] memory grantees = new address[](2);\n        grantees[0] = address(marketMaker);\n        grantees[1] = address(presale);\n        acl.createPermission(marketMaker, shareTM, shareTM.MINT_ROLE(),shareVoting);\n        acl.createPermission(presale, shareTM, shareTM.ISSUE_ROLE(),shareVoting);\n        acl.createPermission(presale, shareTM, shareTM.ASSIGN_ROLE(),shareVoting);\n        acl.createPermission(presale, shareTM, shareTM.REVOKE_VESTINGS_ROLE(), shareVoting);\n        _createPermissions(acl, grantees, shareTM, shareTM.BURN_ROLE(), shareVoting);\n        // voting\n        _createVotingPermissions(acl, shareVoting, shareVoting, boardTM, shareVoting);\n    }\n\n    /***** internal cache functions *****/\n\n    function _cacheDao(Kernel _dao) internal {\n        Cache storage c = cache[msg.sender];\n\n        c.dao = address(_dao);\n    }\n\n    function _cacheBoardApps(TokenManager _boardTM, Voting _boardVoting, Vault _vault, Finance _finance) internal {\n        Cache storage c = cache[msg.sender];\n\n        c.boardTokenManager = address(_boardTM);\n        c.boardVoting = address(_boardVoting);\n        c.vault = address(_vault);\n        c.finance = address(_finance);\n    }\n\n    function _cacheShareApps(TokenManager _shareTM, Voting _shareVoting) internal {\n        Cache storage c = cache[msg.sender];\n\n        c.shareTokenManager = address(_shareTM);\n        c.shareVoting = address(_shareVoting);\n    }\n\n    function _cacheFundraisingApps(Agent _reserve, Presale _presale, MarketMaker _marketMaker, Tap _tap, Controller _controller) internal {\n        Cache storage c = cache[msg.sender];\n\n        c.reserve = address(_reserve);\n        c.presale = address(_presale);\n        c.marketMaker = address(_marketMaker);\n        c.tap = address(_tap);\n        c.controller = address(_controller);\n    }\n\n    function _daoCache() internal view returns (Kernel dao) {\n        Cache storage c = cache[msg.sender];\n\n        dao = Kernel(c.dao);\n    }\n\n    function _boardAppsCache() internal view returns (TokenManager boardTM, Voting boardVoting, Vault vault, Finance finance) {\n        Cache storage c = cache[msg.sender];\n\n        boardTM = TokenManager(c.boardTokenManager);\n        boardVoting = Voting(c.boardVoting);\n        vault = Vault(c.vault);\n        finance = Finance(c.finance);\n    }\n\n    function _shareAppsCache() internal view returns (TokenManager shareTM, Voting shareVoting) {\n        Cache storage c = cache[msg.sender];\n\n        shareTM = TokenManager(c.shareTokenManager);\n        shareVoting = Voting(c.shareVoting);\n    }\n\n    function _fundraisingAppsCache() internal view returns (\n        Agent reserve,\n        Presale presale,\n        MarketMaker marketMaker,\n        Tap tap,\n        Controller controller\n    )\n    {\n        Cache storage c = cache[msg.sender];\n\n        reserve = Agent(c.reserve);\n        presale = Presale(c.presale);\n        marketMaker = MarketMaker(c.marketMaker);\n        tap = Tap(c.tap);\n        controller = Controller(c.controller);\n    }\n\n    function _clearCache() internal {\n        Cache storage c = cache[msg.sender];\n\n        delete c.dao;\n        delete c.boardTokenManager;\n        delete c.boardVoting;\n        delete c.vault;\n        delete c.finance;\n        delete c.shareVoting;\n        delete c.shareTokenManager;\n        delete c.reserve;\n        delete c.presale;\n        delete c.marketMaker;\n        delete c.tap;\n        delete c.controller;\n    }\n\n    /**\n     * NOTE\n     * the following functions are only needed for the presale\n     * initialization function [which we can't compile otherwise\n     * because of a `stack too deep` error]\n    */\n\n    function _vaultCache() internal view returns (Vault vault) {\n        Cache storage c = cache[msg.sender];\n\n        vault = Vault(c.vault);\n    }\n\n    function _shareTMCache() internal view returns (TokenManager shareTM) {\n        Cache storage c = cache[msg.sender];\n\n        shareTM = TokenManager(c.shareTokenManager);\n    }\n\n    function _reserveCache() internal view returns (Agent reserve) {\n        Cache storage c = cache[msg.sender];\n\n        reserve = Agent(c.reserve);\n    }\n\n    function _presaleCache() internal view returns (Presale presale) {\n        Cache storage c = cache[msg.sender];\n\n        presale = Presale(c.presale);\n    }\n\n    function _controllerCache() internal view returns (Controller controller) {\n        Cache storage c = cache[msg.sender];\n\n        controller = Controller(c.controller);\n    }\n\n    /***** internal check functions *****/\n\n    function _ensureBoardAppsCache() internal view {\n        Cache storage c = cache[msg.sender];\n        require(\n            c.boardTokenManager != address(0) &&\n            c.boardVoting != address(0) &&\n            c.vault != address(0) &&\n            c.finance != address(0),\n            ERROR_MISSING_CACHE\n        );\n    }\n\n    function _ensureShareAppsCache() internal view {\n        Cache storage c = cache[msg.sender];\n        require(\n            c.shareTokenManager != address(0) &&\n            c.shareVoting != address(0),\n            ERROR_MISSING_CACHE\n        );\n    }\n\n    function _ensureFundraisingAppsCache() internal view {\n        Cache storage c = cache[msg.sender];\n        require(\n            c.reserve != address(0) &&\n            c.presale != address(0) &&\n            c.marketMaker != address(0) &&\n            c.tap != address(0) &&\n            c.controller != address(0),\n            ERROR_MISSING_CACHE\n        );\n    }\n\n    /***** internal utils functions *****/\n\n    function _registerApp(Kernel _dao, bytes32 _appId) internal returns (address) {\n        address proxy = _dao.newAppInstance(_appId, _latestVersionAppBase(_appId));\n\n        emit InstalledApp(proxy, _appId);\n\n        return proxy;\n    }\n}\n",
  "sourcePath": "/Users/jonybang/workspace/fundraising/templates/multisig/contracts/FundraisingMultisigTemplate.sol",
  "compiler": {
    "name": "solc",
    "version": "0.4.24+commit.e67f0147.Emscripten.clang"
  },
  "schemaVersion": "2.0.1",
  "updatedAt": "2020-02-09T01:44:08.574Z"
}