{
  "contractName": "Initializable",
  "abi": [
    {
      "constant": true,
      "inputs": [],
      "name": "getInitializationBlock",
      "outputs": [
        {
          "name": "",
          "type": "uint256"
        }
      ],
      "payable": false,
      "stateMutability": "view",
      "type": "function"
    },
    {
      "constant": true,
      "inputs": [],
      "name": "hasInitialized",
      "outputs": [
        {
          "name": "",
          "type": "bool"
        }
      ],
      "payable": false,
      "stateMutability": "view",
      "type": "function"
    }
  ],
  "bytecode": "0x608060405234801561001057600080fd5b5061011d806100206000396000f30060806040526004361060485763ffffffff7c01000000000000000000000000000000000000000000000000000000006000350416630803fac08114604d5780638b3dd749146073575b600080fd5b348015605857600080fd5b50605f6097565b604080519115158252519081900360200190f35b348015607e57600080fd5b50608560bb565b60408051918252519081900360200190f35b60008060a060bb565b9050801580159060b557508060b260e9565b10155b91505090565b600060e47febb05b386a8d34882b8711d156f463690983dc47815980fb82aeeff1aa43579e60ed565b905090565b4390565b54905600a165627a7a723058200f1f3cc5833ec90ff1dafc7243297effd290965e9d4ed3d2d05a9e85f9d07baa0029",
  "source": "/*\n * SPDX-License-Identitifer:    MIT\n */\n\npragma solidity ^0.4.24;\n\nimport \"./TimeHelpers.sol\";\nimport \"./UnstructuredStorage.sol\";\n\n\ncontract Initializable is TimeHelpers {\n    using UnstructuredStorage for bytes32;\n\n    // keccak256(\"aragonOS.initializable.initializationBlock\")\n    bytes32 internal constant INITIALIZATION_BLOCK_POSITION = 0xebb05b386a8d34882b8711d156f463690983dc47815980fb82aeeff1aa43579e;\n\n    string private constant ERROR_ALREADY_INITIALIZED = \"INIT_ALREADY_INITIALIZED\";\n    string private constant ERROR_NOT_INITIALIZED = \"INIT_NOT_INITIALIZED\";\n\n    modifier onlyInit {\n        require(getInitializationBlock() == 0, ERROR_ALREADY_INITIALIZED);\n        _;\n    }\n\n    modifier isInitialized {\n        require(hasInitialized(), ERROR_NOT_INITIALIZED);\n        _;\n    }\n\n    /**\n    * @return Block number in which the contract was initialized\n    */\n    function getInitializationBlock() public view returns (uint256) {\n        return INITIALIZATION_BLOCK_POSITION.getStorageUint256();\n    }\n\n    /**\n    * @return Whether the contract has been initialized by the time of the current block\n    */\n    function hasInitialized() public view returns (bool) {\n        uint256 initializationBlock = getInitializationBlock();\n        return initializationBlock != 0 && getBlockNumber() >= initializationBlock;\n    }\n\n    /**\n    * @dev Function to be called by top level contract after initialization has finished.\n    */\n    function initialized() internal onlyInit {\n        INITIALIZATION_BLOCK_POSITION.setStorageUint256(getBlockNumber());\n    }\n\n    /**\n    * @dev Function to be called by top level contract after initialization to enable the contract\n    *      at a future block number rather than immediately.\n    */\n    function initializedAt(uint256 _blockNumber) internal onlyInit {\n        INITIALIZATION_BLOCK_POSITION.setStorageUint256(_blockNumber);\n    }\n}\n",
  "sourcePath": "@aragon/os/contracts/common/Initializable.sol",
  "compiler": {
    "name": "solc",
    "version": "0.4.24+commit.e67f0147.Emscripten.clang"
  },
  "schemaVersion": "2.0.1",
  "updatedAt": "2020-02-09T11:53:34.118Z"
}