{
  "contractName": "KernelProxy",
  "abi": [
    {
      "constant": true,
      "inputs": [
        {
          "name": "",
          "type": "bytes32"
        },
        {
          "name": "",
          "type": "bytes32"
        }
      ],
      "name": "apps",
      "outputs": [
        {
          "name": "",
          "type": "address"
        }
      ],
      "payable": false,
      "stateMutability": "view",
      "type": "function"
    },
    {
      "constant": true,
      "inputs": [],
      "name": "isDepositable",
      "outputs": [
        {
          "name": "",
          "type": "bool"
        }
      ],
      "payable": false,
      "stateMutability": "view",
      "type": "function"
    },
    {
      "constant": true,
      "inputs": [],
      "name": "recoveryVaultAppId",
      "outputs": [
        {
          "name": "",
          "type": "bytes32"
        }
      ],
      "payable": false,
      "stateMutability": "view",
      "type": "function"
    },
    {
      "inputs": [
        {
          "name": "_kernelImpl",
          "type": "address"
        }
      ],
      "payable": false,
      "stateMutability": "nonpayable",
      "type": "constructor"
    },
    {
      "payable": true,
      "stateMutability": "payable",
      "type": "fallback"
    },
    {
      "anonymous": false,
      "inputs": [
        {
          "indexed": false,
          "name": "sender",
          "type": "address"
        },
        {
          "indexed": false,
          "name": "value",
          "type": "uint256"
        }
      ],
      "name": "ProxyDeposit",
      "type": "event"
    },
    {
      "anonymous": false,
      "inputs": [
        {
          "indexed": true,
          "name": "namespace",
          "type": "bytes32"
        },
        {
          "indexed": true,
          "name": "appId",
          "type": "bytes32"
        },
        {
          "indexed": false,
          "name": "app",
          "type": "address"
        }
      ],
      "name": "SetApp",
      "type": "event"
    },
    {
      "constant": true,
      "inputs": [],
      "name": "proxyType",
      "outputs": [
        {
          "name": "proxyTypeId",
          "type": "uint256"
        }
      ],
      "payable": false,
      "stateMutability": "pure",
      "type": "function"
    },
    {
      "constant": true,
      "inputs": [],
      "name": "implementation",
      "outputs": [
        {
          "name": "",
          "type": "address"
        }
      ],
      "payable": false,
      "stateMutability": "view",
      "type": "function"
    }
  ],
  "bytecode": "0x608060405234801561001057600080fd5b506040516020806104aa833981016040525161003481640100000000610120810204565b151561003f57600080fd5b7f3b4bf6bf3ad5000ecf0f989d5befde585c6860fea3e574a4fab4c49d1c177d9c60008190527fc67454ed56db7ff90a4bb32fc9a8de1ab3174b221e5fecea22b7503a3111791f60209081527f8e2ed18767e9c33b25344c240cdf92034fae56be99e2c07f3d9946d949ffede48054600160a060020a031916600160a060020a03851690811790915560408051918252517fc681a85306374a5ab27f0bbc385296a54bcd314a1948b6cf61c4ea1bc44bb9f8927f2ec1ae0a449b7ae354b9dacfb3ade6b6332ba26b7fcbb935835fa39dd7263b23928290030190a35061014d565b600080600160a060020a038316151561013c5760009150610147565b823b90506000811191505b50919050565b61034e8061015c6000396000f30060806040526004361061006c5763ffffffff7c01000000000000000000000000000000000000000000000000000000006000350416634555d5c9811461012b5780634558850c1461015257806348a0c8dd146101895780635c60da1b146101b257806386070cfe146101c7575b60006127105a10156100e357600034118015610086575036155b151561009157600080fd5b6100996101dc565b15156100a457600080fd5b6040805133815234602082015281517f15eeaa57c7bd188c1388020bcadc2c436ec60d647d36ef5b9eb3c742217ddee1929181900390910190a1610128565b6100eb61020c565b9050610128816000368080601f01602080910402602001604051908101604052809392919081815260200183838082843750610282945050505050565b50005b34801561013757600080fd5b506101406102c3565b60408051918252519081900360200190f35b34801561015e57600080fd5b5061016d6004356024356102c8565b60408051600160a060020a039092168252519081900360200190f35b34801561019557600080fd5b5061019e6101dc565b604080519115158252519081900360200190f35b3480156101be57600080fd5b5061016d61020c565b3480156101d357600080fd5b506101406102eb565b60006102077f665fd576fbbe6f247aff98f5c94a561e3f71ec2d3c988d56f12d342396c50cea6102f1565b905090565b7f3b4bf6bf3ad5000ecf0f989d5befde585c6860fea3e574a4fab4c49d1c177d9c6000527fc67454ed56db7ff90a4bb32fc9a8de1ab3174b221e5fecea22b7503a3111791f6020527f8e2ed18767e9c33b25344c240cdf92034fae56be99e2c07f3d9946d949ffede454600160a060020a031690565b600061028d836102f5565b151561029857600080fd5b612710905060008083516020850186855a03f43d604051816000823e8280156102bf578282f35b8282fd5b600290565b6000602081815292815260408082209093529081522054600160a060020a031681565b60015481565b5490565b600080600160a060020a0383161515610311576000915061031c565b823b90506000811191505b509190505600a165627a7a72305820fe7089d739ec0afa54b2bc12b29919b3f5f6bf3ef1b38e365ca78ff8cf5059680029",
  "source": "pragma solidity 0.4.24;\n\nimport \"./IKernel.sol\";\nimport \"./KernelConstants.sol\";\nimport \"./KernelStorage.sol\";\nimport \"../common/DepositableDelegateProxy.sol\";\nimport \"../common/IsContract.sol\";\n\n\ncontract KernelProxy is IKernelEvents, KernelStorage, KernelAppIds, KernelNamespaceConstants, IsContract, DepositableDelegateProxy {\n    /**\n    * @dev KernelProxy is a proxy contract to a kernel implementation. The implementation\n    *      can update the reference, which effectively upgrades the contract\n    * @param _kernelImpl Address of the contract used as implementation for kernel\n    */\n    constructor(IKernel _kernelImpl) public {\n        require(isContract(address(_kernelImpl)));\n        apps[KERNEL_CORE_NAMESPACE][KERNEL_CORE_APP_ID] = _kernelImpl;\n\n        // Note that emitting this event is important for verifying that a KernelProxy instance\n        // was never upgraded to a malicious Kernel logic contract over its lifespan.\n        // This starts the \"chain of trust\", that can be followed through later SetApp() events\n        // emitted during kernel upgrades.\n        emit SetApp(KERNEL_CORE_NAMESPACE, KERNEL_CORE_APP_ID, _kernelImpl);\n    }\n\n    /**\n     * @dev ERC897, whether it is a forwarding (1) or an upgradeable (2) proxy\n     */\n    function proxyType() public pure returns (uint256 proxyTypeId) {\n        return UPGRADEABLE;\n    }\n\n    /**\n    * @dev ERC897, the address the proxy would delegate calls to\n    */\n    function implementation() public view returns (address) {\n        return apps[KERNEL_CORE_NAMESPACE][KERNEL_CORE_APP_ID];\n    }\n}\n",
  "sourcePath": "@aragon/os/contracts/kernel/KernelProxy.sol",
  "compiler": {
    "name": "solc",
    "version": "0.4.24+commit.e67f0147.Emscripten.clang"
  },
  "schemaVersion": "2.0.1",
  "updatedAt": "2020-02-09T02:26:32.043Z"
}