{
  "contractName": "Payroll",
  "abi": [
    {
      "constant": true,
      "inputs": [],
      "name": "hasInitialized",
      "outputs": [
        {
          "name": "",
          "type": "bool"
        }
      ],
      "payable": false,
      "stateMutability": "view",
      "type": "function"
    },
    {
      "constant": true,
      "inputs": [],
      "name": "MANAGE_ALLOWED_TOKENS_ROLE",
      "outputs": [
        {
          "name": "",
          "type": "bytes32"
        }
      ],
      "payable": false,
      "stateMutability": "view",
      "type": "function"
    },
    {
      "constant": true,
      "inputs": [],
      "name": "nextEmployee",
      "outputs": [
        {
          "name": "",
          "type": "uint256"
        }
      ],
      "payable": false,
      "stateMutability": "view",
      "type": "function"
    },
    {
      "constant": true,
      "inputs": [
        {
          "name": "_script",
          "type": "bytes"
        }
      ],
      "name": "getEVMScriptExecutor",
      "outputs": [
        {
          "name": "",
          "type": "address"
        }
      ],
      "payable": false,
      "stateMutability": "view",
      "type": "function"
    },
    {
      "constant": true,
      "inputs": [],
      "name": "MODIFY_RATE_EXPIRY_ROLE",
      "outputs": [
        {
          "name": "",
          "type": "bytes32"
        }
      ],
      "payable": false,
      "stateMutability": "view",
      "type": "function"
    },
    {
      "constant": true,
      "inputs": [],
      "name": "finance",
      "outputs": [
        {
          "name": "",
          "type": "address"
        }
      ],
      "payable": false,
      "stateMutability": "view",
      "type": "function"
    },
    {
      "constant": true,
      "inputs": [],
      "name": "getRecoveryVault",
      "outputs": [
        {
          "name": "",
          "type": "address"
        }
      ],
      "payable": false,
      "stateMutability": "view",
      "type": "function"
    },
    {
      "constant": true,
      "inputs": [],
      "name": "ADD_BONUS_ROLE",
      "outputs": [
        {
          "name": "",
          "type": "bytes32"
        }
      ],
      "payable": false,
      "stateMutability": "view",
      "type": "function"
    },
    {
      "constant": true,
      "inputs": [],
      "name": "feed",
      "outputs": [
        {
          "name": "",
          "type": "address"
        }
      ],
      "payable": false,
      "stateMutability": "view",
      "type": "function"
    },
    {
      "constant": true,
      "inputs": [],
      "name": "SET_EMPLOYEE_SALARY_ROLE",
      "outputs": [
        {
          "name": "",
          "type": "bytes32"
        }
      ],
      "payable": false,
      "stateMutability": "view",
      "type": "function"
    },
    {
      "constant": true,
      "inputs": [],
      "name": "MODIFY_PRICE_FEED_ROLE",
      "outputs": [
        {
          "name": "",
          "type": "bytes32"
        }
      ],
      "payable": false,
      "stateMutability": "view",
      "type": "function"
    },
    {
      "constant": true,
      "inputs": [],
      "name": "TERMINATE_EMPLOYEE_ROLE",
      "outputs": [
        {
          "name": "",
          "type": "bytes32"
        }
      ],
      "payable": false,
      "stateMutability": "view",
      "type": "function"
    },
    {
      "constant": true,
      "inputs": [
        {
          "name": "token",
          "type": "address"
        }
      ],
      "name": "allowRecoverability",
      "outputs": [
        {
          "name": "",
          "type": "bool"
        }
      ],
      "payable": false,
      "stateMutability": "view",
      "type": "function"
    },
    {
      "constant": true,
      "inputs": [],
      "name": "appId",
      "outputs": [
        {
          "name": "",
          "type": "bytes32"
        }
      ],
      "payable": false,
      "stateMutability": "view",
      "type": "function"
    },
    {
      "constant": true,
      "inputs": [],
      "name": "ADD_REIMBURSEMENT_ROLE",
      "outputs": [
        {
          "name": "",
          "type": "bytes32"
        }
      ],
      "payable": false,
      "stateMutability": "view",
      "type": "function"
    },
    {
      "constant": true,
      "inputs": [],
      "name": "getInitializationBlock",
      "outputs": [
        {
          "name": "",
          "type": "uint256"
        }
      ],
      "payable": false,
      "stateMutability": "view",
      "type": "function"
    },
    {
      "constant": false,
      "inputs": [
        {
          "name": "_token",
          "type": "address"
        }
      ],
      "name": "transferToVault",
      "outputs": [],
      "payable": false,
      "stateMutability": "nonpayable",
      "type": "function"
    },
    {
      "constant": true,
      "inputs": [
        {
          "name": "_sender",
          "type": "address"
        },
        {
          "name": "_role",
          "type": "bytes32"
        },
        {
          "name": "_params",
          "type": "uint256[]"
        }
      ],
      "name": "canPerform",
      "outputs": [
        {
          "name": "",
          "type": "bool"
        }
      ],
      "payable": false,
      "stateMutability": "view",
      "type": "function"
    },
    {
      "constant": true,
      "inputs": [],
      "name": "getEVMScriptRegistry",
      "outputs": [
        {
          "name": "",
          "type": "address"
        }
      ],
      "payable": false,
      "stateMutability": "view",
      "type": "function"
    },
    {
      "constant": true,
      "inputs": [],
      "name": "rateExpiryTime",
      "outputs": [
        {
          "name": "",
          "type": "uint64"
        }
      ],
      "payable": false,
      "stateMutability": "view",
      "type": "function"
    },
    {
      "constant": true,
      "inputs": [],
      "name": "ADD_EMPLOYEE_ROLE",
      "outputs": [
        {
          "name": "",
          "type": "bytes32"
        }
      ],
      "payable": false,
      "stateMutability": "view",
      "type": "function"
    },
    {
      "constant": true,
      "inputs": [],
      "name": "kernel",
      "outputs": [
        {
          "name": "",
          "type": "address"
        }
      ],
      "payable": false,
      "stateMutability": "view",
      "type": "function"
    },
    {
      "constant": true,
      "inputs": [],
      "name": "isPetrified",
      "outputs": [
        {
          "name": "",
          "type": "bool"
        }
      ],
      "payable": false,
      "stateMutability": "view",
      "type": "function"
    },
    {
      "constant": true,
      "inputs": [],
      "name": "denominationToken",
      "outputs": [
        {
          "name": "",
          "type": "address"
        }
      ],
      "payable": false,
      "stateMutability": "view",
      "type": "function"
    },
    {
      "anonymous": false,
      "inputs": [
        {
          "indexed": true,
          "name": "employeeId",
          "type": "uint256"
        },
        {
          "indexed": true,
          "name": "accountAddress",
          "type": "address"
        },
        {
          "indexed": false,
          "name": "initialDenominationSalary",
          "type": "uint256"
        },
        {
          "indexed": false,
          "name": "startDate",
          "type": "uint64"
        },
        {
          "indexed": false,
          "name": "role",
          "type": "string"
        }
      ],
      "name": "AddEmployee",
      "type": "event"
    },
    {
      "anonymous": false,
      "inputs": [
        {
          "indexed": true,
          "name": "employeeId",
          "type": "uint256"
        },
        {
          "indexed": false,
          "name": "endDate",
          "type": "uint64"
        }
      ],
      "name": "TerminateEmployee",
      "type": "event"
    },
    {
      "anonymous": false,
      "inputs": [
        {
          "indexed": true,
          "name": "employeeId",
          "type": "uint256"
        },
        {
          "indexed": false,
          "name": "denominationSalary",
          "type": "uint256"
        }
      ],
      "name": "SetEmployeeSalary",
      "type": "event"
    },
    {
      "anonymous": false,
      "inputs": [
        {
          "indexed": true,
          "name": "employeeId",
          "type": "uint256"
        },
        {
          "indexed": false,
          "name": "amount",
          "type": "uint256"
        }
      ],
      "name": "AddEmployeeAccruedSalary",
      "type": "event"
    },
    {
      "anonymous": false,
      "inputs": [
        {
          "indexed": true,
          "name": "employeeId",
          "type": "uint256"
        },
        {
          "indexed": false,
          "name": "amount",
          "type": "uint256"
        }
      ],
      "name": "AddEmployeeBonus",
      "type": "event"
    },
    {
      "anonymous": false,
      "inputs": [
        {
          "indexed": true,
          "name": "employeeId",
          "type": "uint256"
        },
        {
          "indexed": false,
          "name": "amount",
          "type": "uint256"
        }
      ],
      "name": "AddEmployeeReimbursement",
      "type": "event"
    },
    {
      "anonymous": false,
      "inputs": [
        {
          "indexed": true,
          "name": "employeeId",
          "type": "uint256"
        },
        {
          "indexed": true,
          "name": "newAccountAddress",
          "type": "address"
        },
        {
          "indexed": true,
          "name": "oldAccountAddress",
          "type": "address"
        }
      ],
      "name": "ChangeAddressByEmployee",
      "type": "event"
    },
    {
      "anonymous": false,
      "inputs": [
        {
          "indexed": true,
          "name": "employeeId",
          "type": "uint256"
        }
      ],
      "name": "DetermineAllocation",
      "type": "event"
    },
    {
      "anonymous": false,
      "inputs": [
        {
          "indexed": true,
          "name": "employeeId",
          "type": "uint256"
        },
        {
          "indexed": true,
          "name": "accountAddress",
          "type": "address"
        },
        {
          "indexed": true,
          "name": "token",
          "type": "address"
        },
        {
          "indexed": false,
          "name": "amount",
          "type": "uint256"
        },
        {
          "indexed": false,
          "name": "exchangeRate",
          "type": "uint256"
        },
        {
          "indexed": false,
          "name": "paymentReference",
          "type": "string"
        }
      ],
      "name": "SendPayment",
      "type": "event"
    },
    {
      "anonymous": false,
      "inputs": [
        {
          "indexed": true,
          "name": "token",
          "type": "address"
        },
        {
          "indexed": false,
          "name": "allowed",
          "type": "bool"
        }
      ],
      "name": "SetAllowedToken",
      "type": "event"
    },
    {
      "anonymous": false,
      "inputs": [
        {
          "indexed": true,
          "name": "feed",
          "type": "address"
        }
      ],
      "name": "SetPriceFeed",
      "type": "event"
    },
    {
      "anonymous": false,
      "inputs": [
        {
          "indexed": false,
          "name": "time",
          "type": "uint64"
        }
      ],
      "name": "SetRateExpiryTime",
      "type": "event"
    },
    {
      "anonymous": false,
      "inputs": [
        {
          "indexed": true,
          "name": "executor",
          "type": "address"
        },
        {
          "indexed": false,
          "name": "script",
          "type": "bytes"
        },
        {
          "indexed": false,
          "name": "input",
          "type": "bytes"
        },
        {
          "indexed": false,
          "name": "returnData",
          "type": "bytes"
        }
      ],
      "name": "ScriptResult",
      "type": "event"
    },
    {
      "anonymous": false,
      "inputs": [
        {
          "indexed": true,
          "name": "vault",
          "type": "address"
        },
        {
          "indexed": true,
          "name": "token",
          "type": "address"
        },
        {
          "indexed": false,
          "name": "amount",
          "type": "uint256"
        }
      ],
      "name": "RecoverToVault",
      "type": "event"
    },
    {
      "constant": false,
      "inputs": [
        {
          "name": "_finance",
          "type": "address"
        },
        {
          "name": "_denominationToken",
          "type": "address"
        },
        {
          "name": "_priceFeed",
          "type": "address"
        },
        {
          "name": "_rateExpiryTime",
          "type": "uint64"
        }
      ],
      "name": "initialize",
      "outputs": [],
      "payable": false,
      "stateMutability": "nonpayable",
      "type": "function"
    },
    {
      "constant": false,
      "inputs": [
        {
          "name": "_token",
          "type": "address"
        },
        {
          "name": "_allowed",
          "type": "bool"
        }
      ],
      "name": "setAllowedToken",
      "outputs": [],
      "payable": false,
      "stateMutability": "nonpayable",
      "type": "function"
    },
    {
      "constant": false,
      "inputs": [
        {
          "name": "_feed",
          "type": "address"
        }
      ],
      "name": "setPriceFeed",
      "outputs": [],
      "payable": false,
      "stateMutability": "nonpayable",
      "type": "function"
    },
    {
      "constant": false,
      "inputs": [
        {
          "name": "_time",
          "type": "uint64"
        }
      ],
      "name": "setRateExpiryTime",
      "outputs": [],
      "payable": false,
      "stateMutability": "nonpayable",
      "type": "function"
    },
    {
      "constant": false,
      "inputs": [
        {
          "name": "_accountAddress",
          "type": "address"
        },
        {
          "name": "_initialDenominationSalary",
          "type": "uint256"
        },
        {
          "name": "_startDate",
          "type": "uint64"
        },
        {
          "name": "_role",
          "type": "string"
        }
      ],
      "name": "addEmployee",
      "outputs": [],
      "payable": false,
      "stateMutability": "nonpayable",
      "type": "function"
    },
    {
      "constant": false,
      "inputs": [
        {
          "name": "_employeeId",
          "type": "uint256"
        },
        {
          "name": "_amount",
          "type": "uint256"
        }
      ],
      "name": "addBonus",
      "outputs": [],
      "payable": false,
      "stateMutability": "nonpayable",
      "type": "function"
    },
    {
      "constant": false,
      "inputs": [
        {
          "name": "_employeeId",
          "type": "uint256"
        },
        {
          "name": "_amount",
          "type": "uint256"
        }
      ],
      "name": "addReimbursement",
      "outputs": [],
      "payable": false,
      "stateMutability": "nonpayable",
      "type": "function"
    },
    {
      "constant": false,
      "inputs": [
        {
          "name": "_employeeId",
          "type": "uint256"
        },
        {
          "name": "_denominationSalary",
          "type": "uint256"
        }
      ],
      "name": "setEmployeeSalary",
      "outputs": [],
      "payable": false,
      "stateMutability": "nonpayable",
      "type": "function"
    },
    {
      "constant": false,
      "inputs": [
        {
          "name": "_employeeId",
          "type": "uint256"
        },
        {
          "name": "_endDate",
          "type": "uint64"
        }
      ],
      "name": "terminateEmployee",
      "outputs": [],
      "payable": false,
      "stateMutability": "nonpayable",
      "type": "function"
    },
    {
      "constant": false,
      "inputs": [
        {
          "name": "_newAccountAddress",
          "type": "address"
        }
      ],
      "name": "changeAddressByEmployee",
      "outputs": [],
      "payable": false,
      "stateMutability": "nonpayable",
      "type": "function"
    },
    {
      "constant": false,
      "inputs": [
        {
          "name": "_tokens",
          "type": "address[]"
        },
        {
          "name": "_distribution",
          "type": "uint256[]"
        }
      ],
      "name": "determineAllocation",
      "outputs": [],
      "payable": false,
      "stateMutability": "nonpayable",
      "type": "function"
    },
    {
      "constant": false,
      "inputs": [
        {
          "name": "_type",
          "type": "uint8"
        },
        {
          "name": "_requestedAmount",
          "type": "uint256"
        },
        {
          "name": "_minRates",
          "type": "uint256[]"
        }
      ],
      "name": "payday",
      "outputs": [],
      "payable": false,
      "stateMutability": "nonpayable",
      "type": "function"
    },
    {
      "constant": true,
      "inputs": [],
      "name": "isForwarder",
      "outputs": [
        {
          "name": "",
          "type": "bool"
        }
      ],
      "payable": false,
      "stateMutability": "pure",
      "type": "function"
    },
    {
      "constant": false,
      "inputs": [
        {
          "name": "_evmScript",
          "type": "bytes"
        }
      ],
      "name": "forward",
      "outputs": [],
      "payable": false,
      "stateMutability": "nonpayable",
      "type": "function"
    },
    {
      "constant": true,
      "inputs": [
        {
          "name": "_sender",
          "type": "address"
        },
        {
          "name": "",
          "type": "bytes"
        }
      ],
      "name": "canForward",
      "outputs": [
        {
          "name": "",
          "type": "bool"
        }
      ],
      "payable": false,
      "stateMutability": "view",
      "type": "function"
    },
    {
      "constant": true,
      "inputs": [
        {
          "name": "_accountAddress",
          "type": "address"
        }
      ],
      "name": "getEmployeeIdByAddress",
      "outputs": [
        {
          "name": "",
          "type": "uint256"
        }
      ],
      "payable": false,
      "stateMutability": "view",
      "type": "function"
    },
    {
      "constant": true,
      "inputs": [
        {
          "name": "_employeeId",
          "type": "uint256"
        }
      ],
      "name": "getEmployee",
      "outputs": [
        {
          "name": "accountAddress",
          "type": "address"
        },
        {
          "name": "denominationSalary",
          "type": "uint256"
        },
        {
          "name": "accruedSalary",
          "type": "uint256"
        },
        {
          "name": "bonus",
          "type": "uint256"
        },
        {
          "name": "reimbursements",
          "type": "uint256"
        },
        {
          "name": "lastPayroll",
          "type": "uint64"
        },
        {
          "name": "endDate",
          "type": "uint64"
        },
        {
          "name": "allocationTokens",
          "type": "address[]"
        }
      ],
      "payable": false,
      "stateMutability": "view",
      "type": "function"
    },
    {
      "constant": true,
      "inputs": [
        {
          "name": "_employeeId",
          "type": "uint256"
        }
      ],
      "name": "getTotalOwedSalary",
      "outputs": [
        {
          "name": "",
          "type": "uint256"
        }
      ],
      "payable": false,
      "stateMutability": "view",
      "type": "function"
    },
    {
      "constant": true,
      "inputs": [
        {
          "name": "_employeeId",
          "type": "uint256"
        },
        {
          "name": "_token",
          "type": "address"
        }
      ],
      "name": "getAllocation",
      "outputs": [
        {
          "name": "",
          "type": "uint256"
        }
      ],
      "payable": false,
      "stateMutability": "view",
      "type": "function"
    },
    {
      "constant": true,
      "inputs": [
        {
          "name": "_token",
          "type": "address"
        }
      ],
      "name": "isTokenAllowed",
      "outputs": [
        {
          "name": "",
          "type": "bool"
        }
      ],
      "payable": false,
      "stateMutability": "view",
      "type": "function"
    }
  ],
  "bytecode": "0x6080604052620000176401000000006200001d810204565b6200023b565b6200003064010000000062000125810204565b60408051808201909152601881527f494e49545f414c52454144595f494e495449414c495a45440000000000000000602082015290156200010c576040517f08c379a00000000000000000000000000000000000000000000000000000000081526004018080602001828103825283818151815260200191508051906020019080838360005b83811015620000d0578181015183820152602001620000b6565b50505050905090810190601f168015620000fe5780820380516001836020036101000a031916815260200191505b509250505060405180910390fd5b506200012360001964010000000062000154810204565b565b60006200014f6000805160206200523283398151915264010000000062002e486200023382021704565b905090565b6200016764010000000062000125810204565b60408051808201909152601881527f494e49545f414c52454144595f494e495449414c495a454400000000000000006020820152901562000206576040517f08c379a000000000000000000000000000000000000000000000000000000000815260040180806020018281038252838181518152602001915080519060200190808383600083811015620000d0578181015183820152602001620000b6565b5062000230600080516020620052328339815191528264010000000062002e4c6200023782021704565b50565b5490565b9055565b614fe7806200024b6000396000f3006080604052600436106102005763ffffffff60e060020a6000350416630803fac081146102055780630a0c75aa1461022e5780631216906b1461024b5780631bb440b11461026c5780631bfe5f61146102935780632350a84d146102a857806327e02676146102cd5780632914b9bd146102f15780632ee235ef14610366578063313b7b191461037b57806332f0a3b51461039057806335285a0f146103a557806337a7b7d8146103ba5780633fe3f1cf146103cf578063456fbfea146104095780634fd52f421461041e578063595da729146104405780637100650e14610455578063724e78da1461046a5780637e7db6e11461048b57806380afdea8146104ac57806388ea9247146104c15780638aaa2284146104d65780638b3dd749146104fc5780639d4941d814610511578063a1658fad14610532578063a479e50814610599578063a52e605f146105ae578063b02b69d6146105c6578063b7cafcc8146105e1578063bca9a5c5146105fc578063bef80ce1146106d3578063bf510ff414610705578063c0774df31461071a578063d4aae0c414610781578063d948d46814610796578063dcb33f3e146107ef578063de4796ed1461081a578063ea199a831461082f578063f6b9fdfb1461086e578063f9eaee0d14610883578063fd64eccb146108a4578063fe2fdf0b146108b9578063ffd5acad146108e5575b600080fd5b34801561021157600080fd5b5061021a610906565b604080519115158252519081900360200190f35b34801561023a57600080fd5b50610249600435602435610930565b005b34801561025757600080fd5b50610249600160a060020a0360043516610b49565b34801561027857600080fd5b50610281610d31565b60408051918252519081900360200190f35b34801561029f57600080fd5b50610281610d55565b3480156102b457600080fd5b5061024960043567ffffffffffffffff60243516610d5b565b3480156102d957600080fd5b50610281600435600160a060020a0360243516610ea0565b3480156102fd57600080fd5b506040805160206004803580820135601f810184900484028501840190955284845261034a943694929360249392840191908190840183828082843750949750610f519650505050505050565b60408051600160a060020a039092168252519081900360200190f35b34801561037257600080fd5b50610281611039565b34801561038757600080fd5b5061034a61105d565b34801561039c57600080fd5b5061034a61106c565b3480156103b157600080fd5b506102816110e5565b3480156103c657600080fd5b5061034a611109565b3480156103db57600080fd5b50610249600160a060020a036004358116906024358116906044351667ffffffffffffffff60643516611118565b34801561041557600080fd5b5061028161128b565b34801561042a57600080fd5b5061024967ffffffffffffffff600435166112af565b34801561044c57600080fd5b5061028161137b565b34801561046157600080fd5b5061028161139f565b34801561047657600080fd5b50610249600160a060020a03600435166113c3565b34801561049757600080fd5b5061021a600160a060020a0360043516611485565b3480156104b857600080fd5b5061028161148b565b3480156104cd57600080fd5b506102816114bb565b3480156104e257600080fd5b50610249600160a060020a036004351660243515156114df565b34801561050857600080fd5b50610281611696565b34801561051d57600080fd5b50610249600160a060020a03600435166116c1565b34801561053e57600080fd5b50604080516020600460443581810135838102808601850190965280855261021a958335600160a060020a03169560248035963696956064959394920192918291850190849080828437509497506119509650505050505050565b3480156105a557600080fd5b5061034a611aa0565b3480156105ba57600080fd5b50610281600435611b87565b3480156105d257600080fd5b50610249600435602435611c28565b3480156105ed57600080fd5b50610249600435602435611d5c565b34801561060857600080fd5b50610614600435611e90565b6040518089600160a060020a0316600160a060020a031681526020018881526020018781526020018681526020018581526020018467ffffffffffffffff1667ffffffffffffffff1681526020018367ffffffffffffffff1667ffffffffffffffff16815260200180602001828103825283818151815260200191508051906020019060200280838360005b838110156106b85781810151838201526020016106a0565b50505050905001995050505050505050505060405180910390f35b3480156106df57600080fd5b506106e861200b565b6040805167ffffffffffffffff9092168252519081900360200190f35b34801561071157600080fd5b50610281612022565b34801561072657600080fd5b5060408051602060046024803582810135601f810185900485028601850190965285855261021a958335600160a060020a03169536956044949193909101919081908401838280828437509497506120469650505050505050565b34801561078d57600080fd5b5061034a61206f565b3480156107a257600080fd5b506040805160206004803580820135601f810184900484028501840190955284845261024994369492936024939284019190819084018382808284375094975061209a9650505050505050565b3480156107fb57600080fd5b506102496004803560ff1690602480359160443591820191013561219d565b34801561082657600080fd5b5061021a6125df565b34801561083b57600080fd5b5061024960048035600160a060020a031690602480359160443567ffffffffffffffff16916064359081019101356125f2565b34801561087a57600080fd5b5061034a6126ed565b34801561088f57600080fd5b5061021a600160a060020a03600435166126fc565b3480156108b057600080fd5b5061021a6127ac565b3480156108c557600080fd5b5061024960246004803582810192908201359181359182019101356127b1565b3480156108f157600080fd5b50610281600160a060020a0360043516612c1d565b600080610911611696565b90508015801590610929575080610926612cca565b10155b91505b5090565b60008281526004602052604081206001015481907fea9ac65018da2421cf419ee2152371440c08267a193a33ccc1e39545d197e44d906109739086908690612cce565b61097e338383611950565b60408051808201909152600f8152600080516020614efc8339815191526020820152901515610a2e5760405160e560020a62461bcd0281526004018080602001828103825283818151815260200191508051906020019080838360005b838110156109f35781810151838201526020016109db565b50505050905090810190601f168015610a205780820380516001836020036101000a031916815260200191505b509250505060405180910390fd5b5085610a3981612d47565b60408051808201909152601b8152600080516020614f5c8339815191526020820152901515610aad5760405160e560020a62461bcd028152600401808060200182810382528381815181526020019150805190602001908083836000838110156109f35781810151838201526020016109db565b5060008781526004602052604081209550610ac9908690612d64565b9350610ad58785612dd3565b610add612e36565b60058601805467ffffffffffffffff9290921667ffffffffffffffff199092169190911790556001850186905560408051878152905188917fec4f21c1230ce7d88517d17b1f8ae85725a029dc2066fe2ed6401f1b01024e05919081900360200190a250505050505050565b33600081815260056020908152604080832054835260048252808320548151808301909252601d8252600080516020614f3c833981519152928201929092529192839291600160a060020a031614610be65760405160e560020a62461bcd028152600401808060200182810382528381815181526020019150805190602001908083836000838110156109f35781810151838201526020016109db565b50610bfe600080516020614f9c833981519152612e48565b6040805180820190915260198152600080516020614f1c83398151915260208201529015610c715760405160e560020a62461bcd028152600401808060200182810382528381815181526020019150805190602001908083836000838110156109f35781810151838201526020016109db565b50610c91600080516020614f9c833981519152600163ffffffff612e4c16565b505033600090815260056020908152604080832054808452600490925290912054600160a060020a0316610cc58284612e50565b600160a060020a0380821660008181526005602052604080822082905551919286169185917f5a3949ffa1f5851afea532ad9d4c7dfb51bf68f7d5964ff77f3bb4c0abedbbe491a4610d2c600080516020614f9c833981519152600063ffffffff612e4c16565b505050565b7f0be34987c45700ee3fae8c55e270418ba903337decc6bacb1879504be9331c0681565b60035481565b7f69c67f914d12b6440e7ddf01961214818d9158fbcb19211e0ff42800fdea9242610d908367ffffffffffffffff8416612fbb565b610d9b338383611950565b60408051808201909152600f8152600080516020614efc8339815191526020820152901515610e0f5760405160e560020a62461bcd028152600401808060200182810382528381815181526020019150805190602001908083836000838110156109f35781810151838201526020016109db565b5083610e1a81612d47565b60408051808201909152601b8152600080516020614f5c8339815191526020820152901515610e8e5760405160e560020a62461bcd028152600401808060200182810382528381815181526020019150805190602001908083836000838110156109f35781810151838201526020016109db565b50610e998585613016565b5050505050565b600082610eac81613133565b60408051808201909152601d8152600080516020614f7c8339815191526020820152901515610f205760405160e560020a62461bcd028152600401808060200182810382528381815181526020019150805190602001908083836000838110156109f35781810151838201526020016109db565b506000848152600460209081526040808320600160a060020a038716845260070190915290205491505b5092915050565b6000610f5b611aa0565b600160a060020a03166304bf2a7f836040518263ffffffff1660e060020a0281526004018080602001828103825283818151815260200191508051906020019080838360005b83811015610fb9578181015183820152602001610fa1565b50505050905090810190601f168015610fe65780820380516001836020036101000a031916815260200191505b5092505050602060405180830381600087803b15801561100557600080fd5b505af1158015611019573d6000803e3d6000fd5b505050506040513d602081101561102f57600080fd5b505190505b919050565b7f79fe989a8899060dfbdabb174ebb96616fa9f1d9dadd739f8d814cbab452404e81565b600054600160a060020a031681565b600061107661206f565b600160a060020a03166332f0a3b56040518163ffffffff1660e060020a028152600401602060405180830381600087803b1580156110b357600080fd5b505af11580156110c7573d6000803e3d6000fd5b505050506040513d60208110156110dd57600080fd5b505190505b90565b7fceca7e2f5eb749a87aaf68f3f76d6b9251aa2f4600f13f93c5a4adf7a72df4ae81565b600254600160a060020a031681565b611120611696565b60408051808201909152601881527f494e49545f414c52454144595f494e495449414c495a45440000000000000000602082015290156111a55760405160e560020a62461bcd028152600401808060200182810382528381815181526020019150805190602001908083836000838110156109f35781810151838201526020016109db565b506111ae613150565b6111b784613218565b60408051808201909152601c81527f504159524f4c4c5f46494e414e43455f4e4f545f434f4e545241435400000000602082015290151561123d5760405160e560020a62461bcd028152600401808060200182810382528381815181526020019150805190602001908083836000838110156109f35781810151838201526020016109db565b5060008054600160a060020a03808716600160a060020a03199283161790925560018054928616929091169190911790556112778261323e565b6112808161331e565b505060016003555050565b7fea9ac65018da2421cf419ee2152371440c08267a193a33ccc1e39545d197e44d81565b6002547f79fe989a8899060dfbdabb174ebb96616fa9f1d9dadd739f8d814cbab452404e906112f29067ffffffffffffffff8085169160a060020a900416612fbb565b6112fd338383611950565b60408051808201909152600f8152600080516020614efc83398151915260208201529015156113715760405160e560020a62461bcd028152600401808060200182810382528381815181526020019150805190602001908083836000838110156109f35781810151838201526020016109db565b50610d2c8361331e565b7f74350efbcba8b85341c5bbf70cc34e2a585fc1463524773a12fa0a71d4eb930281565b7f69c67f914d12b6440e7ddf01961214818d9158fbcb19211e0ff42800fdea924281565b6002547f74350efbcba8b85341c5bbf70cc34e2a585fc1463524773a12fa0a71d4eb9302906113fc908390600160a060020a031661342c565b611407338383611950565b60408051808201909152600f8152600080516020614efc833981519152602082015290151561147b5760405160e560020a62461bcd028152600401808060200182810382528381815181526020019150805190602001908083836000838110156109f35781810151838201526020016109db565b50610d2c8361323e565b50600190565b60006114b67fd625496217aa6a3453eecb9c3489dc5a53e6c67b444329ea2b2cbc9ff547639b612e48565b905090565b7f90698b9d54427f1e41636025017309bdb1b55320da960c8845bab0a504b01a1681565b7f0be34987c45700ee3fae8c55e270418ba903337decc6bacb1879504be9331c066115098361344a565b611514338383611950565b60408051808201909152600f8152600080516020614efc83398151915260208201529015156115885760405160e560020a62461bcd028152600401808060200182810382528381815181526020019150805190602001908083836000838110156109f35781810151838201526020016109db565b50600160a060020a038416600090815260066020908152604091829020548251808401909352601983527f504159524f4c4c5f544f4b454e5f414c52454144595f534554000000000000009183019190915260ff16151584151514156116335760405160e560020a62461bcd028152600401808060200182810382528381815181526020019150805190602001908083836000838110156109f35781810151838201526020016109db565b50600160a060020a038416600081815260066020908152604091829020805460ff1916871515908117909155825190815291517fe589eb036e62c07e307aa4d441bd39c81e8bd86f349eaacb0caa06b1477f7f9a9281900390910190a250505050565b60006114b67febb05b386a8d34882b8711d156f463690983dc47815980fb82aeeff1aa43579e612e48565b60008060006116cf84611485565b60408051808201909152601281527f5245434f5645525f444953414c4c4f574544000000000000000000000000000060208201529015156117555760405160e560020a62461bcd028152600401808060200182810382528381815181526020019150805190602001908083836000838110156109f35781810151838201526020016109db565b5061175e61106c565b925061176983613218565b60408051808201909152601a81527f5245434f5645525f5641554c545f4e4f545f434f4e545241435400000000000060208201529015156117ef5760405160e560020a62461bcd028152600401808060200182810382528381815181526020019150805190602001908083836000838110156109f35781810151838201526020016109db565b50600160a060020a03841615156118405760405130319250600160a060020a0384169083156108fc029084906000818181858888f1935050505015801561183a573d6000803e3d6000fd5b506118ff565b508261185b600160a060020a0382163063ffffffff61346216565b9150611877600160a060020a038216848463ffffffff61356216565b60408051808201909152601d81527f5245434f5645525f544f4b454e5f5452414e534645525f4641494c454400000060208201529015156118fd5760405160e560020a62461bcd028152600401808060200182810382528381815181526020019150805190602001908083836000838110156109f35781810151838201526020016109db565b505b83600160a060020a031683600160a060020a03167f596caf56044b55fb8c4ca640089bbc2b63cae3e978b851f5745cbb7c5b288e02846040518082815260200191505060405180910390a350505050565b60008061195b610906565b151561196a5760009150611a98565b61197261206f565b9050600160a060020a038116151561198d5760009150611a98565b80600160a060020a031663fdef91068630876119a8886135d8565b60405160e060020a63ffffffff8716028152600160a060020a03808616600483019081529085166024830152604482018490526080606483019081528351608484015283519192909160a490910190602085019080838360005b83811015611a1a578181015183820152602001611a02565b50505050905090810190601f168015611a475780820380516001836020036101000a031916815260200191505b5095505050505050602060405180830381600087803b158015611a6957600080fd5b505af1158015611a7d573d6000803e3d6000fd5b505050506040513d6020811015611a9357600080fd5b505191505b509392505050565b600080611aab61206f565b604080517fbe00bbd80000000000000000000000000000000000000000000000000000000081527fd6f028ca0e8edb4a8c9757ca4fdccab25fa1e0317da1188108f7d2dee14902fb60048201527fddbcfd564f642ab5627cf68b9b7d374fb4f8a36e941a75d89c87998cef03bd6160248201529051600160a060020a03929092169163be00bbd8916044808201926020929091908290030181600087803b158015611b5557600080fd5b505af1158015611b69573d6000803e3d6000fd5b505050506040513d6020811015611b7f57600080fd5b505192915050565b600081611b9381613133565b60408051808201909152601d8152600080516020614f7c8339815191526020820152901515611c075760405160e560020a62461bcd028152600401808060200182810382528381815181526020019150805190602001908083836000838110156109f35781810151838201526020016109db565b506000838152600460205260409020611c1f906135e2565b91505b50919050565b7fceca7e2f5eb749a87aaf68f3f76d6b9251aa2f4600f13f93c5a4adf7a72df4ae611c538383612fbb565b611c5e338383611950565b60408051808201909152600f8152600080516020614efc8339815191526020820152901515611cd25760405160e560020a62461bcd028152600401808060200182810382528381815181526020019150805190602001908083836000838110156109f35781810151838201526020016109db565b5083611cdd81612d47565b60408051808201909152601b8152600080516020614f5c8339815191526020820152901515611d515760405160e560020a62461bcd028152600401808060200182810382528381815181526020019150805190602001908083836000838110156109f35781810151838201526020016109db565b50610e998585613615565b7f90698b9d54427f1e41636025017309bdb1b55320da960c8845bab0a504b01a16611d878383612fbb565b611d92338383611950565b60408051808201909152600f8152600080516020614efc8339815191526020820152901515611e065760405160e560020a62461bcd028152600401808060200182810382528381815181526020019150805190602001908083836000838110156109f35781810151838201526020016109db565b5083611e1181612d47565b60408051808201909152601b8152600080516020614f5c8339815191526020820152901515611e855760405160e560020a62461bcd028152600401808060200182810382528381815181526020019150805190602001908083836000838110156109f35781810151838201526020016109db565b50610e998585613678565b60008060008060008060006060600089611ea981613133565b60408051808201909152601d8152600080516020614f7c8339815191526020820152901515611f1d5760405160e560020a62461bcd028152600401808060200182810382528381815181526020019150805190602001908083836000838110156109f35781810151838201526020016109db565b50600460008c815260200190815260200160002091508160000160009054906101000a9004600160a060020a03169950816001015498508160020154975081600301549650816004015495508160050160009054906101000a900467ffffffffffffffff1694508160050160089054906101000a900467ffffffffffffffff16935081600601805480602002602001604051908101604052809291908181526020018280548015611ff757602002820191906000526020600020905b8154600160a060020a03168152600190910190602001808311611fd9575b505050505092505050919395975091939597565b60025460a060020a900467ffffffffffffffff1681565b7f9ecdc3c63716b45d0756eece5fe1614cae1889ec5a1ce62b3127c1f1f1615d6e81565b600160a060020a03821660009081526005602052604081205461206890612d47565b9392505050565b60006114b67f4172f0f7d2289153072b0a6ca36959e0cbe2efc3afe50fc81636caa96338137b612e48565b6060806120a73384612046565b60408051808201909152601781527f504159524f4c4c5f43414e5f4e4f545f464f5257415244000000000000000000602082015290151561212d5760405160e560020a62461bcd028152600401808060200182810382528381815181526020019150805190602001908083836000838110156109f35781810151838201526020016109db565b506040805160008152600160208083018281526060840185529295509192909190850190803883395050600080548351939450600160a060020a031692849250811061217557fe5b600160a060020a039092166020928302909101909101526121978383836136dd565b50505050565b33600081815260056020908152604080832054835260048252808320548151808301909252601d8252600080516020614f3c833981519152928201929092529192839283928392839283929091600160a060020a03909116146122455760405160e560020a62461bcd028152600401808060200182810382528381815181526020019150805190602001908083836000838110156109f35781810151838201526020016109db565b5061225d600080516020614f9c833981519152612e48565b6040805180820190915260198152600080516020614f1c833981519152602082015290156122d05760405160e560020a62461bcd028152600401808060200182810382528381815181526020019150805190602001908083836000838110156109f35781810151838201526020016109db565b506122f0600080516020614f9c833981519152600163ffffffff612e4c16565b336000908152600560209081526040808320548084526004909252909120909550935061231c84613ce2565b86158061232c5750600684015487145b60408051808201909152601a81527f504159524f4c4c5f4d494e5f52415445535f4d49534d4154434800000000000060208201529015156123b25760405160e560020a62461bcd028152600401808060200182810382528381815181526020019150805190602001908083836000838110156109f35781810151838201526020016109db565b5060008a60028111156123c157fe5b14156123ed576123d0846135e2565b92506123dc838a613ee2565b95506123e88487614002565b6124eb565b60018a60028111156123fb57fe5b141561242e5783600401549150612412828a613ee2565b9550612424828763ffffffff61416b16565b60048501556124eb565b60028a600281111561243c57fe5b141561246e57506003830154612452818a613ee2565b9550612464818763ffffffff61416b16565b60038501556124eb565b604080518082018252601c81527f504159524f4c4c5f494e56414c49445f5041594d454e545f54595045000000006020808301918252925160e560020a62461bcd028152600481019384528251602482015282519293928392604490920191908083836000838110156109f35781810151838201526020016109db565b612524858b888b8b80806020026020016040519081016040528093929190818152602001838360200280828437506141ff945050505050565b60408051808201909152601481527f504159524f4c4c5f4e4f5448494e475f5041494400000000000000000000000060208201529015156125aa5760405160e560020a62461bcd028152600401808060200182810382528381815181526020019150805190602001908083836000838110156109f35781810151838201526020016109db565b506125b48561460d565b6125d3600080516020614f9c833981519152600063ffffffff612e4c16565b50505050505050505050565b60006000196125ec611696565b14905090565b7f9ecdc3c63716b45d0756eece5fe1614cae1889ec5a1ce62b3127c1f1f1615d6e612628868667ffffffffffffffff87166146e8565b612633338383611950565b60408051808201909152600f8152600080516020614efc83398151915260208201529015156126a75760405160e560020a62461bcd028152600401808060200182810382528381815181526020019150805190602001908083836000838110156109f35781810151838201526020016109db565b506126e487878787878080601f01602080910402602001604051908101604052809392919081815260200183838082843750614706945050505050565b50505050505050565b600154600160a060020a031681565b6000612706610906565b60408051808201909152601481527f494e49545f4e4f545f494e495449414c495a4544000000000000000000000000602082015290151561278c5760405160e560020a62461bcd028152600401808060200182810382528381815181526020019150805190602001908083836000838110156109f35781810151838201526020016109db565b5050600160a060020a031660009081526006602052604090205460ff1690565b600190565b33600081815260056020908152604080832054835260048252808320548151808301909252601d8252600080516020614f3c83398151915292820192909252919283926060928492839291600160a060020a0316146128555760405160e560020a62461bcd028152600401808060200182810382528381815181526020019150805190602001908083836000838110156109f35781810151838201526020016109db565b5061286d600080516020614f9c833981519152612e48565b6040805180820190915260198152600080516020614f1c833981519152602082015290156128e05760405160e560020a62461bcd028152600401808060200182810382528381815181526020019150805190602001908083836000838110156109f35781810151838201526020016109db565b50612900600080516020614f9c833981519152600163ffffffff612e4c16565b60408051808201909152601a81527f504159524f4c4c5f4d41585f414c4c4f5745445f544f4b454e53000000000000602082015260148911156129885760405160e560020a62461bcd028152600401808060200182810382528381815181526020019150805190602001908083836000838110156109f35781810151838201526020016109db565b5060408051606081018252602181527f504159524f4c4c5f544f4b454e5f414c4c4f434154494f4e5f4d49534d41544360208201527f480000000000000000000000000000000000000000000000000000000000000091810191909152888714612a375760405160e560020a62461bcd028152600401808060200182810382528381815181526020019150805190602001908083836000838110156109f35781810151838201526020016109db565b5033600090815260056020908152604080832054808452600483529281902060068101805483518186028101860190945280845294995090975090929091830182828015612aae57602002820191906000526020600020905b8154600160a060020a03168152600190910190602001808311612a90575b50505050509250600091505b8251821015612b07578360070160008484815181101515612ad757fe5b6020908102909101810151600160a060020a03168252810191909152604001600090812055600190910190612aba565b612b15600685016000614ec0565b5060005b87811015612bbf5760068401898983818110612b3157fe5b83546001810185556000948552602094859020018054600160a060020a031916600160a060020a039590920293909301359390931692909217905550868682818110612b7957fe5b905060200201358460070160008b8b858181101515612b9457fe5b60209081029290920135600160a060020a031683525081019190915260400160002055600101612b19565b612bc884613ce2565b60405185907f2e68f13a32c51068abe241b8c7db891d265385114938311f83a31583b2a11d7a90600090a2612c12600080516020614f9c833981519152600063ffffffff612e4c16565b505050505050505050565b600160a060020a0381166000908152600560209081526040808320548151808301909252601d8252600080516020614f7c83398151915292820192909252901515612cad5760405160e560020a62461bcd028152600401808060200182810382528381815181526020019150805190602001908083836000838110156109f35781810151838201526020016109db565b5050600160a060020a031660009081526005602052604090205490565b4390565b6040805160038082526080820190925260609160208201838038833901905050905083816000815181101515612d0057fe5b602090810290910101528051839082906001908110612d1b57fe5b602090810290910101528051829082906002908110612d3657fe5b602090810290910101529392505050565b6000818152600460205260408120612d5e90614842565b92915050565b600080600080612d7386614876565b9250821515612d855760009350612dca565b856001015491508415612dba5750808202818382811515612da257fe5b041415612daf5780612db3565b6000195b9350612dca565b612db3828463ffffffff6148ef16565b50505092915050565b60008281526004602052604090206002810154612df6908363ffffffff61499a16565b600282015560408051838152905184917f494c76e58dab1186acc63fd537885795bd237ae0feb2d4d3f6092ca77f594f83919081900360200190a2505050565b60006114b6612e43614a28565b614a2c565b5490565b9055565b60408051808201909152601d81527f504159524f4c4c5f454d504c4f5945455f4e554c4c5f414444524553530000006020820152600160a060020a0382161515612edf5760405160e560020a62461bcd028152600401808060200182810382528381815181526020019150805190602001908083836000838110156109f35781810151838201526020016109db565b50600160a060020a038116600090815260056020908152604091829020548251808401909352601e83527f504159524f4c4c5f454d504c4f5945455f414c52454144595f455849535400009183019190915215612f815760405160e560020a62461bcd028152600401808060200182810382528381815181526020019150805190602001908083836000838110156109f35781810151838201526020016109db565b5060008281526004602090815260408083208054600160a060020a03909516600160a060020a031990951685179055928252600590522055565b604080516002808252606080830184529260208301908038833901905050905082816000815181101515612feb57fe5b60209081029091010152805182908290600190811061300657fe5b6020908102909101015292915050565b61301e612e36565b60408051808201909152601d81527f504159524f4c4c5f504153545f5445524d494e4154494f4e5f4441544500000060208201529067ffffffffffffffff90811690831610156130b35760405160e560020a62461bcd028152600401808060200182810382528381815181526020019150805190602001908083836000838110156109f35781810151838201526020016109db565b5060008281526004602090815260409182902060050180546fffffffffffffffff000000000000000019166801000000000000000067ffffffffffffffff8616908102919091179091558251908152915184927f64eed8d28fe1c502b235bba967ed50243ed5fbda55daa5388ede25613185f8af92908290030190a25050565b600090815260046020526040902054600160a060020a0316151590565b613158611696565b60408051808201909152601881527f494e49545f414c52454144595f494e495449414c495a45440000000000000000602082015290156131dd5760405160e560020a62461bcd028152600401808060200182810382528381815181526020019150805190602001908083836000838110156109f35781810151838201526020016109db565b506132166131e9612cca565b7febb05b386a8d34882b8711d156f463690983dc47815980fb82aeeff1aa43579e9063ffffffff612e4c16565b565b600080600160a060020a03831615156132345760009150611c22565b50506000903b1190565b61324781613218565b60408051808201909152601981527f504159524f4c4c5f464545445f4e4f545f434f4e54524143540000000000000060208201529015156132cd5760405160e560020a62461bcd028152600401808060200182810382528381815181526020019150805190602001908083836000838110156109f35781810151838201526020016109db565b5060028054600160a060020a031916600160a060020a0383811691909117918290556040519116907ff724a45d041687842411f2b977ef22ab8f43c8f1104f4592b42a00f9b34a643d90600090a250565b60408051808201909152601d81527f504159524f4c4c5f4558504952595f54494d455f544f4f5f53484f52540000006020820152603c67ffffffffffffffff831610156133b05760405160e560020a62461bcd028152600401808060200182810382528381815181526020019150805190602001908083836000838110156109f35781810151838201526020016109db565b506002805467ffffffffffffffff80841660a060020a9081027bffffffffffffffff0000000000000000000000000000000000000000199093169290921792839055604080519290930416815290517f79f849dfd7cf0efc92191ac811c877afb4d27891c560189c77117e755b103a3e9181900360200190a150565b606061206883600160a060020a031683600160a060020a0316612fbb565b6060612d5e82600160a060020a0316614ac9565b5490565b60408051600160a060020a038316602480830191909152825180830390910181526044909101909152602081018051600160e060020a03167f70a082310000000000000000000000000000000000000000000000000000000017905260009081806134cd8684614b0a565b60408051808201909152601c81527f534146455f4552435f32305f42414c414e43455f524556455254454400000000602082015291935091508215156135585760405160e560020a62461bcd028152600401808060200182810382528381815181526020019150805190602001908083836000838110156109f35781810151838201526020016109db565b5095945050505050565b60408051600160a060020a03841660248201526044808201849052825180830390910181526064909101909152602081018051600160e060020a03167fa9059cbb000000000000000000000000000000000000000000000000000000001790526000906135cf8582614b3b565b95945050505050565b8051602002815290565b60008060006135f2846001612d64565b91508360020154820190508181101561360a57506000195b8092505b5050919050565b60008281526004602052604090206003810154613638908363ffffffff61499a16565b600382015560408051838152905184917f02eaf727c9cb2b9ae1c0d973092bfa6431d79978bf1db9f57ec4279a8c1eb85a919081900360200190a2505050565b60008281526004602081905260409091209081015461369d908363ffffffff61499a16565b600482015560408051838152905184917f594fd22b20a17265cf2b4459acd7f1b6fa11f6a0046fa052bba6ef7f1ee95392919081900360200190a2505050565b60606000806060806136ed610906565b60408051808201909152601481527f494e49545f4e4f545f494e495449414c495a454400000000000000000000000060208201529015156137735760405160e560020a62461bcd028152600401808060200182810382528381815181526020019150805190602001908083836000838110156109f35781810151838201526020016109db565b5060008061377f61206f565b915061378961148b565b90506137948a610f51565b60408051808201909152601b81527f45564d52554e5f4558454355544f525f554e415641494c41424c4500000000006020820152909650600160a060020a03871615156138265760405160e560020a62461bcd028152600401808060200182810382528381815181526020019150805190602001908083836000838110156109f35781810151838201526020016109db565b506040516060602482019081528b5160848301528b517f279cea3500000000000000000000000000000000000000000000000000000000975087928d928d928d9282916044820191606481019160a490910190602089019080838360005b8381101561389c578181015183820152602001613884565b50505050905090810190601f1680156138c95780820380516001836020036101000a031916815260200191505b50848103835286518152865160209182019188019080838360005b838110156138fc5781810151838201526020016138e4565b50505050905090810190601f1680156139295780820380516001836020036101000a031916815260200191505b508481038252855181528551602091820191808801910280838360005b8381101561395e578181015183820152602001613946565b50505050905001965050505050505060405160208183030381529060405290600160e060020a031916602082018051600160e060020a0383818316178352505050509350600080855160208701895af46040519350808015613a2257603f3d1180156139d75760203d03806020883e8601604052613a1c565b60e560020a62461bcd02865260206004870152601e60248701527f45564d52554e5f4558454355544f525f494e56414c49445f52455455524e00006044870152606486fd5b50613a2b565b3d6000863e3d85fd5b505085600160a060020a03167f5229a5dba83a54ae8cb5b51bdd6de9474cacbe9dd332f5185f3a4f4f2e3f4ad98b8b8660405180806020018060200180602001848103845287818151815260200191508051906020019080838360005b83811015613aa0578181015183820152602001613a88565b50505050905090810190601f168015613acd5780820380516001836020036101000a031916815260200191505b50848103835286518152865160209182019188019080838360005b83811015613b00578181015183820152602001613ae8565b50505050905090810190601f168015613b2d5780820380516001836020036101000a031916815260200191505b50848103825285518152855160209182019187019080838360005b83811015613b60578181015183820152602001613b48565b50505050905090810190601f168015613b8d5780820380516001836020036101000a031916815260200191505b50965050505050505060405180910390a282965081600160a060020a0316613bb361206f565b600160a060020a0316146040805190810160405280601f81526020017f45564d52554e5f50524f5445435445445f53544154455f4d4f44494649454400815250901515613c455760405160e560020a62461bcd028152600401808060200182810382528381815181526020019150805190602001908083836000838110156109f35781810151838201526020016109db565b5080613c4f61148b565b60408051808201909152601f81527f45564d52554e5f50524f5445435445445f53544154455f4d4f4449464945440060208201529114613cd45760405160e560020a62461bcd028152600401808060200182810382528381815181526020019150805190602001908083836000838110156109f35781810151838201526020016109db565b505050505050509392505050565b600060606000806000935084600601805480602002602001604051908101604052809291908181526020018280548015613d4557602002820191906000526020600020905b8154600160a060020a03168152600190910190602001808311613d27575b50505050509250600091505b8251821015613e53578282815181101515613d6857fe5b6020908102909101810151600160a060020a038116600090815260068352604090819020548151808301909252601982527f504159524f4c4c5f4e4f545f414c4c4f5745445f544f4b454e00000000000000938201939093529092509060ff161515613e195760405160e560020a62461bcd028152600401808060200182810382528381815181526020019150805190602001908083836000838110156109f35781810151838201526020016109db565b50600160a060020a0381166000908152600786016020526040902054613e4690859063ffffffff61499a16565b9350600190910190613d51565b60408051808201909152601d81527f504159524f4c4c5f444953545249425554494f4e5f4e4f545f46554c4c000000602082015260648514613eda5760405160e560020a62461bcd028152600401808060200182810382528381815181526020019150805190602001908083836000838110156109f35781810151838201526020016109db565b505050505050565b60408051808201909152601481527f504159524f4c4c5f4e4f5448494e475f504149440000000000000000000000006020820152600090818411613f6b5760405160e560020a62461bcd028152600401808060200182810382528381815181526020019150805190602001908083836000838110156109f35781810151838201526020016109db565b5060408051808201909152601d81527f504159524f4c4c5f494e56414c49445f5245515545535445445f414d54000000602082015282841015613ff35760405160e560020a62461bcd028152600401808060200182810382528381815181526020019150805190602001908083836000838110156109f35781810151838201526020016109db565b5060008211611c225782612068565b6002820154600080808080858711614021578686036002890155614161565b869450600086111561403a576000600289015585870394505b60018801549350614051858563ffffffff614b8916565b9250838581151561405e57fe5b06915060008211156140865761407b83600163ffffffff61499a16565b82850360028a015592505b60058801546140a59067ffffffffffffffff168463ffffffff61499a16565b90506140af612e36565b60408051808201909152601981527f504159524f4c4c5f4c4153545f444154455f544f4f5f4249470000000000000060208201529067ffffffffffffffff168211156141405760405160e560020a62461bcd028152600401808060200182810382528381815181526020019150805190602001908083836000838110156109f35781810151838201526020016109db565b5060058801805467ffffffffffffffff191667ffffffffffffffff83161790555b5050505050505050565b60408051808201909152601281527f4d4154485f5355425f554e444552464c4f57000000000000000000000000000060208201526000908190848411156141f75760405160e560020a62461bcd028152600401808060200182810382528381815181526020019150805190602001908083836000838110156109f35781810151838201526020016109db565b505050900390565b6000808060608180808080808b151561421b57600099506145fc565b60008e81526004602052604090208054909950600160a060020a031697506142428d614c29565b9650886006019550600094505b85548510156145fc57858581548110151561426657fe5b6000918252602080832090910154600160a060020a031680835260078c01909152604090912054909450925082156145f1576142a184614d15565b915060008b51116142b557600082116142d1565b8a858151811015156142c357fe5b906020019060200201518210155b60408051808201909152601d81527f504159524f4c4c5f45584348414e47455f524154455f544f4f5f4c4f5700000060208201529015156143575760405160e560020a62461bcd028152600401808060200182810382528381815181526020019150805190602001908083836000838110156109f35781810151838201526020016109db565b506143788361436c8e8563ffffffff6148ef16565b9063ffffffff6148ef16565b9050614419600260009054906101000a9004600160a060020a0316600160a060020a031663f40a04486040518163ffffffff1660e060020a028152600401602060405180830381600087803b1580156143d057600080fd5b505af11580156143e4573d6000803e3d6000fd5b505050506040513d60208110156143fa57600080fd5b505161440d83606463ffffffff614b8916565b9063ffffffff614b8916565b90506000809054906101000a9004600160a060020a0316600160a060020a031663f6364846858a848b6040518563ffffffff1660e060020a0281526004018085600160a060020a0316600160a060020a0316815260200184600160a060020a0316600160a060020a0316815260200183815260200180602001828103825283818151815260200191508051906020019080838360005b838110156144c75781810151838201526020016144af565b50505050905090810190601f1680156144f45780820380516001836020036101000a031916815260200191505b5095505050505050600060405180830381600087803b15801561451657600080fd5b505af115801561452a573d6000803e3d6000fd5b5050505083600160a060020a031688600160a060020a03168f7fc517ef2ebef7336f05f233ebf372c7096b88120031a6cfd2e3b1bb7697ae7bf984868c6040518084815260200183815260200180602001828103825283818151815260200191508051906020019080838360005b838110156145b0578181015183820152602001614598565b50505050905090810190601f1680156145dd5780820380516001836020036101000a031916815260200191505b5094505050505060405180910390a4600199505b60019094019361424f565b505050505050505050949350505050565b6000818152600460205260409020600581015467ffffffffffffffff80821668010000000000000000909204161480156146645750600281015415801561465657506003810154155b801561466457506004810154155b156146e4578054600160a060020a0316600090815260056020818152604080842084905585845260049182905283208054600160a060020a031916815560018101849055600281018490556003810184905590810183905590810180546fffffffffffffffffffffffffffffffff19169055906121976006830182614ec0565b5050565b60606146fe84600160a060020a03168484612cce565b949350505050565b6003805460018101909155600061471d8287612e50565b506000818152600460209081526040808320600181018890556005810180546fffffffffffffffff00000000000000001967ffffffffffffffff8a1667ffffffffffffffff199092168217166fffffffffffffffff000000000000000017909155825189815280850191909152606092810183815287519382019390935286519194600160a060020a038b169487947f3ffb58fcadedbe7d45e1447eaeeba102f5ac5bbd44b7b99eab1dff2772d07225948c948c948c9491939260808501928601918190849084905b838110156147fe5781810151838201526020016147e6565b50505050905090810190601f16801561482b5780820380516001836020036101000a031916815260200191505b5094505050505060405180910390a3505050505050565b600061484c612e36565b600583015467ffffffffffffffff9182166801000000000000000090910490911610159050919050565b60008061488283614842565b6148a657600583015468010000000000000000900467ffffffffffffffff166148ae565b6148ae612e36565b600584015490915067ffffffffffffffff908116908216116148d35760009150611c22565b600583015467ffffffffffffffff908116820316915050919050565b6000808315156149025760009150610f4a565b5082820282848281151561491257fe5b60408051808201909152601181527f4d4154485f4d554c5f4f564552464c4f5700000000000000000000000000000060208201529291900414611a985760405160e560020a62461bcd028152600401808060200182810382528381815181526020019150805190602001908083836000838110156109f35781810151838201526020016109db565b60408051808201909152601181527f4d4154485f4144445f4f564552464c4f5700000000000000000000000000000060208201526000908383019084821015611a985760405160e560020a62461bcd028152600401808060200182810382528381815181526020019150805190602001908083836000838110156109f35781810151838201526020016109db565b4290565b60408051808201909152601581527f55494e5436345f4e554d4245525f544f4f5f4249470000000000000000000000602082015260009067ffffffffffffffff831115614abe5760405160e560020a62461bcd028152600401808060200182810382528381815181526020019150805190602001908083836000838110156109f35781810151838201526020016109db565b5090919050565b9055565b6040805160018082528183019092526060916020808301908038833901905050905081816000815181101515614afb57fe5b60209081029091010152919050565b6000806000806040516020818751602089018a5afa92506000831115614b2f57805191505b50909590945092505050565b6000806040516020818551602087016000895af16000811115614b7f573d8015614b6c5760208114614b7557614b7d565b60019350614b7d565b600183511493505b505b5090949350505050565b60408051808201909152600d81527f4d4154485f4449565f5a45524f0000000000000000000000000000000000000060208201526000908190818411614c145760405160e560020a62461bcd028152600401808060200182810382528381815181526020019150805190602001908083836000838110156109f35781810151838201526020016109db565b508284811515614c2057fe5b04949350505050565b60606000826002811115614c3957fe5b1415614c79575060408051808201909152600f81527f456d706c6f7965652073616c61727900000000000000000000000000000000006020820152611034565b6001826002811115614c8757fe5b1415614cc7575060408051808201909152601681527f456d706c6f796565207265696d62757273656d656e74000000000000000000006020820152611034565b6002826002811115614cd557fe5b141561246e575060408051808201909152600e81527f456d706c6f79656520626f6e75730000000000000000000000000000000000006020820152611034565b600254600154604080517fd81e8423000000000000000000000000000000000000000000000000000000008152600160a060020a039283166004820152848316602482015281516000948594859491169263d81e8423926044808301939282900301818787803b158015614d8857600080fd5b505af1158015614d9c573d6000803e3d6000fd5b505050506040513d6040811015614db257600080fd5b508051602090910151600254919350915060a060020a900467ffffffffffffffff16614df682614de0612e36565b67ffffffffffffffff169063ffffffff614e2716565b67ffffffffffffffff1610614e0e576000925061360e565b506fffffffffffffffffffffffffffffffff1692915050565b60408051808201909152601481527f4d41544836345f5355425f554e444552464c4f570000000000000000000000006020820152600090819067ffffffffffffffff80861690851611156141f75760405160e560020a62461bcd028152600401808060200182810382528381815181526020019150805190602001908083836000838110156109f35781810151838201526020016109db565b5080546000825590600052602060002090810190614ede9190614ee1565b50565b6110e291905b8082111561092c5760008155600101614ee756004150505f415554485f4641494c454400000000000000000000000000000000005245454e5452414e43595f5245454e5452414e545f43414c4c00000000000000504159524f4c4c5f53454e4445525f444f45535f4e4f545f4d41544348000000504159524f4c4c5f4e4f4e5f4143544956455f454d504c4f5945450000000000504159524f4c4c5f454d504c4f5945455f444f45534e545f4558495354000000e855346402235fdd185c890e68d2c4ecad599b88587635ee285bce2fda58dacba165627a7a723058205309edc5f032f0c04d4df3920dba832c929f34759a999515a7bb4d02b8917b7e0029ebb05b386a8d34882b8711d156f463690983dc47815980fb82aeeff1aa43579e",
  "source": "pragma solidity 0.4.24;\n\nimport \"@aragon/os/contracts/apps/AragonApp.sol\";\nimport \"@aragon/os/contracts/common/EtherTokenConstant.sol\";\nimport \"@aragon/os/contracts/common/IsContract.sol\";\nimport \"@aragon/os/contracts/common/IForwarder.sol\";\n\nimport \"@aragon/os/contracts/lib/math/SafeMath.sol\";\nimport \"@aragon/os/contracts/lib/math/SafeMath64.sol\";\n\nimport \"@aragon/ppf-contracts/contracts/IFeed.sol\";\nimport \"@aragon/apps-finance/contracts/Finance.sol\";\n\n\n/**\n * @title Payroll in multiple currencies\n */\ncontract Payroll is EtherTokenConstant, IForwarder, IsContract, AragonApp {\n    using SafeMath for uint256;\n    using SafeMath64 for uint64;\n\n    /* Hardcoded constants to save gas\n    * bytes32 constant public ADD_EMPLOYEE_ROLE = keccak256(\"ADD_EMPLOYEE_ROLE\");\n    * bytes32 constant public TERMINATE_EMPLOYEE_ROLE = keccak256(\"TERMINATE_EMPLOYEE_ROLE\");\n    * bytes32 constant public SET_EMPLOYEE_SALARY_ROLE = keccak256(\"SET_EMPLOYEE_SALARY_ROLE\");\n    * bytes32 constant public ADD_BONUS_ROLE = keccak256(\"ADD_BONUS_ROLE\");\n    * bytes32 constant public ADD_REIMBURSEMENT_ROLE = keccak256(\"ADD_REIMBURSEMENT_ROLE\");\n    * bytes32 constant public MANAGE_ALLOWED_TOKENS_ROLE = keccak256(\"MANAGE_ALLOWED_TOKENS_ROLE\");\n    * bytes32 constant public MODIFY_PRICE_FEED_ROLE = keccak256(\"MODIFY_PRICE_FEED_ROLE\");\n    * bytes32 constant public MODIFY_RATE_EXPIRY_ROLE = keccak256(\"MODIFY_RATE_EXPIRY_ROLE\");\n    */\n\n    bytes32 constant public ADD_EMPLOYEE_ROLE = 0x9ecdc3c63716b45d0756eece5fe1614cae1889ec5a1ce62b3127c1f1f1615d6e;\n    bytes32 constant public TERMINATE_EMPLOYEE_ROLE = 0x69c67f914d12b6440e7ddf01961214818d9158fbcb19211e0ff42800fdea9242;\n    bytes32 constant public SET_EMPLOYEE_SALARY_ROLE = 0xea9ac65018da2421cf419ee2152371440c08267a193a33ccc1e39545d197e44d;\n    bytes32 constant public ADD_BONUS_ROLE = 0xceca7e2f5eb749a87aaf68f3f76d6b9251aa2f4600f13f93c5a4adf7a72df4ae;\n    bytes32 constant public ADD_REIMBURSEMENT_ROLE = 0x90698b9d54427f1e41636025017309bdb1b55320da960c8845bab0a504b01a16;\n    bytes32 constant public MANAGE_ALLOWED_TOKENS_ROLE = 0x0be34987c45700ee3fae8c55e270418ba903337decc6bacb1879504be9331c06;\n    bytes32 constant public MODIFY_PRICE_FEED_ROLE = 0x74350efbcba8b85341c5bbf70cc34e2a585fc1463524773a12fa0a71d4eb9302;\n    bytes32 constant public MODIFY_RATE_EXPIRY_ROLE = 0x79fe989a8899060dfbdabb174ebb96616fa9f1d9dadd739f8d814cbab452404e;\n\n    uint256 internal constant MAX_ALLOWED_TOKENS = 20; // prevent OOG issues with `payday()`\n    uint64 internal constant MIN_RATE_EXPIRY = uint64(1 minutes); // 1 min == ~4 block window to mine both a price feed update and a payout\n\n    uint256 internal constant MAX_UINT256 = uint256(-1);\n    uint64 internal constant MAX_UINT64 = uint64(-1);\n\n    string private constant ERROR_EMPLOYEE_DOESNT_EXIST = \"PAYROLL_EMPLOYEE_DOESNT_EXIST\";\n    string private constant ERROR_NON_ACTIVE_EMPLOYEE = \"PAYROLL_NON_ACTIVE_EMPLOYEE\";\n    string private constant ERROR_SENDER_DOES_NOT_MATCH = \"PAYROLL_SENDER_DOES_NOT_MATCH\";\n    string private constant ERROR_FINANCE_NOT_CONTRACT = \"PAYROLL_FINANCE_NOT_CONTRACT\";\n    string private constant ERROR_TOKEN_ALREADY_SET = \"PAYROLL_TOKEN_ALREADY_SET\";\n    string private constant ERROR_MAX_ALLOWED_TOKENS = \"PAYROLL_MAX_ALLOWED_TOKENS\";\n    string private constant ERROR_MIN_RATES_MISMATCH = \"PAYROLL_MIN_RATES_MISMATCH\";\n    string private constant ERROR_TOKEN_ALLOCATION_MISMATCH = \"PAYROLL_TOKEN_ALLOCATION_MISMATCH\";\n    string private constant ERROR_NOT_ALLOWED_TOKEN = \"PAYROLL_NOT_ALLOWED_TOKEN\";\n    string private constant ERROR_DISTRIBUTION_NOT_FULL = \"PAYROLL_DISTRIBUTION_NOT_FULL\";\n    string private constant ERROR_INVALID_PAYMENT_TYPE = \"PAYROLL_INVALID_PAYMENT_TYPE\";\n    string private constant ERROR_NOTHING_PAID = \"PAYROLL_NOTHING_PAID\";\n    string private constant ERROR_CAN_NOT_FORWARD = \"PAYROLL_CAN_NOT_FORWARD\";\n    string private constant ERROR_EMPLOYEE_NULL_ADDRESS = \"PAYROLL_EMPLOYEE_NULL_ADDRESS\";\n    string private constant ERROR_EMPLOYEE_ALREADY_EXIST = \"PAYROLL_EMPLOYEE_ALREADY_EXIST\";\n    string private constant ERROR_FEED_NOT_CONTRACT = \"PAYROLL_FEED_NOT_CONTRACT\";\n    string private constant ERROR_EXPIRY_TIME_TOO_SHORT = \"PAYROLL_EXPIRY_TIME_TOO_SHORT\";\n    string private constant ERROR_PAST_TERMINATION_DATE = \"PAYROLL_PAST_TERMINATION_DATE\";\n    string private constant ERROR_EXCHANGE_RATE_TOO_LOW = \"PAYROLL_EXCHANGE_RATE_TOO_LOW\";\n    string private constant ERROR_LAST_PAYROLL_DATE_TOO_BIG = \"PAYROLL_LAST_DATE_TOO_BIG\";\n    string private constant ERROR_INVALID_REQUESTED_AMOUNT = \"PAYROLL_INVALID_REQUESTED_AMT\";\n\n    enum PaymentType { Payroll, Reimbursement, Bonus }\n\n    struct Employee {\n        address accountAddress; // unique, but can be changed over time\n        uint256 denominationTokenSalary; // salary per second in denomination Token\n        uint256 accruedSalary; // keep track of any leftover accrued salary when changing salaries\n        uint256 bonus;\n        uint256 reimbursements;\n        uint64 lastPayroll;\n        uint64 endDate;\n        address[] allocationTokenAddresses;\n        mapping(address => uint256) allocationTokens;\n    }\n\n    Finance public finance;\n    address public denominationToken;\n    IFeed public feed;\n    uint64 public rateExpiryTime;\n\n    // Employees start at index 1, to allow us to use employees[0] to check for non-existent employees\n    uint256 public nextEmployee;\n    mapping(uint256 => Employee) internal employees;     // employee ID -> employee\n    mapping(address => uint256) internal employeeIds;    // employee address -> employee ID\n\n    mapping(address => bool) internal allowedTokens;\n\n    event AddEmployee(\n        uint256 indexed employeeId,\n        address indexed accountAddress,\n        uint256 initialDenominationSalary,\n        uint64 startDate,\n        string role\n    );\n    event TerminateEmployee(uint256 indexed employeeId, uint64 endDate);\n    event SetEmployeeSalary(uint256 indexed employeeId, uint256 denominationSalary);\n    event AddEmployeeAccruedSalary(uint256 indexed employeeId, uint256 amount);\n    event AddEmployeeBonus(uint256 indexed employeeId, uint256 amount);\n    event AddEmployeeReimbursement(uint256 indexed employeeId, uint256 amount);\n    event ChangeAddressByEmployee(uint256 indexed employeeId, address indexed newAccountAddress, address indexed oldAccountAddress);\n    event DetermineAllocation(uint256 indexed employeeId);\n    event SendPayment(\n        uint256 indexed employeeId,\n        address indexed accountAddress,\n        address indexed token,\n        uint256 amount,\n        uint256 exchangeRate,\n        string paymentReference\n    );\n    event SetAllowedToken(address indexed token, bool allowed);\n    event SetPriceFeed(address indexed feed);\n    event SetRateExpiryTime(uint64 time);\n\n    // Check employee exists by ID\n    modifier employeeIdExists(uint256 _employeeId) {\n        require(_employeeExists(_employeeId), ERROR_EMPLOYEE_DOESNT_EXIST);\n        _;\n    }\n\n    // Check employee exists and is still active\n    modifier employeeActive(uint256 _employeeId) {\n        // No need to check for existence as _isEmployeeIdActive() is false for non-existent employees\n        require(_isEmployeeIdActive(_employeeId), ERROR_NON_ACTIVE_EMPLOYEE);\n        _;\n    }\n\n    // Check sender matches an existing employee\n    modifier employeeMatches {\n        require(employees[employeeIds[msg.sender]].accountAddress == msg.sender, ERROR_SENDER_DOES_NOT_MATCH);\n        _;\n    }\n\n    /**\n     * @notice Initialize Payroll app for Finance at `_finance` and price feed at `_priceFeed`, setting denomination token to `_token` and exchange rate expiry time to `@transformTime(_rateExpiryTime)`\n     * @dev Note that we do not require _denominationToken to be a contract, as it may be a \"fake\"\n     *      address used by the price feed to denominate fiat currencies\n     * @param _finance Address of the Finance app this Payroll app will rely on for payments (non-changeable)\n     * @param _denominationToken Address of the denomination token used for salary accounting\n     * @param _priceFeed Address of the price feed\n     * @param _rateExpiryTime Acceptable expiry time in seconds for the price feed's exchange rates\n     */\n    function initialize(Finance _finance, address _denominationToken, IFeed _priceFeed, uint64 _rateExpiryTime) external onlyInit {\n        initialized();\n\n        require(isContract(_finance), ERROR_FINANCE_NOT_CONTRACT);\n        finance = _finance;\n\n        denominationToken = _denominationToken;\n        _setPriceFeed(_priceFeed);\n        _setRateExpiryTime(_rateExpiryTime);\n\n        // Employees start at index 1, to allow us to use employees[0] to check for non-existent employees\n        nextEmployee = 1;\n    }\n\n    /**\n     * @notice `_allowed ? 'Add' : 'Remove'` `_token.symbol(): string` `_allowed ? 'to' : 'from'` the set of allowed tokens\n     * @param _token Address of the token to be added or removed from the list of allowed tokens for payments\n     * @param _allowed Boolean to tell whether the given token should be added or removed from the list\n     */\n    function setAllowedToken(address _token, bool _allowed) external authP(MANAGE_ALLOWED_TOKENS_ROLE, arr(_token)) {\n        require(allowedTokens[_token] != _allowed, ERROR_TOKEN_ALREADY_SET);\n        allowedTokens[_token] = _allowed;\n        emit SetAllowedToken(_token, _allowed);\n    }\n\n    /**\n     * @notice Set the price feed for exchange rates to `_feed`\n     * @param _feed Address of the new price feed instance\n     */\n    function setPriceFeed(IFeed _feed) external authP(MODIFY_PRICE_FEED_ROLE, arr(_feed, feed)) {\n        _setPriceFeed(_feed);\n    }\n\n    /**\n     * @notice Set the acceptable expiry time for the price feed's exchange rates to `@transformTime(_time)`\n     * @dev Exchange rates older than the given value won't be accepted for payments and will cause payouts to revert\n     * @param _time The expiration time in seconds for exchange rates\n     */\n    function setRateExpiryTime(uint64 _time) external authP(MODIFY_RATE_EXPIRY_ROLE, arr(uint256(_time), uint256(rateExpiryTime))) {\n        _setRateExpiryTime(_time);\n    }\n\n    /**\n     * @notice Add employee with address `_accountAddress` to payroll with an salary of `_initialDenominationSalary` per second, starting on `@formatDate(_startDate)`\n     * @param _accountAddress Employee's address to receive payroll\n     * @param _initialDenominationSalary Employee's salary, per second in denomination token\n     * @param _startDate Employee's starting timestamp in seconds (it actually sets their initial lastPayroll value)\n     * @param _role Employee's role\n     */\n    function addEmployee(address _accountAddress, uint256 _initialDenominationSalary, uint64 _startDate, string _role)\n        external\n        authP(ADD_EMPLOYEE_ROLE, arr(_accountAddress, _initialDenominationSalary, uint256(_startDate)))\n    {\n        _addEmployee(_accountAddress, _initialDenominationSalary, _startDate, _role);\n    }\n\n    /**\n     * @notice Add `_amount` to bonus for employee #`_employeeId`\n     * @param _employeeId Employee's identifier\n     * @param _amount Amount to be added to the employee's bonuses in denomination token\n     */\n    function addBonus(uint256 _employeeId, uint256 _amount)\n        external\n        authP(ADD_BONUS_ROLE, arr(_employeeId, _amount))\n        employeeActive(_employeeId)\n    {\n        _addBonus(_employeeId, _amount);\n    }\n\n    /**\n     * @notice Add `_amount` to reimbursements for employee #`_employeeId`\n     * @param _employeeId Employee's identifier\n     * @param _amount Amount to be added to the employee's reimbursements in denomination token\n     */\n    function addReimbursement(uint256 _employeeId, uint256 _amount)\n        external\n        authP(ADD_REIMBURSEMENT_ROLE, arr(_employeeId, _amount))\n        employeeActive(_employeeId)\n    {\n        _addReimbursement(_employeeId, _amount);\n    }\n\n    /**\n     * @notice Set employee #`_employeeId`'s salary to `_denominationSalary` per second\n     * @dev This reverts if either the employee's owed salary or accrued salary overflows, to avoid\n     *      losing any accrued salary for an employee due to the employer changing their salary.\n     * @param _employeeId Employee's identifier\n     * @param _denominationSalary Employee's new salary, per second in denomination token\n     */\n    function setEmployeeSalary(uint256 _employeeId, uint256 _denominationSalary)\n        external\n        authP(SET_EMPLOYEE_SALARY_ROLE, arr(_employeeId, _denominationSalary, employees[_employeeId].denominationTokenSalary))\n        employeeActive(_employeeId)\n    {\n        Employee storage employee = employees[_employeeId];\n\n        // Accrue employee's owed salary; don't cap to revert on overflow\n        uint256 owed = _getOwedSalarySinceLastPayroll(employee, false);\n        _addAccruedSalary(_employeeId, owed);\n\n        // Update employee to track the new salary and payment date\n        employee.lastPayroll = getTimestamp64();\n        employee.denominationTokenSalary = _denominationSalary;\n\n        emit SetEmployeeSalary(_employeeId, _denominationSalary);\n    }\n\n    /**\n     * @notice Terminate employee #`_employeeId` on `@formatDate(_endDate)`\n     * @param _employeeId Employee's identifier\n     * @param _endDate Termination timestamp in seconds\n     */\n    function terminateEmployee(uint256 _employeeId, uint64 _endDate)\n        external\n        authP(TERMINATE_EMPLOYEE_ROLE, arr(_employeeId, uint256(_endDate)))\n        employeeActive(_employeeId)\n    {\n        _terminateEmployee(_employeeId, _endDate);\n    }\n\n    /**\n     * @notice Change your employee account address to `_newAccountAddress`\n     * @dev Initialization check is implicitly provided by `employeeMatches` as new employees can\n     *      only be added via `addEmployee(),` which requires initialization.\n     *      As the employee is allowed to call this, we enforce non-reentrancy.\n     * @param _newAccountAddress New address to receive payments for the requesting employee\n     */\n    function changeAddressByEmployee(address _newAccountAddress) external employeeMatches nonReentrant {\n        uint256 employeeId = employeeIds[msg.sender];\n        address oldAddress = employees[employeeId].accountAddress;\n\n        _setEmployeeAddress(employeeId, _newAccountAddress);\n        // Don't delete the old address until after setting the new address to check that the\n        // employee specified a new address\n        delete employeeIds[oldAddress];\n\n        emit ChangeAddressByEmployee(employeeId, _newAccountAddress, oldAddress);\n    }\n\n    /**\n     * @notice Set the token distribution for your payments\n     * @dev Initialization check is implicitly provided by `employeeMatches` as new employees can\n     *      only be added via `addEmployee(),` which requires initialization.\n     *      As the employee is allowed to call this, we enforce non-reentrancy.\n     * @param _tokens Array of token addresses; they must belong to the list of allowed tokens\n     * @param _distribution Array with each token's corresponding proportions (must be integers summing to 100)\n     */\n    function determineAllocation(address[] _tokens, uint256[] _distribution) external employeeMatches nonReentrant {\n        // Check array lengthes match\n        require(_tokens.length <= MAX_ALLOWED_TOKENS, ERROR_MAX_ALLOWED_TOKENS);\n        require(_tokens.length == _distribution.length, ERROR_TOKEN_ALLOCATION_MISMATCH);\n\n        uint256 employeeId = employeeIds[msg.sender];\n        Employee storage employee = employees[employeeId];\n\n        // Delete previous token allocations\n        address[] memory previousAllowedTokenAddresses = employee.allocationTokenAddresses;\n        for (uint256 j = 0; j < previousAllowedTokenAddresses.length; j++) {\n            delete employee.allocationTokens[previousAllowedTokenAddresses[j]];\n        }\n        delete employee.allocationTokenAddresses;\n\n        // Set distributions only if given tokens are allowed\n        for (uint256 i = 0; i < _tokens.length; i++) {\n            employee.allocationTokenAddresses.push(_tokens[i]);\n            employee.allocationTokens[_tokens[i]] = _distribution[i];\n        }\n\n        _ensureEmployeeTokenAllocationsIsValid(employee);\n        emit DetermineAllocation(employeeId);\n    }\n\n    /**\n     * @notice Request your `_type == 0 ? 'salary' : _type == 1 ? 'reimbursements' : 'bonus'`\n     * @dev Reverts if no payments were made.\n     *      Initialization check is implicitly provided by `employeeMatches` as new employees can\n     *      only be added via `addEmployee(),` which requires initialization.\n     *      As the employee is allowed to call this, we enforce non-reentrancy.\n     * @param _type Payment type being requested (Payroll, Reimbursement or Bonus)\n     * @param _requestedAmount Requested amount to pay for the payment type. Must be less than or equal to total owed amount for the payment type, or zero to request all.\n     * @param _minRates Array of employee's minimum acceptable rates for their allowed payment tokens\n     */\n    function payday(PaymentType _type, uint256 _requestedAmount, uint256[] _minRates) external employeeMatches nonReentrant {\n        uint256 paymentAmount;\n        uint256 employeeId = employeeIds[msg.sender];\n        Employee storage employee = employees[employeeId];\n        _ensureEmployeeTokenAllocationsIsValid(employee);\n        require(_minRates.length == 0 || _minRates.length == employee.allocationTokenAddresses.length, ERROR_MIN_RATES_MISMATCH);\n\n        // Do internal employee accounting\n        if (_type == PaymentType.Payroll) {\n            // Salary is capped here to avoid reverting at this point if it becomes too big\n            // (so employees aren't DDOSed if their salaries get too large)\n            // If we do use a capped value, the employee's lastPayroll date will be adjusted accordingly\n            uint256 totalOwedSalary = _getTotalOwedCappedSalary(employee);\n            paymentAmount = _ensurePaymentAmount(totalOwedSalary, _requestedAmount);\n            _updateEmployeeAccountingBasedOnPaidSalary(employee, paymentAmount);\n        } else if (_type == PaymentType.Reimbursement) {\n            uint256 owedReimbursements = employee.reimbursements;\n            paymentAmount = _ensurePaymentAmount(owedReimbursements, _requestedAmount);\n            employee.reimbursements = owedReimbursements.sub(paymentAmount);\n        } else if (_type == PaymentType.Bonus) {\n            uint256 owedBonusAmount = employee.bonus;\n            paymentAmount = _ensurePaymentAmount(owedBonusAmount, _requestedAmount);\n            employee.bonus = owedBonusAmount.sub(paymentAmount);\n        } else {\n            revert(ERROR_INVALID_PAYMENT_TYPE);\n        }\n\n        // Actually transfer the owed funds\n        require(_transferTokensAmount(employeeId, _type, paymentAmount, _minRates), ERROR_NOTHING_PAID);\n        _removeEmployeeIfTerminatedAndPaidOut(employeeId);\n    }\n\n    // Forwarding fns\n\n    /**\n     * @dev IForwarder interface conformance. Tells whether the Payroll app is a forwarder or not.\n     * @return Always true\n     */\n    function isForwarder() external pure returns (bool) {\n        return true;\n    }\n\n    /**\n     * @notice Execute desired action as an active employee\n     * @dev IForwarder interface conformance. Allows active employees to run EVMScripts in the context of the Payroll app.\n     * @param _evmScript Script being executed\n     */\n    function forward(bytes _evmScript) public {\n        require(canForward(msg.sender, _evmScript), ERROR_CAN_NOT_FORWARD);\n        bytes memory input = new bytes(0); // TODO: Consider input for this\n\n        // Add the Finance app to the blacklist to disallow employees from executing actions on the\n        // Finance app from Payroll's context (since Payroll requires permissions on Finance)\n        address[] memory blacklist = new address[](1);\n        blacklist[0] = address(finance);\n\n        runScript(_evmScript, input, blacklist);\n    }\n\n    /**\n     * @dev IForwarder interface conformance. Tells whether a given address can forward actions or not.\n     * @param _sender Address of the account intending to forward an action\n     * @return True if the given address is an active employee, false otherwise\n     */\n    function canForward(address _sender, bytes) public view returns (bool) {\n        return _isEmployeeIdActive(employeeIds[_sender]);\n    }\n\n    // Getter fns\n\n    /**\n     * @dev Return employee's identifier by their account address\n     * @param _accountAddress Employee's address to receive payments\n     * @return Employee's identifier\n     */\n    function getEmployeeIdByAddress(address _accountAddress) public view returns (uint256) {\n        require(employeeIds[_accountAddress] != uint256(0), ERROR_EMPLOYEE_DOESNT_EXIST);\n        return employeeIds[_accountAddress];\n    }\n\n    /**\n     * @dev Return all information for employee by their ID\n     * @param _employeeId Employee's identifier\n     * @return Employee's address to receive payments\n     * @return Employee's salary, per second in denomination token\n     * @return Employee's accrued salary\n     * @return Employee's bonus amount\n     * @return Employee's reimbursements amount\n     * @return Employee's last payment date\n     * @return Employee's termination date (max uint64 if none)\n     * @return Employee's allowed payment tokens\n     */\n    function getEmployee(uint256 _employeeId)\n        public\n        view\n        employeeIdExists(_employeeId)\n        returns (\n            address accountAddress,\n            uint256 denominationSalary,\n            uint256 accruedSalary,\n            uint256 bonus,\n            uint256 reimbursements,\n            uint64 lastPayroll,\n            uint64 endDate,\n            address[] allocationTokens\n        )\n    {\n        Employee storage employee = employees[_employeeId];\n\n        accountAddress = employee.accountAddress;\n        denominationSalary = employee.denominationTokenSalary;\n        accruedSalary = employee.accruedSalary;\n        bonus = employee.bonus;\n        reimbursements = employee.reimbursements;\n        lastPayroll = employee.lastPayroll;\n        endDate = employee.endDate;\n        allocationTokens = employee.allocationTokenAddresses;\n    }\n\n    /**\n     * @dev Get owed salary since last payroll for an employee. It will take into account the accrued salary as well.\n     *      The result will be capped to max uint256 to avoid having an overflow.\n     * @return Employee's total owed salary: current owed payroll since the last payroll date, plus the accrued salary.\n     */\n    function getTotalOwedSalary(uint256 _employeeId) public view employeeIdExists(_employeeId) returns (uint256) {\n        return _getTotalOwedCappedSalary(employees[_employeeId]);\n    }\n\n    /**\n     * @dev Get an employee's payment allocation for a token\n     * @param _employeeId Employee's identifier\n     * @param _token Token to query the payment allocation for\n     * @return Employee's payment allocation for the token being queried\n     */\n    function getAllocation(uint256 _employeeId, address _token) public view employeeIdExists(_employeeId) returns (uint256) {\n        return employees[_employeeId].allocationTokens[_token];\n    }\n\n    /**\n     * @dev Check if a token is allowed to be used for payments\n     * @param _token Address of the token to be checked\n     * @return True if the given token is allowed, false otherwise\n     */\n    function isTokenAllowed(address _token) public view isInitialized returns (bool) {\n        return allowedTokens[_token];\n    }\n\n    // Internal fns\n\n    /**\n     * @dev Set the price feed used for exchange rates\n     * @param _feed Address of the new price feed instance\n     */\n    function _setPriceFeed(IFeed _feed) internal {\n        require(isContract(_feed), ERROR_FEED_NOT_CONTRACT);\n        feed = _feed;\n        emit SetPriceFeed(feed);\n    }\n\n    /**\n     * @dev Set the exchange rate expiry time in seconds.\n     *      Exchange rates older than the given value won't be accepted for payments and will cause\n     *      payouts to revert.\n     * @param _time The expiration time in seconds for exchange rates\n     */\n    function _setRateExpiryTime(uint64 _time) internal {\n        // Require a sane minimum for the rate expiry time\n        require(_time >= MIN_RATE_EXPIRY, ERROR_EXPIRY_TIME_TOO_SHORT);\n        rateExpiryTime = _time;\n        emit SetRateExpiryTime(rateExpiryTime);\n    }\n\n    /**\n     * @dev Add a new employee to Payroll\n     * @param _accountAddress Employee's address to receive payroll\n     * @param _initialDenominationSalary Employee's salary, per second in denomination token\n     * @param _startDate Employee's starting timestamp in seconds\n     * @param _role Employee's role\n     */\n    function _addEmployee(address _accountAddress, uint256 _initialDenominationSalary, uint64 _startDate, string _role) internal {\n        uint256 employeeId = nextEmployee++;\n\n        _setEmployeeAddress(employeeId, _accountAddress);\n\n        Employee storage employee = employees[employeeId];\n        employee.denominationTokenSalary = _initialDenominationSalary;\n        employee.lastPayroll = _startDate;\n        employee.endDate = MAX_UINT64;\n\n        emit AddEmployee(employeeId, _accountAddress, _initialDenominationSalary, _startDate, _role);\n    }\n\n    /**\n     * @dev Add amount to an employee's bonuses\n     * @param _employeeId Employee's identifier\n     * @param _amount Amount be added to the employee's bonuses in denomination token\n     */\n    function _addBonus(uint256 _employeeId, uint256 _amount) internal {\n        Employee storage employee = employees[_employeeId];\n        employee.bonus = employee.bonus.add(_amount);\n        emit AddEmployeeBonus(_employeeId, _amount);\n    }\n\n    /**\n     * @dev Add amount to an employee's reimbursements\n     * @param _employeeId Employee's identifier\n     * @param _amount Amount be added to the employee's reimbursements in denomination token\n     */\n    function _addReimbursement(uint256 _employeeId, uint256 _amount) internal {\n        Employee storage employee = employees[_employeeId];\n        employee.reimbursements = employee.reimbursements.add(_amount);\n        emit AddEmployeeReimbursement(_employeeId, _amount);\n    }\n\n    /**\n     * @dev Add amount to an employee's accrued salary\n     * @param _employeeId Employee's identifier\n     * @param _amount Amount be added to the employee's accrued salary in denomination token\n     */\n    function _addAccruedSalary(uint256 _employeeId, uint256 _amount) internal {\n        Employee storage employee = employees[_employeeId];\n        employee.accruedSalary = employee.accruedSalary.add(_amount);\n        emit AddEmployeeAccruedSalary(_employeeId, _amount);\n    }\n\n    /**\n     * @dev Set an employee's account address\n     * @param _employeeId Employee's identifier\n     * @param _accountAddress Employee's address to receive payroll\n     */\n    function _setEmployeeAddress(uint256 _employeeId, address _accountAddress) internal {\n        // Check address is non-null\n        require(_accountAddress != address(0), ERROR_EMPLOYEE_NULL_ADDRESS);\n        // Check address isn't already being used\n        require(employeeIds[_accountAddress] == uint256(0), ERROR_EMPLOYEE_ALREADY_EXIST);\n\n        employees[_employeeId].accountAddress = _accountAddress;\n\n        // Create IDs mapping\n        employeeIds[_accountAddress] = _employeeId;\n    }\n\n    /**\n     * @dev Terminate employee on end date\n     * @param _employeeId Employee's identifier\n     * @param _endDate Termination timestamp in seconds\n     */\n    function _terminateEmployee(uint256 _employeeId, uint64 _endDate) internal {\n        // Prevent past termination dates\n        require(_endDate >= getTimestamp64(), ERROR_PAST_TERMINATION_DATE);\n        employees[_employeeId].endDate = _endDate;\n        emit TerminateEmployee(_employeeId, _endDate);\n    }\n\n    /**\n     * @dev Loop over allowed tokens to send requested amount to the employee in their desired allocation\n     * @param _employeeId Employee's identifier\n     * @param _totalAmount Total amount to be transferred to the employee distributed in accordance to the employee's token allocation.\n     * @param _type Payment type being transferred (Payroll, Reimbursement or Bonus)\n     * @param _minRates Array of employee's minimum acceptable rates for their allowed payment tokens\n     * @return True if there was at least one token transfer\n     */\n    function _transferTokensAmount(uint256 _employeeId, PaymentType _type, uint256 _totalAmount, uint256[] _minRates) internal returns (bool somethingPaid) {\n        if (_totalAmount == 0) {\n            return false;\n        }\n\n        Employee storage employee = employees[_employeeId];\n        address employeeAddress = employee.accountAddress;\n        string memory paymentReference = _paymentReferenceFor(_type);\n\n        address[] storage allocationTokenAddresses = employee.allocationTokenAddresses;\n        for (uint256 i = 0; i < allocationTokenAddresses.length; i++) {\n            address token = allocationTokenAddresses[i];\n            uint256 tokenAllocation = employee.allocationTokens[token];\n            if (tokenAllocation != uint256(0)) {\n                // Get the exchange rate for the payout token in denomination token,\n                // as we do accounting in denomination tokens\n                uint256 exchangeRate = _getExchangeRateInDenominationToken(token);\n                require(_minRates.length > 0 ? exchangeRate >= _minRates[i] : exchangeRate > 0, ERROR_EXCHANGE_RATE_TOO_LOW);\n\n                // Convert amount (in denomination tokens) to payout token and apply allocation\n                uint256 tokenAmount = _totalAmount.mul(exchangeRate).mul(tokenAllocation);\n                // Divide by 100 for the allocation percentage and by the exchange rate precision\n                tokenAmount = tokenAmount.div(100).div(feed.ratePrecision());\n\n                // Finance reverts if the payment wasn't possible\n                finance.newImmediatePayment(token, employeeAddress, tokenAmount, paymentReference);\n                emit SendPayment(_employeeId, employeeAddress, token, tokenAmount, exchangeRate, paymentReference);\n                somethingPaid = true;\n            }\n        }\n    }\n\n    /**\n     * @dev Remove employee if there are no owed funds and employee's end date has been reached\n     * @param _employeeId Employee's identifier\n     */\n    function _removeEmployeeIfTerminatedAndPaidOut(uint256 _employeeId) internal {\n        Employee storage employee = employees[_employeeId];\n\n        if (\n            employee.lastPayroll == employee.endDate &&\n            (employee.accruedSalary == 0 && employee.bonus == 0 && employee.reimbursements == 0)\n        ) {\n            delete employeeIds[employee.accountAddress];\n            delete employees[_employeeId];\n        }\n    }\n\n    /**\n     * @dev Updates the accrued salary and payroll date of an employee based on a payment amount and\n     *      their currently owed salary since last payroll date\n     * @param _employee Employee struct in storage\n     * @param _paymentAmount Amount being paid to the employee\n     */\n    function _updateEmployeeAccountingBasedOnPaidSalary(Employee storage _employee, uint256 _paymentAmount) internal {\n        uint256 accruedSalary = _employee.accruedSalary;\n\n        if (_paymentAmount <= accruedSalary) {\n            // Employee is only cashing out some previously owed salary so we don't need to update\n            // their last payroll date\n            // No need to use SafeMath as we already know _paymentAmount <= accruedSalary\n            _employee.accruedSalary = accruedSalary - _paymentAmount;\n            return;\n        }\n\n        // Employee is cashing out some of their currently owed salary so their last payroll date\n        // needs to be modified based on the amount of salary paid\n        uint256 currentSalaryPaid = _paymentAmount;\n        if (accruedSalary > 0) {\n            // Employee is cashing out a mixed amount between previous and current owed salaries;\n            // first use up their accrued salary\n            // No need to use SafeMath here as we already know _paymentAmount > accruedSalary\n            currentSalaryPaid = _paymentAmount - accruedSalary;\n            // We finally need to clear their accrued salary\n            _employee.accruedSalary = 0;\n        }\n\n        uint256 salary = _employee.denominationTokenSalary;\n        uint256 timeDiff = currentSalaryPaid.div(salary);\n\n        // If they're being paid an amount that doesn't match perfectly with the adjusted time\n        // (up to a seconds' worth of salary), add the second and put the extra remaining salary\n        // into their accrued salary\n        uint256 extraSalary = currentSalaryPaid % salary;\n        if (extraSalary > 0) {\n            timeDiff = timeDiff.add(1);\n            _employee.accruedSalary = salary - extraSalary;\n        }\n\n        uint256 lastPayrollDate = uint256(_employee.lastPayroll).add(timeDiff);\n        // Even though this function should never receive a currentSalaryPaid value that would\n        // result in the lastPayrollDate being higher than the current time,\n        // let's double check to be safe\n        require(lastPayrollDate <= uint256(getTimestamp64()), ERROR_LAST_PAYROLL_DATE_TOO_BIG);\n        // Already know lastPayrollDate must fit in uint64 from above\n        _employee.lastPayroll = uint64(lastPayrollDate);\n    }\n\n    /**\n     * @dev Tell whether an employee is registered in this Payroll or not\n     * @param _employeeId Employee's identifier\n     * @return True if the given employee ID belongs to an registered employee, false otherwise\n     */\n    function _employeeExists(uint256 _employeeId) internal view returns (bool) {\n        return employees[_employeeId].accountAddress != address(0);\n    }\n\n    /**\n     * @dev Tell whether an employee has a valid token allocation or not.\n     *      A valid allocation is one that sums to 100 and only includes allowed tokens.\n     * @param _employee Employee struct in storage\n     * @return Reverts if employee's allocation is invalid\n     */\n    function _ensureEmployeeTokenAllocationsIsValid(Employee storage _employee) internal view {\n        uint256 sum = 0;\n        address[] memory allocationTokenAddresses = _employee.allocationTokenAddresses;\n        for (uint256 i = 0; i < allocationTokenAddresses.length; i++) {\n            address token = allocationTokenAddresses[i];\n            require(allowedTokens[token], ERROR_NOT_ALLOWED_TOKEN);\n            sum = sum.add(_employee.allocationTokens[token]);\n        }\n        require(sum == 100, ERROR_DISTRIBUTION_NOT_FULL);\n    }\n\n    /**\n     * @dev Tell whether an employee is still active or not\n     * @param _employee Employee struct in storage\n     * @return True if the employee exists and has an end date that has not been reached yet, false otherwise\n     */\n    function _isEmployeeActive(Employee storage _employee) internal view returns (bool) {\n        return _employee.endDate >= getTimestamp64();\n    }\n\n    /**\n     * @dev Tell whether an employee id is still active or not\n     * @param _employeeId Employee's identifier\n     * @return True if the employee exists and has an end date that has not been reached yet, false otherwise\n     */\n    function _isEmployeeIdActive(uint256 _employeeId) internal view returns (bool) {\n        return _isEmployeeActive(employees[_employeeId]);\n    }\n\n    /**\n     * @dev Get exchange rate for a token based on the denomination token.\n     *      As an example, if the denomination token was USD and ETH's price was 100USD,\n     *      this would return 0.01 * precision rate for ETH.\n     * @param _token Token to get price of in denomination tokens\n     * @return Exchange rate (multiplied by the PPF rate precision)\n     */\n    function _getExchangeRateInDenominationToken(address _token) internal view returns (uint256) {\n        // xrt is the number of `_token` that can be exchanged for one `denominationToken`\n        (uint128 xrt, uint64 when) = feed.get(\n            denominationToken,  // Base (e.g. USD)\n            _token              // Quote (e.g. ETH)\n        );\n\n        // Check the price feed is recent enough\n        if (getTimestamp64().sub(when) >= rateExpiryTime) {\n            return 0;\n        }\n\n        return uint256(xrt);\n    }\n\n    /**\n     * @dev Get owed salary since last payroll for an employee\n     * @param _employee Employee struct in storage\n     * @param _capped Safely cap the owed salary at max uint\n     * @return Owed salary in denomination tokens since last payroll for the employee.\n     *         If _capped is false, it reverts in case of an overflow.\n     */\n    function _getOwedSalarySinceLastPayroll(Employee storage _employee, bool _capped) internal view returns (uint256) {\n        uint256 timeDiff = _getOwedPayrollPeriod(_employee);\n        if (timeDiff == 0) {\n            return 0;\n        }\n        uint256 salary = _employee.denominationTokenSalary;\n\n        if (_capped) {\n            // Return max uint if the result overflows\n            uint256 result = salary * timeDiff;\n            return (result / timeDiff != salary) ? MAX_UINT256 : result;\n        } else {\n            return salary.mul(timeDiff);\n        }\n    }\n\n    /**\n     * @dev Get owed payroll period for an employee\n     * @param _employee Employee struct in storage\n     * @return Owed time in seconds since the employee's last payroll date\n     */\n    function _getOwedPayrollPeriod(Employee storage _employee) internal view returns (uint256) {\n        // Get the min of current date and termination date\n        uint64 date = _isEmployeeActive(_employee) ? getTimestamp64() : _employee.endDate;\n\n        // Make sure we don't revert if we try to get the owed salary for an employee whose last\n        // payroll date is now or in the future\n        // This can happen either by adding new employees with start dates in the future, to allow\n        // us to change their salary before their start date, or by terminating an employee and\n        // paying out their full owed salary\n        if (date <= _employee.lastPayroll) {\n            return 0;\n        }\n\n        // Return time diff in seconds, no need to use SafeMath as the underflow was covered by the previous check\n        return uint256(date - _employee.lastPayroll);\n    }\n\n    /**\n     * @dev Get owed salary since last payroll for an employee. It will take into account the accrued salary as well.\n     *      The result will be capped to max uint256 to avoid having an overflow.\n     * @param _employee Employee struct in storage\n     * @return Employee's total owed salary: current owed payroll since the last payroll date, plus the accrued salary.\n     */\n    function _getTotalOwedCappedSalary(Employee storage _employee) internal view returns (uint256) {\n        uint256 currentOwedSalary = _getOwedSalarySinceLastPayroll(_employee, true); // cap amount\n        uint256 totalOwedSalary = currentOwedSalary + _employee.accruedSalary;\n        if (totalOwedSalary < currentOwedSalary) {\n            totalOwedSalary = MAX_UINT256;\n        }\n        return totalOwedSalary;\n    }\n\n    /**\n     * @dev Get payment reference for a given payment type\n     * @param _type Payment type to query the reference of\n     * @return Payment reference for the given payment type\n     */\n    function _paymentReferenceFor(PaymentType _type) internal pure returns (string memory) {\n        if (_type == PaymentType.Payroll) {\n            return \"Employee salary\";\n        } else if (_type == PaymentType.Reimbursement) {\n            return \"Employee reimbursement\";\n        } if (_type == PaymentType.Bonus) {\n            return \"Employee bonus\";\n        }\n        revert(ERROR_INVALID_PAYMENT_TYPE);\n    }\n\n    function _ensurePaymentAmount(uint256 _owedAmount, uint256 _requestedAmount) private pure returns (uint256) {\n        require(_owedAmount > 0, ERROR_NOTHING_PAID);\n        require(_owedAmount >= _requestedAmount, ERROR_INVALID_REQUESTED_AMOUNT);\n        return _requestedAmount > 0 ? _requestedAmount : _owedAmount;\n    }\n}\n",
  "sourcePath": "@aragon/apps-payroll/contracts/Payroll.sol",
  "compiler": {
    "name": "solc",
    "version": "0.4.24+commit.e67f0147.Emscripten.clang"
  },
  "schemaVersion": "2.0.1",
  "updatedAt": "2020-07-27T17:28:01.408Z"
}