{
  "contractName": "Presale",
  "abi": [
    {
      "constant": true,
      "inputs": [],
      "name": "vestingCompletePeriod",
      "outputs": [
        {
          "name": "",
          "type": "uint64"
        }
      ],
      "payable": false,
      "stateMutability": "view",
      "type": "function"
    },
    {
      "constant": true,
      "inputs": [],
      "name": "hasInitialized",
      "outputs": [
        {
          "name": "",
          "type": "bool"
        }
      ],
      "payable": false,
      "stateMutability": "view",
      "type": "function"
    },
    {
      "constant": true,
      "inputs": [],
      "name": "PPM",
      "outputs": [
        {
          "name": "",
          "type": "uint256"
        }
      ],
      "payable": false,
      "stateMutability": "view",
      "type": "function"
    },
    {
      "constant": true,
      "inputs": [],
      "name": "supplyOfferedPct",
      "outputs": [
        {
          "name": "",
          "type": "uint256"
        }
      ],
      "payable": false,
      "stateMutability": "view",
      "type": "function"
    },
    {
      "constant": true,
      "inputs": [],
      "name": "vestingCliffPeriod",
      "outputs": [
        {
          "name": "",
          "type": "uint64"
        }
      ],
      "payable": false,
      "stateMutability": "view",
      "type": "function"
    },
    {
      "constant": true,
      "inputs": [
        {
          "name": "_script",
          "type": "bytes"
        }
      ],
      "name": "getEVMScriptExecutor",
      "outputs": [
        {
          "name": "",
          "type": "address"
        }
      ],
      "payable": false,
      "stateMutability": "view",
      "type": "function"
    },
    {
      "constant": true,
      "inputs": [],
      "name": "tokenManager",
      "outputs": [
        {
          "name": "",
          "type": "address"
        }
      ],
      "payable": false,
      "stateMutability": "view",
      "type": "function"
    },
    {
      "constant": true,
      "inputs": [],
      "name": "getRecoveryVault",
      "outputs": [
        {
          "name": "",
          "type": "address"
        }
      ],
      "payable": false,
      "stateMutability": "view",
      "type": "function"
    },
    {
      "constant": true,
      "inputs": [],
      "name": "beneficiary",
      "outputs": [
        {
          "name": "",
          "type": "address"
        }
      ],
      "payable": false,
      "stateMutability": "view",
      "type": "function"
    },
    {
      "constant": true,
      "inputs": [],
      "name": "exchangeRate",
      "outputs": [
        {
          "name": "",
          "type": "uint256"
        }
      ],
      "payable": false,
      "stateMutability": "view",
      "type": "function"
    },
    {
      "constant": true,
      "inputs": [],
      "name": "fundingForBeneficiaryPct",
      "outputs": [
        {
          "name": "",
          "type": "uint256"
        }
      ],
      "payable": false,
      "stateMutability": "view",
      "type": "function"
    },
    {
      "constant": true,
      "inputs": [],
      "name": "goal",
      "outputs": [
        {
          "name": "",
          "type": "uint256"
        }
      ],
      "payable": false,
      "stateMutability": "view",
      "type": "function"
    },
    {
      "constant": true,
      "inputs": [
        {
          "name": "",
          "type": "address"
        },
        {
          "name": "",
          "type": "uint256"
        }
      ],
      "name": "contributions",
      "outputs": [
        {
          "name": "",
          "type": "uint256"
        }
      ],
      "payable": false,
      "stateMutability": "view",
      "type": "function"
    },
    {
      "constant": true,
      "inputs": [],
      "name": "OPEN_ROLE",
      "outputs": [
        {
          "name": "",
          "type": "bytes32"
        }
      ],
      "payable": false,
      "stateMutability": "view",
      "type": "function"
    },
    {
      "constant": true,
      "inputs": [
        {
          "name": "token",
          "type": "address"
        }
      ],
      "name": "allowRecoverability",
      "outputs": [
        {
          "name": "",
          "type": "bool"
        }
      ],
      "payable": false,
      "stateMutability": "view",
      "type": "function"
    },
    {
      "constant": true,
      "inputs": [],
      "name": "appId",
      "outputs": [
        {
          "name": "",
          "type": "bytes32"
        }
      ],
      "payable": false,
      "stateMutability": "view",
      "type": "function"
    },
    {
      "constant": true,
      "inputs": [],
      "name": "getInitializationBlock",
      "outputs": [
        {
          "name": "",
          "type": "uint256"
        }
      ],
      "payable": false,
      "stateMutability": "view",
      "type": "function"
    },
    {
      "constant": false,
      "inputs": [
        {
          "name": "_token",
          "type": "address"
        }
      ],
      "name": "transferToVault",
      "outputs": [],
      "payable": false,
      "stateMutability": "nonpayable",
      "type": "function"
    },
    {
      "constant": true,
      "inputs": [
        {
          "name": "_sender",
          "type": "address"
        },
        {
          "name": "_role",
          "type": "bytes32"
        },
        {
          "name": "_params",
          "type": "uint256[]"
        }
      ],
      "name": "canPerform",
      "outputs": [
        {
          "name": "",
          "type": "bool"
        }
      ],
      "payable": false,
      "stateMutability": "view",
      "type": "function"
    },
    {
      "constant": true,
      "inputs": [],
      "name": "CONTRIBUTE_ROLE",
      "outputs": [
        {
          "name": "",
          "type": "bytes32"
        }
      ],
      "payable": false,
      "stateMutability": "view",
      "type": "function"
    },
    {
      "constant": true,
      "inputs": [],
      "name": "getEVMScriptRegistry",
      "outputs": [
        {
          "name": "",
          "type": "address"
        }
      ],
      "payable": false,
      "stateMutability": "view",
      "type": "function"
    },
    {
      "constant": true,
      "inputs": [],
      "name": "isClosed",
      "outputs": [
        {
          "name": "",
          "type": "bool"
        }
      ],
      "payable": false,
      "stateMutability": "view",
      "type": "function"
    },
    {
      "constant": true,
      "inputs": [],
      "name": "totalRaised",
      "outputs": [
        {
          "name": "",
          "type": "uint256"
        }
      ],
      "payable": false,
      "stateMutability": "view",
      "type": "function"
    },
    {
      "constant": true,
      "inputs": [],
      "name": "reserve",
      "outputs": [
        {
          "name": "",
          "type": "address"
        }
      ],
      "payable": false,
      "stateMutability": "view",
      "type": "function"
    },
    {
      "constant": true,
      "inputs": [],
      "name": "kernel",
      "outputs": [
        {
          "name": "",
          "type": "address"
        }
      ],
      "payable": false,
      "stateMutability": "view",
      "type": "function"
    },
    {
      "constant": true,
      "inputs": [],
      "name": "vestingCliffDate",
      "outputs": [
        {
          "name": "",
          "type": "uint64"
        }
      ],
      "payable": false,
      "stateMutability": "view",
      "type": "function"
    },
    {
      "constant": true,
      "inputs": [],
      "name": "isPetrified",
      "outputs": [
        {
          "name": "",
          "type": "bool"
        }
      ],
      "payable": false,
      "stateMutability": "view",
      "type": "function"
    },
    {
      "constant": true,
      "inputs": [],
      "name": "openDate",
      "outputs": [
        {
          "name": "",
          "type": "uint64"
        }
      ],
      "payable": false,
      "stateMutability": "view",
      "type": "function"
    },
    {
      "constant": true,
      "inputs": [],
      "name": "period",
      "outputs": [
        {
          "name": "",
          "type": "uint64"
        }
      ],
      "payable": false,
      "stateMutability": "view",
      "type": "function"
    },
    {
      "constant": true,
      "inputs": [],
      "name": "vestingCompleteDate",
      "outputs": [
        {
          "name": "",
          "type": "uint64"
        }
      ],
      "payable": false,
      "stateMutability": "view",
      "type": "function"
    },
    {
      "constant": true,
      "inputs": [],
      "name": "controller",
      "outputs": [
        {
          "name": "",
          "type": "address"
        }
      ],
      "payable": false,
      "stateMutability": "view",
      "type": "function"
    },
    {
      "constant": true,
      "inputs": [],
      "name": "token",
      "outputs": [
        {
          "name": "",
          "type": "address"
        }
      ],
      "payable": false,
      "stateMutability": "view",
      "type": "function"
    },
    {
      "anonymous": false,
      "inputs": [
        {
          "indexed": false,
          "name": "date",
          "type": "uint64"
        }
      ],
      "name": "SetOpenDate",
      "type": "event"
    },
    {
      "anonymous": false,
      "inputs": [],
      "name": "Close",
      "type": "event"
    },
    {
      "anonymous": false,
      "inputs": [
        {
          "indexed": true,
          "name": "contributor",
          "type": "address"
        },
        {
          "indexed": false,
          "name": "value",
          "type": "uint256"
        },
        {
          "indexed": false,
          "name": "amount",
          "type": "uint256"
        },
        {
          "indexed": false,
          "name": "vestedPurchaseId",
          "type": "uint256"
        }
      ],
      "name": "Contribute",
      "type": "event"
    },
    {
      "anonymous": false,
      "inputs": [
        {
          "indexed": true,
          "name": "contributor",
          "type": "address"
        },
        {
          "indexed": false,
          "name": "value",
          "type": "uint256"
        },
        {
          "indexed": false,
          "name": "amount",
          "type": "uint256"
        },
        {
          "indexed": false,
          "name": "vestedPurchaseId",
          "type": "uint256"
        }
      ],
      "name": "Refund",
      "type": "event"
    },
    {
      "anonymous": false,
      "inputs": [
        {
          "indexed": true,
          "name": "executor",
          "type": "address"
        },
        {
          "indexed": false,
          "name": "script",
          "type": "bytes"
        },
        {
          "indexed": false,
          "name": "input",
          "type": "bytes"
        },
        {
          "indexed": false,
          "name": "returnData",
          "type": "bytes"
        }
      ],
      "name": "ScriptResult",
      "type": "event"
    },
    {
      "anonymous": false,
      "inputs": [
        {
          "indexed": true,
          "name": "vault",
          "type": "address"
        },
        {
          "indexed": true,
          "name": "token",
          "type": "address"
        },
        {
          "indexed": false,
          "name": "amount",
          "type": "uint256"
        }
      ],
      "name": "RecoverToVault",
      "type": "event"
    },
    {
      "constant": false,
      "inputs": [
        {
          "name": "_controller",
          "type": "address"
        },
        {
          "name": "_tokenManager",
          "type": "address"
        },
        {
          "name": "_reserve",
          "type": "address"
        },
        {
          "name": "_beneficiary",
          "type": "address"
        },
        {
          "name": "_contributionToken",
          "type": "address"
        },
        {
          "name": "_goal",
          "type": "uint256"
        },
        {
          "name": "_period",
          "type": "uint64"
        },
        {
          "name": "_exchangeRate",
          "type": "uint256"
        },
        {
          "name": "_vestingCliffPeriod",
          "type": "uint64"
        },
        {
          "name": "_vestingCompletePeriod",
          "type": "uint64"
        },
        {
          "name": "_supplyOfferedPct",
          "type": "uint256"
        },
        {
          "name": "_fundingForBeneficiaryPct",
          "type": "uint256"
        },
        {
          "name": "_openDate",
          "type": "uint64"
        }
      ],
      "name": "initialize",
      "outputs": [],
      "payable": false,
      "stateMutability": "nonpayable",
      "type": "function"
    },
    {
      "constant": false,
      "inputs": [],
      "name": "open",
      "outputs": [],
      "payable": false,
      "stateMutability": "nonpayable",
      "type": "function"
    },
    {
      "constant": false,
      "inputs": [
        {
          "name": "_contributor",
          "type": "address"
        },
        {
          "name": "_value",
          "type": "uint256"
        }
      ],
      "name": "contribute",
      "outputs": [],
      "payable": true,
      "stateMutability": "payable",
      "type": "function"
    },
    {
      "constant": false,
      "inputs": [
        {
          "name": "_contributor",
          "type": "address"
        },
        {
          "name": "_vestedPurchaseId",
          "type": "uint256"
        }
      ],
      "name": "refund",
      "outputs": [],
      "payable": false,
      "stateMutability": "nonpayable",
      "type": "function"
    },
    {
      "constant": false,
      "inputs": [],
      "name": "close",
      "outputs": [],
      "payable": false,
      "stateMutability": "nonpayable",
      "type": "function"
    },
    {
      "constant": true,
      "inputs": [
        {
          "name": "_value",
          "type": "uint256"
        }
      ],
      "name": "contributionToTokens",
      "outputs": [
        {
          "name": "",
          "type": "uint256"
        }
      ],
      "payable": false,
      "stateMutability": "view",
      "type": "function"
    },
    {
      "constant": true,
      "inputs": [],
      "name": "contributionToken",
      "outputs": [
        {
          "name": "",
          "type": "address"
        }
      ],
      "payable": false,
      "stateMutability": "view",
      "type": "function"
    },
    {
      "constant": true,
      "inputs": [],
      "name": "state",
      "outputs": [
        {
          "name": "",
          "type": "uint8"
        }
      ],
      "payable": false,
      "stateMutability": "view",
      "type": "function"
    }
  ],
  "bytecode": "0x6080604052620000176401000000006200001d810204565b6200023b565b6200003064010000000062000125810204565b60408051808201909152601881527f494e49545f414c52454144595f494e495449414c495a45440000000000000000602082015290156200010c576040517f08c379a00000000000000000000000000000000000000000000000000000000081526004018080602001828103825283818151815260200191508051906020019080838360005b83811015620000d0578181015183820152602001620000b6565b50505050905090810190601f168015620000fe5780820380516001836020036101000a031916815260200191505b509250505060405180910390fd5b506200012360001964010000000062000154810204565b565b60006200014f60008051602062003e398339815191526401000000006200235c6200023382021704565b905090565b6200016764010000000062000125810204565b60408051808201909152601881527f494e49545f414c52454144595f494e495449414c495a454400000000000000006020820152901562000206576040517f08c379a000000000000000000000000000000000000000000000000000000000815260040180806020018281038252838181518152602001915080519060200190808383600083811015620000d0578181015183820152602001620000b6565b506200023060008051602062003e3983398151915282640100000000620023606200023782021704565b50565b5490565b9055565b613bee806200024b6000396000f3006080604052600436106101d35763ffffffff60e060020a600035041662fb40c281146101d85780630803fac01461020a5780630d720bbc146102335780631e4e5b611461025a57806325eeb6c61461026f5780632914b9bd146102845780632a709b14146102f957806332f0a3b51461030e57806338af3eed146103235780633ba0b9a9146103385780633c2ab1ba1461034d5780634019388314610362578063410085df1461037757806343d726d61461039d5780634bedf9a8146103b2578063550b521c146103c75780636a928e8f146103eb5780637e7db6e11461040057806380afdea8146104215780638418cd99146104365780638b3dd7491461044d57806396330f46146104625780639d4941d81461047a578063a1658fad1461049b578063a2b96b6f14610502578063a479e50814610517578063b472fc811461052c578063c19d93fb14610598578063c2b6b58c146105d1578063c5c4744c146105e6578063cd3293de146105fb578063d4aae0c414610610578063daba92f914610625578063de4796ed1461063a578063ec8cb2811461064f578063ef78d4fd14610664578063eff1e3b214610679578063f77c47911461068e578063fc0c546a146106a3578063fcfff16f146106b8575b600080fd5b3480156101e457600080fd5b506101ed6106cd565b6040805167ffffffffffffffff9092168252519081900360200190f35b34801561021657600080fd5b5061021f6106e9565b604080519115158252519081900360200190f35b34801561023f57600080fd5b50610248610712565b60408051918252519081900360200190f35b34801561026657600080fd5b50610248610719565b34801561027b57600080fd5b506101ed61071f565b34801561029057600080fd5b506040805160206004803580820135601f81018490048402850184019095528484526102dd94369492936024939284019190819084018382808284375094975061072f9650505050505050565b60408051600160a060020a039092168252519081900360200190f35b34801561030557600080fd5b506102dd610815565b34801561031a57600080fd5b506102dd610824565b34801561032f57600080fd5b506102dd61089d565b34801561034457600080fd5b506102486108ac565b34801561035957600080fd5b506102486108b2565b34801561036e57600080fd5b506102486108b8565b34801561038357600080fd5b5061039b600160a060020a03600435166024356108be565b005b3480156103a957600080fd5b5061039b610ad7565b3480156103be57600080fd5b506102dd610cb0565b3480156103d357600080fd5b50610248600160a060020a0360043516602435610d3f565b3480156103f757600080fd5b50610248610d5c565b34801561040c57600080fd5b5061021f600160a060020a0360043516610d80565b34801561042d57600080fd5b50610248610d86565b61039b600160a060020a0360043516602435610db6565b34801561045957600080fd5b50610248611152565b34801561046e57600080fd5b5061024860043561117d565b34801561048657600080fd5b5061039b600160a060020a036004351661122a565b3480156104a757600080fd5b50604080516020600460443581810135838102808601850190965280855261021f958335600160a060020a03169560248035963696956064959394920192918291850190849080828437509497506114b99650505050505050565b34801561050e57600080fd5b50610248611609565b34801561052357600080fd5b506102dd61162d565b34801561053857600080fd5b5061039b600160a060020a036004358116906024358116906044358116906064358116906084351660a43567ffffffffffffffff60c43581169060e4359061010435811690610124358116906101443590610164359061018435166116e2565b3480156105a457600080fd5b506105ad611f80565b604051808260048111156105bd57fe5b60ff16815260200191505060405180910390f35b3480156105dd57600080fd5b5061021f6120a2565b3480156105f257600080fd5b506102486120b7565b34801561060757600080fd5b506102dd6120bd565b34801561061c57600080fd5b506102dd6120cc565b34801561063157600080fd5b506101ed6120f7565b34801561064657600080fd5b5061021f612114565b34801561065b57600080fd5b506101ed612127565b34801561067057600080fd5b506101ed612137565b34801561068557600080fd5b506101ed612147565b34801561069a57600080fd5b506102dd61215e565b3480156106af57600080fd5b506102dd61216d565b3480156106c457600080fd5b5061039b61217c565b60095468010000000000000000900467ffffffffffffffff1681565b6000806106f4611152565b9050801580159061070c575080610709612358565b10155b91505090565b620f424081565b600a5481565b60095467ffffffffffffffff1681565b600061073961162d565b600160a060020a03166304bf2a7f836040518263ffffffff1660e060020a0281526004018080602001828103825283818151815260200191508051906020019080838360005b8381101561079757818101518382015260200161077f565b50505050905090810190601f1680156107c45780820380516001836020036101000a031916815260200191505b5092505050602060405180830381600087803b1580156107e357600080fd5b505af11580156107f7573d6000803e3d6000fd5b505050506040513d602081101561080d57600080fd5b505192915050565b600154600160a060020a031681565b600061082e6120cc565b600160a060020a03166332f0a3b56040518163ffffffff1660e060020a028152600401602060405180830381600087803b15801561086b57600080fd5b505af115801561087f573d6000803e3d6000fd5b505050506040513d602081101561089557600080fd5b505190505b90565b600454600160a060020a031681565b60085481565b600b5481565b60065481565b6108d5600080516020613b6383398151915261235c565b6040805180820190915260198152600080516020613ae3833981519152602082015290156109845760405160e560020a62461bcd0281526004018080602001828103825283818151815260200191508051906020019080838360005b83811015610949578181015183820152602001610931565b50505050905090810190601f1680156109765780820380516001836020036101000a031916815260200191505b509250505060405180910390fd5b506109a4600080516020613b63833981519152600163ffffffff61236016565b6109ac6106e9565b6040805180820190915260148152600080516020613b838339815191526020820152901515610a205760405160e560020a62461bcd02815260040180806020018281038252838181518152602001915080519060200190808383600083811015610949578181015183820152602001610931565b506002610a2b611f80565b6004811115610a3657fe5b6040805180820190915260158152600080516020613ac383398151915260208201529114610aa95760405160e560020a62461bcd02815260040180806020018281038252838181518152602001915080519060200190808383600083811015610949578181015183820152602001610931565b50610ab48282612364565b610ad3600080516020613b63833981519152600063ffffffff61236016565b5050565b610aee600080516020613b6383398151915261235c565b6040805180820190915260198152600080516020613ae383398151915260208201529015610b615760405160e560020a62461bcd02815260040180806020018281038252838181518152602001915080519060200190808383600083811015610949578181015183820152602001610931565b50610b81600080516020613b63833981519152600163ffffffff61236016565b610b896106e9565b6040805180820190915260148152600080516020613b838339815191526020820152901515610bfd5760405160e560020a62461bcd02815260040180806020018281038252838181518152602001915080519060200190808383600083811015610949578181015183820152602001610931565b506003610c08611f80565b6004811115610c1357fe5b6040805180820190915260158152600080516020613ac383398151915260208201529114610c865760405160e560020a62461bcd02815260040180806020018281038252838181518152602001915080519060200190808383600083811015610949578181015183820152602001610931565b50610c8f612641565b610cae600080516020613b63833981519152600063ffffffff61236016565b565b6000610cba6106e9565b6040805180820190915260148152600080516020613b838339815191526020820152901515610d2e5760405160e560020a62461bcd02815260040180806020018281038252838181518152602001915080519060200190808383600083811015610949578181015183820152602001610931565b5050600554600160a060020a031690565b600e60209081526000928352604080842090915290825290205481565b7fefa06053e2ca99a43c97c4a4f3d8a394ee3323a8ff237e625fba09fe30ceb0a481565b50600190565b6000610db17fd625496217aa6a3453eecb9c3489dc5a53e6c67b444329ea2b2cbc9ff547639b61235c565b905090565b610dcd600080516020613b6383398151915261235c565b6040805180820190915260198152600080516020613ae383398151915260208201529015610e405760405160e560020a62461bcd02815260040180806020018281038252838181518152602001915080519060200190808383600083811015610949578181015183820152602001610931565b50610e60600080516020613b63833981519152600163ffffffff61236016565b604080516000808252602082019092527f9ccaca4edf2127f20c425fdd86af1ba178b9e5bee280cd70d88ac5f6874c4f0791610ea29133918491905b506114b9565b60408051808201909152600f81527f4150505f415554485f4641494c454400000000000000000000000000000000006020820152901515610f285760405160e560020a62461bcd02815260040180806020018281038252838181518152602001915080519060200190808383600083811015610949578181015183820152602001610931565b506001610f33611f80565b6004811115610f3e57fe5b6040805180820190915260158152600080516020613ac383398151915260208201529114610fb15760405160e560020a62461bcd02815260040180806020018281038252838181518152602001915080519060200190808383600083811015610949578181015183820152602001610931565b50604080518082019091526020808252600080516020613b43833981519152908201528215156110265760405160e560020a62461bcd02815260040180806020018281038252838181518152602001915080519060200190808383600083811015610949578181015183820152602001610931565b50600554600160a060020a031615156110b357604080518082019091526020808252600080516020613b43833981519152908201523483146110ad5760405160e560020a62461bcd02815260040180806020018281038252838181518152602001915080519060200190808383600083811015610949578181015183820152602001610931565b50611128565b604080518082019091526020808252600080516020613b438339815191529082015234156111265760405160e560020a62461bcd02815260040180806020018281038252838181518152602001915080519060200190808383600083811015610949578181015183820152602001610931565b505b61113283836129e4565b50610ad3600080516020613b63833981519152600063ffffffff61236016565b6000610db17febb05b386a8d34882b8711d156f463690983dc47815980fb82aeeff1aa43579e61235c565b60006111876106e9565b6040805180820190915260148152600080516020613b8383398151915260208201529015156111fb5760405160e560020a62461bcd02815260040180806020018281038252838181518152602001915080519060200190808383600083811015610949578181015183820152602001610931565b50611224620f424061121860085485612e9390919063ffffffff16565b9063ffffffff612f4a16565b92915050565b600080600061123884610d80565b60408051808201909152601281527f5245434f5645525f444953414c4c4f574544000000000000000000000000000060208201529015156112be5760405160e560020a62461bcd02815260040180806020018281038252838181518152602001915080519060200190808383600083811015610949578181015183820152602001610931565b506112c7610824565b92506112d283612fea565b60408051808201909152601a81527f5245434f5645525f5641554c545f4e4f545f434f4e545241435400000000000060208201529015156113585760405160e560020a62461bcd02815260040180806020018281038252838181518152602001915080519060200190808383600083811015610949578181015183820152602001610931565b50600160a060020a03841615156113a95760405130319250600160a060020a0384169083156108fc029084906000818181858888f193505050501580156113a3573d6000803e3d6000fd5b50611468565b50826113c4600160a060020a0382163063ffffffff61301716565b91506113e0600160a060020a038216848463ffffffff61310116565b60408051808201909152601d81527f5245434f5645525f544f4b454e5f5452414e534645525f4641494c454400000060208201529015156114665760405160e560020a62461bcd02815260040180806020018281038252838181518152602001915080519060200190808383600083811015610949578181015183820152602001610931565b505b83600160a060020a031683600160a060020a03167f596caf56044b55fb8c4ca640089bbc2b63cae3e978b851f5745cbb7c5b288e02846040518082815260200191505060405180910390a350505050565b6000806114c46106e9565b15156114d35760009150611601565b6114db6120cc565b9050600160a060020a03811615156114f65760009150611601565b80600160a060020a031663fdef910686308761151188613177565b60405160e060020a63ffffffff8716028152600160a060020a03808616600483019081529085166024830152604482018490526080606483019081528351608484015283519192909160a490910190602085019080838360005b8381101561158357818101518382015260200161156b565b50505050905090810190601f1680156115b05780820380516001836020036101000a031916815260200191505b5095505050505050602060405180830381600087803b1580156115d257600080fd5b505af11580156115e6573d6000803e3d6000fd5b505050506040513d60208110156115fc57600080fd5b505191505b509392505050565b7f9ccaca4edf2127f20c425fdd86af1ba178b9e5bee280cd70d88ac5f6874c4f0781565b6000806116386120cc565b604080517fbe00bbd80000000000000000000000000000000000000000000000000000000081527fd6f028ca0e8edb4a8c9757ca4fdccab25fa1e0317da1188108f7d2dee14902fb60048201527fddbcfd564f642ab5627cf68b9b7d374fb4f8a36e941a75d89c87998cef03bd6160248201529051600160a060020a03929092169163be00bbd8916044808201926020929091908290030181600087803b1580156107e357600080fd5b6116ea611152565b60408051808201909152601881527f494e49545f414c52454144595f494e495449414c495a454400000000000000006020820152901561176f5760405160e560020a62461bcd02815260040180806020018281038252838181518152602001915080519060200190808383600083811015610949578181015183820152602001610931565b506117798d612fea565b6040805180820190915260178152600080516020613b0383398151915260208201529015156117ed5760405160e560020a62461bcd02815260040180806020018281038252838181518152602001915080519060200190808383600083811015610949578181015183820152602001610931565b506117f78c612fea565b6040805180820190915260178152600080516020613b03833981519152602082015290151561186b5760405160e560020a62461bcd02815260040180806020018281038252838181518152602001915080519060200190808383600083811015610949578181015183820152602001610931565b506118758b612fea565b6040805180820190915260178152600080516020613b0383398151915260208201529015156118e95760405160e560020a62461bcd02815260040180806020018281038252838181518152602001915080519060200190808383600083811015610949578181015183820152602001610931565b5060408051808201909152601b81527f50524553414c455f494e56414c49445f42454e454649434941525900000000006020820152600160a060020a038b1615156119795760405160e560020a62461bcd02815260040180806020018281038252838181518152602001915080519060200190808383600083811015610949578181015183820152602001610931565b5061198389612fea565b806119955750600160a060020a038916155b6040805190810160405280602081526020017f50524553414c455f494e56414c49445f434f4e545249425554455f544f4b454e815250901515611a1d5760405160e560020a62461bcd02815260040180806020018281038252838181518152602001915080519060200190808383600083811015610949578181015183820152602001610931565b5060408051808201909152601481527f50524553414c455f494e56414c49445f474f414c000000000000000000000000602082015260008911611aa55760405160e560020a62461bcd02815260040180806020018281038252838181518152602001915080519060200190808383600083811015610949578181015183820152602001610931565b5060408051808201909152601b8152600080516020613ba38339815191526020820152600067ffffffffffffffff891611611b255760405160e560020a62461bcd02815260040180806020018281038252838181518152602001915080519060200190808383600083811015610949578181015183820152602001610931565b5060408051808201909152601d81527f50524553414c455f494e56414c49445f45584348414e47455f52415445000000602082015260008711611bad5760405160e560020a62461bcd02815260040180806020018281038252838181518152602001915080519060200190808383600083811015610949578181015183820152602001610931565b5060408051808201909152601b8152600080516020613ba3833981519152602082015267ffffffffffffffff80891690871611611c2f5760405160e560020a62461bcd02815260040180806020018281038252838181518152602001915080519060200190808383600083811015610949578181015183820152602001610931565b5060408051808201909152601b8152600080516020613ba3833981519152602082015267ffffffffffffffff80871690861611611cb15760405160e560020a62461bcd02815260040180806020018281038252838181518152602001915080519060200190808383600083811015610949578181015183820152602001610931565b50600083118015611cc55750620f42408311155b60408051808201909152601381527f50524553414c455f494e56414c49445f504354000000000000000000000000006020820152901515611d4b5760405160e560020a62461bcd02815260040180806020018281038252838181518152602001915080519060200190808383600083811015610949578181015183820152602001610931565b5060008210158015611d605750620f42408211155b60408051808201909152601381527f50524553414c455f494e56414c49445f504354000000000000000000000000006020820152901515611de65760405160e560020a62461bcd02815260040180806020018281038252838181518152602001915080519060200190808383600083811015610949578181015183820152602001610931565b50611def613181565b8c6000806101000a815481600160a060020a030219169083600160a060020a031602179055508b600160006101000a815481600160a060020a030219169083600160a060020a031602179055508b600160a060020a031663fc0c546a6040518163ffffffff1660e060020a028152600401602060405180830381600087803b158015611e7a57600080fd5b505af1158015611e8e573d6000803e3d6000fd5b505050506040513d6020811015611ea457600080fd5b50516002805473ffffffffffffffffffffffffffffffffffffffff19908116600160a060020a03938416179091556003805482168e84161790556004805482168d841617905560058054909116918b1691909117905560068890556007805467ffffffffffffffff1990811667ffffffffffffffff8a811691909117909255600888905560098054909116878316176fffffffffffffffff000000000000000019166801000000000000000087841602179055600a849055600b839055811615611f7157611f7181613247565b50505050505050505050505050565b6000611f8a6106e9565b6040805180820190915260148152600080516020613b838339815191526020820152901515611ffe5760405160e560020a62461bcd02815260040180806020018281038252838181518152602001915080519060200190808383600083811015610949578181015183820152602001610931565b50600c5467ffffffffffffffff16158061202e575061201b613338565b600c5467ffffffffffffffff9182169116115b1561203b5750600061089a565b600654600d541061206d57600c5468010000000000000000900460ff16156120655750600461089a565b50600361089a565b60075467ffffffffffffffff1661208261334a565b67ffffffffffffffff16101561209a5750600161089a565b50600261089a565b600c5468010000000000000000900460ff1681565b600d5481565b600354600160a060020a031681565b6000610db17f4172f0f7d2289153072b0a6ca36959e0cbe2efc3afe50fc81636caa96338137b61235c565b600c546901000000000000000000900467ffffffffffffffff1681565b6000600019612121611152565b14905090565b600c5467ffffffffffffffff1681565b60075467ffffffffffffffff1681565b600c54608860020a900467ffffffffffffffff1681565b600054600160a060020a031681565b600254600160a060020a031681565b604080516000808252602082019092527fefa06053e2ca99a43c97c4a4f3d8a394ee3323a8ff237e625fba09fe30ceb0a4916121bc913391849190610e9c565b60408051808201909152600f81527f4150505f415554485f4641494c4544000000000000000000000000000000000060208201529015156122425760405160e560020a62461bcd02815260040180806020018281038252838181518152602001915080519060200190808383600083811015610949578181015183820152602001610931565b50600061224d611f80565b600481111561225857fe5b6040805180820190915260158152600080516020613ac3833981519152602082015291146122cb5760405160e560020a62461bcd02815260040180806020018281038252838181518152602001915080519060200190808383600083811015610949578181015183820152602001610931565b50600c546040805180820190915260158152600080516020613ac383398151915260208201529067ffffffffffffffff161561234c5760405160e560020a62461bcd02815260040180806020018281038252838181518152602001915080519060200190808383600083811015610949578181015183820152602001610931565b5061235561339e565b50565b4390565b5490565b9055565b600160a060020a0382166000908152600e602090815260408083208484528252808320548151808301909252601982527f50524553414c455f4e4f5448494e475f544f5f524546554e4400000000000000928201929092529091908183116124115760405160e560020a62461bcd02815260040180806020018281038252838181518152602001915080519060200190808383600083811015610949578181015183820152602001610931565b50600160a060020a038085166000908152600e6020908152604080832087845290915281205560055461244791163086856133ae565b600154604080517f3e05a36d000000000000000000000000000000000000000000000000000000008152600160a060020a0387811660048301526024820187905291519190921691633e05a36d9160448083019260a09291908290030181600087803b1580156124b657600080fd5b505af11580156124ca573d6000803e3d6000fd5b505050506040513d60a08110156124e057600080fd5b5051600154604080517ffa6799f2000000000000000000000000000000000000000000000000000000008152600160a060020a03888116600483015260248201889052915193945091169163fa6799f29160448082019260009290919082900301818387803b15801561255257600080fd5b505af1158015612566573d6000803e3d6000fd5b5050600154604080517f9dc29fac000000000000000000000000000000000000000000000000000000008152600160a060020a0390921660048301819052602483018690529051909350639dc29fac9250604480830192600092919082900301818387803b1580156125d757600080fd5b505af11580156125eb573d6000803e3d6000fd5b505060408051858152602081018590528082018790529051600160a060020a03881693507fb7048c2ad36aadee977bb16b4543a18866044d27a2ca753e1c7dbcfa7d7a696292509081900360600190a250505050565b600c805468ff0000000000000000191668010000000000000000179055600b54600d546000918291829161268491620f424091611218919063ffffffff612e9316565b925060008311156126ae576005546004546126ae91600160a060020a0390811691309116866133ae565b600554600160a060020a031615612740576005546040805160e060020a6370a082310281523060048201529051600160a060020a03909216916370a08231916024808201926020929091908290030181600087803b15801561270f57600080fd5b505af1158015612723573d6000803e3d6000fd5b505050506040513d602081101561273957600080fd5b5051612743565b30315b60055460035491935061276591600160a060020a0391821691309116856133ae565b600a5461280d90611218612782620f42408363ffffffff61362d16565b600260009054906101000a9004600160a060020a0316600160a060020a03166318160ddd6040518163ffffffff1660e060020a028152600401602060405180830381600087803b1580156127d557600080fd5b505af11580156127e9573d6000803e3d6000fd5b505050506040513d60208110156127ff57600080fd5b50519063ffffffff612e9316565b6001546040805160e160020a63664395b3028152600481018490529051929350600160a060020a039091169163cc872b669160248082019260009290919082900301818387803b15801561286057600080fd5b505af1158015612874573d6000803e3d6000fd5b505060015460048054600c546040805160e060020a6321cb18cd028152600160a060020a03938416948101949094526024840188905267ffffffffffffffff80831660448601526901000000000000000000830481166064860152608860020a9092049091166084840152600060a4840181905290519190931694506321cb18cd935060c48083019360209383900390910190829087803b15801561291857600080fd5b505af115801561292c573d6000803e3d6000fd5b505050506040513d602081101561294257600080fd5b505060008054604080517fc9567bf90000000000000000000000000000000000000000000000000000000081529051600160a060020a039092169263c9567bf99260048084019382900301818387803b15801561299e57600080fd5b505af11580156129b2573d6000803e3d6000fd5b50506040517fc35789ccff76271dc0efa6bfde2f4d4a32cd48dd86278f75f8648cb068c86e3b925060009150a1505050565b6000806000600654612a0185600d546136c190919063ffffffff16565b11612a0c5783612a21565b600d54600654612a219163ffffffff61362d16565b600554909350600160a060020a0316158015612a3c57508284115b15612a7f57336108fc612a55868663ffffffff61362d16565b6040518115909202916000818181858888f19350505050158015612a7d573d6000803e3d6000fd5b505b600554600160a060020a031615612cd4576005546040805160e060020a6370a08231028152600160a060020a0388811660048301529151869392909216916370a08231916024808201926020929091908290030181600087803b158015612ae557600080fd5b505af1158015612af9573d6000803e3d6000fd5b505050506040513d6020811015612b0f57600080fd5b505160408051808201909152601c81527f50524553414c455f494e53554646494349454e545f42414c414e4345000000006020820152911115612b975760405160e560020a62461bcd02815260040180806020018281038252838181518152602001915080519060200190808383600083811015610949578181015183820152602001610931565b50600554604080517fdd62ed3e000000000000000000000000000000000000000000000000000000008152600160a060020a03888116600483015230602483015291518693929092169163dd62ed3e916044808201926020929091908290030181600087803b158015612c0957600080fd5b505af1158015612c1d573d6000803e3d6000fd5b505050506040513d6020811015612c3357600080fd5b505160408051808201909152601e81527f50524553414c455f494e53554646494349454e545f414c4c4f57414e434500006020820152911115612cbb5760405160e560020a62461bcd02815260040180806020018281038252838181518152602001915080519060200190808383600083811015610949578181015183820152602001610931565b50600554612cd490600160a060020a03168630866133ae565b612cdd8361117d565b6001546040805160e160020a63664395b3028152600481018490529051929450600160a060020a039091169163cc872b669160248082019260009290919082900301818387803b158015612d3057600080fd5b505af1158015612d44573d6000803e3d6000fd5b505060018054600c546040805160e060020a6321cb18cd028152600160a060020a038c81166004830152602482018a905267ffffffffffffffff80851660448401526901000000000000000000850481166064840152608860020a909404909316608482015260a481019490945251911693506321cb18cd925060c48083019260209291908290030181600087803b158015612ddf57600080fd5b505af1158015612df3573d6000803e3d6000fd5b505050506040513d6020811015612e0957600080fd5b5051600d54909150612e21908463ffffffff6136c116565b600d55600160a060020a0385166000818152600e60209081526040808320858452825291829020869055815186815290810185905280820184905290517f37e36ebc6d4ece9d361f20138c5dee2a19f8029f2236a30715e971bcf0f0b7349181900360600190a25050505050565b5490565b600080831515612ea65760009150612f43565b50828202828482811515612eb657fe5b60408051808201909152601181527f4d4154485f4d554c5f4f564552464c4f5700000000000000000000000000000060208201529291900414612f3e5760405160e560020a62461bcd02815260040180806020018281038252838181518152602001915080519060200190808383600083811015610949578181015183820152602001610931565b508091505b5092915050565b60408051808201909152600d81527f4d4154485f4449565f5a45524f0000000000000000000000000000000000000060208201526000908190818411612fd55760405160e560020a62461bcd02815260040180806020018281038252838181518152602001915080519060200190808383600083811015610949578181015183820152602001610931565b508284811515612fe157fe5b04949350505050565b600080600160a060020a03831615156130065760009150613011565b823b90506000811191505b50919050565b60408051600160a060020a038316602480830191909152825180830390910181526044909101909152602081018051600160e060020a031660e060020a6370a0823102179052600090818061306c868461374f565b60408051808201909152601c81527f534146455f4552435f32305f42414c414e43455f524556455254454400000000602082015291935091508215156130f75760405160e560020a62461bcd02815260040180806020018281038252838181518152602001915080519060200190808383600083811015610949578181015183820152602001610931565b5095945050505050565b60408051600160a060020a03841660248201526044808201849052825180830390910181526064909101909152602081018051600160e060020a03167fa9059cbb0000000000000000000000000000000000000000000000000000000017905260009061316e8582613780565b95945050505050565b8051602002815290565b613189611152565b60408051808201909152601881527f494e49545f414c52454144595f494e495449414c495a454400000000000000006020820152901561320e5760405160e560020a62461bcd02815260040180806020018281038252838181518152602001915080519060200190808383600083811015610949578181015183820152602001610931565b50610cae61321a612358565b7febb05b386a8d34882b8711d156f463690983dc47815980fb82aeeff1aa43579e9063ffffffff61236016565b61324f613338565b60408051808201909152601b8152600080516020613ba383398151915260208201529067ffffffffffffffff90811690831610156132d25760405160e560020a62461bcd02815260040180806020018281038252838181518152602001915080519060200190808383600083811015610949578181015183820152602001610931565b50600c805467ffffffffffffffff191667ffffffffffffffff83161790556132f86137d2565b6040805167ffffffffffffffff8316815290517fab2aeaceefdbd207caa02bf58306335f7c37fd3b434a6cc547733be5e33a86779181900360200190a150565b6000610db1613345613872565b613876565b600c5460009067ffffffffffffffff1615156133685750600061089a565b600c546133979067ffffffffffffffff16613381613338565b67ffffffffffffffff169063ffffffff61390f16565b905061089a565b610cae6133a9613338565b613247565b600160a060020a03841615156134f75760408051808201909152601f8152600080516020613b238339815191526020820152600160a060020a038416301461343b5760405160e560020a62461bcd02815260040180806020018281038252838181518152602001915080519060200190808383600083811015610949578181015183820152602001610931565b5060408051808201909152601f8152600080516020613b238339815191526020820152600160a060020a0383163014156134ba5760405160e560020a62461bcd02815260040180806020018281038252838181518152602001915080519060200190808383600083811015610949578181015183820152602001610931565b50604051600160a060020a0383169082156108fc029083906000818181858888f193505050501580156134f1573d6000803e3d6000fd5b50613627565b600160a060020a03831630141561359657613522600160a060020a038516838363ffffffff61310116565b60408051808201909152601f8152600080516020613b2383398151915260208201529015156134f15760405160e560020a62461bcd02815260040180806020018281038252838181518152602001915080519060200190808383600083811015610949578181015183820152602001610931565b6135b1600160a060020a03851684848463ffffffff6139a816565b60408051808201909152601f8152600080516020613b2383398151915260208201529015156136255760405160e560020a62461bcd02815260040180806020018281038252838181518152602001915080519060200190808383600083811015610949578181015183820152602001610931565b505b50505050565b60408051808201909152601281527f4d4154485f5355425f554e444552464c4f57000000000000000000000000000060208201526000908190848411156136b95760405160e560020a62461bcd02815260040180806020018281038252838181518152602001915080519060200190808383600083811015610949578181015183820152602001610931565b505050900390565b60408051808201909152601181527f4d4154485f4144445f4f564552464c4f5700000000000000000000000000000060208201526000908383019084821015612f3e5760405160e560020a62461bcd02815260040180806020018281038252838181518152602001915080519060200190808383600083811015610949578181015183820152602001610931565b6000806000806040516020818751602089018a5afa9250600083111561377457805191505b50909590945092505050565b6000806040516020818551602087016000895af160008111156137c4573d80156137b157602081146137ba576137c2565b600193506137c2565b600183511493505b505b5090949350505050565b9055565b600954600c546137f59167ffffffffffffffff918216911663ffffffff613a2716565b600c805470ffffffffffffffff0000000000000000001916690100000000000000000067ffffffffffffffff93841602179081905560095461384892918216916801000000000000000090910416613a27565b600c60116101000a81548167ffffffffffffffff021916908367ffffffffffffffff160217905550565b4290565b60408051808201909152601581527f55494e5436345f4e554d4245525f544f4f5f4249470000000000000000000000602082015260009067ffffffffffffffff8311156139085760405160e560020a62461bcd02815260040180806020018281038252838181518152602001915080519060200190808383600083811015610949578181015183820152602001610931565b5090919050565b60408051808201909152601481527f4d41544836345f5355425f554e444552464c4f570000000000000000000000006020820152600090819067ffffffffffffffff80861690851611156136b95760405160e560020a62461bcd02815260040180806020018281038252838181518152602001915080519060200190808383600083811015610949578181015183820152602001610931565b60408051600160a060020a038581166024830152841660448201526064808201849052825180830390910181526084909101909152602081018051600160e060020a03167f23b872dd00000000000000000000000000000000000000000000000000000000179052600090613a1d8682613780565b9695505050505050565b60408051808201909152601381527f4d41544836345f4144445f4f564552464c4f570000000000000000000000000060208201526000908383019067ffffffffffffffff8086169083161015612f3e5760405160e560020a62461bcd02815260040180806020018281038252838181518152602001915080519060200190808383600083811015610949578181015183820152602001610931560050524553414c455f494e56414c49445f535441544500000000000000000000005245454e5452414e43595f5245454e5452414e545f43414c4c0000000000000050524553414c455f434f4e54524143545f49535f454f4100000000000000000050524553414c455f544f4b454e5f5452414e534645525f52455645525445440050524553414c455f494e56414c49445f434f4e545249425554455f56414c5545e855346402235fdd185c890e68d2c4ecad599b88587635ee285bce2fda58dacb494e49545f4e4f545f494e495449414c495a454400000000000000000000000050524553414c455f494e56414c49445f54494d455f504552494f440000000000a165627a7a72305820b656e4b686e3d5bb1ffcd03d57f2b27d9a926f8625b2b6e0c21cd3d8a032f6b00029ebb05b386a8d34882b8711d156f463690983dc47815980fb82aeeff1aa43579e",
  "source": "pragma solidity ^0.4.24;\n\nimport \"@aragon/os/contracts/apps/AragonApp.sol\";\nimport \"@aragon/os/contracts/common/EtherTokenConstant.sol\";\nimport \"@aragon/os/contracts/common/IsContract.sol\";\nimport \"@aragon/os/contracts/common/SafeERC20.sol\";\nimport \"@aragon/os/contracts/lib/math/SafeMath.sol\";\nimport \"@aragon/os/contracts/lib/math/SafeMath64.sol\";\nimport \"@aragon/os/contracts/lib/token/ERC20.sol\";\nimport \"@aragon/apps-token-manager/contracts/TokenManager.sol\";\nimport \"@ablack/fundraising-shared-interfaces/contracts/IPresale.sol\";\nimport \"@ablack/fundraising-shared-interfaces/contracts/IAragonFundraisingController.sol\";\n\ncontract Presale is IPresale, EtherTokenConstant, IsContract, AragonApp {\n    using SafeERC20  for ERC20;\n    using SafeMath   for uint256;\n    using SafeMath64 for uint64;\n\n    /**\n    Hardcoded constants to save gas\n    bytes32 public constant OPEN_ROLE       = keccak256(\"OPEN_ROLE\");\n    bytes32 public constant CONTRIBUTE_ROLE = keccak256(\"CONTRIBUTE_ROLE\");\n    */\n    bytes32 public constant OPEN_ROLE       = 0xefa06053e2ca99a43c97c4a4f3d8a394ee3323a8ff237e625fba09fe30ceb0a4;\n    bytes32 public constant CONTRIBUTE_ROLE = 0x9ccaca4edf2127f20c425fdd86af1ba178b9e5bee280cd70d88ac5f6874c4f07;\n\n    uint256 public constant PPM = 1000000; // 0% = 0 * 10 ** 4; 1% = 1 * 10 ** 4; 100% = 100 * 10 ** 4\n\n    string private constant ERROR_CONTRACT_IS_EOA          = \"PRESALE_CONTRACT_IS_EOA\";\n    string private constant ERROR_INVALID_BENEFICIARY      = \"PRESALE_INVALID_BENEFICIARY\";\n    string private constant ERROR_INVALID_CONTRIBUTE_TOKEN = \"PRESALE_INVALID_CONTRIBUTE_TOKEN\";\n    string private constant ERROR_INVALID_GOAL             = \"PRESALE_INVALID_GOAL\";\n    string private constant ERROR_INVALID_EXCHANGE_RATE    = \"PRESALE_INVALID_EXCHANGE_RATE\";\n    string private constant ERROR_INVALID_TIME_PERIOD      = \"PRESALE_INVALID_TIME_PERIOD\";\n    string private constant ERROR_INVALID_PCT              = \"PRESALE_INVALID_PCT\";\n    string private constant ERROR_INVALID_STATE            = \"PRESALE_INVALID_STATE\";\n    string private constant ERROR_INVALID_CONTRIBUTE_VALUE = \"PRESALE_INVALID_CONTRIBUTE_VALUE\";\n    string private constant ERROR_INSUFFICIENT_BALANCE     = \"PRESALE_INSUFFICIENT_BALANCE\";\n    string private constant ERROR_INSUFFICIENT_ALLOWANCE   = \"PRESALE_INSUFFICIENT_ALLOWANCE\";\n    string private constant ERROR_NOTHING_TO_REFUND        = \"PRESALE_NOTHING_TO_REFUND\";\n    string private constant ERROR_TOKEN_TRANSFER_REVERTED  = \"PRESALE_TOKEN_TRANSFER_REVERTED\";\n\n    enum State {\n        Pending,     // presale is idle and pending to be started\n        Funding,     // presale has started and contributors can purchase tokens\n        Refunding,   // presale has not reached goal within period and contributors can claim refunds\n        GoalReached, // presale has reached goal within period and trading is ready to be open\n        Closed       // presale has reached goal within period, has been closed and trading has been open\n    }\n\n    IAragonFundraisingController                    public controller;\n    TokenManager                                    public tokenManager;\n    ERC20                                           public token;\n    address                                         public reserve;\n    address                                         public beneficiary;\n    address                                         public contributionToken;\n\n    uint256                                         public goal;\n    uint64                                          public period;\n    uint256                                         public exchangeRate;\n    uint64                                          public vestingCliffPeriod;\n    uint64                                          public vestingCompletePeriod;\n    uint256                                         public supplyOfferedPct;\n    uint256                                         public fundingForBeneficiaryPct;\n    uint64                                          public openDate;\n\n    bool                                            public isClosed;\n    uint64                                          public vestingCliffDate;\n    uint64                                          public vestingCompleteDate;\n    uint256                                         public totalRaised;\n    mapping(address => mapping(uint256 => uint256)) public contributions; // contributor => (vestedPurchaseId => tokensSpent)\n\n    event SetOpenDate (uint64 date);\n    event Close       ();\n    event Contribute  (address indexed contributor, uint256 value, uint256 amount, uint256 vestedPurchaseId);\n    event Refund      (address indexed contributor, uint256 value, uint256 amount, uint256 vestedPurchaseId);\n\n\n    /***** external function *****/\n\n    /**\n     * @notice Initialize presale\n     * @param _controller               The address of the controller contract\n     * @param _tokenManager             The address of the [bonded] token manager contract\n     * @param _reserve                  The address of the reserve [pool] contract\n     * @param _beneficiary              The address of the beneficiary [to whom a percentage of the raised funds is be to be sent]\n     * @param _contributionToken        The address of the token to be used to contribute\n     * @param _goal                     The goal to be reached by the end of that presale [in contribution token wei]\n     * @param _period                   The period within which to accept contribution for that presale\n     * @param _exchangeRate             The exchangeRate [= 1/price] at which [bonded] tokens are to be purchased for that presale [in PPM]\n     * @param _vestingCliffPeriod       The period during which purchased [bonded] tokens are to be cliffed\n     * @param _vestingCompletePeriod    The complete period during which purchased [bonded] tokens are to be vested\n     * @param _supplyOfferedPct         The percentage of the initial supply of [bonded] tokens to be offered during that presale [in PPM]\n     * @param _fundingForBeneficiaryPct The percentage of the raised contribution tokens to be sent to the beneficiary [instead of the fundraising reserve] when that presale is closed [in PPM]\n     * @param _openDate                 The date upon which that presale is to be open [ignored if 0]\n    */\n    function initialize(\n        IAragonFundraisingController _controller,\n        TokenManager                 _tokenManager,\n        address                      _reserve,\n        address                      _beneficiary,\n        address                      _contributionToken,\n        uint256                      _goal,\n        uint64                       _period,\n        uint256                      _exchangeRate,\n        uint64                       _vestingCliffPeriod,\n        uint64                       _vestingCompletePeriod,\n        uint256                      _supplyOfferedPct,\n        uint256                      _fundingForBeneficiaryPct,\n        uint64                       _openDate\n    )\n        external\n        onlyInit\n    {\n        require(isContract(_controller),                                            ERROR_CONTRACT_IS_EOA);\n        require(isContract(_tokenManager),                                          ERROR_CONTRACT_IS_EOA);\n        require(isContract(_reserve),                                               ERROR_CONTRACT_IS_EOA);\n        require(_beneficiary != address(0),                                         ERROR_INVALID_BENEFICIARY);\n        require(isContract(_contributionToken) || _contributionToken == ETH,        ERROR_INVALID_CONTRIBUTE_TOKEN);\n        require(_goal > 0,                                                          ERROR_INVALID_GOAL);\n        require(_period > 0,                                                        ERROR_INVALID_TIME_PERIOD);\n        require(_exchangeRate > 0,                                                  ERROR_INVALID_EXCHANGE_RATE);\n        require(_vestingCliffPeriod > _period,                                      ERROR_INVALID_TIME_PERIOD);\n        require(_vestingCompletePeriod > _vestingCliffPeriod,                       ERROR_INVALID_TIME_PERIOD);\n        require(_supplyOfferedPct > 0 && _supplyOfferedPct <= PPM,                  ERROR_INVALID_PCT);\n        require(_fundingForBeneficiaryPct >= 0 && _fundingForBeneficiaryPct <= PPM, ERROR_INVALID_PCT);\n\n        initialized();\n\n        controller = _controller;\n        tokenManager = _tokenManager;\n        token = ERC20(_tokenManager.token());\n        reserve = _reserve;\n        beneficiary = _beneficiary;\n        contributionToken = _contributionToken;\n        goal = _goal;\n        period = _period;\n        exchangeRate = _exchangeRate;\n        vestingCliffPeriod = _vestingCliffPeriod;\n        vestingCompletePeriod = _vestingCompletePeriod;\n        supplyOfferedPct = _supplyOfferedPct;\n        fundingForBeneficiaryPct = _fundingForBeneficiaryPct;\n\n        if (_openDate != 0) {\n            _setOpenDate(_openDate);\n        }\n    }\n\n    /**\n     * @notice Open presale [enabling users to contribute]\n    */\n    function open() external auth(OPEN_ROLE) {\n        require(state() == State.Pending, ERROR_INVALID_STATE);\n        require(openDate == 0,            ERROR_INVALID_STATE);\n\n        _open();\n    }\n\n    /**\n     * @notice Contribute to the presale up to `@tokenAmount(self.contributionToken(): address, _value)`\n     * @param _contributor The address of the contributor\n     * @param _value       The amount of contribution token to be spent\n    */\n    function contribute(address _contributor, uint256 _value) external payable nonReentrant auth(CONTRIBUTE_ROLE) {\n        require(state() == State.Funding, ERROR_INVALID_STATE);\n        require(_value != 0,              ERROR_INVALID_CONTRIBUTE_VALUE);\n\n        if (contributionToken == ETH) {\n            require(msg.value == _value, ERROR_INVALID_CONTRIBUTE_VALUE);\n        } else {\n            require(msg.value == 0,      ERROR_INVALID_CONTRIBUTE_VALUE);\n        }\n\n        _contribute(_contributor, _value);\n    }\n\n    /**\n     * @notice Refund `_contributor`'s presale contribution #`_vestedPurchaseId`\n     * @param _contributor      The address of the contributor whose presale contribution is to be refunded\n     * @param _vestedPurchaseId The id of the contribution to be refunded\n    */\n    function refund(address _contributor, uint256 _vestedPurchaseId) external nonReentrant isInitialized {\n        require(state() == State.Refunding, ERROR_INVALID_STATE);\n\n        _refund(_contributor, _vestedPurchaseId);\n    }\n\n    /**\n     * @notice Close presale and open trading\n    */\n    function close() external nonReentrant isInitialized {\n        require(state() == State.GoalReached, ERROR_INVALID_STATE);\n\n        _close();\n    }\n\n    /***** public view functions *****/\n\n    /**\n     * @notice Computes the amount of [bonded] tokens that would be purchased for `@tokenAmount(self.contributionToken(): address, _value)`\n     * @param _value The amount of contribution tokens to be used in that computation\n    */\n    function contributionToTokens(uint256 _value) public view isInitialized returns (uint256) {\n        return _value.mul(exchangeRate).div(PPM);\n    }\n\n    function contributionToken() public view isInitialized returns (address) {\n        return contributionToken;\n    }\n\n    /**\n     * @notice Returns the current state of that presale\n    */\n    function state() public view isInitialized returns (State) {\n        if (openDate == 0 || openDate > getTimestamp64()) {\n            return State.Pending;\n        }\n\n        if (totalRaised >= goal) {\n            if (isClosed) {\n                return State.Closed;\n            } else {\n                return State.GoalReached;\n            }\n        }\n\n        if (_timeSinceOpen() < period) {\n            return State.Funding;\n        } else {\n            return State.Refunding;\n        }\n    }\n\n    /***** internal functions *****/\n\n    function _timeSinceOpen() internal view returns (uint64) {\n        if (openDate == 0) {\n            return 0;\n        } else {\n            return getTimestamp64().sub(openDate);\n        }\n    }\n\n    function _setOpenDate(uint64 _date) internal {\n        require(_date >= getTimestamp64(), ERROR_INVALID_TIME_PERIOD);\n\n        openDate = _date;\n        _setVestingDatesWhenOpenDateIsKnown();\n\n        emit SetOpenDate(_date);\n    }\n\n    function _setVestingDatesWhenOpenDateIsKnown() internal {\n        vestingCliffDate = openDate.add(vestingCliffPeriod);\n        vestingCompleteDate = openDate.add(vestingCompletePeriod);\n    }\n\n    function _open() internal {\n        _setOpenDate(getTimestamp64());\n    }\n\n    function _contribute(address _contributor, uint256 _value) internal {\n        uint256 value = totalRaised.add(_value) > goal ? goal.sub(totalRaised) : _value;\n        if (contributionToken == ETH && _value > value) {\n            msg.sender.transfer(_value.sub(value));\n        }\n\n        // (contributor) ~~~> contribution tokens ~~~> (presale)\n        if (contributionToken != ETH) {\n            require(ERC20(contributionToken).balanceOf(_contributor) >= value,                ERROR_INSUFFICIENT_BALANCE);\n            require(ERC20(contributionToken).allowance(_contributor, address(this)) >= value, ERROR_INSUFFICIENT_ALLOWANCE);\n            _transfer(contributionToken, _contributor, address(this), value);\n        }\n        // (mint ) ~~~> project tokens ~~~> (contributor)\n        uint256 tokensToSell = contributionToTokens(value);\n        tokenManager.issue(tokensToSell);\n        uint256 vestedPurchaseId = tokenManager.assignVested(\n            _contributor,\n            tokensToSell,\n            openDate,\n            vestingCliffDate,\n            vestingCompleteDate,\n            true /* revokable */\n        );\n        totalRaised = totalRaised.add(value);\n        // register contribution tokens spent in this purchase for a possible upcoming refund\n        contributions[_contributor][vestedPurchaseId] = value;\n\n        emit Contribute(_contributor, value, tokensToSell, vestedPurchaseId);\n    }\n\n    function _refund(address _contributor, uint256 _vestedPurchaseId) internal {\n        // recall how much contribution tokens are to be refund for this purchase\n        uint256 tokensToRefund = contributions[_contributor][_vestedPurchaseId];\n        require(tokensToRefund > 0, ERROR_NOTHING_TO_REFUND);\n        contributions[_contributor][_vestedPurchaseId] = 0;\n        // (presale) ~~~> contribution tokens ~~~> (contributor)\n        _transfer(contributionToken, address(this), _contributor, tokensToRefund);\n        /**\n         * NOTE\n         * the following lines assume that _contributor has not transfered any of its vested tokens\n         * for now TokenManager does not handle switching the transferrable status of its underlying token\n         * there is thus no way to enforce non-transferrability during the presale phase only\n         * this will be updated in a later version\n        */\n        // (contributor) ~~~> project tokens ~~~> (token manager)\n        (uint256 tokensSold,,,,) = tokenManager.getVesting(_contributor, _vestedPurchaseId);\n        tokenManager.revokeVesting(_contributor, _vestedPurchaseId);\n        // (token manager) ~~~> project tokens ~~~> (burn )\n        tokenManager.burn(address(tokenManager), tokensSold);\n\n        emit Refund(_contributor, tokensToRefund, tokensSold, _vestedPurchaseId);\n    }\n\n    function _close() internal {\n        isClosed = true;\n\n        // (presale) ~~~> contribution tokens ~~~> (beneficiary)\n        uint256 fundsForBeneficiary = totalRaised.mul(fundingForBeneficiaryPct).div(PPM);\n        if (fundsForBeneficiary > 0) {\n            _transfer(contributionToken, address(this), beneficiary, fundsForBeneficiary);\n        }\n        // (presale) ~~~> contribution tokens ~~~> (reserve)\n        uint256 tokensForReserve = contributionToken == ETH ? address(this).balance : ERC20(contributionToken).balanceOf(address(this));\n\n        _transfer(contributionToken, address(this), reserve, tokensForReserve);\n        // (mint ) ~~~> project tokens ~~~> (beneficiary)\n        uint256 tokensForBeneficiary = token.totalSupply().mul(PPM.sub(supplyOfferedPct)).div(supplyOfferedPct);\n        tokenManager.issue(tokensForBeneficiary);\n        tokenManager.assignVested(\n            beneficiary,\n            tokensForBeneficiary,\n            openDate,\n            vestingCliffDate,\n            vestingCompleteDate,\n            false /* revokable */\n        );\n        // open trading\n        controller.openTrading();\n\n        emit Close();\n    }\n\n    function _transfer(address _token, address _from, address _to, uint256 _amount) internal {\n        if (_token == ETH) {\n            require(_from == address(this), ERROR_TOKEN_TRANSFER_REVERTED);\n            require(_to != address(this),   ERROR_TOKEN_TRANSFER_REVERTED);\n            _to.transfer(_amount);\n        } else {\n            if (_from == address(this)) {\n                require(ERC20(_token).safeTransfer(_to, _amount), ERROR_TOKEN_TRANSFER_REVERTED);\n            } else {\n                require(ERC20(_token).safeTransferFrom(_from, _to, _amount), ERROR_TOKEN_TRANSFER_REVERTED);\n            }\n        }\n    }\n}\n",
  "sourcePath": "@ablack/fundraising-presale/contracts/Presale.sol",
  "compiler": {
    "name": "solc",
    "version": "0.4.24+commit.e67f0147.Emscripten.clang"
  },
  "schemaVersion": "2.0.1",
  "updatedAt": "2020-02-09T15:22:16.452Z"
}