{
  "contractName": "Repo",
  "abi": [
    {
      "constant": true,
      "inputs": [],
      "name": "hasInitialized",
      "outputs": [
        {
          "name": "",
          "type": "bool"
        }
      ],
      "payable": false,
      "stateMutability": "view",
      "type": "function"
    },
    {
      "constant": true,
      "inputs": [
        {
          "name": "_script",
          "type": "bytes"
        }
      ],
      "name": "getEVMScriptExecutor",
      "outputs": [
        {
          "name": "",
          "type": "address"
        }
      ],
      "payable": false,
      "stateMutability": "view",
      "type": "function"
    },
    {
      "constant": true,
      "inputs": [],
      "name": "getRecoveryVault",
      "outputs": [
        {
          "name": "",
          "type": "address"
        }
      ],
      "payable": false,
      "stateMutability": "view",
      "type": "function"
    },
    {
      "constant": true,
      "inputs": [
        {
          "name": "token",
          "type": "address"
        }
      ],
      "name": "allowRecoverability",
      "outputs": [
        {
          "name": "",
          "type": "bool"
        }
      ],
      "payable": false,
      "stateMutability": "view",
      "type": "function"
    },
    {
      "constant": true,
      "inputs": [],
      "name": "appId",
      "outputs": [
        {
          "name": "",
          "type": "bytes32"
        }
      ],
      "payable": false,
      "stateMutability": "view",
      "type": "function"
    },
    {
      "constant": true,
      "inputs": [],
      "name": "getInitializationBlock",
      "outputs": [
        {
          "name": "",
          "type": "uint256"
        }
      ],
      "payable": false,
      "stateMutability": "view",
      "type": "function"
    },
    {
      "constant": false,
      "inputs": [
        {
          "name": "_token",
          "type": "address"
        }
      ],
      "name": "transferToVault",
      "outputs": [],
      "payable": false,
      "stateMutability": "nonpayable",
      "type": "function"
    },
    {
      "constant": true,
      "inputs": [
        {
          "name": "_sender",
          "type": "address"
        },
        {
          "name": "_role",
          "type": "bytes32"
        },
        {
          "name": "_params",
          "type": "uint256[]"
        }
      ],
      "name": "canPerform",
      "outputs": [
        {
          "name": "",
          "type": "bool"
        }
      ],
      "payable": false,
      "stateMutability": "view",
      "type": "function"
    },
    {
      "constant": true,
      "inputs": [],
      "name": "getEVMScriptRegistry",
      "outputs": [
        {
          "name": "",
          "type": "address"
        }
      ],
      "payable": false,
      "stateMutability": "view",
      "type": "function"
    },
    {
      "constant": true,
      "inputs": [],
      "name": "CREATE_VERSION_ROLE",
      "outputs": [
        {
          "name": "",
          "type": "bytes32"
        }
      ],
      "payable": false,
      "stateMutability": "view",
      "type": "function"
    },
    {
      "constant": true,
      "inputs": [],
      "name": "kernel",
      "outputs": [
        {
          "name": "",
          "type": "address"
        }
      ],
      "payable": false,
      "stateMutability": "view",
      "type": "function"
    },
    {
      "constant": true,
      "inputs": [],
      "name": "isPetrified",
      "outputs": [
        {
          "name": "",
          "type": "bool"
        }
      ],
      "payable": false,
      "stateMutability": "view",
      "type": "function"
    },
    {
      "anonymous": false,
      "inputs": [
        {
          "indexed": false,
          "name": "versionId",
          "type": "uint256"
        },
        {
          "indexed": false,
          "name": "semanticVersion",
          "type": "uint16[3]"
        }
      ],
      "name": "NewVersion",
      "type": "event"
    },
    {
      "anonymous": false,
      "inputs": [
        {
          "indexed": true,
          "name": "executor",
          "type": "address"
        },
        {
          "indexed": false,
          "name": "script",
          "type": "bytes"
        },
        {
          "indexed": false,
          "name": "input",
          "type": "bytes"
        },
        {
          "indexed": false,
          "name": "returnData",
          "type": "bytes"
        }
      ],
      "name": "ScriptResult",
      "type": "event"
    },
    {
      "anonymous": false,
      "inputs": [
        {
          "indexed": true,
          "name": "vault",
          "type": "address"
        },
        {
          "indexed": true,
          "name": "token",
          "type": "address"
        },
        {
          "indexed": false,
          "name": "amount",
          "type": "uint256"
        }
      ],
      "name": "RecoverToVault",
      "type": "event"
    },
    {
      "constant": false,
      "inputs": [],
      "name": "initialize",
      "outputs": [],
      "payable": false,
      "stateMutability": "nonpayable",
      "type": "function"
    },
    {
      "constant": false,
      "inputs": [
        {
          "name": "_newSemanticVersion",
          "type": "uint16[3]"
        },
        {
          "name": "_contractAddress",
          "type": "address"
        },
        {
          "name": "_contentURI",
          "type": "bytes"
        }
      ],
      "name": "newVersion",
      "outputs": [],
      "payable": false,
      "stateMutability": "nonpayable",
      "type": "function"
    },
    {
      "constant": true,
      "inputs": [],
      "name": "getLatest",
      "outputs": [
        {
          "name": "semanticVersion",
          "type": "uint16[3]"
        },
        {
          "name": "contractAddress",
          "type": "address"
        },
        {
          "name": "contentURI",
          "type": "bytes"
        }
      ],
      "payable": false,
      "stateMutability": "view",
      "type": "function"
    },
    {
      "constant": true,
      "inputs": [
        {
          "name": "_contractAddress",
          "type": "address"
        }
      ],
      "name": "getLatestForContractAddress",
      "outputs": [
        {
          "name": "semanticVersion",
          "type": "uint16[3]"
        },
        {
          "name": "contractAddress",
          "type": "address"
        },
        {
          "name": "contentURI",
          "type": "bytes"
        }
      ],
      "payable": false,
      "stateMutability": "view",
      "type": "function"
    },
    {
      "constant": true,
      "inputs": [
        {
          "name": "_semanticVersion",
          "type": "uint16[3]"
        }
      ],
      "name": "getBySemanticVersion",
      "outputs": [
        {
          "name": "semanticVersion",
          "type": "uint16[3]"
        },
        {
          "name": "contractAddress",
          "type": "address"
        },
        {
          "name": "contentURI",
          "type": "bytes"
        }
      ],
      "payable": false,
      "stateMutability": "view",
      "type": "function"
    },
    {
      "constant": true,
      "inputs": [
        {
          "name": "_versionId",
          "type": "uint256"
        }
      ],
      "name": "getByVersionId",
      "outputs": [
        {
          "name": "semanticVersion",
          "type": "uint16[3]"
        },
        {
          "name": "contractAddress",
          "type": "address"
        },
        {
          "name": "contentURI",
          "type": "bytes"
        }
      ],
      "payable": false,
      "stateMutability": "view",
      "type": "function"
    },
    {
      "constant": true,
      "inputs": [],
      "name": "getVersionsCount",
      "outputs": [
        {
          "name": "",
          "type": "uint256"
        }
      ],
      "payable": false,
      "stateMutability": "view",
      "type": "function"
    },
    {
      "constant": true,
      "inputs": [
        {
          "name": "_oldVersion",
          "type": "uint16[3]"
        },
        {
          "name": "_newVersion",
          "type": "uint16[3]"
        }
      ],
      "name": "isValidBump",
      "outputs": [
        {
          "name": "",
          "type": "bool"
        }
      ],
      "payable": false,
      "stateMutability": "pure",
      "type": "function"
    }
  ],
  "bytecode": "0x6080604052620000176401000000006200001d810204565b6200023b565b6200003064010000000062000125810204565b60408051808201909152601881527f494e49545f414c52454144595f494e495449414c495a45440000000000000000602082015290156200010c576040517f08c379a00000000000000000000000000000000000000000000000000000000081526004018080602001828103825283818151815260200191508051906020019080838360005b83811015620000d0578181015183820152602001620000b6565b50505050905090810190601f168015620000fe5780820380516001836020036101000a031916815260200191505b509250505060405180910390fd5b506200012360001964010000000062000154810204565b565b60006200014f60008051602062001bf58339815191526401000000006200151a6200023382021704565b905090565b6200016764010000000062000125810204565b60408051808201909152601881527f494e49545f414c52454144595f494e495449414c495a454400000000000000006020820152901562000206576040517f08c379a000000000000000000000000000000000000000000000000000000000815260040180806020018281038252838181518152602001915080519060200190808383600083811015620000d0578181015183820152602001620000b6565b506200023060008051602062001bf583398151915282640100000000620017976200023782021704565b50565b5490565b9055565b6119aa806200024b6000396000f3006080604052600436106100f85763ffffffff60e060020a6000350416630803fac081146100fd5780632914b9bd1461012657806332f0a3b51461019b5780634c3ba268146101b057806373053410146102ad578063737e7d4f1461033d5780637e7db6e11461035557806380afdea8146103765780638129fc1c1461039d5780638b3dd749146103b25780639a6fe50c146103c75780639d4941d8146103e8578063a1658fad14610409578063a479e50814610470578063a7bdf16e14610485578063aa61924a146104ee578063c36af46014610503578063c6d48e0d14610518578063d4aae0c41461052d578063de4796ed14610542575b600080fd5b34801561010957600080fd5b50610112610557565b604080519115158252519081900360200190f35b34801561013257600080fd5b506040805160206004803580820135601f810184900484028501840190955284845261017f9436949293602493928401919081908401838280828437509497506105819650505050505050565b60408051600160a060020a039092168252519081900360200190f35b3480156101a757600080fd5b5061017f610667565b3480156101bc57600080fd5b506040805160608181019092526101f39136916004916064919083906003908390839080828437509396506106e095505050505050565b6040518084606080838360005b83811015610218578181015183820152602001610200565b5050505090500183600160a060020a0316600160a060020a0316815260200180602001828103825283818151815260200191508051906020019080838360005b83811015610270578181015183820152602001610258565b50505050905090810190601f16801561029d5780820380516001836020036101000a031916815260200191505b5094505050505060405180910390f35b3480156102b957600080fd5b5060408051606081810190925261033b913691600491606491908390600390839083908082843750506040805160208781013589018035601f81018390048302840183018552808452979a8935600160a060020a03169a90999098940196509194509081019250819084018382808284375094975061071f9650505050505050565b005b34801561034957600080fd5b506101f3600435610b54565b34801561036157600080fd5b50610112600160a060020a0360043516610d13565b34801561038257600080fd5b5061038b610d19565b60408051918252519081900360200190f35b3480156103a957600080fd5b5061033b610d49565b3480156103be57600080fd5b5061038b610de6565b3480156103d357600080fd5b506101f3600160a060020a0360043516610e11565b3480156103f457600080fd5b5061033b600160a060020a0360043516610e3e565b34801561041557600080fd5b506040805160206004604435818101358381028086018501909652808552610112958335600160a060020a03169560248035963696956064959394920192918291850190849080828437509497506110cd9650505050505050565b34801561047c57600080fd5b5061017f61121d565b34801561049157600080fd5b5060408051606081810190925261011291369160049160649190839060039083908390808284375050604080516060818101909252949796958181019594509250600391508390839080828437509396506112d295505050505050565b3480156104fa57600080fd5b5061038b6113c1565b34801561050f57600080fd5b506101f36113e5565b34801561052457600080fd5b5061038b61140a565b34801561053957600080fd5b5061017f611414565b34801561054e57600080fd5b5061011261143f565b600080610562610de6565b9050801580159061057a575080610577611452565b10155b91505b5090565b600061058b61121d565b600160a060020a03166304bf2a7f836040518263ffffffff1660e060020a0281526004018080602001828103825283818151815260200191508051906020019080838360005b838110156105e95781810151838201526020016105d1565b50505050905090810190601f1680156106165780820380516001836020036101000a031916815260200191505b5092505050602060405180830381600087803b15801561063557600080fd5b505af1158015610649573d6000803e3d6000fd5b505050506040513d602081101561065f57600080fd5b505192915050565b6000610671611414565b600160a060020a03166332f0a3b56040518163ffffffff1660e060020a028152600401602060405180830381600087803b1580156106ae57600080fd5b505af11580156106c2573d6000803e3d6000fd5b505050506040513d60208110156106d857600080fd5b505190505b90565b6106e861181a565b60006060610712600260006106fc87611456565b8152602081019190915260400160002054610b54565b9250925092509193909250565b60008061072a61181a565b6040805160008082526020820190925281907f1f56cfecd3595a2e6cc1a7e6cb0b20df84cdbd92eff2fee554e70e4e45a9a7d89061076b90339083906110cd565b60408051808201909152600f81527f4150505f415554485f4641494c45440000000000000000000000000000000000602082015290151561082d5760405160e560020a62461bcd0281526004018080602001828103825283818151815260200191508051906020019080838360005b838110156107f25781810151838201526020016107da565b50505050905090810190601f16801561081f5780820380516001836020036101000a031916815260200191505b509250505060405180910390fd5b508795506001600054039450600085111561097857600085815260016020526040808220815160608101928390529095509185916003918390855b82829054906101000a900461ffff1661ffff16815260200190600201906020826001010492830192600103820291508084116108685790505093975050505050600160a060020a03861615156108c9576001830154600160a060020a031695505b6001830154600160a060020a03878116911614806108f057508254895161ffff9182169116115b60408051808201909152601481527f5245504f5f494e56414c49445f56455253494f4e00000000000000000000000060208201529015156109765760405160e560020a62461bcd028152600401808060200182810382528381815181526020019150805190602001908083836000838110156107f25781810151838201526020016107da565b505b610982848a6112d2565b60408051808201909152601181527f5245504f5f494e56414c49445f42554d500000000000000000000000000000006020820152901515610a085760405160e560020a62461bcd028152600401808060200182810382528381815181526020019150805190602001908083836000838110156107f25781810151838201526020016107da565b506000805460018082018355604080516060810182528d8152600160a060020a038b166020808301919091528183018d905284865292909252909220825191945090610a579082906003611839565b5060208281015160018301805473ffffffffffffffffffffffffffffffffffffffff1916600160a060020a0390921691909117905560408301518051610aa392600285019201906118cb565b509050508160026000610ab58c611456565b81526020808201929092526040908101600090812093909355600160a060020a038916835260038252808320859055518481527e3aea8189d1a0aa3ebdb05219cd4c2a663166706e949e9d6e8aa63718ca43fd9285928d92919082019083906060908190849084905b83811015610b36578181015183820152602001610b1e565b505050509050019250505060405180910390a1505050505050505050565b610b5c61181a565b6000606060008085118015610b72575060005485105b60408051808201909152601781527f5245504f5f494e4558495354454e545f56455253494f4e0000000000000000006020820152901515610bf85760405160e560020a62461bcd028152600401808060200182810382528381815181526020019150805190602001908083836000838110156107f25781810151838201526020016107da565b50506000848152600160208190526040808320918201548151606081019283905292938493600160a060020a039092169260028501929185916003918390855b82829054906101000a900461ffff1661ffff1681526020019060020190602082600101049283019260010382029150808411610c38575050855460408051602060026001851615610100026000190190941693909304601f8101849004840282018401909252818152969950879550935085019150839050828015610cfe5780601f10610cd357610100808354040283529160200191610cfe565b820191906000526020600020905b815481529060010190602001808311610ce157829003601f168201915b50505050509050935093509350509193909250565b50600190565b6000610d447fd625496217aa6a3453eecb9c3489dc5a53e6c67b444329ea2b2cbc9ff547639b61151a565b905090565b610d51610de6565b60408051808201909152601881527f494e49545f414c52454144595f494e495449414c495a4544000000000000000060208201529015610dd65760405160e560020a62461bcd028152600401808060200182810382528381815181526020019150805190602001908083836000838110156107f25781810151838201526020016107da565b50610ddf61151e565b6001600055565b6000610d447febb05b386a8d34882b8711d156f463690983dc47815980fb82aeeff1aa43579e61151a565b610e1961181a565b600160a060020a03821660009081526003602052604081205460609061071290610b54565b6000806000610e4c84610d13565b60408051808201909152601281527f5245434f5645525f444953414c4c4f57454400000000000000000000000000006020820152901515610ed25760405160e560020a62461bcd028152600401808060200182810382528381815181526020019150805190602001908083836000838110156107f25781810151838201526020016107da565b50610edb610667565b9250610ee6836115ea565b60408051808201909152601a81527f5245434f5645525f5641554c545f4e4f545f434f4e54524143540000000000006020820152901515610f6c5760405160e560020a62461bcd028152600401808060200182810382528381815181526020019150805190602001908083836000838110156107f25781810151838201526020016107da565b50600160a060020a0384161515610fbd5760405130319250600160a060020a0384169083156108fc029084906000818181858888f19350505050158015610fb7573d6000803e3d6000fd5b5061107c565b5082610fd8600160a060020a0382163063ffffffff61161716565b9150610ff4600160a060020a038216848463ffffffff61171716565b60408051808201909152601d81527f5245434f5645525f544f4b454e5f5452414e534645525f4641494c4544000000602082015290151561107a5760405160e560020a62461bcd028152600401808060200182810382528381815181526020019150805190602001908083836000838110156107f25781810151838201526020016107da565b505b83600160a060020a031683600160a060020a03167f596caf56044b55fb8c4ca640089bbc2b63cae3e978b851f5745cbb7c5b288e02846040518082815260200191505060405180910390a350505050565b6000806110d8610557565b15156110e75760009150611215565b6110ef611414565b9050600160a060020a038116151561110a5760009150611215565b80600160a060020a031663fdef91068630876111258861178d565b60405160e060020a63ffffffff8716028152600160a060020a03808616600483019081529085166024830152604482018490526080606483019081528351608484015283519192909160a490910190602085019080838360005b8381101561119757818101518382015260200161117f565b50505050905090810190601f1680156111c45780820380516001836020036101000a031916815260200191505b5095505050505050602060405180830381600087803b1580156111e657600080fd5b505af11580156111fa573d6000803e3d6000fd5b505050506040513d602081101561121057600080fd5b505191505b509392505050565b600080611228611414565b604080517fbe00bbd80000000000000000000000000000000000000000000000000000000081527fd6f028ca0e8edb4a8c9757ca4fdccab25fa1e0317da1188108f7d2dee14902fb60048201527fddbcfd564f642ab5627cf68b9b7d374fb4f8a36e941a75d89c87998cef03bd6160248201529051600160a060020a03929092169163be00bbd8916044808201926020929091908290030181600087803b15801561063557600080fd5b600080805b60038110156113b557811561130e578381600381106112f257fe5b602002015161ffff161561130957600092506113b9565b6113ad565b84816003811061131a57fe5b602002015161ffff1684826003811061132f57fe5b602002015161ffff16146113ad5783816003811061134957fe5b602002015161ffff1685826003811061135e57fe5b602002015161ffff16118061139a575084816003811061137a57fe5b602002015184826003811061138b57fe5b60200201510361ffff16600114155b156113a857600092506113b9565b600191505b6001016112d7565b8192505b505092915050565b7f1f56cfecd3595a2e6cc1a7e6cb0b20df84cdbd92eff2fee554e70e4e45a9a7d881565b6113ed61181a565b600060606113ff600160005403610b54565b925092509250909192565b6000546000190190565b6000610d447f4172f0f7d2289153072b0a6ca36959e0cbe2efc3afe50fc81636caa96338137b61151a565b600060001961144c610de6565b14905090565b4390565b805160208083015160408085015181517e0100000000000000000000000000000000000000000000000000000000000061ffff9687168102828701529386168402602282015294169091026024840152805160068185030181526026909301908190528251600093928291908401908083835b602083106114e85780518252601f1990920191602091820191016114c9565b5181516020939093036101000a6000190180199091169216919091179052604051920182900390912095945050505050565b5490565b611526610de6565b60408051808201909152601881527f494e49545f414c52454144595f494e495449414c495a45440000000000000000602082015290156115ab5760405160e560020a62461bcd028152600401808060200182810382528381815181526020019150805190602001908083836000838110156107f25781810151838201526020016107da565b506115e46115b7611452565b7febb05b386a8d34882b8711d156f463690983dc47815980fb82aeeff1aa43579e9063ffffffff61179716565b565b5490565b600080600160a060020a03831615156116065760009150611611565b823b90506000811191505b50919050565b60408051600160a060020a038316602480830191909152825180830390910181526044909101909152602081018051600160e060020a03167f70a08231000000000000000000000000000000000000000000000000000000001790526000908180611682868461179b565b60408051808201909152601c81527f534146455f4552435f32305f42414c414e43455f5245564552544544000000006020820152919350915082151561170d5760405160e560020a62461bcd028152600401808060200182810382528381815181526020019150805190602001908083836000838110156107f25781810151838201526020016107da565b5095945050505050565b60408051600160a060020a03841660248201526044808201849052825180830390910181526064909101909152602081018051600160e060020a03167fa9059cbb0000000000000000000000000000000000000000000000000000000017905260009061178485826117cc565b95945050505050565b8051602002815290565b9055565b6000806000806040516020818751602089018a5afa925060008311156117c057805191505b50909590945092505050565b6000806040516020818551602087016000895af16000811115611810573d80156117fd57602081146118065761180e565b6001935061180e565b600183511493505b505b5090949350505050565b6060604051908101604052806003906020820280388339509192915050565b6001830191839082156118bf5791602002820160005b8382111561188f57835183826101000a81548161ffff021916908361ffff160217905550926020019260020160208160010104928301926001030261184f565b80156118bd5782816101000a81549061ffff021916905560020160208160010104928301926001030261188f565b505b5061057d929150611945565b828054600181600116156101000203166002900490600052602060002090601f016020900481019282601f1061190c57805160ff1916838001178555611939565b82800160010185558215611939579182015b8281111561193957825182559160200191906001019061191e565b5061057d929150611964565b6106dd91905b8082111561057d57805461ffff1916815560010161194b565b6106dd91905b8082111561057d576000815560010161196a5600a165627a7a7230582004317027221e79d70f7cb30b0c8bcc53e418efb4b7ba52a8291d0c34d0f3ca4b0029ebb05b386a8d34882b8711d156f463690983dc47815980fb82aeeff1aa43579e",
  "source": "pragma solidity 0.4.24;\n\nimport \"../apps/AragonApp.sol\";\n\n\n/* solium-disable function-order */\n// Allow public initialize() to be first\ncontract Repo is AragonApp {\n    /* Hardcoded constants to save gas\n    bytes32 public constant CREATE_VERSION_ROLE = keccak256(\"CREATE_VERSION_ROLE\");\n    */\n    bytes32 public constant CREATE_VERSION_ROLE = 0x1f56cfecd3595a2e6cc1a7e6cb0b20df84cdbd92eff2fee554e70e4e45a9a7d8;\n\n    string private constant ERROR_INVALID_BUMP = \"REPO_INVALID_BUMP\";\n    string private constant ERROR_INVALID_VERSION = \"REPO_INVALID_VERSION\";\n    string private constant ERROR_INEXISTENT_VERSION = \"REPO_INEXISTENT_VERSION\";\n\n    struct Version {\n        uint16[3] semanticVersion;\n        address contractAddress;\n        bytes contentURI;\n    }\n\n    uint256 internal versionsNextIndex;\n    mapping (uint256 => Version) internal versions;\n    mapping (bytes32 => uint256) internal versionIdForSemantic;\n    mapping (address => uint256) internal latestVersionIdForContract;\n\n    event NewVersion(uint256 versionId, uint16[3] semanticVersion);\n\n    /**\n    * @dev Initialize can only be called once. It saves the block number in which it was initialized.\n    * @notice Initialize this Repo\n    */\n    function initialize() public onlyInit {\n        initialized();\n        versionsNextIndex = 1;\n    }\n\n    /**\n    * @notice Create new version with contract `_contractAddress` and content `@fromHex(_contentURI)`\n    * @param _newSemanticVersion Semantic version for new repo version\n    * @param _contractAddress address for smart contract logic for version (if set to 0, it uses last versions' contractAddress)\n    * @param _contentURI External URI for fetching new version's content\n    */\n    function newVersion(\n        uint16[3] _newSemanticVersion,\n        address _contractAddress,\n        bytes _contentURI\n    ) public auth(CREATE_VERSION_ROLE)\n    {\n        address contractAddress = _contractAddress;\n        uint256 lastVersionIndex = versionsNextIndex - 1;\n\n        uint16[3] memory lastSematicVersion;\n\n        if (lastVersionIndex > 0) {\n            Version storage lastVersion = versions[lastVersionIndex];\n            lastSematicVersion = lastVersion.semanticVersion;\n\n            if (contractAddress == address(0)) {\n                contractAddress = lastVersion.contractAddress;\n            }\n            // Only allows smart contract change on major version bumps\n            require(\n                lastVersion.contractAddress == contractAddress || _newSemanticVersion[0] > lastVersion.semanticVersion[0],\n                ERROR_INVALID_VERSION\n            );\n        }\n\n        require(isValidBump(lastSematicVersion, _newSemanticVersion), ERROR_INVALID_BUMP);\n\n        uint256 versionId = versionsNextIndex++;\n        versions[versionId] = Version(_newSemanticVersion, contractAddress, _contentURI);\n        versionIdForSemantic[semanticVersionHash(_newSemanticVersion)] = versionId;\n        latestVersionIdForContract[contractAddress] = versionId;\n\n        emit NewVersion(versionId, _newSemanticVersion);\n    }\n\n    function getLatest() public view returns (uint16[3] semanticVersion, address contractAddress, bytes contentURI) {\n        return getByVersionId(versionsNextIndex - 1);\n    }\n\n    function getLatestForContractAddress(address _contractAddress)\n        public\n        view\n        returns (uint16[3] semanticVersion, address contractAddress, bytes contentURI)\n    {\n        return getByVersionId(latestVersionIdForContract[_contractAddress]);\n    }\n\n    function getBySemanticVersion(uint16[3] _semanticVersion)\n        public\n        view\n        returns (uint16[3] semanticVersion, address contractAddress, bytes contentURI)\n    {\n        return getByVersionId(versionIdForSemantic[semanticVersionHash(_semanticVersion)]);\n    }\n\n    function getByVersionId(uint _versionId) public view returns (uint16[3] semanticVersion, address contractAddress, bytes contentURI) {\n        require(_versionId > 0 && _versionId < versionsNextIndex, ERROR_INEXISTENT_VERSION);\n        Version storage version = versions[_versionId];\n        return (version.semanticVersion, version.contractAddress, version.contentURI);\n    }\n\n    function getVersionsCount() public view returns (uint256) {\n        return versionsNextIndex - 1;\n    }\n\n    function isValidBump(uint16[3] _oldVersion, uint16[3] _newVersion) public pure returns (bool) {\n        bool hasBumped;\n        uint i = 0;\n        while (i < 3) {\n            if (hasBumped) {\n                if (_newVersion[i] != 0) {\n                    return false;\n                }\n            } else if (_newVersion[i] != _oldVersion[i]) {\n                if (_oldVersion[i] > _newVersion[i] || _newVersion[i] - _oldVersion[i] != 1) {\n                    return false;\n                }\n                hasBumped = true;\n            }\n            i++;\n        }\n        return hasBumped;\n    }\n\n    function semanticVersionHash(uint16[3] version) internal pure returns (bytes32) {\n        return keccak256(abi.encodePacked(version[0], version[1], version[2]));\n    }\n}\n",
  "sourcePath": "@aragon/os/contracts/apm/Repo.sol",
  "compiler": {
    "name": "solc",
    "version": "0.4.24+commit.e67f0147.Emscripten.clang"
  },
  "schemaVersion": "2.0.1",
  "updatedAt": "2020-03-21T01:36:19.090Z"
}