{
  "contractName": "SignatureValidator",
  "abi": [
    {
      "constant": true,
      "inputs": [],
      "name": "ERC1271_RETURN_VALID_SIGNATURE",
      "outputs": [
        {
          "name": "",
          "type": "bytes4"
        }
      ],
      "payable": false,
      "stateMutability": "view",
      "type": "function"
    }
  ],
  "bytecode": "0x60e261002f600b82828239805160001a6073146000811461001f57610021565bfe5b5030600052607381538281f300730000000000000000000000000000000000000000301460806040526004361060555763ffffffff7c01000000000000000000000000000000000000000000000000000000006000350416639890cdca8114605a575b600080fd5b60606092565b604080517bffffffffffffffffffffffffffffffffffffffffffffffffffffffff199092168252519081900360200190f35b7f20c13b0b00000000000000000000000000000000000000000000000000000000815600a165627a7a723058206e0d412bc39123991ea0354927729c48058e98e0aff8b4f691b34af25fb6dde50029",
  "source": "pragma solidity 0.4.24;\n\n// Inspired by https://github.com/horizon-games/multi-token-standard/blob/319740cf2a78b8816269ae49a09c537b3fd7303b/contracts/utils/SignatureValidator.sol\n// This should probably be moved into aOS: https://github.com/aragon/aragonOS/pull/442\n\nimport \"./standards/ERC1271.sol\";\n\n\nlibrary SignatureValidator {\n    enum SignatureMode {\n        Invalid, // 0x00\n        EIP712,  // 0x01\n        EthSign, // 0x02\n        ERC1271, // 0x03\n        NMode    // 0x04, to check if mode is specified, leave at the end\n    }\n\n    // bytes4(keccak256(\"isValidSignature(bytes,bytes)\")\n    bytes4 public constant ERC1271_RETURN_VALID_SIGNATURE = 0x20c13b0b;\n    uint256 internal constant ERC1271_ISVALIDSIG_MAX_GAS = 250000;\n\n    string private constant ERROR_INVALID_LENGTH_POP_BYTE = \"SIGVAL_INVALID_LENGTH_POP_BYTE\";\n\n    /// @dev Validates that a hash was signed by a specified signer.\n    /// @param hash Hash which was signed.\n    /// @param signer Address of the signer.\n    /// @param signature ECDSA signature along with the mode (0 = Invalid, 1 = EIP712, 2 = EthSign, 3 = ERC1271) {mode}{r}{s}{v}.\n    /// @return Returns whether signature is from a specified user.\n    function isValidSignature(bytes32 hash, address signer, bytes signature) internal view returns (bool) {\n        if (signature.length == 0) {\n            return false;\n        }\n\n        uint8 modeByte = uint8(signature[0]);\n        if (modeByte >= uint8(SignatureMode.NMode)) {\n            return false;\n        }\n        SignatureMode mode = SignatureMode(modeByte);\n\n        if (mode == SignatureMode.EIP712) {\n            return ecVerify(hash, signer, signature);\n        } else if (mode == SignatureMode.EthSign) {\n            return ecVerify(\n                keccak256(abi.encodePacked(\"\\x19Ethereum Signed Message:\\n32\", hash)),\n                signer,\n                signature\n            );\n        } else if (mode == SignatureMode.ERC1271) {\n            // Pop the mode byte before sending it down the validation chain\n            return safeIsValidSignature(signer, hash, popFirstByte(signature));\n        } else {\n            return false;\n        }\n    }\n\n    function ecVerify(bytes32 hash, address signer, bytes memory signature) private pure returns (bool) {\n        (bool badSig, bytes32 r, bytes32 s, uint8 v) = unpackEcSig(signature);\n\n        if (badSig) {\n            return false;\n        }\n\n        return signer == ecrecover(hash, v, r, s);\n    }\n\n    function unpackEcSig(bytes memory signature) private pure returns (bool badSig, bytes32 r, bytes32 s, uint8 v) {\n        if (signature.length != 66) {\n            badSig = true;\n            return;\n        }\n\n        v = uint8(signature[65]);\n        assembly {\n            r := mload(add(signature, 33))\n            s := mload(add(signature, 65))\n        }\n\n        // Allow signature version to be 0 or 1\n        if (v < 27) {\n            v += 27;\n        }\n\n        if (v != 27 && v != 28) {\n            badSig = true;\n        }\n    }\n\n    function popFirstByte(bytes memory input) private pure returns (bytes memory output) {\n        uint256 inputLength = input.length;\n        require(inputLength > 0, ERROR_INVALID_LENGTH_POP_BYTE);\n\n        output = new bytes(inputLength - 1);\n\n        if (output.length == 0) {\n            return output;\n        }\n\n        uint256 inputPointer;\n        uint256 outputPointer;\n        assembly {\n            inputPointer := add(input, 0x21)\n            outputPointer := add(output, 0x20)\n        }\n        memcpy(outputPointer, inputPointer, output.length);\n    }\n\n    function safeIsValidSignature(address validator, bytes32 hash, bytes memory signature) private view returns (bool) {\n        bytes memory data = abi.encodeWithSelector(ERC1271(validator).isValidSignature.selector, hash, signature);\n        bytes4 erc1271Return = safeBytes4StaticCall(validator, data, ERC1271_ISVALIDSIG_MAX_GAS);\n        return erc1271Return == ERC1271_RETURN_VALID_SIGNATURE;\n    }\n\n    function safeBytes4StaticCall(address target, bytes data, uint256 maxGas) private view returns (bytes4 ret) {\n        uint256 gasLeft = gasleft();\n\n        uint256 callGas = gasLeft > maxGas ? maxGas : gasLeft;\n        bool ok;\n        assembly {\n            ok := staticcall(callGas, target, add(data, 0x20), mload(data), 0, 0)\n        }\n\n        if (!ok) {\n            return;\n        }\n\n        uint256 size;\n        assembly { size := returndatasize }\n        if (size != 32) {\n            return;\n        }\n\n        assembly {\n            let ptr := mload(0x40)       // get next free memory ptr\n            returndatacopy(ptr, 0, size) // copy return from above `staticcall`\n            ret := mload(ptr)            // read data at ptr and set it to be returned\n        }\n\n        return ret;\n    }\n\n    // From: https://github.com/Arachnid/solidity-stringutils/blob/01e955c1d6/src/strings.sol\n    function memcpy(uint256 dest, uint256 src, uint256 len) private pure {\n        // Copy word-length chunks while possible\n        for (; len >= 32; len -= 32) {\n            assembly {\n                mstore(dest, mload(src))\n            }\n            dest += 32;\n            src += 32;\n        }\n\n        // Copy remaining bytes\n        uint mask = 256 ** (32 - len) - 1;\n        assembly {\n            let srcpart := and(mload(src), not(mask))\n            let destpart := and(mload(dest), mask)\n            mstore(dest, or(destpart, srcpart))\n        }\n    }\n}\n",
  "sourcePath": "@aragon/apps-agent/contracts/SignatureValidator.sol",
  "compiler": {
    "name": "solc",
    "version": "0.4.24+commit.e67f0147.Emscripten.clang"
  },
  "schemaVersion": "2.0.1",
  "updatedAt": "2020-03-21T02:48:08.652Z"
}