{
  "contractName": "Survey",
  "abi": [
    {
      "constant": true,
      "inputs": [],
      "name": "hasInitialized",
      "outputs": [
        {
          "name": "",
          "type": "bool"
        }
      ],
      "payable": false,
      "stateMutability": "view",
      "type": "function"
    },
    {
      "constant": true,
      "inputs": [],
      "name": "minParticipationPct",
      "outputs": [
        {
          "name": "",
          "type": "uint64"
        }
      ],
      "payable": false,
      "stateMutability": "view",
      "type": "function"
    },
    {
      "constant": true,
      "inputs": [
        {
          "name": "_script",
          "type": "bytes"
        }
      ],
      "name": "getEVMScriptExecutor",
      "outputs": [
        {
          "name": "",
          "type": "address"
        }
      ],
      "payable": false,
      "stateMutability": "view",
      "type": "function"
    },
    {
      "constant": true,
      "inputs": [],
      "name": "getRecoveryVault",
      "outputs": [
        {
          "name": "",
          "type": "address"
        }
      ],
      "payable": false,
      "stateMutability": "view",
      "type": "function"
    },
    {
      "constant": true,
      "inputs": [],
      "name": "MODIFY_PARTICIPATION_ROLE",
      "outputs": [
        {
          "name": "",
          "type": "bytes32"
        }
      ],
      "payable": false,
      "stateMutability": "view",
      "type": "function"
    },
    {
      "constant": true,
      "inputs": [
        {
          "name": "token",
          "type": "address"
        }
      ],
      "name": "allowRecoverability",
      "outputs": [
        {
          "name": "",
          "type": "bool"
        }
      ],
      "payable": false,
      "stateMutability": "view",
      "type": "function"
    },
    {
      "constant": true,
      "inputs": [],
      "name": "appId",
      "outputs": [
        {
          "name": "",
          "type": "bytes32"
        }
      ],
      "payable": false,
      "stateMutability": "view",
      "type": "function"
    },
    {
      "constant": true,
      "inputs": [],
      "name": "getInitializationBlock",
      "outputs": [
        {
          "name": "",
          "type": "uint256"
        }
      ],
      "payable": false,
      "stateMutability": "view",
      "type": "function"
    },
    {
      "constant": true,
      "inputs": [],
      "name": "surveyTime",
      "outputs": [
        {
          "name": "",
          "type": "uint64"
        }
      ],
      "payable": false,
      "stateMutability": "view",
      "type": "function"
    },
    {
      "constant": false,
      "inputs": [
        {
          "name": "_token",
          "type": "address"
        }
      ],
      "name": "transferToVault",
      "outputs": [],
      "payable": false,
      "stateMutability": "nonpayable",
      "type": "function"
    },
    {
      "constant": true,
      "inputs": [
        {
          "name": "_sender",
          "type": "address"
        },
        {
          "name": "_role",
          "type": "bytes32"
        },
        {
          "name": "_params",
          "type": "uint256[]"
        }
      ],
      "name": "canPerform",
      "outputs": [
        {
          "name": "",
          "type": "bool"
        }
      ],
      "payable": false,
      "stateMutability": "view",
      "type": "function"
    },
    {
      "constant": true,
      "inputs": [],
      "name": "getEVMScriptRegistry",
      "outputs": [
        {
          "name": "",
          "type": "address"
        }
      ],
      "payable": false,
      "stateMutability": "view",
      "type": "function"
    },
    {
      "constant": true,
      "inputs": [],
      "name": "CREATE_SURVEYS_ROLE",
      "outputs": [
        {
          "name": "",
          "type": "bytes32"
        }
      ],
      "payable": false,
      "stateMutability": "view",
      "type": "function"
    },
    {
      "constant": true,
      "inputs": [],
      "name": "ABSTAIN_VOTE",
      "outputs": [
        {
          "name": "",
          "type": "uint256"
        }
      ],
      "payable": false,
      "stateMutability": "view",
      "type": "function"
    },
    {
      "constant": true,
      "inputs": [],
      "name": "kernel",
      "outputs": [
        {
          "name": "",
          "type": "address"
        }
      ],
      "payable": false,
      "stateMutability": "view",
      "type": "function"
    },
    {
      "constant": true,
      "inputs": [],
      "name": "isPetrified",
      "outputs": [
        {
          "name": "",
          "type": "bool"
        }
      ],
      "payable": false,
      "stateMutability": "view",
      "type": "function"
    },
    {
      "constant": true,
      "inputs": [],
      "name": "surveysLength",
      "outputs": [
        {
          "name": "",
          "type": "uint256"
        }
      ],
      "payable": false,
      "stateMutability": "view",
      "type": "function"
    },
    {
      "constant": true,
      "inputs": [],
      "name": "token",
      "outputs": [
        {
          "name": "",
          "type": "address"
        }
      ],
      "payable": false,
      "stateMutability": "view",
      "type": "function"
    },
    {
      "constant": true,
      "inputs": [],
      "name": "PCT_BASE",
      "outputs": [
        {
          "name": "",
          "type": "uint64"
        }
      ],
      "payable": false,
      "stateMutability": "view",
      "type": "function"
    },
    {
      "anonymous": false,
      "inputs": [
        {
          "indexed": true,
          "name": "surveyId",
          "type": "uint256"
        },
        {
          "indexed": true,
          "name": "creator",
          "type": "address"
        },
        {
          "indexed": false,
          "name": "metadata",
          "type": "string"
        }
      ],
      "name": "StartSurvey",
      "type": "event"
    },
    {
      "anonymous": false,
      "inputs": [
        {
          "indexed": true,
          "name": "surveyId",
          "type": "uint256"
        },
        {
          "indexed": true,
          "name": "voter",
          "type": "address"
        },
        {
          "indexed": false,
          "name": "option",
          "type": "uint256"
        },
        {
          "indexed": false,
          "name": "stake",
          "type": "uint256"
        },
        {
          "indexed": false,
          "name": "optionPower",
          "type": "uint256"
        }
      ],
      "name": "CastVote",
      "type": "event"
    },
    {
      "anonymous": false,
      "inputs": [
        {
          "indexed": true,
          "name": "surveyId",
          "type": "uint256"
        },
        {
          "indexed": true,
          "name": "voter",
          "type": "address"
        },
        {
          "indexed": false,
          "name": "option",
          "type": "uint256"
        },
        {
          "indexed": false,
          "name": "previousStake",
          "type": "uint256"
        },
        {
          "indexed": false,
          "name": "optionPower",
          "type": "uint256"
        }
      ],
      "name": "ResetVote",
      "type": "event"
    },
    {
      "anonymous": false,
      "inputs": [
        {
          "indexed": false,
          "name": "minParticipationPct",
          "type": "uint64"
        }
      ],
      "name": "ChangeMinParticipation",
      "type": "event"
    },
    {
      "anonymous": false,
      "inputs": [
        {
          "indexed": true,
          "name": "executor",
          "type": "address"
        },
        {
          "indexed": false,
          "name": "script",
          "type": "bytes"
        },
        {
          "indexed": false,
          "name": "input",
          "type": "bytes"
        },
        {
          "indexed": false,
          "name": "returnData",
          "type": "bytes"
        }
      ],
      "name": "ScriptResult",
      "type": "event"
    },
    {
      "anonymous": false,
      "inputs": [
        {
          "indexed": true,
          "name": "vault",
          "type": "address"
        },
        {
          "indexed": true,
          "name": "token",
          "type": "address"
        },
        {
          "indexed": false,
          "name": "amount",
          "type": "uint256"
        }
      ],
      "name": "RecoverToVault",
      "type": "event"
    },
    {
      "constant": false,
      "inputs": [
        {
          "name": "_token",
          "type": "address"
        },
        {
          "name": "_minParticipationPct",
          "type": "uint64"
        },
        {
          "name": "_surveyTime",
          "type": "uint64"
        }
      ],
      "name": "initialize",
      "outputs": [],
      "payable": false,
      "stateMutability": "nonpayable",
      "type": "function"
    },
    {
      "constant": false,
      "inputs": [
        {
          "name": "_minParticipationPct",
          "type": "uint64"
        }
      ],
      "name": "changeMinAcceptParticipationPct",
      "outputs": [],
      "payable": false,
      "stateMutability": "nonpayable",
      "type": "function"
    },
    {
      "constant": false,
      "inputs": [
        {
          "name": "_metadata",
          "type": "string"
        },
        {
          "name": "_options",
          "type": "uint256"
        }
      ],
      "name": "newSurvey",
      "outputs": [
        {
          "name": "surveyId",
          "type": "uint256"
        }
      ],
      "payable": false,
      "stateMutability": "nonpayable",
      "type": "function"
    },
    {
      "constant": false,
      "inputs": [
        {
          "name": "_surveyId",
          "type": "uint256"
        }
      ],
      "name": "resetVote",
      "outputs": [],
      "payable": false,
      "stateMutability": "nonpayable",
      "type": "function"
    },
    {
      "constant": false,
      "inputs": [
        {
          "name": "_surveyId",
          "type": "uint256"
        },
        {
          "name": "_optionIds",
          "type": "uint256[]"
        },
        {
          "name": "_stakes",
          "type": "uint256[]"
        }
      ],
      "name": "voteOptions",
      "outputs": [],
      "payable": false,
      "stateMutability": "nonpayable",
      "type": "function"
    },
    {
      "constant": false,
      "inputs": [
        {
          "name": "_surveyId",
          "type": "uint256"
        },
        {
          "name": "_optionId",
          "type": "uint256"
        }
      ],
      "name": "voteOption",
      "outputs": [],
      "payable": false,
      "stateMutability": "nonpayable",
      "type": "function"
    },
    {
      "constant": true,
      "inputs": [
        {
          "name": "_surveyId",
          "type": "uint256"
        },
        {
          "name": "_voter",
          "type": "address"
        }
      ],
      "name": "canVote",
      "outputs": [
        {
          "name": "",
          "type": "bool"
        }
      ],
      "payable": false,
      "stateMutability": "view",
      "type": "function"
    },
    {
      "constant": true,
      "inputs": [
        {
          "name": "_surveyId",
          "type": "uint256"
        }
      ],
      "name": "getSurvey",
      "outputs": [
        {
          "name": "open",
          "type": "bool"
        },
        {
          "name": "startDate",
          "type": "uint64"
        },
        {
          "name": "snapshotBlock",
          "type": "uint64"
        },
        {
          "name": "minParticipation",
          "type": "uint64"
        },
        {
          "name": "votingPower",
          "type": "uint256"
        },
        {
          "name": "participation",
          "type": "uint256"
        },
        {
          "name": "options",
          "type": "uint256"
        }
      ],
      "payable": false,
      "stateMutability": "view",
      "type": "function"
    },
    {
      "constant": true,
      "inputs": [
        {
          "name": "_surveyId",
          "type": "uint256"
        },
        {
          "name": "_voter",
          "type": "address"
        }
      ],
      "name": "getVoterState",
      "outputs": [
        {
          "name": "options",
          "type": "uint256[]"
        },
        {
          "name": "stakes",
          "type": "uint256[]"
        }
      ],
      "payable": false,
      "stateMutability": "view",
      "type": "function"
    },
    {
      "constant": true,
      "inputs": [
        {
          "name": "_surveyId",
          "type": "uint256"
        },
        {
          "name": "_optionId",
          "type": "uint256"
        }
      ],
      "name": "getOptionPower",
      "outputs": [
        {
          "name": "",
          "type": "uint256"
        }
      ],
      "payable": false,
      "stateMutability": "view",
      "type": "function"
    },
    {
      "constant": true,
      "inputs": [
        {
          "name": "_surveyId",
          "type": "uint256"
        }
      ],
      "name": "isParticipationAchieved",
      "outputs": [
        {
          "name": "",
          "type": "bool"
        }
      ],
      "payable": false,
      "stateMutability": "view",
      "type": "function"
    }
  ],
  "bytecode": "0x6080604052620000176401000000006200001d810204565b6200023b565b6200003064010000000062000125810204565b60408051808201909152601881527f494e49545f414c52454144595f494e495449414c495a45440000000000000000602082015290156200010c576040517f08c379a00000000000000000000000000000000000000000000000000000000081526004018080602001828103825283818151815260200191508051906020019080838360005b83811015620000d0578181015183820152602001620000b6565b50505050905090810190601f168015620000fe5780820380516001836020036101000a031916815260200191505b509250505060405180910390fd5b506200012360001964010000000062000154810204565b565b60006200014f60008051602062002fc3833981519152640100000000620027546200023382021704565b905090565b6200016764010000000062000125810204565b60408051808201909152601881527f494e49545f414c52454144595f494e495449414c495a454400000000000000006020820152901562000206576040517f08c379a000000000000000000000000000000000000000000000000000000000815260040180806020018281038252838181518152602001915080519060200190808383600083811015620000d0578181015183820152602001620000b6565b506200023060008051602062002fc38339815191528264010000000062002bec6200023782021704565b50565b5490565b9055565b612d78806200024b6000396000f3006080604052600436106101655763ffffffff60e060020a6000350416623c0627811461016a5780630803fac01461018e5780630cc3b1c8146101b75780631128915c146101cf5780632914b9bd1461020157806332f0a3b5146102765780634b12311c1461028b5780634c54b8c114610348578063509bd3371461036f5780636697a7be1461038a57806374609899146103a25780637e7db6e1146103d257806380afdea8146103f357806389670e15146104085780638b3dd7491461046a5780638cb4eb411461047f578063989a8366146104945780639d4941d8146104c8578063a1658fad146104e9578063a479e50814610550578063a83efef614610565578063bc6a48e91461057a578063c65720231461058f578063cdb2867b146105aa578063d4aae0c4146105ce578063de4796ed146105e3578063fb71098c146105f8578063fc0c546a1461060d578063fc157cb414610622578063ffe2e9f214610637575b600080fd5b34801561017657600080fd5b5061018c67ffffffffffffffff6004351661065b565b005b34801561019a57600080fd5b506101a36108a6565b604080519115158252519081900360200190f35b3480156101c357600080fd5b5061018c6004356108cf565b3480156101db57600080fd5b506101e46109d4565b6040805167ffffffffffffffff9092168252519081900360200190f35b34801561020d57600080fd5b506040805160206004803580820135601f810184900484028501840190955284845261025a9436949293602493928401919081908401838280828437509497506109eb9650505050505050565b60408051600160a060020a039092168252519081900360200190f35b34801561028257600080fd5b5061025a610ad1565b34801561029757600080fd5b506102af600435600160a060020a0360243516610b49565b604051808060200180602001838103835285818151815260200191508051906020019060200280838360005b838110156102f35781810151838201526020016102db565b50505050905001838103825284818151815260200191508051906020019060200280838360005b8381101561033257818101518382015260200161031a565b5050505090500194505050505060405180910390f35b34801561035457600080fd5b5061035d610cfd565b60408051918252519081900360200190f35b34801561037b57600080fd5b5061018c600435602435610d32565b34801561039657600080fd5b506101a3600435610f66565b3480156103ae57600080fd5b5061018c600480359060248035808201929081013591604435908101910135611049565b3480156103de57600080fd5b506101a3600160a060020a0360043516611241565b3480156103ff57600080fd5b5061035d611247565b34801561041457600080fd5b50610420600435611277565b60408051971515885267ffffffffffffffff968716602089015294861687860152929094166060860152608085015260a084019290925260c0830191909152519081900360e00190f35b34801561047657600080fd5b5061035d611366565b34801561048b57600080fd5b506101e4611391565b3480156104a057600080fd5b5061018c600160a060020a036004351667ffffffffffffffff602435811690604435166113a1565b3480156104d457600080fd5b5061018c600160a060020a0360043516611567565b3480156104f557600080fd5b5060408051602060046044358181013583810280860185019096528085526101a3958335600160a060020a03169560248035963696956064959394920192918291850190849080828437509497506117f69650505050505050565b34801561055c57600080fd5b5061025a611946565b34801561057157600080fd5b5061035d6119fb565b34801561058657600080fd5b5061035d611a30565b34801561059b57600080fd5b5061035d600435602435611a35565b3480156105b657600080fd5b506101a3600435600160a060020a0360243516611b6a565b3480156105da57600080fd5b5061025a611caf565b3480156105ef57600080fd5b506101a3611cda565b34801561060457600080fd5b5061035d611ced565b34801561061957600080fd5b5061025a611cf3565b34801561062e57600080fd5b506101e4611d02565b34801561064357600080fd5b5061035d602460048035828101929101359035611d0e565b604080517f4d4f444946595f50415254494349504154494f4e5f524f4c4500000000000000815290519081900360190190206000546106ae9067ffffffffffffffff8085169160a060020a900416612021565b6106b93383836117f6565b60408051808201909152600f81527f4150505f415554485f4641494c45440000000000000000000000000000000000602082015290151561077b5760405160e560020a62461bcd0281526004018080602001828103825283818151815260200191508051906020019080838360005b83811015610740578181015183820152602001610728565b50505050905090810190601f16801561076d5780820380516001836020036101000a031916815260200191505b509250505060405180910390fd5b508260008167ffffffffffffffff161180156107a95750670de0b6b3a764000067ffffffffffffffff821611155b60408051808201909152601881527f5355525645595f4d494e5f50415254494349504154494f4e0000000000000000602082015290151561082f5760405160e560020a62461bcd02815260040180806020018281038252838181518152602001915080519060200190808383600083811015610740578181015183820152602001610728565b506000805467ffffffffffffffff861660a060020a81027bffffffffffffffff0000000000000000000000000000000000000000199092169190911790915560408051918252517fcd5cfce8abc47dfd261ae8c03891adf6258e5727b8f0704986108033c25d8a719181900360200190a150505050565b6000806108b1611366565b905080158015906108c95750806108c661207c565b10155b91505090565b6003546040805180820190915260108152600080516020612d0d8339815191526020820152829182106109475760405160e560020a62461bcd02815260040180806020018281038252838181518152602001915080519060200190808383600083811015610740578181015183820152602001610728565b506109528233611b6a565b6040805180820190915260138152600080516020612d2d83398151915260208201529015156109c65760405160e560020a62461bcd02815260040180806020018281038252838181518152602001915080519060200190808383600083811015610740578181015183820152602001610728565b506109d082612080565b5050565b60005460a060020a900467ffffffffffffffff1681565b60006109f5611946565b600160a060020a03166304bf2a7f836040518263ffffffff1660e060020a0281526004018080602001828103825283818151815260200191508051906020019080838360005b83811015610a53578181015183820152602001610a3b565b50505050905090810190601f168015610a805780820380516001836020036101000a031916815260200191505b5092505050602060405180830381600087803b158015610a9f57600080fd5b505af1158015610ab3573d6000803e3d6000fd5b505050506040513d6020811015610ac957600080fd5b505192915050565b6000610adb611caf565b600160a060020a03166332f0a3b56040518163ffffffff1660e060020a028152600401602060405180830381600087803b158015610b1857600080fd5b505af1158015610b2c573d6000803e3d6000fd5b505050506040513d6020811015610b4257600080fd5b5051905090565b606080600080856003548110604080519081016040528060108152602001600080516020612d0d833981519152815250901515610bcb5760405160e560020a62461bcd02815260040180806020018281038252838181518152602001915080519060200190808383600083811015610740578181015183820152602001610728565b506000878152600260209081526040808320600160a060020a038a168452600501909152902080549093501515610c1b576040805160008082526020820190815281830190925295509350610cf3565b8260000154600101604051908082528060200260200182016040528015610c4c578160200160208202803883390190505b5094508260000154600101604051908082528060200260200182016040528015610c80578160200160208202803883390190505b509350600091505b82548211610cf35760008281526001840160205260409020548551869084908110610caf57fe5b6020908102909101810191909152600083815260018086019092526040902001548451859084908110610cde57fe5b60209081029091010152600190910190610c88565b5050509250929050565b604080517f4d4f444946595f50415254494349504154494f4e5f524f4c45000000000000008152905190819003601901902081565b600080606080856003548110604080519081016040528060108152602001600080516020612d0d833981519152815250901515610db45760405160e560020a62461bcd02815260040180806020018281038252838181518152602001915080519060200190808383600083811015610740578181015183820152602001610728565b50610dbf8733611b6a565b6040805180820190915260138152600080516020612d2d8339815191526020820152901515610e335760405160e560020a62461bcd02815260040180806020018281038252838181518152602001915080519060200190808383600083811015610740578181015183820152602001610728565b50600087815260026020908152604080832083548154835160e160020a63277166bf0281523360048201526801000000000000000090910467ffffffffffffffff1660248201529251919950600160a060020a031693634ee2cd7e93604480850194919392918390030190829087803b158015610eaf57600080fd5b505af1158015610ec3573d6000803e3d6000fd5b505050506040513d6020811015610ed957600080fd5b505160408051600180825281830190925291955060208083019080388339505060408051600180825281830190925292955090506020808301908038833901905050915085836000815181101515610f2d57fe5b602090810290910101528151849083906000908110610f4857fe5b60209081029091010152610f5d87848461226c565b50505050505050565b6000806000836003548110604080519081016040528060108152602001600080516020612d0d833981519152815250901515610fe75760405160e560020a62461bcd02815260040180806020018281038252838181518152602001915080519060200190808383600083811015610740578181015183820152602001610728565b5060008581526002602081905260409091209081015460038201549194509061101e90670de0b6b3a764000063ffffffff61269d16565b81151561102757fe5b9354608060020a900467ffffffffffffffff1693049290921015949350505050565b6003546040805180820190915260108152600080516020612d0d8339815191526020820152869182106110c15760405160e560020a62461bcd02815260040180806020018281038252838181518152602001915080519060200190808383600083811015610740578181015183820152602001610728565b5083821480156110d15750600084115b60408051808201909152601781527f5355525645595f564f54455f57524f4e475f494e50555400000000000000000060208201529015156111575760405160e560020a62461bcd02815260040180806020018281038252838181518152602001915080519060200190808383600083811015610740578181015183820152602001610728565b506111628633611b6a565b6040805180820190915260138152600080516020612d2d83398151915260208201529015156111d65760405160e560020a62461bcd02815260040180806020018281038252838181518152602001915080519060200190808383600083811015610740578181015183820152602001610728565b50611239868686808060200260200160405190810160405280939291908181526020018383602002808284375050604080516020808c0282810182019093528b82529095508b94508a93508392508501908490808284375061226c945050505050565b505050505050565b50600190565b60006112727fd625496217aa6a3453eecb9c3489dc5a53e6c67b444329ea2b2cbc9ff547639b612754565b905090565b600080600080600080600080886003548110604080519081016040528060108152602001600080516020612d0d8339815191528152509015156112ff5760405160e560020a62461bcd02815260040180806020018281038252838181518152602001915080519060200190808383600083811015610740578181015183820152602001610728565b5060008a8152600260205260409020915061131982612758565b825460028401546003850154600190950154929d67ffffffffffffffff8084169e5068010000000000000000840481169d50608060020a9093049092169a50985092965094509092505050565b60006112727febb05b386a8d34882b8711d156f463690983dc47815980fb82aeeff1aa43579e612754565b60015467ffffffffffffffff1681565b6113a9611366565b60408051808201909152601881527f494e49545f414c52454144595f494e495449414c495a454400000000000000006020820152901561142e5760405160e560020a62461bcd02815260040180806020018281038252838181518152602001915080519060200190808383600083811015610740578181015183820152602001610728565b508160008167ffffffffffffffff1611801561145c5750670de0b6b3a764000067ffffffffffffffff821611155b60408051808201909152601881527f5355525645595f4d494e5f50415254494349504154494f4e000000000000000060208201529015156114e25760405160e560020a62461bcd02815260040180806020018281038252838181518152602001915080519060200190808383600083811015610740578181015183820152602001610728565b506114eb6127a4565b506000805473ffffffffffffffffffffffffffffffffffffffff1916600160a060020a0394909416939093177bffffffffffffffff0000000000000000000000000000000000000000191660a060020a67ffffffffffffffff93841602179092556001805467ffffffffffffffff191692909116919091179055565b600080600061157584611241565b60408051808201909152601281527f5245434f5645525f444953414c4c4f574544000000000000000000000000000060208201529015156115fb5760405160e560020a62461bcd02815260040180806020018281038252838181518152602001915080519060200190808383600083811015610740578181015183820152602001610728565b50611604610ad1565b925061160f8361286c565b60408051808201909152601a81527f5245434f5645525f5641554c545f4e4f545f434f4e545241435400000000000060208201529015156116955760405160e560020a62461bcd02815260040180806020018281038252838181518152602001915080519060200190808383600083811015610740578181015183820152602001610728565b50600160a060020a03841615156116e65760405130319250600160a060020a0384169083156108fc029084906000818181858888f193505050501580156116e0573d6000803e3d6000fd5b506117a5565b5082611701600160a060020a0382163063ffffffff61289916565b915061171d600160a060020a038216848463ffffffff61299916565b60408051808201909152601d81527f5245434f5645525f544f4b454e5f5452414e534645525f4641494c454400000060208201529015156117a35760405160e560020a62461bcd02815260040180806020018281038252838181518152602001915080519060200190808383600083811015610740578181015183820152602001610728565b505b83600160a060020a031683600160a060020a03167f596caf56044b55fb8c4ca640089bbc2b63cae3e978b851f5745cbb7c5b288e02846040518082815260200191505060405180910390a350505050565b6000806118016108a6565b1515611810576000915061193e565b611818611caf565b9050600160a060020a0381161515611833576000915061193e565b80600160a060020a031663fdef910686308761184e88612a06565b60405160e060020a63ffffffff8716028152600160a060020a03808616600483019081529085166024830152604482018490526080606483019081528351608484015283519192909160a490910190602085019080838360005b838110156118c05781810151838201526020016118a8565b50505050905090810190601f1680156118ed5780820380516001836020036101000a031916815260200191505b5095505050505050602060405180830381600087803b15801561190f57600080fd5b505af1158015611923573d6000803e3d6000fd5b505050506040513d602081101561193957600080fd5b505191505b509392505050565b600080611951611caf565b604080517fbe00bbd80000000000000000000000000000000000000000000000000000000081527fd6f028ca0e8edb4a8c9757ca4fdccab25fa1e0317da1188108f7d2dee14902fb60048201527fddbcfd564f642ab5627cf68b9b7d374fb4f8a36e941a75d89c87998cef03bd6160248201529051600160a060020a03929092169163be00bbd8916044808201926020929091908290030181600087803b158015610a9f57600080fd5b604080517f4352454154455f535552564559535f524f4c45000000000000000000000000008152905190819003601301902081565b600081565b6003546040805180820190915260108152600080516020612d0d8339815191526020820152600091829185918210611ab25760405160e560020a62461bcd02815260040180806020018281038252838181518152602001915080519060200190808383600083811015610740578181015183820152602001610728565b5060008581526002602090815260409182902060018101548351808501909452601084527f5355525645595f4e4f5f4f5054494f4e00000000000000000000000000000000928401929092529350851115611b525760405160e560020a62461bcd02815260040180806020018281038252838181518152602001915080519060200190808383600083811015610740578181015183820152602001610728565b50506000928352600401602052506040902054919050565b6003546040805180820190915260108152600080516020612d0d8339815191526020820152600091829185918210611be75760405160e560020a62461bcd02815260040180806020018281038252838181518152602001915080519060200190808383600083811015610740578181015183820152602001610728565b5060008581526002602052604090209150611c0182612758565b8015611ca657506000805483546040805160e160020a63277166bf028152600160a060020a0389811660048301526801000000000000000090930467ffffffffffffffff16602482015290519190921691634ee2cd7e91604480830192602092919082900301818787803b158015611c7857600080fd5b505af1158015611c8c573d6000803e3d6000fd5b505050506040513d6020811015611ca257600080fd5b5051115b95945050505050565b60006112727f4172f0f7d2289153072b0a6ca36959e0cbe2efc3afe50fc81636caa96338137b612754565b6000600019611ce7611366565b14905090565b60035481565b600054600160a060020a031681565b670de0b6b3a764000081565b604080517f4352454154455f535552564559535f524f4c450000000000000000000000000081528151908190036013018120600080835260208301909352829182918291611d5f90339083906117f6565b60408051808201909152600f81527f4150505f415554485f4641494c454400000000000000000000000000000000006020820152901515611de55760405160e560020a62461bcd02815260040180806020018281038252838181518152602001915080519060200190808383600083811015610740578181015183820152602001610728565b506001611df0612a10565b60008054604080517f981b24d00000000000000000000000000000000000000000000000000000000081529490930367ffffffffffffffff811660048601529251929750600160a060020a03169263981b24d09260248083019360209383900390910190829087803b158015611e6557600080fd5b505af1158015611e79573d6000803e3d6000fd5b505050506040513d6020811015611e8f57600080fd5b505160408051808201909152601681527f5355525645595f4e4f5f564f54494e475f504f57455200000000000000000000602082015290935060008411611f1b5760405160e560020a62461bcd02815260040180806020018281038252838181518152602001915080519060200190808383600083811015610740578181015183820152602001610728565b50600380546001810190915560008181526002602052604090209095509150611f42612a22565b825467ffffffffffffffff191667ffffffffffffffff918216176fffffffffffffffff0000000000000000191668010000000000000000868316021780845560005477ffffffffffffffff000000000000000000000000000000001990911660a060020a909104909116608060020a0217825560018201869055600282018390556040805160208082528101899052339187917fc3d5a5415194747f0a88ddaf6fd5b3a0bc7a38bdff4565302d65becfe38c9323918c918c918190810184848082843760405192018290039550909350505050a3505050509392505050565b60408051600280825260608083018452926020830190803883390190505090508281600081518110151561205157fe5b60209081029091010152805182908290600190811061206c57fe5b6020908102909101015292915050565b4390565b60008181526002602090815260408083203384526005810190925282208054919290918190819081908190819081101561226157600195505b8654861161216f5760008681526001808901602090815260408084208054855260048d01909252909220549082015491965094506120fe90859063ffffffff612a2f16565b8554600090815260048a01602090815260409182902083905587546001890154835191825291810191909152808201839052905191945033918b917fe4778d6252fa7c1a38460bdeff43c5ea0736fecde4cf7ef98fbf23410f40d6a9919081900360600190a36001909501946120b9565b6000805489546040805160e160020a63277166bf0281523360048201526801000000000000000090920467ffffffffffffffff16602483015251600160a060020a0390921692634ee2cd7e926044808401936020939083900390910190829087803b1580156121dd57600080fd5b505af11580156121f1573d6000803e3d6000fd5b505050506040513d602081101561220757600080fd5b505160008080526001808a016020526040909120015490925061223190839063ffffffff612a2f16565b6003890154909150612249908263ffffffff612a2f16565b60038901553360009081526005890160205260408120555b505050505050505050565b60008381526002602090815260408083203384526005810190925282209091808080806122988a612080565b604080518082018252600080825260208083018281528280526001808c0190925293822092518355925191830191909155955093505b885184116125a45788600185038151811015156122e757fe5b906020019060200201519250876001850381518110151561230457fe5b90602001906020020151915060008314158015612325575086600101548311155b60408051808201909152601881527f5355525645595f564f54455f57524f4e475f4f5054494f4e000000000000000060208201529015156123ab5760405160e560020a62461bcd02815260040180806020018281038252838181518152602001915080519060200190808383600083811015610740578181015183820152602001610728565b5060408051808201909152600f81527f5355525645595f4e4f5f5354414b4500000000000000000000000000000000006020820152600083116124335760405160e560020a62461bcd02815260040180806020018281038252838181518152602001915080519060200190808383600083811015610740578181015183820152602001610728565b5060001984016000908152600187016020908152604091829020548251808401909352601a83527f5355525645595f4f5054494f4e535f4e4f545f4f5244455245440000000000009183019190915284116124d35760405160e560020a62461bcd02815260040180806020018281038252838181518152602001915080519060200190808383600083811015610740578181015183820152602001610728565b50604080518082018252848152602080820185815260008881526001808c018452858220945185559151939091019290925585825260048a0190522054612520908363ffffffff612ac316565b6000848152600489016020526040902055612541858363ffffffff612ac316565b600084815260048901602090815260409182902054825187815291820186905281830152905191965033918c917f1cfef7fb7190f56297ab36883b20210188115eb9dd9c097c1165dd170a64b289919081900360600190a36001909301926122ce565b6000805488546040805160e160020a63277166bf0281523360048201526801000000000000000090920467ffffffffffffffff16602483015251600160a060020a0390921692634ee2cd7e926044808401936020939083900390910190829087803b15801561261257600080fd5b505af1158015612626573d6000803e3d6000fd5b505050506040513d602081101561263c57600080fd5b50519050612650818663ffffffff612a2f16565b600080805260018089016020526040909120015588518655600387015461267d908663ffffffff612ac316565b600388018190556002880154101561269157fe5b50505050505050505050565b6000808315156126b0576000915061274d565b508282028284828115156126c057fe5b60408051808201909152601181527f4d4154485f4d554c5f4f564552464c4f57000000000000000000000000000000602082015292919004146127485760405160e560020a62461bcd02815260040180806020018281038252838181518152602001915080519060200190808383600083811015610740578181015183820152602001610728565b508091505b5092915050565b5490565b600154815460009161277d9167ffffffffffffffff908116911663ffffffff612b5116565b67ffffffffffffffff1661278f612a22565b67ffffffffffffffff161092915050565b5490565b6127ac611366565b60408051808201909152601881527f494e49545f414c52454144595f494e495449414c495a45440000000000000000602082015290156128315760405160e560020a62461bcd02815260040180806020018281038252838181518152602001915080519060200190808383600083811015610740578181015183820152602001610728565b5061286a61283d61207c565b7febb05b386a8d34882b8711d156f463690983dc47815980fb82aeeff1aa43579e9063ffffffff612bec16565b565b600080600160a060020a03831615156128885760009150612893565b823b90506000811191505b50919050565b60408051600160a060020a038316602480830191909152825180830390910181526044909101909152602081018051600160e060020a03167f70a082310000000000000000000000000000000000000000000000000000000017905260009081806129048684612bf0565b60408051808201909152601c81527f534146455f4552435f32305f42414c414e43455f5245564552544544000000006020820152919350915082151561298f5760405160e560020a62461bcd02815260040180806020018281038252838181518152602001915080519060200190808383600083811015610740578181015183820152602001610728565b5095945050505050565b60408051600160a060020a03841660248201526044808201849052825180830390910181526064909101909152602081018051600160e060020a03167fa9059cbb00000000000000000000000000000000000000000000000000000000179052600090611ca68582612c21565b8051602002815290565b6000611272612a1d61207c565b612c6f565b6000611272612a1d612d08565b60408051808201909152601281527f4d4154485f5355425f554e444552464c4f5700000000000000000000000000006020820152600090819084841115612abb5760405160e560020a62461bcd02815260040180806020018281038252838181518152602001915080519060200190808383600083811015610740578181015183820152602001610728565b505050900390565b60408051808201909152601181527f4d4154485f4144445f4f564552464c4f57000000000000000000000000000000602082015260009083830190848210156127485760405160e560020a62461bcd02815260040180806020018281038252838181518152602001915080519060200190808383600083811015610740578181015183820152602001610728565b60408051808201909152601381527f4d41544836345f4144445f4f564552464c4f570000000000000000000000000060208201526000908383019067ffffffffffffffff80861690831610156127485760405160e560020a62461bcd02815260040180806020018281038252838181518152602001915080519060200190808383600083811015610740578181015183820152602001610728565b9055565b6000806000806040516020818751602089018a5afa92506000831115612c1557805191505b50909590945092505050565b6000806040516020818551602087016000895af16000811115612c65573d8015612c525760208114612c5b57612c63565b60019350612c63565b600183511493505b505b5090949350505050565b60408051808201909152601581527f55494e5436345f4e554d4245525f544f4f5f4249470000000000000000000000602082015260009067ffffffffffffffff831115612d015760405160e560020a62461bcd02815260040180806020018281038252838181518152602001915080519060200190808383600083811015610740578181015183820152602001610728565b5090919050565b429056005355525645595f4e4f5f535552564559000000000000000000000000000000005355525645595f43414e5f4e4f545f564f544500000000000000000000000000a165627a7a723058202baf8d0a15f5af20a001fa5fcf3dd835d5abaa280a8a9e19a87563c8f1a0e3bb0029ebb05b386a8d34882b8711d156f463690983dc47815980fb82aeeff1aa43579e",
  "source": "/*\n * SPDX-License-Identitifer:    GPL-3.0-or-later\n */\n\npragma solidity 0.4.24;\n\nimport \"@aragon/os/contracts/apps/AragonApp.sol\";\n\nimport \"@aragon/os/contracts/lib/math/SafeMath.sol\";\nimport \"@aragon/os/contracts/lib/math/SafeMath64.sol\";\n\nimport \"@aragon/apps-shared-minime/contracts/MiniMeToken.sol\";\n\n\ncontract Survey is AragonApp {\n    using SafeMath for uint256;\n    using SafeMath64 for uint64;\n\n    bytes32 public constant CREATE_SURVEYS_ROLE = keccak256(\"CREATE_SURVEYS_ROLE\");\n    bytes32 public constant MODIFY_PARTICIPATION_ROLE = keccak256(\"MODIFY_PARTICIPATION_ROLE\");\n\n    uint64 public constant PCT_BASE = 10 ** 18; // 0% = 0; 1% = 10^16; 100% = 10^18\n    uint256 public constant ABSTAIN_VOTE = 0;\n\n    string private constant ERROR_MIN_PARTICIPATION = \"SURVEY_MIN_PARTICIPATION\";\n    string private constant ERROR_NO_SURVEY = \"SURVEY_NO_SURVEY\";\n    string private constant ERROR_NO_VOTING_POWER = \"SURVEY_NO_VOTING_POWER\";\n    string private constant ERROR_CAN_NOT_VOTE = \"SURVEY_CAN_NOT_VOTE\";\n    string private constant ERROR_VOTE_WRONG_INPUT = \"SURVEY_VOTE_WRONG_INPUT\";\n    string private constant ERROR_VOTE_WRONG_OPTION = \"SURVEY_VOTE_WRONG_OPTION\";\n    string private constant ERROR_NO_STAKE = \"SURVEY_NO_STAKE\";\n    string private constant ERROR_OPTIONS_NOT_ORDERED = \"SURVEY_OPTIONS_NOT_ORDERED\";\n    string private constant ERROR_NO_OPTION = \"SURVEY_NO_OPTION\";\n\n    struct OptionCast {\n        uint256 optionId;\n        uint256 stake;\n    }\n\n    /* Allows for multiple option votes.\n     * Index 0 is always used for the ABSTAIN_VOTE option, that's calculated automatically by the\n     * contract.\n     */\n    struct MultiOptionVote {\n        uint256 optionsCastedLength;\n        // `castedVotes` simulates an array\n        // Each OptionCast in `castedVotes` must be ordered by ascending option IDs\n        mapping (uint256 => OptionCast) castedVotes;\n    }\n\n    struct SurveyStruct {\n        uint64 startDate;\n        uint64 snapshotBlock;\n        uint64 minParticipationPct;\n        uint256 options;\n        uint256 votingPower;                    // total tokens that can cast a vote\n        uint256 participation;                  // tokens that casted a vote\n\n        // Note that option IDs are from 1 to `options`, due to ABSTAIN_VOTE taking 0\n        mapping (uint256 => uint256) optionPower;       // option ID -> voting power for option\n        mapping (address => MultiOptionVote) votes;     // voter -> options voted, with its stakes\n    }\n\n    MiniMeToken public token;\n    uint64 public minParticipationPct;\n    uint64 public surveyTime;\n\n    // We are mimicing an array, we use a mapping instead to make app upgrade more graceful\n    mapping (uint256 => SurveyStruct) internal surveys;\n    uint256 public surveysLength;\n\n    event StartSurvey(uint256 indexed surveyId, address indexed creator, string metadata);\n    event CastVote(uint256 indexed surveyId, address indexed voter, uint256 option, uint256 stake, uint256 optionPower);\n    event ResetVote(uint256 indexed surveyId, address indexed voter, uint256 option, uint256 previousStake, uint256 optionPower);\n    event ChangeMinParticipation(uint64 minParticipationPct);\n\n    modifier acceptableMinParticipationPct(uint64 _minParticipationPct) {\n        require(_minParticipationPct > 0 && _minParticipationPct <= PCT_BASE, ERROR_MIN_PARTICIPATION);\n        _;\n    }\n\n    modifier surveyExists(uint256 _surveyId) {\n        require(_surveyId < surveysLength, ERROR_NO_SURVEY);\n        _;\n    }\n\n    /**\n    * @notice Initialize Survey app with `_token.symbol(): string` for governance, minimum acceptance participation of `@formatPct(_minParticipationPct)`%, and a voting duration of `@transformTime(_surveyTime)`\n    * @param _token MiniMeToken address that will be used as governance token\n    * @param _minParticipationPct Percentage of total voting power that must participate in a survey for it to be taken into account (expressed as a 10^18 percentage, (eg 10^16 = 1%, 10^18 = 100%)\n    * @param _surveyTime Seconds that a survey will be open for token holders to vote\n    */\n    function initialize(\n        MiniMeToken _token,\n        uint64 _minParticipationPct,\n        uint64 _surveyTime\n    )\n        external\n        onlyInit\n        acceptableMinParticipationPct(_minParticipationPct)\n    {\n        initialized();\n\n        token = _token;\n        minParticipationPct = _minParticipationPct;\n        surveyTime = _surveyTime;\n    }\n\n    /**\n    * @notice Change minimum acceptance participation to `@formatPct(_minParticipationPct)`%\n    * @param _minParticipationPct New acceptance participation\n    */\n    function changeMinAcceptParticipationPct(uint64 _minParticipationPct)\n        external\n        authP(MODIFY_PARTICIPATION_ROLE, arr(uint256(_minParticipationPct), uint256(minParticipationPct)))\n        acceptableMinParticipationPct(_minParticipationPct)\n    {\n        minParticipationPct = _minParticipationPct;\n\n        emit ChangeMinParticipation(_minParticipationPct);\n    }\n\n    /**\n    * @notice Create a new non-binding survey about \"`_metadata`\"\n    * @param _metadata Survey metadata\n    * @param _options Number of options voters can decide between\n    * @return surveyId id for newly created survey\n    */\n    function newSurvey(string _metadata, uint256 _options) external auth(CREATE_SURVEYS_ROLE) returns (uint256 surveyId) {\n        uint64 snapshotBlock = getBlockNumber64() - 1; // avoid double voting in this very block\n        uint256 votingPower = token.totalSupplyAt(snapshotBlock);\n        require(votingPower > 0, ERROR_NO_VOTING_POWER);\n\n        surveyId = surveysLength++;\n\n        SurveyStruct storage survey = surveys[surveyId];\n        survey.startDate = getTimestamp64();\n        survey.snapshotBlock = snapshotBlock; // avoid double voting in this very block\n        survey.minParticipationPct = minParticipationPct;\n        survey.options = _options;\n        survey.votingPower = votingPower;\n\n        emit StartSurvey(surveyId, msg.sender, _metadata);\n    }\n\n    /**\n    * @notice Reset previously casted vote in survey #`_surveyId`, if any.\n    * @dev Initialization check is implicitly provided by `surveyExists()` as new surveys can only\n    *      be created via `newSurvey(),` which requires initialization\n    * @param _surveyId Id for survey\n    */\n    function resetVote(uint256 _surveyId) external surveyExists(_surveyId) {\n        require(canVote(_surveyId, msg.sender), ERROR_CAN_NOT_VOTE);\n\n        _resetVote(_surveyId);\n    }\n\n    /**\n    * @notice Vote for multiple options in survey #`_surveyId`.\n    * @dev Initialization check is implicitly provided by `surveyExists()` as new surveys can only\n    *      be created via `newSurvey(),` which requires initialization\n    * @param _surveyId Id for survey\n    * @param _optionIds Array with indexes of supported options\n    * @param _stakes Number of tokens assigned to each option\n    */\n    function voteOptions(uint256 _surveyId, uint256[] _optionIds, uint256[] _stakes)\n        external\n        surveyExists(_surveyId)\n    {\n        require(_optionIds.length == _stakes.length && _optionIds.length > 0, ERROR_VOTE_WRONG_INPUT);\n        require(canVote(_surveyId, msg.sender), ERROR_CAN_NOT_VOTE);\n\n        _voteOptions(_surveyId, _optionIds, _stakes);\n    }\n\n    /**\n    * @notice Vote option #`_optionId` in survey #`_surveyId`.\n    * @dev Initialization check is implicitly provided by `surveyExists()` as new surveys can only\n    *      be created via `newSurvey(),` which requires initialization\n    * @dev It will use the whole balance.\n    * @param _surveyId Id for survey\n    * @param _optionId Index of supported option\n    */\n    function voteOption(uint256 _surveyId, uint256 _optionId) external surveyExists(_surveyId) {\n        require(canVote(_surveyId, msg.sender), ERROR_CAN_NOT_VOTE);\n\n        SurveyStruct storage survey = surveys[_surveyId];\n        // This could re-enter, though we can asume the governance token is not maliciuous\n        uint256 voterStake = token.balanceOfAt(msg.sender, survey.snapshotBlock);\n        uint256[] memory options = new uint256[](1);\n        uint256[] memory stakes = new uint256[](1);\n        options[0] = _optionId;\n        stakes[0] = voterStake;\n\n        _voteOptions(_surveyId, options, stakes);\n    }\n\n    // Getter fns\n\n    function canVote(uint256 _surveyId, address _voter) public view surveyExists(_surveyId) returns (bool) {\n        SurveyStruct storage survey = surveys[_surveyId];\n\n        return _isSurveyOpen(survey) && token.balanceOfAt(_voter, survey.snapshotBlock) > 0;\n    }\n\n    function getSurvey(uint256 _surveyId)\n        public\n        view\n        surveyExists(_surveyId)\n        returns (\n            bool open,\n            uint64 startDate,\n            uint64 snapshotBlock,\n            uint64 minParticipation,\n            uint256 votingPower,\n            uint256 participation,\n            uint256 options\n        )\n    {\n        SurveyStruct storage survey = surveys[_surveyId];\n\n        open = _isSurveyOpen(survey);\n        startDate = survey.startDate;\n        snapshotBlock = survey.snapshotBlock;\n        minParticipation = survey.minParticipationPct;\n        votingPower = survey.votingPower;\n        participation = survey.participation;\n        options = survey.options;\n    }\n\n    /**\n    * @dev This is not meant to be used on-chain\n    */\n    /* solium-disable-next-line function-order */\n    function getVoterState(uint256 _surveyId, address _voter)\n        external\n        view\n        surveyExists(_surveyId)\n        returns (uint256[] options, uint256[] stakes)\n    {\n        MultiOptionVote storage vote = surveys[_surveyId].votes[_voter];\n\n        if (vote.optionsCastedLength == 0) {\n            return (new uint256[](0), new uint256[](0));\n        }\n\n        options = new uint256[](vote.optionsCastedLength + 1);\n        stakes = new uint256[](vote.optionsCastedLength + 1);\n        for (uint256 i = 0; i <= vote.optionsCastedLength; i++) {\n            options[i] = vote.castedVotes[i].optionId;\n            stakes[i] = vote.castedVotes[i].stake;\n        }\n    }\n\n    function getOptionPower(uint256 _surveyId, uint256 _optionId) public view surveyExists(_surveyId) returns (uint256) {\n        SurveyStruct storage survey = surveys[_surveyId];\n        require(_optionId <= survey.options, ERROR_NO_OPTION);\n\n        return survey.optionPower[_optionId];\n    }\n\n    function isParticipationAchieved(uint256 _surveyId) public view surveyExists(_surveyId) returns (bool) {\n        SurveyStruct storage survey = surveys[_surveyId];\n        // votingPower is always > 0\n        uint256 participationPct = survey.participation.mul(PCT_BASE) / survey.votingPower;\n        return participationPct >= survey.minParticipationPct;\n    }\n\n    // Internal fns\n\n    /*\n    * @dev Assumes the survey exists and that msg.sender can vote\n    */\n    function _resetVote(uint256 _surveyId) internal {\n        SurveyStruct storage survey = surveys[_surveyId];\n        MultiOptionVote storage previousVote = survey.votes[msg.sender];\n        if (previousVote.optionsCastedLength > 0) {\n            // Voter removes their vote (index 0 is the abstain vote)\n            for (uint256 i = 1; i <= previousVote.optionsCastedLength; i++) {\n                OptionCast storage previousOptionCast = previousVote.castedVotes[i];\n                uint256 previousOptionPower = survey.optionPower[previousOptionCast.optionId];\n                uint256 currentOptionPower = previousOptionPower.sub(previousOptionCast.stake);\n                survey.optionPower[previousOptionCast.optionId] = currentOptionPower;\n\n                emit ResetVote(_surveyId, msg.sender, previousOptionCast.optionId, previousOptionCast.stake, currentOptionPower);\n            }\n\n            // Compute previously casted votes (i.e. substract non-used tokens from stake)\n            uint256 voterStake = token.balanceOfAt(msg.sender, survey.snapshotBlock);\n            uint256 previousParticipation = voterStake.sub(previousVote.castedVotes[0].stake);\n            // And remove it from total participation\n            survey.participation = survey.participation.sub(previousParticipation);\n\n            // Reset previously voted options\n            delete survey.votes[msg.sender];\n        }\n    }\n\n    /*\n    * @dev Assumes the survey exists and that msg.sender can vote\n    */\n    function _voteOptions(uint256 _surveyId, uint256[] _optionIds, uint256[] _stakes) internal {\n        SurveyStruct storage survey = surveys[_surveyId];\n        MultiOptionVote storage senderVotes = survey.votes[msg.sender];\n\n        // Revert previous votes, if any\n        _resetVote(_surveyId);\n\n        uint256 totalVoted = 0;\n        // Reserve first index for ABSTAIN_VOTE\n        senderVotes.castedVotes[0] = OptionCast({ optionId: ABSTAIN_VOTE, stake: 0 });\n        for (uint256 optionIndex = 1; optionIndex <= _optionIds.length; optionIndex++) {\n            // Voters don't specify that they're abstaining,\n            // but we still keep track of this by reserving the first index of a survey's votes.\n            // We subtract 1 from the indexes of the arrays passed in by the voter to account for this.\n            uint256 optionId = _optionIds[optionIndex - 1];\n            uint256 stake = _stakes[optionIndex - 1];\n\n            require(optionId != ABSTAIN_VOTE && optionId <= survey.options, ERROR_VOTE_WRONG_OPTION);\n            require(stake > 0, ERROR_NO_STAKE);\n            // Let's avoid repeating an option by making sure that ascending order is preserved in\n            // the options array by checking that the current optionId is larger than the last one\n            // we added\n            require(senderVotes.castedVotes[optionIndex - 1].optionId < optionId, ERROR_OPTIONS_NOT_ORDERED);\n\n            // Register voter amount\n            senderVotes.castedVotes[optionIndex] = OptionCast({ optionId: optionId, stake: stake });\n\n            // Add to total option support\n            survey.optionPower[optionId] = survey.optionPower[optionId].add(stake);\n\n            // Keep track of stake used so far\n            totalVoted = totalVoted.add(stake);\n\n            emit CastVote(_surveyId, msg.sender, optionId, stake, survey.optionPower[optionId]);\n        }\n\n        // Compute and register non used tokens\n        // Implictly we are doing require(totalVoted <= voterStake) too\n        // (as stated before, index 0 is for ABSTAIN_VOTE option)\n        uint256 voterStake = token.balanceOfAt(msg.sender, survey.snapshotBlock);\n        senderVotes.castedVotes[0].stake = voterStake.sub(totalVoted);\n\n        // Register number of options voted\n        senderVotes.optionsCastedLength = _optionIds.length;\n\n        // Add voter tokens to participation\n        survey.participation = survey.participation.add(totalVoted);\n        assert(survey.participation <= survey.votingPower);\n    }\n\n    function _isSurveyOpen(SurveyStruct storage _survey) internal view returns (bool) {\n        return getTimestamp64() < _survey.startDate.add(surveyTime);\n    }\n}\n",
  "sourcePath": "@aragon/apps-survey/contracts/Survey.sol",
  "compiler": {
    "name": "solc",
    "version": "0.4.24+commit.e67f0147.Emscripten.clang"
  },
  "schemaVersion": "2.0.1",
  "updatedAt": "2020-02-09T01:44:08.376Z"
}