{
  "contractName": "Tap",
  "abi": [
    {
      "constant": true,
      "inputs": [],
      "name": "hasInitialized",
      "outputs": [
        {
          "name": "",
          "type": "bool"
        }
      ],
      "payable": false,
      "stateMutability": "view",
      "type": "function"
    },
    {
      "constant": true,
      "inputs": [],
      "name": "UPDATE_CONTROLLER_ROLE",
      "outputs": [
        {
          "name": "",
          "type": "bytes32"
        }
      ],
      "payable": false,
      "stateMutability": "view",
      "type": "function"
    },
    {
      "constant": true,
      "inputs": [
        {
          "name": "_script",
          "type": "bytes"
        }
      ],
      "name": "getEVMScriptExecutor",
      "outputs": [
        {
          "name": "",
          "type": "address"
        }
      ],
      "payable": false,
      "stateMutability": "view",
      "type": "function"
    },
    {
      "constant": true,
      "inputs": [],
      "name": "getRecoveryVault",
      "outputs": [
        {
          "name": "",
          "type": "address"
        }
      ],
      "payable": false,
      "stateMutability": "view",
      "type": "function"
    },
    {
      "constant": true,
      "inputs": [],
      "name": "beneficiary",
      "outputs": [
        {
          "name": "",
          "type": "address"
        }
      ],
      "payable": false,
      "stateMutability": "view",
      "type": "function"
    },
    {
      "constant": true,
      "inputs": [],
      "name": "UPDATE_BENEFICIARY_ROLE",
      "outputs": [
        {
          "name": "",
          "type": "bytes32"
        }
      ],
      "payable": false,
      "stateMutability": "view",
      "type": "function"
    },
    {
      "constant": true,
      "inputs": [],
      "name": "maximumTapRateIncreasePct",
      "outputs": [
        {
          "name": "",
          "type": "uint256"
        }
      ],
      "payable": false,
      "stateMutability": "view",
      "type": "function"
    },
    {
      "constant": true,
      "inputs": [
        {
          "name": "",
          "type": "address"
        }
      ],
      "name": "lastTappedAmountUpdates",
      "outputs": [
        {
          "name": "",
          "type": "uint256"
        }
      ],
      "payable": false,
      "stateMutability": "view",
      "type": "function"
    },
    {
      "constant": true,
      "inputs": [
        {
          "name": "",
          "type": "address"
        }
      ],
      "name": "tappedAmounts",
      "outputs": [
        {
          "name": "",
          "type": "uint256"
        }
      ],
      "payable": false,
      "stateMutability": "view",
      "type": "function"
    },
    {
      "constant": true,
      "inputs": [],
      "name": "ADD_TAPPED_TOKEN_ROLE",
      "outputs": [
        {
          "name": "",
          "type": "bytes32"
        }
      ],
      "payable": false,
      "stateMutability": "view",
      "type": "function"
    },
    {
      "constant": true,
      "inputs": [],
      "name": "RESET_TAPPED_TOKEN_ROLE",
      "outputs": [
        {
          "name": "",
          "type": "bytes32"
        }
      ],
      "payable": false,
      "stateMutability": "view",
      "type": "function"
    },
    {
      "constant": true,
      "inputs": [
        {
          "name": "token",
          "type": "address"
        }
      ],
      "name": "allowRecoverability",
      "outputs": [
        {
          "name": "",
          "type": "bool"
        }
      ],
      "payable": false,
      "stateMutability": "view",
      "type": "function"
    },
    {
      "constant": true,
      "inputs": [],
      "name": "appId",
      "outputs": [
        {
          "name": "",
          "type": "bytes32"
        }
      ],
      "payable": false,
      "stateMutability": "view",
      "type": "function"
    },
    {
      "constant": true,
      "inputs": [],
      "name": "getInitializationBlock",
      "outputs": [
        {
          "name": "",
          "type": "uint256"
        }
      ],
      "payable": false,
      "stateMutability": "view",
      "type": "function"
    },
    {
      "constant": false,
      "inputs": [
        {
          "name": "_token",
          "type": "address"
        }
      ],
      "name": "transferToVault",
      "outputs": [],
      "payable": false,
      "stateMutability": "nonpayable",
      "type": "function"
    },
    {
      "constant": true,
      "inputs": [
        {
          "name": "_sender",
          "type": "address"
        },
        {
          "name": "_role",
          "type": "bytes32"
        },
        {
          "name": "_params",
          "type": "uint256[]"
        }
      ],
      "name": "canPerform",
      "outputs": [
        {
          "name": "",
          "type": "bool"
        }
      ],
      "payable": false,
      "stateMutability": "view",
      "type": "function"
    },
    {
      "constant": true,
      "inputs": [],
      "name": "getEVMScriptRegistry",
      "outputs": [
        {
          "name": "",
          "type": "address"
        }
      ],
      "payable": false,
      "stateMutability": "view",
      "type": "function"
    },
    {
      "constant": true,
      "inputs": [],
      "name": "UPDATE_RESERVE_ROLE",
      "outputs": [
        {
          "name": "",
          "type": "bytes32"
        }
      ],
      "payable": false,
      "stateMutability": "view",
      "type": "function"
    },
    {
      "constant": true,
      "inputs": [],
      "name": "UPDATE_TAPPED_TOKEN_ROLE",
      "outputs": [
        {
          "name": "",
          "type": "bytes32"
        }
      ],
      "payable": false,
      "stateMutability": "view",
      "type": "function"
    },
    {
      "constant": true,
      "inputs": [],
      "name": "UPDATE_MAXIMUM_TAP_RATE_INCREASE_PCT_ROLE",
      "outputs": [
        {
          "name": "",
          "type": "bytes32"
        }
      ],
      "payable": false,
      "stateMutability": "view",
      "type": "function"
    },
    {
      "constant": true,
      "inputs": [],
      "name": "batchBlocks",
      "outputs": [
        {
          "name": "",
          "type": "uint256"
        }
      ],
      "payable": false,
      "stateMutability": "view",
      "type": "function"
    },
    {
      "constant": true,
      "inputs": [
        {
          "name": "",
          "type": "address"
        }
      ],
      "name": "floors",
      "outputs": [
        {
          "name": "",
          "type": "uint256"
        }
      ],
      "payable": false,
      "stateMutability": "view",
      "type": "function"
    },
    {
      "constant": true,
      "inputs": [],
      "name": "UPDATE_MAXIMUM_TAP_FLOOR_DECREASE_PCT_ROLE",
      "outputs": [
        {
          "name": "",
          "type": "bytes32"
        }
      ],
      "payable": false,
      "stateMutability": "view",
      "type": "function"
    },
    {
      "constant": true,
      "inputs": [],
      "name": "reserve",
      "outputs": [
        {
          "name": "",
          "type": "address"
        }
      ],
      "payable": false,
      "stateMutability": "view",
      "type": "function"
    },
    {
      "constant": true,
      "inputs": [],
      "name": "REMOVE_TAPPED_TOKEN_ROLE",
      "outputs": [
        {
          "name": "",
          "type": "bytes32"
        }
      ],
      "payable": false,
      "stateMutability": "view",
      "type": "function"
    },
    {
      "constant": true,
      "inputs": [],
      "name": "kernel",
      "outputs": [
        {
          "name": "",
          "type": "address"
        }
      ],
      "payable": false,
      "stateMutability": "view",
      "type": "function"
    },
    {
      "constant": true,
      "inputs": [],
      "name": "isPetrified",
      "outputs": [
        {
          "name": "",
          "type": "bool"
        }
      ],
      "payable": false,
      "stateMutability": "view",
      "type": "function"
    },
    {
      "constant": true,
      "inputs": [],
      "name": "WITHDRAW_ROLE",
      "outputs": [
        {
          "name": "",
          "type": "bytes32"
        }
      ],
      "payable": false,
      "stateMutability": "view",
      "type": "function"
    },
    {
      "constant": true,
      "inputs": [
        {
          "name": "",
          "type": "address"
        }
      ],
      "name": "lastTapUpdates",
      "outputs": [
        {
          "name": "",
          "type": "uint256"
        }
      ],
      "payable": false,
      "stateMutability": "view",
      "type": "function"
    },
    {
      "constant": true,
      "inputs": [],
      "name": "maximumTapFloorDecreasePct",
      "outputs": [
        {
          "name": "",
          "type": "uint256"
        }
      ],
      "payable": false,
      "stateMutability": "view",
      "type": "function"
    },
    {
      "constant": true,
      "inputs": [],
      "name": "controller",
      "outputs": [
        {
          "name": "",
          "type": "address"
        }
      ],
      "payable": false,
      "stateMutability": "view",
      "type": "function"
    },
    {
      "constant": true,
      "inputs": [],
      "name": "PCT_BASE",
      "outputs": [
        {
          "name": "",
          "type": "uint256"
        }
      ],
      "payable": false,
      "stateMutability": "view",
      "type": "function"
    },
    {
      "anonymous": false,
      "inputs": [
        {
          "indexed": true,
          "name": "beneficiary",
          "type": "address"
        }
      ],
      "name": "UpdateBeneficiary",
      "type": "event"
    },
    {
      "anonymous": false,
      "inputs": [
        {
          "indexed": false,
          "name": "maximumTapRateIncreasePct",
          "type": "uint256"
        }
      ],
      "name": "UpdateMaximumTapRateIncreasePct",
      "type": "event"
    },
    {
      "anonymous": false,
      "inputs": [
        {
          "indexed": false,
          "name": "maximumTapFloorDecreasePct",
          "type": "uint256"
        }
      ],
      "name": "UpdateMaximumTapFloorDecreasePct",
      "type": "event"
    },
    {
      "anonymous": false,
      "inputs": [
        {
          "indexed": true,
          "name": "token",
          "type": "address"
        },
        {
          "indexed": false,
          "name": "rate",
          "type": "uint256"
        },
        {
          "indexed": false,
          "name": "floor",
          "type": "uint256"
        }
      ],
      "name": "AddTappedToken",
      "type": "event"
    },
    {
      "anonymous": false,
      "inputs": [
        {
          "indexed": true,
          "name": "token",
          "type": "address"
        }
      ],
      "name": "RemoveTappedToken",
      "type": "event"
    },
    {
      "anonymous": false,
      "inputs": [
        {
          "indexed": true,
          "name": "token",
          "type": "address"
        },
        {
          "indexed": false,
          "name": "rate",
          "type": "uint256"
        },
        {
          "indexed": false,
          "name": "floor",
          "type": "uint256"
        }
      ],
      "name": "UpdateTappedToken",
      "type": "event"
    },
    {
      "anonymous": false,
      "inputs": [
        {
          "indexed": true,
          "name": "token",
          "type": "address"
        }
      ],
      "name": "ResetTappedToken",
      "type": "event"
    },
    {
      "anonymous": false,
      "inputs": [
        {
          "indexed": true,
          "name": "token",
          "type": "address"
        },
        {
          "indexed": false,
          "name": "tappedAmount",
          "type": "uint256"
        }
      ],
      "name": "UpdateTappedAmount",
      "type": "event"
    },
    {
      "anonymous": false,
      "inputs": [
        {
          "indexed": true,
          "name": "token",
          "type": "address"
        },
        {
          "indexed": false,
          "name": "amount",
          "type": "uint256"
        }
      ],
      "name": "Withdraw",
      "type": "event"
    },
    {
      "anonymous": false,
      "inputs": [
        {
          "indexed": true,
          "name": "executor",
          "type": "address"
        },
        {
          "indexed": false,
          "name": "script",
          "type": "bytes"
        },
        {
          "indexed": false,
          "name": "input",
          "type": "bytes"
        },
        {
          "indexed": false,
          "name": "returnData",
          "type": "bytes"
        }
      ],
      "name": "ScriptResult",
      "type": "event"
    },
    {
      "anonymous": false,
      "inputs": [
        {
          "indexed": true,
          "name": "vault",
          "type": "address"
        },
        {
          "indexed": true,
          "name": "token",
          "type": "address"
        },
        {
          "indexed": false,
          "name": "amount",
          "type": "uint256"
        }
      ],
      "name": "RecoverToVault",
      "type": "event"
    },
    {
      "constant": false,
      "inputs": [
        {
          "name": "_controller",
          "type": "address"
        },
        {
          "name": "_reserve",
          "type": "address"
        },
        {
          "name": "_beneficiary",
          "type": "address"
        },
        {
          "name": "_batchBlocks",
          "type": "uint256"
        },
        {
          "name": "_maximumTapRateIncreasePct",
          "type": "uint256"
        },
        {
          "name": "_maximumTapFloorDecreasePct",
          "type": "uint256"
        }
      ],
      "name": "initialize",
      "outputs": [],
      "payable": false,
      "stateMutability": "nonpayable",
      "type": "function"
    },
    {
      "constant": false,
      "inputs": [
        {
          "name": "_beneficiary",
          "type": "address"
        }
      ],
      "name": "updateBeneficiary",
      "outputs": [],
      "payable": false,
      "stateMutability": "nonpayable",
      "type": "function"
    },
    {
      "constant": false,
      "inputs": [
        {
          "name": "_maximumTapRateIncreasePct",
          "type": "uint256"
        }
      ],
      "name": "updateMaximumTapRateIncreasePct",
      "outputs": [],
      "payable": false,
      "stateMutability": "nonpayable",
      "type": "function"
    },
    {
      "constant": false,
      "inputs": [
        {
          "name": "_maximumTapFloorDecreasePct",
          "type": "uint256"
        }
      ],
      "name": "updateMaximumTapFloorDecreasePct",
      "outputs": [],
      "payable": false,
      "stateMutability": "nonpayable",
      "type": "function"
    },
    {
      "constant": false,
      "inputs": [
        {
          "name": "_token",
          "type": "address"
        },
        {
          "name": "_rate",
          "type": "uint256"
        },
        {
          "name": "_floor",
          "type": "uint256"
        }
      ],
      "name": "addTappedToken",
      "outputs": [],
      "payable": false,
      "stateMutability": "nonpayable",
      "type": "function"
    },
    {
      "constant": false,
      "inputs": [
        {
          "name": "_token",
          "type": "address"
        }
      ],
      "name": "removeTappedToken",
      "outputs": [],
      "payable": false,
      "stateMutability": "nonpayable",
      "type": "function"
    },
    {
      "constant": false,
      "inputs": [
        {
          "name": "_token",
          "type": "address"
        },
        {
          "name": "_rate",
          "type": "uint256"
        },
        {
          "name": "_floor",
          "type": "uint256"
        }
      ],
      "name": "updateTappedToken",
      "outputs": [],
      "payable": false,
      "stateMutability": "nonpayable",
      "type": "function"
    },
    {
      "constant": false,
      "inputs": [
        {
          "name": "_token",
          "type": "address"
        }
      ],
      "name": "resetTappedToken",
      "outputs": [],
      "payable": false,
      "stateMutability": "nonpayable",
      "type": "function"
    },
    {
      "constant": false,
      "inputs": [
        {
          "name": "_token",
          "type": "address"
        }
      ],
      "name": "updateTappedAmount",
      "outputs": [],
      "payable": false,
      "stateMutability": "nonpayable",
      "type": "function"
    },
    {
      "constant": false,
      "inputs": [
        {
          "name": "_token",
          "type": "address"
        }
      ],
      "name": "withdraw",
      "outputs": [],
      "payable": false,
      "stateMutability": "nonpayable",
      "type": "function"
    },
    {
      "constant": true,
      "inputs": [
        {
          "name": "_token",
          "type": "address"
        }
      ],
      "name": "getMaximumWithdrawal",
      "outputs": [
        {
          "name": "",
          "type": "uint256"
        }
      ],
      "payable": false,
      "stateMutability": "view",
      "type": "function"
    },
    {
      "constant": true,
      "inputs": [
        {
          "name": "_token",
          "type": "address"
        }
      ],
      "name": "rates",
      "outputs": [
        {
          "name": "",
          "type": "uint256"
        }
      ],
      "payable": false,
      "stateMutability": "view",
      "type": "function"
    }
  ],
  "bytecode": "0x6080604052620000176401000000006200001d810204565b6200023b565b6200003064010000000062000125810204565b60408051808201909152601881527f494e49545f414c52454144595f494e495449414c495a45440000000000000000602082015290156200010c576040517f08c379a00000000000000000000000000000000000000000000000000000000081526004018080602001828103825283818151815260200191508051906020019080838360005b83811015620000d0578181015183820152602001620000b6565b50505050905090810190601f168015620000fe5780820380516001836020036101000a031916815260200191505b509250505060405180910390fd5b506200012360001964010000000062000154810204565b565b60006200014f600080516020620033198339815191526401000000006200261b6200023382021704565b905090565b6200016764010000000062000125810204565b60408051808201909152601881527f494e49545f414c52454144595f494e495449414c495a454400000000000000006020820152901562000206576040517f08c379a000000000000000000000000000000000000000000000000000000000815260040180806020018281038252838181518152602001915080519060200190808383600083811015620000d0578181015183820152602001620000b6565b5062000230600080516020620033198339815191528264010000000062002c896200023782021704565b50565b5490565b9055565b6130ce806200024b6000396000f3006080604052600436106102005763ffffffff60e060020a60003504166307e18bc881146102055780630803fac01461021f578063092c684f146102485780630aaffd2a1461026f5780632914b9bd1461029057806332f0a3b51461030557806338af3eed1461031a57806341644f8c1461032f578063486b6d1a146103445780634c8621361461036557806351cff8d91461037a5780635503c6561461039b5780635567de45146103bc57806372405ee0146103dd578063728cdbca146103f257806378986e64146104285780637e7db6e11461043d57806380afdea81461045e578063846a0a89146104735780638b3dd749146104945780639cbbba88146104a95780639d4941d8146104ca578063a1658fad146104eb578063a479e50814610552578063a59a583214610567578063a8734f0b1461057c578063b897b6281461059d578063bf5ae743146105c4578063c102b1b5146105d9578063c56f0f6c146105ee578063cc3f861f14610603578063cc77491b14610624578063cd3293de14610639578063d0c063be1461064e578063d21bd82014610663578063d4aae0c41461067b578063de4796ed14610690578063e02023a1146106a5578063e1264fcd146106ba578063e2a5aec5146106db578063ed20de58146106fc578063f30a00ce14610711578063f77c479114610738578063fc157cb41461074d575b600080fd5b34801561021157600080fd5b5061021d600435610762565b005b34801561022b57600080fd5b50610234610862565b604080519115158252519081900360200190f35b34801561025457600080fd5b5061025d61088b565b60408051918252519081900360200190f35b34801561027b57600080fd5b5061021d600160a060020a03600435166108af565b34801561029c57600080fd5b506040805160206004803580820135601f81018490048402850184019095528484526102e99436949293602493928401919081908401838280828437509497506109fd9650505050505050565b60408051600160a060020a039092168252519081900360200190f35b34801561031157600080fd5b506102e9610ae3565b34801561032657600080fd5b506102e9610b5b565b34801561033b57600080fd5b5061025d610b6a565b34801561035057600080fd5b5061021d600160a060020a0360043516610b8e565b34801561037157600080fd5b5061025d610cca565b34801561038657600080fd5b5061021d600160a060020a0360043516610cd0565b3480156103a757600080fd5b5061025d600160a060020a0360043516610ea6565b3480156103c857600080fd5b5061025d600160a060020a0360043516610eb8565b3480156103e957600080fd5b5061025d610eca565b3480156103fe57600080fd5b5061021d600160a060020a036004358116906024358116906044351660643560843560a435610eee565b34801561043457600080fd5b5061025d6112a7565b34801561044957600080fd5b50610234600160a060020a03600435166112cb565b34801561046a57600080fd5b5061025d6112d1565b34801561047f57600080fd5b5061021d600160a060020a0360043516611301565b3480156104a057600080fd5b5061025d611388565b3480156104b557600080fd5b5061021d600160a060020a03600435166113b3565b3480156104d657600080fd5b5061021d600160a060020a03600435166114ef565b3480156104f757600080fd5b506040805160206004604435818101358381028086018501909652808552610234958335600160a060020a031695602480359636969560649593949201929182918501908490808284375094975061177e9650505050505050565b34801561055e57600080fd5b506102e96118ce565b34801561057357600080fd5b5061025d611983565b34801561058857600080fd5b5061025d600160a060020a03600435166119a7565b3480156105a957600080fd5b5061021d600160a060020a0360043516602435604435611a54565b3480156105d057600080fd5b5061025d611cc9565b3480156105e557600080fd5b5061025d611ced565b3480156105fa57600080fd5b5061025d611d11565b34801561060f57600080fd5b5061025d600160a060020a0360043516611d17565b34801561063057600080fd5b5061025d611d29565b34801561064557600080fd5b506102e9611d4d565b34801561065a57600080fd5b5061025d611d5c565b34801561066f57600080fd5b5061021d600435611d80565b34801561068757600080fd5b506102e9611ece565b34801561069c57600080fd5b50610234611ef9565b3480156106b157600080fd5b5061025d611f0c565b3480156106c657600080fd5b5061025d600160a060020a0360043516611f30565b3480156106e757600080fd5b5061025d600160a060020a0360043516611f42565b34801561070857600080fd5b5061025d611fe2565b34801561071d57600080fd5b5061021d600160a060020a0360043516602435604435611fe8565b34801561074457600080fd5b506102e9612248565b34801561075957600080fd5b5061025d612257565b604080516000808252602082019092527f5d94de7e429250eee4ff97e30ab9f383bea3cd564d6780e0a9e965b1add1d207916107a49133918491905b5061177e565b60408051808201909152600f815260008051602061306383398151915260208201529015156108545760405160e560020a62461bcd0281526004018080602001828103825283818151815260200191508051906020019080838360005b83811015610819578181015183820152602001610801565b50505050905090810190601f1680156108465780820380516001836020036101000a031916815260200191505b509250505060405180910390fd5b5061085e82612263565b5050565b60008061086d611388565b9050801580159061088557508061088261229e565b10155b91505090565b7f454b5d0dbb74f012faf1d3722ea441689f97dc957dd3ca5335b4969586e5dc3081565b604080516000808252602082019092527ff7ea2b80c7b6a2cab2c11d2290cb005c3748397358a25e17113658c83b732593916108ef91339184919061079e565b60408051808201909152600f815260008051602061306383398151915260208201529015156109635760405160e560020a62461bcd02815260040180806020018281038252838181518152602001915080519060200190808383600083811015610819578181015183820152602001610801565b5061096d826122a2565b60408051808201909152601781527f5441505f494e56414c49445f42454e454649434941525900000000000000000060208201529015156109f35760405160e560020a62461bcd02815260040180806020018281038252838181518152602001915080519060200190808383600083811015610819578181015183820152602001610801565b5061085e826122b0565b6000610a076118ce565b600160a060020a03166304bf2a7f836040518263ffffffff1660e060020a0281526004018080602001828103825283818151815260200191508051906020019080838360005b83811015610a65578181015183820152602001610a4d565b50505050905090810190601f168015610a925780820380516001836020036101000a031916815260200191505b5092505050602060405180830381600087803b158015610ab157600080fd5b505af1158015610ac5573d6000803e3d6000fd5b505050506040513d6020811015610adb57600080fd5b505192915050565b6000610aed611ece565b600160a060020a03166332f0a3b56040518163ffffffff1660e060020a028152600401602060405180830381600087803b158015610b2a57600080fd5b505af1158015610b3e573d6000803e3d6000fd5b505050506040513d6020811015610b5457600080fd5b5051905090565b600254600160a060020a031681565b7ff7ea2b80c7b6a2cab2c11d2290cb005c3748397358a25e17113658c83b73259381565b604080516000808252602082019092527fd76960be78bfedc5b40ce4fa64a2f8308f39dd2cbb1f9676dbc4ce87b817befd91610bce91339184919061079e565b60408051808201909152600f81526000805160206130638339815191526020820152901515610c425760405160e560020a62461bcd02815260040180806020018281038252838181518152602001915080519060200190808383600083811015610819578181015183820152602001610801565b50610c4c82612307565b60408051808201909152601481526000805160206130838339815191526020820152901515610cc05760405160e560020a62461bcd02815260040180806020018281038252838181518152602001915080519060200190808383600083811015610819578181015183820152602001610801565b5061085e82612324565b60045481565b604080516000808252602082019092527f5d8e12c39142ff96d79d04d15d1ba1269e4fe57bb9d26f43523628b34ba108ec90610d1090339083908561079e565b60408051808201909152600f81526000805160206130638339815191526020820152901515610d845760405160e560020a62461bcd02815260040180806020018281038252838181518152602001915080519060200190808383600083811015610819578181015183820152602001610801565b50610d8e83612307565b60408051808201909152601481526000805160206130838339815191526020820152901515610e025760405160e560020a62461bcd02815260040180806020018281038252838181518152602001915080519060200190808383600083811015610819578181015183820152602001610801565b50610e0c83612393565b60408051808201909152601a81527f5441505f5749544844524157414c5f414d4f554e545f5a45524f000000000000602082015290925060008311610e965760405160e560020a62461bcd02815260040180806020018281038252838181518152602001915080519060200190808383600083811015610819578181015183820152602001610801565b50610ea18383612411565b505050565b60096020526000908152604090205481565b60066020526000908152604090205481565b7f5bc3b608e6be93b75a1c472a4a5bea3d31eabae46bf968e4bc4c7701562114dc81565b610ef6611388565b60408051808201909152601881527f494e49545f414c52454144595f494e495449414c495a4544000000000000000060208201529015610f7b5760405160e560020a62461bcd02815260040180806020018281038252838181518152602001915080519060200190808383600083811015610819578181015183820152602001610801565b50610f858661251f565b60408051808201909152601381527f5441505f434f4e54524143545f49535f454f4100000000000000000000000000602082015290151561100b5760405160e560020a62461bcd02815260040180806020018281038252838181518152602001915080519060200190808383600083811015610819578181015183820152602001610801565b506110158561251f565b60408051808201909152601381527f5441505f434f4e54524143545f49535f454f4100000000000000000000000000602082015290151561109b5760405160e560020a62461bcd02815260040180806020018281038252838181518152602001915080519060200190808383600083811015610819578181015183820152602001610801565b506110a5846122a2565b60408051808201909152601781527f5441505f494e56414c49445f42454e4546494349415259000000000000000000602082015290151561112b5760405160e560020a62461bcd02815260040180806020018281038252838181518152602001915080519060200190808383600083811015610819578181015183820152602001610801565b5060408051808201909152601881527f5441505f494e56414c49445f42415443485f424c4f434b53000000000000000060208201528315156111b25760405160e560020a62461bcd02815260040180806020018281038252838181518152602001915080519060200190808383600083811015610819578181015183820152602001610801565b506111bc81612545565b60408051808201909152601e81527f5441505f494e56414c49445f464c4f4f525f44454352454153455f504354000060208201529015156112425760405160e560020a62461bcd02815260040180806020018281038252838181518152602001915080519060200190808383600083811015610819578181015183820152602001610801565b5061124b612553565b6000805473ffffffffffffffffffffffffffffffffffffffff19908116600160a060020a039889161790915560018054821696881696909617909555600280549095169390951692909217909255600391909155600455600555565b7f294bf52c518669359157a9fe826e510dfc3dbd200d44bf77ec9536bff34bc29e81565b50600190565b60006112fc7fd625496217aa6a3453eecb9c3489dc5a53e6c67b444329ea2b2cbc9ff547639b61261b565b905090565b61130a81612307565b6040805180820190915260148152600080516020613083833981519152602082015290151561137e5760405160e560020a62461bcd02815260040180806020018281038252838181518152602001915080519060200190808383600083811015610819578181015183820152602001610801565b5061085e81612393565b60006112fc7febb05b386a8d34882b8711d156f463690983dc47815980fb82aeeff1aa43579e61261b565b604080516000808252602082019092527f294bf52c518669359157a9fe826e510dfc3dbd200d44bf77ec9536bff34bc29e916113f391339184919061079e565b60408051808201909152600f815260008051602061306383398151915260208201529015156114675760405160e560020a62461bcd02815260040180806020018281038252838181518152602001915080519060200190808383600083811015610819578181015183820152602001610801565b5061147182612307565b604080518082019091526014815260008051602061308383398151915260208201529015156114e55760405160e560020a62461bcd02815260040180806020018281038252838181518152602001915080519060200190808383600083811015610819578181015183820152602001610801565b5061085e82612623565b60008060006114fd846112cb565b60408051808201909152601281527f5245434f5645525f444953414c4c4f574544000000000000000000000000000060208201529015156115835760405160e560020a62461bcd02815260040180806020018281038252838181518152602001915080519060200190808383600083811015610819578181015183820152602001610801565b5061158c610ae3565b92506115978361251f565b60408051808201909152601a81527f5245434f5645525f5641554c545f4e4f545f434f4e5452414354000000000000602082015290151561161d5760405160e560020a62461bcd02815260040180806020018281038252838181518152602001915080519060200190808383600083811015610819578181015183820152602001610801565b50600160a060020a038416151561166e5760405130319250600160a060020a0384169083156108fc029084906000818181858888f19350505050158015611668573d6000803e3d6000fd5b5061172d565b5082611689600160a060020a0382163063ffffffff6126ac16565b91506116a5600160a060020a038216848463ffffffff6127ac16565b60408051808201909152601d81527f5245434f5645525f544f4b454e5f5452414e534645525f4641494c4544000000602082015290151561172b5760405160e560020a62461bcd02815260040180806020018281038252838181518152602001915080519060200190808383600083811015610819578181015183820152602001610801565b505b83600160a060020a031683600160a060020a03167f596caf56044b55fb8c4ca640089bbc2b63cae3e978b851f5745cbb7c5b288e02846040518082815260200191505060405180910390a350505050565b600080611789610862565b151561179857600091506118c6565b6117a0611ece565b9050600160a060020a03811615156117bb57600091506118c6565b80600160a060020a031663fdef91068630876117d688612822565b60405160e060020a63ffffffff8716028152600160a060020a03808616600483019081529085166024830152604482018490526080606483019081528351608484015283519192909160a490910190602085019080838360005b83811015611848578181015183820152602001611830565b50505050905090810190601f1680156118755780820380516001836020036101000a031916815260200191505b5095505050505050602060405180830381600087803b15801561189757600080fd5b505af11580156118ab573d6000803e3d6000fd5b505050506040513d60208110156118c157600080fd5b505191505b509392505050565b6000806118d9611ece565b604080517fbe00bbd80000000000000000000000000000000000000000000000000000000081527fd6f028ca0e8edb4a8c9757ca4fdccab25fa1e0317da1188108f7d2dee14902fb60048201527fddbcfd564f642ab5627cf68b9b7d374fb4f8a36e941a75d89c87998cef03bd6160248201529051600160a060020a03929092169163be00bbd8916044808201926020929091908290030181600087803b158015610ab157600080fd5b7f7984c050833e1db850f5aa7476710412fd2983fcec34da049502835ad7aed4f781565b60006119b1610862565b60408051808201909152601481527f494e49545f4e4f545f494e495449414c495a45440000000000000000000000006020820152901515611a375760405160e560020a62461bcd02815260040180806020018281038252838181518152602001915080519060200190808383600083811015610819578181015183820152602001610801565b5050600160a060020a031660009081526007602052604090205490565b604080516000808252602082019092527f5bc3b608e6be93b75a1c472a4a5bea3d31eabae46bf968e4bc4c7701562114dc91611a9491339184919061079e565b60408051808201909152600f81526000805160206130638339815191526020820152901515611b085760405160e560020a62461bcd02815260040180806020018281038252838181518152602001915080519060200190808383600083811015610819578181015183820152602001610801565b50611b128461282c565b60408051808201909152601181527f5441505f494e56414c49445f544f4b454e0000000000000000000000000000006020820152901515611b985760405160e560020a62461bcd02815260040180806020018281038252838181518152602001915080519060200190808383600083811015610819578181015183820152602001610801565b50611ba284612307565b60408051808201909152601881527f5441505f544f4b454e5f414c52454144595f544150504544000000000000000060208201529015611c275760405160e560020a62461bcd02815260040180806020018281038252838181518152602001915080519060200190808383600083811015610819578181015183820152602001610801565b50611c318361284b565b60408051808201909152601481527f5441505f494e56414c49445f5441505f524154450000000000000000000000006020820152901515611cb75760405160e560020a62461bcd02815260040180806020018281038252838181518152602001915080519060200190808383600083811015610819578181015183820152602001610801565b50611cc3848484612850565b50505050565b7f83201394534c53ae0b4696fd49a933082d3e0525aa5a3d0a14a2f51e1221328881565b7f5d94de7e429250eee4ff97e30ab9f383bea3cd564d6780e0a9e965b1add1d20781565b60035481565b60086020526000908152604090205481565b7f57c9c67896cf0a4ffe92cbea66c2f7c34380af06bf14215dabb078cf8a6d99e181565b600154600160a060020a031681565b7fd76960be78bfedc5b40ce4fa64a2f8308f39dd2cbb1f9676dbc4ce87b817befd81565b604080516000808252602082019092527f57c9c67896cf0a4ffe92cbea66c2f7c34380af06bf14215dabb078cf8a6d99e191611dc091339184919061079e565b60408051808201909152600f81526000805160206130638339815191526020820152901515611e345760405160e560020a62461bcd02815260040180806020018281038252838181518152602001915080519060200190808383600083811015610819578181015183820152602001610801565b50611e3e82612545565b60408051808201909152601e81527f5441505f494e56414c49445f464c4f4f525f44454352454153455f50435400006020820152901515611ec45760405160e560020a62461bcd02815260040180806020018281038252838181518152602001915080519060200190808383600083811015610819578181015183820152602001610801565b5061085e82612900565b60006112fc7f4172f0f7d2289153072b0a6ca36959e0cbe2efc3afe50fc81636caa96338137b61261b565b6000600019611f06611388565b14905090565b7f5d8e12c39142ff96d79d04d15d1ba1269e4fe57bb9d26f43523628b34ba108ec81565b600a6020526000908152604090205481565b6000611f4c610862565b60408051808201909152601481527f494e49545f4e4f545f494e495449414c495a45440000000000000000000000006020820152901515611fd25760405160e560020a62461bcd02815260040180806020018281038252838181518152602001915080519060200190808383600083811015610819578181015183820152602001610801565b50611fdc8261293b565b92915050565b60055481565b604080516000808252602082019092527f83201394534c53ae0b4696fd49a933082d3e0525aa5a3d0a14a2f51e122132889161202891339184919061079e565b60408051808201909152600f8152600080516020613063833981519152602082015290151561209c5760405160e560020a62461bcd02815260040180806020018281038252838181518152602001915080519060200190808383600083811015610819578181015183820152602001610801565b506120a684612307565b6040805180820190915260148152600080516020613083833981519152602082015290151561211a5760405160e560020a62461bcd02815260040180806020018281038252838181518152602001915080519060200190808383600083811015610819578181015183820152602001610801565b506121248361284b565b60408051808201909152601481527f5441505f494e56414c49445f5441505f5241544500000000000000000000000060208201529015156121aa5760405160e560020a62461bcd02815260040180806020018281038252838181518152602001915080519060200190808383600083811015610819578181015183820152602001610801565b506121b6848484612aff565b60408051808201909152601681527f5441505f494e56414c49445f5441505f55504441544500000000000000000000602082015290151561223c5760405160e560020a62461bcd02815260040180806020018281038252838181518152602001915080519060200190808383600083811015610819578181015183820152602001610801565b50611cc3848484612b24565b600054600160a060020a031681565b670de0b6b3a764000081565b60048190556040805182815290517f9b7e646ff02dfcf5eb44312fe1246b19fbd7cd135b5e8fc87ea8dabdba0a557a9181900360200190a150565b4390565b600160a060020a0316151590565b6002805473ffffffffffffffffffffffffffffffffffffffff1916600160a060020a0383169081179091556040517fe6131a64e93e9aa4ff38892c34d563c06dcc1e03b3d6897cc65f0903e2ad684890600090a250565b600160a060020a0316600090815260076020526040902054151590565b600160a060020a0381166000818152600660209081526040808320839055600782528083208390556008825280832083905560098252808320839055600a909152808220829055517f501177e27fa4ac1960010be66ac3465730ea30d032efffb194ecdab56780a9a19190a250565b60008061239f8361293b565b90506123a9612bd4565b600160a060020a03841660008181526009602090815260408083209490945560068152908390208490558251848152925191927f52a0ec2acc756c1e658413fdceb6e3d7621deafa23d6f7cf8cfe8dac74f58f38929081900390910190a28091505b50919050565b600160a060020a03821660009081526006602052604090205461243a908263ffffffff612bee16565b600160a060020a038084166000818152600660205260408082209490945560015460025485517fbeabacc8000000000000000000000000000000000000000000000000000000008152600481019490945284166024840152604483018690529351939092169263beabacc89260648084019391929182900301818387803b1580156124c457600080fd5b505af11580156124d8573d6000803e3d6000fd5b5050604080518481529051600160a060020a03861693507f884edad9ce6fa2440d8a54cc123490eb96d2768479d49ff9c7366125a942436492509081900360200190a25050565b600080600160a060020a038316151561253b576000915061240b565b50506000903b1190565b670de0b6b3a7640000101590565b61255b611388565b60408051808201909152601881527f494e49545f414c52454144595f494e495449414c495a45440000000000000000602082015290156125e05760405160e560020a62461bcd02815260040180806020018281038252838181518152602001915080519060200190808383600083811015610819578181015183820152602001610801565b506126196125ec61229e565b7febb05b386a8d34882b8711d156f463690983dc47815980fb82aeeff1aa43579e9063ffffffff612c8916565b565b5490565b5490565b600160a060020a038116600090815260066020526040812055612644612bd4565b600160a060020a038216600090815260096020526040902055612665612c8d565b600160a060020a0382166000818152600a602052604080822093909355915190917fd6bb4268f8b24a4b1224ccb373917deefefc838e5deb90fc31bf588f809eb5b091a250565b60408051600160a060020a038316602480830191909152825180830390910181526044909101909152602081018051600160e060020a03167f70a082310000000000000000000000000000000000000000000000000000000017905260009081806127178684612c91565b60408051808201909152601c81527f534146455f4552435f32305f42414c414e43455f524556455254454400000000602082015291935091508215156127a25760405160e560020a62461bcd02815260040180806020018281038252838181518152602001915080519060200190808383600083811015610819578181015183820152602001610801565b5095945050505050565b60408051600160a060020a03841660248201526044808201849052825180830390910181526064909101909152602081018051600160e060020a03167fa9059cbb000000000000000000000000000000000000000000000000000000001790526000906128198582612cc2565b95945050505050565b8051602002815290565b60006128378261251f565b80611fdc575050600160a060020a03161590565b151590565b600160a060020a038316600090815260076020908152604080832085905560089091529020819055612880612bd4565b600160a060020a0384166000908152600960205260409020556128a1612c8d565b600160a060020a0384166000818152600a6020908152604091829020939093558051858152928301849052805191927fd68f3ca2b9dba133e5d2c7434e9354e135d834bb79a415b6ee8a640d61631260929081900390910190a2505050565b60058190556040805182815290517fa9ff459c90a69cad3990e8d42d4becd66f4252de3fd0da15700f4eb1f31d33e49181900360200190a150565b600160a060020a03808216600081815260086020908152604080832054835482517f4afe6c4700000000000000000000000000000000000000000000000000000000815260048101969096529151939586958695869586956129f495941692634afe6c47926024808301939282900301818987803b1580156129bc57600080fd5b505af11580156129d0573d6000803e3d6000fd5b505050506040513d60208110156129e657600080fd5b50519063ffffffff612d1016565b9350600160a060020a03861615612a2957600154612a2490600160a060020a03888116911663ffffffff6126ac16565b612a37565b600154600160a060020a0316315b600160a060020a038716600090815260076020908152604080832054600990925290912054919450612a8791612a7b90612a6f612bd4565b9063ffffffff612bee16565b9063ffffffff612d9e16565b600160a060020a038716600090815260066020526040902054909250612ab3908363ffffffff612d1016565b9050838311612ac55760009450612af6565b612ad5848263ffffffff612d1016565b8311612af257612aeb838563ffffffff612bee16565b9450612af6565b8094505b50505050919050565b6000612b0b8484612e49565b8015612b1c5750612b1c8483612f04565b949350505050565b6000612b2f84612393565b90506000811115612b4457612b448482612411565b600160a060020a038416600090815260076020908152604080832086905560089091529020829055612b74612c8d565b600160a060020a0385166000818152600a6020908152604091829020939093558051868152928301859052805191927fd163e19d68c378e6a686a4f7b29752e9132fcb27e94cba5824967cda8f707746929081900390910190a250505050565b6003546000906112fc90612a7b438263ffffffff612fc216565b60408051808201909152601281527f4d4154485f5355425f554e444552464c4f5700000000000000000000000000006020820152600090819084841115612c7a5760405160e560020a62461bcd02815260040180806020018281038252838181518152602001915080519060200190808383600083811015610819578181015183820152602001610801565b505050808203805b5092915050565b9055565b4290565b6000806000806040516020818751602089018a5afa92506000831115612cb657805191505b50909590945092505050565b6000806040516020818551602087016000895af16000811115612d06573d8015612cf35760208114612cfc57612d04565b60019350612d04565b600183511493505b505b5090949350505050565b60408051808201909152601181527f4d4154485f4144445f4f564552464c4f57000000000000000000000000000000602082015260009083830190848210156118c65760405160e560020a62461bcd02815260040180806020018281038252838181518152602001915080519060200190808383600083811015610819578181015183820152602001610801565b600080831515612db15760009150612c82565b50828202828482811515612dc157fe5b60408051808201909152601181527f4d4154485f4d554c5f4f564552464c4f57000000000000000000000000000000602082015292919004146118c65760405160e560020a62461bcd02815260040180806020018281038252838181518152602001915080519060200190808383600083811015610819578181015183820152602001610801565b600160a060020a038216600090815260076020526040812054808311612e725760019150612c82565b600160a060020a0384166000908152600a602052604090205462278d0001612e98612c8d565b1015612ea75760009150612c82565b612ed4612ec7600454670de0b6b3a7640000612d1090919063ffffffff16565b829063ffffffff612d9e16565b612eec84670de0b6b3a764000063ffffffff612d9e16565b11612efa5760019150612c82565b5060009392505050565b600160a060020a038216600090815260086020526040812054808310612f2d5760019150612c82565b600160a060020a0384166000908152600a602052604090205462278d0001612f53612c8d565b1015612f625760009150612c82565b600554670de0b6b3a764000011612f7c5760019150612c82565b612f9c612ec7600554670de0b6b3a7640000612bee90919063ffffffff16565b612fb484670de0b6b3a764000063ffffffff612d9e16565b10612efa5760019150612c82565b60408051808201909152600d81527f4d4154485f4449565f5a45524f000000000000000000000000000000000000006020820152600090819081841161304d5760405160e560020a62461bcd02815260040180806020018281038252838181518152602001915080519060200190808383600083811015610819578181015183820152602001610801565b50828481151561305957fe5b0494935050505056004150505f415554485f4641494c454400000000000000000000000000000000005441505f544f4b454e5f4e4f545f544150504544000000000000000000000000a165627a7a72305820007e30768373fa0108fa6a85d9e36da547323a186c575bbddee0e9fb6f7428130029ebb05b386a8d34882b8711d156f463690983dc47815980fb82aeeff1aa43579e",
  "source": "pragma solidity 0.4.24;\n\nimport \"@aragon/os/contracts/apps/AragonApp.sol\";\nimport \"@aragon/os/contracts/common/EtherTokenConstant.sol\";\nimport \"@aragon/os/contracts/common/IsContract.sol\";\nimport \"@aragon/os/contracts/common/TimeHelpers.sol\";\nimport \"@aragon/os/contracts/common/SafeERC20.sol\";\nimport \"@aragon/os/contracts/lib/math/SafeMath.sol\";\nimport \"@aragon/os/contracts/lib/token/ERC20.sol\";\nimport \"@aragon/apps-vault/contracts/Vault.sol\";\nimport \"@ablack/fundraising-shared-interfaces/contracts/ITap.sol\";\nimport \"@ablack/fundraising-shared-interfaces/contracts/IAragonFundraisingController.sol\";\n\n\ncontract Tap is ITap, TimeHelpers, EtherTokenConstant, IsContract, AragonApp {\n    using SafeERC20 for ERC20;\n    using SafeMath  for uint256;\n\n    /**\n    Hardcoded constants to save gas\n    bytes32 public constant UPDATE_CONTROLLER_ROLE                     = keccak256(\"UPDATE_CONTROLLER_ROLE\");\n    bytes32 public constant UPDATE_RESERVE_ROLE                        = keccak256(\"UPDATE_RESERVE_ROLE\");\n    bytes32 public constant UPDATE_BENEFICIARY_ROLE                    = keccak256(\"UPDATE_BENEFICIARY_ROLE\");\n    bytes32 public constant UPDATE_MAXIMUM_TAP_RATE_INCREASE_PCT_ROLE  = keccak256(\"UPDATE_MAXIMUM_TAP_RATE_INCREASE_PCT_ROLE\");\n    bytes32 public constant UPDATE_MAXIMUM_TAP_FLOOR_DECREASE_PCT_ROLE = keccak256(\"UPDATE_MAXIMUM_TAP_FLOOR_DECREASE_PCT_ROLE\");\n    bytes32 public constant ADD_TAPPED_TOKEN_ROLE                      = keccak256(\"ADD_TAPPED_TOKEN_ROLE\");\n    bytes32 public constant REMOVE_TAPPED_TOKEN_ROLE                   = keccak256(\"REMOVE_TAPPED_TOKEN_ROLE\");\n    bytes32 public constant UPDATE_TAPPED_TOKEN_ROLE                   = keccak256(\"UPDATE_TAPPED_TOKEN_ROLE\");\n    bytes32 public constant RESET_TAPPED_TOKEN_ROLE                    = keccak256(\"RESET_TAPPED_TOKEN_ROLE\");\n    bytes32 public constant WITHDRAW_ROLE                              = keccak256(\"WITHDRAW_ROLE\");\n    */\n    bytes32 public constant UPDATE_CONTROLLER_ROLE                     = 0x454b5d0dbb74f012faf1d3722ea441689f97dc957dd3ca5335b4969586e5dc30;\n    bytes32 public constant UPDATE_RESERVE_ROLE                        = 0x7984c050833e1db850f5aa7476710412fd2983fcec34da049502835ad7aed4f7;\n    bytes32 public constant UPDATE_BENEFICIARY_ROLE                    = 0xf7ea2b80c7b6a2cab2c11d2290cb005c3748397358a25e17113658c83b732593;\n    bytes32 public constant UPDATE_MAXIMUM_TAP_RATE_INCREASE_PCT_ROLE  = 0x5d94de7e429250eee4ff97e30ab9f383bea3cd564d6780e0a9e965b1add1d207;\n    bytes32 public constant UPDATE_MAXIMUM_TAP_FLOOR_DECREASE_PCT_ROLE = 0x57c9c67896cf0a4ffe92cbea66c2f7c34380af06bf14215dabb078cf8a6d99e1;\n    bytes32 public constant ADD_TAPPED_TOKEN_ROLE                      = 0x5bc3b608e6be93b75a1c472a4a5bea3d31eabae46bf968e4bc4c7701562114dc;\n    bytes32 public constant REMOVE_TAPPED_TOKEN_ROLE                   = 0xd76960be78bfedc5b40ce4fa64a2f8308f39dd2cbb1f9676dbc4ce87b817befd;\n    bytes32 public constant UPDATE_TAPPED_TOKEN_ROLE                   = 0x83201394534c53ae0b4696fd49a933082d3e0525aa5a3d0a14a2f51e12213288;\n    bytes32 public constant RESET_TAPPED_TOKEN_ROLE                    = 0x294bf52c518669359157a9fe826e510dfc3dbd200d44bf77ec9536bff34bc29e;\n    bytes32 public constant WITHDRAW_ROLE                              = 0x5d8e12c39142ff96d79d04d15d1ba1269e4fe57bb9d26f43523628b34ba108ec;\n\n    uint256 public constant PCT_BASE = 10 ** 18; // 0% = 0; 1% = 10 ** 16; 100% = 10 ** 18\n\n    string private constant ERROR_CONTRACT_IS_EOA            = \"TAP_CONTRACT_IS_EOA\";\n    string private constant ERROR_INVALID_BENEFICIARY        = \"TAP_INVALID_BENEFICIARY\";\n    string private constant ERROR_INVALID_BATCH_BLOCKS       = \"TAP_INVALID_BATCH_BLOCKS\";\n    string private constant ERROR_INVALID_FLOOR_DECREASE_PCT = \"TAP_INVALID_FLOOR_DECREASE_PCT\";\n    string private constant ERROR_INVALID_TOKEN              = \"TAP_INVALID_TOKEN\";\n    string private constant ERROR_INVALID_TAP_RATE           = \"TAP_INVALID_TAP_RATE\";\n    string private constant ERROR_INVALID_TAP_UPDATE         = \"TAP_INVALID_TAP_UPDATE\";\n    string private constant ERROR_TOKEN_ALREADY_TAPPED       = \"TAP_TOKEN_ALREADY_TAPPED\";\n    string private constant ERROR_TOKEN_NOT_TAPPED           = \"TAP_TOKEN_NOT_TAPPED\";\n    string private constant ERROR_WITHDRAWAL_AMOUNT_ZERO     = \"TAP_WITHDRAWAL_AMOUNT_ZERO\";\n\n    IAragonFundraisingController public controller;\n    Vault                        public reserve;\n    address                      public beneficiary;\n    uint256                      public batchBlocks;\n    uint256                      public maximumTapRateIncreasePct;\n    uint256                      public maximumTapFloorDecreasePct;\n\n    mapping (address => uint256) public tappedAmounts;\n    mapping (address => uint256) public rates;\n    mapping (address => uint256) public floors;\n    mapping (address => uint256) public lastTappedAmountUpdates; // batch ids [block numbers]\n    mapping (address => uint256) public lastTapUpdates;  // timestamps\n\n    event UpdateBeneficiary               (address indexed beneficiary);\n    event UpdateMaximumTapRateIncreasePct (uint256 maximumTapRateIncreasePct);\n    event UpdateMaximumTapFloorDecreasePct(uint256 maximumTapFloorDecreasePct);\n    event AddTappedToken                  (address indexed token, uint256 rate, uint256 floor);\n    event RemoveTappedToken               (address indexed token);\n    event UpdateTappedToken               (address indexed token, uint256 rate, uint256 floor);\n    event ResetTappedToken                (address indexed token);\n    event UpdateTappedAmount              (address indexed token, uint256 tappedAmount);\n    event Withdraw                        (address indexed token, uint256 amount);\n\n\n    /***** external functions *****/\n\n    /**\n     * @notice Initialize tap\n     * @param _controller                 The address of the controller contract\n     * @param _reserve                    The address of the reserve [pool] contract\n     * @param _beneficiary                The address of the beneficiary [to whom funds are to be withdrawn]\n     * @param _batchBlocks                The number of blocks batches are to last\n     * @param _maximumTapRateIncreasePct  The maximum tap rate increase percentage allowed [in PCT_BASE]\n     * @param _maximumTapFloorDecreasePct The maximum tap floor decrease percentage allowed [in PCT_BASE]\n    */\n    function initialize(\n        IAragonFundraisingController _controller,\n        Vault                        _reserve,\n        address                      _beneficiary,\n        uint256                      _batchBlocks,\n        uint256                      _maximumTapRateIncreasePct,\n        uint256                      _maximumTapFloorDecreasePct\n    )\n        external\n        onlyInit\n    {\n        require(isContract(_controller),                                         ERROR_CONTRACT_IS_EOA);\n        require(isContract(_reserve),                                            ERROR_CONTRACT_IS_EOA);\n        require(_beneficiaryIsValid(_beneficiary),                               ERROR_INVALID_BENEFICIARY);\n        require(_batchBlocks != 0,                                               ERROR_INVALID_BATCH_BLOCKS);\n        require(_maximumTapFloorDecreasePctIsValid(_maximumTapFloorDecreasePct), ERROR_INVALID_FLOOR_DECREASE_PCT);\n\n        initialized();\n\n        controller = _controller;\n        reserve = _reserve;\n        beneficiary = _beneficiary;\n        batchBlocks = _batchBlocks;\n        maximumTapRateIncreasePct = _maximumTapRateIncreasePct;\n        maximumTapFloorDecreasePct = _maximumTapFloorDecreasePct;\n    }\n\n    /**\n     * @notice Update beneficiary to `_beneficiary`\n     * @param _beneficiary The address of the new beneficiary [to whom funds are to be withdrawn]\n    */\n    function updateBeneficiary(address _beneficiary) external auth(UPDATE_BENEFICIARY_ROLE) {\n        require(_beneficiaryIsValid(_beneficiary), ERROR_INVALID_BENEFICIARY);\n\n        _updateBeneficiary(_beneficiary);\n    }\n\n    /**\n     * @notice Update maximum tap rate increase percentage to `@formatPct(_maximumTapRateIncreasePct)`%\n     * @param _maximumTapRateIncreasePct The new maximum tap rate increase percentage to be allowed [in PCT_BASE]\n    */\n    function updateMaximumTapRateIncreasePct(uint256 _maximumTapRateIncreasePct) external auth(UPDATE_MAXIMUM_TAP_RATE_INCREASE_PCT_ROLE) {\n        _updateMaximumTapRateIncreasePct(_maximumTapRateIncreasePct);\n    }\n\n    /**\n     * @notice Update maximum tap floor decrease percentage to `@formatPct(_maximumTapFloorDecreasePct)`%\n     * @param _maximumTapFloorDecreasePct The new maximum tap floor decrease percentage to be allowed [in PCT_BASE]\n    */\n    function updateMaximumTapFloorDecreasePct(uint256 _maximumTapFloorDecreasePct) external auth(UPDATE_MAXIMUM_TAP_FLOOR_DECREASE_PCT_ROLE) {\n        require(_maximumTapFloorDecreasePctIsValid(_maximumTapFloorDecreasePct), ERROR_INVALID_FLOOR_DECREASE_PCT);\n\n        _updateMaximumTapFloorDecreasePct(_maximumTapFloorDecreasePct);\n    }\n\n    /**\n     * @notice Add tap for `_token.symbol(): string` with a rate of `@tokenAmount(_token, _rate)` per block and a floor of `@tokenAmount(_token, _floor)`\n     * @param _token The address of the token to be tapped\n     * @param _rate  The rate at which that token is to be tapped [in wei / block]\n     * @param _floor The floor above which the reserve [pool] balance for that token is to be kept [in wei]\n    */\n    function addTappedToken(address _token, uint256 _rate, uint256 _floor) external auth(ADD_TAPPED_TOKEN_ROLE) {\n        require(_tokenIsContractOrETH(_token), ERROR_INVALID_TOKEN);\n        require(!_tokenIsTapped(_token),       ERROR_TOKEN_ALREADY_TAPPED);\n        require(_tapRateIsValid(_rate),        ERROR_INVALID_TAP_RATE);\n\n        _addTappedToken(_token, _rate, _floor);\n    }\n\n    /**\n     * @notice Remove tap for `_token.symbol(): string`\n     * @param _token The address of the token to be un-tapped\n    */\n    function removeTappedToken(address _token) external auth(REMOVE_TAPPED_TOKEN_ROLE) {\n        require(_tokenIsTapped(_token), ERROR_TOKEN_NOT_TAPPED);\n\n        _removeTappedToken(_token);\n    }\n\n    /**\n     * @notice Update tap for `_token.symbol(): string` with a rate of `@tokenAmount(_token, _rate)` per block and a floor of `@tokenAmount(_token, _floor)`\n     * @param _token The address of the token whose tap is to be updated\n     * @param _rate  The new rate at which that token is to be tapped [in wei / block]\n     * @param _floor The new floor above which the reserve [pool] balance for that token is to be kept [in wei]\n    */\n    function updateTappedToken(address _token, uint256 _rate, uint256 _floor) external auth(UPDATE_TAPPED_TOKEN_ROLE) {\n        require(_tokenIsTapped(_token),                   ERROR_TOKEN_NOT_TAPPED);\n        require(_tapRateIsValid(_rate),                   ERROR_INVALID_TAP_RATE);\n        require(_tapUpdateIsValid(_token, _rate, _floor), ERROR_INVALID_TAP_UPDATE);\n\n        _updateTappedToken(_token, _rate, _floor);\n    }\n\n    /**\n     * @notice Reset tap timestamps for `_token.symbol(): string`\n     * @param _token The address of the token whose tap timestamps are to be reset\n    */\n    function resetTappedToken(address _token) external auth(RESET_TAPPED_TOKEN_ROLE) {\n        require(_tokenIsTapped(_token), ERROR_TOKEN_NOT_TAPPED);\n\n        _resetTappedToken(_token);\n    }\n\n    /**\n     * @notice Update tapped amount for `_token.symbol(): string`\n     * @param _token The address of the token whose tapped amount is to be updated\n    */\n    function updateTappedAmount(address _token) external {\n        require(_tokenIsTapped(_token), ERROR_TOKEN_NOT_TAPPED);\n\n        _updateTappedAmount(_token);\n    }\n\n    /**\n     * @notice Transfer about `@tokenAmount(_token, self.getMaximalWithdrawal(_token): uint256)` from `self.reserve()` to `self.beneficiary()`\n     * @param _token The address of the token to be transfered\n    */\n    function withdraw(address _token) external auth(WITHDRAW_ROLE) {\n        require(_tokenIsTapped(_token), ERROR_TOKEN_NOT_TAPPED);\n        uint256 amount = _updateTappedAmount(_token);\n        require(amount > 0, ERROR_WITHDRAWAL_AMOUNT_ZERO);\n\n        _withdraw(_token, amount);\n    }\n\n    /***** public view functions *****/\n\n    function getMaximumWithdrawal(address _token) public view isInitialized returns (uint256) {\n        return _tappedAmount(_token);\n    }\n\n    function rates(address _token) public view isInitialized returns (uint256) {\n        return rates[_token];\n    }\n\n    /***** internal functions *****/\n\n    /* computation functions */\n\n    function _currentBatchId() internal view returns (uint256) {\n        return (block.number.div(batchBlocks)).mul(batchBlocks);\n    }\n\n    function _tappedAmount(address _token) internal view returns (uint256) {\n        uint256 toBeKept = controller.collateralsToBeClaimed(_token).add(floors[_token]);\n        uint256 balance = _token == ETH ? address(reserve).balance : ERC20(_token).staticBalanceOf(reserve);\n        uint256 flow = (_currentBatchId().sub(lastTappedAmountUpdates[_token])).mul(rates[_token]);\n        uint256 tappedAmount = tappedAmounts[_token].add(flow);\n        /**\n         * whatever happens enough collateral should be\n         * kept in the reserve pool to guarantee that\n         * its balance is kept above the floor once\n         * all pending sell orders are claimed\n        */\n\n        /**\n         * the reserve's balance is already below the balance to be kept\n         * the tapped amount should be reset to zero\n        */\n        if (balance <= toBeKept) {\n            return 0;\n        }\n\n        /**\n         * the reserve's balance minus the upcoming tap flow would be below the balance to be kept\n         * the flow should be reduced to balance - toBeKept\n        */\n        if (balance <= toBeKept.add(tappedAmount)) {\n            return balance.sub(toBeKept);\n        }\n\n        /**\n         * the reserve's balance minus the upcoming flow is above the balance to be kept\n         * the flow can be added to the tapped amount\n        */\n        return tappedAmount;\n    }\n\n    /* check functions */\n\n    function _beneficiaryIsValid(address _beneficiary) internal pure returns (bool) {\n        return _beneficiary != address(0);\n    }\n\n    function _maximumTapFloorDecreasePctIsValid(uint256 _maximumTapFloorDecreasePct) internal pure returns (bool) {\n        return _maximumTapFloorDecreasePct <= PCT_BASE;\n    }\n\n    function _tokenIsContractOrETH(address _token) internal view returns (bool) {\n        return isContract(_token) || _token == ETH;\n    }\n\n    function _tokenIsTapped(address _token) internal view returns (bool) {\n        return rates[_token] != uint256(0);\n    }\n\n    function _tapRateIsValid(uint256 _rate) internal pure returns (bool) {\n        return _rate != 0;\n    }\n\n    function _tapUpdateIsValid(address _token, uint256 _rate, uint256 _floor) internal view returns (bool) {\n        return _tapRateUpdateIsValid(_token, _rate) && _tapFloorUpdateIsValid(_token, _floor);\n    }\n\n    function _tapRateUpdateIsValid(address _token, uint256 _rate) internal view returns (bool) {\n        uint256 rate = rates[_token];\n\n        if (_rate <= rate) {\n            return true;\n        }\n\n        if (getTimestamp() < lastTapUpdates[_token] + 30 days) {\n            return false;\n        }\n\n        if (_rate.mul(PCT_BASE) <= rate.mul(PCT_BASE.add(maximumTapRateIncreasePct))) {\n            return true;\n        }\n\n        return false;\n    }\n\n    function _tapFloorUpdateIsValid(address _token, uint256 _floor) internal view returns (bool) {\n        uint256 floor = floors[_token];\n\n        if (_floor >= floor) {\n            return true;\n        }\n\n        if (getTimestamp() < lastTapUpdates[_token] + 30 days) {\n            return false;\n        }\n\n        if (maximumTapFloorDecreasePct >= PCT_BASE) {\n            return true;\n        }\n\n        if (_floor.mul(PCT_BASE) >= floor.mul(PCT_BASE.sub(maximumTapFloorDecreasePct))) {\n            return true;\n        }\n\n        return false;\n    }\n\n    /* state modifying functions */\n\n    function _updateTappedAmount(address _token) internal returns (uint256) {\n        uint256 tappedAmount = _tappedAmount(_token);\n        lastTappedAmountUpdates[_token] = _currentBatchId();\n        tappedAmounts[_token] = tappedAmount;\n\n        emit UpdateTappedAmount(_token, tappedAmount);\n\n        return tappedAmount;\n    }\n\n    function _updateBeneficiary(address _beneficiary) internal {\n        beneficiary = _beneficiary;\n\n        emit UpdateBeneficiary(_beneficiary);\n    }\n\n    function _updateMaximumTapRateIncreasePct(uint256 _maximumTapRateIncreasePct) internal {\n        maximumTapRateIncreasePct = _maximumTapRateIncreasePct;\n\n        emit UpdateMaximumTapRateIncreasePct(_maximumTapRateIncreasePct);\n    }\n\n    function _updateMaximumTapFloorDecreasePct(uint256 _maximumTapFloorDecreasePct) internal {\n        maximumTapFloorDecreasePct = _maximumTapFloorDecreasePct;\n\n        emit UpdateMaximumTapFloorDecreasePct(_maximumTapFloorDecreasePct);\n    }\n\n    function _addTappedToken(address _token, uint256 _rate, uint256 _floor) internal {\n        /**\n         * NOTE\n         * 1. if _token is tapped in the middle of a batch it will\n         * reach the next batch faster than what it normally takes\n         * to go through a batch [e.g. one block later]\n         * 2. this will allow for a higher withdrawal than expected\n         * a few blocks after _token is tapped\n         * 3. this is not a problem because this extra amount is\n         * static [at most rates[_token] * batchBlocks] and does\n         * not increase in time\n        */\n        rates[_token] = _rate;\n        floors[_token] = _floor;\n        lastTappedAmountUpdates[_token] = _currentBatchId();\n        lastTapUpdates[_token] = getTimestamp();\n\n        emit AddTappedToken(_token, _rate, _floor);\n    }\n\n    function _removeTappedToken(address _token) internal {\n        delete tappedAmounts[_token];\n        delete rates[_token];\n        delete floors[_token];\n        delete lastTappedAmountUpdates[_token];\n        delete lastTapUpdates[_token];\n\n        emit RemoveTappedToken(_token);\n    }\n\n    function _updateTappedToken(address _token, uint256 _rate, uint256 _floor) internal {\n        /**\n         * NOTE\n         * withdraw before updating to keep the reserve\n         * actual balance [balance - virtual withdrawal]\n         * continuous in time [though a floor update can\n         * still break this continuity]\n        */\n        uint256 amount = _updateTappedAmount(_token);\n        if (amount > 0) {\n            _withdraw(_token, amount);\n        }\n\n        rates[_token] = _rate;\n        floors[_token] = _floor;\n        lastTapUpdates[_token] = getTimestamp();\n\n        emit UpdateTappedToken(_token, _rate, _floor);\n    }\n\n    function _resetTappedToken(address _token) internal {\n        tappedAmounts[_token] = 0;\n        lastTappedAmountUpdates[_token] = _currentBatchId();\n        lastTapUpdates[_token] = getTimestamp();\n\n        emit ResetTappedToken(_token);\n    }\n\n    function _withdraw(address _token, uint256 _amount) internal {\n        tappedAmounts[_token] = tappedAmounts[_token].sub(_amount);\n        reserve.transfer(_token, beneficiary, _amount); // vault contract's transfer method already reverts on error\n\n        emit Withdraw(_token, _amount);\n    }\n}",
  "sourcePath": "@ablack/fundraising-tap/contracts/Tap.sol",
  "compiler": {
    "name": "solc",
    "version": "0.4.24+commit.e67f0147.Emscripten.clang"
  },
  "schemaVersion": "2.0.1",
  "updatedAt": "2020-03-21T01:36:19.273Z"
}