{
  "contractName": "TokenMock",
  "abi": [
    {
      "constant": true,
      "inputs": [],
      "name": "name",
      "outputs": [
        {
          "name": "",
          "type": "string"
        }
      ],
      "payable": false,
      "stateMutability": "view",
      "type": "function"
    },
    {
      "constant": true,
      "inputs": [],
      "name": "decimals",
      "outputs": [
        {
          "name": "",
          "type": "uint8"
        }
      ],
      "payable": false,
      "stateMutability": "view",
      "type": "function"
    },
    {
      "constant": true,
      "inputs": [],
      "name": "symbol",
      "outputs": [
        {
          "name": "",
          "type": "string"
        }
      ],
      "payable": false,
      "stateMutability": "view",
      "type": "function"
    },
    {
      "inputs": [
        {
          "name": "initialAccount",
          "type": "address"
        },
        {
          "name": "initialBalance",
          "type": "uint256"
        },
        {
          "name": "_name",
          "type": "string"
        },
        {
          "name": "_symbol",
          "type": "string"
        }
      ],
      "payable": false,
      "stateMutability": "nonpayable",
      "type": "constructor"
    },
    {
      "anonymous": false,
      "inputs": [
        {
          "indexed": true,
          "name": "owner",
          "type": "address"
        },
        {
          "indexed": true,
          "name": "spender",
          "type": "address"
        },
        {
          "indexed": false,
          "name": "value",
          "type": "uint256"
        }
      ],
      "name": "Approval",
      "type": "event"
    },
    {
      "anonymous": false,
      "inputs": [
        {
          "indexed": true,
          "name": "from",
          "type": "address"
        },
        {
          "indexed": true,
          "name": "to",
          "type": "address"
        },
        {
          "indexed": false,
          "name": "value",
          "type": "uint256"
        }
      ],
      "name": "Transfer",
      "type": "event"
    },
    {
      "constant": true,
      "inputs": [],
      "name": "totalSupply",
      "outputs": [
        {
          "name": "",
          "type": "uint256"
        }
      ],
      "payable": false,
      "stateMutability": "view",
      "type": "function"
    },
    {
      "constant": true,
      "inputs": [
        {
          "name": "_owner",
          "type": "address"
        }
      ],
      "name": "balanceOf",
      "outputs": [
        {
          "name": "",
          "type": "uint256"
        }
      ],
      "payable": false,
      "stateMutability": "view",
      "type": "function"
    },
    {
      "constant": true,
      "inputs": [
        {
          "name": "_owner",
          "type": "address"
        },
        {
          "name": "_spender",
          "type": "address"
        }
      ],
      "name": "allowance",
      "outputs": [
        {
          "name": "",
          "type": "uint256"
        }
      ],
      "payable": false,
      "stateMutability": "view",
      "type": "function"
    },
    {
      "constant": false,
      "inputs": [
        {
          "name": "_allowTransfer",
          "type": "bool"
        }
      ],
      "name": "setAllowTransfer",
      "outputs": [],
      "payable": false,
      "stateMutability": "nonpayable",
      "type": "function"
    },
    {
      "constant": false,
      "inputs": [
        {
          "name": "_to",
          "type": "address"
        },
        {
          "name": "_value",
          "type": "uint256"
        }
      ],
      "name": "transfer",
      "outputs": [
        {
          "name": "",
          "type": "bool"
        }
      ],
      "payable": false,
      "stateMutability": "nonpayable",
      "type": "function"
    },
    {
      "constant": false,
      "inputs": [
        {
          "name": "_spender",
          "type": "address"
        },
        {
          "name": "_value",
          "type": "uint256"
        }
      ],
      "name": "approve",
      "outputs": [
        {
          "name": "",
          "type": "bool"
        }
      ],
      "payable": false,
      "stateMutability": "nonpayable",
      "type": "function"
    },
    {
      "constant": false,
      "inputs": [
        {
          "name": "_from",
          "type": "address"
        },
        {
          "name": "_to",
          "type": "address"
        },
        {
          "name": "_value",
          "type": "uint256"
        }
      ],
      "name": "transferFrom",
      "outputs": [
        {
          "name": "",
          "type": "bool"
        }
      ],
      "payable": false,
      "stateMutability": "nonpayable",
      "type": "function"
    }
  ],
  "bytecode": "0x60806040526006805460ff1916601217905534801561001d57600080fd5b506040516109ca3803806109ca8339810160409081528151602080840151838501516060860151600160a060020a03851660009081528085529590952082905560028290556003805460ff191660011790558501805193959194909391019161008b916004918501906100a9565b50805161009f9060059060208401906100a9565b5050505050610144565b828054600181600116156101000203166002900490600052602060002090601f016020900481019282601f106100ea57805160ff1916838001178555610117565b82800160010185558215610117579182015b828111156101175782518255916020019190600101906100fc565b50610123929150610127565b5090565b61014191905b80821115610123576000815560010161012d565b90565b610877806101536000396000f3006080604052600436106100a35763ffffffff7c010000000000000000000000000000000000000000000000000000000060003504166306fdde0381146100a8578063095ea7b3146101325780630b81e2161461016a57806318160ddd1461018657806323b872dd146101ad578063313ce567146101d757806370a082311461020257806395d89b4114610223578063a9059cbb14610238578063dd62ed3e1461025c575b600080fd5b3480156100b457600080fd5b506100bd610283565b6040805160208082528351818301528351919283929083019185019080838360005b838110156100f75781810151838201526020016100df565b50505050905090810190601f1680156101245780820380516001836020036101000a031916815260200191505b509250505060405180910390f35b34801561013e57600080fd5b50610156600160a060020a0360043516602435610311565b604080519115158252519081900360200190f35b34801561017657600080fd5b5061018460043515156103a6565b005b34801561019257600080fd5b5061019b6103b9565b60408051918252519081900360200190f35b3480156101b957600080fd5b50610156600160a060020a03600435811690602435166044356103bf565b3480156101e357600080fd5b506101ec610548565b6040805160ff9092168252519081900360200190f35b34801561020e57600080fd5b5061019b600160a060020a0360043516610551565b34801561022f57600080fd5b506100bd61056c565b34801561024457600080fd5b50610156600160a060020a03600435166024356105c7565b34801561026857600080fd5b5061019b600160a060020a03600435811690602435166106ba565b6004805460408051602060026001851615610100026000190190941693909304601f810184900484028201840190925281815292918301828280156103095780601f106102de57610100808354040283529160200191610309565b820191906000526020600020905b8154815290600101906020018083116102ec57829003601f168201915b505050505081565b336000908152600160209081526040808320600160a060020a03861684529091528120541561033f57600080fd5b336000818152600160209081526040808320600160a060020a03881680855290835292819020869055805186815290519293927f8c5be1e5ebec7d5bd14f71427d1e84f3dd0314c0f7b2291e5b200ac8c7c3b925929181900390910190a350600192915050565b6003805460ff1916911515919091179055565b60025490565b60035460009060ff1615156103d357600080fd5b600160a060020a0384166000908152602081905260409020548211156103f857600080fd5b600160a060020a038416600090815260016020908152604080832033845290915290205482111561042857600080fd5b600160a060020a038316151561043d57600080fd5b600160a060020a038416600090815260208190526040902054610466908363ffffffff6106e516565b600160a060020a03808616600090815260208190526040808220939093559085168152205461049b908363ffffffff6107b516565b600160a060020a038085166000908152602081815260408083209490945591871681526001825282812033825290915220546104dd908363ffffffff6106e516565b600160a060020a03808616600081815260016020908152604080832033845282529182902094909455805186815290519287169391927fddf252ad1be2c89b69c2b068fc378daa952ba7f163c4a11628f55a4df523b3ef929181900390910190a35060019392505050565b60065460ff1681565b600160a060020a031660009081526020819052604090205490565b6005805460408051602060026001851615610100026000190190941693909304601f810184900484028201840190925281815292918301828280156103095780601f106102de57610100808354040283529160200191610309565b60035460009060ff1615156105db57600080fd5b336000908152602081905260409020548211156105f757600080fd5b600160a060020a038316151561060c57600080fd5b3360009081526020819052604090205461062c908363ffffffff6106e516565b3360009081526020819052604080822092909255600160a060020a0385168152205461065e908363ffffffff6107b516565b600160a060020a038416600081815260208181526040918290209390935580518581529051919233927fddf252ad1be2c89b69c2b068fc378daa952ba7f163c4a11628f55a4df523b3ef9281900390910190a350600192915050565b600160a060020a03918216600090815260016020908152604080832093909416825291909152205490565b60408051808201909152601281527f4d4154485f5355425f554e444552464c4f57000000000000000000000000000060208201526000908190848411156107ad5760405160e560020a62461bcd0281526004018080602001828103825283818151815260200191508051906020019080838360005b8381101561077257818101518382015260200161075a565b50505050905090810190601f16801561079f5780820380516001836020036101000a031916815260200191505b509250505060405180910390fd5b505050900390565b60408051808201909152601181527f4d4154485f4144445f4f564552464c4f57000000000000000000000000000000602082015260009083830190848210156108435760405160e560020a62461bcd0281526004018080602001828103825283818151815260200191508051906020019080838360008381101561077257818101518382015260200161075a565b5093925050505600a165627a7a723058204647711ac218b88f13a04a89f42ce61c7c6f34f51ff2610447c48a7b1cb862690029",
  "source": "// Modified from https://github.com/OpenZeppelin/openzeppelin-solidity/blob/a9f910d34f0ab33a1ae5e714f69f9596a02b4d91/contracts/token/ERC20/StandardToken.sol\n\npragma solidity 0.4.24;\n\nimport \"@aragon/os/contracts/lib/math/SafeMath.sol\";\n\n\ncontract TokenMock {\n    using SafeMath for uint256;\n    mapping (address => uint256) private balances;\n    mapping (address => mapping (address => uint256)) private allowed;\n    uint256 private totalSupply_;\n    bool private allowTransfer_;\n\n    event Approval(address indexed owner, address indexed spender, uint256 value);\n    event Transfer(address indexed from, address indexed to, uint256 value);\n\n    string public name;\n    string public symbol;\n    uint8 public decimals = 18;\n\n    // Allow us to set the inital balance for an account on construction\n    constructor(address initialAccount, uint256 initialBalance, string _name, string _symbol) public {\n        balances[initialAccount] = initialBalance;\n        totalSupply_ = initialBalance;\n        allowTransfer_ = true;\n        name = _name;\n        symbol = _symbol;\n    }\n\n    function totalSupply() public view returns (uint256) { return totalSupply_; }\n\n    /**\n    * @dev Gets the balance of the specified address.\n    * @param _owner The address to query the the balance of.\n    * @return An uint256 representing the amount owned by the passed address.\n    */\n    function balanceOf(address _owner) public view returns (uint256) {\n        return balances[_owner];\n    }\n\n    /**\n    * @dev Function to check the amount of tokens that an owner allowed to a spender.\n    * @param _owner address The address which owns the funds.\n    * @param _spender address The address which will spend the funds.\n    * @return A uint256 specifying the amount of tokens still available for the spender.\n    */\n    function allowance(address _owner, address _spender) public view returns (uint256) {\n        return allowed[_owner][_spender];\n    }\n\n    /**\n    * @dev Set whether the token is transferable or not\n    * @param _allowTransfer Should token be transferable\n    */\n    function setAllowTransfer(bool _allowTransfer) public {\n        allowTransfer_ = _allowTransfer;\n    }\n\n    /**\n    * @dev Transfer token for a specified address\n    * @param _to The address to transfer to.\n    * @param _value The amount to be transferred.\n    */\n    function transfer(address _to, uint256 _value) public returns (bool) {\n        require(allowTransfer_);\n        require(_value <= balances[msg.sender]);\n        require(_to != address(0));\n\n        balances[msg.sender] = balances[msg.sender].sub(_value);\n        balances[_to] = balances[_to].add(_value);\n        emit Transfer(msg.sender, _to, _value);\n        return true;\n    }\n\n    /**\n    * @dev Approve the passed address to spend the specified amount of tokens on behalf of msg.sender.\n    * Beware that changing an allowance with this method brings the risk that someone may use both the old\n    * and the new allowance by unfortunate transaction ordering. One possible solution to mitigate this\n    * race condition is to first reduce the spender's allowance to 0 and set the desired value afterwards:\n    * https://github.com/ethereum/EIPs/issues/20#issuecomment-263524729\n    * @param _spender The address which will spend the funds.\n    * @param _value The amount of tokens to be spent.\n    */\n    function approve(address _spender, uint256 _value) public returns (bool) {\n        // Assume we want to protect for the race condition\n        require(allowed[msg.sender][_spender] == 0);\n\n        allowed[msg.sender][_spender] = _value;\n        emit Approval(msg.sender, _spender, _value);\n        return true;\n    }\n\n    /**\n    * @dev Transfer tokens from one address to another\n    * @param _from address The address which you want to send tokens from\n    * @param _to address The address which you want to transfer to\n    * @param _value uint256 the amount of tokens to be transferred\n    */\n    function transferFrom(address _from, address _to, uint256 _value) public returns (bool) {\n        require(allowTransfer_);\n        require(_value <= balances[_from]);\n        require(_value <= allowed[_from][msg.sender]);\n        require(_to != address(0));\n\n        balances[_from] = balances[_from].sub(_value);\n        balances[_to] = balances[_to].add(_value);\n        allowed[_from][msg.sender] = allowed[_from][msg.sender].sub(_value);\n        emit Transfer(_from, _to, _value);\n        return true;\n    }\n}",
  "sourcePath": "/Users/jonybang/workspace/fundraising/templates/multisig/contracts/test/mocks/TokenMock.sol",
  "compiler": {
    "name": "solc",
    "version": "0.4.24+commit.e67f0147.Emscripten.clang"
  },
  "schemaVersion": "2.0.1",
  "updatedAt": "2020-03-21T01:36:19.020Z"
}