{
  "contractName": "Agent",
  "abi": [
    {
      "constant": true,
      "inputs": [],
      "name": "ADD_PROTECTED_TOKEN_ROLE",
      "outputs": [
        {
          "name": "",
          "type": "bytes32"
        }
      ],
      "payable": false,
      "stateMutability": "view",
      "type": "function"
    },
    {
      "constant": true,
      "inputs": [],
      "name": "hasInitialized",
      "outputs": [
        {
          "name": "",
          "type": "bool"
        }
      ],
      "payable": false,
      "stateMutability": "view",
      "type": "function"
    },
    {
      "constant": true,
      "inputs": [],
      "name": "ERC1271_INTERFACE_ID",
      "outputs": [
        {
          "name": "",
          "type": "bytes4"
        }
      ],
      "payable": false,
      "stateMutability": "view",
      "type": "function"
    },
    {
      "constant": true,
      "inputs": [],
      "name": "ERC1271_RETURN_INVALID_SIGNATURE",
      "outputs": [
        {
          "name": "",
          "type": "bytes4"
        }
      ],
      "payable": false,
      "stateMutability": "view",
      "type": "function"
    },
    {
      "constant": true,
      "inputs": [],
      "name": "TRANSFER_ROLE",
      "outputs": [
        {
          "name": "",
          "type": "bytes32"
        }
      ],
      "payable": false,
      "stateMutability": "view",
      "type": "function"
    },
    {
      "constant": true,
      "inputs": [
        {
          "name": "_script",
          "type": "bytes"
        }
      ],
      "name": "getEVMScriptExecutor",
      "outputs": [
        {
          "name": "",
          "type": "address"
        }
      ],
      "payable": false,
      "stateMutability": "view",
      "type": "function"
    },
    {
      "constant": true,
      "inputs": [],
      "name": "getRecoveryVault",
      "outputs": [
        {
          "name": "",
          "type": "address"
        }
      ],
      "payable": false,
      "stateMutability": "view",
      "type": "function"
    },
    {
      "constant": true,
      "inputs": [],
      "name": "RUN_SCRIPT_ROLE",
      "outputs": [
        {
          "name": "",
          "type": "bytes32"
        }
      ],
      "payable": false,
      "stateMutability": "view",
      "type": "function"
    },
    {
      "constant": true,
      "inputs": [],
      "name": "SAFE_EXECUTE_ROLE",
      "outputs": [
        {
          "name": "",
          "type": "bytes32"
        }
      ],
      "payable": false,
      "stateMutability": "view",
      "type": "function"
    },
    {
      "constant": true,
      "inputs": [],
      "name": "REMOVE_PROTECTED_TOKEN_ROLE",
      "outputs": [
        {
          "name": "",
          "type": "bytes32"
        }
      ],
      "payable": false,
      "stateMutability": "view",
      "type": "function"
    },
    {
      "constant": false,
      "inputs": [
        {
          "name": "_token",
          "type": "address"
        },
        {
          "name": "_value",
          "type": "uint256"
        }
      ],
      "name": "deposit",
      "outputs": [],
      "payable": true,
      "stateMutability": "payable",
      "type": "function"
    },
    {
      "constant": true,
      "inputs": [],
      "name": "isDepositable",
      "outputs": [
        {
          "name": "",
          "type": "bool"
        }
      ],
      "payable": false,
      "stateMutability": "view",
      "type": "function"
    },
    {
      "constant": true,
      "inputs": [],
      "name": "DESIGNATE_SIGNER_ROLE",
      "outputs": [
        {
          "name": "",
          "type": "bytes32"
        }
      ],
      "payable": false,
      "stateMutability": "view",
      "type": "function"
    },
    {
      "constant": true,
      "inputs": [],
      "name": "EXECUTE_ROLE",
      "outputs": [
        {
          "name": "",
          "type": "bytes32"
        }
      ],
      "payable": false,
      "stateMutability": "view",
      "type": "function"
    },
    {
      "constant": true,
      "inputs": [
        {
          "name": "",
          "type": "address"
        }
      ],
      "name": "allowRecoverability",
      "outputs": [
        {
          "name": "",
          "type": "bool"
        }
      ],
      "payable": false,
      "stateMutability": "view",
      "type": "function"
    },
    {
      "constant": true,
      "inputs": [],
      "name": "appId",
      "outputs": [
        {
          "name": "",
          "type": "bytes32"
        }
      ],
      "payable": false,
      "stateMutability": "view",
      "type": "function"
    },
    {
      "constant": false,
      "inputs": [],
      "name": "initialize",
      "outputs": [],
      "payable": false,
      "stateMutability": "nonpayable",
      "type": "function"
    },
    {
      "constant": true,
      "inputs": [
        {
          "name": "",
          "type": "uint256"
        }
      ],
      "name": "protectedTokens",
      "outputs": [
        {
          "name": "",
          "type": "address"
        }
      ],
      "payable": false,
      "stateMutability": "view",
      "type": "function"
    },
    {
      "constant": true,
      "inputs": [],
      "name": "getInitializationBlock",
      "outputs": [
        {
          "name": "",
          "type": "uint256"
        }
      ],
      "payable": false,
      "stateMutability": "view",
      "type": "function"
    },
    {
      "constant": true,
      "inputs": [],
      "name": "ERC1271_RETURN_VALID_SIGNATURE",
      "outputs": [
        {
          "name": "",
          "type": "bytes4"
        }
      ],
      "payable": false,
      "stateMutability": "view",
      "type": "function"
    },
    {
      "constant": false,
      "inputs": [
        {
          "name": "_token",
          "type": "address"
        }
      ],
      "name": "transferToVault",
      "outputs": [],
      "payable": false,
      "stateMutability": "nonpayable",
      "type": "function"
    },
    {
      "constant": true,
      "inputs": [
        {
          "name": "_sender",
          "type": "address"
        },
        {
          "name": "_role",
          "type": "bytes32"
        },
        {
          "name": "_params",
          "type": "uint256[]"
        }
      ],
      "name": "canPerform",
      "outputs": [
        {
          "name": "",
          "type": "bool"
        }
      ],
      "payable": false,
      "stateMutability": "view",
      "type": "function"
    },
    {
      "constant": true,
      "inputs": [],
      "name": "getEVMScriptRegistry",
      "outputs": [
        {
          "name": "",
          "type": "address"
        }
      ],
      "payable": false,
      "stateMutability": "view",
      "type": "function"
    },
    {
      "constant": true,
      "inputs": [],
      "name": "designatedSigner",
      "outputs": [
        {
          "name": "",
          "type": "address"
        }
      ],
      "payable": false,
      "stateMutability": "view",
      "type": "function"
    },
    {
      "constant": true,
      "inputs": [],
      "name": "PROTECTED_TOKENS_CAP",
      "outputs": [
        {
          "name": "",
          "type": "uint256"
        }
      ],
      "payable": false,
      "stateMutability": "view",
      "type": "function"
    },
    {
      "constant": true,
      "inputs": [],
      "name": "ADD_PRESIGNED_HASH_ROLE",
      "outputs": [
        {
          "name": "",
          "type": "bytes32"
        }
      ],
      "payable": false,
      "stateMutability": "view",
      "type": "function"
    },
    {
      "constant": true,
      "inputs": [
        {
          "name": "",
          "type": "bytes32"
        }
      ],
      "name": "isPresigned",
      "outputs": [
        {
          "name": "",
          "type": "bool"
        }
      ],
      "payable": false,
      "stateMutability": "view",
      "type": "function"
    },
    {
      "constant": false,
      "inputs": [
        {
          "name": "_token",
          "type": "address"
        },
        {
          "name": "_to",
          "type": "address"
        },
        {
          "name": "_value",
          "type": "uint256"
        }
      ],
      "name": "transfer",
      "outputs": [],
      "payable": false,
      "stateMutability": "nonpayable",
      "type": "function"
    },
    {
      "constant": true,
      "inputs": [],
      "name": "kernel",
      "outputs": [
        {
          "name": "",
          "type": "address"
        }
      ],
      "payable": false,
      "stateMutability": "view",
      "type": "function"
    },
    {
      "constant": true,
      "inputs": [],
      "name": "isPetrified",
      "outputs": [
        {
          "name": "",
          "type": "bool"
        }
      ],
      "payable": false,
      "stateMutability": "view",
      "type": "function"
    },
    {
      "constant": true,
      "inputs": [
        {
          "name": "_token",
          "type": "address"
        }
      ],
      "name": "balance",
      "outputs": [
        {
          "name": "",
          "type": "uint256"
        }
      ],
      "payable": false,
      "stateMutability": "view",
      "type": "function"
    },
    {
      "payable": true,
      "stateMutability": "payable",
      "type": "fallback"
    },
    {
      "anonymous": false,
      "inputs": [
        {
          "indexed": true,
          "name": "sender",
          "type": "address"
        },
        {
          "indexed": true,
          "name": "target",
          "type": "address"
        },
        {
          "indexed": false,
          "name": "data",
          "type": "bytes"
        }
      ],
      "name": "SafeExecute",
      "type": "event"
    },
    {
      "anonymous": false,
      "inputs": [
        {
          "indexed": true,
          "name": "sender",
          "type": "address"
        },
        {
          "indexed": true,
          "name": "target",
          "type": "address"
        },
        {
          "indexed": false,
          "name": "ethValue",
          "type": "uint256"
        },
        {
          "indexed": false,
          "name": "data",
          "type": "bytes"
        }
      ],
      "name": "Execute",
      "type": "event"
    },
    {
      "anonymous": false,
      "inputs": [
        {
          "indexed": true,
          "name": "token",
          "type": "address"
        }
      ],
      "name": "AddProtectedToken",
      "type": "event"
    },
    {
      "anonymous": false,
      "inputs": [
        {
          "indexed": true,
          "name": "token",
          "type": "address"
        }
      ],
      "name": "RemoveProtectedToken",
      "type": "event"
    },
    {
      "anonymous": false,
      "inputs": [
        {
          "indexed": true,
          "name": "sender",
          "type": "address"
        },
        {
          "indexed": true,
          "name": "hash",
          "type": "bytes32"
        }
      ],
      "name": "PresignHash",
      "type": "event"
    },
    {
      "anonymous": false,
      "inputs": [
        {
          "indexed": true,
          "name": "sender",
          "type": "address"
        },
        {
          "indexed": true,
          "name": "oldSigner",
          "type": "address"
        },
        {
          "indexed": true,
          "name": "newSigner",
          "type": "address"
        }
      ],
      "name": "SetDesignatedSigner",
      "type": "event"
    },
    {
      "anonymous": false,
      "inputs": [
        {
          "indexed": true,
          "name": "token",
          "type": "address"
        },
        {
          "indexed": true,
          "name": "to",
          "type": "address"
        },
        {
          "indexed": false,
          "name": "amount",
          "type": "uint256"
        }
      ],
      "name": "VaultTransfer",
      "type": "event"
    },
    {
      "anonymous": false,
      "inputs": [
        {
          "indexed": true,
          "name": "token",
          "type": "address"
        },
        {
          "indexed": true,
          "name": "sender",
          "type": "address"
        },
        {
          "indexed": false,
          "name": "amount",
          "type": "uint256"
        }
      ],
      "name": "VaultDeposit",
      "type": "event"
    },
    {
      "anonymous": false,
      "inputs": [
        {
          "indexed": true,
          "name": "executor",
          "type": "address"
        },
        {
          "indexed": false,
          "name": "script",
          "type": "bytes"
        },
        {
          "indexed": false,
          "name": "input",
          "type": "bytes"
        },
        {
          "indexed": false,
          "name": "returnData",
          "type": "bytes"
        }
      ],
      "name": "ScriptResult",
      "type": "event"
    },
    {
      "anonymous": false,
      "inputs": [
        {
          "indexed": true,
          "name": "vault",
          "type": "address"
        },
        {
          "indexed": true,
          "name": "token",
          "type": "address"
        },
        {
          "indexed": false,
          "name": "amount",
          "type": "uint256"
        }
      ],
      "name": "RecoverToVault",
      "type": "event"
    },
    {
      "constant": false,
      "inputs": [
        {
          "name": "_target",
          "type": "address"
        },
        {
          "name": "_ethValue",
          "type": "uint256"
        },
        {
          "name": "_data",
          "type": "bytes"
        }
      ],
      "name": "execute",
      "outputs": [],
      "payable": false,
      "stateMutability": "nonpayable",
      "type": "function"
    },
    {
      "constant": false,
      "inputs": [
        {
          "name": "_target",
          "type": "address"
        },
        {
          "name": "_data",
          "type": "bytes"
        }
      ],
      "name": "safeExecute",
      "outputs": [],
      "payable": false,
      "stateMutability": "nonpayable",
      "type": "function"
    },
    {
      "constant": false,
      "inputs": [
        {
          "name": "_token",
          "type": "address"
        }
      ],
      "name": "addProtectedToken",
      "outputs": [],
      "payable": false,
      "stateMutability": "nonpayable",
      "type": "function"
    },
    {
      "constant": false,
      "inputs": [
        {
          "name": "_token",
          "type": "address"
        }
      ],
      "name": "removeProtectedToken",
      "outputs": [],
      "payable": false,
      "stateMutability": "nonpayable",
      "type": "function"
    },
    {
      "constant": false,
      "inputs": [
        {
          "name": "_hash",
          "type": "bytes32"
        }
      ],
      "name": "presignHash",
      "outputs": [],
      "payable": false,
      "stateMutability": "nonpayable",
      "type": "function"
    },
    {
      "constant": false,
      "inputs": [
        {
          "name": "_designatedSigner",
          "type": "address"
        }
      ],
      "name": "setDesignatedSigner",
      "outputs": [],
      "payable": false,
      "stateMutability": "nonpayable",
      "type": "function"
    },
    {
      "constant": true,
      "inputs": [],
      "name": "isForwarder",
      "outputs": [
        {
          "name": "",
          "type": "bool"
        }
      ],
      "payable": false,
      "stateMutability": "pure",
      "type": "function"
    },
    {
      "constant": false,
      "inputs": [
        {
          "name": "_evmScript",
          "type": "bytes"
        }
      ],
      "name": "forward",
      "outputs": [],
      "payable": false,
      "stateMutability": "nonpayable",
      "type": "function"
    },
    {
      "constant": true,
      "inputs": [
        {
          "name": "_sender",
          "type": "address"
        },
        {
          "name": "_evmScript",
          "type": "bytes"
        }
      ],
      "name": "canForward",
      "outputs": [
        {
          "name": "",
          "type": "bool"
        }
      ],
      "payable": false,
      "stateMutability": "view",
      "type": "function"
    },
    {
      "constant": true,
      "inputs": [
        {
          "name": "_interfaceId",
          "type": "bytes4"
        }
      ],
      "name": "supportsInterface",
      "outputs": [
        {
          "name": "",
          "type": "bool"
        }
      ],
      "payable": false,
      "stateMutability": "pure",
      "type": "function"
    },
    {
      "constant": true,
      "inputs": [
        {
          "name": "_hash",
          "type": "bytes32"
        },
        {
          "name": "_signature",
          "type": "bytes"
        }
      ],
      "name": "isValidSignature",
      "outputs": [
        {
          "name": "",
          "type": "bytes4"
        }
      ],
      "payable": false,
      "stateMutability": "view",
      "type": "function"
    },
    {
      "constant": true,
      "inputs": [
        {
          "name": "_data",
          "type": "bytes"
        },
        {
          "name": "_signature",
          "type": "bytes"
        }
      ],
      "name": "isValidSignature",
      "outputs": [
        {
          "name": "",
          "type": "bytes4"
        }
      ],
      "payable": false,
      "stateMutability": "view",
      "type": "function"
    },
    {
      "constant": true,
      "inputs": [],
      "name": "getProtectedTokensLength",
      "outputs": [
        {
          "name": "",
          "type": "uint256"
        }
      ],
      "payable": false,
      "stateMutability": "view",
      "type": "function"
    }
  ],
  "bytecode": "0x6080604052620000176401000000006200001d810204565b6200023b565b6200003064010000000062000125810204565b60408051808201909152601881527f494e49545f414c52454144595f494e495449414c495a45440000000000000000602082015290156200010c576040517f08c379a00000000000000000000000000000000000000000000000000000000081526004018080602001828103825283818151815260200191508051906020019080838360005b83811015620000d0578181015183820152602001620000b6565b50505050905090810190601f168015620000fe5780820380516001836020036101000a031916815260200191505b509250505060405180910390fd5b506200012360001964010000000062000154810204565b565b60006200014f6000805160206200436e83398151915264010000000062002db96200023382021704565b905090565b6200016764010000000062000125810204565b60408051808201909152601881527f494e49545f414c52454144595f494e495449414c495a454400000000000000006020820152901562000206576040517f08c379a000000000000000000000000000000000000000000000000000000000815260040180806020018281038252838181518152602001915080519060200190808383600083811015620000d0578181015183820152602001620000b6565b50620002306000805160206200436e8339815191528264010000000062003e376200023782021704565b50565b5490565b9055565b614123806200024b6000396000f3006080604052600436106102185763ffffffff7c01000000000000000000000000000000000000000000000000000000006000350416627bb003811461037657806301ffc9a71461039d5780630803fac0146103e857806311a5e409146103fd5780631626ba7e146104445780631ce30181146104a2578063206b60f9146104b757806320c13b0b146104cc57806326f06d24146105635780632914b9bd1461057857806332f0a3b5146105ed578063368c3c34146106025780633e4eb7561461061757806342b2d0661461062c57806347e7ef241461064157806348a0c8dd146106585780634c7ec0b01461066d57806354842f1414610685578063578eb50b1461069a5780635fa5e4e6146106bb5780636298e902146106d05780637e7db6e1146106f157806380afdea8146107125780638129fc1c14610727578063851a37901461073c5780638b3dd749146107545780639890cdca146107695780639d4941d81461077e578063a1658fad1461079f578063a479e50814610806578063a83e52b41461081b578063aae250511461083c578063ab23c34514610851578063b03bdb041461087e578063b06c424414610893578063b4fa653c146108a8578063b61d27f6146108c0578063beabacc8146108f1578063c0774df31461091b578063d4aae0c414610982578063d948d46814610997578063de4796ed146109f0578063e3d670d714610a05578063fd64eccb14610a26575b610220610a3b565b60408051808201909152601481527f494e49545f4e4f545f494e495449414c495a454400000000000000000000000060208201529015156102e25760405160e560020a62461bcd0281526004018080602001828103825283818151815260200191508051906020019080838360005b838110156102a757818101518382015260200161028f565b50505050905090810190601f1680156102d45780820380516001836020036101000a031916815260200191505b509250505060405180910390fd5b5060408051808201909152601381527f5641554c545f444154415f4e4f4e5f5a45524f00000000000000000000000000602082015236156103685760405160e560020a62461bcd028152600401808060200182810382528381815181526020019150805190602001908083836000838110156102a757818101518382015260200161028f565b50610374600034610a65565b005b34801561038257600080fd5b5061038b610d01565b60408051918252519081900360200190f35b3480156103a957600080fd5b506103d47bffffffffffffffffffffffffffffffffffffffffffffffffffffffff1960043516610d25565b604080519115158252519081900360200190f35b3480156103f457600080fd5b506103d4610a3b565b34801561040957600080fd5b50610412610dba565b604080517bffffffffffffffffffffffffffffffffffffffffffffffffffffffff199092168252519081900360200190f35b34801561045057600080fd5b5060408051602060046024803582810135601f8101859004850286018501909652858552610412958335953695604494919390910191908190840183828082843750949750610dde9650505050505050565b3480156104ae57600080fd5b50610412610e50565b3480156104c357600080fd5b5061038b610e55565b3480156104d857600080fd5b506040805160206004803580820135601f810184900484028501840190955284845261041294369492936024939284019190819084018382808284375050604080516020601f89358b018035918201839004830284018301909452808352979a999881019791965091820194509250829150840183828082843750949750610e8a9650505050505050565b34801561056f57600080fd5b5061038b610ef9565b34801561058457600080fd5b506040805160206004803580820135601f81018490048402850184019095528484526105d1943694929360249392840191908190840183828082843750949750610f929650505050505050565b60408051600160a060020a039092168252519081900360200190f35b3480156105f957600080fd5b506105d1611091565b34801561060e57600080fd5b5061038b611122565b34801561062357600080fd5b5061038b611146565b34801561063857600080fd5b5061038b61116a565b610374600160a060020a036004351660243561118e565b34801561066457600080fd5b506103d461122b565b34801561067957600080fd5b5061037460043561125b565b34801561069157600080fd5b5061038b61135f565b3480156106a657600080fd5b50610374600160a060020a0360043516611383565b3480156106c757600080fd5b5061038b6114dd565b3480156106dc57600080fd5b50610374600160a060020a0360043516611501565b3480156106fd57600080fd5b506103d4600160a060020a0360043516611770565b34801561071e57600080fd5b5061038b611776565b34801561073357600080fd5b506103746117a1565b34801561074857600080fd5b506105d1600435611843565b34801561076057600080fd5b5061038b61186b565b34801561077557600080fd5b50610412611896565b34801561078a57600080fd5b50610374600160a060020a03600435166118ba565b3480156107ab57600080fd5b5060408051602060046044358181013583810280860185019096528085526103d4958335600160a060020a0316956024803596369695606495939492019291829185019084908082843750949750611b499650505050505050565b34801561081257600080fd5b506105d1611cb2565b34801561082757600080fd5b50610374600160a060020a0360043516611d67565b34801561084857600080fd5b506105d1611f19565b34801561085d57600080fd5b5061037460048035600160a060020a03169060248035908101910135611f28565b34801561088a57600080fd5b5061038b6124b4565b34801561089f57600080fd5b5061038b6124b9565b3480156108b457600080fd5b506103d46004356124dd565b3480156108cc57600080fd5b5061037460048035600160a060020a03169060248035916044359182019101356124f2565b3480156108fd57600080fd5b50610374600160a060020a03600435811690602435166044356126ca565b34801561092757600080fd5b5060408051602060046024803582810135601f81018590048502860185019096528585526103d4958335600160a060020a03169536956044949193909101919081908401838280828437509497506129d89650505050505050565b34801561098e57600080fd5b506105d1612a15565b3480156109a357600080fd5b506040805160206004803580820135601f8101849004840285018401909552848452610374943694929360249392840191908190840183828082843750949750612a409650505050505050565b3480156109fc57600080fd5b506103d4612b03565b348015610a1157600080fd5b5061038b600160a060020a0360043516612b16565b348015610a3257600080fd5b506103d4612b50565b600080610a4661186b565b90508015801590610a5e575080610a5b612b55565b10155b91505b5090565b610a6d61122b565b60408051808201909152601581527f5641554c545f4e4f545f4445504f53495441424c4500000000000000000000006020820152901515610af35760405160e560020a62461bcd028152600401808060200182810382528381815181526020019150805190602001908083836000838110156102a757818101518382015260200161028f565b5060408051808201909152601881527f5641554c545f4445504f5349545f56414c55455f5a45524f0000000000000000602082015260008211610b7b5760405160e560020a62461bcd028152600401808060200182810382528381815181526020019150805190602001908083836000838110156102a757818101518382015260200161028f565b50600160a060020a0382161515610c185760408051808201909152601481527f5641554c545f56414c55455f4d49534d415443480000000000000000000000006020820152348214610c125760405160e560020a62461bcd028152600401808060200182810382528381815181526020019150805190602001908083836000838110156102a757818101518382015260200161028f565b50610cbd565b610c33600160a060020a03831633308463ffffffff612b5916565b6040805190810160405280602081526020017f5641554c545f544f4b454e5f5452414e534645525f46524f4d5f524556455254815250901515610cbb5760405160e560020a62461bcd028152600401808060200182810382528381815181526020019150805190602001908083836000838110156102a757818101518382015260200161028f565b505b6040805182815290513391600160a060020a038516917f2790b90165fd3973ad7edde4eca71b4f8808dd4857a2a3a3e8ae5642a5cb196e9181900360200190a35050565b7f6eb2a499556bfa2872f5aa15812b956cc4a71b4d64eb3553f7073c7e41415aaa81565b60007bffffffffffffffffffffffffffffffffffffffffffffffffffffffff1982167ffb855dc9000000000000000000000000000000000000000000000000000000001480610db257507bffffffffffffffffffffffffffffffffffffffffffffffffffffffff1982167f01ffc9a700000000000000000000000000000000000000000000000000000000145b90505b919050565b7ffb855dc90000000000000000000000000000000000000000000000000000000081565b600082815260208190526040812054819060ff1615610e0857610e016001612bed565b9150610e49565b600154600160a060020a03161515610e2257506000610e3d565b600154610e3a908590600160a060020a031685612c22565b90505b610e4681612bed565b91505b5092915050565b600081565b604080517f5452414e534645525f524f4c45000000000000000000000000000000000000008152905190819003600d01902081565b6000610ef2836040518082805190602001908083835b60208310610ebf5780518252601f199092019160209182019101610ea0565b6001836020036101000a038019825116818451168082178552505050505050905001915050604051809103902083610dde565b9392505050565b6000610f03610a3b565b60408051808201909152601481527f494e49545f4e4f545f494e495449414c495a45440000000000000000000000006020820152901515610f895760405160e560020a62461bcd028152600401808060200182810382528381815181526020019150805190602001908083836000838110156102a757818101518382015260200161028f565b50506002545b90565b6000610f9c611cb2565b600160a060020a03166304bf2a7f836040518263ffffffff167c01000000000000000000000000000000000000000000000000000000000281526004018080602001828103825283818151815260200191508051906020019080838360005b83811015611013578181015183820152602001610ffb565b50505050905090810190601f1680156110405780820380516001836020036101000a031916815260200191505b5092505050602060405180830381600087803b15801561105f57600080fd5b505af1158015611073573d6000803e3d6000fd5b505050506040513d602081101561108957600080fd5b505192915050565b600061109b612a15565b600160a060020a03166332f0a3b56040518163ffffffff167c0100000000000000000000000000000000000000000000000000000000028152600401602060405180830381600087803b1580156110f157600080fd5b505af1158015611105573d6000803e3d6000fd5b505050506040513d602081101561111b57600080fd5b5051905090565b7fb421f7ad7646747f3051c50c0b8e2377839296cd4973e27f63821d73e390338f81565b7f0a1ad7b87f5846153c6d5a1f761d71c7d0cfd122384f56066cd33239b793369481565b7f71eee93d500f6f065e38b27d242a756466a00a52a1dbcd6b4260f01a8640402a81565b611196610a3b565b60408051808201909152601481527f494e49545f4e4f545f494e495449414c495a4544000000000000000000000000602082015290151561121c5760405160e560020a62461bcd028152600401808060200182810382528381815181526020019150805190602001908083836000838110156102a757818101518382015260200161028f565b506112278282610a65565b5050565b60006112567f665fd576fbbe6f247aff98f5c94a561e3f71ec2d3c988d56f12d342396c50cea612db9565b905090565b7f0b29780bb523a130b3b01f231ef49ed2fa2781645591a0b0a44ca98f15a5994c61128582612dbd565b611290338383611b49565b60408051808201909152600f81527f4150505f415554485f4641494c4544000000000000000000000000000000000060208201529015156113165760405160e560020a62461bcd028152600401808060200182810382528381815181526020019150805190602001908083836000838110156102a757818101518382015260200161028f565b50600083815260208190526040808220805460ff1916600117905551849133917fb150212e573caa2a0216cf8f273ef996af143fd7b2d35abd92c8105536cac1609190a3505050565b7f23ce341656c3f14df6692eebd4757791e33662b7dcf9970c8308303da5472b7c81565b7f71eee93d500f6f065e38b27d242a756466a00a52a1dbcd6b4260f01a8640402a6113ad82612dc8565b6113b8338383611b49565b60408051808201909152600f81527f4150505f415554485f4641494c45440000000000000000000000000000000000602082015290151561143e5760405160e560020a62461bcd028152600401808060200182810382528381815181526020019150805190602001908083836000838110156102a757818101518382015260200161028f565b5061144883612ddc565b60408051808201909152601981527f4147454e545f544f4b454e5f4e4f545f50524f5445435445440000000000000060208201529015156114ce5760405160e560020a62461bcd028152600401808060200182810382528381815181526020019150805190602001908083836000838110156102a757818101518382015260200161028f565b506114d883612e3a565b505050565b7fcebf517aa4440d1d125e0355aae64401211d0848a23c02cc5d29a14822580ba481565b7f6eb2a499556bfa2872f5aa15812b956cc4a71b4d64eb3553f7073c7e41415aaa61152b82612dc8565b611536338383611b49565b60408051808201909152600f81527f4150505f415554485f4641494c4544000000000000000000000000000000000060208201529015156115bc5760405160e560020a62461bcd028152600401808060200182810382528381815181526020019150805190602001908083836000838110156102a757818101518382015260200161028f565b5060025460408051808201909152601881527f4147454e545f544f4b454e535f4341505f524541434845440000000000000000602082015290600a116116475760405160e560020a62461bcd028152600401808060200182810382528381815181526020019150805190602001908083836000838110156102a757818101518382015260200161028f565b5061165183612ef7565b60408051808201909152601581527f4147454e545f544f4b454e5f4e4f545f4552433230000000000000000000000060208201529015156116d75760405160e560020a62461bcd028152600401808060200182810382528381815181526020019150805190602001908083836000838110156102a757818101518382015260200161028f565b506116e183612ddc565b60408051808201909152601d81527f4147454e545f544f4b454e5f414c52454144595f50524f544543544544000000602082015290156117665760405160e560020a62461bcd028152600401808060200182810382528381815181526020019150805190602001908083836000838110156102a757818101518382015260200161028f565b506114d883612f22565b50600090565b60006112567fd625496217aa6a3453eecb9c3489dc5a53e6c67b444329ea2b2cbc9ff547639b612db9565b6117a961186b565b60408051808201909152601881527f494e49545f414c52454144595f494e495449414c495a454400000000000000006020820152901561182e5760405160e560020a62461bcd028152600401808060200182810382528381815181526020019150805190602001908083836000838110156102a757818101518382015260200161028f565b50611837612fa7565b611841600161306d565b565b600280548290811061185157fe5b600091825260209091200154600160a060020a0316905081565b60006112567febb05b386a8d34882b8711d156f463690983dc47815980fb82aeeff1aa43579e612db9565b7f20c13b0b0000000000000000000000000000000000000000000000000000000081565b60008060006118c884611770565b60408051808201909152601281527f5245434f5645525f444953414c4c4f5745440000000000000000000000000000602082015290151561194e5760405160e560020a62461bcd028152600401808060200182810382528381815181526020019150805190602001908083836000838110156102a757818101518382015260200161028f565b50611957611091565b9250611962836130a4565b60408051808201909152601a81527f5245434f5645525f5641554c545f4e4f545f434f4e545241435400000000000060208201529015156119e85760405160e560020a62461bcd028152600401808060200182810382528381815181526020019150805190602001908083836000838110156102a757818101518382015260200161028f565b50600160a060020a0384161515611a395760405130319250600160a060020a0384169083156108fc029084906000818181858888f19350505050158015611a33573d6000803e3d6000fd5b50611af8565b5082611a54600160a060020a0382163063ffffffff6130ca16565b9150611a70600160a060020a038216848463ffffffff6131df16565b60408051808201909152601d81527f5245434f5645525f544f4b454e5f5452414e534645525f4641494c45440000006020820152901515611af65760405160e560020a62461bcd028152600401808060200182810382528381815181526020019150805190602001908083836000838110156102a757818101518382015260200161028f565b505b83600160a060020a031683600160a060020a03167f596caf56044b55fb8c4ca640089bbc2b63cae3e978b851f5745cbb7c5b288e02846040518082815260200191505060405180910390a350505050565b600080611b54610a3b565b1515611b635760009150611caa565b611b6b612a15565b9050600160a060020a0381161515611b865760009150611caa565b80600160a060020a031663fdef9106863087611ba18861326a565b6040517c010000000000000000000000000000000000000000000000000000000063ffffffff8716028152600160a060020a03808616600483019081529085166024830152604482018490526080606483019081528351608484015283519192909160a490910190602085019080838360005b83811015611c2c578181015183820152602001611c14565b50505050905090810190601f168015611c595780820380516001836020036101000a031916815260200191505b5095505050505050602060405180830381600087803b158015611c7b57600080fd5b505af1158015611c8f573d6000803e3d6000fd5b505050506040513d6020811015611ca557600080fd5b505191505b509392505050565b600080611cbd612a15565b604080517fbe00bbd80000000000000000000000000000000000000000000000000000000081527fd6f028ca0e8edb4a8c9757ca4fdccab25fa1e0317da1188108f7d2dee14902fb60048201527fddbcfd564f642ab5627cf68b9b7d374fb4f8a36e941a75d89c87998cef03bd6160248201529051600160a060020a03929092169163be00bbd8916044808201926020929091908290030181600087803b15801561105f57600080fd5b60007f23ce341656c3f14df6692eebd4757791e33662b7dcf9970c8308303da5472b7c611d9383612dc8565b611d9e338383611b49565b60408051808201909152600f81527f4150505f415554485f4641494c454400000000000000000000000000000000006020820152901515611e245760405160e560020a62461bcd028152600401808060200182810382528381815181526020019150805190602001908083836000838110156102a757818101518382015260200161028f565b5060408051808201909152601881527f4147454e545f44455349474e415445445f544f5f53454c4600000000000000006020820152600160a060020a038516301415611eb55760405160e560020a62461bcd028152600401808060200182810382528381815181526020019150805190602001908083836000838110156102a757818101518382015260200161028f565b5060018054600160a060020a0386811673ffffffffffffffffffffffffffffffffffffffff198316811790935560405191169450849033907f3ecf54ed9acd859c5ee7f080794267b8f08b65d2446d816cef1efccd6d00d73590600090a450505050565b600154600160a060020a031681565b60006060806000806000806000807f0a1ad7b87f5846153c6d5a1f761d71c7d0cfd122384f56066cd33239b7933694600102611fbc8d611f978e8e8080601f01602080910402602001604051908101604052809392919081815260200183838082843750613274945050505050565b7c0100000000000000000000000000000000000000000000000000000000900461328d565b611fc7338383611b49565b60408051808201909152600f81527f4150505f415554485f4641494c45440000000000000000000000000000000000602082015290151561204d5760405160e560020a62461bcd028152600401808060200182810382528381815181526020019150805190602001908083836000838110156102a757818101518382015260200161028f565b50600254604080518281526020808402820101909152909b508b801561207d578160200160208202803883390190505b5099508a6040519080825280602002602001820160405280156120aa578160200160208202803883390190505b509850600097505b8a8810156121bf5760028054899081106120c857fe5b6000918252602091829020015460408051808201909152601681527f4147454e545f5441524745545f50524f5445435445440000000000000000000092810192909252600160a060020a0390811698508f1688141561216c5760405160e560020a62461bcd028152600401808060200182810382528381815181526020019150805190602001908083836000838110156102a757818101518382015260200161028f565b50868a8981518110151561217c57fe5b600160a060020a0390921660209283029091019091015261219c87612b16565b89898151811015156121aa57fe5b602090810290910101526001909701966120b2565b8d600160a060020a03168d8d604051808383808284378201915050925050506000604051808303816000865af191505095503d935060405194503d85016040523d6000863e85156124b05760025460408051808201909152601f81527f4147454e545f50524f5445435445445f544f4b454e535f4d4f444946494544006020820152908c146122935760405160e560020a62461bcd028152600401808060200182810382528381815181526020019150805190602001908083836000838110156102a757818101518382015260200161028f565b50600092505b8a8310156124485789838151811015156122af57fe5b90602001906020020151600160a060020a03166002848154811015156122d157fe5b6000918252602091829020015460408051808201909152601f81527f4147454e545f50524f5445435445445f544f4b454e535f4d4f44494649454400928101929092529091600160a060020a03909116146123715760405160e560020a62461bcd028152600401808060200182810382528381815181526020019150805190602001908083836000838110156102a757818101518382015260200161028f565b50888381518110151561238057fe5b906020019060200201516123b660028581548110151561239c57fe5b600091825260209091200154600160a060020a0316612b16565b60408051808201909152601f81527f4147454e545f50524f5445435445445f42414c414e43455f4c4f574552454400602082015291111561243c5760405160e560020a62461bcd028152600401808060200182810382528381815181526020019150805190602001908083836000838110156102a757818101518382015260200161028f565b50600190920191612299565b8d600160a060020a031633600160a060020a03167f47f4287d5285559a03d8affeadc53ef3fca238a63c256c08a22bfd30fd5d33ce8f8f6040518080602001828103825284848281815260200192508082843760405192018290039550909350505050a38385f35b8385fd5b600a81565b7f0b29780bb523a130b3b01f231ef49ed2fa2781645591a0b0a44ca98f15a5994c81565b60006020819052908152604090205460ff1681565b60007fcebf517aa4440d1d125e0355aae64401211d0848a23c02cc5d29a14822580ba460010261257b868661255687878080601f01602080910402602001604051908101604052809392919081815260200183838082843750613274945050505050565b7c010000000000000000000000000000000000000000000000000000000090046132a2565b612586338383611b49565b60408051808201909152600f81527f4150505f415554485f4641494c45440000000000000000000000000000000000602082015290151561260c5760405160e560020a62461bcd028152600401808060200182810382528381815181526020019150805190602001908083836000838110156102a757818101518382015260200161028f565b5086600160a060020a03168686866040518083838082843782019150509250505060006040518083038185875af192505050925082156126b35786600160a060020a031633600160a060020a03167fc25cfed0b22da6a56f0e5ff784979a0b8623eddf2aee4acd33c2adefb09cbab6888888604051808481526020018060200182810382528484828181526020019250808284376040519201829003965090945050505050a35b6040513d6000823e8380156126c6573d82f35b3d82fd5b604080517f5452414e534645525f524f4c45000000000000000000000000000000000000008152905190819003600d0190206127078484846132c0565b612712338383611b49565b60408051808201909152600f81527f4150505f415554485f4641494c4544000000000000000000000000000000000060208201529015156127985760405160e560020a62461bcd028152600401808060200182810382528381815181526020019150805190602001908083836000838110156102a757818101518382015260200161028f565b5060408051808201909152601981527f5641554c545f5452414e534645525f56414c55455f5a45524f000000000000006020820152600084116128205760405160e560020a62461bcd028152600401808060200182810382528381815181526020019150805190602001908083836000838110156102a757818101518382015260200161028f565b50600160a060020a03851615156128e457604051600160a060020a0385169084156108fc029085906000818181858888f193505050506040805190810160405280601381526020017f5641554c545f53454e445f5245564552544544000000000000000000000000008152509015156128de5760405160e560020a62461bcd028152600401808060200182810382528381815181526020019150805190602001908083836000838110156102a757818101518382015260200161028f565b50612986565b6128fe600160a060020a038616858563ffffffff6131df16565b60408051808201909152601d81527f5641554c545f544f4b454e5f5452414e534645525f524556455254454400000060208201529015156129845760405160e560020a62461bcd028152600401808060200182810382528381815181526020019150805190602001908083836000838110156102a757818101518382015260200161028f565b505b83600160a060020a031685600160a060020a03167f239e7f6cdac8fb35a788a46b431b54da87de90b82448a2c294be5e92a6e579af856040518082815260200191505060405180910390a35050505050565b6000610ef2837fb421f7ad7646747f3051c50c0b8e2377839296cd4973e27f63821d73e390338f612a10612a0b866132df565b6133a9565b611b49565b60006112567f4172f0f7d2289153072b0a6ca36959e0cbe2efc3afe50fc81636caa96338137b612db9565b606080612a4d33846129d8565b60408051808201909152601581527f4147454e545f43414e5f4e4f545f464f525741524400000000000000000000006020820152901515612ad35760405160e560020a62461bcd028152600401808060200182810382528381815181526020019150805190602001908083836000838110156102a757818101518382015260200161028f565b50506040805160208082018352600080835283519081529081019092529150612afd8383836133ea565b50505050565b6000600019612b1061186b565b14905090565b6000600160a060020a0382161515612b3057503031610db5565b612b49600160a060020a0383163063ffffffff6130ca16565b9050610db5565b600190565b4390565b60408051600160a060020a0385811660248301528416604482015260648082018490528251808303909101815260849091019091526020810180517bffffffffffffffffffffffffffffffffffffffffffffffffffffffff167f23b872dd00000000000000000000000000000000000000000000000000000000179052600090612be38682613a19565b9695505050505050565b600081612bfb576000610db2565b507f20c13b0b00000000000000000000000000000000000000000000000000000000919050565b6000806000835160001415612c3a5760009250612db0565b836000815181101515612c4957fe5b01602001517f0100000000000000000000000000000000000000000000000000000000000000908190048102049150600460ff831610612c8c5760009250612db0565b8160ff166004811115612c9b57fe5b90506001816004811115612cab57fe5b1415612cc357612cbc868686613a67565b9250612db0565b6002816004811115612cd157fe5b1415612d8457604080517f19457468657265756d205369676e6564204d6573736167653a0a333200000000602080830191909152603c8083018a905283518084039091018152605c909201928390528151612cbc93918291908401908083835b60208310612d505780518252601f199092019160209182019101612d31565b6001836020036101000a03801982511681845116808217855250505050505090500191505060405180910390208686613a67565b6003816004811115612d9257fe5b1415612dab57612cbc8587612da687613b15565b613c0a565b600092505b50509392505050565b5490565b6060610db2826133a9565b6060610db282600160a060020a03166133a9565b6000805b600254811015612e2f5782600160a060020a0316600282815481101515612e0357fe5b600091825260209091200154600160a060020a03161415612e275760019150612e34565b600101612de0565b600091505b50919050565b600280546000198101908110612e4c57fe5b600091825260209091200154600160a060020a03166002612e6c83613d68565b81548110612e7657fe5b6000918252602090912001805473ffffffffffffffffffffffffffffffffffffffff1916600160a060020a03929092169190911790556002805490612ebf9060001983016140be565b50604051600160a060020a038216907f3da25279c93c5b22b359bebff8b5ddbfd9b0506be8344b93c9a7dc999459fe0490600090a250565b6000612f02826130a4565b1515612f1057506000610db5565b612f1982612b16565b50600192915050565b6002805460018101825560009182527f405787fa12a823e0f2b7631cc41b3ba8828b3321ca811111fa75cd3aa3bb5ace01805473ffffffffffffffffffffffffffffffffffffffff1916600160a060020a03841690811790915560405190917ff70a5123a7f334e5dac1d9aa3a6aafbc316712bf2519ffe0d3aa4f7cba52767e91a250565b612faf61186b565b60408051808201909152601881527f494e49545f414c52454144595f494e495449414c495a45440000000000000000602082015290156130345760405160e560020a62461bcd028152600401808060200182810382528381815181526020019150805190602001908083836000838110156102a757818101518382015260200161028f565b50611841613040612b55565b7febb05b386a8d34882b8711d156f463690983dc47815980fb82aeeff1aa43579e9063ffffffff613e3716565b61309d7f665fd576fbbe6f247aff98f5c94a561e3f71ec2d3c988d56f12d342396c50cea8263ffffffff613e3716565b50565b5490565b600080600160a060020a03831615156130c05760009150612e34565b50506000903b1190565b60408051600160a060020a0383166024808301919091528251808303909101815260449091019091526020810180517bffffffffffffffffffffffffffffffffffffffffffffffffffffffff167f70a0823100000000000000000000000000000000000000000000000000000000179052600090818061314a8684613e3b565b60408051808201909152601c81527f534146455f4552435f32305f42414c414e43455f524556455254454400000000602082015291935091508215156131d55760405160e560020a62461bcd028152600401808060200182810382528381815181526020019150805190602001908083836000838110156102a757818101518382015260200161028f565b5095945050505050565b60408051600160a060020a038416602482015260448082018490528251808303909101815260649091019091526020810180517bffffffffffffffffffffffffffffffffffffffffffffffffffffffff167fa9059cbb000000000000000000000000000000000000000000000000000000001790526000906132618582613a19565b95945050505050565b8051602002815290565b600060048251101561328557610db5565b506020015190565b6060610ef283600160a060020a031683613e6c565b60606132b884600160a060020a03168484613ec7565b949350505050565b60606132b884600160a060020a031684600160a060020a031684613ec7565b6000816040516020018082805190602001908083835b602083106133145780518252601f1990920191602091820191016132f5565b6001836020036101000a0380198251168184511680821785525050505050509050019150506040516020818303038152906040526040518082805190602001908083835b602083106133775780518252601f199092019160209182019101613358565b5181516020939093036101000a6000190180199091169216919091179052604051920182900390912095945050505050565b60408051600180825281830190925260609160208083019080388339019050509050818160008151811015156133db57fe5b60209081029091010152919050565b60606000806060806133fa610a3b565b60408051808201909152601481527f494e49545f4e4f545f494e495449414c495a454400000000000000000000000060208201529015156134805760405160e560020a62461bcd028152600401808060200182810382528381815181526020019150805190602001908083836000838110156102a757818101518382015260200161028f565b5060008061348c612a15565b9150613496611776565b90506134a18a610f92565b60408051808201909152601b81527f45564d52554e5f4558454355544f525f554e415641494c41424c4500000000006020820152909650600160a060020a03871615156135335760405160e560020a62461bcd028152600401808060200182810382528381815181526020019150805190602001908083836000838110156102a757818101518382015260200161028f565b506040516060602482019081528b5160848301528b517f279cea3500000000000000000000000000000000000000000000000000000000975087928d928d928d9282916044820191606481019160a490910190602089019080838360005b838110156135a9578181015183820152602001613591565b50505050905090810190601f1680156135d65780820380516001836020036101000a031916815260200191505b50848103835286518152865160209182019188019080838360005b838110156136095781810151838201526020016135f1565b50505050905090810190601f1680156136365780820380516001836020036101000a031916815260200191505b508481038252855181528551602091820191808801910280838360005b8381101561366b578181015183820152602001613653565b505050509050019650505050505050604051602081830303815290604052907bffffffffffffffffffffffffffffffffffffffffffffffffffffffff19166020820180517bffffffffffffffffffffffffffffffffffffffffffffffffffffffff83818316178352505050509350600080855160208701895af4604051935080801561375957603f3d11801561370e5760203d03806020883e8601604052613753565b60e560020a62461bcd02865260206004870152601e60248701527f45564d52554e5f4558454355544f525f494e56414c49445f52455455524e00006044870152606486fd5b50613762565b3d6000863e3d85fd5b505085600160a060020a03167f5229a5dba83a54ae8cb5b51bdd6de9474cacbe9dd332f5185f3a4f4f2e3f4ad98b8b8660405180806020018060200180602001848103845287818151815260200191508051906020019080838360005b838110156137d75781810151838201526020016137bf565b50505050905090810190601f1680156138045780820380516001836020036101000a031916815260200191505b50848103835286518152865160209182019188019080838360005b8381101561383757818101518382015260200161381f565b50505050905090810190601f1680156138645780820380516001836020036101000a031916815260200191505b50848103825285518152855160209182019187019080838360005b8381101561389757818101518382015260200161387f565b50505050905090810190601f1680156138c45780820380516001836020036101000a031916815260200191505b50965050505050505060405180910390a282965081600160a060020a03166138ea612a15565b600160a060020a0316146040805190810160405280601f81526020017f45564d52554e5f50524f5445435445445f53544154455f4d4f4449464945440081525090151561397c5760405160e560020a62461bcd028152600401808060200182810382528381815181526020019150805190602001908083836000838110156102a757818101518382015260200161028f565b5080613986611776565b60408051808201909152601f81527f45564d52554e5f50524f5445435445445f53544154455f4d4f4449464945440060208201529114613a0b5760405160e560020a62461bcd028152600401808060200182810382528381815181526020019150805190602001908083836000838110156102a757818101518382015260200161028f565b505050505050509392505050565b6000806040516020818551602087016000895af16000811115613a5d573d8015613a4a5760208114613a5357613a5b565b60019350613a5b565b600183511493505b505b5090949350505050565b6000806000806000613a7886613f40565b93509350935093508315613a8f5760009450613b0a565b60408051600080825260208083018085528c905260ff8516838501526060830187905260808301869052925160019360a0808501949193601f19840193928390039091019190865af1158015613ae9573d6000803e3d6000fd5b50505060206040510351600160a060020a031687600160a060020a03161494505b505050509392505050565b805160408051808201909152601e81527f53494756414c5f494e56414c49445f4c454e4754485f504f505f4259544500006020820152606091906000908190818411613ba65760405160e560020a62461bcd028152600401808060200182810382528381815181526020019150805190602001908083836000838110156102a757818101518382015260200161028f565b50600183036040519080825280601f01601f191660200182016040528015613bd8578160200160208202803883390190505b509350835160001415613bea57613c02565b602185019150602084019050613c0281838651614020565b505050919050565b60408051602481018481526044820192835283516064830152835160009360609385937f1626ba7e000000000000000000000000000000000000000000000000000000009389938993909160849091019060208501908083838b5b83811015613c7d578181015183820152602001613c65565b50505050905090810190601f168015613caa5780820380516001836020036101000a031916815260200191505b509350505050604051602081830303815290604052907bffffffffffffffffffffffffffffffffffffffffffffffffffffffff19166020820180517bffffffffffffffffffffffffffffffffffffffffffffffffffffffff83818316178352505050509150613d1d86836203d090614064565b7bffffffffffffffffffffffffffffffffffffffffffffffffffffffff19167f20c13b0b00000000000000000000000000000000000000000000000000000000149695505050505050565b6000805b600254811015613dba5782600160a060020a0316600282815481101515613d8f57fe5b600091825260209091200154600160a060020a03161415613db257809150612e34565b600101613d6c565b604080518082018252601981527f4147454e545f544f4b454e5f4e4f545f50524f544543544544000000000000006020808301918252925160e560020a62461bcd028152600481019384528251602482015282519293928392604490920191908083836000838110156102a757818101518382015260200161028f565b9055565b6000806000806040516020818751602089018a5afa92506000831115613e6057805191505b50909590945092505050565b604080516002808252606080830184529260208301908038833901905050905082816000815181101515613e9c57fe5b602090810290910101528051829082906001908110613eb757fe5b6020908102909101015292915050565b6040805160038082526080820190925260609160208201838038833901905050905083816000815181101515613ef957fe5b602090810290910101528051839082906001908110613f1457fe5b602090810290910101528051829082906002908110613f2f57fe5b602090810290910101529392505050565b60008060008084516042141515613f5a5760019350614019565b846041815181101515613f6957fe5b9060200101517f010000000000000000000000000000000000000000000000000000000000000090047f0100000000000000000000000000000000000000000000000000000000000000027f0100000000000000000000000000000000000000000000000000000000000000900490506021850151925060418501519150601b8160ff161015613ff757601b015b8060ff16601b1415801561400f57508060ff16601c14155b1561401957600193505b9193509193565b60005b60208210614045578251845260209384019390920191601f1990910190614023565b50905182516020929092036101000a6000190180199091169116179052565b60008060008060005a935085841161407c578361407e565b855b9250600080885160208a018b87fa915081151561409a57613b0a565b503d602081146140a957613b0a565b604051816000823e5198975050505050505050565b8154818355818111156114d8576000838152602090206114d8918101908301610f8f91905b80821115610a6157600081556001016140e35600a165627a7a72305820e9e7748d927f8bb3a81c4f3e5b9f7778316d1316152e4b86729a3def992c732b0029ebb05b386a8d34882b8711d156f463690983dc47815980fb82aeeff1aa43579e",
  "source": "/*\n * SPDX-License-Identitifer:    GPL-3.0-or-later\n */\n\npragma solidity 0.4.24;\n\nimport \"./SignatureValidator.sol\";\nimport \"./standards/IERC165.sol\";\nimport \"./standards/ERC1271.sol\";\n\nimport \"@aragon/apps-vault/contracts/Vault.sol\";\n\nimport \"@aragon/os/contracts/common/IForwarder.sol\";\n\n\ncontract Agent is IERC165, ERC1271Bytes, IForwarder, IsContract, Vault {\n    /* Hardcoded constants to save gas\n    bytes32 public constant EXECUTE_ROLE = keccak256(\"EXECUTE_ROLE\");\n    bytes32 public constant SAFE_EXECUTE_ROLE = keccak256(\"SAFE_EXECUTE_ROLE\");\n    bytes32 public constant ADD_PROTECTED_TOKEN_ROLE = keccak256(\"ADD_PROTECTED_TOKEN_ROLE\");\n    bytes32 public constant REMOVE_PROTECTED_TOKEN_ROLE = keccak256(\"REMOVE_PROTECTED_TOKEN_ROLE\");\n    bytes32 public constant ADD_PRESIGNED_HASH_ROLE = keccak256(\"ADD_PRESIGNED_HASH_ROLE\");\n    bytes32 public constant DESIGNATE_SIGNER_ROLE = keccak256(\"DESIGNATE_SIGNER_ROLE\");\n    bytes32 public constant RUN_SCRIPT_ROLE = keccak256(\"RUN_SCRIPT_ROLE\");\n    */\n\n    bytes32 public constant EXECUTE_ROLE = 0xcebf517aa4440d1d125e0355aae64401211d0848a23c02cc5d29a14822580ba4;\n    bytes32 public constant SAFE_EXECUTE_ROLE = 0x0a1ad7b87f5846153c6d5a1f761d71c7d0cfd122384f56066cd33239b7933694;\n    bytes32 public constant ADD_PROTECTED_TOKEN_ROLE = 0x6eb2a499556bfa2872f5aa15812b956cc4a71b4d64eb3553f7073c7e41415aaa;\n    bytes32 public constant REMOVE_PROTECTED_TOKEN_ROLE = 0x71eee93d500f6f065e38b27d242a756466a00a52a1dbcd6b4260f01a8640402a;\n    bytes32 public constant ADD_PRESIGNED_HASH_ROLE = 0x0b29780bb523a130b3b01f231ef49ed2fa2781645591a0b0a44ca98f15a5994c;\n    bytes32 public constant DESIGNATE_SIGNER_ROLE = 0x23ce341656c3f14df6692eebd4757791e33662b7dcf9970c8308303da5472b7c;\n    bytes32 public constant RUN_SCRIPT_ROLE = 0xb421f7ad7646747f3051c50c0b8e2377839296cd4973e27f63821d73e390338f;\n\n    uint256 public constant PROTECTED_TOKENS_CAP = 10;\n\n    bytes4 private constant ERC165_INTERFACE_ID = 0x01ffc9a7;\n\n    string private constant ERROR_TARGET_PROTECTED = \"AGENT_TARGET_PROTECTED\";\n    string private constant ERROR_PROTECTED_TOKENS_MODIFIED = \"AGENT_PROTECTED_TOKENS_MODIFIED\";\n    string private constant ERROR_PROTECTED_BALANCE_LOWERED = \"AGENT_PROTECTED_BALANCE_LOWERED\";\n    string private constant ERROR_TOKENS_CAP_REACHED = \"AGENT_TOKENS_CAP_REACHED\";\n    string private constant ERROR_TOKEN_NOT_ERC20 = \"AGENT_TOKEN_NOT_ERC20\";\n    string private constant ERROR_TOKEN_ALREADY_PROTECTED = \"AGENT_TOKEN_ALREADY_PROTECTED\";\n    string private constant ERROR_TOKEN_NOT_PROTECTED = \"AGENT_TOKEN_NOT_PROTECTED\";\n    string private constant ERROR_DESIGNATED_TO_SELF = \"AGENT_DESIGNATED_TO_SELF\";\n    string private constant ERROR_CAN_NOT_FORWARD = \"AGENT_CAN_NOT_FORWARD\";\n\n    mapping (bytes32 => bool) public isPresigned;\n    address public designatedSigner;\n    address[] public protectedTokens;\n\n    event SafeExecute(address indexed sender, address indexed target, bytes data);\n    event Execute(address indexed sender, address indexed target, uint256 ethValue, bytes data);\n    event AddProtectedToken(address indexed token);\n    event RemoveProtectedToken(address indexed token);\n    event PresignHash(address indexed sender, bytes32 indexed hash);\n    event SetDesignatedSigner(address indexed sender, address indexed oldSigner, address indexed newSigner);\n\n    /**\n    * @notice Execute '`@radspec(_target, _data)`' on `_target``_ethValue == 0 ? '' : ' (Sending' + @tokenAmount(0x0000000000000000000000000000000000000000, _ethValue) + ')'`\n    * @param _target Address where the action is being executed\n    * @param _ethValue Amount of ETH from the contract that is sent with the action\n    * @param _data Calldata for the action\n    * @return Exits call frame forwarding the return data of the executed call (either error or success data)\n    */\n    function execute(address _target, uint256 _ethValue, bytes _data)\n        external // This function MUST always be external as the function performs a low level return, exiting the Agent app execution context\n        authP(EXECUTE_ROLE, arr(_target, _ethValue, uint256(_getSig(_data)))) // bytes4 casted as uint256 sets the bytes as the LSBs\n    {\n        bool result = _target.call.value(_ethValue)(_data);\n\n        if (result) {\n            emit Execute(msg.sender, _target, _ethValue, _data);\n        }\n\n        assembly {\n            let ptr := mload(0x40)\n            returndatacopy(ptr, 0, returndatasize)\n\n            // revert instead of invalid() bc if the underlying call failed with invalid() it already wasted gas.\n            // if the call returned error data, forward it\n            switch result case 0 { revert(ptr, returndatasize) }\n            default { return(ptr, returndatasize) }\n        }\n    }\n\n    /**\n    * @notice Execute '`@radspec(_target, _data)`' on `_target` ensuring that protected tokens can't be spent\n    * @param _target Address where the action is being executed\n    * @param _data Calldata for the action\n    * @return Exits call frame forwarding the return data of the executed call (either error or success data)\n    */\n    function safeExecute(address _target, bytes _data)\n        external // This function MUST always be external as the function performs a low level return, exiting the Agent app execution context\n        authP(SAFE_EXECUTE_ROLE, arr(_target, uint256(_getSig(_data)))) // bytes4 casted as uint256 sets the bytes as the LSBs\n    {\n        uint256 protectedTokensLength = protectedTokens.length;\n        address[] memory protectedTokens_ = new address[](protectedTokensLength);\n        uint256[] memory balances = new uint256[](protectedTokensLength);\n\n        for (uint256 i = 0; i < protectedTokensLength; i++) {\n            address token = protectedTokens[i];\n            require(_target != token, ERROR_TARGET_PROTECTED);\n            // we copy the protected tokens array to check whether the storage array has been modified during the underlying call\n            protectedTokens_[i] = token;\n            // we copy the balances to check whether they have been modified during the underlying call\n            balances[i] = balance(token);\n        }\n\n        bool result = _target.call(_data);\n\n        bytes32 ptr;\n        uint256 size;\n        assembly {\n            size := returndatasize\n            ptr := mload(0x40)\n            mstore(0x40, add(ptr, returndatasize))\n            returndatacopy(ptr, 0, returndatasize)\n        }\n\n        if (result) {\n            // if the underlying call has succeeded, we check that the protected tokens\n            // and their balances have not been modified and return the call's return data\n            require(protectedTokens.length == protectedTokensLength, ERROR_PROTECTED_TOKENS_MODIFIED);\n            for (uint256 j = 0; j < protectedTokensLength; j++) {\n                require(protectedTokens[j] == protectedTokens_[j], ERROR_PROTECTED_TOKENS_MODIFIED);\n                require(balance(protectedTokens[j]) >= balances[j], ERROR_PROTECTED_BALANCE_LOWERED);\n            }\n\n            emit SafeExecute(msg.sender, _target, _data);\n\n            assembly {\n                return(ptr, size)\n            }\n        } else {\n            // if the underlying call has failed, we revert and forward returned error data\n            assembly {\n                revert(ptr, size)\n            }\n        }\n    }\n\n    /**\n    * @notice Add `_token.symbol(): string` to the list of protected tokens\n    * @param _token Address of the token to be protected\n    */\n    function addProtectedToken(address _token) external authP(ADD_PROTECTED_TOKEN_ROLE, arr(_token)) {\n        require(protectedTokens.length < PROTECTED_TOKENS_CAP, ERROR_TOKENS_CAP_REACHED);\n        require(_isERC20(_token), ERROR_TOKEN_NOT_ERC20);\n        require(!_tokenIsProtected(_token), ERROR_TOKEN_ALREADY_PROTECTED);\n\n        _addProtectedToken(_token);\n    }\n\n    /**\n    * @notice Remove `_token.symbol(): string` from the list of protected tokens\n    * @param _token Address of the token to be unprotected\n    */\n    function removeProtectedToken(address _token) external authP(REMOVE_PROTECTED_TOKEN_ROLE, arr(_token)) {\n        require(_tokenIsProtected(_token), ERROR_TOKEN_NOT_PROTECTED);\n\n        _removeProtectedToken(_token);\n    }\n\n    /**\n    * @notice Pre-sign hash `_hash`\n    * @param _hash Hash that will be considered signed regardless of the signature checked with 'isValidSignature()'\n    */\n    function presignHash(bytes32 _hash)\n        external\n        authP(ADD_PRESIGNED_HASH_ROLE, arr(_hash))\n    {\n        isPresigned[_hash] = true;\n\n        emit PresignHash(msg.sender, _hash);\n    }\n\n    /**\n    * @notice Set `_designatedSigner` as the designated signer of the app, which will be able to sign messages on behalf of the app\n    * @param _designatedSigner Address that will be able to sign messages on behalf of the app\n    */\n    function setDesignatedSigner(address _designatedSigner)\n        external\n        authP(DESIGNATE_SIGNER_ROLE, arr(_designatedSigner))\n    {\n        // Prevent an infinite loop by setting the app itself as its designated signer.\n        // An undetectable loop can be created by setting a different contract as the\n        // designated signer which calls back into `isValidSignature`.\n        // Given that `isValidSignature` is always called with just 50k gas, the max\n        // damage of the loop is wasting 50k gas.\n        require(_designatedSigner != address(this), ERROR_DESIGNATED_TO_SELF);\n\n        address oldDesignatedSigner = designatedSigner;\n        designatedSigner = _designatedSigner;\n\n        emit SetDesignatedSigner(msg.sender, oldDesignatedSigner, _designatedSigner);\n    }\n\n    // Forwarding fns\n\n    /**\n    * @notice Tells whether the Agent app is a forwarder or not\n    * @dev IForwarder interface conformance\n    * @return Always true\n    */\n    function isForwarder() external pure returns (bool) {\n        return true;\n    }\n\n    /**\n    * @notice Execute the script as the Agent app\n    * @dev IForwarder interface conformance. Forwards any token holder action.\n    * @param _evmScript Script being executed\n    */\n    function forward(bytes _evmScript) public {\n        require(canForward(msg.sender, _evmScript), ERROR_CAN_NOT_FORWARD);\n\n        bytes memory input = \"\"; // no input\n        address[] memory blacklist = new address[](0); // no addr blacklist, can interact with anything\n        runScript(_evmScript, input, blacklist);\n        // We don't need to emit an event here as EVMScriptRunner will emit ScriptResult if successful\n    }\n\n    /**\n    * @notice Tells whether `_sender` can forward actions or not\n    * @dev IForwarder interface conformance\n    * @param _sender Address of the account intending to forward an action\n    * @return True if the given address can run scripts, false otherwise\n    */\n    function canForward(address _sender, bytes _evmScript) public view returns (bool) {\n        // Note that `canPerform()` implicitly does an initialization check itself\n        return canPerform(_sender, RUN_SCRIPT_ROLE, arr(_getScriptACLParam(_evmScript)));\n    }\n\n    // ERC-165 conformance\n\n    /**\n     * @notice Tells whether this contract supports a given ERC-165 interface\n     * @param _interfaceId Interface bytes to check\n     * @return True if this contract supports the interface\n     */\n    function supportsInterface(bytes4 _interfaceId) external pure returns (bool) {\n        return\n            _interfaceId == ERC1271_INTERFACE_ID ||\n            _interfaceId == ERC165_INTERFACE_ID;\n    }\n\n    // ERC-1271 conformance\n\n    /**\n     * @notice Tells whether a signature is seen as valid by this contract through ERC-1271\n     * @param _hash Arbitrary length data signed on the behalf of address (this)\n     * @param _signature Signature byte array associated with _data\n     * @return The ERC-1271 magic value if the signature is valid\n     */\n    function isValidSignature(bytes32 _hash, bytes _signature) public view returns (bytes4) {\n        // Short-circuit in case the hash was presigned. Optimization as performing calls\n        // and ecrecover is more expensive than an SLOAD.\n        if (isPresigned[_hash]) {\n            return returnIsValidSignatureMagicNumber(true);\n        }\n\n        bool isValid;\n        if (designatedSigner == address(0)) {\n            isValid = false;\n        } else {\n            isValid = SignatureValidator.isValidSignature(_hash, designatedSigner, _signature);\n        }\n\n        return returnIsValidSignatureMagicNumber(isValid);\n    }\n\n    // Getters\n\n    function getProtectedTokensLength() public view isInitialized returns (uint256) {\n        return protectedTokens.length;\n    }\n\n    // Internal fns\n\n    function _addProtectedToken(address _token) internal {\n        protectedTokens.push(_token);\n\n        emit AddProtectedToken(_token);\n    }\n\n    function _removeProtectedToken(address _token) internal {\n        protectedTokens[_protectedTokenIndex(_token)] = protectedTokens[protectedTokens.length - 1];\n        protectedTokens.length--;\n\n        emit RemoveProtectedToken(_token);\n    }\n\n    function _isERC20(address _token) internal view returns (bool) {\n        if (!isContract(_token)) {\n            return false;\n        }\n\n        // Throwaway sanity check to make sure the token's `balanceOf()` does not error (for now)\n        balance(_token);\n\n        return true;\n    }\n\n    function _protectedTokenIndex(address _token) internal view returns (uint256) {\n        for (uint i = 0; i < protectedTokens.length; i++) {\n            if (protectedTokens[i] == _token) {\n              return i;\n            }\n        }\n\n        revert(ERROR_TOKEN_NOT_PROTECTED);\n    }\n\n    function _tokenIsProtected(address _token) internal view returns (bool) {\n        for (uint256 i = 0; i < protectedTokens.length; i++) {\n            if (protectedTokens[i] == _token) {\n                return true;\n            }\n        }\n\n        return false;\n    }\n\n    function _getScriptACLParam(bytes _evmScript) internal pure returns (uint256) {\n        return uint256(keccak256(abi.encodePacked(_evmScript)));\n    }\n\n    function _getSig(bytes _data) internal pure returns (bytes4 sig) {\n        if (_data.length < 4) {\n            return;\n        }\n\n        assembly { sig := mload(add(_data, 0x20)) }\n    }\n}\n",
  "sourcePath": "@aragon/apps-agent/contracts/Agent.sol",
  "compiler": {
    "name": "solc",
    "version": "0.4.24+commit.e67f0147.Emscripten.clang"
  },
  "schemaVersion": "2.0.1",
  "updatedAt": "2020-02-08T20:29:35.904Z"
}