{
  "contractName": "AragonFundraisingController",
  "abi": [
    {
      "constant": true,
      "inputs": [],
      "name": "hasInitialized",
      "outputs": [
        {
          "name": "",
          "type": "bool"
        }
      ],
      "payable": false,
      "stateMutability": "view",
      "type": "function"
    },
    {
      "constant": true,
      "inputs": [],
      "name": "TO_RESET_CAP",
      "outputs": [
        {
          "name": "",
          "type": "uint256"
        }
      ],
      "payable": false,
      "stateMutability": "view",
      "type": "function"
    },
    {
      "constant": true,
      "inputs": [],
      "name": "OPEN_TRADING_ROLE",
      "outputs": [
        {
          "name": "",
          "type": "bytes32"
        }
      ],
      "payable": false,
      "stateMutability": "view",
      "type": "function"
    },
    {
      "constant": true,
      "inputs": [],
      "name": "OPEN_PRESALE_ROLE",
      "outputs": [
        {
          "name": "",
          "type": "bytes32"
        }
      ],
      "payable": false,
      "stateMutability": "view",
      "type": "function"
    },
    {
      "constant": true,
      "inputs": [],
      "name": "marketMaker",
      "outputs": [
        {
          "name": "",
          "type": "address"
        }
      ],
      "payable": false,
      "stateMutability": "view",
      "type": "function"
    },
    {
      "constant": true,
      "inputs": [
        {
          "name": "_script",
          "type": "bytes"
        }
      ],
      "name": "getEVMScriptExecutor",
      "outputs": [
        {
          "name": "",
          "type": "address"
        }
      ],
      "payable": false,
      "stateMutability": "view",
      "type": "function"
    },
    {
      "constant": true,
      "inputs": [],
      "name": "OPEN_BUY_ORDER_ROLE",
      "outputs": [
        {
          "name": "",
          "type": "bytes32"
        }
      ],
      "payable": false,
      "stateMutability": "view",
      "type": "function"
    },
    {
      "constant": true,
      "inputs": [],
      "name": "UPDATE_COLLATERAL_TOKEN_ROLE",
      "outputs": [
        {
          "name": "",
          "type": "bytes32"
        }
      ],
      "payable": false,
      "stateMutability": "view",
      "type": "function"
    },
    {
      "constant": true,
      "inputs": [],
      "name": "getRecoveryVault",
      "outputs": [
        {
          "name": "",
          "type": "address"
        }
      ],
      "payable": false,
      "stateMutability": "view",
      "type": "function"
    },
    {
      "constant": true,
      "inputs": [],
      "name": "UPDATE_BENEFICIARY_ROLE",
      "outputs": [
        {
          "name": "",
          "type": "bytes32"
        }
      ],
      "payable": false,
      "stateMutability": "view",
      "type": "function"
    },
    {
      "constant": true,
      "inputs": [],
      "name": "ADD_COLLATERAL_TOKEN_ROLE",
      "outputs": [
        {
          "name": "",
          "type": "bytes32"
        }
      ],
      "payable": false,
      "stateMutability": "view",
      "type": "function"
    },
    {
      "constant": true,
      "inputs": [],
      "name": "UPDATE_FEES_ROLE",
      "outputs": [
        {
          "name": "",
          "type": "bytes32"
        }
      ],
      "payable": false,
      "stateMutability": "view",
      "type": "function"
    },
    {
      "constant": true,
      "inputs": [
        {
          "name": "token",
          "type": "address"
        }
      ],
      "name": "allowRecoverability",
      "outputs": [
        {
          "name": "",
          "type": "bool"
        }
      ],
      "payable": false,
      "stateMutability": "view",
      "type": "function"
    },
    {
      "constant": true,
      "inputs": [],
      "name": "appId",
      "outputs": [
        {
          "name": "",
          "type": "bytes32"
        }
      ],
      "payable": false,
      "stateMutability": "view",
      "type": "function"
    },
    {
      "constant": true,
      "inputs": [],
      "name": "getInitializationBlock",
      "outputs": [
        {
          "name": "",
          "type": "uint256"
        }
      ],
      "payable": false,
      "stateMutability": "view",
      "type": "function"
    },
    {
      "constant": true,
      "inputs": [],
      "name": "ADD_TOKEN_TAP_ROLE",
      "outputs": [
        {
          "name": "",
          "type": "bytes32"
        }
      ],
      "payable": false,
      "stateMutability": "view",
      "type": "function"
    },
    {
      "constant": false,
      "inputs": [
        {
          "name": "_token",
          "type": "address"
        }
      ],
      "name": "transferToVault",
      "outputs": [],
      "payable": false,
      "stateMutability": "nonpayable",
      "type": "function"
    },
    {
      "constant": true,
      "inputs": [
        {
          "name": "_sender",
          "type": "address"
        },
        {
          "name": "_role",
          "type": "bytes32"
        },
        {
          "name": "_params",
          "type": "uint256[]"
        }
      ],
      "name": "canPerform",
      "outputs": [
        {
          "name": "",
          "type": "bool"
        }
      ],
      "payable": false,
      "stateMutability": "view",
      "type": "function"
    },
    {
      "constant": true,
      "inputs": [],
      "name": "CONTRIBUTE_ROLE",
      "outputs": [
        {
          "name": "",
          "type": "bytes32"
        }
      ],
      "payable": false,
      "stateMutability": "view",
      "type": "function"
    },
    {
      "constant": true,
      "inputs": [],
      "name": "getEVMScriptRegistry",
      "outputs": [
        {
          "name": "",
          "type": "address"
        }
      ],
      "payable": false,
      "stateMutability": "view",
      "type": "function"
    },
    {
      "constant": true,
      "inputs": [],
      "name": "UPDATE_TOKEN_TAP_ROLE",
      "outputs": [
        {
          "name": "",
          "type": "bytes32"
        }
      ],
      "payable": false,
      "stateMutability": "view",
      "type": "function"
    },
    {
      "constant": true,
      "inputs": [],
      "name": "REMOVE_COLLATERAL_TOKEN_ROLE",
      "outputs": [
        {
          "name": "",
          "type": "bytes32"
        }
      ],
      "payable": false,
      "stateMutability": "view",
      "type": "function"
    },
    {
      "constant": true,
      "inputs": [],
      "name": "UPDATE_MAXIMUM_TAP_RATE_INCREASE_PCT_ROLE",
      "outputs": [
        {
          "name": "",
          "type": "bytes32"
        }
      ],
      "payable": false,
      "stateMutability": "view",
      "type": "function"
    },
    {
      "constant": true,
      "inputs": [],
      "name": "UPDATE_MAXIMUM_TAP_FLOOR_DECREASE_PCT_ROLE",
      "outputs": [
        {
          "name": "",
          "type": "bytes32"
        }
      ],
      "payable": false,
      "stateMutability": "view",
      "type": "function"
    },
    {
      "constant": true,
      "inputs": [],
      "name": "reserve",
      "outputs": [
        {
          "name": "",
          "type": "address"
        }
      ],
      "payable": false,
      "stateMutability": "view",
      "type": "function"
    },
    {
      "constant": true,
      "inputs": [
        {
          "name": "",
          "type": "uint256"
        }
      ],
      "name": "toReset",
      "outputs": [
        {
          "name": "",
          "type": "address"
        }
      ],
      "payable": false,
      "stateMutability": "view",
      "type": "function"
    },
    {
      "constant": true,
      "inputs": [],
      "name": "OPEN_SELL_ORDER_ROLE",
      "outputs": [
        {
          "name": "",
          "type": "bytes32"
        }
      ],
      "payable": false,
      "stateMutability": "view",
      "type": "function"
    },
    {
      "constant": true,
      "inputs": [],
      "name": "kernel",
      "outputs": [
        {
          "name": "",
          "type": "address"
        }
      ],
      "payable": false,
      "stateMutability": "view",
      "type": "function"
    },
    {
      "constant": true,
      "inputs": [],
      "name": "isPetrified",
      "outputs": [
        {
          "name": "",
          "type": "bool"
        }
      ],
      "payable": false,
      "stateMutability": "view",
      "type": "function"
    },
    {
      "constant": true,
      "inputs": [],
      "name": "WITHDRAW_ROLE",
      "outputs": [
        {
          "name": "",
          "type": "bytes32"
        }
      ],
      "payable": false,
      "stateMutability": "view",
      "type": "function"
    },
    {
      "constant": true,
      "inputs": [],
      "name": "tap",
      "outputs": [
        {
          "name": "",
          "type": "address"
        }
      ],
      "payable": false,
      "stateMutability": "view",
      "type": "function"
    },
    {
      "constant": true,
      "inputs": [],
      "name": "presale",
      "outputs": [
        {
          "name": "",
          "type": "address"
        }
      ],
      "payable": false,
      "stateMutability": "view",
      "type": "function"
    },
    {
      "anonymous": false,
      "inputs": [
        {
          "indexed": true,
          "name": "executor",
          "type": "address"
        },
        {
          "indexed": false,
          "name": "script",
          "type": "bytes"
        },
        {
          "indexed": false,
          "name": "input",
          "type": "bytes"
        },
        {
          "indexed": false,
          "name": "returnData",
          "type": "bytes"
        }
      ],
      "name": "ScriptResult",
      "type": "event"
    },
    {
      "anonymous": false,
      "inputs": [
        {
          "indexed": true,
          "name": "vault",
          "type": "address"
        },
        {
          "indexed": true,
          "name": "token",
          "type": "address"
        },
        {
          "indexed": false,
          "name": "amount",
          "type": "uint256"
        }
      ],
      "name": "RecoverToVault",
      "type": "event"
    },
    {
      "constant": false,
      "inputs": [
        {
          "name": "_presale",
          "type": "address"
        },
        {
          "name": "_marketMaker",
          "type": "address"
        },
        {
          "name": "_reserve",
          "type": "address"
        },
        {
          "name": "_tap",
          "type": "address"
        },
        {
          "name": "_toReset",
          "type": "address[]"
        }
      ],
      "name": "initialize",
      "outputs": [],
      "payable": false,
      "stateMutability": "nonpayable",
      "type": "function"
    },
    {
      "constant": false,
      "inputs": [
        {
          "name": "_beneficiary",
          "type": "address"
        }
      ],
      "name": "updateBeneficiary",
      "outputs": [],
      "payable": false,
      "stateMutability": "nonpayable",
      "type": "function"
    },
    {
      "constant": false,
      "inputs": [
        {
          "name": "_buyFeePct",
          "type": "uint256"
        },
        {
          "name": "_sellFeePct",
          "type": "uint256"
        }
      ],
      "name": "updateFees",
      "outputs": [],
      "payable": false,
      "stateMutability": "nonpayable",
      "type": "function"
    },
    {
      "constant": false,
      "inputs": [],
      "name": "openPresale",
      "outputs": [],
      "payable": false,
      "stateMutability": "nonpayable",
      "type": "function"
    },
    {
      "constant": false,
      "inputs": [],
      "name": "closePresale",
      "outputs": [],
      "payable": false,
      "stateMutability": "nonpayable",
      "type": "function"
    },
    {
      "constant": false,
      "inputs": [
        {
          "name": "_value",
          "type": "uint256"
        }
      ],
      "name": "contribute",
      "outputs": [],
      "payable": true,
      "stateMutability": "payable",
      "type": "function"
    },
    {
      "constant": false,
      "inputs": [
        {
          "name": "_contributor",
          "type": "address"
        },
        {
          "name": "_vestedPurchaseId",
          "type": "uint256"
        }
      ],
      "name": "refund",
      "outputs": [],
      "payable": false,
      "stateMutability": "nonpayable",
      "type": "function"
    },
    {
      "constant": false,
      "inputs": [],
      "name": "openTrading",
      "outputs": [],
      "payable": false,
      "stateMutability": "nonpayable",
      "type": "function"
    },
    {
      "constant": false,
      "inputs": [
        {
          "name": "_collateral",
          "type": "address"
        },
        {
          "name": "_value",
          "type": "uint256"
        }
      ],
      "name": "openBuyOrder",
      "outputs": [],
      "payable": true,
      "stateMutability": "payable",
      "type": "function"
    },
    {
      "constant": false,
      "inputs": [
        {
          "name": "_collateral",
          "type": "address"
        },
        {
          "name": "_amount",
          "type": "uint256"
        }
      ],
      "name": "openSellOrder",
      "outputs": [],
      "payable": false,
      "stateMutability": "nonpayable",
      "type": "function"
    },
    {
      "constant": false,
      "inputs": [
        {
          "name": "_buyer",
          "type": "address"
        },
        {
          "name": "_batchId",
          "type": "uint256"
        },
        {
          "name": "_collateral",
          "type": "address"
        }
      ],
      "name": "claimBuyOrder",
      "outputs": [],
      "payable": false,
      "stateMutability": "nonpayable",
      "type": "function"
    },
    {
      "constant": false,
      "inputs": [
        {
          "name": "_seller",
          "type": "address"
        },
        {
          "name": "_batchId",
          "type": "uint256"
        },
        {
          "name": "_collateral",
          "type": "address"
        }
      ],
      "name": "claimSellOrder",
      "outputs": [],
      "payable": false,
      "stateMutability": "nonpayable",
      "type": "function"
    },
    {
      "constant": false,
      "inputs": [
        {
          "name": "_collateral",
          "type": "address"
        },
        {
          "name": "_virtualSupply",
          "type": "uint256"
        },
        {
          "name": "_virtualBalance",
          "type": "uint256"
        },
        {
          "name": "_reserveRatio",
          "type": "uint32"
        },
        {
          "name": "_slippage",
          "type": "uint256"
        },
        {
          "name": "_rate",
          "type": "uint256"
        },
        {
          "name": "_floor",
          "type": "uint256"
        }
      ],
      "name": "addCollateralToken",
      "outputs": [],
      "payable": false,
      "stateMutability": "nonpayable",
      "type": "function"
    },
    {
      "constant": false,
      "inputs": [
        {
          "name": "_collateral",
          "type": "address"
        },
        {
          "name": "_virtualSupply",
          "type": "uint256"
        },
        {
          "name": "_virtualBalance",
          "type": "uint256"
        },
        {
          "name": "_reserveRatio",
          "type": "uint32"
        },
        {
          "name": "_slippage",
          "type": "uint256"
        }
      ],
      "name": "reAddCollateralToken",
      "outputs": [],
      "payable": false,
      "stateMutability": "nonpayable",
      "type": "function"
    },
    {
      "constant": false,
      "inputs": [
        {
          "name": "_collateral",
          "type": "address"
        }
      ],
      "name": "removeCollateralToken",
      "outputs": [],
      "payable": false,
      "stateMutability": "nonpayable",
      "type": "function"
    },
    {
      "constant": false,
      "inputs": [
        {
          "name": "_collateral",
          "type": "address"
        },
        {
          "name": "_virtualSupply",
          "type": "uint256"
        },
        {
          "name": "_virtualBalance",
          "type": "uint256"
        },
        {
          "name": "_reserveRatio",
          "type": "uint32"
        },
        {
          "name": "_slippage",
          "type": "uint256"
        }
      ],
      "name": "updateCollateralToken",
      "outputs": [],
      "payable": false,
      "stateMutability": "nonpayable",
      "type": "function"
    },
    {
      "constant": false,
      "inputs": [
        {
          "name": "_maximumTapRateIncreasePct",
          "type": "uint256"
        }
      ],
      "name": "updateMaximumTapRateIncreasePct",
      "outputs": [],
      "payable": false,
      "stateMutability": "nonpayable",
      "type": "function"
    },
    {
      "constant": false,
      "inputs": [
        {
          "name": "_maximumTapFloorDecreasePct",
          "type": "uint256"
        }
      ],
      "name": "updateMaximumTapFloorDecreasePct",
      "outputs": [],
      "payable": false,
      "stateMutability": "nonpayable",
      "type": "function"
    },
    {
      "constant": false,
      "inputs": [
        {
          "name": "_token",
          "type": "address"
        },
        {
          "name": "_rate",
          "type": "uint256"
        },
        {
          "name": "_floor",
          "type": "uint256"
        }
      ],
      "name": "addTokenTap",
      "outputs": [],
      "payable": false,
      "stateMutability": "nonpayable",
      "type": "function"
    },
    {
      "constant": false,
      "inputs": [
        {
          "name": "_token",
          "type": "address"
        },
        {
          "name": "_rate",
          "type": "uint256"
        },
        {
          "name": "_floor",
          "type": "uint256"
        }
      ],
      "name": "updateTokenTap",
      "outputs": [],
      "payable": false,
      "stateMutability": "nonpayable",
      "type": "function"
    },
    {
      "constant": false,
      "inputs": [
        {
          "name": "_token",
          "type": "address"
        }
      ],
      "name": "updateTappedAmount",
      "outputs": [],
      "payable": false,
      "stateMutability": "nonpayable",
      "type": "function"
    },
    {
      "constant": false,
      "inputs": [
        {
          "name": "_token",
          "type": "address"
        }
      ],
      "name": "withdraw",
      "outputs": [],
      "payable": false,
      "stateMutability": "nonpayable",
      "type": "function"
    },
    {
      "constant": true,
      "inputs": [],
      "name": "token",
      "outputs": [
        {
          "name": "",
          "type": "address"
        }
      ],
      "payable": false,
      "stateMutability": "view",
      "type": "function"
    },
    {
      "constant": true,
      "inputs": [],
      "name": "contributionToken",
      "outputs": [
        {
          "name": "",
          "type": "address"
        }
      ],
      "payable": false,
      "stateMutability": "view",
      "type": "function"
    },
    {
      "constant": true,
      "inputs": [
        {
          "name": "_token",
          "type": "address"
        }
      ],
      "name": "getMaximumWithdrawal",
      "outputs": [
        {
          "name": "",
          "type": "uint256"
        }
      ],
      "payable": false,
      "stateMutability": "view",
      "type": "function"
    },
    {
      "constant": true,
      "inputs": [
        {
          "name": "_collateral",
          "type": "address"
        }
      ],
      "name": "collateralsToBeClaimed",
      "outputs": [
        {
          "name": "",
          "type": "uint256"
        }
      ],
      "payable": false,
      "stateMutability": "view",
      "type": "function"
    },
    {
      "constant": true,
      "inputs": [
        {
          "name": "_who",
          "type": "address"
        },
        {
          "name": "_token",
          "type": "address"
        }
      ],
      "name": "balanceOf",
      "outputs": [
        {
          "name": "",
          "type": "uint256"
        }
      ],
      "payable": false,
      "stateMutability": "view",
      "type": "function"
    }
  ],
  "bytecode": "0x6080604052620000176401000000006200001d810204565b6200023b565b6200003064010000000062000125810204565b60408051808201909152601881527f494e49545f414c52454144595f494e495449414c495a45440000000000000000602082015290156200010c576040517f08c379a00000000000000000000000000000000000000000000000000000000081526004018080602001828103825283818151815260200191508051906020019080838360005b83811015620000d0578181015183820152602001620000b6565b50505050905090810190601f168015620000fe5780820380516001836020036101000a031916815260200191505b509250505060405180910390fd5b506200012360001964010000000062000154810204565b565b60006200014f60008051602062003e8f833981519152640100000000620037f76200023382021704565b905090565b6200016764010000000062000125810204565b60408051808201909152601881527f494e49545f414c52454144595f494e495449414c495a454400000000000000006020820152901562000206576040517f08c379a000000000000000000000000000000000000000000000000000000000815260040180806020018281038252838181518152602001915080519060200190808383600083811015620000d0578181015183820152602001620000b6565b506200023060008051602062003e8f8339815191528264010000000062003bd46200023782021704565b50565b5490565b9055565b613c44806200024b6000396000f3006080604052600436106102be5763ffffffff7c010000000000000000000000000000000000000000000000000000000060003504166307e18bc881146102c35780630803fac0146102dd5780630aaffd2a146103065780630d304791146103275780630f97e2fe1461034e5780631c196659146103635780631f21f9af146103785780632914b9bd146103a95780632cd4a270146104025780633017dbed1461041757806332f0a3b51461042c5780633b3fadb614610441578063410085df1461046857806341644f8c1461048c5780634afe6c47146104a15780634bedf9a8146104c257806351cff8d9146104d75780635e6f6c77146104f8578063608bac051461052357806360e14b6014610538578063628b95b51461054d57806363cea450146105805780636db794371461059557806378ea6103146105b05780637b0d772e146105db5780637e7db6e1146105ff57806380afdea814610620578063846a0a89146106355780638a9b1e2d146106565780638b3dd749146106895780638b4886341461069e5780638dd98312146106b357806394f9059f146106c857806397ff256a146106e95780639d4941d814610722578063a1658fad14610743578063a2b96b6f146107aa578063a479e508146107bf578063b0d88a40146107d4578063b6e9c826146107e9578063b8fd61a8146107fe578063c102b1b514610825578063c1cbbca71461083a578063c9567bf914610845578063cc77491b1461085a578063cd3293de1461086f578063cf6adb4014610884578063cf9d82f21461089c578063d21bd820146108b1578063d441e2b7146108c9578063d4aae0c4146108e0578063de4796ed146108f5578063e02023a11461090a578063e2a5aec51461091f578063f7888aec14610940578063f8453e7c14610967578063fc0c546a146109a6578063fd221031146109bb578063fdea8e0b146109d0575b600080fd5b3480156102cf57600080fd5b506102db6004356109e5565b005b3480156102e957600080fd5b506102f2610b5a565b604080519115158252519081900360200190f35b34801561031257600080fd5b506102db600160a060020a0360043516610b83565b34801561033357600080fd5b5061033c610d1e565b60408051918252519081900360200190f35b34801561035a57600080fd5b5061033c610d23565b34801561036f57600080fd5b5061033c610d47565b34801561038457600080fd5b5061038d610d6b565b60408051600160a060020a039092168252519081900360200190f35b3480156103b557600080fd5b506040805160206004803580820135601f810184900484028501840190955284845261038d943694929360249392840191908190840183828082843750949750610d7a9650505050505050565b34801561040e57600080fd5b5061033c610e79565b34801561042357600080fd5b5061033c610e9d565b34801561043857600080fd5b5061038d610ec1565b34801561044d57600080fd5b506102db600160a060020a0360043516602435604435610f52565b34801561047457600080fd5b506102db600160a060020a036004351660243561109a565b34801561049857600080fd5b5061033c611182565b3480156104ad57600080fd5b5061033c600160a060020a03600435166111a6565b3480156104ce57600080fd5b5061038d61128d565b3480156104e357600080fd5b506102db600160a060020a0360043516611377565b34801561050457600080fd5b506102db600160a060020a036004358116906024359060443516611493565b34801561052f57600080fd5b5061033c6115a3565b34801561054457600080fd5b5061033c6115c7565b34801561055957600080fd5b506102db600160a060020a036004351660243560443563ffffffff606435166084356115eb565b34801561058c57600080fd5b506102db611748565b3480156105a157600080fd5b506102db600435602435611839565b3480156105bc57600080fd5b506102db600160a060020a03600435811690602435906044351661195b565b3480156105e757600080fd5b506102db600160a060020a0360043516602435611a4e565b34801561060b57600080fd5b506102f2600160a060020a0360043516611b77565b34801561062c57600080fd5b5061033c611b7d565b34801561064157600080fd5b506102db600160a060020a0360043516611bad565b34801561066257600080fd5b506102db600160a060020a036004351660243560443563ffffffff60643516608435611c2f565b34801561069557600080fd5b5061033c611d6c565b3480156106aa57600080fd5b5061033c611d97565b3480156106bf57600080fd5b506102db611dbb565b3480156106d457600080fd5b506102db600160a060020a0360043516611eca565b3480156106f557600080fd5b506102db600160a060020a036004351660243560443563ffffffff6064351660843560a43560c435611fe6565b34801561072e57600080fd5b506102db600160a060020a036004351661226a565b34801561074f57600080fd5b5060408051602060046044358181013583810280860185019096528085526102f2958335600160a060020a03169560248035963696956064959394920192918291850190849080828437509497506124f99650505050505050565b3480156107b657600080fd5b5061033c612662565b3480156107cb57600080fd5b5061038d612686565b3480156107e057600080fd5b5061033c61273b565b3480156107f557600080fd5b5061033c61275f565b34801561080a57600080fd5b506102db600160a060020a0360043516602435604435612783565b34801561083157600080fd5b5061033c6128ad565b6102db6004356128d1565b34801561085157600080fd5b506102db6129f1565b34801561086657600080fd5b5061033c612c8b565b34801561087b57600080fd5b5061038d612caf565b34801561089057600080fd5b5061038d600435612cbe565b3480156108a857600080fd5b5061033c612ce6565b3480156108bd57600080fd5b506102db600435612d0a565b6102db600160a060020a0360043516602435612e25565b3480156108ec57600080fd5b5061038d612f51565b34801561090157600080fd5b506102f2612f7c565b34801561091657600080fd5b5061033c612f8f565b34801561092b57600080fd5b5061033c600160a060020a0360043516612fb3565b34801561094c57600080fd5b5061033c600160a060020a036004358116906024351661309a565b34801561097357600080fd5b506102db600160a060020a0360048035821691602480358216926044358316926064351691608435908101910135613224565b3480156109b257600080fd5b5061038d6136ea565b3480156109c757600080fd5b5061038d6137d5565b3480156109dc57600080fd5b5061038d6137e4565b604080516000808252602082019092527f5d94de7e429250eee4ff97e30ab9f383bea3cd564d6780e0a9e965b1add1d20791610a279133918491905b506124f9565b60408051808201909152600f8152600080516020613bd98339815191526020820152901515610ad75760405160e560020a62461bcd0281526004018080602001828103825283818151815260200191508051906020019080838360005b83811015610a9c578181015183820152602001610a84565b50505050905090810190601f168015610ac95780820380516001836020036101000a031916815260200191505b509250505060405180910390fd5b50600354604080517f07e18bc8000000000000000000000000000000000000000000000000000000008152600481018590529051600160a060020a03909216916307e18bc89160248082019260009290919082900301818387803b158015610b3e57600080fd5b505af1158015610b52573d6000803e3d6000fd5b505050505050565b600080610b65611d6c565b90508015801590610b7d575080610b7a6137f3565b10155b91505090565b604080516000808252602082019092527ff7ea2b80c7b6a2cab2c11d2290cb005c3748397358a25e17113658c83b73259391610bc3913391849190610a21565b60408051808201909152600f8152600080516020613bd98339815191526020820152901515610c375760405160e560020a62461bcd02815260040180806020018281038252838181518152602001915080519060200190808383600083811015610a9c578181015183820152602001610a84565b50600154604080517f0aaffd2a000000000000000000000000000000000000000000000000000000008152600160a060020a03858116600483015291519190921691630aaffd2a91602480830192600092919082900301818387803b158015610c9f57600080fd5b505af1158015610cb3573d6000803e3d6000fd5b5050600354604080517f0aaffd2a000000000000000000000000000000000000000000000000000000008152600160a060020a0387811660048301529151919092169350630aaffd2a9250602480830192600092919082900301818387803b158015610b3e57600080fd5b600a81565b7f26ce034204208c0bbca4c8a793d17b99e546009b1dd31d3c1ef761f66372caf681565b7ff323aa41eef4850a8ae7ebd047d4c89f01ce49c781f3308be67303db9cdd48c281565b600154600160a060020a031681565b6000610d84612686565b600160a060020a03166304bf2a7f836040518263ffffffff167c01000000000000000000000000000000000000000000000000000000000281526004018080602001828103825283818151815260200191508051906020019080838360005b83811015610dfb578181015183820152602001610de3565b50505050905090810190601f168015610e285780820380516001836020036101000a031916815260200191505b5092505050602060405180830381600087803b158015610e4757600080fd5b505af1158015610e5b573d6000803e3d6000fd5b505050506040513d6020811015610e7157600080fd5b505192915050565b7fa589c8f284b76fc8d510d9d553485c47dbef1b0745ae00e0f3fd4e28fcd77ea781565b7fe0565c2c43e0d841e206bb36a37f12f22584b4652ccee6f9e0c071b697a2e13d81565b6000610ecb612f51565b600160a060020a03166332f0a3b56040518163ffffffff167c0100000000000000000000000000000000000000000000000000000000028152600401602060405180830381600087803b158015610f2157600080fd5b505af1158015610f35573d6000803e3d6000fd5b505050506040513d6020811015610f4b57600080fd5b5051905090565b604080516000808252602082019092527fbc9cb5e3f7ce81c4fd021d86a4bcb193dee9df315b540808c3ed59a81e59620791610f92913391849190610a21565b60408051808201909152600f8152600080516020613bd983398151915260208201529015156110065760405160e560020a62461bcd02815260040180806020018281038252838181518152602001915080519060200190808383600083811015610a9c578181015183820152602001610a84565b50600354604080517fb897b628000000000000000000000000000000000000000000000000000000008152600160a060020a03878116600483015260248201879052604482018690529151919092169163b897b62891606480830192600092919082900301818387803b15801561107c57600080fd5b505af1158015611090573d6000803e3d6000fd5b5050505050505050565b6110a2610b5a565b6040805180820190915260148152600080516020613bf983398151915260208201529015156111165760405160e560020a62461bcd02815260040180806020018281038252838181518152602001915080519060200190808383600083811015610a9c578181015183820152602001610a84565b5060008054604080517f410085df000000000000000000000000000000000000000000000000000000008152600160a060020a038681166004830152602482018690529151919092169263410085df926044808201939182900301818387803b158015610b3e57600080fd5b7ff7ea2b80c7b6a2cab2c11d2290cb005c3748397358a25e17113658c83b73259381565b60006111b0610b5a565b6040805180820190915260148152600080516020613bf983398151915260208201529015156112245760405160e560020a62461bcd02815260040180806020018281038252838181518152602001915080519060200190808383600083811015610a9c578181015183820152602001610a84565b50600154604080517f4afe6c47000000000000000000000000000000000000000000000000000000008152600160a060020a03858116600483015291519190921691634afe6c479160248083019260209291908290030181600087803b158015610e4757600080fd5b6000611297610b5a565b6040805180820190915260148152600080516020613bf9833981519152602082015290151561130b5760405160e560020a62461bcd02815260040180806020018281038252838181518152602001915080519060200190808383600083811015610a9c578181015183820152602001610a84565b506000809054906101000a9004600160a060020a0316600160a060020a0316634bedf9a86040518163ffffffff167c0100000000000000000000000000000000000000000000000000000000028152600401602060405180830381600087803b158015610f2157600080fd5b604080516000808252602082019092527f5d8e12c39142ff96d79d04d15d1ba1269e4fe57bb9d26f43523628b34ba108ec916113b7913391849190610a21565b60408051808201909152600f8152600080516020613bd9833981519152602082015290151561142b5760405160e560020a62461bcd02815260040180806020018281038252838181518152602001915080519060200190808383600083811015610a9c578181015183820152602001610a84565b50600354604080517f51cff8d9000000000000000000000000000000000000000000000000000000008152600160a060020a038581166004830152915191909216916351cff8d991602480830192600092919082900301818387803b158015610b3e57600080fd5b61149b610b5a565b6040805180820190915260148152600080516020613bf9833981519152602082015290151561150f5760405160e560020a62461bcd02815260040180806020018281038252838181518152602001915080519060200190808383600083811015610a9c578181015183820152602001610a84565b50600154604080517f5e6f6c77000000000000000000000000000000000000000000000000000000008152600160a060020a03868116600483015260248201869052848116604483015291519190921691635e6f6c7791606480830192600092919082900301818387803b15801561158657600080fd5b505af115801561159a573d6000803e3d6000fd5b50505050505050565b7f217b79cb2bc7760defc88529853ef81ab33ae5bb315408ce9f5af09c8776662d81565b7f5f9be2932ed3a723f295a763be1804c7ebfd1a41c1348fb8bdf5be1c5cdca82281565b604080516000808252602082019092527f217b79cb2bc7760defc88529853ef81ab33ae5bb315408ce9f5af09c8776662d9161162b913391849190610a21565b60408051808201909152600f8152600080516020613bd9833981519152602082015290151561169f5760405160e560020a62461bcd02815260040180806020018281038252838181518152602001915080519060200190808383600083811015610a9c578181015183820152602001610a84565b50600154604080517ffd531e03000000000000000000000000000000000000000000000000000000008152600160a060020a038981166004830152602482018990526044820188905263ffffffff87166064830152608482018690529151919092169163fd531e039160a480830192600092919082900301818387803b15801561172857600080fd5b505af115801561173c573d6000803e3d6000fd5b50505050505050505050565b611750610b5a565b6040805180820190915260148152600080516020613bf983398151915260208201529015156117c45760405160e560020a62461bcd02815260040180806020018281038252838181518152602001915080519060200190808383600083811015610a9c578181015183820152602001610a84565b5060008054604080517f43d726d60000000000000000000000000000000000000000000000000000000081529051600160a060020a03909216926343d726d69260048084019382900301818387803b15801561181f57600080fd5b505af1158015611833573d6000803e3d6000fd5b50505050565b604080516000808252602082019092527f5f9be2932ed3a723f295a763be1804c7ebfd1a41c1348fb8bdf5be1c5cdca82291611879913391849190610a21565b60408051808201909152600f8152600080516020613bd983398151915260208201529015156118ed5760405160e560020a62461bcd02815260040180806020018281038252838181518152602001915080519060200190808383600083811015610a9c578181015183820152602001610a84565b50600154604080517f6db7943700000000000000000000000000000000000000000000000000000000815260048101869052602481018590529051600160a060020a0390921691636db794379160448082019260009290919082900301818387803b15801561158657600080fd5b611963610b5a565b6040805180820190915260148152600080516020613bf983398151915260208201529015156119d75760405160e560020a62461bcd02815260040180806020018281038252838181518152602001915080519060200190808383600083811015610a9c578181015183820152602001610a84565b50600154604080517f78ea6103000000000000000000000000000000000000000000000000000000008152600160a060020a038681166004830152602482018690528481166044830152915191909216916378ea610391606480830192600092919082900301818387803b15801561158657600080fd5b604080516000808252602082019092527fd68ba2b769fa37a2a7bd4bed9241b448bc99eca41f519ef037406386a8f291c091611a8e913391849190610a21565b60408051808201909152600f8152600080516020613bd98339815191526020820152901515611b025760405160e560020a62461bcd02815260040180806020018281038252838181518152602001915080519060200190808383600083811015610a9c578181015183820152602001610a84565b50600154604080517f0f1ff5ea000000000000000000000000000000000000000000000000000000008152336004820152600160a060020a0386811660248301526044820186905291519190921691630f1ff5ea91606480830192600092919082900301818387803b15801561158657600080fd5b50600190565b6000611ba87fd625496217aa6a3453eecb9c3489dc5a53e6c67b444329ea2b2cbc9ff547639b6137f7565b905090565b600354604080517f846a0a89000000000000000000000000000000000000000000000000000000008152600160a060020a0384811660048301529151919092169163846a0a8991602480830192600092919082900301818387803b158015611c1457600080fd5b505af1158015611c28573d6000803e3d6000fd5b5050505050565b604080516000808252602082019092527fe0565c2c43e0d841e206bb36a37f12f22584b4652ccee6f9e0c071b697a2e13d91611c6f913391849190610a21565b60408051808201909152600f8152600080516020613bd98339815191526020820152901515611ce35760405160e560020a62461bcd02815260040180806020018281038252838181518152602001915080519060200190808383600083811015610a9c578181015183820152602001610a84565b50600154604080517f8a9b1e2d000000000000000000000000000000000000000000000000000000008152600160a060020a038981166004830152602482018990526044820188905263ffffffff871660648301526084820186905291519190921691638a9b1e2d9160a480830192600092919082900301818387803b15801561172857600080fd5b6000611ba87febb05b386a8d34882b8711d156f463690983dc47815980fb82aeeff1aa43579e6137f7565b7fbc9cb5e3f7ce81c4fd021d86a4bcb193dee9df315b540808c3ed59a81e59620781565b604080516000808252602082019092527ff323aa41eef4850a8ae7ebd047d4c89f01ce49c781f3308be67303db9cdd48c291611dfb913391849190610a21565b60408051808201909152600f8152600080516020613bd98339815191526020820152901515611e6f5760405160e560020a62461bcd02815260040180806020018281038252838181518152602001915080519060200190808383600083811015610a9c578181015183820152602001610a84565b5060008054604080517ffcfff16f0000000000000000000000000000000000000000000000000000000081529051600160a060020a039092169263fcfff16f9260048084019382900301818387803b158015611c1457600080fd5b604080516000808252602082019092527f2044e56de223845e4be7d0a6f4e9a29b635547f16413a6d1327c58d9db438ee291611f0a913391849190610a21565b60408051808201909152600f8152600080516020613bd98339815191526020820152901515611f7e5760405160e560020a62461bcd02815260040180806020018281038252838181518152602001915080519060200190808383600083811015610a9c578181015183820152602001610a84565b50600154604080517f94f9059f000000000000000000000000000000000000000000000000000000008152600160a060020a038581166004830152915191909216916394f9059f91602480830192600092919082900301818387803b158015610b3e57600080fd5b604080516000808252602082019092527f217b79cb2bc7760defc88529853ef81ab33ae5bb315408ce9f5af09c8776662d91612026913391849190610a21565b60408051808201909152600f8152600080516020613bd9833981519152602082015290151561209a5760405160e560020a62461bcd02815260040180806020018281038252838181518152602001915080519060200190808383600083811015610a9c578181015183820152602001610a84565b50600154604080517ffd531e03000000000000000000000000000000000000000000000000000000008152600160a060020a038b81166004830152602482018b9052604482018a905263ffffffff89166064830152608482018890529151919092169163fd531e039160a480830192600092919082900301818387803b15801561212357600080fd5b505af1158015612137573d6000803e3d6000fd5b50505050600160a060020a038816156121ca57600254604080517f6298e902000000000000000000000000000000000000000000000000000000008152600160a060020a038b8116600483015291519190921691636298e90291602480830192600092919082900301818387803b1580156121b157600080fd5b505af11580156121c5573d6000803e3d6000fd5b505050505b600083111561109057600354604080517fb897b628000000000000000000000000000000000000000000000000000000008152600160a060020a038b8116600483015260248201879052604482018690529151919092169163b897b62891606480830192600092919082900301818387803b15801561224857600080fd5b505af115801561225c573d6000803e3d6000fd5b505050505050505050505050565b600080600061227884611b77565b60408051808201909152601281527f5245434f5645525f444953414c4c4f574544000000000000000000000000000060208201529015156122fe5760405160e560020a62461bcd02815260040180806020018281038252838181518152602001915080519060200190808383600083811015610a9c578181015183820152602001610a84565b50612307610ec1565b9250612312836137ff565b60408051808201909152601a81527f5245434f5645525f5641554c545f4e4f545f434f4e545241435400000000000060208201529015156123985760405160e560020a62461bcd02815260040180806020018281038252838181518152602001915080519060200190808383600083811015610a9c578181015183820152602001610a84565b50600160a060020a03841615156123e95760405130319250600160a060020a0384169083156108fc029084906000818181858888f193505050501580156123e3573d6000803e3d6000fd5b506124a8565b5082612404600160a060020a0382163063ffffffff61382c16565b9150612420600160a060020a038216848463ffffffff61394116565b60408051808201909152601d81527f5245434f5645525f544f4b454e5f5452414e534645525f4641494c454400000060208201529015156124a65760405160e560020a62461bcd02815260040180806020018281038252838181518152602001915080519060200190808383600083811015610a9c578181015183820152602001610a84565b505b83600160a060020a031683600160a060020a03167f596caf56044b55fb8c4ca640089bbc2b63cae3e978b851f5745cbb7c5b288e02846040518082815260200191505060405180910390a350505050565b600080612504610b5a565b1515612513576000915061265a565b61251b612f51565b9050600160a060020a0381161515612536576000915061265a565b80600160a060020a031663fdef9106863087612551886139cc565b6040517c010000000000000000000000000000000000000000000000000000000063ffffffff8716028152600160a060020a03808616600483019081529085166024830152604482018490526080606483019081528351608484015283519192909160a490910190602085019080838360005b838110156125dc5781810151838201526020016125c4565b50505050905090810190601f1680156126095780820380516001836020036101000a031916815260200191505b5095505050505050602060405180830381600087803b15801561262b57600080fd5b505af115801561263f573d6000803e3d6000fd5b505050506040513d602081101561265557600080fd5b505191505b509392505050565b7f9ccaca4edf2127f20c425fdd86af1ba178b9e5bee280cd70d88ac5f6874c4f0781565b600080612691612f51565b604080517fbe00bbd80000000000000000000000000000000000000000000000000000000081527fd6f028ca0e8edb4a8c9757ca4fdccab25fa1e0317da1188108f7d2dee14902fb60048201527fddbcfd564f642ab5627cf68b9b7d374fb4f8a36e941a75d89c87998cef03bd6160248201529051600160a060020a03929092169163be00bbd8916044808201926020929091908290030181600087803b158015610e4757600080fd5b7fdb8c88bedbc61ea0f92e1ce46da0b7a915affbd46d1c76c4bbac9a209e4a841681565b7f2044e56de223845e4be7d0a6f4e9a29b635547f16413a6d1327c58d9db438ee281565b604080516000808252602082019092527fdb8c88bedbc61ea0f92e1ce46da0b7a915affbd46d1c76c4bbac9a209e4a8416916127c3913391849190610a21565b60408051808201909152600f8152600080516020613bd983398151915260208201529015156128375760405160e560020a62461bcd02815260040180806020018281038252838181518152602001915080519060200190808383600083811015610a9c578181015183820152602001610a84565b50600354604080517ff30a00ce000000000000000000000000000000000000000000000000000000008152600160a060020a03878116600483015260248201879052604482018690529151919092169163f30a00ce91606480830192600092919082900301818387803b15801561107c57600080fd5b7f5d94de7e429250eee4ff97e30ab9f383bea3cd564d6780e0a9e965b1add1d20781565b604080516000808252602082019092527f9ccaca4edf2127f20c425fdd86af1ba178b9e5bee280cd70d88ac5f6874c4f0791612911913391849190610a21565b60408051808201909152600f8152600080516020613bd983398151915260208201529015156129855760405160e560020a62461bcd02815260040180806020018281038252838181518152602001915080519060200190808383600083811015610a9c578181015183820152602001610a84565b5060008054604080517f8418cd99000000000000000000000000000000000000000000000000000000008152336004820152602481018690529051600160a060020a0390921692638418cd99923492604480820193929182900301818588803b15801561158657600080fd5b604080516000808252602082019092527f26ce034204208c0bbca4c8a793d17b99e546009b1dd31d3c1ef761f66372caf690612a31903390839085610a21565b60408051808201909152600f8152600080516020613bd98339815191526020820152901515612aa55760405160e560020a62461bcd02815260040180806020018281038252838181518152602001915080519060200190808383600083811015610a9c578181015183820152602001610a84565b50600091505b600454821015612c1f5760035460048054600092600160a060020a03169163a8734f0b9186908110612ad957fe5b6000918252602080832090910154604080517c010000000000000000000000000000000000000000000000000000000063ffffffff8716028152600160a060020a0390921660048301525160248083019491928390030190829087803b158015612b4257600080fd5b505af1158015612b56573d6000803e3d6000fd5b505050506040513d6020811015612b6c57600080fd5b505114612c145760035460048054600160a060020a0390921691639cbbba88919085908110612b9757fe5b6000918252602082200154604080517c010000000000000000000000000000000000000000000000000000000063ffffffff8616028152600160a060020a039092166004830152516024808301939282900301818387803b158015612bfb57600080fd5b505af1158015612c0f573d6000803e3d6000fd5b505050505b600190910190612aab565b600160009054906101000a9004600160a060020a0316600160a060020a031663fcfff16f6040518163ffffffff167c0100000000000000000000000000000000000000000000000000000000028152600401600060405180830381600087803b158015610b3e57600080fd5b7f57c9c67896cf0a4ffe92cbea66c2f7c34380af06bf14215dabb078cf8a6d99e181565b600254600160a060020a031681565b6004805482908110612ccc57fe5b600091825260209091200154600160a060020a0316905081565b7fd68ba2b769fa37a2a7bd4bed9241b448bc99eca41f519ef037406386a8f291c081565b604080516000808252602082019092527f57c9c67896cf0a4ffe92cbea66c2f7c34380af06bf14215dabb078cf8a6d99e191612d4a913391849190610a21565b60408051808201909152600f8152600080516020613bd98339815191526020820152901515612dbe5760405160e560020a62461bcd02815260040180806020018281038252838181518152602001915080519060200190808383600083811015610a9c578181015183820152602001610a84565b50600354604080517fd21bd820000000000000000000000000000000000000000000000000000000008152600481018590529051600160a060020a039092169163d21bd8209160248082019260009290919082900301818387803b158015610b3e57600080fd5b604080516000808252602082019092527fa589c8f284b76fc8d510d9d553485c47dbef1b0745ae00e0f3fd4e28fcd77ea791612e65913391849190610a21565b60408051808201909152600f8152600080516020613bd98339815191526020820152901515612ed95760405160e560020a62461bcd02815260040180806020018281038252838181518152602001915080519060200190808383600083811015610a9c578181015183820152602001610a84565b50600154604080517f3fae9bfb000000000000000000000000000000000000000000000000000000008152336004820152600160a060020a0386811660248301526044820186905291519190921691633fae9bfb91349160648082019260009290919082900301818588803b15801561107c57600080fd5b6000611ba87f4172f0f7d2289153072b0a6ca36959e0cbe2efc3afe50fc81636caa96338137b6137f7565b6000600019612f89611d6c565b14905090565b7f5d8e12c39142ff96d79d04d15d1ba1269e4fe57bb9d26f43523628b34ba108ec81565b6000612fbd610b5a565b6040805180820190915260148152600080516020613bf983398151915260208201529015156130315760405160e560020a62461bcd02815260040180806020018281038252838181518152602001915080519060200190808383600083811015610a9c578181015183820152602001610a84565b50600354604080517fe2a5aec5000000000000000000000000000000000000000000000000000000008152600160a060020a0385811660048301529151919092169163e2a5aec59160248083019260209291908290030181600087803b158015610e4757600080fd5b6000806130a5610b5a565b6040805180820190915260148152600080516020613bf983398151915260208201529015156131195760405160e560020a62461bcd02815260040180806020018281038252838181518152602001915080519060200190808383600083811015610a9c578181015183820152602001610a84565b50600160a060020a0383161561314757613142600160a060020a0384168563ffffffff61382c16565b613153565b83600160a060020a0316315b600254909150600160a060020a038581169116141561321957600354604080517fe2a5aec5000000000000000000000000000000000000000000000000000000008152600160a060020a038681166004830152915161321293929092169163e2a5aec5916024808201926020929091908290030181600087803b1580156131d957600080fd5b505af11580156131ed573d6000803e3d6000fd5b505050506040513d602081101561320357600080fd5b5051829063ffffffff6139d616565b915061321d565b8091505b5092915050565b600061322e611d6c565b60408051808201909152601881527f494e49545f414c52454144595f494e495449414c495a45440000000000000000602082015290156132b35760405160e560020a62461bcd02815260040180806020018281038252838181518152602001915080519060200190808383600083811015610a9c578181015183820152602001610a84565b506132bd876137ff565b60408051808201909152601b81527f46554e4452414953494e475f434f4e54524143545f49535f454f41000000000060208201529015156133435760405160e560020a62461bcd02815260040180806020018281038252838181518152602001915080519060200190808383600083811015610a9c578181015183820152602001610a84565b5061334d866137ff565b60408051808201909152601b81527f46554e4452414953494e475f434f4e54524143545f49535f454f41000000000060208201529015156133d35760405160e560020a62461bcd02815260040180806020018281038252838181518152602001915080519060200190808383600083811015610a9c578181015183820152602001610a84565b506133dd856137ff565b60408051808201909152601b81527f46554e4452414953494e475f434f4e54524143545f49535f454f41000000000060208201529015156134635760405160e560020a62461bcd02815260040180806020018281038252838181518152602001915080519060200190808383600083811015610a9c578181015183820152602001610a84565b5061346d846137ff565b60408051808201909152601b81527f46554e4452414953494e475f434f4e54524143545f49535f454f41000000000060208201529015156134f35760405160e560020a62461bcd02815260040180806020018281038252838181518152602001915080519060200190808383600083811015610a9c578181015183820152602001610a84565b5060408051808201909152601a81527f46554e4452414953494e475f494e56414c49445f544f4b454e530000000000006020820152600a831061357b5760405160e560020a62461bcd02815260040180806020018281038252838181518152602001915080519060200190808383600083811015610a9c578181015183820152602001610a84565b50613584613a6a565b5060008054600160a060020a0380891673ffffffffffffffffffffffffffffffffffffffff19928316178355600180548983169084161790556002805488831690841617905560038054918716919092161790555b8181101561159a576136058383838181106135f057fe5b90506020020135600160a060020a0316613b32565b60408051808201909152601a81527f46554e4452414953494e475f494e56414c49445f544f4b454e53000000000000602082015290151561368b5760405160e560020a62461bcd02815260040180806020018281038252838181518152602001915080519060200190808383600083811015610a9c578181015183820152602001610a84565b50600483838381811061369a57fe5b8354600181810186556000958652602095869020909101805473ffffffffffffffffffffffffffffffffffffffff1916600160a060020a03969093029490940135949094161790915550016135d9565b60006136f4610b5a565b6040805180820190915260148152600080516020613bf983398151915260208201529015156137685760405160e560020a62461bcd02815260040180806020018281038252838181518152602001915080519060200190808383600083811015610a9c578181015183820152602001610a84565b50600160009054906101000a9004600160a060020a0316600160a060020a031663fc0c546a6040518163ffffffff167c0100000000000000000000000000000000000000000000000000000000028152600401602060405180830381600087803b158015610f2157600080fd5b600354600160a060020a031681565b600054600160a060020a031681565b4390565b5490565b5490565b600080600160a060020a038316151561381b5760009150613826565b823b90506000811191505b50919050565b60408051600160a060020a0383166024808301919091528251808303909101815260449091019091526020810180517bffffffffffffffffffffffffffffffffffffffffffffffffffffffff167f70a082310000000000000000000000000000000000000000000000000000000017905260009081806138ac8684613b55565b60408051808201909152601c81527f534146455f4552435f32305f42414c414e43455f524556455254454400000000602082015291935091508215156139375760405160e560020a62461bcd02815260040180806020018281038252838181518152602001915080519060200190808383600083811015610a9c578181015183820152602001610a84565b5095945050505050565b60408051600160a060020a038416602482015260448082018490528251808303909101815260649091019091526020810180517bffffffffffffffffffffffffffffffffffffffffffffffffffffffff167fa9059cbb000000000000000000000000000000000000000000000000000000001790526000906139c38582613b86565b95945050505050565b8051602002815290565b60408051808201909152601281527f4d4154485f5355425f554e444552464c4f5700000000000000000000000000006020820152600090819084841115613a625760405160e560020a62461bcd02815260040180806020018281038252838181518152602001915080519060200190808383600083811015610a9c578181015183820152602001610a84565b505050900390565b613a72611d6c565b60408051808201909152601881527f494e49545f414c52454144595f494e495449414c495a4544000000000000000060208201529015613af75760405160e560020a62461bcd02815260040180806020018281038252838181518152602001915080519060200190808383600083811015610a9c578181015183820152602001610a84565b50613b30613b036137f3565b7febb05b386a8d34882b8711d156f463690983dc47815980fb82aeeff1aa43579e9063ffffffff613bd416565b565b6000613b3d826137ff565b80613b4f5750600160a060020a038216155b92915050565b6000806000806040516020818751602089018a5afa92506000831115613b7a57805191505b50909590945092505050565b6000806040516020818551602087016000895af16000811115613bca573d8015613bb75760208114613bc057613bc8565b60019350613bc8565b600183511493505b505b5090949350505050565b905556004150505f415554485f4641494c45440000000000000000000000000000000000494e49545f4e4f545f494e495449414c495a4544000000000000000000000000a165627a7a723058204ab0c7f6c7b6fa8fcb9fa791fb1356d3f9c229fec025087b9ddead4e23118d070029ebb05b386a8d34882b8711d156f463690983dc47815980fb82aeeff1aa43579e",
  "source": "pragma solidity 0.4.24;\n\nimport \"@aragon/os/contracts/apps/AragonApp.sol\";\nimport \"@aragon/os/contracts/common/EtherTokenConstant.sol\";\nimport \"@aragon/os/contracts/common/IsContract.sol\";\nimport \"@aragon/os/contracts/common/SafeERC20.sol\";\nimport \"@aragon/os/contracts/lib/math/SafeMath.sol\";\nimport \"@aragon/os/contracts/lib/token/ERC20.sol\";\nimport \"@aragon/apps-agent/contracts/Agent.sol\";\nimport \"@ablack/fundraising-batched-bancor-market-maker/contracts/BatchedBancorMarketMaker.sol\";\nimport \"@ablack/fundraising-shared-interfaces/contracts/IPresale.sol\";\nimport \"@ablack/fundraising-shared-interfaces/contracts/ITap.sol\";\nimport \"@ablack/fundraising-shared-interfaces/contracts/IAragonFundraisingController.sol\";\n\n\ncontract AragonFundraisingController is EtherTokenConstant, IsContract, IAragonFundraisingController, AragonApp {\n    using SafeERC20 for ERC20;\n    using SafeMath  for uint256;\n\n    /**\n    Hardcoded constants to save gas\n    bytes32 public constant UPDATE_BENEFICIARY_ROLE                    = keccak256(\"UPDATE_BENEFICIARY_ROLE\");\n    bytes32 public constant UPDATE_FEES_ROLE                           = keccak256(\"UPDATE_FEES_ROLE\");\n    bytes32 public constant ADD_COLLATERAL_TOKEN_ROLE                  = keccak256(\"ADD_COLLATERAL_TOKEN_ROLE\");\n    bytes32 public constant REMOVE_COLLATERAL_TOKEN_ROLE               = keccak256(\"REMOVE_COLLATERAL_TOKEN_ROLE\");\n    bytes32 public constant UPDATE_COLLATERAL_TOKEN_ROLE               = keccak256(\"UPDATE_COLLATERAL_TOKEN_ROLE\");\n    bytes32 public constant UPDATE_MAXIMUM_TAP_RATE_INCREASE_PCT_ROLE  = keccak256(\"UPDATE_MAXIMUM_TAP_RATE_INCREASE_PCT_ROLE\");\n    bytes32 public constant UPDATE_MAXIMUM_TAP_FLOOR_DECREASE_PCT_ROLE = keccak256(\"UPDATE_MAXIMUM_TAP_FLOOR_DECREASE_PCT_ROLE\");\n    bytes32 public constant ADD_TOKEN_TAP_ROLE                         = keccak256(\"ADD_TOKEN_TAP_ROLE\");\n    bytes32 public constant UPDATE_TOKEN_TAP_ROLE                      = keccak256(\"UPDATE_TOKEN_TAP_ROLE\");\n    bytes32 public constant OPEN_PRESALE_ROLE                          = keccak256(\"OPEN_PRESALE_ROLE\");\n    bytes32 public constant OPEN_TRADING_ROLE                          = keccak256(\"OPEN_TRADING_ROLE\");\n    bytes32 public constant CONTRIBUTE_ROLE                            = keccak256(\"CONTRIBUTE_ROLE\");\n    bytes32 public constant OPEN_BUY_ORDER_ROLE                        = keccak256(\"OPEN_BUY_ORDER_ROLE\");\n    bytes32 public constant OPEN_SELL_ORDER_ROLE                       = keccak256(\"OPEN_SELL_ORDER_ROLE\");\n    bytes32 public constant WITHDRAW_ROLE                              = keccak256(\"WITHDRAW_ROLE\");\n    */\n    bytes32 public constant UPDATE_BENEFICIARY_ROLE                    = 0xf7ea2b80c7b6a2cab2c11d2290cb005c3748397358a25e17113658c83b732593;\n    bytes32 public constant UPDATE_FEES_ROLE                           = 0x5f9be2932ed3a723f295a763be1804c7ebfd1a41c1348fb8bdf5be1c5cdca822;\n    bytes32 public constant ADD_COLLATERAL_TOKEN_ROLE                  = 0x217b79cb2bc7760defc88529853ef81ab33ae5bb315408ce9f5af09c8776662d;\n    bytes32 public constant REMOVE_COLLATERAL_TOKEN_ROLE               = 0x2044e56de223845e4be7d0a6f4e9a29b635547f16413a6d1327c58d9db438ee2;\n    bytes32 public constant UPDATE_COLLATERAL_TOKEN_ROLE               = 0xe0565c2c43e0d841e206bb36a37f12f22584b4652ccee6f9e0c071b697a2e13d;\n    bytes32 public constant UPDATE_MAXIMUM_TAP_RATE_INCREASE_PCT_ROLE  = 0x5d94de7e429250eee4ff97e30ab9f383bea3cd564d6780e0a9e965b1add1d207;\n    bytes32 public constant UPDATE_MAXIMUM_TAP_FLOOR_DECREASE_PCT_ROLE = 0x57c9c67896cf0a4ffe92cbea66c2f7c34380af06bf14215dabb078cf8a6d99e1;\n    bytes32 public constant ADD_TOKEN_TAP_ROLE                         = 0xbc9cb5e3f7ce81c4fd021d86a4bcb193dee9df315b540808c3ed59a81e596207;\n    bytes32 public constant UPDATE_TOKEN_TAP_ROLE                      = 0xdb8c88bedbc61ea0f92e1ce46da0b7a915affbd46d1c76c4bbac9a209e4a8416;\n    bytes32 public constant OPEN_PRESALE_ROLE                          = 0xf323aa41eef4850a8ae7ebd047d4c89f01ce49c781f3308be67303db9cdd48c2;\n    bytes32 public constant OPEN_TRADING_ROLE                          = 0x26ce034204208c0bbca4c8a793d17b99e546009b1dd31d3c1ef761f66372caf6;\n    bytes32 public constant CONTRIBUTE_ROLE                            = 0x9ccaca4edf2127f20c425fdd86af1ba178b9e5bee280cd70d88ac5f6874c4f07;\n    bytes32 public constant OPEN_BUY_ORDER_ROLE                        = 0xa589c8f284b76fc8d510d9d553485c47dbef1b0745ae00e0f3fd4e28fcd77ea7;\n    bytes32 public constant OPEN_SELL_ORDER_ROLE                       = 0xd68ba2b769fa37a2a7bd4bed9241b448bc99eca41f519ef037406386a8f291c0;\n    bytes32 public constant WITHDRAW_ROLE                              = 0x5d8e12c39142ff96d79d04d15d1ba1269e4fe57bb9d26f43523628b34ba108ec;\n\n    uint256 public constant TO_RESET_CAP = 10;\n\n    string private constant ERROR_CONTRACT_IS_EOA = \"FUNDRAISING_CONTRACT_IS_EOA\";\n    string private constant ERROR_INVALID_TOKENS  = \"FUNDRAISING_INVALID_TOKENS\";\n\n    IPresale                 public presale;\n    BatchedBancorMarketMaker public marketMaker;\n    Agent                    public reserve;\n    ITap                     public tap;\n    address[]                public toReset;\n\n\n    /***** external functions *****/\n\n    /**\n     * @notice Initialize Aragon Fundraising controller\n     * @param _presale     The address of the presale contract\n     * @param _marketMaker The address of the market maker contract\n     * @param _reserve     The address of the reserve [pool] contract\n     * @param _tap         The address of the tap contract\n     * @param _toReset     The addresses of the tokens whose tap timestamps are to be reset [when presale is closed and trading is open]\n    */\n    function initialize(\n        IPresale                 _presale,\n        BatchedBancorMarketMaker _marketMaker,\n        Agent                    _reserve,\n        ITap                     _tap,\n        address[]                _toReset\n    )\n        external\n        onlyInit\n    {\n        require(isContract(_presale),           ERROR_CONTRACT_IS_EOA);\n        require(isContract(_marketMaker),       ERROR_CONTRACT_IS_EOA);\n        require(isContract(_reserve),           ERROR_CONTRACT_IS_EOA);\n        require(isContract(_tap),               ERROR_CONTRACT_IS_EOA);\n        require(_toReset.length < TO_RESET_CAP, ERROR_INVALID_TOKENS);\n\n        initialized();\n\n        presale = _presale;\n        marketMaker = _marketMaker;\n        reserve = _reserve;\n        tap = _tap;\n\n        for (uint256 i = 0; i < _toReset.length; i++) {\n            require(_tokenIsContractOrETH(_toReset[i]), ERROR_INVALID_TOKENS);\n            toReset.push(_toReset[i]);\n        }\n    }\n\n    /* generic settings related function */\n\n    /**\n     * @notice Update beneficiary to `_beneficiary`\n     * @param _beneficiary The address of the new beneficiary\n    */\n    function updateBeneficiary(address _beneficiary) external auth(UPDATE_BENEFICIARY_ROLE) {\n        marketMaker.updateBeneficiary(_beneficiary);\n        tap.updateBeneficiary(_beneficiary);\n    }\n\n    /**\n     * @notice Update fees deducted from buy and sell orders to respectively `@formatPct(_buyFeePct)`% and `@formatPct(_sellFeePct)`%\n     * @param _buyFeePct  The new fee to be deducted from buy orders [in PCT_BASE]\n     * @param _sellFeePct The new fee to be deducted from sell orders [in PCT_BASE]\n    */\n    function updateFees(uint256 _buyFeePct, uint256 _sellFeePct) external auth(UPDATE_FEES_ROLE) {\n        marketMaker.updateFees(_buyFeePct, _sellFeePct);\n    }\n\n    /* presale related functions */\n\n    /**\n     * @notice Open presale\n    */\n    function openPresale() external auth(OPEN_PRESALE_ROLE) {\n        presale.open();\n    }\n\n    /**\n     * @notice Close presale and open trading\n    */\n    function closePresale() external isInitialized {\n        presale.close();\n    }\n\n    /**\n     * @notice Contribute to the presale up to `@tokenAmount(self.contributionToken(): address, _value)`\n     * @param _value The amount of contribution token to be spent\n    */\n    function contribute(uint256 _value) external payable auth(CONTRIBUTE_ROLE) {\n        presale.contribute.value(msg.value)(msg.sender, _value);\n    }\n\n    /**\n     * @notice Refund `_contributor`'s presale contribution #`_vestedPurchaseId`\n     * @param _contributor      The address of the contributor whose presale contribution is to be refunded\n     * @param _vestedPurchaseId The id of the contribution to be refunded\n    */\n    function refund(address _contributor, uint256 _vestedPurchaseId) external isInitialized {\n        presale.refund(_contributor, _vestedPurchaseId);\n    }\n\n    /* market making related functions */\n\n    /**\n     * @notice Open trading [enabling users to open buy and sell orders]\n    */\n    function openTrading() external auth(OPEN_TRADING_ROLE) {\n        for (uint256 i = 0; i < toReset.length; i++) {\n            if (tap.rates(toReset[i]) != uint256(0)) {\n                tap.resetTappedToken(toReset[i]);\n            }\n        }\n\n        marketMaker.open();\n    }\n\n    /**\n     * @notice Open a buy order worth `@tokenAmount(_collateral, _value)`\n     * @param _collateral The address of the collateral token to be spent\n     * @param _value      The amount of collateral token to be spent\n    */\n    function openBuyOrder(address _collateral, uint256 _value) external payable auth(OPEN_BUY_ORDER_ROLE) {\n        marketMaker.openBuyOrder.value(msg.value)(msg.sender, _collateral, _value);\n    }\n\n    /**\n     * @notice Open a sell order worth `@tokenAmount(self.token(): address, _amount)` against `_collateral.symbol(): string`\n     * @param _collateral The address of the collateral token to be returned\n     * @param _amount     The amount of bonded token to be spent\n    */\n    function openSellOrder(address _collateral, uint256 _amount) external auth(OPEN_SELL_ORDER_ROLE) {\n        marketMaker.openSellOrder(msg.sender, _collateral, _amount);\n    }\n\n    /**\n     * @notice Claim the results of `_collateral.symbol(): string` buy orders from batch #`_batchId`\n     * @param _buyer      The address of the user whose buy orders are to be claimed\n     * @param _batchId    The id of the batch in which buy orders are to be claimed\n     * @param _collateral The address of the collateral token against which buy orders are to be claimed\n    */\n    function claimBuyOrder(address _buyer, uint256 _batchId, address _collateral) external isInitialized {\n        marketMaker.claimBuyOrder(_buyer, _batchId, _collateral);\n    }\n\n    /**\n     * @notice Claim the results of `_collateral.symbol(): string` sell orders from batch #`_batchId`\n     * @param _seller     The address of the user whose sell orders are to be claimed\n     * @param _batchId    The id of the batch in which sell orders are to be claimed\n     * @param _collateral The address of the collateral token against which sell orders are to be claimed\n    */\n    function claimSellOrder(address _seller, uint256 _batchId, address _collateral) external isInitialized {\n        marketMaker.claimSellOrder(_seller, _batchId, _collateral);\n    }\n\n    /* collateral tokens related functions */\n\n    /**\n     * @notice Add `_collateral.symbol(): string` as a whitelisted collateral token\n     * @param _collateral     The address of the collateral token to be whitelisted\n     * @param _virtualSupply  The virtual supply to be used for that collateral token [in wei]\n     * @param _virtualBalance The virtual balance to be used for that collateral token [in wei]\n     * @param _reserveRatio   The reserve ratio to be used for that collateral token [in PPM]\n     * @param _slippage       The price slippage below which each market making batch is to be kept for that collateral token [in PCT_BASE]\n     * @param _rate           The rate at which that token is to be tapped [in wei / block]\n     * @param _floor          The floor above which the reserve [pool] balance for that token is to be kept [in wei]\n    */\n    function addCollateralToken(\n        address _collateral,\n        uint256 _virtualSupply,\n        uint256 _virtualBalance,\n        uint32  _reserveRatio,\n        uint256 _slippage,\n        uint256 _rate,\n        uint256 _floor\n    )\n    \texternal\n        auth(ADD_COLLATERAL_TOKEN_ROLE)\n    {\n        marketMaker.addCollateralToken(_collateral, _virtualSupply, _virtualBalance, _reserveRatio, _slippage);\n        if (_collateral != ETH) {\n            reserve.addProtectedToken(_collateral);\n        }\n        if (_rate > 0) {\n            tap.addTappedToken(_collateral, _rate, _floor);\n        }\n    }\n\n    /**\n     * @notice Re-add `_collateral.symbol(): string` as a whitelisted collateral token [if it has been un-whitelisted in the past]\n     * @param _collateral     The address of the collateral token to be whitelisted\n     * @param _virtualSupply  The virtual supply to be used for that collateral token [in wei]\n     * @param _virtualBalance The virtual balance to be used for that collateral token [in wei]\n     * @param _reserveRatio   The reserve ratio to be used for that collateral token [in PPM]\n     * @param _slippage       The price slippage below which each market making batch is to be kept for that collateral token [in PCT_BASE]\n    */\n    function reAddCollateralToken(\n        address _collateral,\n        uint256 _virtualSupply,\n        uint256 _virtualBalance,\n        uint32  _reserveRatio,\n        uint256 _slippage\n    )\n    \texternal\n        auth(ADD_COLLATERAL_TOKEN_ROLE)\n    {\n        marketMaker.addCollateralToken(_collateral, _virtualSupply, _virtualBalance, _reserveRatio, _slippage);\n    }\n\n    /**\n      * @notice Remove `_collateral.symbol(): string` as a whitelisted collateral token\n      * @param _collateral The address of the collateral token to be un-whitelisted\n    */\n    function removeCollateralToken(address _collateral) external auth(REMOVE_COLLATERAL_TOKEN_ROLE) {\n        marketMaker.removeCollateralToken(_collateral);\n        // the token should still be tapped to avoid being locked\n        // the token should still be protected to avoid being spent\n    }\n\n    /**\n     * @notice Update `_collateral.symbol(): string` collateralization settings\n     * @param _collateral     The address of the collateral token whose collateralization settings are to be updated\n     * @param _virtualSupply  The new virtual supply to be used for that collateral token [in wei]\n     * @param _virtualBalance The new virtual balance to be used for that collateral token [in wei]\n     * @param _reserveRatio   The new reserve ratio to be used for that collateral token [in PPM]\n     * @param _slippage       The new price slippage below which each market making batch is to be kept for that collateral token [in PCT_BASE]\n    */\n    function updateCollateralToken(\n        address _collateral,\n        uint256 _virtualSupply,\n        uint256 _virtualBalance,\n        uint32  _reserveRatio,\n        uint256 _slippage\n    )\n        external\n        auth(UPDATE_COLLATERAL_TOKEN_ROLE)\n    {\n        marketMaker.updateCollateralToken(_collateral, _virtualSupply, _virtualBalance, _reserveRatio, _slippage);\n    }\n\n    /* tap related functions */\n\n    /**\n     * @notice Update maximum tap rate increase percentage to `@formatPct(_maximumTapRateIncreasePct)`%\n     * @param _maximumTapRateIncreasePct The new maximum tap rate increase percentage to be allowed [in PCT_BASE]\n    */\n    function updateMaximumTapRateIncreasePct(uint256 _maximumTapRateIncreasePct) external auth(UPDATE_MAXIMUM_TAP_RATE_INCREASE_PCT_ROLE) {\n        tap.updateMaximumTapRateIncreasePct(_maximumTapRateIncreasePct);\n    }\n\n    /**\n     * @notice Update maximum tap floor decrease percentage to `@formatPct(_maximumTapFloorDecreasePct)`%\n     * @param _maximumTapFloorDecreasePct The new maximum tap floor decrease percentage to be allowed [in PCT_BASE]\n    */\n    function updateMaximumTapFloorDecreasePct(uint256 _maximumTapFloorDecreasePct) external auth(UPDATE_MAXIMUM_TAP_FLOOR_DECREASE_PCT_ROLE) {\n        tap.updateMaximumTapFloorDecreasePct(_maximumTapFloorDecreasePct);\n    }\n\n    /**\n     * @notice Add tap for `_token.symbol(): string` with a rate of `@tokenAmount(_token, _rate)` per block and a floor of `@tokenAmount(_token, _floor)`\n     * @param _token The address of the token to be tapped\n     * @param _rate  The rate at which that token is to be tapped [in wei / block]\n     * @param _floor The floor above which the reserve [pool] balance for that token is to be kept [in wei]\n    */\n    function addTokenTap(address _token, uint256 _rate, uint256 _floor) external auth(ADD_TOKEN_TAP_ROLE) {\n        tap.addTappedToken(_token, _rate, _floor);\n    }\n\n    /**\n     * @notice Update tap for `_token.symbol(): string` with a rate of about `@tokenAmount(_token, 4 * 60 * 24 * 30 * _rate)` per month and a floor of `@tokenAmount(_token, _floor)`\n     * @param _token The address of the token whose tap is to be updated\n     * @param _rate  The new rate at which that token is to be tapped [in wei / block]\n     * @param _floor The new floor above which the reserve [pool] balance for that token is to be kept [in wei]\n    */\n    function updateTokenTap(address _token, uint256 _rate, uint256 _floor) external auth(UPDATE_TOKEN_TAP_ROLE) {\n        tap.updateTappedToken(_token, _rate, _floor);\n    }\n\n    /**\n     * @notice Update tapped amount for `_token.symbol(): string`\n     * @param _token The address of the token whose tapped amount is to be updated\n    */\n    function updateTappedAmount(address _token) external {\n        tap.updateTappedAmount(_token);\n    }\n\n    /**\n     * @notice Transfer about `@tokenAmount(_token, self.getMaximumWithdrawal(_token): uint256)` from the reserve to the beneficiary\n     * @param _token The address of the token to be transfered from the reserve to the beneficiary\n    */\n    function withdraw(address _token) external auth(WITHDRAW_ROLE) {\n        tap.withdraw(_token);\n    }\n\n    /***** public view functions *****/\n\n    function token() public view isInitialized returns (address) {\n        return marketMaker.token();\n    }\n\n    function contributionToken() public view isInitialized returns (address) {\n        return presale.contributionToken();\n    }\n\n    function getMaximumWithdrawal(address _token) public view isInitialized returns (uint256) {\n        return tap.getMaximumWithdrawal(_token);\n    }\n\n    function collateralsToBeClaimed(address _collateral) public view isInitialized returns (uint256) {\n        return marketMaker.collateralsToBeClaimed(_collateral);\n    }\n\n    function balanceOf(address _who, address _token) public view isInitialized returns (uint256) {\n        uint256 balance = _token == ETH ? _who.balance : ERC20(_token).staticBalanceOf(_who);\n\n        if (_who == address(reserve)) {\n            return balance.sub(tap.getMaximumWithdrawal(_token));\n        } else {\n            return balance;\n        }\n    }\n\n    /***** internal functions *****/\n\n     function _tokenIsContractOrETH(address _token) internal view returns (bool) {\n        return isContract(_token) || _token == ETH;\n    }\n}\n",
  "sourcePath": "/Users/jonybang/workspace/fundraising/apps/aragon-fundraising/contracts/AragonFundraisingController.sol",
  "compiler": {
    "name": "solc",
    "version": "0.4.24+commit.e67f0147.Emscripten.clang"
  },
  "schemaVersion": "2.0.1",
  "updatedAt": "2020-02-08T20:29:35.891Z"
}