{
  "contractName": "BatchedBancorMarketMaker",
  "abi": [
    {
      "constant": true,
      "inputs": [],
      "name": "hasInitialized",
      "outputs": [
        {
          "name": "",
          "type": "bool"
        }
      ],
      "payable": false,
      "stateMutability": "view",
      "type": "function"
    },
    {
      "constant": true,
      "inputs": [],
      "name": "PPM",
      "outputs": [
        {
          "name": "",
          "type": "uint32"
        }
      ],
      "payable": false,
      "stateMutability": "view",
      "type": "function"
    },
    {
      "constant": true,
      "inputs": [],
      "name": "UPDATE_FORMULA_ROLE",
      "outputs": [
        {
          "name": "",
          "type": "bytes32"
        }
      ],
      "payable": false,
      "stateMutability": "view",
      "type": "function"
    },
    {
      "constant": true,
      "inputs": [
        {
          "name": "",
          "type": "uint256"
        }
      ],
      "name": "metaBatches",
      "outputs": [
        {
          "name": "initialized",
          "type": "bool"
        },
        {
          "name": "realSupply",
          "type": "uint256"
        },
        {
          "name": "buyFeePct",
          "type": "uint256"
        },
        {
          "name": "sellFeePct",
          "type": "uint256"
        },
        {
          "name": "formula",
          "type": "address"
        }
      ],
      "payable": false,
      "stateMutability": "view",
      "type": "function"
    },
    {
      "constant": true,
      "inputs": [
        {
          "name": "_script",
          "type": "bytes"
        }
      ],
      "name": "getEVMScriptExecutor",
      "outputs": [
        {
          "name": "",
          "type": "address"
        }
      ],
      "payable": false,
      "stateMutability": "view",
      "type": "function"
    },
    {
      "constant": true,
      "inputs": [],
      "name": "tokenManager",
      "outputs": [
        {
          "name": "",
          "type": "address"
        }
      ],
      "payable": false,
      "stateMutability": "view",
      "type": "function"
    },
    {
      "constant": true,
      "inputs": [],
      "name": "OPEN_BUY_ORDER_ROLE",
      "outputs": [
        {
          "name": "",
          "type": "bytes32"
        }
      ],
      "payable": false,
      "stateMutability": "view",
      "type": "function"
    },
    {
      "constant": true,
      "inputs": [],
      "name": "UPDATE_COLLATERAL_TOKEN_ROLE",
      "outputs": [
        {
          "name": "",
          "type": "bytes32"
        }
      ],
      "payable": false,
      "stateMutability": "view",
      "type": "function"
    },
    {
      "constant": true,
      "inputs": [],
      "name": "getRecoveryVault",
      "outputs": [
        {
          "name": "",
          "type": "address"
        }
      ],
      "payable": false,
      "stateMutability": "view",
      "type": "function"
    },
    {
      "constant": true,
      "inputs": [],
      "name": "beneficiary",
      "outputs": [
        {
          "name": "",
          "type": "address"
        }
      ],
      "payable": false,
      "stateMutability": "view",
      "type": "function"
    },
    {
      "constant": true,
      "inputs": [],
      "name": "UPDATE_BENEFICIARY_ROLE",
      "outputs": [
        {
          "name": "",
          "type": "bytes32"
        }
      ],
      "payable": false,
      "stateMutability": "view",
      "type": "function"
    },
    {
      "constant": true,
      "inputs": [],
      "name": "isOpen",
      "outputs": [
        {
          "name": "",
          "type": "bool"
        }
      ],
      "payable": false,
      "stateMutability": "view",
      "type": "function"
    },
    {
      "constant": true,
      "inputs": [
        {
          "name": "",
          "type": "address"
        }
      ],
      "name": "collateralsToBeClaimed",
      "outputs": [
        {
          "name": "",
          "type": "uint256"
        }
      ],
      "payable": false,
      "stateMutability": "view",
      "type": "function"
    },
    {
      "constant": true,
      "inputs": [],
      "name": "formula",
      "outputs": [
        {
          "name": "",
          "type": "address"
        }
      ],
      "payable": false,
      "stateMutability": "view",
      "type": "function"
    },
    {
      "constant": true,
      "inputs": [],
      "name": "ADD_COLLATERAL_TOKEN_ROLE",
      "outputs": [
        {
          "name": "",
          "type": "bytes32"
        }
      ],
      "payable": false,
      "stateMutability": "view",
      "type": "function"
    },
    {
      "constant": true,
      "inputs": [],
      "name": "UPDATE_FEES_ROLE",
      "outputs": [
        {
          "name": "",
          "type": "bytes32"
        }
      ],
      "payable": false,
      "stateMutability": "view",
      "type": "function"
    },
    {
      "constant": true,
      "inputs": [],
      "name": "OPEN_ROLE",
      "outputs": [
        {
          "name": "",
          "type": "bytes32"
        }
      ],
      "payable": false,
      "stateMutability": "view",
      "type": "function"
    },
    {
      "constant": true,
      "inputs": [],
      "name": "sellFeePct",
      "outputs": [
        {
          "name": "",
          "type": "uint256"
        }
      ],
      "payable": false,
      "stateMutability": "view",
      "type": "function"
    },
    {
      "constant": true,
      "inputs": [
        {
          "name": "token",
          "type": "address"
        }
      ],
      "name": "allowRecoverability",
      "outputs": [
        {
          "name": "",
          "type": "bool"
        }
      ],
      "payable": false,
      "stateMutability": "view",
      "type": "function"
    },
    {
      "constant": true,
      "inputs": [],
      "name": "appId",
      "outputs": [
        {
          "name": "",
          "type": "bytes32"
        }
      ],
      "payable": false,
      "stateMutability": "view",
      "type": "function"
    },
    {
      "constant": true,
      "inputs": [],
      "name": "getInitializationBlock",
      "outputs": [
        {
          "name": "",
          "type": "uint256"
        }
      ],
      "payable": false,
      "stateMutability": "view",
      "type": "function"
    },
    {
      "constant": true,
      "inputs": [],
      "name": "tokensToBeMinted",
      "outputs": [
        {
          "name": "",
          "type": "uint256"
        }
      ],
      "payable": false,
      "stateMutability": "view",
      "type": "function"
    },
    {
      "constant": false,
      "inputs": [
        {
          "name": "_token",
          "type": "address"
        }
      ],
      "name": "transferToVault",
      "outputs": [],
      "payable": false,
      "stateMutability": "nonpayable",
      "type": "function"
    },
    {
      "constant": true,
      "inputs": [
        {
          "name": "_sender",
          "type": "address"
        },
        {
          "name": "_role",
          "type": "bytes32"
        },
        {
          "name": "_params",
          "type": "uint256[]"
        }
      ],
      "name": "canPerform",
      "outputs": [
        {
          "name": "",
          "type": "bool"
        }
      ],
      "payable": false,
      "stateMutability": "view",
      "type": "function"
    },
    {
      "constant": true,
      "inputs": [],
      "name": "getEVMScriptRegistry",
      "outputs": [
        {
          "name": "",
          "type": "address"
        }
      ],
      "payable": false,
      "stateMutability": "view",
      "type": "function"
    },
    {
      "constant": true,
      "inputs": [],
      "name": "REMOVE_COLLATERAL_TOKEN_ROLE",
      "outputs": [
        {
          "name": "",
          "type": "bytes32"
        }
      ],
      "payable": false,
      "stateMutability": "view",
      "type": "function"
    },
    {
      "constant": true,
      "inputs": [],
      "name": "batchBlocks",
      "outputs": [
        {
          "name": "",
          "type": "uint256"
        }
      ],
      "payable": false,
      "stateMutability": "view",
      "type": "function"
    },
    {
      "constant": true,
      "inputs": [],
      "name": "reserve",
      "outputs": [
        {
          "name": "",
          "type": "address"
        }
      ],
      "payable": false,
      "stateMutability": "view",
      "type": "function"
    },
    {
      "constant": true,
      "inputs": [],
      "name": "OPEN_SELL_ORDER_ROLE",
      "outputs": [
        {
          "name": "",
          "type": "bytes32"
        }
      ],
      "payable": false,
      "stateMutability": "view",
      "type": "function"
    },
    {
      "constant": true,
      "inputs": [],
      "name": "kernel",
      "outputs": [
        {
          "name": "",
          "type": "address"
        }
      ],
      "payable": false,
      "stateMutability": "view",
      "type": "function"
    },
    {
      "constant": true,
      "inputs": [],
      "name": "isPetrified",
      "outputs": [
        {
          "name": "",
          "type": "bool"
        }
      ],
      "payable": false,
      "stateMutability": "view",
      "type": "function"
    },
    {
      "constant": true,
      "inputs": [
        {
          "name": "",
          "type": "address"
        }
      ],
      "name": "collaterals",
      "outputs": [
        {
          "name": "whitelisted",
          "type": "bool"
        },
        {
          "name": "virtualSupply",
          "type": "uint256"
        },
        {
          "name": "virtualBalance",
          "type": "uint256"
        },
        {
          "name": "reserveRatio",
          "type": "uint32"
        },
        {
          "name": "slippage",
          "type": "uint256"
        }
      ],
      "payable": false,
      "stateMutability": "view",
      "type": "function"
    },
    {
      "constant": true,
      "inputs": [],
      "name": "controller",
      "outputs": [
        {
          "name": "",
          "type": "address"
        }
      ],
      "payable": false,
      "stateMutability": "view",
      "type": "function"
    },
    {
      "constant": true,
      "inputs": [],
      "name": "buyFeePct",
      "outputs": [
        {
          "name": "",
          "type": "uint256"
        }
      ],
      "payable": false,
      "stateMutability": "view",
      "type": "function"
    },
    {
      "constant": true,
      "inputs": [],
      "name": "token",
      "outputs": [
        {
          "name": "",
          "type": "address"
        }
      ],
      "payable": false,
      "stateMutability": "view",
      "type": "function"
    },
    {
      "constant": true,
      "inputs": [],
      "name": "PCT_BASE",
      "outputs": [
        {
          "name": "",
          "type": "uint256"
        }
      ],
      "payable": false,
      "stateMutability": "view",
      "type": "function"
    },
    {
      "anonymous": false,
      "inputs": [
        {
          "indexed": true,
          "name": "beneficiary",
          "type": "address"
        }
      ],
      "name": "UpdateBeneficiary",
      "type": "event"
    },
    {
      "anonymous": false,
      "inputs": [
        {
          "indexed": true,
          "name": "formula",
          "type": "address"
        }
      ],
      "name": "UpdateFormula",
      "type": "event"
    },
    {
      "anonymous": false,
      "inputs": [
        {
          "indexed": false,
          "name": "buyFeePct",
          "type": "uint256"
        },
        {
          "indexed": false,
          "name": "sellFeePct",
          "type": "uint256"
        }
      ],
      "name": "UpdateFees",
      "type": "event"
    },
    {
      "anonymous": false,
      "inputs": [
        {
          "indexed": true,
          "name": "id",
          "type": "uint256"
        },
        {
          "indexed": false,
          "name": "supply",
          "type": "uint256"
        },
        {
          "indexed": false,
          "name": "buyFeePct",
          "type": "uint256"
        },
        {
          "indexed": false,
          "name": "sellFeePct",
          "type": "uint256"
        },
        {
          "indexed": false,
          "name": "formula",
          "type": "address"
        }
      ],
      "name": "NewMetaBatch",
      "type": "event"
    },
    {
      "anonymous": false,
      "inputs": [
        {
          "indexed": true,
          "name": "id",
          "type": "uint256"
        },
        {
          "indexed": true,
          "name": "collateral",
          "type": "address"
        },
        {
          "indexed": false,
          "name": "supply",
          "type": "uint256"
        },
        {
          "indexed": false,
          "name": "balance",
          "type": "uint256"
        },
        {
          "indexed": false,
          "name": "reserveRatio",
          "type": "uint32"
        },
        {
          "indexed": false,
          "name": "slippage",
          "type": "uint256"
        }
      ],
      "name": "NewBatch",
      "type": "event"
    },
    {
      "anonymous": false,
      "inputs": [
        {
          "indexed": true,
          "name": "id",
          "type": "uint256"
        },
        {
          "indexed": true,
          "name": "collateral",
          "type": "address"
        }
      ],
      "name": "CancelBatch",
      "type": "event"
    },
    {
      "anonymous": false,
      "inputs": [
        {
          "indexed": true,
          "name": "collateral",
          "type": "address"
        },
        {
          "indexed": false,
          "name": "virtualSupply",
          "type": "uint256"
        },
        {
          "indexed": false,
          "name": "virtualBalance",
          "type": "uint256"
        },
        {
          "indexed": false,
          "name": "reserveRatio",
          "type": "uint32"
        },
        {
          "indexed": false,
          "name": "slippage",
          "type": "uint256"
        }
      ],
      "name": "AddCollateralToken",
      "type": "event"
    },
    {
      "anonymous": false,
      "inputs": [
        {
          "indexed": true,
          "name": "collateral",
          "type": "address"
        }
      ],
      "name": "RemoveCollateralToken",
      "type": "event"
    },
    {
      "anonymous": false,
      "inputs": [
        {
          "indexed": true,
          "name": "collateral",
          "type": "address"
        },
        {
          "indexed": false,
          "name": "virtualSupply",
          "type": "uint256"
        },
        {
          "indexed": false,
          "name": "virtualBalance",
          "type": "uint256"
        },
        {
          "indexed": false,
          "name": "reserveRatio",
          "type": "uint32"
        },
        {
          "indexed": false,
          "name": "slippage",
          "type": "uint256"
        }
      ],
      "name": "UpdateCollateralToken",
      "type": "event"
    },
    {
      "anonymous": false,
      "inputs": [],
      "name": "Open",
      "type": "event"
    },
    {
      "anonymous": false,
      "inputs": [
        {
          "indexed": true,
          "name": "buyer",
          "type": "address"
        },
        {
          "indexed": true,
          "name": "batchId",
          "type": "uint256"
        },
        {
          "indexed": true,
          "name": "collateral",
          "type": "address"
        },
        {
          "indexed": false,
          "name": "fee",
          "type": "uint256"
        },
        {
          "indexed": false,
          "name": "value",
          "type": "uint256"
        }
      ],
      "name": "OpenBuyOrder",
      "type": "event"
    },
    {
      "anonymous": false,
      "inputs": [
        {
          "indexed": true,
          "name": "seller",
          "type": "address"
        },
        {
          "indexed": true,
          "name": "batchId",
          "type": "uint256"
        },
        {
          "indexed": true,
          "name": "collateral",
          "type": "address"
        },
        {
          "indexed": false,
          "name": "amount",
          "type": "uint256"
        }
      ],
      "name": "OpenSellOrder",
      "type": "event"
    },
    {
      "anonymous": false,
      "inputs": [
        {
          "indexed": true,
          "name": "buyer",
          "type": "address"
        },
        {
          "indexed": true,
          "name": "batchId",
          "type": "uint256"
        },
        {
          "indexed": true,
          "name": "collateral",
          "type": "address"
        },
        {
          "indexed": false,
          "name": "amount",
          "type": "uint256"
        }
      ],
      "name": "ClaimBuyOrder",
      "type": "event"
    },
    {
      "anonymous": false,
      "inputs": [
        {
          "indexed": true,
          "name": "seller",
          "type": "address"
        },
        {
          "indexed": true,
          "name": "batchId",
          "type": "uint256"
        },
        {
          "indexed": true,
          "name": "collateral",
          "type": "address"
        },
        {
          "indexed": false,
          "name": "fee",
          "type": "uint256"
        },
        {
          "indexed": false,
          "name": "value",
          "type": "uint256"
        }
      ],
      "name": "ClaimSellOrder",
      "type": "event"
    },
    {
      "anonymous": false,
      "inputs": [
        {
          "indexed": true,
          "name": "buyer",
          "type": "address"
        },
        {
          "indexed": true,
          "name": "batchId",
          "type": "uint256"
        },
        {
          "indexed": true,
          "name": "collateral",
          "type": "address"
        },
        {
          "indexed": false,
          "name": "value",
          "type": "uint256"
        }
      ],
      "name": "ClaimCancelledBuyOrder",
      "type": "event"
    },
    {
      "anonymous": false,
      "inputs": [
        {
          "indexed": true,
          "name": "seller",
          "type": "address"
        },
        {
          "indexed": true,
          "name": "batchId",
          "type": "uint256"
        },
        {
          "indexed": true,
          "name": "collateral",
          "type": "address"
        },
        {
          "indexed": false,
          "name": "amount",
          "type": "uint256"
        }
      ],
      "name": "ClaimCancelledSellOrder",
      "type": "event"
    },
    {
      "anonymous": false,
      "inputs": [
        {
          "indexed": true,
          "name": "batchId",
          "type": "uint256"
        },
        {
          "indexed": true,
          "name": "collateral",
          "type": "address"
        },
        {
          "indexed": false,
          "name": "totalBuySpend",
          "type": "uint256"
        },
        {
          "indexed": false,
          "name": "totalBuyReturn",
          "type": "uint256"
        },
        {
          "indexed": false,
          "name": "totalSellSpend",
          "type": "uint256"
        },
        {
          "indexed": false,
          "name": "totalSellReturn",
          "type": "uint256"
        }
      ],
      "name": "UpdatePricing",
      "type": "event"
    },
    {
      "anonymous": false,
      "inputs": [
        {
          "indexed": true,
          "name": "executor",
          "type": "address"
        },
        {
          "indexed": false,
          "name": "script",
          "type": "bytes"
        },
        {
          "indexed": false,
          "name": "input",
          "type": "bytes"
        },
        {
          "indexed": false,
          "name": "returnData",
          "type": "bytes"
        }
      ],
      "name": "ScriptResult",
      "type": "event"
    },
    {
      "anonymous": false,
      "inputs": [
        {
          "indexed": true,
          "name": "vault",
          "type": "address"
        },
        {
          "indexed": true,
          "name": "token",
          "type": "address"
        },
        {
          "indexed": false,
          "name": "amount",
          "type": "uint256"
        }
      ],
      "name": "RecoverToVault",
      "type": "event"
    },
    {
      "constant": false,
      "inputs": [
        {
          "name": "_controller",
          "type": "address"
        },
        {
          "name": "_tokenManager",
          "type": "address"
        },
        {
          "name": "_formula",
          "type": "address"
        },
        {
          "name": "_reserve",
          "type": "address"
        },
        {
          "name": "_beneficiary",
          "type": "address"
        },
        {
          "name": "_batchBlocks",
          "type": "uint256"
        },
        {
          "name": "_buyFeePct",
          "type": "uint256"
        },
        {
          "name": "_sellFeePct",
          "type": "uint256"
        }
      ],
      "name": "initialize",
      "outputs": [],
      "payable": false,
      "stateMutability": "nonpayable",
      "type": "function"
    },
    {
      "constant": false,
      "inputs": [],
      "name": "open",
      "outputs": [],
      "payable": false,
      "stateMutability": "nonpayable",
      "type": "function"
    },
    {
      "constant": false,
      "inputs": [
        {
          "name": "_formula",
          "type": "address"
        }
      ],
      "name": "updateFormula",
      "outputs": [],
      "payable": false,
      "stateMutability": "nonpayable",
      "type": "function"
    },
    {
      "constant": false,
      "inputs": [
        {
          "name": "_beneficiary",
          "type": "address"
        }
      ],
      "name": "updateBeneficiary",
      "outputs": [],
      "payable": false,
      "stateMutability": "nonpayable",
      "type": "function"
    },
    {
      "constant": false,
      "inputs": [
        {
          "name": "_buyFeePct",
          "type": "uint256"
        },
        {
          "name": "_sellFeePct",
          "type": "uint256"
        }
      ],
      "name": "updateFees",
      "outputs": [],
      "payable": false,
      "stateMutability": "nonpayable",
      "type": "function"
    },
    {
      "constant": false,
      "inputs": [
        {
          "name": "_collateral",
          "type": "address"
        },
        {
          "name": "_virtualSupply",
          "type": "uint256"
        },
        {
          "name": "_virtualBalance",
          "type": "uint256"
        },
        {
          "name": "_reserveRatio",
          "type": "uint32"
        },
        {
          "name": "_slippage",
          "type": "uint256"
        }
      ],
      "name": "addCollateralToken",
      "outputs": [],
      "payable": false,
      "stateMutability": "nonpayable",
      "type": "function"
    },
    {
      "constant": false,
      "inputs": [
        {
          "name": "_collateral",
          "type": "address"
        }
      ],
      "name": "removeCollateralToken",
      "outputs": [],
      "payable": false,
      "stateMutability": "nonpayable",
      "type": "function"
    },
    {
      "constant": false,
      "inputs": [
        {
          "name": "_collateral",
          "type": "address"
        },
        {
          "name": "_virtualSupply",
          "type": "uint256"
        },
        {
          "name": "_virtualBalance",
          "type": "uint256"
        },
        {
          "name": "_reserveRatio",
          "type": "uint32"
        },
        {
          "name": "_slippage",
          "type": "uint256"
        }
      ],
      "name": "updateCollateralToken",
      "outputs": [],
      "payable": false,
      "stateMutability": "nonpayable",
      "type": "function"
    },
    {
      "constant": false,
      "inputs": [
        {
          "name": "_buyer",
          "type": "address"
        },
        {
          "name": "_collateral",
          "type": "address"
        },
        {
          "name": "_value",
          "type": "uint256"
        }
      ],
      "name": "openBuyOrder",
      "outputs": [],
      "payable": true,
      "stateMutability": "payable",
      "type": "function"
    },
    {
      "constant": false,
      "inputs": [
        {
          "name": "_seller",
          "type": "address"
        },
        {
          "name": "_collateral",
          "type": "address"
        },
        {
          "name": "_amount",
          "type": "uint256"
        }
      ],
      "name": "openSellOrder",
      "outputs": [],
      "payable": false,
      "stateMutability": "nonpayable",
      "type": "function"
    },
    {
      "constant": false,
      "inputs": [
        {
          "name": "_buyer",
          "type": "address"
        },
        {
          "name": "_batchId",
          "type": "uint256"
        },
        {
          "name": "_collateral",
          "type": "address"
        }
      ],
      "name": "claimBuyOrder",
      "outputs": [],
      "payable": false,
      "stateMutability": "nonpayable",
      "type": "function"
    },
    {
      "constant": false,
      "inputs": [
        {
          "name": "_seller",
          "type": "address"
        },
        {
          "name": "_batchId",
          "type": "uint256"
        },
        {
          "name": "_collateral",
          "type": "address"
        }
      ],
      "name": "claimSellOrder",
      "outputs": [],
      "payable": false,
      "stateMutability": "nonpayable",
      "type": "function"
    },
    {
      "constant": false,
      "inputs": [
        {
          "name": "_buyer",
          "type": "address"
        },
        {
          "name": "_batchId",
          "type": "uint256"
        },
        {
          "name": "_collateral",
          "type": "address"
        }
      ],
      "name": "claimCancelledBuyOrder",
      "outputs": [],
      "payable": false,
      "stateMutability": "nonpayable",
      "type": "function"
    },
    {
      "constant": false,
      "inputs": [
        {
          "name": "_seller",
          "type": "address"
        },
        {
          "name": "_batchId",
          "type": "uint256"
        },
        {
          "name": "_collateral",
          "type": "address"
        }
      ],
      "name": "claimCancelledSellOrder",
      "outputs": [],
      "payable": false,
      "stateMutability": "nonpayable",
      "type": "function"
    },
    {
      "constant": true,
      "inputs": [],
      "name": "getCurrentBatchId",
      "outputs": [
        {
          "name": "",
          "type": "uint256"
        }
      ],
      "payable": false,
      "stateMutability": "view",
      "type": "function"
    },
    {
      "constant": true,
      "inputs": [
        {
          "name": "_collateral",
          "type": "address"
        }
      ],
      "name": "getCollateralToken",
      "outputs": [
        {
          "name": "",
          "type": "bool"
        },
        {
          "name": "",
          "type": "uint256"
        },
        {
          "name": "",
          "type": "uint256"
        },
        {
          "name": "",
          "type": "uint32"
        },
        {
          "name": "",
          "type": "uint256"
        }
      ],
      "payable": false,
      "stateMutability": "view",
      "type": "function"
    },
    {
      "constant": true,
      "inputs": [
        {
          "name": "_batchId",
          "type": "uint256"
        },
        {
          "name": "_collateral",
          "type": "address"
        }
      ],
      "name": "getBatch",
      "outputs": [
        {
          "name": "",
          "type": "bool"
        },
        {
          "name": "",
          "type": "bool"
        },
        {
          "name": "",
          "type": "uint256"
        },
        {
          "name": "",
          "type": "uint256"
        },
        {
          "name": "",
          "type": "uint32"
        },
        {
          "name": "",
          "type": "uint256"
        },
        {
          "name": "",
          "type": "uint256"
        },
        {
          "name": "",
          "type": "uint256"
        },
        {
          "name": "",
          "type": "uint256"
        },
        {
          "name": "",
          "type": "uint256"
        }
      ],
      "payable": false,
      "stateMutability": "view",
      "type": "function"
    },
    {
      "constant": true,
      "inputs": [
        {
          "name": "_supply",
          "type": "uint256"
        },
        {
          "name": "_balance",
          "type": "uint256"
        },
        {
          "name": "_reserveRatio",
          "type": "uint32"
        }
      ],
      "name": "getStaticPricePPM",
      "outputs": [
        {
          "name": "",
          "type": "uint256"
        }
      ],
      "payable": false,
      "stateMutability": "view",
      "type": "function"
    }
  ],
  "bytecode": "0x6080604052620000176401000000006200001d810204565b6200023b565b6200003064010000000062000125810204565b60408051808201909152601881527f494e49545f414c52454144595f494e495449414c495a45440000000000000000602082015290156200010c576040517f08c379a00000000000000000000000000000000000000000000000000000000081526004018080602001828103825283818151815260200191508051906020019080838360005b83811015620000d0578181015183820152602001620000b6565b50505050905090810190601f168015620000fe5780820380516001836020036101000a031916815260200191505b509250505060405180910390fd5b506200012360001964010000000062000154810204565b565b60006200014f60008051602062006196833981519152640100000000620043806200023382021704565b905090565b6200016764010000000062000125810204565b60408051808201909152601881527f494e49545f414c52454144595f494e495449414c495a454400000000000000006020820152901562000206576040517f08c379a000000000000000000000000000000000000000000000000000000000815260040180806020018281038252838181518152602001915080519060200190808383600083811015620000d0578181015183820152602001620000b6565b50620002306000805160206200619683398151915282640100000000620043846200023782021704565b50565b5490565b9055565b615f4b806200024b6000396000f3006080604052600436106102875763ffffffff7c01000000000000000000000000000000000000000000000000000000006000350416630803fac0811461028c5780630aaffd2a146102b55780630d720bbc146102d85780630e85d277146103065780630f1ff5ea1461032d578063177c1499146103575780632914b9bd146103a55780632a709b141461041a5780632cd4a2701461042f5780633017dbed1461044457806332f0a3b51461045957806338af3eed1461046e5780633fae9bfb1461048357806341644f8c146104a057806347535d7b146104b55780634afe6c47146104ca5780634b75f54f146104eb5780635e6f6c7714610500578063608bac051461052b57806360e14b6014610540578063683dee47146105555780636a928e8f146105d05780636db79437146105e55780637403c6cd1461060057806378ea6103146106425780637b9e86bf1461066d5780637cfab0cb146106825780637e7db6e1146106a657806380afdea8146106c75780638a9b1e2d146106dc5780638b3dd7491461070f5780639249be281461072457806394f9059f1461074f5780639ba9dada146107705780639d4941d814610785578063a1658fad146107a6578063a479e5081461080d578063b6e9c82614610822578063c56f0f6c14610837578063cd3293de1461084c578063cf9d82f214610861578063d4aae0c414610876578063d5b49a711461088b578063dbbdf2fe146108ac578063de4796ed146108d7578063e720ac8e146108ec578063eeb97d3b14610901578063f190e42714610955578063f77c479114610976578063f79c5c7c1461098b578063fc0c546a146109a0578063fc157cb4146109b5578063fcfff16f146109ca578063fd531e03146109df575b600080fd5b34801561029857600080fd5b506102a1610a12565b604080519115158252519081900360200190f35b3480156102c157600080fd5b506102d6600160a060020a0360043516610a3b565b005b3480156102e457600080fd5b506102ed610bcb565b6040805163ffffffff9092168252519081900360200190f35b34801561031257600080fd5b5061031b610bd2565b60408051918252519081900360200190f35b34801561033957600080fd5b506102d6600160a060020a0360043581169060243516604435610bf6565b34801561036357600080fd5b5061036f600435610f01565b6040805195151586526020860194909452848401929092526060840152600160a060020a03166080830152519081900360a00190f35b3480156103b157600080fd5b506040805160206004803580820135601f81018490048402850184019095528484526103fe943694929360249392840191908190840183828082843750949750610f3d9650505050505050565b60408051600160a060020a039092168252519081900360200190f35b34801561042657600080fd5b506103fe61103c565b34801561043b57600080fd5b5061031b61104b565b34801561045057600080fd5b5061031b61106f565b34801561046557600080fd5b506103fe611093565b34801561047a57600080fd5b506103fe611124565b6102d6600160a060020a0360043581169060243516604435611133565b3480156104ac57600080fd5b5061031b611434565b3480156104c157600080fd5b506102a1611458565b3480156104d657600080fd5b5061031b600160a060020a0360043516611461565b3480156104f757600080fd5b506103fe611473565b34801561050c57600080fd5b506102d6600160a060020a036004358116906024359060443516611482565b34801561053757600080fd5b5061031b61183e565b34801561054c57600080fd5b5061031b611862565b34801561056157600080fd5b50610579600435600160a060020a0360243516611886565b604080519a15158b5298151560208b015289890197909752606089019590955263ffffffff909316608088015260a087019190915260c086015260e085015261010084015261012083015251908190036101400190f35b3480156105dc57600080fd5b5061031b6119e1565b3480156105f157600080fd5b506102d6600435602435611a05565b34801561060c57600080fd5b506102d6600160a060020a036004358116906024358116906044358116906064358116906084351660a43560c43560e435611b64565b34801561064e57600080fd5b506102d6600160a060020a0360043581169060243590604435166121b1565b34801561067957600080fd5b5061031b612549565b34801561068e57600080fd5b5061031b60043560243563ffffffff6044351661254f565b3480156106b257600080fd5b506102a1600160a060020a03600435166125f5565b3480156106d357600080fd5b5061031b6125fb565b3480156106e857600080fd5b506102d6600160a060020a036004351660243560443563ffffffff6064351660843561262b565b34801561071b57600080fd5b5061031b612815565b34801561073057600080fd5b506102d6600160a060020a036004358116906024359060443516612840565b34801561075b57600080fd5b506102d6600160a060020a0360043516612ab9565b34801561077c57600080fd5b5061031b612c07565b34801561079157600080fd5b506102d6600160a060020a0360043516612c0d565b3480156107b257600080fd5b5060408051602060046044358181013583810280860185019096528085526102a1958335600160a060020a0316956024803596369695606495939492019291829185019084908082843750949750612e9c9650505050505050565b34801561081957600080fd5b506103fe613005565b34801561082e57600080fd5b5061031b6130ba565b34801561084357600080fd5b5061031b6130de565b34801561085857600080fd5b506103fe6130e4565b34801561086d57600080fd5b5061031b6130f3565b34801561088257600080fd5b506103fe613117565b34801561089757600080fd5b506102d6600160a060020a0360043516613142565b3480156108b857600080fd5b506102d6600160a060020a036004358116906024359060443516613290565b3480156108e357600080fd5b506102a1613509565b3480156108f857600080fd5b5061031b61351c565b34801561090d57600080fd5b50610922600160a060020a03600435166135b5565b60408051951515865260208601949094528484019290925263ffffffff1660608401526080830152519081900360a00190f35b34801561096157600080fd5b50610922600160a060020a03600435166135ee565b34801561098257600080fd5b506103fe6136d2565b34801561099757600080fd5b5061031b6136e1565b3480156109ac57600080fd5b506103fe6136e7565b3480156109c157600080fd5b5061031b6136f6565b3480156109d657600080fd5b506102d6613702565b3480156109eb57600080fd5b506102d6600160a060020a036004351660243560443563ffffffff6064351660843561384e565b600080610a1d612815565b90508015801590610a35575080610a32613af9565b10155b91505090565b604080516000808252602082019092527ff7ea2b80c7b6a2cab2c11d2290cb005c3748397358a25e17113658c83b73259391610a7d9133918491905b50612e9c565b60408051808201909152600f8152600080516020615ee08339815191526020820152901515610b2d5760405160e560020a62461bcd0281526004018080602001828103825283818151815260200191508051906020019080838360005b83811015610af2578181015183820152602001610ada565b50505050905090810190601f168015610b1f5780820380516001836020036101000a031916815260200191505b509250505060405180910390fd5b50610b3782613afd565b60408051808201909152601681527f4d4d5f494e56414c49445f42454e4546494349415259000000000000000000006020820152901515610bbd5760405160e560020a62461bcd02815260040180806020018281038252838181518152602001915080519060200190808383600083811015610af2578181015183820152602001610ada565b50610bc782613b0b565b5050565b620f424081565b7fbfb76d8d43f55efe58544ea32af187792a7bdb983850d8fed33478266eec3cbb81565b604080516000808252602082019092527fd68ba2b769fa37a2a7bd4bed9241b448bc99eca41f519ef037406386a8f291c091610c36913391849190610a77565b60408051808201909152600f8152600080516020615ee08339815191526020820152901515610caa5760405160e560020a62461bcd02815260040180806020018281038252838181518152602001915080519060200190808383600083811015610af2578181015183820152602001610ada565b5060095460408051808201909152600b81527f4d4d5f4e4f545f4f50454e00000000000000000000000000000000000000000060208201529060ff161515610d375760405160e560020a62461bcd02815260040180806020018281038252838181518152602001915080519060200190808383600083811015610af2578181015183820152602001610ada565b50610d4183613b62565b60408051808201909152601d81527f4d4d5f434f4c4c41544552414c5f4e4f545f57484954454c49535445440000006020820152901515610dc75760405160e560020a62461bcd02815260040180806020018281038252838181518152602001915080519060200190808383600083811015610af2578181015183820152602001610ada565b50610dd9610dd3613b80565b84613ba6565b60408051808201909152601281527f4d4d5f42415443485f43414e43454c4c4544000000000000000000000000000060208201529015610e5e5760405160e560020a62461bcd02815260040180806020018281038252838181518152602001915080519060200190808383600083811015610af2578181015183820152602001610ada565b50610e698483613bda565b60408051808201909152601681527f4d4d5f494e56414c49445f424f4e445f414d4f554e54000000000000000000006020820152901515610eef5760405160e560020a62461bcd02815260040180806020018281038252838181518152602001915080519060200190808383600083811015610af2578181015183820152602001610ada565b50610efb848484613c86565b50505050565b600d602052600090815260409020805460018201546002830154600384015460049094015460ff909316939192909190600160a060020a031685565b6000610f47613005565b600160a060020a03166304bf2a7f836040518263ffffffff167c01000000000000000000000000000000000000000000000000000000000281526004018080602001828103825283818151815260200191508051906020019080838360005b83811015610fbe578181015183820152602001610fa6565b50505050905090810190601f168015610feb5780820380516001836020036101000a031916815260200191505b5092505050602060405180830381600087803b15801561100a57600080fd5b505af115801561101e573d6000803e3d6000fd5b505050506040513d602081101561103457600080fd5b505192915050565b600154600160a060020a031681565b7fa589c8f284b76fc8d510d9d553485c47dbef1b0745ae00e0f3fd4e28fcd77ea781565b7fe0565c2c43e0d841e206bb36a37f12f22584b4652ccee6f9e0c071b697a2e13d81565b600061109d613117565b600160a060020a03166332f0a3b56040518163ffffffff167c0100000000000000000000000000000000000000000000000000000000028152600401602060405180830381600087803b1580156110f357600080fd5b505af1158015611107573d6000803e3d6000fd5b505050506040513d602081101561111d57600080fd5b5051905090565b600454600160a060020a031681565b604080516000808252602082019092527fa589c8f284b76fc8d510d9d553485c47dbef1b0745ae00e0f3fd4e28fcd77ea791611173913391849190610a77565b60408051808201909152600f8152600080516020615ee083398151915260208201529015156111e75760405160e560020a62461bcd02815260040180806020018281038252838181518152602001915080519060200190808383600083811015610af2578181015183820152602001610ada565b5060095460408051808201909152600b81527f4d4d5f4e4f545f4f50454e00000000000000000000000000000000000000000060208201529060ff1615156112745760405160e560020a62461bcd02815260040180806020018281038252838181518152602001915080519060200190808383600083811015610af2578181015183820152602001610ada565b5061127e83613b62565b60408051808201909152601d81527f4d4d5f434f4c4c41544552414c5f4e4f545f57484954454c495354454400000060208201529015156113045760405160e560020a62461bcd02815260040180806020018281038252838181518152602001915080519060200190808383600083811015610af2578181015183820152602001610ada565b50611310610dd3613b80565b60408051808201909152601281527f4d4d5f42415443485f43414e43454c4c45440000000000000000000000000000602082015290156113955760405160e560020a62461bcd02815260040180806020018281038252838181518152602001915080519060200190808383600083811015610af2578181015183820152602001610ada565b506113a284848434613f87565b60408051808201909152601b81527f4d4d5f494e56414c49445f434f4c4c41544552414c5f56414c5545000000000060208201529015156114285760405160e560020a62461bcd02815260040180806020018281038252838181518152602001915080519060200190808383600083811015610af2578181015183820152602001610ada565b50610efb84848461410a565b7ff7ea2b80c7b6a2cab2c11d2290cb005c3748397358a25e17113658c83b73259381565b60095460ff1681565b600b6020526000908152604090205481565b600554600160a060020a031681565b611499600080516020615f00833981519152614380565b60408051808201909152601981527f5245454e5452414e43595f5245454e5452414e545f43414c4c000000000000006020820152901561151e5760405160e560020a62461bcd02815260040180806020018281038252838181518152602001915080519060200190808383600083811015610af2578181015183820152602001610ada565b5061153e600080516020615f00833981519152600163ffffffff61438416565b611546610a12565b60408051808201909152601481527f494e49545f4e4f545f494e495449414c495a454400000000000000000000000060208201529015156115cc5760405160e560020a62461bcd02815260040180806020018281038252838181518152602001915080519060200190808383600083811015610af2578181015183820152602001610ada565b506115d681613b62565b60408051808201909152601d81527f4d4d5f434f4c4c41544552414c5f4e4f545f57484954454c4953544544000000602082015290151561165c5760405160e560020a62461bcd02815260040180806020018281038252838181518152602001915080519060200190808383600083811015610af2578181015183820152602001610ada565b5061166682614388565b60408051808201909152601181527f4d4d5f42415443485f4e4f545f4f56455200000000000000000000000000000060208201529015156116ec5760405160e560020a62461bcd02815260040180806020018281038252838181518152602001915080519060200190808383600083811015610af2578181015183820152602001610ada565b506116f78282613ba6565b60408051808201909152601281527f4d4d5f42415443485f43414e43454c4c454400000000000000000000000000006020820152901561177c5760405160e560020a62461bcd02815260040180806020018281038252838181518152602001915080519060200190808383600083811015610af2578181015183820152602001610ada565b5061178882828561439a565b60408051808201909152601381527f4d4d5f4e4f5448494e475f544f5f434c41494d00000000000000000000000000602082015290151561180e5760405160e560020a62461bcd02815260040180806020018281038252838181518152602001915080519060200190808383600083811015610af2578181015183820152602001610ada565b5061181a8383836143d4565b611839600080516020615f00833981519152600063ffffffff61438416565b505050565b7f217b79cb2bc7760defc88529853ef81ab33ae5bb315408ce9f5af09c8776662d81565b7f5f9be2932ed3a723f295a763be1804c7ebfd1a41c1348fb8bdf5be1c5cdca82281565b600080600080600080600080600080600061189f610a12565b60408051808201909152601481527f494e49545f4e4f545f494e495449414c495a454400000000000000000000000060208201529015156119255760405160e560020a62461bcd02815260040180806020018281038252838181518152602001915080519060200190808383600083811015610af2578181015183820152602001610ada565b50600d60008e815260200190815260200160002060050160008d600160a060020a0316600160a060020a0316815260200190815260200160002090508060000160009054906101000a900460ff168160000160019054906101000a900460ff16826001015483600201548460030160009054906101000a900463ffffffff16856004015486600501548760060154886007015489600801549a509a509a509a509a509a509a509a509a509a50509295989b9194979a5092959850565b7fefa06053e2ca99a43c97c4a4f3d8a394ee3323a8ff237e625fba09fe30ceb0a481565b604080516000808252602082019092527f5f9be2932ed3a723f295a763be1804c7ebfd1a41c1348fb8bdf5be1c5cdca82291611a45913391849190610a77565b60408051808201909152600f8152600080516020615ee08339815191526020820152901515611ab95760405160e560020a62461bcd02815260040180806020018281038252838181518152602001915080519060200190808383600083811015610af2578181015183820152602001610ada565b50611ac383614662565b8015611ad35750611ad382614662565b60408051808201909152601581527f4d4d5f494e56414c49445f50455243454e5441474500000000000000000000006020820152901515611b595760405160e560020a62461bcd02815260040180806020018281038252838181518152602001915080519060200190808383600083811015610af2578181015183820152602001610ada565b50611839838361466f565b611b6c612815565b60408051808201909152601881527f494e49545f414c52454144595f494e495449414c495a4544000000000000000060208201529015611bf15760405160e560020a62461bcd02815260040180806020018281038252838181518152602001915080519060200190808383600083811015610af2578181015183820152602001610ada565b50611bfa6146b8565b611c0388614780565b60408051808201909152601281527f4d4d5f434f4e54524143545f49535f454f4100000000000000000000000000006020820152901515611c895760405160e560020a62461bcd02815260040180806020018281038252838181518152602001915080519060200190808383600083811015610af2578181015183820152602001610ada565b50611c9387614780565b60408051808201909152601281527f4d4d5f434f4e54524143545f49535f454f4100000000000000000000000000006020820152901515611d195760405160e560020a62461bcd02815260040180806020018281038252838181518152602001915080519060200190808383600083811015610af2578181015183820152602001610ada565b50611d2386614780565b60408051808201909152601281527f4d4d5f434f4e54524143545f49535f454f4100000000000000000000000000006020820152901515611da95760405160e560020a62461bcd02815260040180806020018281038252838181518152602001915080519060200190808383600083811015610af2578181015183820152602001610ada565b50611db385614780565b60408051808201909152601281527f4d4d5f434f4e54524143545f49535f454f4100000000000000000000000000006020820152901515611e395760405160e560020a62461bcd02815260040180806020018281038252838181518152602001915080519060200190808383600083811015610af2578181015183820152602001610ada565b50611e4384613afd565b60408051808201909152601681527f4d4d5f494e56414c49445f42454e4546494349415259000000000000000000006020820152901515611ec95760405160e560020a62461bcd02815260040180806020018281038252838181518152602001915080519060200190808383600083811015610af2578181015183820152602001610ada565b5060408051808201909152601781527f4d4d5f494e56414c49445f42415443485f424c4f434b53000000000000000000602082015260008411611f515760405160e560020a62461bcd02815260040180806020018281038252838181518152602001915080519060200190808383600083811015610af2578181015183820152602001610ada565b50611f5b82614662565b8015611f6b5750611f6b81614662565b60408051808201909152601581527f4d4d5f494e56414c49445f50455243454e5441474500000000000000000000006020820152901515611ff15760405160e560020a62461bcd02815260040180806020018281038252838181518152602001915080519060200190808383600083811015610af2578181015183820152602001610ada565b50611ffb876147ad565b60408051808201909152601581527f4d4d5f494e56414c49445f544d5f53455454494e47000000000000000000000060208201529015156120815760405160e560020a62461bcd02815260040180806020018281038252838181518152602001915080519060200190808383600083811015610af2578181015183820152602001610ada565b5060008054600160a060020a03808b1673ffffffffffffffffffffffffffffffffffffffff19928316178355600180548b831693169290921791829055604080517ffc0c546a0000000000000000000000000000000000000000000000000000000081529051929091169263fc0c546a926004808401936020939083900390910190829087803b15801561211457600080fd5b505af1158015612128573d6000803e3d6000fd5b505050506040513d602081101561213e57600080fd5b505160028054600160a060020a0392831673ffffffffffffffffffffffffffffffffffffffff199182161790915560058054988316988216989098179097556003805496821696881696909617909555600480549490951693909516929092179092556006919091556007556008555050565b6121c8600080516020615f00833981519152614380565b60408051808201909152601981527f5245454e5452414e43595f5245454e5452414e545f43414c4c000000000000006020820152901561224d5760405160e560020a62461bcd02815260040180806020018281038252838181518152602001915080519060200190808383600083811015610af2578181015183820152602001610ada565b5061226d600080516020615f00833981519152600163ffffffff61438416565b612275610a12565b60408051808201909152601481527f494e49545f4e4f545f494e495449414c495a454400000000000000000000000060208201529015156122fb5760405160e560020a62461bcd02815260040180806020018281038252838181518152602001915080519060200190808383600083811015610af2578181015183820152602001610ada565b5061230581613b62565b60408051808201909152601d81527f4d4d5f434f4c4c41544552414c5f4e4f545f57484954454c4953544544000000602082015290151561238b5760405160e560020a62461bcd02815260040180806020018281038252838181518152602001915080519060200190808383600083811015610af2578181015183820152602001610ada565b5061239582614388565b60408051808201909152601181527f4d4d5f42415443485f4e4f545f4f564552000000000000000000000000000000602082015290151561241b5760405160e560020a62461bcd02815260040180806020018281038252838181518152602001915080519060200190808383600083811015610af2578181015183820152602001610ada565b506124268282613ba6565b60408051808201909152601281527f4d4d5f42415443485f43414e43454c4c45440000000000000000000000000000602082015290156124ab5760405160e560020a62461bcd02815260040180806020018281038252838181518152602001915080519060200190808383600083811015610af2578181015183820152602001610ada565b506124b782828561483c565b60408051808201909152601381527f4d4d5f4e4f5448494e475f544f5f434c41494d00000000000000000000000000602082015290151561253d5760405160e560020a62461bcd02815260040180806020018281038252838181518152602001915080519060200190808383600083811015610af2578181015183820152602001610ada565b5061181a838383614876565b60085481565b6000612559610a12565b60408051808201909152601481527f494e49545f4e4f545f494e495449414c495a454400000000000000000000000060208201529015156125df5760405160e560020a62461bcd02815260040180806020018281038252838181518152602001915080519060200190808383600083811015610af2578181015183820152602001610ada565b506125eb8484846149e6565b90505b9392505050565b50600190565b60006126267fd625496217aa6a3453eecb9c3489dc5a53e6c67b444329ea2b2cbc9ff547639b614380565b905090565b604080516000808252602082019092527fe0565c2c43e0d841e206bb36a37f12f22584b4652ccee6f9e0c071b697a2e13d9161266b913391849190610a77565b60408051808201909152600f8152600080516020615ee083398151915260208201529015156126df5760405160e560020a62461bcd02815260040180806020018281038252838181518152602001915080519060200190808383600083811015610af2578181015183820152602001610ada565b506126e986613b62565b60408051808201909152601d81527f4d4d5f434f4c4c41544552414c5f4e4f545f57484954454c4953544544000000602082015290151561276f5760405160e560020a62461bcd02815260040180806020018281038252838181518152602001915080519060200190808383600083811015610af2578181015183820152602001610ada565b5061277983614a0f565b60408051808201909152601881527f4d4d5f494e56414c49445f524553455256455f524154494f000000000000000060208201529015156127ff5760405160e560020a62461bcd02815260040180806020018281038252838181518152602001915080519060200190808383600083811015610af2578181015183820152602001610ada565b5061280d8686868686614a21565b505050505050565b60006126267febb05b386a8d34882b8711d156f463690983dc47815980fb82aeeff1aa43579e614380565b612857600080516020615f00833981519152614380565b60408051808201909152601981527f5245454e5452414e43595f5245454e5452414e545f43414c4c00000000000000602082015290156128dc5760405160e560020a62461bcd02815260040180806020018281038252838181518152602001915080519060200190808383600083811015610af2578181015183820152602001610ada565b506128fc600080516020615f00833981519152600163ffffffff61438416565b612904610a12565b60408051808201909152601481527f494e49545f4e4f545f494e495449414c495a4544000000000000000000000000602082015290151561298a5760405160e560020a62461bcd02815260040180806020018281038252838181518152602001915080519060200190808383600083811015610af2578181015183820152602001610ada565b506129958282613ba6565b60408051808201909152601681527f4d4d5f42415443485f4e4f545f43414e43454c4c4544000000000000000000006020820152901515612a1b5760405160e560020a62461bcd02815260040180806020018281038252838181518152602001915080519060200190808383600083811015610af2578181015183820152602001610ada565b50612a2782828561483c565b60408051808201909152601381527f4d4d5f4e4f5448494e475f544f5f434c41494d000000000000000000000000006020820152901515612aad5760405160e560020a62461bcd02815260040180806020018281038252838181518152602001915080519060200190808383600083811015610af2578181015183820152602001610ada565b5061181a838383614abb565b604080516000808252602082019092527f2044e56de223845e4be7d0a6f4e9a29b635547f16413a6d1327c58d9db438ee291612af9913391849190610a77565b60408051808201909152600f8152600080516020615ee08339815191526020820152901515612b6d5760405160e560020a62461bcd02815260040180806020018281038252838181518152602001915080519060200190808383600083811015610af2578181015183820152602001610ada565b50612b7782613b62565b60408051808201909152601d81527f4d4d5f434f4c4c41544552414c5f4e4f545f57484954454c49535445440000006020820152901515612bfd5760405160e560020a62461bcd02815260040180806020018281038252838181518152602001915080519060200190808383600083811015610af2578181015183820152602001610ada565b50610bc782614c1d565b600a5481565b6000806000612c1b846125f5565b60408051808201909152601281527f5245434f5645525f444953414c4c4f57454400000000000000000000000000006020820152901515612ca15760405160e560020a62461bcd02815260040180806020018281038252838181518152602001915080519060200190808383600083811015610af2578181015183820152602001610ada565b50612caa611093565b9250612cb583614780565b60408051808201909152601a81527f5245434f5645525f5641554c545f4e4f545f434f4e54524143540000000000006020820152901515612d3b5760405160e560020a62461bcd02815260040180806020018281038252838181518152602001915080519060200190808383600083811015610af2578181015183820152602001610ada565b50600160a060020a0384161515612d8c5760405130319250600160a060020a0384169083156108fc029084906000818181858888f19350505050158015612d86573d6000803e3d6000fd5b50612e4b565b5082612da7600160a060020a0382163063ffffffff614c9a16565b9150612dc3600160a060020a038216848463ffffffff614daf16565b60408051808201909152601d81527f5245434f5645525f544f4b454e5f5452414e534645525f4641494c45440000006020820152901515612e495760405160e560020a62461bcd02815260040180806020018281038252838181518152602001915080519060200190808383600083811015610af2578181015183820152602001610ada565b505b83600160a060020a031683600160a060020a03167f596caf56044b55fb8c4ca640089bbc2b63cae3e978b851f5745cbb7c5b288e02846040518082815260200191505060405180910390a350505050565b600080612ea7610a12565b1515612eb65760009150612ffd565b612ebe613117565b9050600160a060020a0381161515612ed95760009150612ffd565b80600160a060020a031663fdef9106863087612ef488614e3a565b6040517c010000000000000000000000000000000000000000000000000000000063ffffffff8716028152600160a060020a03808616600483019081529085166024830152604482018490526080606483019081528351608484015283519192909160a490910190602085019080838360005b83811015612f7f578181015183820152602001612f67565b50505050905090810190601f168015612fac5780820380516001836020036101000a031916815260200191505b5095505050505050602060405180830381600087803b158015612fce57600080fd5b505af1158015612fe2573d6000803e3d6000fd5b505050506040513d6020811015612ff857600080fd5b505191505b509392505050565b600080613010613117565b604080517fbe00bbd80000000000000000000000000000000000000000000000000000000081527fd6f028ca0e8edb4a8c9757ca4fdccab25fa1e0317da1188108f7d2dee14902fb60048201527fddbcfd564f642ab5627cf68b9b7d374fb4f8a36e941a75d89c87998cef03bd6160248201529051600160a060020a03929092169163be00bbd8916044808201926020929091908290030181600087803b15801561100a57600080fd5b7f2044e56de223845e4be7d0a6f4e9a29b635547f16413a6d1327c58d9db438ee281565b60065481565b600354600160a060020a031681565b7fd68ba2b769fa37a2a7bd4bed9241b448bc99eca41f519ef037406386a8f291c081565b60006126267f4172f0f7d2289153072b0a6ca36959e0cbe2efc3afe50fc81636caa96338137b614380565b604080516000808252602082019092527fbfb76d8d43f55efe58544ea32af187792a7bdb983850d8fed33478266eec3cbb91613182913391849190610a77565b60408051808201909152600f8152600080516020615ee083398151915260208201529015156131f65760405160e560020a62461bcd02815260040180806020018281038252838181518152602001915080519060200190808383600083811015610af2578181015183820152602001610ada565b5061320082614780565b60408051808201909152601281527f4d4d5f434f4e54524143545f49535f454f41000000000000000000000000000060208201529015156132865760405160e560020a62461bcd02815260040180806020018281038252838181518152602001915080519060200190808383600083811015610af2578181015183820152602001610ada565b50610bc782614e44565b6132a7600080516020615f00833981519152614380565b60408051808201909152601981527f5245454e5452414e43595f5245454e5452414e545f43414c4c000000000000006020820152901561332c5760405160e560020a62461bcd02815260040180806020018281038252838181518152602001915080519060200190808383600083811015610af2578181015183820152602001610ada565b5061334c600080516020615f00833981519152600163ffffffff61438416565b613354610a12565b60408051808201909152601481527f494e49545f4e4f545f494e495449414c495a454400000000000000000000000060208201529015156133da5760405160e560020a62461bcd02815260040180806020018281038252838181518152602001915080519060200190808383600083811015610af2578181015183820152602001610ada565b506133e58282613ba6565b60408051808201909152601681527f4d4d5f42415443485f4e4f545f43414e43454c4c454400000000000000000000602082015290151561346b5760405160e560020a62461bcd02815260040180806020018281038252838181518152602001915080519060200190808383600083811015610af2578181015183820152602001610ada565b5061347782828561439a565b60408051808201909152601381527f4d4d5f4e4f5448494e475f544f5f434c41494d0000000000000000000000000060208201529015156134fd5760405160e560020a62461bcd02815260040180806020018281038252838181518152602001915080519060200190808383600083811015610af2578181015183820152602001610ada565b5061181a838383614e9b565b6000600019613516612815565b14905090565b6000613526610a12565b60408051808201909152601481527f494e49545f4e4f545f494e495449414c495a454400000000000000000000000060208201529015156135ac5760405160e560020a62461bcd02815260040180806020018281038252838181518152602001915080519060200190808383600083811015610af2578181015183820152602001610ada565b50612626613b80565b600c602052600090815260409020805460018201546002830154600384015460049094015460ff909316939192909163ffffffff169085565b6000806000806000806135ff610a12565b60408051808201909152601481527f494e49545f4e4f545f494e495449414c495a454400000000000000000000000060208201529015156136855760405160e560020a62461bcd02815260040180806020018281038252838181518152602001915080519060200190808383600083811015610af2578181015183820152602001610ada565b50505050600160a060020a03939093166000908152600c60205260409020805460018201546002830154600384015460049094015460ff90931697919650945063ffffffff909216925090565b600054600160a060020a031681565b60075481565b600254600160a060020a031681565b670de0b6b3a764000081565b604080516000808252602082019092527fefa06053e2ca99a43c97c4a4f3d8a394ee3323a8ff237e625fba09fe30ceb0a491613742913391849190610a77565b60408051808201909152600f8152600080516020615ee083398151915260208201529015156137b65760405160e560020a62461bcd02815260040180806020018281038252838181518152602001915080519060200190808383600083811015610af2578181015183820152602001610ada565b5060095460408051808201909152600f81527f4d4d5f414c52454144595f4f50454e000000000000000000000000000000000060208201529060ff16156138425760405160e560020a62461bcd02815260040180806020018281038252838181518152602001915080519060200190808383600083811015610af2578181015183820152602001610ada565b5061384b614fd0565b50565b604080516000808252602082019092527f217b79cb2bc7760defc88529853ef81ab33ae5bb315408ce9f5af09c8776662d9161388e913391849190610a77565b60408051808201909152600f8152600080516020615ee083398151915260208201529015156139025760405160e560020a62461bcd02815260040180806020018281038252838181518152602001915080519060200190808383600083811015610af2578181015183820152602001610ada565b5061390c86614780565b8061391e5750600160a060020a038616155b60408051808201909152601581527f4d4d5f494e56414c49445f434f4c4c41544552414c000000000000000000000060208201529015156139a45760405160e560020a62461bcd02815260040180806020018281038252838181518152602001915080519060200190808383600083811015610af2578181015183820152602001610ada565b506139ae86613b62565b60408051606081018252602181527f4d4d5f434f4c4c41544552414c5f414c52454144595f57484954454c4953544560208201527f4400000000000000000000000000000000000000000000000000000000000000918101919091529015613a5b5760405160e560020a62461bcd02815260040180806020018281038252838181518152602001915080519060200190808383600083811015610af2578181015183820152602001610ada565b50613a6583614a0f565b60408051808201909152601881527f4d4d5f494e56414c49445f524553455256455f524154494f00000000000000006020820152901515613aeb5760405160e560020a62461bcd02815260040180806020018281038252838181518152602001915080519060200190808383600083811015610af2578181015183820152602001610ada565b5061280d8686868686615008565b4390565b600160a060020a0316151590565b6004805473ffffffffffffffffffffffffffffffffffffffff1916600160a060020a0383169081179091556040517fe6131a64e93e9aa4ff38892c34d563c06dcc1e03b3d6897cc65f0903e2ad684890600090a250565b600160a060020a03166000908152600c602052604090205460ff1690565b60065460009061262690613b9a438263ffffffff6150a916565b9063ffffffff61514e16565b6000918252600d60209081526040808420600160a060020a0393909316845260059092019052902054610100900460ff1690565b600081158015906125ee5750600154604080517f0f8f8b83000000000000000000000000000000000000000000000000000000008152600160a060020a038681166004830152915185939290921691630f8f8b83916024808201926020929091908290030181600087803b158015613c5157600080fd5b505af1158015613c65573d6000803e3d6000fd5b505050506040513d6020811015613c7b57600080fd5b505110159392505050565b600080600080613c95866151f9565b600154604080517f9dc29fac000000000000000000000000000000000000000000000000000000008152600160a060020a038c81166004830152602482018b905291519498509296501691639dc29fac9160448082019260009290919082900301818387803b158015613d0757600080fd5b505af1158015613d1b573d6000803e3d6000fd5b5050506006840154600885015460078601549194509250613d4391508663ffffffff61559916565b6007840155600160a060020a0387166000908152600a84016020526040902054613d73908663ffffffff61559916565b600160a060020a0388166000908152600a85016020526040902055613d99838588615627565b613dc28360060154613db684600a5461597390919063ffffffff16565b9063ffffffff61559916565b600a556008830154600160a060020a0387166000908152600b6020526040902054613df89190613db6908463ffffffff61597316565b600160a060020a0387166000908152600b6020526040902055613e1b8387615a07565b60408051808201909152601981527f4d4d5f534c4950504147455f455843454544535f4c494d4954000000000000006020820152901515613ea15760405160e560020a62461bcd02815260040180806020018281038252838181518152602001915080519060200190808383600083811015610af2578181015183820152602001610ada565b50613eab86615a71565b60408051808201909152601c81527f4d4d5f494e53554646494349454e545f504f4f4c5f42414c414e4345000000006020820152901515613f315760405160e560020a62461bcd02815260040180806020018281038252838181518152602001915080519060200190808383600083811015610af2578181015183820152602001610ada565b5085600160a060020a03168488600160a060020a03167f8c103b7b044048ad0382ad31454a2ca34da952258d6526af3a57a9e799cbb7ec886040518082815260200191505060405180910390a450505050505050565b6000821515613f9857506000614102565b600160a060020a0384161515613fb15750808214614102565b8115801561405e575060008054604080517ff7888aec000000000000000000000000000000000000000000000000000000008152600160a060020a038981166004830152888116602483015291518794929093169263f7888aec92604480840193602093929083900390910190829087803b15801561402f57600080fd5b505af1158015614043573d6000803e3d6000fd5b505050506040513d602081101561405957600080fd5b505110155b80156140ff5750604080517fdd62ed3e000000000000000000000000000000000000000000000000000000008152600160a060020a0387811660048301523060248301529151859287169163dd62ed3e9160448083019260209291908290030181600087803b1580156140d057600080fd5b505af11580156140e4573d6000803e3d6000fd5b505050506040513d60208110156140fa57600080fd5b505110155b90505b949350505050565b60008060008060008061411c886151f9565b6000828152600d6020526040902060020154919750955061415e90670de0b6b3a764000090614152908a9063ffffffff61514e16565b9063ffffffff6150a916565b9350614170878563ffffffff61597316565b9250600084111561419457600454614194908a90600160a060020a03168a87615b29565b6003546141ad908a90600160a060020a03168a86615b29565b50506006830154600884015460058501546141ce908463ffffffff61559916565b6005860155600160a060020a03891660009081526009860160205260409020546141fe908463ffffffff61559916565b600160a060020a038a16600090815260098701602052604090205561422485878a615627565b6142418560060154613db684600a5461597390919063ffffffff16565b600a556008850154600160a060020a0389166000908152600b60205260409020546142779190613db6908463ffffffff61597316565b600160a060020a0389166000908152600b602052604090205561429a8589615a07565b60408051808201909152601981527f4d4d5f534c4950504147455f455843454544535f4c494d49540000000000000060208201529015156143205760405160e560020a62461bcd02815260040180806020018281038252838181518152602001915080519060200190808383600083811015610af2578181015183820152602001610ada565b5087600160a060020a0316868a600160a060020a03167fecab89c21a18231f17bff6027decbe0682bc9916e969562a87781927b18b2e4d8787604051808381526020018281526020019250505060405180910390a4505050505050505050565b5490565b9055565b6000614392613b80565b909110919050565b6000928352600d60209081526040808520600160a060020a0394851686526005018252808520929093168452600a90910190528120541190565b6000828152600d60209081526040808320600160a060020a03808616855260059091018352818420600781015460088201549289168652600a8201909452918420549193928392839261443192916141529163ffffffff61514e16565b6000878152600d602052604090206003015490935061446590670de0b6b3a76400009061415290869063ffffffff61514e16565b9150614477838363ffffffff61597316565b600160a060020a0388166000908152600a86016020526040812081905590915081111561456857600160a060020a0385166000908152600b60205260409020546144c7908463ffffffff61597316565b600160a060020a038087166000818152600b60205260408082209490945560035484517fbeabacc800000000000000000000000000000000000000000000000000000000815260048101939093528b84166024840152604483018690529351939092169263beabacc89260648084019391929182900301818387803b15801561454f57600080fd5b505af1158015614563573d6000803e3d6000fd5b505050505b60008211156146055760035460048054604080517fbeabacc8000000000000000000000000000000000000000000000000000000008152600160a060020a038a81169482019490945291831660248301526044820186905251919092169163beabacc891606480830192600092919082900301818387803b1580156145ec57600080fd5b505af1158015614600573d6000803e3d6000fd5b505050505b84600160a060020a03168688600160a060020a03167f0eca047a22717e04fff16b883e2490c1490c953ec49bf7af9270fffddd8b53028585604051808381526020018281526020019250505060405180910390a450505050505050565b670de0b6b3a76400001190565b60078290556008819055604080518381526020810183905281517f53482196ef67ac615caab1c3eca2c270acbfdcd75e57c5f24c1b98b10c8e6e04929181900390910190a15050565b6146c0612815565b60408051808201909152601881527f494e49545f414c52454144595f494e495449414c495a45440000000000000000602082015290156147455760405160e560020a62461bcd02815260040180806020018281038252838181518152602001915080519060200190808383600083811015610af2578181015183820152602001610ada565b5061477e614751613af9565b7febb05b386a8d34882b8711d156f463690983dc47815980fb82aeeff1aa43579e9063ffffffff61438416565b565b600080600160a060020a038316151561479c57600091506147a7565b823b90506000811191505b50919050565b600060001982600160a060020a031663ecfda4326040518163ffffffff167c0100000000000000000000000000000000000000000000000000000000028152600401602060405180830381600087803b15801561480957600080fd5b505af115801561481d573d6000803e3d6000fd5b505050506040513d602081101561483357600080fd5b50511492915050565b6000928352600d60209081526040808520600160a060020a0394851686526005018252808520929093168452600990910190528120541190565b6000828152600d60209081526040808320600160a060020a03808616855260059182018452828520918201546006830154918916865260098301909452918420549093926148cf9290916141529163ffffffff61514e16565b600160a060020a0386166000908152600984016020526040812081905590915081111561499357600a54614909908263ffffffff61597316565b600a55600154604080517f40c10f19000000000000000000000000000000000000000000000000000000008152600160a060020a03888116600483015260248201859052915191909216916340c10f1991604480830192600092919082900301818387803b15801561497a57600080fd5b505af115801561498e573d6000803e3d6000fd5b505050505b82600160a060020a03168486600160a060020a03167f1d3062ef0b6bc8ec6a09d7a72a4f2f8c332a0a1055605166c7ae24592c33a50b846040518082815260200191505060405180910390a45050505050565b60006125eb6149fe8563ffffffff8086169061514e16565b61415285613b9a620f42408061514e565b620f424063ffffffff82161115919050565b600160a060020a0385166000818152600c6020908152604091829020600181018890556002810187905560038101805463ffffffff881663ffffffff19909116811790915560049091018590558251888152918201879052818301526060810184905290517f1b8a18e7f392180ec571af2dd1c185cbc26951042ba1f62e87db979ee7643a2c9181900360800190a25050505050565b5490565b6000828152600d60209081526040808320600160a060020a0380861685526005909101835281842090871684526009810190925282208054908390559091811115614bca57600160a060020a0383166000908152600b6020526040902054614b29908263ffffffff61597316565b600160a060020a038085166000818152600b60205260408082209490945560035484517fbeabacc800000000000000000000000000000000000000000000000000000000815260048101939093528984166024840152604483018690529351939092169263beabacc89260648084019391929182900301818387803b158015614bb157600080fd5b505af1158015614bc5573d6000803e3d6000fd5b505050505b82600160a060020a03168486600160a060020a03167feb3996b71a45309a78196a4ec37faf4860dccc26536b7f6232e078b47baf2cb8846040518082815260200191505060405180910390a45050505050565b6000614c2882615c21565b50600160a060020a0381166000818152600c6020526040808220805460ff19168155600181018390556002810183905560038101805463ffffffff191690556004810183905590519092917fef578b3b1649eb50cb7766e79f596caa69b7de7e3fef0c0f4e678976a5d51e1591a25050565b60408051600160a060020a0383166024808301919091528251808303909101815260449091019091526020810180517bffffffffffffffffffffffffffffffffffffffffffffffffffffffff167f70a08231000000000000000000000000000000000000000000000000000000001790526000908180614d1a8684615cf8565b60408051808201909152601c81527f534146455f4552435f32305f42414c414e43455f52455645525445440000000060208201529193509150821515614da55760405160e560020a62461bcd02815260040180806020018281038252838181518152602001915080519060200190808383600083811015610af2578181015183820152602001610ada565b5095945050505050565b60408051600160a060020a038416602482015260448082018490528251808303909101815260649091019091526020810180517bffffffffffffffffffffffffffffffffffffffffffffffffffffffff167fa9059cbb00000000000000000000000000000000000000000000000000000000179052600090614e318582615d29565b95945050505050565b8051602002815290565b6005805473ffffffffffffffffffffffffffffffffffffffff1916600160a060020a0383169081179091556040517f050a79a49cc1dc3aeeccd8636685ad0469db41a9bd51254a34fc1cf616693d4190600090a250565b6000828152600d60209081526040808320600160a060020a038086168552600590910183528184209087168452600a810190925282208054908390559091811115614f7d57600a54614ef3908263ffffffff61597316565b600a55600154604080517f40c10f19000000000000000000000000000000000000000000000000000000008152600160a060020a03888116600483015260248201859052915191909216916340c10f1991604480830192600092919082900301818387803b158015614f6457600080fd5b505af1158015614f78573d6000803e3d6000fd5b505050505b82600160a060020a03168486600160a060020a03167f27335af9c3970a20380b78bda3af53f3ff8ad00e68ec511285c933afe4d42dd7846040518082815260200191505060405180910390a45050505050565b6009805460ff191660011790556040517f59ebeb90bc63057b6515673c3ecf9438e5058bca0f92585014eced636878c9a590600090a1565b600160a060020a0385166000818152600c6020908152604091829020805460ff19166001908117825581018890556002810187905560038101805463ffffffff881663ffffffff19909116811790915560049091018590558251888152918201879052818301526060810184905290517f769df79ace8fd94960b301fa390e66bcd330b25e4a6001f7107540a6d5e55eed9181900360800190a25050505050565b60408051808201909152600d81527f4d4154485f4449565f5a45524f00000000000000000000000000000000000000602082015260009081908184116151345760405160e560020a62461bcd02815260040180806020018281038252838181518152602001915080519060200190808383600083811015610af2578181015183820152602001610ada565b50828481151561514057fe5b0490508091505b5092915050565b6000808315156151615760009150615147565b5082820282848281151561517157fe5b60408051808201909152601181527f4d4154485f4d554c5f4f564552464c4f5700000000000000000000000000000060208201529291900414612ffd5760405160e560020a62461bcd02815260040180806020018281038252838181518152602001915080519060200190808383600083811015610af2578181015183820152602001610ada565b6000806000806000615209613b80565b6000818152600d60209081526040808320600160a060020a038b168452600581019092529091208154929550909350915060ff16151561538557600a54600254604080517f18160ddd00000000000000000000000000000000000000000000000000000000815290516152e09392600160a060020a0316916318160ddd9160048083019260209291908290030181600087803b1580156152a857600080fd5b505af11580156152bc573d6000803e3d6000fd5b505050506040513d60208110156152d257600080fd5b50519063ffffffff61559916565b6001808401829055600754600285018190556008546003860181905560055460048701805473ffffffffffffffffffffffffffffffffffffffff1916600160a060020a039283161790819055875460ff19169094178755604080519586526020860193909352848301919091529190911660608301525184917f78ac2fc513d7c0ec8ae43a339f0da247ef78f9db22b6d6769163943f05c1a7fe919081900360800190a25b805460ff16151561558d5760008054604080517f846a0a89000000000000000000000000000000000000000000000000000000008152600160a060020a038a811660048301529151919092169263846a0a89926024808201939182900301818387803b1580156153f457600080fd5b505af1158015615408573d6000803e3d6000fd5b50505050600160a060020a0386166000908152600c602052604090206001908101549083015461543791615599565b6001820155600160a060020a038087166000818152600b6020908152604080832054600c835281842060020154845460035484517ff7888aec0000000000000000000000000000000000000000000000000000000081529089166004820152602481019790975292516154e39792966154d7969295949093169363f7888aec93604480820194929392918390030190829087803b1580156152a857600080fd5b9063ffffffff61597316565b60028201819055600160a060020a0387166000818152600c6020908152604091829020600380820154908701805463ffffffff191663ffffffff9283161790819055600492830154928801839055875460ff1916600190811789558801548551908152938401969096529490941681830152606081019390935251909185917f4bdd04ed9d5392ce48b8fc80abc6fdc0916ce12072be2d571c2d482416349a389181900360800190a35b91959194509092505050565b60408051808201909152601181527f4d4154485f4144445f4f564552464c4f5700000000000000000000000000000060208201526000908383019084821015612ffd5760405160e560020a62461bcd02815260040180806020018281038252838181518152602001915080519060200190808383600083811015610af2578181015183820152602001610ada565b60008060008060008061565789600101548a600201548b60030160009054906101000a900463ffffffff166149e6565b60078a015490965061567290620f424090614152908961514e565b945088600501548511156157ce57600589015461569890879061415290620f424061514e565b60068a0181905560078a01546156b39163ffffffff61597316565b9350600d600089815260200190815260200160002060040160009054906101000a9004600160a060020a0316600160a060020a03166349f9b0f78a600101548b600201548c60030160009054906101000a900463ffffffff16886040518563ffffffff167c0100000000000000000000000000000000000000000000000000000000028152600401808581526020018481526020018363ffffffff1663ffffffff168152602001828152602001945050505050602060405180830381600087803b15801561578057600080fd5b505af1158015615794573d6000803e3d6000fd5b505050506040513d60208110156157aa57600080fd5b505160058a01549093506157c4908463ffffffff61559916565b60088a0155615901565b6008890185905560058901546157ea908663ffffffff61597316565b9150600d600089815260200190815260200160002060040160009054906101000a9004600160a060020a0316600160a060020a03166329a00e7c8a600101548b600201548c60030160009054906101000a900463ffffffff16866040518563ffffffff167c0100000000000000000000000000000000000000000000000000000000028152600401808581526020018481526020018363ffffffff1663ffffffff168152602001828152602001945050505050602060405180830381600087803b1580156158b757600080fd5b505af11580156158cb573d6000803e3d6000fd5b505050506040513d60208110156158e157600080fd5b505160078a01549091506158fb908263ffffffff61559916565b60068a01555b600589015460068a015460078b015460088c015460408051948552602085019390935283830191909152606083015251600160a060020a038916918a917f365713522b06a53828592398186ff46abd75365ace3b70c1fad31872ae5da2229181900360800190a3505050505050505050565b60408051808201909152601281527f4d4154485f5355425f554e444552464c4f57000000000000000000000000000060208201526000908190848411156159ff5760405160e560020a62461bcd02815260040180806020018281038252838181518152602001915080519060200190808383600083811015610af2578181015183820152602001610ada565b505050900390565b60018201546002830154600384015460009283928392615a2e92919063ffffffff166149e6565b9150846004015490508160001415615a495760019250615a69565b615a54858383615d77565b8015615a665750615a66858383615de1565b92505b505092915050565b600160a060020a038082166000818152600b6020908152604080832054835460035483517ff7888aec0000000000000000000000000000000000000000000000000000000081529088166004820152602481019690965291519395909491169263f7888aec9260448084019391929182900301818887803b158015615af557600080fd5b505af1158015615b09573d6000803e3d6000fd5b505050506040513d6020811015615b1f57600080fd5b5051101592915050565b600160a060020a0382161515615b7557604051600160a060020a0384169082156108fc029083906000818181858888f19350505050158015615b6f573d6000803e3d6000fd5b50610efb565b615b90600160a060020a03831685858463ffffffff615e4b16565b60408051808201909152601781527f4d4d5f5452414e534645525f46524f4d5f4641494c45440000000000000000006020820152901515615c165760405160e560020a62461bcd02815260040180806020018281038252838181518152602001915080519060200190808383600083811015610af2578181015183820152602001610ada565b5050505050565b9055565b600080615c2d836151f9565b80549193509150610100900460ff16151561183957805461ff00191661010017815560078101546006820154600a54615c719291613db6919063ffffffff61597316565b600a5560088101546005820154600160a060020a0385166000908152600b6020526040902054615cac92916154d7919063ffffffff61559916565b600160a060020a0384166000818152600b6020526040808220939093559151909184917f75fe92dc34008d900951376546f4b5a99223fe53a5241a96516002ad912029e19190a3505050565b6000806000806040516020818751602089018a5afa92506000831115615d1d57805191505b50909590945092505050565b6000806040516020818551602087016000895af16000811115615d6d573d8015615d5a5760208114615d6357615d6b565b60019350615d6b565b600183511493505b505b5090949350505050565b6005830154600090615d9a90620f424090613b9a90670de0b6b3a764000061514e565b615dca615db5670de0b6b3a76400008563ffffffff61559916565b6006870154613b9a908763ffffffff61514e16565b10615dd7575060016125ee565b5060009392505050565b6000670de0b6b3a76400008210615dfa575060016125ee565b6007840154615e2b90613b9a615e1e670de0b6b3a76400008663ffffffff61597316565b869063ffffffff61514e16565b6008850154615dca90620f424090613b9a90670de0b6b3a764000061514e565b60408051600160a060020a0385811660248301528416604482015260648082018490528251808303909101815260849091019091526020810180517bffffffffffffffffffffffffffffffffffffffffffffffffffffffff167f23b872dd00000000000000000000000000000000000000000000000000000000179052600090615ed58682615d29565b969550505050505056004150505f415554485f4641494c45440000000000000000000000000000000000e855346402235fdd185c890e68d2c4ecad599b88587635ee285bce2fda58dacba165627a7a72305820d1a826615baae97e9858105db61430f457ce2a7abe6f35cb68f874aecb3af3230029ebb05b386a8d34882b8711d156f463690983dc47815980fb82aeeff1aa43579e",
  "source": "pragma solidity 0.4.24;\n\nimport \"@aragon/os/contracts/apps/AragonApp.sol\";\nimport \"@aragon/os/contracts/common/EtherTokenConstant.sol\";\nimport \"@aragon/os/contracts/common/IsContract.sol\";\nimport \"@aragon/os/contracts/common/SafeERC20.sol\";\nimport \"@aragon/os/contracts/lib/math/SafeMath.sol\";\nimport \"@aragon/os/contracts/lib/token/ERC20.sol\";\nimport \"@aragon/apps-token-manager/contracts/TokenManager.sol\";\nimport \"@aragon/apps-vault/contracts/Vault.sol\";\nimport \"@ablack/fundraising-bancor-formula/contracts/BancorFormula.sol\";\nimport \"@ablack/fundraising-shared-interfaces/contracts/IAragonFundraisingController.sol\";\n\n\ncontract BatchedBancorMarketMaker is EtherTokenConstant, IsContract, AragonApp {\n    using SafeERC20 for ERC20;\n    using SafeMath  for uint256;\n\n    /**\n    Hardcoded constants to save gas\n    bytes32 public constant OPEN_ROLE                    = keccak256(\"OPEN_ROLE\");\n    bytes32 public constant UPDATE_FORMULA_ROLE          = keccak256(\"UPDATE_FORMULA_ROLE\");\n    bytes32 public constant UPDATE_BENEFICIARY_ROLE      = keccak256(\"UPDATE_BENEFICIARY_ROLE\");\n    bytes32 public constant UPDATE_FEES_ROLE             = keccak256(\"UPDATE_FEES_ROLE\");\n    bytes32 public constant ADD_COLLATERAL_TOKEN_ROLE    = keccak256(\"ADD_COLLATERAL_TOKEN_ROLE\");\n    bytes32 public constant REMOVE_COLLATERAL_TOKEN_ROLE = keccak256(\"REMOVE_COLLATERAL_TOKEN_ROLE\");\n    bytes32 public constant UPDATE_COLLATERAL_TOKEN_ROLE = keccak256(\"UPDATE_COLLATERAL_TOKEN_ROLE\");\n    bytes32 public constant OPEN_BUY_ORDER_ROLE          = keccak256(\"OPEN_BUY_ORDER_ROLE\");\n    bytes32 public constant OPEN_SELL_ORDER_ROLE         = keccak256(\"OPEN_SELL_ORDER_ROLE\");\n    */\n    bytes32 public constant OPEN_ROLE                    = 0xefa06053e2ca99a43c97c4a4f3d8a394ee3323a8ff237e625fba09fe30ceb0a4;\n    bytes32 public constant UPDATE_FORMULA_ROLE          = 0xbfb76d8d43f55efe58544ea32af187792a7bdb983850d8fed33478266eec3cbb;\n    bytes32 public constant UPDATE_BENEFICIARY_ROLE      = 0xf7ea2b80c7b6a2cab2c11d2290cb005c3748397358a25e17113658c83b732593;\n    bytes32 public constant UPDATE_FEES_ROLE             = 0x5f9be2932ed3a723f295a763be1804c7ebfd1a41c1348fb8bdf5be1c5cdca822;\n    bytes32 public constant ADD_COLLATERAL_TOKEN_ROLE    = 0x217b79cb2bc7760defc88529853ef81ab33ae5bb315408ce9f5af09c8776662d;\n    bytes32 public constant REMOVE_COLLATERAL_TOKEN_ROLE = 0x2044e56de223845e4be7d0a6f4e9a29b635547f16413a6d1327c58d9db438ee2;\n    bytes32 public constant UPDATE_COLLATERAL_TOKEN_ROLE = 0xe0565c2c43e0d841e206bb36a37f12f22584b4652ccee6f9e0c071b697a2e13d;\n    bytes32 public constant OPEN_BUY_ORDER_ROLE          = 0xa589c8f284b76fc8d510d9d553485c47dbef1b0745ae00e0f3fd4e28fcd77ea7;\n    bytes32 public constant OPEN_SELL_ORDER_ROLE         = 0xd68ba2b769fa37a2a7bd4bed9241b448bc99eca41f519ef037406386a8f291c0;\n\n    uint256 public constant PCT_BASE = 10 ** 18; // 0% = 0; 1% = 10 ** 16; 100% = 10 ** 18\n    uint32  public constant PPM      = 1000000;\n\n    string private constant ERROR_CONTRACT_IS_EOA                = \"MM_CONTRACT_IS_EOA\";\n    string private constant ERROR_INVALID_BENEFICIARY            = \"MM_INVALID_BENEFICIARY\";\n    string private constant ERROR_INVALID_BATCH_BLOCKS           = \"MM_INVALID_BATCH_BLOCKS\";\n    string private constant ERROR_INVALID_PERCENTAGE             = \"MM_INVALID_PERCENTAGE\";\n    string private constant ERROR_INVALID_RESERVE_RATIO          = \"MM_INVALID_RESERVE_RATIO\";\n    string private constant ERROR_INVALID_TM_SETTING             = \"MM_INVALID_TM_SETTING\";\n    string private constant ERROR_INVALID_COLLATERAL             = \"MM_INVALID_COLLATERAL\";\n    string private constant ERROR_INVALID_COLLATERAL_VALUE       = \"MM_INVALID_COLLATERAL_VALUE\";\n    string private constant ERROR_INVALID_BOND_AMOUNT            = \"MM_INVALID_BOND_AMOUNT\";\n    string private constant ERROR_ALREADY_OPEN                   = \"MM_ALREADY_OPEN\";\n    string private constant ERROR_NOT_OPEN                       = \"MM_NOT_OPEN\";\n    string private constant ERROR_COLLATERAL_ALREADY_WHITELISTED = \"MM_COLLATERAL_ALREADY_WHITELISTED\";\n    string private constant ERROR_COLLATERAL_NOT_WHITELISTED     = \"MM_COLLATERAL_NOT_WHITELISTED\";\n    string private constant ERROR_NOTHING_TO_CLAIM               = \"MM_NOTHING_TO_CLAIM\";\n    string private constant ERROR_BATCH_NOT_OVER                 = \"MM_BATCH_NOT_OVER\";\n    string private constant ERROR_BATCH_CANCELLED                = \"MM_BATCH_CANCELLED\";\n    string private constant ERROR_BATCH_NOT_CANCELLED            = \"MM_BATCH_NOT_CANCELLED\";\n    string private constant ERROR_SLIPPAGE_EXCEEDS_LIMIT         = \"MM_SLIPPAGE_EXCEEDS_LIMIT\";\n    string private constant ERROR_INSUFFICIENT_POOL_BALANCE      = \"MM_INSUFFICIENT_POOL_BALANCE\";\n    string private constant ERROR_TRANSFER_FROM_FAILED           = \"MM_TRANSFER_FROM_FAILED\";\n\n    struct Collateral {\n        bool    whitelisted;\n        uint256 virtualSupply;\n        uint256 virtualBalance;\n        uint32  reserveRatio;\n        uint256 slippage;\n    }\n\n    struct MetaBatch {\n        bool           initialized;\n        uint256        realSupply;\n        uint256        buyFeePct;\n        uint256        sellFeePct;\n        IBancorFormula formula;\n        mapping(address => Batch) batches;\n    }\n\n    struct Batch {\n        bool    initialized;\n        bool    cancelled;\n        uint256 supply;\n        uint256 balance;\n        uint32  reserveRatio;\n        uint256 slippage;\n        uint256 totalBuySpend;\n        uint256 totalBuyReturn;\n        uint256 totalSellSpend;\n        uint256 totalSellReturn;\n        mapping(address => uint256) buyers;\n        mapping(address => uint256) sellers;\n    }\n\n    IAragonFundraisingController   public controller;\n    TokenManager                   public tokenManager;\n    ERC20                          public token;\n    Vault                          public reserve;\n    address                        public beneficiary;\n    IBancorFormula                 public formula;\n\n    uint256                        public batchBlocks;\n    uint256                        public buyFeePct;\n    uint256                        public sellFeePct;\n\n    bool                           public isOpen;\n    uint256                        public tokensToBeMinted;\n    mapping(address => uint256)    public collateralsToBeClaimed;\n    mapping(address => Collateral) public collaterals;\n    mapping(uint256 => MetaBatch)  public metaBatches;\n\n    event UpdateBeneficiary      (address indexed beneficiary);\n    event UpdateFormula          (address indexed formula);\n    event UpdateFees             (uint256 buyFeePct, uint256 sellFeePct);\n    event NewMetaBatch           (uint256 indexed id, uint256 supply, uint256 buyFeePct, uint256 sellFeePct, address formula);\n    event NewBatch               (\n        uint256 indexed id,\n        address indexed collateral,\n        uint256 supply,\n        uint256 balance,\n        uint32  reserveRatio,\n        uint256 slippage)\n    ;\n    event CancelBatch            (uint256 indexed id, address indexed collateral);\n    event AddCollateralToken     (\n        address indexed collateral,\n        uint256 virtualSupply,\n        uint256 virtualBalance,\n        uint32  reserveRatio,\n        uint256 slippage\n    );\n    event RemoveCollateralToken  (address indexed collateral);\n    event UpdateCollateralToken  (\n        address indexed collateral,\n        uint256 virtualSupply,\n        uint256 virtualBalance,\n        uint32  reserveRatio,\n        uint256 slippage\n    );\n    event Open                   ();\n    event OpenBuyOrder           (address indexed buyer, uint256 indexed batchId, address indexed collateral, uint256 fee, uint256 value);\n    event OpenSellOrder          (address indexed seller, uint256 indexed batchId, address indexed collateral, uint256 amount);\n    event ClaimBuyOrder          (address indexed buyer, uint256 indexed batchId, address indexed collateral, uint256 amount);\n    event ClaimSellOrder         (address indexed seller, uint256 indexed batchId, address indexed collateral, uint256 fee, uint256 value);\n    event ClaimCancelledBuyOrder (address indexed buyer, uint256 indexed batchId, address indexed collateral, uint256 value);\n    event ClaimCancelledSellOrder(address indexed seller, uint256 indexed batchId, address indexed collateral, uint256 amount);\n    event UpdatePricing          (\n        uint256 indexed batchId,\n        address indexed collateral,\n        uint256 totalBuySpend,\n        uint256 totalBuyReturn,\n        uint256 totalSellSpend,\n        uint256 totalSellReturn\n    );\n\n\n    /***** external function *****/\n\n    /**\n     * @notice Initialize market maker\n     * @param _controller   The address of the controller contract\n     * @param _tokenManager The address of the [bonded token] token manager contract\n     * @param _reserve      The address of the reserve [pool] contract\n     * @param _beneficiary  The address of the beneficiary [to whom fees are to be sent]\n     * @param _formula      The address of the BancorFormula [computation] contract\n     * @param _batchBlocks  The number of blocks batches are to last\n     * @param _buyFeePct    The fee to be deducted from buy orders [in PCT_BASE]\n     * @param _sellFeePct   The fee to be deducted from sell orders [in PCT_BASE]\n    */\n    function initialize(\n        IAragonFundraisingController _controller,\n        TokenManager                 _tokenManager,\n        IBancorFormula               _formula,\n        Vault                        _reserve,\n        address                      _beneficiary,\n        uint256                      _batchBlocks,\n        uint256                      _buyFeePct,\n        uint256                      _sellFeePct\n    )\n        external\n        onlyInit\n    {\n        initialized();\n\n        require(isContract(_controller),                             ERROR_CONTRACT_IS_EOA);\n        require(isContract(_tokenManager),                           ERROR_CONTRACT_IS_EOA);\n        require(isContract(_formula),                                ERROR_CONTRACT_IS_EOA);\n        require(isContract(_reserve),                                ERROR_CONTRACT_IS_EOA);\n        require(_beneficiaryIsValid(_beneficiary),                   ERROR_INVALID_BENEFICIARY);\n        require(_batchBlocks > 0,                                    ERROR_INVALID_BATCH_BLOCKS);\n        require(_feeIsValid(_buyFeePct) && _feeIsValid(_sellFeePct), ERROR_INVALID_PERCENTAGE);\n        require(_tokenManagerSettingIsValid(_tokenManager),          ERROR_INVALID_TM_SETTING);\n\n        controller = _controller;\n        tokenManager = _tokenManager;\n        token = ERC20(tokenManager.token());\n        formula = _formula;\n        reserve = _reserve;\n        beneficiary = _beneficiary;\n        batchBlocks = _batchBlocks;\n        buyFeePct = _buyFeePct;\n        sellFeePct = _sellFeePct;\n    }\n\n    /* generic settings related function */\n\n    /**\n     * @notice Open market making [enabling users to open buy and sell orders]\n    */\n    function open() external auth(OPEN_ROLE) {\n        require(!isOpen, ERROR_ALREADY_OPEN);\n\n        _open();\n    }\n\n    /**\n     * @notice Update formula to `_formula`\n     * @param _formula The address of the new BancorFormula [computation] contract\n    */\n    function updateFormula(IBancorFormula _formula) external auth(UPDATE_FORMULA_ROLE) {\n        require(isContract(_formula), ERROR_CONTRACT_IS_EOA);\n\n        _updateFormula(_formula);\n    }\n\n    /**\n     * @notice Update beneficiary to `_beneficiary`\n     * @param _beneficiary The address of the new beneficiary [to whom fees are to be sent]\n    */\n    function updateBeneficiary(address _beneficiary) external auth(UPDATE_BENEFICIARY_ROLE) {\n        require(_beneficiaryIsValid(_beneficiary), ERROR_INVALID_BENEFICIARY);\n\n        _updateBeneficiary(_beneficiary);\n    }\n\n    /**\n     * @notice Update fees deducted from buy and sell orders to respectively `@formatPct(_buyFeePct)`% and `@formatPct(_sellFeePct)`%\n     * @param _buyFeePct  The new fee to be deducted from buy orders [in PCT_BASE]\n     * @param _sellFeePct The new fee to be deducted from sell orders [in PCT_BASE]\n    */\n    function updateFees(uint256 _buyFeePct, uint256 _sellFeePct) external auth(UPDATE_FEES_ROLE) {\n        require(_feeIsValid(_buyFeePct) && _feeIsValid(_sellFeePct), ERROR_INVALID_PERCENTAGE);\n\n        _updateFees(_buyFeePct, _sellFeePct);\n    }\n\n    /* collateral tokens related functions */\n\n    /**\n     * @notice Add `_collateral.symbol(): string` as a whitelisted collateral token\n     * @param _collateral     The address of the collateral token to be whitelisted\n     * @param _virtualSupply  The virtual supply to be used for that collateral token [in wei]\n     * @param _virtualBalance The virtual balance to be used for that collateral token [in wei]\n     * @param _reserveRatio   The reserve ratio to be used for that collateral token [in PPM]\n     * @param _slippage       The price slippage below which each batch is to be kept for that collateral token [in PCT_BASE]\n    */\n    function addCollateralToken(address _collateral, uint256 _virtualSupply, uint256 _virtualBalance, uint32 _reserveRatio, uint256 _slippage)\n        external\n        auth(ADD_COLLATERAL_TOKEN_ROLE)\n    {\n        require(isContract(_collateral) || _collateral == ETH, ERROR_INVALID_COLLATERAL);\n        require(!_collateralIsWhitelisted(_collateral),        ERROR_COLLATERAL_ALREADY_WHITELISTED);\n        require(_reserveRatioIsValid(_reserveRatio),           ERROR_INVALID_RESERVE_RATIO);\n\n        _addCollateralToken(_collateral, _virtualSupply, _virtualBalance, _reserveRatio, _slippage);\n    }\n\n    /**\n      * @notice Remove `_collateral.symbol(): string` as a whitelisted collateral token\n      * @param _collateral The address of the collateral token to be un-whitelisted\n    */\n    function removeCollateralToken(address _collateral) external auth(REMOVE_COLLATERAL_TOKEN_ROLE) {\n        require(_collateralIsWhitelisted(_collateral), ERROR_COLLATERAL_NOT_WHITELISTED);\n\n        _removeCollateralToken(_collateral);\n    }\n\n    /**\n     * @notice Update `_collateral.symbol(): string` collateralization settings\n     * @param _collateral     The address of the collateral token whose collateralization settings are to be updated\n     * @param _virtualSupply  The new virtual supply to be used for that collateral token [in wei]\n     * @param _virtualBalance The new virtual balance to be used for that collateral token [in wei]\n     * @param _reserveRatio   The new reserve ratio to be used for that collateral token [in PPM]\n     * @param _slippage       The new price slippage below which each batch is to be kept for that collateral token [in PCT_BASE]\n    */\n    function updateCollateralToken(address _collateral, uint256 _virtualSupply, uint256 _virtualBalance, uint32 _reserveRatio, uint256 _slippage)\n        external\n        auth(UPDATE_COLLATERAL_TOKEN_ROLE)\n    {\n        require(_collateralIsWhitelisted(_collateral), ERROR_COLLATERAL_NOT_WHITELISTED);\n        require(_reserveRatioIsValid(_reserveRatio),   ERROR_INVALID_RESERVE_RATIO);\n\n        _updateCollateralToken(_collateral, _virtualSupply, _virtualBalance, _reserveRatio, _slippage);\n    }\n\n    /* market making related functions */\n\n    /**\n     * @notice Open a buy order worth `@tokenAmount(_collateral, _value)`\n     * @param _buyer      The address of the buyer\n     * @param _collateral The address of the collateral token to be spent\n     * @param _value      The amount of collateral token to be spent\n    */\n    function openBuyOrder(address _buyer, address _collateral, uint256 _value) external payable auth(OPEN_BUY_ORDER_ROLE) {\n        require(isOpen,                                                          ERROR_NOT_OPEN);\n        require(_collateralIsWhitelisted(_collateral),                           ERROR_COLLATERAL_NOT_WHITELISTED);\n        require(!_batchIsCancelled(_currentBatchId(), _collateral),              ERROR_BATCH_CANCELLED);\n        require(_collateralValueIsValid(_buyer, _collateral, _value, msg.value), ERROR_INVALID_COLLATERAL_VALUE);\n\n        _openBuyOrder(_buyer, _collateral, _value);\n    }\n\n    /**\n     * @notice Open a sell order worth `@tokenAmount(self.token(): address, _amount)` against `_collateral.symbol(): string`\n     * @param _seller     The address of the seller\n     * @param _collateral The address of the collateral token to be returned\n     * @param _amount     The amount of bonded token to be spent\n    */\n    function openSellOrder(address _seller, address _collateral, uint256 _amount) external auth(OPEN_SELL_ORDER_ROLE) {\n        require(isOpen,                                             ERROR_NOT_OPEN);\n        require(_collateralIsWhitelisted(_collateral),              ERROR_COLLATERAL_NOT_WHITELISTED);\n        require(!_batchIsCancelled(_currentBatchId(), _collateral), ERROR_BATCH_CANCELLED);\n        require(_bondAmountIsValid(_seller, _amount),               ERROR_INVALID_BOND_AMOUNT);\n\n        _openSellOrder(_seller, _collateral, _amount);\n    }\n\n    /**\n     * @notice Claim the results of `_buyer`'s `_collateral.symbol(): string` buy orders from batch #`_batchId`\n     * @param _buyer      The address of the user whose buy orders are to be claimed\n     * @param _batchId    The id of the batch in which buy orders are to be claimed\n     * @param _collateral The address of the collateral token against which buy orders are to be claimed\n    */\n    function claimBuyOrder(address _buyer, uint256 _batchId, address _collateral) external nonReentrant isInitialized {\n        require(_collateralIsWhitelisted(_collateral),       ERROR_COLLATERAL_NOT_WHITELISTED);\n        require(_batchIsOver(_batchId),                      ERROR_BATCH_NOT_OVER);\n        require(!_batchIsCancelled(_batchId, _collateral),   ERROR_BATCH_CANCELLED);\n        require(_userIsBuyer(_batchId, _collateral, _buyer), ERROR_NOTHING_TO_CLAIM);\n\n        _claimBuyOrder(_buyer, _batchId, _collateral);\n    }\n\n    /**\n     * @notice Claim the results of `_seller`'s `_collateral.symbol(): string` sell orders from batch #`_batchId`\n     * @param _seller     The address of the user whose sell orders are to be claimed\n     * @param _batchId    The id of the batch in which sell orders are to be claimed\n     * @param _collateral The address of the collateral token against which sell orders are to be claimed\n    */\n    function claimSellOrder(address _seller, uint256 _batchId, address _collateral) external nonReentrant isInitialized {\n        require(_collateralIsWhitelisted(_collateral),         ERROR_COLLATERAL_NOT_WHITELISTED);\n        require(_batchIsOver(_batchId),                        ERROR_BATCH_NOT_OVER);\n        require(!_batchIsCancelled(_batchId, _collateral),     ERROR_BATCH_CANCELLED);\n        require(_userIsSeller(_batchId, _collateral, _seller), ERROR_NOTHING_TO_CLAIM);\n\n        _claimSellOrder(_seller, _batchId, _collateral);\n    }\n\n    /**\n     * @notice Claim the investments of `_buyer`'s `_collateral.symbol(): string` buy orders from cancelled batch #`_batchId`\n     * @param _buyer      The address of the user whose cancelled buy orders are to be claimed\n     * @param _batchId    The id of the batch in which cancelled buy orders are to be claimed\n     * @param _collateral The address of the collateral token against which cancelled buy orders are to be claimed\n    */\n    function claimCancelledBuyOrder(address _buyer, uint256 _batchId, address _collateral) external nonReentrant isInitialized {\n        require(_batchIsCancelled(_batchId, _collateral),    ERROR_BATCH_NOT_CANCELLED);\n        require(_userIsBuyer(_batchId, _collateral, _buyer), ERROR_NOTHING_TO_CLAIM);\n\n        _claimCancelledBuyOrder(_buyer, _batchId, _collateral);\n    }\n\n    /**\n     * @notice Claim the investments of `_seller`'s `_collateral.symbol(): string` sell orders from cancelled batch #`_batchId`\n     * @param _seller     The address of the user whose cancelled sell orders are to be claimed\n     * @param _batchId    The id of the batch in which cancelled sell orders are to be claimed\n     * @param _collateral The address of the collateral token against which cancelled sell orders are to be claimed\n    */\n    function claimCancelledSellOrder(address _seller, uint256 _batchId, address _collateral) external nonReentrant isInitialized {\n        require(_batchIsCancelled(_batchId, _collateral),      ERROR_BATCH_NOT_CANCELLED);\n        require(_userIsSeller(_batchId, _collateral, _seller), ERROR_NOTHING_TO_CLAIM);\n\n        _claimCancelledSellOrder(_seller, _batchId, _collateral);\n    }\n\n    /***** public view functions *****/\n\n    function getCurrentBatchId() public view isInitialized returns (uint256) {\n        return _currentBatchId();\n    }\n\n    function getCollateralToken(address _collateral) public view isInitialized returns (bool, uint256, uint256, uint32, uint256) {\n        Collateral storage collateral = collaterals[_collateral];\n\n        return (collateral.whitelisted, collateral.virtualSupply, collateral.virtualBalance, collateral.reserveRatio, collateral.slippage);\n    }\n\n    function getBatch(uint256 _batchId, address _collateral)\n        public view isInitialized\n        returns (bool, bool, uint256, uint256, uint32, uint256, uint256, uint256, uint256, uint256)\n    {\n        Batch storage batch = metaBatches[_batchId].batches[_collateral];\n\n        return (\n            batch.initialized,\n            batch.cancelled,\n            batch.supply,\n            batch.balance,\n            batch.reserveRatio,\n            batch.slippage,\n            batch.totalBuySpend,\n            batch.totalBuyReturn,\n            batch.totalSellSpend,\n            batch.totalSellReturn\n        );\n    }\n\n    function getStaticPricePPM(uint256 _supply, uint256 _balance, uint32 _reserveRatio) public view isInitialized returns (uint256) {\n        return _staticPricePPM(_supply, _balance, _reserveRatio);\n    }\n\n    /***** internal functions *****/\n\n    /* computation functions */\n\n    function _staticPricePPM(uint256 _supply, uint256 _balance, uint32 _reserveRatio) internal pure returns (uint256) {\n        return uint256(PPM).mul(uint256(PPM)).mul(_balance).div(_supply.mul(uint256(_reserveRatio)));\n    }\n\n    function _currentBatchId() internal view returns (uint256) {\n        return (block.number.div(batchBlocks)).mul(batchBlocks);\n    }\n\n    /* check functions */\n\n    function _beneficiaryIsValid(address _beneficiary) internal pure returns (bool) {\n        return _beneficiary != address(0);\n    }\n\n    function _feeIsValid(uint256 _fee) internal pure returns (bool) {\n        return _fee < PCT_BASE;\n    }\n\n    function _reserveRatioIsValid(uint32 _reserveRatio) internal pure returns (bool) {\n        return _reserveRatio <= PPM;\n    }\n\n    function _tokenManagerSettingIsValid(TokenManager _tokenManager) internal view returns (bool) {\n        return _tokenManager.maxAccountTokens() == uint256(-1);\n    }\n\n    function _collateralValueIsValid(address _buyer, address _collateral, uint256 _value, uint256 _msgValue) internal view returns (bool) {\n        if (_value == 0) {\n            return false;\n        }\n\n        if (_collateral == ETH) {\n            return _msgValue == _value;\n        }\n\n        return (\n            _msgValue == 0 &&\n            controller.balanceOf(_buyer, _collateral) >= _value &&\n            ERC20(_collateral).allowance(_buyer, address(this)) >= _value\n        );\n    }\n\n    function _bondAmountIsValid(address _seller, uint256 _amount) internal view returns (bool) {\n        return _amount != 0 && tokenManager.spendableBalanceOf(_seller) >= _amount;\n    }\n\n    function _collateralIsWhitelisted(address _collateral) internal view returns (bool) {\n        return collaterals[_collateral].whitelisted;\n    }\n\n    function _batchIsOver(uint256 _batchId) internal view returns (bool) {\n        return _batchId < _currentBatchId();\n    }\n\n    function _batchIsCancelled(uint256 _batchId, address _collateral) internal view returns (bool) {\n        return metaBatches[_batchId].batches[_collateral].cancelled;\n    }\n\n    function _userIsBuyer(uint256 _batchId, address _collateral, address _user) internal view returns (bool) {\n        Batch storage batch = metaBatches[_batchId].batches[_collateral];\n        return batch.buyers[_user] > 0;\n    }\n\n    function _userIsSeller(uint256 _batchId, address _collateral, address _user) internal view returns (bool) {\n        Batch storage batch = metaBatches[_batchId].batches[_collateral];\n        return batch.sellers[_user] > 0;\n    }\n\n    function _poolBalanceIsSufficient(address _collateral) internal view returns (bool) {\n        return controller.balanceOf(address(reserve), _collateral) >= collateralsToBeClaimed[_collateral];\n    }\n\n    function _slippageIsValid(Batch storage _batch, address _collateral) internal view returns (bool) {\n        uint256 staticPricePPM = _staticPricePPM(_batch.supply, _batch.balance, _batch.reserveRatio);\n        uint256 maximumSlippage = _batch.slippage;\n\n        // if static price is zero let's consider that every slippage is valid\n        if (staticPricePPM == 0) {\n            return true;\n        }\n\n        return _buySlippageIsValid(_batch, staticPricePPM, maximumSlippage) && _sellSlippageIsValid(_batch, staticPricePPM, maximumSlippage);\n    }\n\n    function _buySlippageIsValid(Batch storage _batch, uint256 _startingPricePPM, uint256 _maximumSlippage) internal view returns (bool) {\n        /**\n         * NOTE\n         * the case where starting price is zero is handled\n         * in the meta function _slippageIsValid()\n        */\n\n        /**\n         * NOTE\n         * slippage is valid if:\n         * totalBuyReturn >= totalBuySpend / (startingPrice * (1 + maxSlippage))\n         * totalBuyReturn >= totalBuySpend / ((startingPricePPM / PPM) * (1 + maximumSlippage / PCT_BASE))\n         * totalBuyReturn >= totalBuySpend / ((startingPricePPM / PPM) * (1 + maximumSlippage / PCT_BASE))\n         * totalBuyReturn >= totalBuySpend / ((startingPricePPM / PPM) * (PCT + maximumSlippage) / PCT_BASE)\n         * totalBuyReturn * startingPrice * ( PCT + maximumSlippage) >= totalBuySpend * PCT_BASE * PPM\n        */\n        if (\n            _batch.totalBuyReturn.mul(_startingPricePPM).mul(PCT_BASE.add(_maximumSlippage)) >=\n            _batch.totalBuySpend.mul(PCT_BASE).mul(uint256(PPM))\n        ) {\n            return true;\n        }\n\n        return false;\n    }\n\n    function _sellSlippageIsValid(Batch storage _batch, uint256 _startingPricePPM, uint256 _maximumSlippage) internal view returns (bool) {\n        /**\n         * NOTE\n         * the case where starting price is zero is handled\n         * in the meta function _slippageIsValid()\n        */\n\n        // if allowed sell slippage >= 100%\n        // then any sell slippage is valid\n        if (_maximumSlippage >= PCT_BASE) {\n            return true;\n        }\n\n        /**\n         * NOTE\n         * slippage is valid if\n         * totalSellReturn >= startingPrice * (1 - maxSlippage) * totalBuySpend\n         * totalSellReturn >= (startingPricePPM / PPM) * (1 - maximumSlippage / PCT_BASE) * totalBuySpend\n         * totalSellReturn >= (startingPricePPM / PPM) * (PCT_BASE - maximumSlippage) * totalBuySpend / PCT_BASE\n         * totalSellReturn * PCT_BASE * PPM = startingPricePPM * (PCT_BASE - maximumSlippage) * totalBuySpend\n        */\n\n        if (\n            _batch.totalSellReturn.mul(PCT_BASE).mul(uint256(PPM)) >=\n            _startingPricePPM.mul(PCT_BASE.sub(_maximumSlippage)).mul(_batch.totalSellSpend)\n        ) {\n            return true;\n        }\n\n        return false;\n    }\n\n    /* initialization functions */\n\n    function _currentBatch(address _collateral) internal returns (uint256, Batch storage) {\n        uint256 batchId = _currentBatchId();\n        MetaBatch storage metaBatch = metaBatches[batchId];\n        Batch storage batch = metaBatch.batches[_collateral];\n\n        if (!metaBatch.initialized) {\n            /**\n             * NOTE\n             * all collateral batches should be initialized with the same supply to\n             * avoid price manipulation between different collaterals in the same meta-batch\n             * we don't need to do the same with collateral balances as orders against one collateral\n             * can't affect the pool's balance against another collateral and tap is a step-function\n             * of the meta-batch duration\n            */\n\n            /**\n             * NOTE\n             * realSupply(metaBatch) = totalSupply(metaBatchInitialization) + tokensToBeMinted(metaBatchInitialization)\n             * 1. buy and sell orders incoming during the current meta-batch and affecting totalSupply or tokensToBeMinted\n             * should not be taken into account in the price computation [they are already a part of the batched pricing computation]\n             * 2. the only way for totalSupply to be modified during a meta-batch [outside of incoming buy and sell orders]\n             * is for buy orders from previous meta-batches to be claimed [and tokens to be minted]:\n             * as such totalSupply(metaBatch) + tokenToBeMinted(metaBatch) will always equal totalSupply(metaBatchInitialization) + tokenToBeMinted(metaBatchInitialization)\n            */\n            metaBatch.realSupply = token.totalSupply().add(tokensToBeMinted);\n            metaBatch.buyFeePct = buyFeePct;\n            metaBatch.sellFeePct = sellFeePct;\n            metaBatch.formula = formula;\n            metaBatch.initialized = true;\n\n            emit NewMetaBatch(batchId, metaBatch.realSupply, metaBatch.buyFeePct, metaBatch.sellFeePct, metaBatch.formula);\n        }\n\n        if (!batch.initialized) {\n            /**\n             * NOTE\n             * supply(batch) = realSupply(metaBatch) + virtualSupply(batchInitialization)\n             * virtualSupply can technically be updated during a batch: the on-going batch will still use\n             * its value at the time of initialization [it's up to the updater to act wisely]\n            */\n\n            /**\n             * NOTE\n             * balance(batch) = poolBalance(batchInitialization) - collateralsToBeClaimed(batchInitialization) + virtualBalance(metaBatchInitialization)\n             * 1. buy and sell orders incoming during the current batch and affecting poolBalance or collateralsToBeClaimed\n             * should not be taken into account in the price computation [they are already a part of the batched price computation]\n             * 2. the only way for poolBalance to be modified during a batch [outside of incoming buy and sell orders]\n             * is for sell orders from previous meta-batches to be claimed [and collateral to be transfered] as the tap is a step-function of the meta-batch duration:\n             * as such poolBalance(batch) - collateralsToBeClaimed(batch) will always equal poolBalance(batchInitialization) - collateralsToBeClaimed(batchInitialization)\n             * 3. virtualBalance can technically be updated during a batch: the on-going batch will still use\n             * its value at the time of initialization [it's up to the updater to act wisely]\n            */\n            controller.updateTappedAmount(_collateral);\n            batch.supply = metaBatch.realSupply.add(collaterals[_collateral].virtualSupply);\n            batch.balance = controller.balanceOf(address(reserve), _collateral).add(collaterals[_collateral].virtualBalance).sub(collateralsToBeClaimed[_collateral]);\n            batch.reserveRatio = collaterals[_collateral].reserveRatio;\n            batch.slippage = collaterals[_collateral].slippage;\n            batch.initialized = true;\n\n            emit NewBatch(batchId, _collateral, batch.supply, batch.balance, batch.reserveRatio, batch.slippage);\n        }\n\n        return (batchId, batch);\n    }\n\n    /* state modifiying functions */\n\n    function _open() internal {\n        isOpen = true;\n\n        emit Open();\n    }\n\n    function _updateBeneficiary(address _beneficiary) internal {\n        beneficiary = _beneficiary;\n\n        emit UpdateBeneficiary(_beneficiary);\n    }\n\n    function _updateFormula(IBancorFormula _formula) internal {\n        formula = _formula;\n\n        emit UpdateFormula(address(_formula));\n    }\n\n    function _updateFees(uint256 _buyFeePct, uint256 _sellFeePct) internal {\n        buyFeePct = _buyFeePct;\n        sellFeePct = _sellFeePct;\n\n        emit UpdateFees(_buyFeePct, _sellFeePct);\n    }\n\n    function _cancelCurrentBatch(address _collateral) internal {\n        (uint256 batchId, Batch storage batch) = _currentBatch(_collateral);\n        if (!batch.cancelled) {\n            batch.cancelled = true;\n\n            // bought bonds are cancelled but sold bonds are due back\n            // bought collaterals are cancelled but sold collaterals are due back\n            tokensToBeMinted = tokensToBeMinted.sub(batch.totalBuyReturn).add(batch.totalSellSpend);\n            collateralsToBeClaimed[_collateral] = collateralsToBeClaimed[_collateral].add(batch.totalBuySpend).sub(batch.totalSellReturn);\n\n            emit CancelBatch(batchId, _collateral);\n        }\n    }\n\n    function _addCollateralToken(address _collateral, uint256 _virtualSupply, uint256 _virtualBalance, uint32 _reserveRatio, uint256 _slippage)\n        internal\n    {\n        collaterals[_collateral].whitelisted = true;\n        collaterals[_collateral].virtualSupply = _virtualSupply;\n        collaterals[_collateral].virtualBalance = _virtualBalance;\n        collaterals[_collateral].reserveRatio = _reserveRatio;\n        collaterals[_collateral].slippage = _slippage;\n\n        emit AddCollateralToken(_collateral, _virtualSupply, _virtualBalance, _reserveRatio, _slippage);\n    }\n\n    function _removeCollateralToken(address _collateral) internal {\n        _cancelCurrentBatch(_collateral);\n\n        Collateral storage collateral = collaterals[_collateral];\n        delete collateral.whitelisted;\n        delete collateral.virtualSupply;\n        delete collateral.virtualBalance;\n        delete collateral.reserveRatio;\n        delete collateral.slippage;\n\n        emit RemoveCollateralToken(_collateral);\n    }\n\n    function _updateCollateralToken(\n        address _collateral,\n        uint256 _virtualSupply,\n        uint256 _virtualBalance,\n        uint32  _reserveRatio,\n        uint256 _slippage\n    )\n        internal\n    {\n        collaterals[_collateral].virtualSupply = _virtualSupply;\n        collaterals[_collateral].virtualBalance = _virtualBalance;\n        collaterals[_collateral].reserveRatio = _reserveRatio;\n        collaterals[_collateral].slippage = _slippage;\n\n        emit UpdateCollateralToken(_collateral, _virtualSupply, _virtualBalance, _reserveRatio, _slippage);\n    }\n\n    function _openBuyOrder(address _buyer, address _collateral, uint256 _value) internal {\n        (uint256 batchId, Batch storage batch) = _currentBatch(_collateral);\n\n        // deduct fee\n        uint256 fee = _value.mul(metaBatches[batchId].buyFeePct).div(PCT_BASE);\n        uint256 value = _value.sub(fee);\n\n        // collect fee and collateral\n        if (fee > 0) {\n            _transfer(_buyer, beneficiary, _collateral, fee);\n        }\n        _transfer(_buyer, address(reserve), _collateral, value);\n\n        // save batch\n        uint256 deprecatedBuyReturn = batch.totalBuyReturn;\n        uint256 deprecatedSellReturn = batch.totalSellReturn;\n\n        // update batch\n        batch.totalBuySpend = batch.totalBuySpend.add(value);\n        batch.buyers[_buyer] = batch.buyers[_buyer].add(value);\n\n        // update pricing\n        _updatePricing(batch, batchId, _collateral);\n\n        // update the amount of tokens to be minted and collaterals to be claimed\n        tokensToBeMinted = tokensToBeMinted.sub(deprecatedBuyReturn).add(batch.totalBuyReturn);\n        collateralsToBeClaimed[_collateral] = collateralsToBeClaimed[_collateral].sub(deprecatedSellReturn).add(batch.totalSellReturn);\n\n        // sanity checks\n        require(_slippageIsValid(batch, _collateral), ERROR_SLIPPAGE_EXCEEDS_LIMIT);\n\n        emit OpenBuyOrder(_buyer, batchId, _collateral, fee, value);\n    }\n\n    function _openSellOrder(address _seller, address _collateral, uint256 _amount) internal {\n        (uint256 batchId, Batch storage batch) = _currentBatch(_collateral);\n\n        // burn bonds\n        tokenManager.burn(_seller, _amount);\n\n        // save batch\n        uint256 deprecatedBuyReturn = batch.totalBuyReturn;\n        uint256 deprecatedSellReturn = batch.totalSellReturn;\n\n        // update batch\n        batch.totalSellSpend = batch.totalSellSpend.add(_amount);\n        batch.sellers[_seller] = batch.sellers[_seller].add(_amount);\n\n        // update pricing\n        _updatePricing(batch, batchId, _collateral);\n\n        // update the amount of tokens to be minted and collaterals to be claimed\n        tokensToBeMinted = tokensToBeMinted.sub(deprecatedBuyReturn).add(batch.totalBuyReturn);\n        collateralsToBeClaimed[_collateral] = collateralsToBeClaimed[_collateral].sub(deprecatedSellReturn).add(batch.totalSellReturn);\n\n        // sanity checks\n        require(_slippageIsValid(batch, _collateral), ERROR_SLIPPAGE_EXCEEDS_LIMIT);\n        require(_poolBalanceIsSufficient(_collateral), ERROR_INSUFFICIENT_POOL_BALANCE);\n\n        emit OpenSellOrder(_seller, batchId, _collateral, _amount);\n    }\n\n    function _claimBuyOrder(address _buyer, uint256 _batchId, address _collateral) internal {\n        Batch storage batch = metaBatches[_batchId].batches[_collateral];\n        uint256 buyReturn = (batch.buyers[_buyer].mul(batch.totalBuyReturn)).div(batch.totalBuySpend);\n\n        batch.buyers[_buyer] = 0;\n\n        if (buyReturn > 0) {\n            tokensToBeMinted = tokensToBeMinted.sub(buyReturn);\n            tokenManager.mint(_buyer, buyReturn);\n        }\n\n        emit ClaimBuyOrder(_buyer, _batchId, _collateral, buyReturn);\n    }\n\n    function _claimSellOrder(address _seller, uint256 _batchId, address _collateral) internal {\n        Batch storage batch = metaBatches[_batchId].batches[_collateral];\n        uint256 saleReturn = (batch.sellers[_seller].mul(batch.totalSellReturn)).div(batch.totalSellSpend);\n        uint256 fee = saleReturn.mul(metaBatches[_batchId].sellFeePct).div(PCT_BASE);\n        uint256 value = saleReturn.sub(fee);\n\n        batch.sellers[_seller] = 0;\n\n        if (value > 0) {\n            collateralsToBeClaimed[_collateral] = collateralsToBeClaimed[_collateral].sub(saleReturn);\n            reserve.transfer(_collateral, _seller, value);\n        }\n        if (fee > 0) {\n            reserve.transfer(_collateral, beneficiary, fee);\n        }\n\n\n        emit ClaimSellOrder(_seller, _batchId, _collateral, fee, value);\n    }\n\n    function _claimCancelledBuyOrder(address _buyer, uint256 _batchId, address _collateral) internal {\n        Batch storage batch = metaBatches[_batchId].batches[_collateral];\n\n        uint256 value = batch.buyers[_buyer];\n        batch.buyers[_buyer] = 0;\n\n        if (value > 0) {\n            collateralsToBeClaimed[_collateral] = collateralsToBeClaimed[_collateral].sub(value);\n            reserve.transfer(_collateral, _buyer, value);\n        }\n\n        emit ClaimCancelledBuyOrder(_buyer, _batchId, _collateral, value);\n    }\n\n    function _claimCancelledSellOrder(address _seller, uint256 _batchId, address _collateral) internal {\n        Batch storage batch = metaBatches[_batchId].batches[_collateral];\n\n        uint256 amount = batch.sellers[_seller];\n        batch.sellers[_seller] = 0;\n\n        if (amount > 0) {\n            tokensToBeMinted = tokensToBeMinted.sub(amount);\n            tokenManager.mint(_seller, amount);\n        }\n\n        emit ClaimCancelledSellOrder(_seller, _batchId, _collateral, amount);\n    }\n\n    function _updatePricing(Batch storage batch, uint256 _batchId, address _collateral) internal {\n        // the situation where there are no buy nor sell orders can't happen [keep commented]\n        // if (batch.totalSellSpend == 0 && batch.totalBuySpend == 0)\n        //     return;\n\n        // static price is the current exact price in collateral\n        // per token according to the initial state of the batch\n        // [expressed in PPM for precision sake]\n        uint256 staticPricePPM = _staticPricePPM(batch.supply, batch.balance, batch.reserveRatio);\n\n        // [NOTE]\n        // if staticPrice is zero then resultOfSell [= 0] <= batch.totalBuySpend\n        // so totalSellReturn will be zero and totalBuyReturn will be\n        // computed normally along the formula\n\n        // 1. we want to find out if buy orders are worth more sell orders [or vice-versa]\n        // 2. we thus check the return of sell orders at the current exact price\n        // 3. if the return of sell orders is larger than the pending buys,\n        //    there are more sells than buys [and vice-versa]\n        uint256 resultOfSell = batch.totalSellSpend.mul(staticPricePPM).div(uint256(PPM));\n\n        if (resultOfSell > batch.totalBuySpend) {\n            // >> sell orders are worth more than buy orders\n\n            // 1. first we execute all pending buy orders at the current exact\n            // price because there is at least one sell order for each buy order\n            // 2. then the final sell return is the addition of this first\n            // matched return with the remaining bonding curve return\n\n            // the number of tokens bought as a result of all buy orders matched at the\n            // current exact price [which is less than the total amount of tokens to be sold]\n            batch.totalBuyReturn = batch.totalBuySpend.mul(uint256(PPM)).div(staticPricePPM);\n            // the number of tokens left over to be sold along the curve which is the difference\n            // between the original total sell order and the result of all the buy orders\n            uint256 remainingSell = batch.totalSellSpend.sub(batch.totalBuyReturn);\n            // the amount of collateral generated by selling tokens left over to be sold\n            // along the bonding curve in the batch initial state [as if the buy orders\n            // never existed and the sell order was just smaller than originally thought]\n            uint256 remainingSellReturn = metaBatches[_batchId].formula.calculateSaleReturn(batch.supply, batch.balance, batch.reserveRatio, remainingSell);\n            // the total result of all sells is the original amount of buys which were matched\n            // plus the remaining sells which were executed along the bonding curve\n            batch.totalSellReturn = batch.totalBuySpend.add(remainingSellReturn);\n        } else {\n            // >> buy orders are worth more than sell orders\n\n            // 1. first we execute all pending sell orders at the current exact\n            // price because there is at least one buy order for each sell order\n            // 2. then the final buy return is the addition of this first\n            // matched return with the remaining bonding curve return\n\n            // the number of collaterals bought as a result of all sell orders matched at the\n            // current exact price [which is less than the total amount of collateral to be spent]\n            batch.totalSellReturn = resultOfSell;\n            // the number of collaterals left over to be spent along the curve which is the difference\n            // between the original total buy order and the result of all the sell orders\n            uint256 remainingBuy = batch.totalBuySpend.sub(resultOfSell);\n            // the amount of tokens generated by selling collaterals left over to be spent\n            // along the bonding curve in the batch initial state [as if the sell orders\n            // never existed and the buy order was just smaller than originally thought]\n            uint256 remainingBuyReturn = metaBatches[_batchId].formula.calculatePurchaseReturn(batch.supply, batch.balance, batch.reserveRatio, remainingBuy);\n            // the total result of all buys is the original amount of buys which were matched\n            // plus the remaining buys which were executed along the bonding curve\n            batch.totalBuyReturn = batch.totalSellSpend.add(remainingBuyReturn);\n        }\n\n\n        emit UpdatePricing(_batchId, _collateral, batch.totalBuySpend, batch.totalBuyReturn, batch.totalSellSpend, batch.totalSellReturn);\n    }\n\n    function _transfer(address _from, address _to, address _collateralToken, uint256 _amount) internal {\n        if (_collateralToken == ETH) {\n            _to.transfer(_amount);\n        } else {\n            require(ERC20(_collateralToken).safeTransferFrom(_from, _to, _amount), ERROR_TRANSFER_FROM_FAILED);\n        }\n    }\n}\n",
  "sourcePath": "@ablack/fundraising-batched-bancor-market-maker/contracts/BatchedBancorMarketMaker.sol",
  "compiler": {
    "name": "solc",
    "version": "0.4.24+commit.e67f0147.Emscripten.clang"
  },
  "schemaVersion": "2.0.1",
  "updatedAt": "2020-02-08T20:29:36.178Z"
}