{
  "contractName": "EVMScriptRegistry",
  "abi": [
    {
      "constant": true,
      "inputs": [],
      "name": "hasInitialized",
      "outputs": [
        {
          "name": "",
          "type": "bool"
        }
      ],
      "payable": false,
      "stateMutability": "view",
      "type": "function"
    },
    {
      "constant": true,
      "inputs": [],
      "name": "REGISTRY_ADD_EXECUTOR_ROLE",
      "outputs": [
        {
          "name": "",
          "type": "bytes32"
        }
      ],
      "payable": false,
      "stateMutability": "view",
      "type": "function"
    },
    {
      "constant": true,
      "inputs": [
        {
          "name": "_script",
          "type": "bytes"
        }
      ],
      "name": "getEVMScriptExecutor",
      "outputs": [
        {
          "name": "",
          "type": "address"
        }
      ],
      "payable": false,
      "stateMutability": "view",
      "type": "function"
    },
    {
      "constant": true,
      "inputs": [],
      "name": "getRecoveryVault",
      "outputs": [
        {
          "name": "",
          "type": "address"
        }
      ],
      "payable": false,
      "stateMutability": "view",
      "type": "function"
    },
    {
      "constant": true,
      "inputs": [
        {
          "name": "token",
          "type": "address"
        }
      ],
      "name": "allowRecoverability",
      "outputs": [
        {
          "name": "",
          "type": "bool"
        }
      ],
      "payable": false,
      "stateMutability": "view",
      "type": "function"
    },
    {
      "constant": true,
      "inputs": [],
      "name": "appId",
      "outputs": [
        {
          "name": "",
          "type": "bytes32"
        }
      ],
      "payable": false,
      "stateMutability": "view",
      "type": "function"
    },
    {
      "constant": true,
      "inputs": [],
      "name": "getInitializationBlock",
      "outputs": [
        {
          "name": "",
          "type": "uint256"
        }
      ],
      "payable": false,
      "stateMutability": "view",
      "type": "function"
    },
    {
      "constant": false,
      "inputs": [
        {
          "name": "_token",
          "type": "address"
        }
      ],
      "name": "transferToVault",
      "outputs": [],
      "payable": false,
      "stateMutability": "nonpayable",
      "type": "function"
    },
    {
      "constant": true,
      "inputs": [
        {
          "name": "_sender",
          "type": "address"
        },
        {
          "name": "_role",
          "type": "bytes32"
        },
        {
          "name": "_params",
          "type": "uint256[]"
        }
      ],
      "name": "canPerform",
      "outputs": [
        {
          "name": "",
          "type": "bool"
        }
      ],
      "payable": false,
      "stateMutability": "view",
      "type": "function"
    },
    {
      "constant": true,
      "inputs": [],
      "name": "getEVMScriptRegistry",
      "outputs": [
        {
          "name": "",
          "type": "address"
        }
      ],
      "payable": false,
      "stateMutability": "view",
      "type": "function"
    },
    {
      "constant": true,
      "inputs": [],
      "name": "REGISTRY_MANAGER_ROLE",
      "outputs": [
        {
          "name": "",
          "type": "bytes32"
        }
      ],
      "payable": false,
      "stateMutability": "view",
      "type": "function"
    },
    {
      "constant": true,
      "inputs": [],
      "name": "kernel",
      "outputs": [
        {
          "name": "",
          "type": "address"
        }
      ],
      "payable": false,
      "stateMutability": "view",
      "type": "function"
    },
    {
      "constant": true,
      "inputs": [],
      "name": "isPetrified",
      "outputs": [
        {
          "name": "",
          "type": "bool"
        }
      ],
      "payable": false,
      "stateMutability": "view",
      "type": "function"
    },
    {
      "constant": true,
      "inputs": [
        {
          "name": "",
          "type": "uint256"
        }
      ],
      "name": "executors",
      "outputs": [
        {
          "name": "executor",
          "type": "address"
        },
        {
          "name": "enabled",
          "type": "bool"
        }
      ],
      "payable": false,
      "stateMutability": "view",
      "type": "function"
    },
    {
      "anonymous": false,
      "inputs": [
        {
          "indexed": true,
          "name": "executorId",
          "type": "uint256"
        },
        {
          "indexed": true,
          "name": "executorAddress",
          "type": "address"
        }
      ],
      "name": "EnableExecutor",
      "type": "event"
    },
    {
      "anonymous": false,
      "inputs": [
        {
          "indexed": true,
          "name": "executorId",
          "type": "uint256"
        },
        {
          "indexed": true,
          "name": "executorAddress",
          "type": "address"
        }
      ],
      "name": "DisableExecutor",
      "type": "event"
    },
    {
      "anonymous": false,
      "inputs": [
        {
          "indexed": true,
          "name": "executor",
          "type": "address"
        },
        {
          "indexed": false,
          "name": "script",
          "type": "bytes"
        },
        {
          "indexed": false,
          "name": "input",
          "type": "bytes"
        },
        {
          "indexed": false,
          "name": "returnData",
          "type": "bytes"
        }
      ],
      "name": "ScriptResult",
      "type": "event"
    },
    {
      "anonymous": false,
      "inputs": [
        {
          "indexed": true,
          "name": "vault",
          "type": "address"
        },
        {
          "indexed": true,
          "name": "token",
          "type": "address"
        },
        {
          "indexed": false,
          "name": "amount",
          "type": "uint256"
        }
      ],
      "name": "RecoverToVault",
      "type": "event"
    },
    {
      "constant": false,
      "inputs": [],
      "name": "initialize",
      "outputs": [],
      "payable": false,
      "stateMutability": "nonpayable",
      "type": "function"
    },
    {
      "constant": false,
      "inputs": [
        {
          "name": "_executor",
          "type": "address"
        }
      ],
      "name": "addScriptExecutor",
      "outputs": [
        {
          "name": "id",
          "type": "uint256"
        }
      ],
      "payable": false,
      "stateMutability": "nonpayable",
      "type": "function"
    },
    {
      "constant": false,
      "inputs": [
        {
          "name": "_executorId",
          "type": "uint256"
        }
      ],
      "name": "disableScriptExecutor",
      "outputs": [],
      "payable": false,
      "stateMutability": "nonpayable",
      "type": "function"
    },
    {
      "constant": false,
      "inputs": [
        {
          "name": "_executorId",
          "type": "uint256"
        }
      ],
      "name": "enableScriptExecutor",
      "outputs": [],
      "payable": false,
      "stateMutability": "nonpayable",
      "type": "function"
    },
    {
      "constant": true,
      "inputs": [
        {
          "name": "_script",
          "type": "bytes"
        }
      ],
      "name": "getScriptExecutor",
      "outputs": [
        {
          "name": "",
          "type": "address"
        }
      ],
      "payable": false,
      "stateMutability": "view",
      "type": "function"
    }
  ],
  "bytecode": "0x6080604052620000176401000000006200001d810204565b6200023b565b6200003064010000000062000125810204565b60408051808201909152601881527f494e49545f414c52454144595f494e495449414c495a45440000000000000000602082015290156200010c576040517f08c379a00000000000000000000000000000000000000000000000000000000081526004018080602001828103825283818151815260200191508051906020019080838360005b83811015620000d0578181015183820152602001620000b6565b50505050905090810190601f168015620000fe5780820380516001836020036101000a031916815260200191505b509250505060405180910390fd5b506200012360001964010000000062000154810204565b565b60006200014f600080516020620019f6833981519152640100000000620013cb6200023382021704565b905090565b6200016764010000000062000125810204565b60408051808201909152601881527f494e49545f414c52454144595f494e495449414c495a454400000000000000006020820152901562000206576040517f08c379a000000000000000000000000000000000000000000000000000000000815260040180806020018281038252838181518152602001915080519060200190808383600083811015620000d0578181015183820152602001620000b6565b5062000230600080516020620019f683398151915282640100000000620016d46200023782021704565b50565b5490565b9055565b6117ab806200024b6000396000f3006080604052600436106101065763ffffffff7c010000000000000000000000000000000000000000000000000000000060003504166304bf2a7f811461010b5780630803fac01461018057806319f3d10f146101a95780632914b9bd146101d057806332f0a3b5146102295780635ca4d4bb1461023e5780637e7db6e11461025857806380afdea8146102795780638129fc1c1461028e57806387a16f12146102a35780638b3dd749146102c45780639d4941d8146102d9578063a1658fad146102fa578063a479e50814610361578063bd8fde1c14610376578063cff606a01461038b578063d4aae0c4146103a3578063de4796ed146103b8578063f97a05df146103cd575b600080fd5b34801561011757600080fd5b506040805160206004803580820135601f81018490048402850184019095528484526101649436949293602493928401919081908401838280828437509497506104089650505050505050565b60408051600160a060020a039092168252519081900360200190f35b34801561018c57600080fd5b5061019561053b565b604080519115158252519081900360200190f35b3480156101b557600080fd5b506101be610564565b60408051918252519081900360200190f35b3480156101dc57600080fd5b506040805160206004803580820135601f81018490048402850184019095528484526101649436949293602493928401919081908401838280828437509497506105889650505050505050565b34801561023557600080fd5b50610164610687565b34801561024a57600080fd5b50610256600435610718565b005b34801561026457600080fd5b50610195600160a060020a03600435166108f1565b34801561028557600080fd5b506101be6108f7565b34801561029a57600080fd5b50610256610927565b3480156102af57600080fd5b506101be600160a060020a03600435166109c9565b3480156102d057600080fd5b506101be610b64565b3480156102e557600080fd5b50610256600160a060020a0360043516610b8f565b34801561030657600080fd5b506040805160206004604435818101358381028086018501909652808552610195958335600160a060020a0316956024803596369695606495939492019291829185019084908082843750949750610e2d9650505050505050565b34801561036d57600080fd5b50610164610f96565b34801561038257600080fd5b506101be61104b565b34801561039757600080fd5b5061025660043561106f565b3480156103af57600080fd5b506101646112fd565b3480156103c457600080fd5b50610195611328565b3480156103d957600080fd5b506103e560043561133b565b60408051600160a060020a03909316835290151560208301528051918290030190f35b60008060006004845110156040805190810160405280601e81526020017f45564d5245475f5343524950545f4c454e4754485f544f4f5f53484f525400008152509015156104dc5760405160008051602061176083398151915281526004018080602001828103825283818151815260200191508051906020019080838360005b838110156104a1578181015183820152602001610489565b50505050905090810190601f1680156104ce5780820380516001836020036101000a031916815260200191505b509250505060405180910390fd5b506104e684611373565b63ffffffff1660008181526001602052604090208054919350915074010000000000000000000000000000000000000000900460ff16610527576000610533565b8054600160a060020a03165b949350505050565b600080610546610b64565b9050801580159061055e57508061055b611386565b10155b91505090565b7fc4e90f38eea8c4212a009ca7b8947943ba4d4a58d19b683417f65291d1cd9ed281565b6000610592610f96565b600160a060020a03166304bf2a7f836040518263ffffffff167c01000000000000000000000000000000000000000000000000000000000281526004018080602001828103825283818151815260200191508051906020019080838360005b838110156106095781810151838201526020016105f1565b50505050905090810190601f1680156106365780820380516001836020036101000a031916815260200191505b5092505050602060405180830381600087803b15801561065557600080fd5b505af1158015610669573d6000803e3d6000fd5b505050506040513d602081101561067f57600080fd5b505192915050565b60006106916112fd565b600160a060020a03166332f0a3b56040518163ffffffff167c0100000000000000000000000000000000000000000000000000000000028152600401602060405180830381600087803b1580156106e757600080fd5b505af11580156106fb573d6000803e3d6000fd5b505050506040513d602081101561071157600080fd5b5051905090565b60007ff7a450ef335e1892cb42c8ca72e7242359d7711924b75db5717410da3f614aa36107448361138a565b61074f338383610e2d565b60408051808201909152600f81527f4150505f415554485f4641494c4544000000000000000000000000000000000060208201529015156107da576040516000805160206117608339815191528152600401808060200182810382528381815181526020019150805190602001908083836000838110156104a1578181015183820152602001610489565b5060008481526001602090815260409182902080548351808501909452601884527f45564d5245475f4558454355544f525f44495341424c4544000000000000000092840192909252945074010000000000000000000000000000000000000000900460ff161515610896576040516000805160206117608339815191528152600401808060200182810382528381815181526020019150805190602001908083836000838110156104a1578181015183820152602001610489565b50825474ff00000000000000000000000000000000000000001981168455604051600160a060020a039091169085907fc13cd9238f8ab1e5ab1f95cde77e89288fe5c328d04739adffd57b144b408fd190600090a350505050565b50600190565b60006109227fd625496217aa6a3453eecb9c3489dc5a53e6c67b444329ea2b2cbc9ff547639b6113cb565b905090565b61092f610b64565b60408051808201909152601881527f494e49545f414c52454144595f494e495449414c495a45440000000000000000602082015290156109b9576040516000805160206117608339815191528152600401808060200182810382528381815181526020019150805190602001908083836000838110156104a1578181015183820152602001610489565b506109c26113cf565b6001600055565b6040805160008082526020820190925281907fc4e90f38eea8c4212a009ca7b8947943ba4d4a58d19b683417f65291d1cd9ed290610a0a9033908390610e2d565b60408051808201909152600f81527f4150505f415554485f4641494c454400000000000000000000000000000000006020820152901515610a95576040516000805160206117608339815191528152600401808060200182810382528381815181526020019150805190602001908083836000838110156104a1578181015183820152602001610489565b506000805460018082018355604080518082018252600160a060020a03808a1680835260208084018681528789529590528387209251835495511515740100000000000000000000000000000000000000000274ff000000000000000000000000000000000000000019919093167fffffffffffffffffffffffff00000000000000000000000000000000000000009096169590951794909416179055519194509184917f7697fa3288629310075a63816e294207c84f3cfc18ccf8e18eb917ec0bb566999190a35092915050565b60006109227febb05b386a8d34882b8711d156f463690983dc47815980fb82aeeff1aa43579e6113cb565b6000806000610b9d846108f1565b60408051808201909152601281527f5245434f5645525f444953414c4c4f57454400000000000000000000000000006020820152901515610c28576040516000805160206117608339815191528152600401808060200182810382528381815181526020019150805190602001908083836000838110156104a1578181015183820152602001610489565b50610c31610687565b9250610c3c836114a0565b60408051808201909152601a81527f5245434f5645525f5641554c545f4e4f545f434f4e54524143540000000000006020820152901515610cc7576040516000805160206117608339815191528152600401808060200182810382528381815181526020019150805190602001908083836000838110156104a1578181015183820152602001610489565b50600160a060020a0384161515610d185760405130319250600160a060020a0384169083156108fc029084906000818181858888f19350505050158015610d12573d6000803e3d6000fd5b50610ddc565b5082610d33600160a060020a0382163063ffffffff6114cd16565b9150610d4f600160a060020a038216848463ffffffff6115e716565b60408051808201909152601d81527f5245434f5645525f544f4b454e5f5452414e534645525f4641494c45440000006020820152901515610dda576040516000805160206117608339815191528152600401808060200182810382528381815181526020019150805190602001908083836000838110156104a1578181015183820152602001610489565b505b83600160a060020a031683600160a060020a03167f596caf56044b55fb8c4ca640089bbc2b63cae3e978b851f5745cbb7c5b288e02846040518082815260200191505060405180910390a350505050565b600080610e3861053b565b1515610e475760009150610f8e565b610e4f6112fd565b9050600160a060020a0381161515610e6a5760009150610f8e565b80600160a060020a031663fdef9106863087610e8588611672565b6040517c010000000000000000000000000000000000000000000000000000000063ffffffff8716028152600160a060020a03808616600483019081529085166024830152604482018490526080606483019081528351608484015283519192909160a490910190602085019080838360005b83811015610f10578181015183820152602001610ef8565b50505050905090810190601f168015610f3d5780820380516001836020036101000a031916815260200191505b5095505050505050602060405180830381600087803b158015610f5f57600080fd5b505af1158015610f73573d6000803e3d6000fd5b505050506040513d6020811015610f8957600080fd5b505191505b509392505050565b600080610fa16112fd565b604080517fbe00bbd80000000000000000000000000000000000000000000000000000000081527fd6f028ca0e8edb4a8c9757ca4fdccab25fa1e0317da1188108f7d2dee14902fb60048201527fddbcfd564f642ab5627cf68b9b7d374fb4f8a36e941a75d89c87998cef03bd6160248201529051600160a060020a03929092169163be00bbd8916044808201926020929091908290030181600087803b15801561065557600080fd5b7ff7a450ef335e1892cb42c8ca72e7242359d7711924b75db5717410da3f614aa381565b60007ff7a450ef335e1892cb42c8ca72e7242359d7711924b75db5717410da3f614aa361109b8361138a565b6110a6338383610e2d565b60408051808201909152600f81527f4150505f415554485f4641494c454400000000000000000000000000000000006020820152901515611131576040516000805160206117608339815191528152600401808060200182810382528381815181526020019150805190602001908083836000838110156104a1578181015183820152602001610489565b5083600081118015611144575060005481105b60408051808201909152601a81527f45564d5245475f494e4558495354454e545f4558454355544f5200000000000060208201529015156111cf576040516000805160206117608339815191528152600401808060200182810382528381815181526020019150805190602001908083836000838110156104a1578181015183820152602001610489565b5060008581526001602090815260409182902080548351808501909452601784527f45564d5245475f4558454355544f525f454e41424c454400000000000000000092840192909252955074010000000000000000000000000000000000000000900460ff161561128a576040516000805160206117608339815191528152600401808060200182810382528381815181526020019150805190602001908083836000838110156104a1578181015183820152602001610489565b50835474ff000000000000000000000000000000000000000019167401000000000000000000000000000000000000000017808555604051600160a060020a039091169086907f7697fa3288629310075a63816e294207c84f3cfc18ccf8e18eb917ec0bb5669990600090a35050505050565b60006109227f4172f0f7d2289153072b0a6ca36959e0cbe2efc3afe50fc81636caa96338137b6113cb565b6000600019611335610b64565b14905090565b600160205260009081526040902054600160a060020a0381169074010000000000000000000000000000000000000000900460ff1682565b600061138082600061167c565b92915050565b4390565b60408051600180825281830190925260609160208083019080388339019050509050818160008151811015156113bc57fe5b60209081029091010152919050565b5490565b6113d7610b64565b60408051808201909152601881527f494e49545f414c52454144595f494e495449414c495a4544000000000000000060208201529015611461576040516000805160206117608339815191528152600401808060200182810382528381815181526020019150805190602001908083836000838110156104a1578181015183820152602001610489565b5061149a61146d611386565b7febb05b386a8d34882b8711d156f463690983dc47815980fb82aeeff1aa43579e9063ffffffff6116d416565b565b5490565b600080600160a060020a03831615156114bc57600091506114c7565b823b90506000811191505b50919050565b60408051600160a060020a0383166024808301919091528251808303909101815260449091019091526020810180517bffffffffffffffffffffffffffffffffffffffffffffffffffffffff167f70a0823100000000000000000000000000000000000000000000000000000000179052600090818061154d86846116d8565b60408051808201909152601c81527f534146455f4552435f32305f42414c414e43455f524556455254454400000000602082015291935091508215156115dd576040516000805160206117608339815191528152600401808060200182810382528381815181526020019150805190602001908083836000838110156104a1578181015183820152602001610489565b5095945050505050565b60408051600160a060020a038416602482015260448082018490528251808303909101815260649091019091526020810180517bffffffffffffffffffffffffffffffffffffffffffffffffffffffff167fa9059cbb000000000000000000000000000000000000000000000000000000001790526000906116698582611709565b95945050505050565b8051602002815290565b6000806116898484611757565b7c01000000000000000000000000000000000000000000000000000000007fffffffff0000000000000000000000000000000000000000000000000000000090911604949350505050565b9055565b6000806000806040516020818751602089018a5afa925060008311156116fd57805191505b50909590945092505050565b6000806040516020818551602087016000895af1600081111561174d573d801561173a57602081146117435761174b565b6001935061174b565b600183511493505b505b5090949350505050565b016020015190560008c379a000000000000000000000000000000000000000000000000000000000a165627a7a72305820c855db1dd99849e35e806780a8683bf636248d7e8f74b008bdf2da4f755d86510029ebb05b386a8d34882b8711d156f463690983dc47815980fb82aeeff1aa43579e",
  "source": "pragma solidity 0.4.24;\n\nimport \"../apps/AragonApp.sol\";\nimport \"./ScriptHelpers.sol\";\nimport \"./IEVMScriptExecutor.sol\";\nimport \"./IEVMScriptRegistry.sol\";\n\n\n/* solium-disable function-order */\n// Allow public initialize() to be first\ncontract EVMScriptRegistry is IEVMScriptRegistry, EVMScriptRegistryConstants, AragonApp {\n    using ScriptHelpers for bytes;\n\n    /* Hardcoded constants to save gas\n    bytes32 public constant REGISTRY_ADD_EXECUTOR_ROLE = keccak256(\"REGISTRY_ADD_EXECUTOR_ROLE\");\n    bytes32 public constant REGISTRY_MANAGER_ROLE = keccak256(\"REGISTRY_MANAGER_ROLE\");\n    */\n    bytes32 public constant REGISTRY_ADD_EXECUTOR_ROLE = 0xc4e90f38eea8c4212a009ca7b8947943ba4d4a58d19b683417f65291d1cd9ed2;\n    // WARN: Manager can censor all votes and the like happening in an org\n    bytes32 public constant REGISTRY_MANAGER_ROLE = 0xf7a450ef335e1892cb42c8ca72e7242359d7711924b75db5717410da3f614aa3;\n\n    uint256 internal constant SCRIPT_START_LOCATION = 4;\n\n    string private constant ERROR_INEXISTENT_EXECUTOR = \"EVMREG_INEXISTENT_EXECUTOR\";\n    string private constant ERROR_EXECUTOR_ENABLED = \"EVMREG_EXECUTOR_ENABLED\";\n    string private constant ERROR_EXECUTOR_DISABLED = \"EVMREG_EXECUTOR_DISABLED\";\n    string private constant ERROR_SCRIPT_LENGTH_TOO_SHORT = \"EVMREG_SCRIPT_LENGTH_TOO_SHORT\";\n\n    struct ExecutorEntry {\n        IEVMScriptExecutor executor;\n        bool enabled;\n    }\n\n    uint256 private executorsNextIndex;\n    mapping (uint256 => ExecutorEntry) public executors;\n\n    event EnableExecutor(uint256 indexed executorId, address indexed executorAddress);\n    event DisableExecutor(uint256 indexed executorId, address indexed executorAddress);\n\n    modifier executorExists(uint256 _executorId) {\n        require(_executorId > 0 && _executorId < executorsNextIndex, ERROR_INEXISTENT_EXECUTOR);\n        _;\n    }\n\n    /**\n    * @notice Initialize the registry\n    */\n    function initialize() public onlyInit {\n        initialized();\n        // Create empty record to begin executor IDs at 1\n        executorsNextIndex = 1;\n    }\n\n    /**\n    * @notice Add a new script executor with address `_executor` to the registry\n    * @param _executor Address of the IEVMScriptExecutor that will be added to the registry\n    * @return id Identifier of the executor in the registry\n    */\n    function addScriptExecutor(IEVMScriptExecutor _executor) external auth(REGISTRY_ADD_EXECUTOR_ROLE) returns (uint256 id) {\n        uint256 executorId = executorsNextIndex++;\n        executors[executorId] = ExecutorEntry(_executor, true);\n        emit EnableExecutor(executorId, _executor);\n        return executorId;\n    }\n\n    /**\n    * @notice Disable script executor with ID `_executorId`\n    * @param _executorId Identifier of the executor in the registry\n    */\n    function disableScriptExecutor(uint256 _executorId)\n        external\n        authP(REGISTRY_MANAGER_ROLE, arr(_executorId))\n    {\n        // Note that we don't need to check for an executor's existence in this case, as only\n        // existing executors can be enabled\n        ExecutorEntry storage executorEntry = executors[_executorId];\n        require(executorEntry.enabled, ERROR_EXECUTOR_DISABLED);\n        executorEntry.enabled = false;\n        emit DisableExecutor(_executorId, executorEntry.executor);\n    }\n\n    /**\n    * @notice Enable script executor with ID `_executorId`\n    * @param _executorId Identifier of the executor in the registry\n    */\n    function enableScriptExecutor(uint256 _executorId)\n        external\n        authP(REGISTRY_MANAGER_ROLE, arr(_executorId))\n        executorExists(_executorId)\n    {\n        ExecutorEntry storage executorEntry = executors[_executorId];\n        require(!executorEntry.enabled, ERROR_EXECUTOR_ENABLED);\n        executorEntry.enabled = true;\n        emit EnableExecutor(_executorId, executorEntry.executor);\n    }\n\n    /**\n    * @dev Get the script executor that can execute a particular script based on its first 4 bytes\n    * @param _script EVMScript being inspected\n    */\n    function getScriptExecutor(bytes _script) public view returns (IEVMScriptExecutor) {\n        require(_script.length >= SCRIPT_START_LOCATION, ERROR_SCRIPT_LENGTH_TOO_SHORT);\n        uint256 id = _script.getSpecId();\n\n        // Note that we don't need to check for an executor's existence in this case, as only\n        // existing executors can be enabled\n        ExecutorEntry storage entry = executors[id];\n        return entry.enabled ? entry.executor : IEVMScriptExecutor(0);\n    }\n}\n",
  "sourcePath": "@aragon/os/contracts/evmscript/EVMScriptRegistry.sol",
  "compiler": {
    "name": "solc",
    "version": "0.4.24+commit.e67f0147.Emscripten.clang"
  },
  "schemaVersion": "2.0.1",
  "updatedAt": "2020-02-08T20:29:35.835Z"
}