{
  "contractName": "PresaleMock",
  "abi": [
    {
      "constant": true,
      "inputs": [],
      "name": "vestingCompletePeriod",
      "outputs": [
        {
          "name": "",
          "type": "uint64"
        }
      ],
      "payable": false,
      "stateMutability": "view",
      "type": "function"
    },
    {
      "constant": true,
      "inputs": [],
      "name": "hasInitialized",
      "outputs": [
        {
          "name": "",
          "type": "bool"
        }
      ],
      "payable": false,
      "stateMutability": "view",
      "type": "function"
    },
    {
      "constant": true,
      "inputs": [],
      "name": "PPM",
      "outputs": [
        {
          "name": "",
          "type": "uint256"
        }
      ],
      "payable": false,
      "stateMutability": "view",
      "type": "function"
    },
    {
      "constant": true,
      "inputs": [],
      "name": "supplyOfferedPct",
      "outputs": [
        {
          "name": "",
          "type": "uint256"
        }
      ],
      "payable": false,
      "stateMutability": "view",
      "type": "function"
    },
    {
      "constant": true,
      "inputs": [],
      "name": "vestingCliffPeriod",
      "outputs": [
        {
          "name": "",
          "type": "uint64"
        }
      ],
      "payable": false,
      "stateMutability": "view",
      "type": "function"
    },
    {
      "constant": true,
      "inputs": [
        {
          "name": "_script",
          "type": "bytes"
        }
      ],
      "name": "getEVMScriptExecutor",
      "outputs": [
        {
          "name": "",
          "type": "address"
        }
      ],
      "payable": false,
      "stateMutability": "view",
      "type": "function"
    },
    {
      "constant": true,
      "inputs": [],
      "name": "tokenManager",
      "outputs": [
        {
          "name": "",
          "type": "address"
        }
      ],
      "payable": false,
      "stateMutability": "view",
      "type": "function"
    },
    {
      "constant": true,
      "inputs": [],
      "name": "getRecoveryVault",
      "outputs": [
        {
          "name": "",
          "type": "address"
        }
      ],
      "payable": false,
      "stateMutability": "view",
      "type": "function"
    },
    {
      "constant": true,
      "inputs": [],
      "name": "beneficiary",
      "outputs": [
        {
          "name": "",
          "type": "address"
        }
      ],
      "payable": false,
      "stateMutability": "view",
      "type": "function"
    },
    {
      "constant": true,
      "inputs": [],
      "name": "exchangeRate",
      "outputs": [
        {
          "name": "",
          "type": "uint256"
        }
      ],
      "payable": false,
      "stateMutability": "view",
      "type": "function"
    },
    {
      "constant": true,
      "inputs": [],
      "name": "fundingForBeneficiaryPct",
      "outputs": [
        {
          "name": "",
          "type": "uint256"
        }
      ],
      "payable": false,
      "stateMutability": "view",
      "type": "function"
    },
    {
      "constant": true,
      "inputs": [],
      "name": "goal",
      "outputs": [
        {
          "name": "",
          "type": "uint256"
        }
      ],
      "payable": false,
      "stateMutability": "view",
      "type": "function"
    },
    {
      "constant": false,
      "inputs": [
        {
          "name": "_contributor",
          "type": "address"
        },
        {
          "name": "_vestedPurchaseId",
          "type": "uint256"
        }
      ],
      "name": "refund",
      "outputs": [],
      "payable": false,
      "stateMutability": "nonpayable",
      "type": "function"
    },
    {
      "constant": false,
      "inputs": [],
      "name": "close",
      "outputs": [],
      "payable": false,
      "stateMutability": "nonpayable",
      "type": "function"
    },
    {
      "constant": true,
      "inputs": [],
      "name": "contributionToken",
      "outputs": [
        {
          "name": "",
          "type": "address"
        }
      ],
      "payable": false,
      "stateMutability": "view",
      "type": "function"
    },
    {
      "constant": true,
      "inputs": [
        {
          "name": "",
          "type": "address"
        },
        {
          "name": "",
          "type": "uint256"
        }
      ],
      "name": "contributions",
      "outputs": [
        {
          "name": "",
          "type": "uint256"
        }
      ],
      "payable": false,
      "stateMutability": "view",
      "type": "function"
    },
    {
      "constant": false,
      "inputs": [
        {
          "name": "_seconds",
          "type": "uint256"
        }
      ],
      "name": "mockDecreaseTime",
      "outputs": [],
      "payable": false,
      "stateMutability": "nonpayable",
      "type": "function"
    },
    {
      "constant": false,
      "inputs": [
        {
          "name": "_timestamp",
          "type": "uint256"
        }
      ],
      "name": "mockSetTimestamp",
      "outputs": [],
      "payable": false,
      "stateMutability": "nonpayable",
      "type": "function"
    },
    {
      "constant": true,
      "inputs": [],
      "name": "OPEN_ROLE",
      "outputs": [
        {
          "name": "",
          "type": "bytes32"
        }
      ],
      "payable": false,
      "stateMutability": "view",
      "type": "function"
    },
    {
      "constant": true,
      "inputs": [],
      "name": "getBlockNumberPublic",
      "outputs": [
        {
          "name": "",
          "type": "uint256"
        }
      ],
      "payable": false,
      "stateMutability": "view",
      "type": "function"
    },
    {
      "constant": false,
      "inputs": [
        {
          "name": "_number",
          "type": "uint256"
        }
      ],
      "name": "mockAdvanceBlocks",
      "outputs": [],
      "payable": false,
      "stateMutability": "nonpayable",
      "type": "function"
    },
    {
      "constant": true,
      "inputs": [],
      "name": "getTimestampPublic",
      "outputs": [
        {
          "name": "",
          "type": "uint64"
        }
      ],
      "payable": false,
      "stateMutability": "view",
      "type": "function"
    },
    {
      "constant": true,
      "inputs": [
        {
          "name": "token",
          "type": "address"
        }
      ],
      "name": "allowRecoverability",
      "outputs": [
        {
          "name": "",
          "type": "bool"
        }
      ],
      "payable": false,
      "stateMutability": "view",
      "type": "function"
    },
    {
      "constant": true,
      "inputs": [],
      "name": "appId",
      "outputs": [
        {
          "name": "",
          "type": "bytes32"
        }
      ],
      "payable": false,
      "stateMutability": "view",
      "type": "function"
    },
    {
      "constant": false,
      "inputs": [
        {
          "name": "_contributor",
          "type": "address"
        },
        {
          "name": "_value",
          "type": "uint256"
        }
      ],
      "name": "contribute",
      "outputs": [],
      "payable": true,
      "stateMutability": "payable",
      "type": "function"
    },
    {
      "constant": true,
      "inputs": [],
      "name": "getInitializationBlock",
      "outputs": [
        {
          "name": "",
          "type": "uint256"
        }
      ],
      "payable": false,
      "stateMutability": "view",
      "type": "function"
    },
    {
      "constant": false,
      "inputs": [
        {
          "name": "_seconds",
          "type": "uint256"
        }
      ],
      "name": "mockIncreaseTime",
      "outputs": [],
      "payable": false,
      "stateMutability": "nonpayable",
      "type": "function"
    },
    {
      "constant": true,
      "inputs": [
        {
          "name": "_value",
          "type": "uint256"
        }
      ],
      "name": "contributionToTokens",
      "outputs": [
        {
          "name": "",
          "type": "uint256"
        }
      ],
      "payable": false,
      "stateMutability": "view",
      "type": "function"
    },
    {
      "constant": false,
      "inputs": [
        {
          "name": "_token",
          "type": "address"
        }
      ],
      "name": "transferToVault",
      "outputs": [],
      "payable": false,
      "stateMutability": "nonpayable",
      "type": "function"
    },
    {
      "constant": true,
      "inputs": [
        {
          "name": "_sender",
          "type": "address"
        },
        {
          "name": "_role",
          "type": "bytes32"
        },
        {
          "name": "_params",
          "type": "uint256[]"
        }
      ],
      "name": "canPerform",
      "outputs": [
        {
          "name": "",
          "type": "bool"
        }
      ],
      "payable": false,
      "stateMutability": "view",
      "type": "function"
    },
    {
      "constant": true,
      "inputs": [],
      "name": "CONTRIBUTE_ROLE",
      "outputs": [
        {
          "name": "",
          "type": "bytes32"
        }
      ],
      "payable": false,
      "stateMutability": "view",
      "type": "function"
    },
    {
      "constant": true,
      "inputs": [],
      "name": "getEVMScriptRegistry",
      "outputs": [
        {
          "name": "",
          "type": "address"
        }
      ],
      "payable": false,
      "stateMutability": "view",
      "type": "function"
    },
    {
      "constant": false,
      "inputs": [
        {
          "name": "_controller",
          "type": "address"
        },
        {
          "name": "_tokenManager",
          "type": "address"
        },
        {
          "name": "_reserve",
          "type": "address"
        },
        {
          "name": "_beneficiary",
          "type": "address"
        },
        {
          "name": "_contributionToken",
          "type": "address"
        },
        {
          "name": "_goal",
          "type": "uint256"
        },
        {
          "name": "_period",
          "type": "uint64"
        },
        {
          "name": "_exchangeRate",
          "type": "uint256"
        },
        {
          "name": "_vestingCliffPeriod",
          "type": "uint64"
        },
        {
          "name": "_vestingCompletePeriod",
          "type": "uint64"
        },
        {
          "name": "_supplyOfferedPct",
          "type": "uint256"
        },
        {
          "name": "_fundingForBeneficiaryPct",
          "type": "uint256"
        },
        {
          "name": "_openDate",
          "type": "uint64"
        }
      ],
      "name": "initialize",
      "outputs": [],
      "payable": false,
      "stateMutability": "nonpayable",
      "type": "function"
    },
    {
      "constant": true,
      "inputs": [],
      "name": "state",
      "outputs": [
        {
          "name": "",
          "type": "uint8"
        }
      ],
      "payable": false,
      "stateMutability": "view",
      "type": "function"
    },
    {
      "constant": true,
      "inputs": [],
      "name": "isClosed",
      "outputs": [
        {
          "name": "",
          "type": "bool"
        }
      ],
      "payable": false,
      "stateMutability": "view",
      "type": "function"
    },
    {
      "constant": true,
      "inputs": [],
      "name": "totalRaised",
      "outputs": [
        {
          "name": "",
          "type": "uint256"
        }
      ],
      "payable": false,
      "stateMutability": "view",
      "type": "function"
    },
    {
      "constant": true,
      "inputs": [],
      "name": "reserve",
      "outputs": [
        {
          "name": "",
          "type": "address"
        }
      ],
      "payable": false,
      "stateMutability": "view",
      "type": "function"
    },
    {
      "constant": true,
      "inputs": [],
      "name": "kernel",
      "outputs": [
        {
          "name": "",
          "type": "address"
        }
      ],
      "payable": false,
      "stateMutability": "view",
      "type": "function"
    },
    {
      "constant": true,
      "inputs": [],
      "name": "vestingCliffDate",
      "outputs": [
        {
          "name": "",
          "type": "uint64"
        }
      ],
      "payable": false,
      "stateMutability": "view",
      "type": "function"
    },
    {
      "constant": true,
      "inputs": [],
      "name": "isPetrified",
      "outputs": [
        {
          "name": "",
          "type": "bool"
        }
      ],
      "payable": false,
      "stateMutability": "view",
      "type": "function"
    },
    {
      "constant": true,
      "inputs": [],
      "name": "openDate",
      "outputs": [
        {
          "name": "",
          "type": "uint64"
        }
      ],
      "payable": false,
      "stateMutability": "view",
      "type": "function"
    },
    {
      "constant": true,
      "inputs": [],
      "name": "period",
      "outputs": [
        {
          "name": "",
          "type": "uint64"
        }
      ],
      "payable": false,
      "stateMutability": "view",
      "type": "function"
    },
    {
      "constant": true,
      "inputs": [],
      "name": "vestingCompleteDate",
      "outputs": [
        {
          "name": "",
          "type": "uint64"
        }
      ],
      "payable": false,
      "stateMutability": "view",
      "type": "function"
    },
    {
      "constant": true,
      "inputs": [],
      "name": "controller",
      "outputs": [
        {
          "name": "",
          "type": "address"
        }
      ],
      "payable": false,
      "stateMutability": "view",
      "type": "function"
    },
    {
      "constant": true,
      "inputs": [],
      "name": "token",
      "outputs": [
        {
          "name": "",
          "type": "address"
        }
      ],
      "payable": false,
      "stateMutability": "view",
      "type": "function"
    },
    {
      "constant": false,
      "inputs": [],
      "name": "open",
      "outputs": [],
      "payable": false,
      "stateMutability": "nonpayable",
      "type": "function"
    },
    {
      "anonymous": false,
      "inputs": [
        {
          "indexed": false,
          "name": "date",
          "type": "uint64"
        }
      ],
      "name": "SetOpenDate",
      "type": "event"
    },
    {
      "anonymous": false,
      "inputs": [],
      "name": "Close",
      "type": "event"
    },
    {
      "anonymous": false,
      "inputs": [
        {
          "indexed": true,
          "name": "contributor",
          "type": "address"
        },
        {
          "indexed": false,
          "name": "value",
          "type": "uint256"
        },
        {
          "indexed": false,
          "name": "amount",
          "type": "uint256"
        },
        {
          "indexed": false,
          "name": "vestedPurchaseId",
          "type": "uint256"
        }
      ],
      "name": "Contribute",
      "type": "event"
    },
    {
      "anonymous": false,
      "inputs": [
        {
          "indexed": true,
          "name": "contributor",
          "type": "address"
        },
        {
          "indexed": false,
          "name": "value",
          "type": "uint256"
        },
        {
          "indexed": false,
          "name": "amount",
          "type": "uint256"
        },
        {
          "indexed": false,
          "name": "vestedPurchaseId",
          "type": "uint256"
        }
      ],
      "name": "Refund",
      "type": "event"
    },
    {
      "anonymous": false,
      "inputs": [
        {
          "indexed": true,
          "name": "executor",
          "type": "address"
        },
        {
          "indexed": false,
          "name": "script",
          "type": "bytes"
        },
        {
          "indexed": false,
          "name": "input",
          "type": "bytes"
        },
        {
          "indexed": false,
          "name": "returnData",
          "type": "bytes"
        }
      ],
      "name": "ScriptResult",
      "type": "event"
    },
    {
      "anonymous": false,
      "inputs": [
        {
          "indexed": true,
          "name": "vault",
          "type": "address"
        },
        {
          "indexed": true,
          "name": "token",
          "type": "address"
        },
        {
          "indexed": false,
          "name": "amount",
          "type": "uint256"
        }
      ],
      "name": "RecoverToVault",
      "type": "event"
    }
  ],
  "bytecode": "0x6080604052620000176401000000006200001d810204565b6200023b565b6200003064010000000062000125810204565b60408051808201909152601881527f494e49545f414c52454144595f494e495449414c495a45440000000000000000602082015290156200010c576040517f08c379a00000000000000000000000000000000000000000000000000000000081526004018080602001828103825283818151815260200191508051906020019080838360005b83811015620000d0578181015183820152602001620000b6565b50505050905090810190601f168015620000fe5780820380516001836020036101000a031916815260200191505b509250505060405180910390fd5b506200012360001964010000000062000154810204565b565b60006200014f60008051602062004296833981519152640100000000620027166200023382021704565b905090565b6200016764010000000062000125810204565b60408051808201909152601881527f494e49545f414c52454144595f494e495449414c495a454400000000000000006020820152901562000206576040517f08c379a000000000000000000000000000000000000000000000000000000000815260040180806020018281038252838181518152602001915080519060200190808383600083811015620000d0578181015183820152602001620000b6565b506200023060008051602062004296833981519152826401000000006200271a6200023782021704565b50565b5490565b9055565b61404b806200024b6000396000f30060806040526004361061022e5763ffffffff7c0100000000000000000000000000000000000000000000000000000000600035041662fb40c281146102335780630803fac0146102655780630d720bbc1461028e5780631e4e5b61146102b557806325eeb6c6146102ca5780632914b9bd146102df5780632a709b141461035457806332f0a3b51461036957806338af3eed1461037e5780633ba0b9a9146103935780633c2ab1ba146103a857806340193883146103bd578063410085df146103d257806343d726d6146103f85780634bedf9a81461040d578063550b521c1461042257806360be675f146104465780636958839e1461045e5780636a928e8f146104765780636da1dfac1461048b5780637750db14146104a05780637e365950146104b85780637e7db6e1146104cd57806380afdea8146104ee5780638418cd99146105035780638b3dd7491461051a5780638f49e12f1461052f57806396330f46146105475780639d4941d81461055f578063a1658fad14610580578063a2b96b6f146105e7578063a479e508146105fc578063b472fc8114610611578063c19d93fb1461067d578063c2b6b58c146106b6578063c5c4744c146106cb578063cd3293de146106e0578063d4aae0c4146106f5578063daba92f91461070a578063de4796ed1461071f578063ec8cb28114610734578063ef78d4fd14610749578063eff1e3b21461075e578063f77c479114610773578063fc0c546a14610788578063fcfff16f1461079d575b600080fd5b34801561023f57600080fd5b506102486107b2565b6040805167ffffffffffffffff9092168252519081900360200190f35b34801561027157600080fd5b5061027a6107ce565b604080519115158252519081900360200190f35b34801561029a57600080fd5b506102a36107f7565b60408051918252519081900360200190f35b3480156102c157600080fd5b506102a36107fe565b3480156102d657600080fd5b50610248610804565b3480156102eb57600080fd5b506040805160206004803580820135601f81018490048402850184019095528484526103389436949293602493928401919081908401838280828437509497506108149650505050505050565b60408051600160a060020a039092168252519081900360200190f35b34801561036057600080fd5b50610338610913565b34801561037557600080fd5b50610338610922565b34801561038a57600080fd5b506103386109b4565b34801561039f57600080fd5b506102a36109c3565b3480156103b457600080fd5b506102a36109c9565b3480156103c957600080fd5b506102a36109cf565b3480156103de57600080fd5b506103f6600160a060020a03600435166024356109d5565b005b34801561040457600080fd5b506103f6610c24565b34801561041957600080fd5b50610338610e33565b34801561042e57600080fd5b506102a3600160a060020a0360043516602435610ed4565b34801561045257600080fd5b506103f6600435610ef1565b34801561046a57600080fd5b506103f6600435610f2b565b34801561048257600080fd5b506102a3610f30565b34801561049757600080fd5b506102a3610f54565b3480156104ac57600080fd5b506103f6600435610f63565b3480156104c457600080fd5b50610248610f9c565b3480156104d957600080fd5b5061027a600160a060020a0360043516610fa6565b3480156104fa57600080fd5b506102a3610fac565b6103f6600160a060020a0360043516602435610fd7565b34801561052657600080fd5b506102a36113cd565b34801561053b57600080fd5b506103f66004356113f8565b34801561055357600080fd5b506102a3600435611423565b34801561056b57600080fd5b506103f6600160a060020a03600435166114e2565b34801561058c57600080fd5b50604080516020600460443581810135838102808601850190965280855261027a958335600160a060020a03169560248035963696956064959394920192918291850190849080828437509497506117719650505050505050565b3480156105f357600080fd5b506102a36118da565b34801561060857600080fd5b506103386118fe565b34801561061d57600080fd5b506103f6600160a060020a036004358116906024358116906044358116906064358116906084351660a43567ffffffffffffffff60c43581169060e4359061010435811690610124358116906101443590610164359061018435166119b3565b34801561068957600080fd5b506106926122e1565b604051808260048111156106a257fe5b60ff16815260200191505060405180910390f35b3480156106c257600080fd5b5061027a612415565b3480156106d757600080fd5b506102a361242a565b3480156106ec57600080fd5b50610338612430565b34801561070157600080fd5b5061033861243f565b34801561071657600080fd5b5061024861246a565b34801561072b57600080fd5b5061027a612487565b34801561074057600080fd5b5061024861249a565b34801561075557600080fd5b506102486124aa565b34801561076a57600080fd5b506102486124ba565b34801561077f57600080fd5b506103386124df565b34801561079457600080fd5b506103386124ee565b3480156107a957600080fd5b506103f66124fd565b60095468010000000000000000900467ffffffffffffffff1681565b6000806107d96113cd565b905080158015906107f15750806107ee6126fa565b10155b91505090565b620f424081565b600a5481565b60095467ffffffffffffffff1681565b600061081e6118fe565b600160a060020a03166304bf2a7f836040518263ffffffff167c01000000000000000000000000000000000000000000000000000000000281526004018080602001828103825283818151815260200191508051906020019080838360005b8381101561089557818101518382015260200161087d565b50505050905090810190601f1680156108c25780820380516001836020036101000a031916815260200191505b5092505050602060405180830381600087803b1580156108e157600080fd5b505af11580156108f5573d6000803e3d6000fd5b505050506040513d602081101561090b57600080fd5b505192915050565b600154600160a060020a031681565b600061092c61243f565b600160a060020a03166332f0a3b56040518163ffffffff167c0100000000000000000000000000000000000000000000000000000000028152600401602060405180830381600087803b15801561098257600080fd5b505af1158015610996573d6000803e3d6000fd5b505050506040513d60208110156109ac57600080fd5b505190505b90565b600454600160a060020a031681565b60085481565b600b5481565b60065481565b6109ec600080516020614000833981519152612716565b60408051808201909152601981527f5245454e5452414e43595f5245454e5452414e545f43414c4c0000000000000060208201529015610aad5760405160e560020a62461bcd0281526004018080602001828103825283818151815260200191508051906020019080838360005b83811015610a72578181015183820152602001610a5a565b50505050905090810190601f168015610a9f5780820380516001836020036101000a031916815260200191505b509250505060405180910390fd5b50610acd600080516020614000833981519152600163ffffffff61271a16565b610ad56107ce565b60408051808201909152601481527f494e49545f4e4f545f494e495449414c495a45440000000000000000000000006020820152901515610b5b5760405160e560020a62461bcd02815260040180806020018281038252838181518152602001915080519060200190808383600083811015610a72578181015183820152602001610a5a565b506002610b666122e1565b6004811115610b7157fe5b60408051808201909152601581527f50524553414c455f494e56414c49445f5354415445000000000000000000000060208201529114610bf65760405160e560020a62461bcd02815260040180806020018281038252838181518152602001915080519060200190808383600083811015610a72578181015183820152602001610a5a565b50610c01828261271e565b610c20600080516020614000833981519152600063ffffffff61271a16565b5050565b610c3b600080516020614000833981519152612716565b60408051808201909152601981527f5245454e5452414e43595f5245454e5452414e545f43414c4c0000000000000060208201529015610cc05760405160e560020a62461bcd02815260040180806020018281038252838181518152602001915080519060200190808383600083811015610a72578181015183820152602001610a5a565b50610ce0600080516020614000833981519152600163ffffffff61271a16565b610ce86107ce565b60408051808201909152601481527f494e49545f4e4f545f494e495449414c495a45440000000000000000000000006020820152901515610d6e5760405160e560020a62461bcd02815260040180806020018281038252838181518152602001915080519060200190808383600083811015610a72578181015183820152602001610a5a565b506003610d796122e1565b6004811115610d8457fe5b60408051808201909152601581527f50524553414c455f494e56414c49445f5354415445000000000000000000000060208201529114610e095760405160e560020a62461bcd02815260040180806020018281038252838181518152602001915080519060200190808383600083811015610a72578181015183820152602001610a5a565b50610e126129fb565b610e31600080516020614000833981519152600063ffffffff61271a16565b565b6000610e3d6107ce565b60408051808201909152601481527f494e49545f4e4f545f494e495449414c495a45440000000000000000000000006020820152901515610ec35760405160e560020a62461bcd02815260040180806020018281038252838181518152602001915080519060200190808383600083811015610a72578181015183820152602001610a5a565b5050600554600160a060020a031690565b600e60209081526000928352604080842090915290825290205481565b600f5415610f1457600f54610f0c908263ffffffff612e0716565b600f55610f28565b610f24428263ffffffff612e0716565b600f555b50565b600f55565b7fefa06053e2ca99a43c97c4a4f3d8a394ee3323a8ff237e625fba09fe30ceb0a481565b6000610f5e6126fa565b905090565b60105415610f8657601054610f7e908263ffffffff612ea216565b601055610f28565b610f96438263ffffffff612ea216565b60105550565b6000610f5e612f30565b50600190565b6000610f5e7fd625496217aa6a3453eecb9c3489dc5a53e6c67b444329ea2b2cbc9ff547639b612716565b610fee600080516020614000833981519152612716565b60408051808201909152601981527f5245454e5452414e43595f5245454e5452414e545f43414c4c00000000000000602082015290156110735760405160e560020a62461bcd02815260040180806020018281038252838181518152602001915080519060200190808383600083811015610a72578181015183820152602001610a5a565b50611093600080516020614000833981519152600163ffffffff61271a16565b604080516000808252602082019092527f9ccaca4edf2127f20c425fdd86af1ba178b9e5bee280cd70d88ac5f6874c4f07916110d59133918491905b50611771565b60408051808201909152600f81527f4150505f415554485f4641494c45440000000000000000000000000000000000602082015290151561115b5760405160e560020a62461bcd02815260040180806020018281038252838181518152602001915080519060200190808383600083811015610a72578181015183820152602001610a5a565b5060016111666122e1565b600481111561117157fe5b60408051808201909152601581527f50524553414c455f494e56414c49445f53544154450000000000000000000000602082015291146111f65760405160e560020a62461bcd02815260040180806020018281038252838181518152602001915080519060200190808383600083811015610a72578181015183820152602001610a5a565b506040805180820190915260208082527f50524553414c455f494e56414c49445f434f4e545249425554455f56414c55459082015282151561127d5760405160e560020a62461bcd02815260040180806020018281038252838181518152602001915080519060200190808383600083811015610a72578181015183820152602001610a5a565b50600554600160a060020a0316151561131c576040805180820190915260208082527f50524553414c455f494e56414c49445f434f4e545249425554455f56414c5545908201523483146113165760405160e560020a62461bcd02815260040180806020018281038252838181518152602001915080519060200190808383600083811015610a72578181015183820152602001610a5a565b506113a3565b6040805180820190915260208082527f50524553414c455f494e56414c49445f434f4e545249425554455f56414c55459082015234156113a15760405160e560020a62461bcd02815260040180806020018281038252838181518152602001915080519060200190808383600083811015610a72578181015183820152602001610a5a565b505b6113ad8383612f42565b50610c20600080516020614000833981519152600063ffffffff61271a16565b6000610f5e7febb05b386a8d34882b8711d156f463690983dc47815980fb82aeeff1aa43579e612716565b600f541561141357600f54610f0c908263ffffffff612ea216565b610f24428263ffffffff612ea216565b600061142d6107ce565b60408051808201909152601481527f494e49545f4e4f545f494e495449414c495a454400000000000000000000000060208201529015156114b35760405160e560020a62461bcd02815260040180806020018281038252838181518152602001915080519060200190808383600083811015610a72578181015183820152602001610a5a565b506114dc620f42406114d06008548561344190919063ffffffff16565b9063ffffffff6134ec16565b92915050565b60008060006114f084610fa6565b60408051808201909152601281527f5245434f5645525f444953414c4c4f574544000000000000000000000000000060208201529015156115765760405160e560020a62461bcd02815260040180806020018281038252838181518152602001915080519060200190808383600083811015610a72578181015183820152602001610a5a565b5061157f610922565b925061158a8361358c565b60408051808201909152601a81527f5245434f5645525f5641554c545f4e4f545f434f4e545241435400000000000060208201529015156116105760405160e560020a62461bcd02815260040180806020018281038252838181518152602001915080519060200190808383600083811015610a72578181015183820152602001610a5a565b50600160a060020a03841615156116615760405130319250600160a060020a0384169083156108fc029084906000818181858888f1935050505015801561165b573d6000803e3d6000fd5b50611720565b508261167c600160a060020a0382163063ffffffff6135b916565b9150611698600160a060020a038216848463ffffffff6136ce16565b60408051808201909152601d81527f5245434f5645525f544f4b454e5f5452414e534645525f4641494c4544000000602082015290151561171e5760405160e560020a62461bcd02815260040180806020018281038252838181518152602001915080519060200190808383600083811015610a72578181015183820152602001610a5a565b505b83600160a060020a031683600160a060020a03167f596caf56044b55fb8c4ca640089bbc2b63cae3e978b851f5745cbb7c5b288e02846040518082815260200191505060405180910390a350505050565b60008061177c6107ce565b151561178b57600091506118d2565b61179361243f565b9050600160a060020a03811615156117ae57600091506118d2565b80600160a060020a031663fdef91068630876117c988613759565b6040517c010000000000000000000000000000000000000000000000000000000063ffffffff8716028152600160a060020a03808616600483019081529085166024830152604482018490526080606483019081528351608484015283519192909160a490910190602085019080838360005b8381101561185457818101518382015260200161183c565b50505050905090810190601f1680156118815780820380516001836020036101000a031916815260200191505b5095505050505050602060405180830381600087803b1580156118a357600080fd5b505af11580156118b7573d6000803e3d6000fd5b505050506040513d60208110156118cd57600080fd5b505191505b509392505050565b7f9ccaca4edf2127f20c425fdd86af1ba178b9e5bee280cd70d88ac5f6874c4f0781565b60008061190961243f565b604080517fbe00bbd80000000000000000000000000000000000000000000000000000000081527fd6f028ca0e8edb4a8c9757ca4fdccab25fa1e0317da1188108f7d2dee14902fb60048201527fddbcfd564f642ab5627cf68b9b7d374fb4f8a36e941a75d89c87998cef03bd6160248201529051600160a060020a03929092169163be00bbd8916044808201926020929091908290030181600087803b1580156108e157600080fd5b6119bb6113cd565b60408051808201909152601881527f494e49545f414c52454144595f494e495449414c495a4544000000000000000060208201529015611a405760405160e560020a62461bcd02815260040180806020018281038252838181518152602001915080519060200190808383600083811015610a72578181015183820152602001610a5a565b50611a4a8d61358c565b60408051808201909152601781527f50524553414c455f434f4e54524143545f49535f454f410000000000000000006020820152901515611ad05760405160e560020a62461bcd02815260040180806020018281038252838181518152602001915080519060200190808383600083811015610a72578181015183820152602001610a5a565b50611ada8c61358c565b60408051808201909152601781527f50524553414c455f434f4e54524143545f49535f454f410000000000000000006020820152901515611b605760405160e560020a62461bcd02815260040180806020018281038252838181518152602001915080519060200190808383600083811015610a72578181015183820152602001610a5a565b50611b6a8b61358c565b60408051808201909152601781527f50524553414c455f434f4e54524143545f49535f454f410000000000000000006020820152901515611bf05760405160e560020a62461bcd02815260040180806020018281038252838181518152602001915080519060200190808383600083811015610a72578181015183820152602001610a5a565b5060408051808201909152601b81527f50524553414c455f494e56414c49445f42454e454649434941525900000000006020820152600160a060020a038b161515611c805760405160e560020a62461bcd02815260040180806020018281038252838181518152602001915080519060200190808383600083811015610a72578181015183820152602001610a5a565b50611c8a8961358c565b80611c9c5750600160a060020a038916155b6040805190810160405280602081526020017f50524553414c455f494e56414c49445f434f4e545249425554455f544f4b454e815250901515611d245760405160e560020a62461bcd02815260040180806020018281038252838181518152602001915080519060200190808383600083811015610a72578181015183820152602001610a5a565b5060408051808201909152601481527f50524553414c455f494e56414c49445f474f414c000000000000000000000000602082015260008911611dac5760405160e560020a62461bcd02815260040180806020018281038252838181518152602001915080519060200190808383600083811015610a72578181015183820152602001610a5a565b5060408051808201909152601b81527f50524553414c455f494e56414c49445f54494d455f504552494f4400000000006020820152600067ffffffffffffffff891611611e3e5760405160e560020a62461bcd02815260040180806020018281038252838181518152602001915080519060200190808383600083811015610a72578181015183820152602001610a5a565b5060408051808201909152601d81527f50524553414c455f494e56414c49445f45584348414e47455f52415445000000602082015260008711611ec65760405160e560020a62461bcd02815260040180806020018281038252838181518152602001915080519060200190808383600083811015610a72578181015183820152602001610a5a565b5060408051808201909152601b81527f50524553414c455f494e56414c49445f54494d455f504552494f440000000000602082015267ffffffffffffffff80891690871611611f5a5760405160e560020a62461bcd02815260040180806020018281038252838181518152602001915080519060200190808383600083811015610a72578181015183820152602001610a5a565b5060408051808201909152601b81527f50524553414c455f494e56414c49445f54494d455f504552494f440000000000602082015267ffffffffffffffff80871690861611611fee5760405160e560020a62461bcd02815260040180806020018281038252838181518152602001915080519060200190808383600083811015610a72578181015183820152602001610a5a565b506000831180156120025750620f42408311155b60408051808201909152601381527f50524553414c455f494e56414c49445f5043540000000000000000000000000060208201529015156120885760405160e560020a62461bcd02815260040180806020018281038252838181518152602001915080519060200190808383600083811015610a72578181015183820152602001610a5a565b506000821015801561209d5750620f42408211155b60408051808201909152601381527f50524553414c455f494e56414c49445f5043540000000000000000000000000060208201529015156121235760405160e560020a62461bcd02815260040180806020018281038252838181518152602001915080519060200190808383600083811015610a72578181015183820152602001610a5a565b5061212c613763565b8c6000806101000a815481600160a060020a030219169083600160a060020a031602179055508b600160006101000a815481600160a060020a030219169083600160a060020a031602179055508b600160a060020a031663fc0c546a6040518163ffffffff167c0100000000000000000000000000000000000000000000000000000000028152600401602060405180830381600087803b1580156121d057600080fd5b505af11580156121e4573d6000803e3d6000fd5b505050506040513d60208110156121fa57600080fd5b5051600280547fffffffffffffffffffffffff0000000000000000000000000000000000000000908116600160a060020a03938416179091556003805482168e84161790556004805482168d841617905560058054909116918b1691909117905560068890556007805467ffffffffffffffff1990811667ffffffffffffffff8a811691909117909255600888905560098054909116878316176fffffffffffffffff000000000000000019166801000000000000000087841602179055600a849055600b8390558116156122d2576122d281613829565b50505050505050505050505050565b60006122eb6107ce565b60408051808201909152601481527f494e49545f4e4f545f494e495449414c495a454400000000000000000000000060208201529015156123715760405160e560020a62461bcd02815260040180806020018281038252838181518152602001915080519060200190808383600083811015610a72578181015183820152602001610a5a565b50600c5467ffffffffffffffff1615806123a1575061238e612f30565b600c5467ffffffffffffffff9182169116115b156123ae575060006109b1565b600654600d54106123e057600c5468010000000000000000900460ff16156123d8575060046109b1565b5060036109b1565b60075467ffffffffffffffff166123f561392c565b67ffffffffffffffff16101561240d575060016109b1565b5060026109b1565b600c5468010000000000000000900460ff1681565b600d5481565b600354600160a060020a031681565b6000610f5e7f4172f0f7d2289153072b0a6ca36959e0cbe2efc3afe50fc81636caa96338137b612716565b600c546901000000000000000000900467ffffffffffffffff1681565b60006000196124946113cd565b14905090565b600c5467ffffffffffffffff1681565b60075467ffffffffffffffff1681565b600c5471010000000000000000000000000000000000900467ffffffffffffffff1681565b600054600160a060020a031681565b600254600160a060020a031681565b604080516000808252602082019092527fefa06053e2ca99a43c97c4a4f3d8a394ee3323a8ff237e625fba09fe30ceb0a49161253d9133918491906110cf565b60408051808201909152600f81527f4150505f415554485f4641494c4544000000000000000000000000000000000060208201529015156125c35760405160e560020a62461bcd02815260040180806020018281038252838181518152602001915080519060200190808383600083811015610a72578181015183820152602001610a5a565b5060006125ce6122e1565b60048111156125d957fe5b60408051808201909152601581527f50524553414c455f494e56414c49445f535441544500000000000000000000006020820152911461265e5760405160e560020a62461bcd02815260040180806020018281038252838181518152602001915080519060200190808383600083811015610a72578181015183820152602001610a5a565b50600c5460408051808201909152601581527f50524553414c455f494e56414c49445f5354415445000000000000000000000060208201529067ffffffffffffffff16156126f15760405160e560020a62461bcd02815260040180806020018281038252838181518152602001915080519060200190808383600083811015610a72578181015183820152602001610a5a565b50610f28613980565b6010546000901561270e57506010546109b1565b610f5e613990565b5490565b9055565b600160a060020a0382166000908152600e602090815260408083208484528252808320548151808301909252601982527f50524553414c455f4e4f5448494e475f544f5f524546554e4400000000000000928201929092529091908183116127cb5760405160e560020a62461bcd02815260040180806020018281038252838181518152602001915080519060200190808383600083811015610a72578181015183820152602001610a5a565b50600160a060020a038085166000908152600e602090815260408083208784529091528120556005546128019116308685613994565b600154604080517f3e05a36d000000000000000000000000000000000000000000000000000000008152600160a060020a0387811660048301526024820187905291519190921691633e05a36d9160448083019260a09291908290030181600087803b15801561287057600080fd5b505af1158015612884573d6000803e3d6000fd5b505050506040513d60a081101561289a57600080fd5b5051600154604080517ffa6799f2000000000000000000000000000000000000000000000000000000008152600160a060020a03888116600483015260248201889052915193945091169163fa6799f29160448082019260009290919082900301818387803b15801561290c57600080fd5b505af1158015612920573d6000803e3d6000fd5b5050600154604080517f9dc29fac000000000000000000000000000000000000000000000000000000008152600160a060020a0390921660048301819052602483018690529051909350639dc29fac9250604480830192600092919082900301818387803b15801561299157600080fd5b505af11580156129a5573d6000803e3d6000fd5b505060408051858152602081018590528082018790529051600160a060020a03881693507fb7048c2ad36aadee977bb16b4543a18866044d27a2ca753e1c7dbcfa7d7a696292509081900360600190a250505050565b600c805468ff0000000000000000191668010000000000000000179055600b54600d5460009182918291612a3e91620f4240916114d0919063ffffffff61344116565b92506000831115612a6857600554600454612a6891600160a060020a039081169130911686613994565b600554600160a060020a031615612b1057600554604080517f70a082310000000000000000000000000000000000000000000000000000000081523060048201529051600160a060020a03909216916370a08231916024808201926020929091908290030181600087803b158015612adf57600080fd5b505af1158015612af3573d6000803e3d6000fd5b505050506040513d6020811015612b0957600080fd5b5051612b13565b30315b600554600354919350612b3591600160a060020a039182169130911685613994565b600a54612bf6906114d0612b52620f42408363ffffffff612e0716565b600260009054906101000a9004600160a060020a0316600160a060020a03166318160ddd6040518163ffffffff167c0100000000000000000000000000000000000000000000000000000000028152600401602060405180830381600087803b158015612bbe57600080fd5b505af1158015612bd2573d6000803e3d6000fd5b505050506040513d6020811015612be857600080fd5b50519063ffffffff61344116565b600154604080517fcc872b66000000000000000000000000000000000000000000000000000000008152600481018490529051929350600160a060020a039091169163cc872b669160248082019260009290919082900301818387803b158015612c5f57600080fd5b505af1158015612c73573d6000803e3d6000fd5b505060015460048054600c54604080517f21cb18cd000000000000000000000000000000000000000000000000000000008152600160a060020a03938416948101949094526024840188905267ffffffffffffffff80831660448601526901000000000000000000830481166064860152710100000000000000000000000000000000009092049091166084840152600060a4840181905290519190931694506321cb18cd935060c48083019360209383900390910190829087803b158015612d3b57600080fd5b505af1158015612d4f573d6000803e3d6000fd5b505050506040513d6020811015612d6557600080fd5b505060008054604080517fc9567bf90000000000000000000000000000000000000000000000000000000081529051600160a060020a039092169263c9567bf99260048084019382900301818387803b158015612dc157600080fd5b505af1158015612dd5573d6000803e3d6000fd5b50506040517fc35789ccff76271dc0efa6bfde2f4d4a32cd48dd86278f75f8648cb068c86e3b925060009150a1505050565b60408051808201909152601281527f4d4154485f5355425f554e444552464c4f5700000000000000000000000000006020820152600090819084841115612e935760405160e560020a62461bcd02815260040180806020018281038252838181518152602001915080519060200190808383600083811015610a72578181015183820152602001610a5a565b505050808203805b5092915050565b60408051808201909152601181527f4d4154485f4144445f4f564552464c4f57000000000000000000000000000000602082015260009083830190848210156118d25760405160e560020a62461bcd02815260040180806020018281038252838181518152602001915080519060200190808383600083811015610a72578181015183820152602001610a5a565b6000610f5e612f3d613c5b565b613c77565b6000806000600654612f5f85600d54612ea290919063ffffffff16565b11612f6a5783612f7f565b600d54600654612f7f9163ffffffff612e0716565b600554909350600160a060020a0316158015612f9a57508284115b15612fdd57336108fc612fb3868663ffffffff612e0716565b6040518115909202916000818181858888f19350505050158015612fdb573d6000803e3d6000fd5b505b600554600160a060020a03161561324857600554604080517f70a08231000000000000000000000000000000000000000000000000000000008152600160a060020a0388811660048301529151869392909216916370a08231916024808201926020929091908290030181600087803b15801561305957600080fd5b505af115801561306d573d6000803e3d6000fd5b505050506040513d602081101561308357600080fd5b505160408051808201909152601c81527f50524553414c455f494e53554646494349454e545f42414c414e434500000000602082015291111561310b5760405160e560020a62461bcd02815260040180806020018281038252838181518152602001915080519060200190808383600083811015610a72578181015183820152602001610a5a565b50600554604080517fdd62ed3e000000000000000000000000000000000000000000000000000000008152600160a060020a03888116600483015230602483015291518693929092169163dd62ed3e916044808201926020929091908290030181600087803b15801561317d57600080fd5b505af1158015613191573d6000803e3d6000fd5b505050506040513d60208110156131a757600080fd5b505160408051808201909152601e81527f50524553414c455f494e53554646494349454e545f414c4c4f57414e43450000602082015291111561322f5760405160e560020a62461bcd02815260040180806020018281038252838181518152602001915080519060200190808383600083811015610a72578181015183820152602001610a5a565b5060055461324890600160a060020a0316863086613994565b61325183611423565b600154604080517fcc872b66000000000000000000000000000000000000000000000000000000008152600481018490529051929450600160a060020a039091169163cc872b669160248082019260009290919082900301818387803b1580156132ba57600080fd5b505af11580156132ce573d6000803e3d6000fd5b505060018054600c54604080517f21cb18cd000000000000000000000000000000000000000000000000000000008152600160a060020a038c81166004830152602482018a905267ffffffffffffffff8085166044840152690100000000000000000085048116606484015271010000000000000000000000000000000000909404909316608482015260a481019490945251911693506321cb18cd925060c48083019260209291908290030181600087803b15801561338d57600080fd5b505af11580156133a1573d6000803e3d6000fd5b505050506040513d60208110156133b757600080fd5b5051600d549091506133cf908463ffffffff612ea216565b600d55600160a060020a0385166000818152600e60209081526040808320858452825291829020869055815186815290810185905280820184905290517f37e36ebc6d4ece9d361f20138c5dee2a19f8029f2236a30715e971bcf0f0b7349181900360600190a25050505050565b5490565b6000808315156134545760009150612e9b565b5082820282848281151561346457fe5b60408051808201909152601181527f4d4154485f4d554c5f4f564552464c4f57000000000000000000000000000000602082015292919004146118d25760405160e560020a62461bcd02815260040180806020018281038252838181518152602001915080519060200190808383600083811015610a72578181015183820152602001610a5a565b60408051808201909152600d81527f4d4154485f4449565f5a45524f00000000000000000000000000000000000000602082015260009081908184116135775760405160e560020a62461bcd02815260040180806020018281038252838181518152602001915080519060200190808383600083811015610a72578181015183820152602001610a5a565b50828481151561358357fe5b04949350505050565b600080600160a060020a03831615156135a857600091506135b3565b823b90506000811191505b50919050565b60408051600160a060020a0383166024808301919091528251808303909101815260449091019091526020810180517bffffffffffffffffffffffffffffffffffffffffffffffffffffffff167f70a082310000000000000000000000000000000000000000000000000000000017905260009081806136398684613d10565b60408051808201909152601c81527f534146455f4552435f32305f42414c414e43455f524556455254454400000000602082015291935091508215156136c45760405160e560020a62461bcd02815260040180806020018281038252838181518152602001915080519060200190808383600083811015610a72578181015183820152602001610a5a565b5095945050505050565b60408051600160a060020a038416602482015260448082018490528251808303909101815260649091019091526020810180517bffffffffffffffffffffffffffffffffffffffffffffffffffffffff167fa9059cbb000000000000000000000000000000000000000000000000000000001790526000906137508582613d41565b95945050505050565b8051602002815290565b61376b6113cd565b60408051808201909152601881527f494e49545f414c52454144595f494e495449414c495a45440000000000000000602082015290156137f05760405160e560020a62461bcd02815260040180806020018281038252838181518152602001915080519060200190808383600083811015610a72578181015183820152602001610a5a565b50610e316137fc6126fa565b7febb05b386a8d34882b8711d156f463690983dc47815980fb82aeeff1aa43579e9063ffffffff61271a16565b613831612f30565b60408051808201909152601b81527f50524553414c455f494e56414c49445f54494d455f504552494f44000000000060208201529067ffffffffffffffff90811690831610156138c65760405160e560020a62461bcd02815260040180806020018281038252838181518152602001915080519060200190808383600083811015610a72578181015183820152602001610a5a565b50600c805467ffffffffffffffff191667ffffffffffffffff83161790556138ec613d93565b6040805167ffffffffffffffff8316815290517fab2aeaceefdbd207caa02bf58306335f7c37fd3b434a6cc547733be5e33a86779181900360200190a150565b600c5460009067ffffffffffffffff16151561394a575060006109b1565b600c546139799067ffffffffffffffff16613963612f30565b67ffffffffffffffff169063ffffffff613e3316565b90506109b1565b610e3161398b612f30565b613829565b4390565b600160a060020a0384161515613b015760408051808201909152601f81527f50524553414c455f544f4b454e5f5452414e534645525f5245564552544544006020820152600160a060020a0384163014613a335760405160e560020a62461bcd02815260040180806020018281038252838181518152602001915080519060200190808383600083811015610a72578181015183820152602001610a5a565b5060408051808201909152601f81527f50524553414c455f544f4b454e5f5452414e534645525f5245564552544544006020820152600160a060020a038316301415613ac45760405160e560020a62461bcd02815260040180806020018281038252838181518152602001915080519060200190808383600083811015610a72578181015183820152602001610a5a565b50604051600160a060020a0383169082156108fc029083906000818181858888f19350505050158015613afb573d6000803e3d6000fd5b50613c55565b600160a060020a038316301415613bb257613b2c600160a060020a038516838363ffffffff6136ce16565b60408051808201909152601f81527f50524553414c455f544f4b454e5f5452414e534645525f5245564552544544006020820152901515613afb5760405160e560020a62461bcd02815260040180806020018281038252838181518152602001915080519060200190808383600083811015610a72578181015183820152602001610a5a565b613bcd600160a060020a03851684848463ffffffff613ecc16565b60408051808201909152601f81527f50524553414c455f544f4b454e5f5452414e534645525f5245564552544544006020820152901515613c535760405160e560020a62461bcd02815260040180806020018281038252838181518152602001915080519060200190808383600083811015610a72578181015183820152602001610a5a565b505b50505050565b600f5460009015613c6f5750600f546109b1565b610f5e613f60565b60408051808201909152601581527f55494e5436345f4e554d4245525f544f4f5f4249470000000000000000000000602082015260009067ffffffffffffffff831115613d095760405160e560020a62461bcd02815260040180806020018281038252838181518152602001915080519060200190808383600083811015610a72578181015183820152602001610a5a565b5090919050565b6000806000806040516020818751602089018a5afa92506000831115613d3557805191505b50909590945092505050565b6000806040516020818551602087016000895af16000811115613d85573d8015613d725760208114613d7b57613d83565b60019350613d83565b600183511493505b505b5090949350505050565b9055565b600954600c54613db69167ffffffffffffffff918216911663ffffffff613f6416565b600c805470ffffffffffffffff0000000000000000001916690100000000000000000067ffffffffffffffff938416021790819055600954613e0992918216916801000000000000000090910416613f64565b600c60116101000a81548167ffffffffffffffff021916908367ffffffffffffffff160217905550565b60408051808201909152601481527f4d41544836345f5355425f554e444552464c4f570000000000000000000000006020820152600090819067ffffffffffffffff8086169085161115612e935760405160e560020a62461bcd02815260040180806020018281038252838181518152602001915080519060200190808383600083811015610a72578181015183820152602001610a5a565b60408051600160a060020a0385811660248301528416604482015260648082018490528251808303909101815260849091019091526020810180517bffffffffffffffffffffffffffffffffffffffffffffffffffffffff167f23b872dd00000000000000000000000000000000000000000000000000000000179052600090613f568682613d41565b9695505050505050565b4290565b60408051808201909152601381527f4d41544836345f4144445f4f564552464c4f570000000000000000000000000060208201526000908383019067ffffffffffffffff80861690831610156118d25760405160e560020a62461bcd02815260040180806020018281038252838181518152602001915080519060200190808383600083811015610a72578181015183820152602001610a5a5600e855346402235fdd185c890e68d2c4ecad599b88587635ee285bce2fda58dacba165627a7a723058206523f5cd4899832f70ee03d27ca40501a5d238acea18cb0a7045740124f483830029ebb05b386a8d34882b8711d156f463690983dc47815980fb82aeeff1aa43579e",
  "source": "pragma solidity 0.4.24;\n\nimport \"@aragon/test-helpers/contracts/TimeHelpersMock.sol\";\nimport \"@ablack/fundraising-presale/contracts/Presale.sol\";\n\n\ncontract PresaleMock is Presale, TimeHelpersMock {}\n",
  "sourcePath": "/Users/jonybang/workspace/fundraising/apps/aragon-fundraising/contracts/test/mocks/PresaleMock.sol",
  "compiler": {
    "name": "solc",
    "version": "0.4.24+commit.e67f0147.Emscripten.clang"
  },
  "schemaVersion": "2.0.1",
  "updatedAt": "2020-02-08T20:29:35.796Z"
}