{
  "contractName": "Tap",
  "abi": [
    {
      "constant": true,
      "inputs": [],
      "name": "hasInitialized",
      "outputs": [
        {
          "name": "",
          "type": "bool"
        }
      ],
      "payable": false,
      "stateMutability": "view",
      "type": "function"
    },
    {
      "constant": true,
      "inputs": [],
      "name": "UPDATE_CONTROLLER_ROLE",
      "outputs": [
        {
          "name": "",
          "type": "bytes32"
        }
      ],
      "payable": false,
      "stateMutability": "view",
      "type": "function"
    },
    {
      "constant": true,
      "inputs": [
        {
          "name": "_script",
          "type": "bytes"
        }
      ],
      "name": "getEVMScriptExecutor",
      "outputs": [
        {
          "name": "",
          "type": "address"
        }
      ],
      "payable": false,
      "stateMutability": "view",
      "type": "function"
    },
    {
      "constant": true,
      "inputs": [],
      "name": "getRecoveryVault",
      "outputs": [
        {
          "name": "",
          "type": "address"
        }
      ],
      "payable": false,
      "stateMutability": "view",
      "type": "function"
    },
    {
      "constant": true,
      "inputs": [],
      "name": "beneficiary",
      "outputs": [
        {
          "name": "",
          "type": "address"
        }
      ],
      "payable": false,
      "stateMutability": "view",
      "type": "function"
    },
    {
      "constant": true,
      "inputs": [],
      "name": "UPDATE_BENEFICIARY_ROLE",
      "outputs": [
        {
          "name": "",
          "type": "bytes32"
        }
      ],
      "payable": false,
      "stateMutability": "view",
      "type": "function"
    },
    {
      "constant": true,
      "inputs": [],
      "name": "maximumTapRateIncreasePct",
      "outputs": [
        {
          "name": "",
          "type": "uint256"
        }
      ],
      "payable": false,
      "stateMutability": "view",
      "type": "function"
    },
    {
      "constant": true,
      "inputs": [
        {
          "name": "",
          "type": "address"
        }
      ],
      "name": "lastTappedAmountUpdates",
      "outputs": [
        {
          "name": "",
          "type": "uint256"
        }
      ],
      "payable": false,
      "stateMutability": "view",
      "type": "function"
    },
    {
      "constant": true,
      "inputs": [
        {
          "name": "",
          "type": "address"
        }
      ],
      "name": "tappedAmounts",
      "outputs": [
        {
          "name": "",
          "type": "uint256"
        }
      ],
      "payable": false,
      "stateMutability": "view",
      "type": "function"
    },
    {
      "constant": true,
      "inputs": [],
      "name": "ADD_TAPPED_TOKEN_ROLE",
      "outputs": [
        {
          "name": "",
          "type": "bytes32"
        }
      ],
      "payable": false,
      "stateMutability": "view",
      "type": "function"
    },
    {
      "constant": true,
      "inputs": [],
      "name": "RESET_TAPPED_TOKEN_ROLE",
      "outputs": [
        {
          "name": "",
          "type": "bytes32"
        }
      ],
      "payable": false,
      "stateMutability": "view",
      "type": "function"
    },
    {
      "constant": true,
      "inputs": [
        {
          "name": "token",
          "type": "address"
        }
      ],
      "name": "allowRecoverability",
      "outputs": [
        {
          "name": "",
          "type": "bool"
        }
      ],
      "payable": false,
      "stateMutability": "view",
      "type": "function"
    },
    {
      "constant": true,
      "inputs": [],
      "name": "appId",
      "outputs": [
        {
          "name": "",
          "type": "bytes32"
        }
      ],
      "payable": false,
      "stateMutability": "view",
      "type": "function"
    },
    {
      "constant": true,
      "inputs": [],
      "name": "getInitializationBlock",
      "outputs": [
        {
          "name": "",
          "type": "uint256"
        }
      ],
      "payable": false,
      "stateMutability": "view",
      "type": "function"
    },
    {
      "constant": false,
      "inputs": [
        {
          "name": "_token",
          "type": "address"
        }
      ],
      "name": "transferToVault",
      "outputs": [],
      "payable": false,
      "stateMutability": "nonpayable",
      "type": "function"
    },
    {
      "constant": true,
      "inputs": [
        {
          "name": "_sender",
          "type": "address"
        },
        {
          "name": "_role",
          "type": "bytes32"
        },
        {
          "name": "_params",
          "type": "uint256[]"
        }
      ],
      "name": "canPerform",
      "outputs": [
        {
          "name": "",
          "type": "bool"
        }
      ],
      "payable": false,
      "stateMutability": "view",
      "type": "function"
    },
    {
      "constant": true,
      "inputs": [],
      "name": "getEVMScriptRegistry",
      "outputs": [
        {
          "name": "",
          "type": "address"
        }
      ],
      "payable": false,
      "stateMutability": "view",
      "type": "function"
    },
    {
      "constant": true,
      "inputs": [],
      "name": "UPDATE_RESERVE_ROLE",
      "outputs": [
        {
          "name": "",
          "type": "bytes32"
        }
      ],
      "payable": false,
      "stateMutability": "view",
      "type": "function"
    },
    {
      "constant": true,
      "inputs": [],
      "name": "UPDATE_TAPPED_TOKEN_ROLE",
      "outputs": [
        {
          "name": "",
          "type": "bytes32"
        }
      ],
      "payable": false,
      "stateMutability": "view",
      "type": "function"
    },
    {
      "constant": true,
      "inputs": [],
      "name": "UPDATE_MAXIMUM_TAP_RATE_INCREASE_PCT_ROLE",
      "outputs": [
        {
          "name": "",
          "type": "bytes32"
        }
      ],
      "payable": false,
      "stateMutability": "view",
      "type": "function"
    },
    {
      "constant": true,
      "inputs": [],
      "name": "batchBlocks",
      "outputs": [
        {
          "name": "",
          "type": "uint256"
        }
      ],
      "payable": false,
      "stateMutability": "view",
      "type": "function"
    },
    {
      "constant": true,
      "inputs": [
        {
          "name": "",
          "type": "address"
        }
      ],
      "name": "floors",
      "outputs": [
        {
          "name": "",
          "type": "uint256"
        }
      ],
      "payable": false,
      "stateMutability": "view",
      "type": "function"
    },
    {
      "constant": true,
      "inputs": [],
      "name": "UPDATE_MAXIMUM_TAP_FLOOR_DECREASE_PCT_ROLE",
      "outputs": [
        {
          "name": "",
          "type": "bytes32"
        }
      ],
      "payable": false,
      "stateMutability": "view",
      "type": "function"
    },
    {
      "constant": true,
      "inputs": [],
      "name": "reserve",
      "outputs": [
        {
          "name": "",
          "type": "address"
        }
      ],
      "payable": false,
      "stateMutability": "view",
      "type": "function"
    },
    {
      "constant": true,
      "inputs": [],
      "name": "REMOVE_TAPPED_TOKEN_ROLE",
      "outputs": [
        {
          "name": "",
          "type": "bytes32"
        }
      ],
      "payable": false,
      "stateMutability": "view",
      "type": "function"
    },
    {
      "constant": true,
      "inputs": [],
      "name": "kernel",
      "outputs": [
        {
          "name": "",
          "type": "address"
        }
      ],
      "payable": false,
      "stateMutability": "view",
      "type": "function"
    },
    {
      "constant": true,
      "inputs": [],
      "name": "isPetrified",
      "outputs": [
        {
          "name": "",
          "type": "bool"
        }
      ],
      "payable": false,
      "stateMutability": "view",
      "type": "function"
    },
    {
      "constant": true,
      "inputs": [],
      "name": "WITHDRAW_ROLE",
      "outputs": [
        {
          "name": "",
          "type": "bytes32"
        }
      ],
      "payable": false,
      "stateMutability": "view",
      "type": "function"
    },
    {
      "constant": true,
      "inputs": [
        {
          "name": "",
          "type": "address"
        }
      ],
      "name": "lastTapUpdates",
      "outputs": [
        {
          "name": "",
          "type": "uint256"
        }
      ],
      "payable": false,
      "stateMutability": "view",
      "type": "function"
    },
    {
      "constant": true,
      "inputs": [],
      "name": "maximumTapFloorDecreasePct",
      "outputs": [
        {
          "name": "",
          "type": "uint256"
        }
      ],
      "payable": false,
      "stateMutability": "view",
      "type": "function"
    },
    {
      "constant": true,
      "inputs": [],
      "name": "controller",
      "outputs": [
        {
          "name": "",
          "type": "address"
        }
      ],
      "payable": false,
      "stateMutability": "view",
      "type": "function"
    },
    {
      "constant": true,
      "inputs": [],
      "name": "PCT_BASE",
      "outputs": [
        {
          "name": "",
          "type": "uint256"
        }
      ],
      "payable": false,
      "stateMutability": "view",
      "type": "function"
    },
    {
      "anonymous": false,
      "inputs": [
        {
          "indexed": true,
          "name": "beneficiary",
          "type": "address"
        }
      ],
      "name": "UpdateBeneficiary",
      "type": "event"
    },
    {
      "anonymous": false,
      "inputs": [
        {
          "indexed": false,
          "name": "maximumTapRateIncreasePct",
          "type": "uint256"
        }
      ],
      "name": "UpdateMaximumTapRateIncreasePct",
      "type": "event"
    },
    {
      "anonymous": false,
      "inputs": [
        {
          "indexed": false,
          "name": "maximumTapFloorDecreasePct",
          "type": "uint256"
        }
      ],
      "name": "UpdateMaximumTapFloorDecreasePct",
      "type": "event"
    },
    {
      "anonymous": false,
      "inputs": [
        {
          "indexed": true,
          "name": "token",
          "type": "address"
        },
        {
          "indexed": false,
          "name": "rate",
          "type": "uint256"
        },
        {
          "indexed": false,
          "name": "floor",
          "type": "uint256"
        }
      ],
      "name": "AddTappedToken",
      "type": "event"
    },
    {
      "anonymous": false,
      "inputs": [
        {
          "indexed": true,
          "name": "token",
          "type": "address"
        }
      ],
      "name": "RemoveTappedToken",
      "type": "event"
    },
    {
      "anonymous": false,
      "inputs": [
        {
          "indexed": true,
          "name": "token",
          "type": "address"
        },
        {
          "indexed": false,
          "name": "rate",
          "type": "uint256"
        },
        {
          "indexed": false,
          "name": "floor",
          "type": "uint256"
        }
      ],
      "name": "UpdateTappedToken",
      "type": "event"
    },
    {
      "anonymous": false,
      "inputs": [
        {
          "indexed": true,
          "name": "token",
          "type": "address"
        }
      ],
      "name": "ResetTappedToken",
      "type": "event"
    },
    {
      "anonymous": false,
      "inputs": [
        {
          "indexed": true,
          "name": "token",
          "type": "address"
        },
        {
          "indexed": false,
          "name": "tappedAmount",
          "type": "uint256"
        }
      ],
      "name": "UpdateTappedAmount",
      "type": "event"
    },
    {
      "anonymous": false,
      "inputs": [
        {
          "indexed": true,
          "name": "token",
          "type": "address"
        },
        {
          "indexed": false,
          "name": "amount",
          "type": "uint256"
        }
      ],
      "name": "Withdraw",
      "type": "event"
    },
    {
      "anonymous": false,
      "inputs": [
        {
          "indexed": true,
          "name": "executor",
          "type": "address"
        },
        {
          "indexed": false,
          "name": "script",
          "type": "bytes"
        },
        {
          "indexed": false,
          "name": "input",
          "type": "bytes"
        },
        {
          "indexed": false,
          "name": "returnData",
          "type": "bytes"
        }
      ],
      "name": "ScriptResult",
      "type": "event"
    },
    {
      "anonymous": false,
      "inputs": [
        {
          "indexed": true,
          "name": "vault",
          "type": "address"
        },
        {
          "indexed": true,
          "name": "token",
          "type": "address"
        },
        {
          "indexed": false,
          "name": "amount",
          "type": "uint256"
        }
      ],
      "name": "RecoverToVault",
      "type": "event"
    },
    {
      "constant": false,
      "inputs": [
        {
          "name": "_controller",
          "type": "address"
        },
        {
          "name": "_reserve",
          "type": "address"
        },
        {
          "name": "_beneficiary",
          "type": "address"
        },
        {
          "name": "_batchBlocks",
          "type": "uint256"
        },
        {
          "name": "_maximumTapRateIncreasePct",
          "type": "uint256"
        },
        {
          "name": "_maximumTapFloorDecreasePct",
          "type": "uint256"
        }
      ],
      "name": "initialize",
      "outputs": [],
      "payable": false,
      "stateMutability": "nonpayable",
      "type": "function"
    },
    {
      "constant": false,
      "inputs": [
        {
          "name": "_beneficiary",
          "type": "address"
        }
      ],
      "name": "updateBeneficiary",
      "outputs": [],
      "payable": false,
      "stateMutability": "nonpayable",
      "type": "function"
    },
    {
      "constant": false,
      "inputs": [
        {
          "name": "_maximumTapRateIncreasePct",
          "type": "uint256"
        }
      ],
      "name": "updateMaximumTapRateIncreasePct",
      "outputs": [],
      "payable": false,
      "stateMutability": "nonpayable",
      "type": "function"
    },
    {
      "constant": false,
      "inputs": [
        {
          "name": "_maximumTapFloorDecreasePct",
          "type": "uint256"
        }
      ],
      "name": "updateMaximumTapFloorDecreasePct",
      "outputs": [],
      "payable": false,
      "stateMutability": "nonpayable",
      "type": "function"
    },
    {
      "constant": false,
      "inputs": [
        {
          "name": "_token",
          "type": "address"
        },
        {
          "name": "_rate",
          "type": "uint256"
        },
        {
          "name": "_floor",
          "type": "uint256"
        }
      ],
      "name": "addTappedToken",
      "outputs": [],
      "payable": false,
      "stateMutability": "nonpayable",
      "type": "function"
    },
    {
      "constant": false,
      "inputs": [
        {
          "name": "_token",
          "type": "address"
        }
      ],
      "name": "removeTappedToken",
      "outputs": [],
      "payable": false,
      "stateMutability": "nonpayable",
      "type": "function"
    },
    {
      "constant": false,
      "inputs": [
        {
          "name": "_token",
          "type": "address"
        },
        {
          "name": "_rate",
          "type": "uint256"
        },
        {
          "name": "_floor",
          "type": "uint256"
        }
      ],
      "name": "updateTappedToken",
      "outputs": [],
      "payable": false,
      "stateMutability": "nonpayable",
      "type": "function"
    },
    {
      "constant": false,
      "inputs": [
        {
          "name": "_token",
          "type": "address"
        }
      ],
      "name": "resetTappedToken",
      "outputs": [],
      "payable": false,
      "stateMutability": "nonpayable",
      "type": "function"
    },
    {
      "constant": false,
      "inputs": [
        {
          "name": "_token",
          "type": "address"
        }
      ],
      "name": "updateTappedAmount",
      "outputs": [],
      "payable": false,
      "stateMutability": "nonpayable",
      "type": "function"
    },
    {
      "constant": false,
      "inputs": [
        {
          "name": "_token",
          "type": "address"
        }
      ],
      "name": "withdraw",
      "outputs": [],
      "payable": false,
      "stateMutability": "nonpayable",
      "type": "function"
    },
    {
      "constant": true,
      "inputs": [
        {
          "name": "_token",
          "type": "address"
        }
      ],
      "name": "getMaximumWithdrawal",
      "outputs": [
        {
          "name": "",
          "type": "uint256"
        }
      ],
      "payable": false,
      "stateMutability": "view",
      "type": "function"
    },
    {
      "constant": true,
      "inputs": [
        {
          "name": "_token",
          "type": "address"
        }
      ],
      "name": "rates",
      "outputs": [
        {
          "name": "",
          "type": "uint256"
        }
      ],
      "payable": false,
      "stateMutability": "view",
      "type": "function"
    }
  ],
  "bytecode": "0x6080604052620000176401000000006200001d810204565b6200023b565b6200003064010000000062000125810204565b60408051808201909152601881527f494e49545f414c52454144595f494e495449414c495a45440000000000000000602082015290156200010c576040517f08c379a00000000000000000000000000000000000000000000000000000000081526004018080602001828103825283818151815260200191508051906020019080838360005b83811015620000d0578181015183820152602001620000b6565b50505050905090810190601f168015620000fe5780820380516001836020036101000a031916815260200191505b509250505060405180910390fd5b506200012360001964010000000062000154810204565b565b60006200014f60008051602062003451833981519152640100000000620027696200023382021704565b905090565b6200016764010000000062000125810204565b60408051808201909152601881527f494e49545f414c52454144595f494e495449414c495a454400000000000000006020820152901562000206576040517f08c379a000000000000000000000000000000000000000000000000000000000815260040180806020018281038252838181518152602001915080519060200190808383600083811015620000d0578181015183820152602001620000b6565b5062000230600080516020620034518339815191528264010000000062002e016200023782021704565b50565b5490565b9055565b613206806200024b6000396000f3006080604052600436106102195763ffffffff7c010000000000000000000000000000000000000000000000000000000060003504166307e18bc8811461021e5780630803fac014610238578063092c684f146102615780630aaffd2a146102885780632914b9bd146102a957806332f0a3b51461031e57806338af3eed1461033357806341644f8c14610348578063486b6d1a1461035d5780634c8621361461037e57806351cff8d9146103935780635503c656146103b45780635567de45146103d557806372405ee0146103f6578063728cdbca1461040b57806378986e64146104415780637e7db6e11461045657806380afdea814610477578063846a0a891461048c5780638b3dd749146104ad5780639cbbba88146104c25780639d4941d8146104e3578063a1658fad14610504578063a479e5081461056b578063a59a583214610580578063a8734f0b14610595578063b897b628146105b6578063bf5ae743146105dd578063c102b1b5146105f2578063c56f0f6c14610607578063cc3f861f1461061c578063cc77491b1461063d578063cd3293de14610652578063d0c063be14610667578063d21bd8201461067c578063d4aae0c414610694578063de4796ed146106a9578063e02023a1146106be578063e1264fcd146106d3578063e2a5aec5146106f4578063ed20de5814610715578063f30a00ce1461072a578063f77c479114610751578063fc157cb414610766575b600080fd5b34801561022a57600080fd5b5061023660043561077b565b005b34801561024457600080fd5b5061024d61088d565b604080519115158252519081900360200190f35b34801561026d57600080fd5b506102766108b6565b60408051918252519081900360200190f35b34801561029457600080fd5b50610236600160a060020a03600435166108da565b3480156102b557600080fd5b506040805160206004803580820135601f8101849004840285018401909552848452610302943694929360249392840191908190840183828082843750949750610a3a9650505050505050565b60408051600160a060020a039092168252519081900360200190f35b34801561032a57600080fd5b50610302610b39565b34801561033f57600080fd5b50610302610bca565b34801561035457600080fd5b50610276610bd9565b34801561036957600080fd5b50610236600160a060020a0360043516610bfd565b34801561038a57600080fd5b50610276610d5d565b34801561039f57600080fd5b50610236600160a060020a0360043516610d63565b3480156103c057600080fd5b50610276600160a060020a0360043516610f5d565b3480156103e157600080fd5b50610276600160a060020a0360043516610f6f565b34801561040257600080fd5b50610276610f81565b34801561041757600080fd5b50610236600160a060020a036004358116906024358116906044351660643560843560a435610fa5565b34801561044d57600080fd5b5061027661135e565b34801561046257600080fd5b5061024d600160a060020a0360043516611382565b34801561048357600080fd5b50610276611388565b34801561049857600080fd5b50610236600160a060020a03600435166113b8565b3480156104b957600080fd5b50610276611451565b3480156104ce57600080fd5b50610236600160a060020a036004351661147c565b3480156104ef57600080fd5b50610236600160a060020a03600435166115dc565b34801561051057600080fd5b50604080516020600460443581810135838102808601850190965280855261024d958335600160a060020a031695602480359636969560649593949201929182918501908490808284375094975061186b9650505050505050565b34801561057757600080fd5b506103026119d4565b34801561058c57600080fd5b50610276611a89565b3480156105a157600080fd5b50610276600160a060020a0360043516611aad565b3480156105c257600080fd5b50610236600160a060020a0360043516602435604435611b5a565b3480156105e957600080fd5b50610276611de1565b3480156105fe57600080fd5b50610276611e05565b34801561061357600080fd5b50610276611e29565b34801561062857600080fd5b50610276600160a060020a0360043516611e2f565b34801561064957600080fd5b50610276611e41565b34801561065e57600080fd5b50610302611e65565b34801561067357600080fd5b50610276611e74565b34801561068857600080fd5b50610236600435611e98565b3480156106a057600080fd5b50610302611ff8565b3480156106b557600080fd5b5061024d612023565b3480156106ca57600080fd5b50610276612036565b3480156106df57600080fd5b50610276600160a060020a036004351661205a565b34801561070057600080fd5b50610276600160a060020a036004351661206c565b34801561072157600080fd5b5061027661210c565b34801561073657600080fd5b50610236600160a060020a0360043516602435604435612112565b34801561075d57600080fd5b50610302612396565b34801561077257600080fd5b506102766123a5565b604080516000808252602082019092527f5d94de7e429250eee4ff97e30ab9f383bea3cd564d6780e0a9e965b1add1d207916107bd9133918491905b5061186b565b60408051808201909152600f81527f4150505f415554485f4641494c45440000000000000000000000000000000000602082015290151561087f5760405160e560020a62461bcd0281526004018080602001828103825283818151815260200191508051906020019080838360005b8381101561084457818101518382015260200161082c565b50505050905090810190601f1680156108715780820380516001836020036101000a031916815260200191505b509250505060405180910390fd5b50610889826123b1565b5050565b600080610898611451565b905080158015906108b05750806108ad6123ec565b10155b91505090565b7f454b5d0dbb74f012faf1d3722ea441689f97dc957dd3ca5335b4969586e5dc3081565b604080516000808252602082019092527ff7ea2b80c7b6a2cab2c11d2290cb005c3748397358a25e17113658c83b7325939161091a9133918491906107b7565b60408051808201909152600f81527f4150505f415554485f4641494c4544000000000000000000000000000000000060208201529015156109a05760405160e560020a62461bcd0281526004018080602001828103825283818151815260200191508051906020019080838360008381101561084457818101518382015260200161082c565b506109aa826123f0565b60408051808201909152601781527f5441505f494e56414c49445f42454e45464943494152590000000000000000006020820152901515610a305760405160e560020a62461bcd0281526004018080602001828103825283818151815260200191508051906020019080838360008381101561084457818101518382015260200161082c565b50610889826123fe565b6000610a446119d4565b600160a060020a03166304bf2a7f836040518263ffffffff167c01000000000000000000000000000000000000000000000000000000000281526004018080602001828103825283818151815260200191508051906020019080838360005b83811015610abb578181015183820152602001610aa3565b50505050905090810190601f168015610ae85780820380516001836020036101000a031916815260200191505b5092505050602060405180830381600087803b158015610b0757600080fd5b505af1158015610b1b573d6000803e3d6000fd5b505050506040513d6020811015610b3157600080fd5b505192915050565b6000610b43611ff8565b600160a060020a03166332f0a3b56040518163ffffffff167c0100000000000000000000000000000000000000000000000000000000028152600401602060405180830381600087803b158015610b9957600080fd5b505af1158015610bad573d6000803e3d6000fd5b505050506040513d6020811015610bc357600080fd5b5051905090565b600254600160a060020a031681565b7ff7ea2b80c7b6a2cab2c11d2290cb005c3748397358a25e17113658c83b73259381565b604080516000808252602082019092527fd76960be78bfedc5b40ce4fa64a2f8308f39dd2cbb1f9676dbc4ce87b817befd91610c3d9133918491906107b7565b60408051808201909152600f81527f4150505f415554485f4641494c454400000000000000000000000000000000006020820152901515610cc35760405160e560020a62461bcd0281526004018080602001828103825283818151815260200191508051906020019080838360008381101561084457818101518382015260200161082c565b50610ccd82612455565b60408051808201909152601481527f5441505f544f4b454e5f4e4f545f5441505045440000000000000000000000006020820152901515610d535760405160e560020a62461bcd0281526004018080602001828103825283818151815260200191508051906020019080838360008381101561084457818101518382015260200161082c565b5061088982612472565b60045481565b604080516000808252602082019092527f5d8e12c39142ff96d79d04d15d1ba1269e4fe57bb9d26f43523628b34ba108ec90610da39033908390856107b7565b60408051808201909152600f81527f4150505f415554485f4641494c454400000000000000000000000000000000006020820152901515610e295760405160e560020a62461bcd0281526004018080602001828103825283818151815260200191508051906020019080838360008381101561084457818101518382015260200161082c565b50610e3383612455565b60408051808201909152601481527f5441505f544f4b454e5f4e4f545f5441505045440000000000000000000000006020820152901515610eb95760405160e560020a62461bcd0281526004018080602001828103825283818151815260200191508051906020019080838360008381101561084457818101518382015260200161082c565b50610ec3836124e1565b60408051808201909152601a81527f5441505f5749544844524157414c5f414d4f554e545f5a45524f000000000000602082015290925060008311610f4d5760405160e560020a62461bcd0281526004018080602001828103825283818151815260200191508051906020019080838360008381101561084457818101518382015260200161082c565b50610f58838361255f565b505050565b60096020526000908152604090205481565b60066020526000908152604090205481565b7f5bc3b608e6be93b75a1c472a4a5bea3d31eabae46bf968e4bc4c7701562114dc81565b610fad611451565b60408051808201909152601881527f494e49545f414c52454144595f494e495449414c495a45440000000000000000602082015290156110325760405160e560020a62461bcd0281526004018080602001828103825283818151815260200191508051906020019080838360008381101561084457818101518382015260200161082c565b5061103c8661266d565b60408051808201909152601381527f5441505f434f4e54524143545f49535f454f410000000000000000000000000060208201529015156110c25760405160e560020a62461bcd0281526004018080602001828103825283818151815260200191508051906020019080838360008381101561084457818101518382015260200161082c565b506110cc8561266d565b60408051808201909152601381527f5441505f434f4e54524143545f49535f454f410000000000000000000000000060208201529015156111525760405160e560020a62461bcd0281526004018080602001828103825283818151815260200191508051906020019080838360008381101561084457818101518382015260200161082c565b5061115c846123f0565b60408051808201909152601781527f5441505f494e56414c49445f42454e454649434941525900000000000000000060208201529015156111e25760405160e560020a62461bcd0281526004018080602001828103825283818151815260200191508051906020019080838360008381101561084457818101518382015260200161082c565b5060408051808201909152601881527f5441505f494e56414c49445f42415443485f424c4f434b53000000000000000060208201528315156112695760405160e560020a62461bcd0281526004018080602001828103825283818151815260200191508051906020019080838360008381101561084457818101518382015260200161082c565b5061127381612693565b60408051808201909152601e81527f5441505f494e56414c49445f464c4f4f525f44454352454153455f504354000060208201529015156112f95760405160e560020a62461bcd0281526004018080602001828103825283818151815260200191508051906020019080838360008381101561084457818101518382015260200161082c565b506113026126a1565b6000805473ffffffffffffffffffffffffffffffffffffffff19908116600160a060020a039889161790915560018054821696881696909617909555600280549095169390951692909217909255600391909155600455600555565b7f294bf52c518669359157a9fe826e510dfc3dbd200d44bf77ec9536bff34bc29e81565b50600190565b60006113b37fd625496217aa6a3453eecb9c3489dc5a53e6c67b444329ea2b2cbc9ff547639b612769565b905090565b6113c181612455565b60408051808201909152601481527f5441505f544f4b454e5f4e4f545f54415050454400000000000000000000000060208201529015156114475760405160e560020a62461bcd0281526004018080602001828103825283818151815260200191508051906020019080838360008381101561084457818101518382015260200161082c565b50610889816124e1565b60006113b37febb05b386a8d34882b8711d156f463690983dc47815980fb82aeeff1aa43579e612769565b604080516000808252602082019092527f294bf52c518669359157a9fe826e510dfc3dbd200d44bf77ec9536bff34bc29e916114bc9133918491906107b7565b60408051808201909152600f81527f4150505f415554485f4641494c4544000000000000000000000000000000000060208201529015156115425760405160e560020a62461bcd0281526004018080602001828103825283818151815260200191508051906020019080838360008381101561084457818101518382015260200161082c565b5061154c82612455565b60408051808201909152601481527f5441505f544f4b454e5f4e4f545f54415050454400000000000000000000000060208201529015156115d25760405160e560020a62461bcd0281526004018080602001828103825283818151815260200191508051906020019080838360008381101561084457818101518382015260200161082c565b5061088982612771565b60008060006115ea84611382565b60408051808201909152601281527f5245434f5645525f444953414c4c4f574544000000000000000000000000000060208201529015156116705760405160e560020a62461bcd0281526004018080602001828103825283818151815260200191508051906020019080838360008381101561084457818101518382015260200161082c565b50611679610b39565b92506116848361266d565b60408051808201909152601a81527f5245434f5645525f5641554c545f4e4f545f434f4e5452414354000000000000602082015290151561170a5760405160e560020a62461bcd0281526004018080602001828103825283818151815260200191508051906020019080838360008381101561084457818101518382015260200161082c565b50600160a060020a038416151561175b5760405130319250600160a060020a0384169083156108fc029084906000818181858888f19350505050158015611755573d6000803e3d6000fd5b5061181a565b5082611776600160a060020a0382163063ffffffff6127fa16565b9150611792600160a060020a038216848463ffffffff61290f16565b60408051808201909152601d81527f5245434f5645525f544f4b454e5f5452414e534645525f4641494c454400000060208201529015156118185760405160e560020a62461bcd0281526004018080602001828103825283818151815260200191508051906020019080838360008381101561084457818101518382015260200161082c565b505b83600160a060020a031683600160a060020a03167f596caf56044b55fb8c4ca640089bbc2b63cae3e978b851f5745cbb7c5b288e02846040518082815260200191505060405180910390a350505050565b60008061187661088d565b151561188557600091506119cc565b61188d611ff8565b9050600160a060020a03811615156118a857600091506119cc565b80600160a060020a031663fdef91068630876118c38861299a565b6040517c010000000000000000000000000000000000000000000000000000000063ffffffff8716028152600160a060020a03808616600483019081529085166024830152604482018490526080606483019081528351608484015283519192909160a490910190602085019080838360005b8381101561194e578181015183820152602001611936565b50505050905090810190601f16801561197b5780820380516001836020036101000a031916815260200191505b5095505050505050602060405180830381600087803b15801561199d57600080fd5b505af11580156119b1573d6000803e3d6000fd5b505050506040513d60208110156119c757600080fd5b505191505b509392505050565b6000806119df611ff8565b604080517fbe00bbd80000000000000000000000000000000000000000000000000000000081527fd6f028ca0e8edb4a8c9757ca4fdccab25fa1e0317da1188108f7d2dee14902fb60048201527fddbcfd564f642ab5627cf68b9b7d374fb4f8a36e941a75d89c87998cef03bd6160248201529051600160a060020a03929092169163be00bbd8916044808201926020929091908290030181600087803b158015610b0757600080fd5b7f7984c050833e1db850f5aa7476710412fd2983fcec34da049502835ad7aed4f781565b6000611ab761088d565b60408051808201909152601481527f494e49545f4e4f545f494e495449414c495a45440000000000000000000000006020820152901515611b3d5760405160e560020a62461bcd0281526004018080602001828103825283818151815260200191508051906020019080838360008381101561084457818101518382015260200161082c565b5050600160a060020a031660009081526007602052604090205490565b604080516000808252602082019092527f5bc3b608e6be93b75a1c472a4a5bea3d31eabae46bf968e4bc4c7701562114dc91611b9a9133918491906107b7565b60408051808201909152600f81527f4150505f415554485f4641494c454400000000000000000000000000000000006020820152901515611c205760405160e560020a62461bcd0281526004018080602001828103825283818151815260200191508051906020019080838360008381101561084457818101518382015260200161082c565b50611c2a846129a4565b60408051808201909152601181527f5441505f494e56414c49445f544f4b454e0000000000000000000000000000006020820152901515611cb05760405160e560020a62461bcd0281526004018080602001828103825283818151815260200191508051906020019080838360008381101561084457818101518382015260200161082c565b50611cba84612455565b60408051808201909152601881527f5441505f544f4b454e5f414c52454144595f544150504544000000000000000060208201529015611d3f5760405160e560020a62461bcd0281526004018080602001828103825283818151815260200191508051906020019080838360008381101561084457818101518382015260200161082c565b50611d49836129c3565b60408051808201909152601481527f5441505f494e56414c49445f5441505f524154450000000000000000000000006020820152901515611dcf5760405160e560020a62461bcd0281526004018080602001828103825283818151815260200191508051906020019080838360008381101561084457818101518382015260200161082c565b50611ddb8484846129c8565b50505050565b7f83201394534c53ae0b4696fd49a933082d3e0525aa5a3d0a14a2f51e1221328881565b7f5d94de7e429250eee4ff97e30ab9f383bea3cd564d6780e0a9e965b1add1d20781565b60035481565b60086020526000908152604090205481565b7f57c9c67896cf0a4ffe92cbea66c2f7c34380af06bf14215dabb078cf8a6d99e181565b600154600160a060020a031681565b7fd76960be78bfedc5b40ce4fa64a2f8308f39dd2cbb1f9676dbc4ce87b817befd81565b604080516000808252602082019092527f57c9c67896cf0a4ffe92cbea66c2f7c34380af06bf14215dabb078cf8a6d99e191611ed89133918491906107b7565b60408051808201909152600f81527f4150505f415554485f4641494c454400000000000000000000000000000000006020820152901515611f5e5760405160e560020a62461bcd0281526004018080602001828103825283818151815260200191508051906020019080838360008381101561084457818101518382015260200161082c565b50611f6882612693565b60408051808201909152601e81527f5441505f494e56414c49445f464c4f4f525f44454352454153455f50435400006020820152901515611fee5760405160e560020a62461bcd0281526004018080602001828103825283818151815260200191508051906020019080838360008381101561084457818101518382015260200161082c565b5061088982612a78565b60006113b37f4172f0f7d2289153072b0a6ca36959e0cbe2efc3afe50fc81636caa96338137b612769565b6000600019612030611451565b14905090565b7f5d8e12c39142ff96d79d04d15d1ba1269e4fe57bb9d26f43523628b34ba108ec81565b600a6020526000908152604090205481565b600061207661088d565b60408051808201909152601481527f494e49545f4e4f545f494e495449414c495a454400000000000000000000000060208201529015156120fc5760405160e560020a62461bcd0281526004018080602001828103825283818151815260200191508051906020019080838360008381101561084457818101518382015260200161082c565b5061210682612ab3565b92915050565b60055481565b604080516000808252602082019092527f83201394534c53ae0b4696fd49a933082d3e0525aa5a3d0a14a2f51e12213288916121529133918491906107b7565b60408051808201909152600f81527f4150505f415554485f4641494c4544000000000000000000000000000000000060208201529015156121d85760405160e560020a62461bcd0281526004018080602001828103825283818151815260200191508051906020019080838360008381101561084457818101518382015260200161082c565b506121e284612455565b60408051808201909152601481527f5441505f544f4b454e5f4e4f545f54415050454400000000000000000000000060208201529015156122685760405160e560020a62461bcd0281526004018080602001828103825283818151815260200191508051906020019080838360008381101561084457818101518382015260200161082c565b50612272836129c3565b60408051808201909152601481527f5441505f494e56414c49445f5441505f5241544500000000000000000000000060208201529015156122f85760405160e560020a62461bcd0281526004018080602001828103825283818151815260200191508051906020019080838360008381101561084457818101518382015260200161082c565b50612304848484612c77565b60408051808201909152601681527f5441505f494e56414c49445f5441505f55504441544500000000000000000000602082015290151561238a5760405160e560020a62461bcd0281526004018080602001828103825283818151815260200191508051906020019080838360008381101561084457818101518382015260200161082c565b50611ddb848484612c9c565b600054600160a060020a031681565b670de0b6b3a764000081565b60048190556040805182815290517f9b7e646ff02dfcf5eb44312fe1246b19fbd7cd135b5e8fc87ea8dabdba0a557a9181900360200190a150565b4390565b600160a060020a0316151590565b6002805473ffffffffffffffffffffffffffffffffffffffff1916600160a060020a0383169081179091556040517fe6131a64e93e9aa4ff38892c34d563c06dcc1e03b3d6897cc65f0903e2ad684890600090a250565b600160a060020a0316600090815260076020526040902054151590565b600160a060020a0381166000818152600660209081526040808320839055600782528083208390556008825280832083905560098252808320839055600a909152808220829055517f501177e27fa4ac1960010be66ac3465730ea30d032efffb194ecdab56780a9a19190a250565b6000806124ed83612ab3565b90506124f7612d4c565b600160a060020a03841660008181526009602090815260408083209490945560068152908390208490558251848152925191927f52a0ec2acc756c1e658413fdceb6e3d7621deafa23d6f7cf8cfe8dac74f58f38929081900390910190a28091505b50919050565b600160a060020a038216600090815260066020526040902054612588908263ffffffff612d6616565b600160a060020a038084166000818152600660205260408082209490945560015460025485517fbeabacc8000000000000000000000000000000000000000000000000000000008152600481019490945284166024840152604483018690529351939092169263beabacc89260648084019391929182900301818387803b15801561261257600080fd5b505af1158015612626573d6000803e3d6000fd5b5050604080518481529051600160a060020a03861693507f884edad9ce6fa2440d8a54cc123490eb96d2768479d49ff9c7366125a942436492509081900360200190a25050565b600080600160a060020a03831615156126895760009150612559565b50506000903b1190565b670de0b6b3a7640000101590565b6126a9611451565b60408051808201909152601881527f494e49545f414c52454144595f494e495449414c495a454400000000000000006020820152901561272e5760405160e560020a62461bcd0281526004018080602001828103825283818151815260200191508051906020019080838360008381101561084457818101518382015260200161082c565b5061276761273a6123ec565b7febb05b386a8d34882b8711d156f463690983dc47815980fb82aeeff1aa43579e9063ffffffff612e0116565b565b5490565b5490565b600160a060020a038116600090815260066020526040812055612792612d4c565b600160a060020a0382166000908152600960205260409020556127b3612e05565b600160a060020a0382166000818152600a602052604080822093909355915190917fd6bb4268f8b24a4b1224ccb373917deefefc838e5deb90fc31bf588f809eb5b091a250565b60408051600160a060020a0383166024808301919091528251808303909101815260449091019091526020810180517bffffffffffffffffffffffffffffffffffffffffffffffffffffffff167f70a0823100000000000000000000000000000000000000000000000000000000179052600090818061287a8684612e09565b60408051808201909152601c81527f534146455f4552435f32305f42414c414e43455f524556455254454400000000602082015291935091508215156129055760405160e560020a62461bcd0281526004018080602001828103825283818151815260200191508051906020019080838360008381101561084457818101518382015260200161082c565b5095945050505050565b60408051600160a060020a038416602482015260448082018490528251808303909101815260649091019091526020810180517bffffffffffffffffffffffffffffffffffffffffffffffffffffffff167fa9059cbb000000000000000000000000000000000000000000000000000000001790526000906129918582612e3a565b95945050505050565b8051602002815290565b60006129af8261266d565b80612106575050600160a060020a03161590565b151590565b600160a060020a0383166000908152600760209081526040808320859055600890915290208190556129f8612d4c565b600160a060020a038416600090815260096020526040902055612a19612e05565b600160a060020a0384166000818152600a6020908152604091829020939093558051858152928301849052805191927fd68f3ca2b9dba133e5d2c7434e9354e135d834bb79a415b6ee8a640d61631260929081900390910190a2505050565b60058190556040805182815290517fa9ff459c90a69cad3990e8d42d4becd66f4252de3fd0da15700f4eb1f31d33e49181900360200190a150565b600160a060020a03808216600081815260086020908152604080832054835482517f4afe6c470000000000000000000000000000000000000000000000000000000081526004810196909652915193958695869586958695612b6c95941692634afe6c47926024808301939282900301818987803b158015612b3457600080fd5b505af1158015612b48573d6000803e3d6000fd5b505050506040513d6020811015612b5e57600080fd5b50519063ffffffff612e8816565b9350600160a060020a03861615612ba157600154612b9c90600160a060020a03888116911663ffffffff6127fa16565b612baf565b600154600160a060020a0316315b600160a060020a038716600090815260076020908152604080832054600990925290912054919450612bff91612bf390612be7612d4c565b9063ffffffff612d6616565b9063ffffffff612f1616565b600160a060020a038716600090815260066020526040902054909250612c2b908363ffffffff612e8816565b9050838311612c3d5760009450612c6e565b612c4d848263ffffffff612e8816565b8311612c6a57612c63838563ffffffff612d6616565b9450612c6e565b8094505b50505050919050565b6000612c838484612fc1565b8015612c945750612c94848361307c565b949350505050565b6000612ca7846124e1565b90506000811115612cbc57612cbc848261255f565b600160a060020a038416600090815260076020908152604080832086905560089091529020829055612cec612e05565b600160a060020a0385166000818152600a6020908152604091829020939093558051868152928301859052805191927fd163e19d68c378e6a686a4f7b29752e9132fcb27e94cba5824967cda8f707746929081900390910190a250505050565b6003546000906113b390612bf3438263ffffffff61313a16565b60408051808201909152601281527f4d4154485f5355425f554e444552464c4f5700000000000000000000000000006020820152600090819084841115612df25760405160e560020a62461bcd0281526004018080602001828103825283818151815260200191508051906020019080838360008381101561084457818101518382015260200161082c565b505050808203805b5092915050565b9055565b4290565b6000806000806040516020818751602089018a5afa92506000831115612e2e57805191505b50909590945092505050565b6000806040516020818551602087016000895af16000811115612e7e573d8015612e6b5760208114612e7457612e7c565b60019350612e7c565b600183511493505b505b5090949350505050565b60408051808201909152601181527f4d4154485f4144445f4f564552464c4f57000000000000000000000000000000602082015260009083830190848210156119cc5760405160e560020a62461bcd0281526004018080602001828103825283818151815260200191508051906020019080838360008381101561084457818101518382015260200161082c565b600080831515612f295760009150612dfa565b50828202828482811515612f3957fe5b60408051808201909152601181527f4d4154485f4d554c5f4f564552464c4f57000000000000000000000000000000602082015292919004146119cc5760405160e560020a62461bcd0281526004018080602001828103825283818151815260200191508051906020019080838360008381101561084457818101518382015260200161082c565b600160a060020a038216600090815260076020526040812054808311612fea5760019150612dfa565b600160a060020a0384166000908152600a602052604090205462278d0001613010612e05565b101561301f5760009150612dfa565b61304c61303f600454670de0b6b3a7640000612e8890919063ffffffff16565b829063ffffffff612f1616565b61306484670de0b6b3a764000063ffffffff612f1616565b116130725760019150612dfa565b5060009392505050565b600160a060020a0382166000908152600860205260408120548083106130a55760019150612dfa565b600160a060020a0384166000908152600a602052604090205462278d00016130cb612e05565b10156130da5760009150612dfa565b600554670de0b6b3a7640000116130f45760019150612dfa565b61311461303f600554670de0b6b3a7640000612d6690919063ffffffff16565b61312c84670de0b6b3a764000063ffffffff612f1616565b106130725760019150612dfa565b60408051808201909152600d81527f4d4154485f4449565f5a45524f00000000000000000000000000000000000000602082015260009081908184116131c55760405160e560020a62461bcd0281526004018080602001828103825283818151815260200191508051906020019080838360008381101561084457818101518382015260200161082c565b5082848115156131d157fe5b049493505050505600a165627a7a7230582040d468ca01243de492640aa4b41425bbedd9d2ad252ed47472272f0829c00f050029ebb05b386a8d34882b8711d156f463690983dc47815980fb82aeeff1aa43579e",
  "source": "pragma solidity 0.4.24;\n\nimport \"@aragon/os/contracts/apps/AragonApp.sol\";\nimport \"@aragon/os/contracts/common/EtherTokenConstant.sol\";\nimport \"@aragon/os/contracts/common/IsContract.sol\";\nimport \"@aragon/os/contracts/common/TimeHelpers.sol\";\nimport \"@aragon/os/contracts/common/SafeERC20.sol\";\nimport \"@aragon/os/contracts/lib/math/SafeMath.sol\";\nimport \"@aragon/os/contracts/lib/token/ERC20.sol\";\nimport \"@aragon/apps-vault/contracts/Vault.sol\";\nimport \"@ablack/fundraising-shared-interfaces/contracts/ITap.sol\";\nimport \"@ablack/fundraising-shared-interfaces/contracts/IAragonFundraisingController.sol\";\n\n\ncontract Tap is ITap, TimeHelpers, EtherTokenConstant, IsContract, AragonApp {\n    using SafeERC20 for ERC20;\n    using SafeMath  for uint256;\n\n    /**\n    Hardcoded constants to save gas\n    bytes32 public constant UPDATE_CONTROLLER_ROLE                     = keccak256(\"UPDATE_CONTROLLER_ROLE\");\n    bytes32 public constant UPDATE_RESERVE_ROLE                        = keccak256(\"UPDATE_RESERVE_ROLE\");\n    bytes32 public constant UPDATE_BENEFICIARY_ROLE                    = keccak256(\"UPDATE_BENEFICIARY_ROLE\");\n    bytes32 public constant UPDATE_MAXIMUM_TAP_RATE_INCREASE_PCT_ROLE  = keccak256(\"UPDATE_MAXIMUM_TAP_RATE_INCREASE_PCT_ROLE\");\n    bytes32 public constant UPDATE_MAXIMUM_TAP_FLOOR_DECREASE_PCT_ROLE = keccak256(\"UPDATE_MAXIMUM_TAP_FLOOR_DECREASE_PCT_ROLE\");\n    bytes32 public constant ADD_TAPPED_TOKEN_ROLE                      = keccak256(\"ADD_TAPPED_TOKEN_ROLE\");\n    bytes32 public constant REMOVE_TAPPED_TOKEN_ROLE                   = keccak256(\"REMOVE_TAPPED_TOKEN_ROLE\");\n    bytes32 public constant UPDATE_TAPPED_TOKEN_ROLE                   = keccak256(\"UPDATE_TAPPED_TOKEN_ROLE\");\n    bytes32 public constant RESET_TAPPED_TOKEN_ROLE                    = keccak256(\"RESET_TAPPED_TOKEN_ROLE\");\n    bytes32 public constant WITHDRAW_ROLE                              = keccak256(\"WITHDRAW_ROLE\");\n    */\n    bytes32 public constant UPDATE_CONTROLLER_ROLE                     = 0x454b5d0dbb74f012faf1d3722ea441689f97dc957dd3ca5335b4969586e5dc30;\n    bytes32 public constant UPDATE_RESERVE_ROLE                        = 0x7984c050833e1db850f5aa7476710412fd2983fcec34da049502835ad7aed4f7;\n    bytes32 public constant UPDATE_BENEFICIARY_ROLE                    = 0xf7ea2b80c7b6a2cab2c11d2290cb005c3748397358a25e17113658c83b732593;\n    bytes32 public constant UPDATE_MAXIMUM_TAP_RATE_INCREASE_PCT_ROLE  = 0x5d94de7e429250eee4ff97e30ab9f383bea3cd564d6780e0a9e965b1add1d207;\n    bytes32 public constant UPDATE_MAXIMUM_TAP_FLOOR_DECREASE_PCT_ROLE = 0x57c9c67896cf0a4ffe92cbea66c2f7c34380af06bf14215dabb078cf8a6d99e1;\n    bytes32 public constant ADD_TAPPED_TOKEN_ROLE                      = 0x5bc3b608e6be93b75a1c472a4a5bea3d31eabae46bf968e4bc4c7701562114dc;\n    bytes32 public constant REMOVE_TAPPED_TOKEN_ROLE                   = 0xd76960be78bfedc5b40ce4fa64a2f8308f39dd2cbb1f9676dbc4ce87b817befd;\n    bytes32 public constant UPDATE_TAPPED_TOKEN_ROLE                   = 0x83201394534c53ae0b4696fd49a933082d3e0525aa5a3d0a14a2f51e12213288;\n    bytes32 public constant RESET_TAPPED_TOKEN_ROLE                    = 0x294bf52c518669359157a9fe826e510dfc3dbd200d44bf77ec9536bff34bc29e;\n    bytes32 public constant WITHDRAW_ROLE                              = 0x5d8e12c39142ff96d79d04d15d1ba1269e4fe57bb9d26f43523628b34ba108ec;\n\n    uint256 public constant PCT_BASE = 10 ** 18; // 0% = 0; 1% = 10 ** 16; 100% = 10 ** 18\n\n    string private constant ERROR_CONTRACT_IS_EOA            = \"TAP_CONTRACT_IS_EOA\";\n    string private constant ERROR_INVALID_BENEFICIARY        = \"TAP_INVALID_BENEFICIARY\";\n    string private constant ERROR_INVALID_BATCH_BLOCKS       = \"TAP_INVALID_BATCH_BLOCKS\";\n    string private constant ERROR_INVALID_FLOOR_DECREASE_PCT = \"TAP_INVALID_FLOOR_DECREASE_PCT\";\n    string private constant ERROR_INVALID_TOKEN              = \"TAP_INVALID_TOKEN\";\n    string private constant ERROR_INVALID_TAP_RATE           = \"TAP_INVALID_TAP_RATE\";\n    string private constant ERROR_INVALID_TAP_UPDATE         = \"TAP_INVALID_TAP_UPDATE\";\n    string private constant ERROR_TOKEN_ALREADY_TAPPED       = \"TAP_TOKEN_ALREADY_TAPPED\";\n    string private constant ERROR_TOKEN_NOT_TAPPED           = \"TAP_TOKEN_NOT_TAPPED\";\n    string private constant ERROR_WITHDRAWAL_AMOUNT_ZERO     = \"TAP_WITHDRAWAL_AMOUNT_ZERO\";\n\n    IAragonFundraisingController public controller;\n    Vault                        public reserve;\n    address                      public beneficiary;\n    uint256                      public batchBlocks;\n    uint256                      public maximumTapRateIncreasePct;\n    uint256                      public maximumTapFloorDecreasePct;\n\n    mapping (address => uint256) public tappedAmounts;\n    mapping (address => uint256) public rates;\n    mapping (address => uint256) public floors;\n    mapping (address => uint256) public lastTappedAmountUpdates; // batch ids [block numbers]\n    mapping (address => uint256) public lastTapUpdates;  // timestamps\n\n    event UpdateBeneficiary               (address indexed beneficiary);\n    event UpdateMaximumTapRateIncreasePct (uint256 maximumTapRateIncreasePct);\n    event UpdateMaximumTapFloorDecreasePct(uint256 maximumTapFloorDecreasePct);\n    event AddTappedToken                  (address indexed token, uint256 rate, uint256 floor);\n    event RemoveTappedToken               (address indexed token);\n    event UpdateTappedToken               (address indexed token, uint256 rate, uint256 floor);\n    event ResetTappedToken                (address indexed token);\n    event UpdateTappedAmount              (address indexed token, uint256 tappedAmount);\n    event Withdraw                        (address indexed token, uint256 amount);\n\n\n    /***** external functions *****/\n\n    /**\n     * @notice Initialize tap\n     * @param _controller                 The address of the controller contract\n     * @param _reserve                    The address of the reserve [pool] contract\n     * @param _beneficiary                The address of the beneficiary [to whom funds are to be withdrawn]\n     * @param _batchBlocks                The number of blocks batches are to last\n     * @param _maximumTapRateIncreasePct  The maximum tap rate increase percentage allowed [in PCT_BASE]\n     * @param _maximumTapFloorDecreasePct The maximum tap floor decrease percentage allowed [in PCT_BASE]\n    */\n    function initialize(\n        IAragonFundraisingController _controller,\n        Vault                        _reserve,\n        address                      _beneficiary,\n        uint256                      _batchBlocks,\n        uint256                      _maximumTapRateIncreasePct,\n        uint256                      _maximumTapFloorDecreasePct\n    )\n        external\n        onlyInit\n    {\n        require(isContract(_controller),                                         ERROR_CONTRACT_IS_EOA);\n        require(isContract(_reserve),                                            ERROR_CONTRACT_IS_EOA);\n        require(_beneficiaryIsValid(_beneficiary),                               ERROR_INVALID_BENEFICIARY);\n        require(_batchBlocks != 0,                                               ERROR_INVALID_BATCH_BLOCKS);\n        require(_maximumTapFloorDecreasePctIsValid(_maximumTapFloorDecreasePct), ERROR_INVALID_FLOOR_DECREASE_PCT);\n\n        initialized();\n\n        controller = _controller;\n        reserve = _reserve;\n        beneficiary = _beneficiary;\n        batchBlocks = _batchBlocks;\n        maximumTapRateIncreasePct = _maximumTapRateIncreasePct;\n        maximumTapFloorDecreasePct = _maximumTapFloorDecreasePct;\n    }\n\n    /**\n     * @notice Update beneficiary to `_beneficiary`\n     * @param _beneficiary The address of the new beneficiary [to whom funds are to be withdrawn]\n    */\n    function updateBeneficiary(address _beneficiary) external auth(UPDATE_BENEFICIARY_ROLE) {\n        require(_beneficiaryIsValid(_beneficiary), ERROR_INVALID_BENEFICIARY);\n\n        _updateBeneficiary(_beneficiary);\n    }\n\n    /**\n     * @notice Update maximum tap rate increase percentage to `@formatPct(_maximumTapRateIncreasePct)`%\n     * @param _maximumTapRateIncreasePct The new maximum tap rate increase percentage to be allowed [in PCT_BASE]\n    */\n    function updateMaximumTapRateIncreasePct(uint256 _maximumTapRateIncreasePct) external auth(UPDATE_MAXIMUM_TAP_RATE_INCREASE_PCT_ROLE) {\n        _updateMaximumTapRateIncreasePct(_maximumTapRateIncreasePct);\n    }\n\n    /**\n     * @notice Update maximum tap floor decrease percentage to `@formatPct(_maximumTapFloorDecreasePct)`%\n     * @param _maximumTapFloorDecreasePct The new maximum tap floor decrease percentage to be allowed [in PCT_BASE]\n    */\n    function updateMaximumTapFloorDecreasePct(uint256 _maximumTapFloorDecreasePct) external auth(UPDATE_MAXIMUM_TAP_FLOOR_DECREASE_PCT_ROLE) {\n        require(_maximumTapFloorDecreasePctIsValid(_maximumTapFloorDecreasePct), ERROR_INVALID_FLOOR_DECREASE_PCT);\n\n        _updateMaximumTapFloorDecreasePct(_maximumTapFloorDecreasePct);\n    }\n\n    /**\n     * @notice Add tap for `_token.symbol(): string` with a rate of `@tokenAmount(_token, _rate)` per block and a floor of `@tokenAmount(_token, _floor)`\n     * @param _token The address of the token to be tapped\n     * @param _rate  The rate at which that token is to be tapped [in wei / block]\n     * @param _floor The floor above which the reserve [pool] balance for that token is to be kept [in wei]\n    */\n    function addTappedToken(address _token, uint256 _rate, uint256 _floor) external auth(ADD_TAPPED_TOKEN_ROLE) {\n        require(_tokenIsContractOrETH(_token), ERROR_INVALID_TOKEN);\n        require(!_tokenIsTapped(_token),       ERROR_TOKEN_ALREADY_TAPPED);\n        require(_tapRateIsValid(_rate),        ERROR_INVALID_TAP_RATE);\n\n        _addTappedToken(_token, _rate, _floor);\n    }\n\n    /**\n     * @notice Remove tap for `_token.symbol(): string`\n     * @param _token The address of the token to be un-tapped\n    */\n    function removeTappedToken(address _token) external auth(REMOVE_TAPPED_TOKEN_ROLE) {\n        require(_tokenIsTapped(_token), ERROR_TOKEN_NOT_TAPPED);\n\n        _removeTappedToken(_token);\n    }\n\n    /**\n     * @notice Update tap for `_token.symbol(): string` with a rate of `@tokenAmount(_token, _rate)` per block and a floor of `@tokenAmount(_token, _floor)`\n     * @param _token The address of the token whose tap is to be updated\n     * @param _rate  The new rate at which that token is to be tapped [in wei / block]\n     * @param _floor The new floor above which the reserve [pool] balance for that token is to be kept [in wei]\n    */\n    function updateTappedToken(address _token, uint256 _rate, uint256 _floor) external auth(UPDATE_TAPPED_TOKEN_ROLE) {\n        require(_tokenIsTapped(_token),                   ERROR_TOKEN_NOT_TAPPED);\n        require(_tapRateIsValid(_rate),                   ERROR_INVALID_TAP_RATE);\n        require(_tapUpdateIsValid(_token, _rate, _floor), ERROR_INVALID_TAP_UPDATE);\n\n        _updateTappedToken(_token, _rate, _floor);\n    }\n\n    /**\n     * @notice Reset tap timestamps for `_token.symbol(): string`\n     * @param _token The address of the token whose tap timestamps are to be reset\n    */\n    function resetTappedToken(address _token) external auth(RESET_TAPPED_TOKEN_ROLE) {\n        require(_tokenIsTapped(_token), ERROR_TOKEN_NOT_TAPPED);\n\n        _resetTappedToken(_token);\n    }\n\n    /**\n     * @notice Update tapped amount for `_token.symbol(): string`\n     * @param _token The address of the token whose tapped amount is to be updated\n    */\n    function updateTappedAmount(address _token) external {\n        require(_tokenIsTapped(_token), ERROR_TOKEN_NOT_TAPPED);\n\n        _updateTappedAmount(_token);\n    }\n\n    /**\n     * @notice Transfer about `@tokenAmount(_token, self.getMaximalWithdrawal(_token): uint256)` from `self.reserve()` to `self.beneficiary()`\n     * @param _token The address of the token to be transfered\n    */\n    function withdraw(address _token) external auth(WITHDRAW_ROLE) {\n        require(_tokenIsTapped(_token), ERROR_TOKEN_NOT_TAPPED);\n        uint256 amount = _updateTappedAmount(_token);\n        require(amount > 0, ERROR_WITHDRAWAL_AMOUNT_ZERO);\n\n        _withdraw(_token, amount);\n    }\n\n    /***** public view functions *****/\n\n    function getMaximumWithdrawal(address _token) public view isInitialized returns (uint256) {\n        return _tappedAmount(_token);\n    }\n\n    function rates(address _token) public view isInitialized returns (uint256) {\n        return rates[_token];\n    }\n\n    /***** internal functions *****/\n\n    /* computation functions */\n\n    function _currentBatchId() internal view returns (uint256) {\n        return (block.number.div(batchBlocks)).mul(batchBlocks);\n    }\n\n    function _tappedAmount(address _token) internal view returns (uint256) {\n        uint256 toBeKept = controller.collateralsToBeClaimed(_token).add(floors[_token]);\n        uint256 balance = _token == ETH ? address(reserve).balance : ERC20(_token).staticBalanceOf(reserve);\n        uint256 flow = (_currentBatchId().sub(lastTappedAmountUpdates[_token])).mul(rates[_token]);\n        uint256 tappedAmount = tappedAmounts[_token].add(flow);\n        /**\n         * whatever happens enough collateral should be\n         * kept in the reserve pool to guarantee that\n         * its balance is kept above the floor once\n         * all pending sell orders are claimed\n        */\n\n        /**\n         * the reserve's balance is already below the balance to be kept\n         * the tapped amount should be reset to zero\n        */\n        if (balance <= toBeKept) {\n            return 0;\n        }\n\n        /**\n         * the reserve's balance minus the upcoming tap flow would be below the balance to be kept\n         * the flow should be reduced to balance - toBeKept\n        */\n        if (balance <= toBeKept.add(tappedAmount)) {\n            return balance.sub(toBeKept);\n        }\n\n        /**\n         * the reserve's balance minus the upcoming flow is above the balance to be kept\n         * the flow can be added to the tapped amount\n        */\n        return tappedAmount;\n    }\n\n    /* check functions */\n\n    function _beneficiaryIsValid(address _beneficiary) internal pure returns (bool) {\n        return _beneficiary != address(0);\n    }\n\n    function _maximumTapFloorDecreasePctIsValid(uint256 _maximumTapFloorDecreasePct) internal pure returns (bool) {\n        return _maximumTapFloorDecreasePct <= PCT_BASE;\n    }\n\n    function _tokenIsContractOrETH(address _token) internal view returns (bool) {\n        return isContract(_token) || _token == ETH;\n    }\n\n    function _tokenIsTapped(address _token) internal view returns (bool) {\n        return rates[_token] != uint256(0);\n    }\n\n    function _tapRateIsValid(uint256 _rate) internal pure returns (bool) {\n        return _rate != 0;\n    }\n\n    function _tapUpdateIsValid(address _token, uint256 _rate, uint256 _floor) internal view returns (bool) {\n        return _tapRateUpdateIsValid(_token, _rate) && _tapFloorUpdateIsValid(_token, _floor);\n    }\n\n    function _tapRateUpdateIsValid(address _token, uint256 _rate) internal view returns (bool) {\n        uint256 rate = rates[_token];\n\n        if (_rate <= rate) {\n            return true;\n        }\n\n        if (getTimestamp() < lastTapUpdates[_token] + 30 days) {\n            return false;\n        }\n\n        if (_rate.mul(PCT_BASE) <= rate.mul(PCT_BASE.add(maximumTapRateIncreasePct))) {\n            return true;\n        }\n\n        return false;\n    }\n\n    function _tapFloorUpdateIsValid(address _token, uint256 _floor) internal view returns (bool) {\n        uint256 floor = floors[_token];\n\n        if (_floor >= floor) {\n            return true;\n        }\n\n        if (getTimestamp() < lastTapUpdates[_token] + 30 days) {\n            return false;\n        }\n\n        if (maximumTapFloorDecreasePct >= PCT_BASE) {\n            return true;\n        }\n\n        if (_floor.mul(PCT_BASE) >= floor.mul(PCT_BASE.sub(maximumTapFloorDecreasePct))) {\n            return true;\n        }\n\n        return false;\n    }\n\n    /* state modifying functions */\n\n    function _updateTappedAmount(address _token) internal returns (uint256) {\n        uint256 tappedAmount = _tappedAmount(_token);\n        lastTappedAmountUpdates[_token] = _currentBatchId();\n        tappedAmounts[_token] = tappedAmount;\n\n        emit UpdateTappedAmount(_token, tappedAmount);\n\n        return tappedAmount;\n    }\n\n    function _updateBeneficiary(address _beneficiary) internal {\n        beneficiary = _beneficiary;\n\n        emit UpdateBeneficiary(_beneficiary);\n    }\n\n    function _updateMaximumTapRateIncreasePct(uint256 _maximumTapRateIncreasePct) internal {\n        maximumTapRateIncreasePct = _maximumTapRateIncreasePct;\n\n        emit UpdateMaximumTapRateIncreasePct(_maximumTapRateIncreasePct);\n    }\n\n    function _updateMaximumTapFloorDecreasePct(uint256 _maximumTapFloorDecreasePct) internal {\n        maximumTapFloorDecreasePct = _maximumTapFloorDecreasePct;\n\n        emit UpdateMaximumTapFloorDecreasePct(_maximumTapFloorDecreasePct);\n    }\n\n    function _addTappedToken(address _token, uint256 _rate, uint256 _floor) internal {\n        /**\n         * NOTE\n         * 1. if _token is tapped in the middle of a batch it will\n         * reach the next batch faster than what it normally takes\n         * to go through a batch [e.g. one block later]\n         * 2. this will allow for a higher withdrawal than expected\n         * a few blocks after _token is tapped\n         * 3. this is not a problem because this extra amount is\n         * static [at most rates[_token] * batchBlocks] and does\n         * not increase in time\n        */\n        rates[_token] = _rate;\n        floors[_token] = _floor;\n        lastTappedAmountUpdates[_token] = _currentBatchId();\n        lastTapUpdates[_token] = getTimestamp();\n\n        emit AddTappedToken(_token, _rate, _floor);\n    }\n\n    function _removeTappedToken(address _token) internal {\n        delete tappedAmounts[_token];\n        delete rates[_token];\n        delete floors[_token];\n        delete lastTappedAmountUpdates[_token];\n        delete lastTapUpdates[_token];\n\n        emit RemoveTappedToken(_token);\n    }\n\n    function _updateTappedToken(address _token, uint256 _rate, uint256 _floor) internal {\n        /**\n         * NOTE\n         * withdraw before updating to keep the reserve\n         * actual balance [balance - virtual withdrawal]\n         * continuous in time [though a floor update can\n         * still break this continuity]\n        */\n        uint256 amount = _updateTappedAmount(_token);\n        if (amount > 0) {\n            _withdraw(_token, amount);\n        }\n\n        rates[_token] = _rate;\n        floors[_token] = _floor;\n        lastTapUpdates[_token] = getTimestamp();\n\n        emit UpdateTappedToken(_token, _rate, _floor);\n    }\n\n    function _resetTappedToken(address _token) internal {\n        tappedAmounts[_token] = 0;\n        lastTappedAmountUpdates[_token] = _currentBatchId();\n        lastTapUpdates[_token] = getTimestamp();\n\n        emit ResetTappedToken(_token);\n    }\n\n    function _withdraw(address _token, uint256 _amount) internal {\n        tappedAmounts[_token] = tappedAmounts[_token].sub(_amount);\n        reserve.transfer(_token, beneficiary, _amount); // vault contract's transfer method already reverts on error\n\n        emit Withdraw(_token, _amount);\n    }\n}",
  "sourcePath": "@ablack/fundraising-tap/contracts/Tap.sol",
  "compiler": {
    "name": "solc",
    "version": "0.4.24+commit.e67f0147.Emscripten.clang"
  },
  "schemaVersion": "2.0.1",
  "updatedAt": "2020-02-08T20:29:35.936Z"
}