{
  "contractName": "TokenMock",
  "abi": [
    {
      "inputs": [
        {
          "name": "initialAccount",
          "type": "address"
        },
        {
          "name": "initialBalance",
          "type": "uint256"
        }
      ],
      "payable": false,
      "stateMutability": "nonpayable",
      "type": "constructor"
    },
    {
      "anonymous": false,
      "inputs": [
        {
          "indexed": true,
          "name": "owner",
          "type": "address"
        },
        {
          "indexed": true,
          "name": "spender",
          "type": "address"
        },
        {
          "indexed": false,
          "name": "value",
          "type": "uint256"
        }
      ],
      "name": "Approval",
      "type": "event"
    },
    {
      "anonymous": false,
      "inputs": [
        {
          "indexed": true,
          "name": "from",
          "type": "address"
        },
        {
          "indexed": true,
          "name": "to",
          "type": "address"
        },
        {
          "indexed": false,
          "name": "value",
          "type": "uint256"
        }
      ],
      "name": "Transfer",
      "type": "event"
    },
    {
      "constant": true,
      "inputs": [],
      "name": "totalSupply",
      "outputs": [
        {
          "name": "",
          "type": "uint256"
        }
      ],
      "payable": false,
      "stateMutability": "view",
      "type": "function"
    },
    {
      "constant": true,
      "inputs": [
        {
          "name": "_owner",
          "type": "address"
        }
      ],
      "name": "balanceOf",
      "outputs": [
        {
          "name": "",
          "type": "uint256"
        }
      ],
      "payable": false,
      "stateMutability": "view",
      "type": "function"
    },
    {
      "constant": true,
      "inputs": [
        {
          "name": "_owner",
          "type": "address"
        },
        {
          "name": "_spender",
          "type": "address"
        }
      ],
      "name": "allowance",
      "outputs": [
        {
          "name": "",
          "type": "uint256"
        }
      ],
      "payable": false,
      "stateMutability": "view",
      "type": "function"
    },
    {
      "constant": false,
      "inputs": [
        {
          "name": "_allowTransfer",
          "type": "bool"
        }
      ],
      "name": "setAllowTransfer",
      "outputs": [],
      "payable": false,
      "stateMutability": "nonpayable",
      "type": "function"
    },
    {
      "constant": false,
      "inputs": [
        {
          "name": "_to",
          "type": "address"
        },
        {
          "name": "_value",
          "type": "uint256"
        }
      ],
      "name": "transfer",
      "outputs": [
        {
          "name": "",
          "type": "bool"
        }
      ],
      "payable": false,
      "stateMutability": "nonpayable",
      "type": "function"
    },
    {
      "constant": false,
      "inputs": [
        {
          "name": "_spender",
          "type": "address"
        },
        {
          "name": "_value",
          "type": "uint256"
        }
      ],
      "name": "approve",
      "outputs": [
        {
          "name": "",
          "type": "bool"
        }
      ],
      "payable": false,
      "stateMutability": "nonpayable",
      "type": "function"
    },
    {
      "constant": false,
      "inputs": [
        {
          "name": "_from",
          "type": "address"
        },
        {
          "name": "_to",
          "type": "address"
        },
        {
          "name": "_value",
          "type": "uint256"
        }
      ],
      "name": "transferFrom",
      "outputs": [
        {
          "name": "",
          "type": "bool"
        }
      ],
      "payable": false,
      "stateMutability": "nonpayable",
      "type": "function"
    }
  ],
  "bytecode": "0x608060405234801561001057600080fd5b506040516040806108228339810160409081528151602092830151600160a060020a0390911660009081529283905291208190556002556003805460ff191660011790556107bf806100636000396000f3006080604052600436106100825763ffffffff7c0100000000000000000000000000000000000000000000000000000000600035041663095ea7b381146100875780630b81e216146100cc57806318160ddd146100e857806323b872dd1461010f57806370a0823114610146578063a9059cbb14610174578063dd62ed3e146101a5575b600080fd5b34801561009357600080fd5b506100b873ffffffffffffffffffffffffffffffffffffffff600435166024356101d9565b604080519115158252519081900360200190f35b3480156100d857600080fd5b506100e66004351515610288565b005b3480156100f457600080fd5b506100fd61029b565b60408051918252519081900360200190f35b34801561011b57600080fd5b506100b873ffffffffffffffffffffffffffffffffffffffff600435811690602435166044356102a1565b34801561015257600080fd5b506100fd73ffffffffffffffffffffffffffffffffffffffff60043516610485565b34801561018057600080fd5b506100b873ffffffffffffffffffffffffffffffffffffffff600435166024356104ad565b3480156101b157600080fd5b506100fd73ffffffffffffffffffffffffffffffffffffffff600435811690602435166105c7565b33600090815260016020908152604080832073ffffffffffffffffffffffffffffffffffffffff861684529091528120541561021457600080fd5b33600081815260016020908152604080832073ffffffffffffffffffffffffffffffffffffffff881680855290835292819020869055805186815290519293927f8c5be1e5ebec7d5bd14f71427d1e84f3dd0314c0f7b2291e5b200ac8c7c3b925929181900390910190a350600192915050565b6003805460ff1916911515919091179055565b60025490565b60035460009060ff1615156102b557600080fd5b73ffffffffffffffffffffffffffffffffffffffff84166000908152602081905260409020548211156102e757600080fd5b73ffffffffffffffffffffffffffffffffffffffff8416600090815260016020908152604080832033845290915290205482111561032457600080fd5b73ffffffffffffffffffffffffffffffffffffffff8316151561034657600080fd5b73ffffffffffffffffffffffffffffffffffffffff841660009081526020819052604090205461037c908363ffffffff6105ff16565b73ffffffffffffffffffffffffffffffffffffffff80861660009081526020819052604080822093909355908516815220546103be908363ffffffff6106e616565b73ffffffffffffffffffffffffffffffffffffffff80851660009081526020818152604080832094909455918716815260018252828120338252909152205461040d908363ffffffff6105ff16565b73ffffffffffffffffffffffffffffffffffffffff808616600081815260016020908152604080832033845282529182902094909455805186815290519287169391927fddf252ad1be2c89b69c2b068fc378daa952ba7f163c4a11628f55a4df523b3ef929181900390910190a35060019392505050565b73ffffffffffffffffffffffffffffffffffffffff1660009081526020819052604090205490565b60035460009060ff1615156104c157600080fd5b336000908152602081905260409020548211156104dd57600080fd5b73ffffffffffffffffffffffffffffffffffffffff831615156104ff57600080fd5b3360009081526020819052604090205461051f908363ffffffff6105ff16565b336000908152602081905260408082209290925573ffffffffffffffffffffffffffffffffffffffff85168152205461055e908363ffffffff6106e616565b73ffffffffffffffffffffffffffffffffffffffff8416600081815260208181526040918290209390935580518581529051919233927fddf252ad1be2c89b69c2b068fc378daa952ba7f163c4a11628f55a4df523b3ef9281900390910190a350600192915050565b73ffffffffffffffffffffffffffffffffffffffff918216600090815260016020908152604080832093909416825291909152205490565b60408051808201909152601281527f4d4154485f5355425f554e444552464c4f57000000000000000000000000000060208201526000908190848411156106de576040517f08c379a00000000000000000000000000000000000000000000000000000000081526004018080602001828103825283818151815260200191508051906020019080838360005b838110156106a357818101518382015260200161068b565b50505050905090810190601f1680156106d05780820380516001836020036101000a031916815260200191505b509250505060405180910390fd5b505050900390565b60408051808201909152601181527f4d4154485f4144445f4f564552464c4f570000000000000000000000000000006020820152600090838301908482101561078b576040517f08c379a0000000000000000000000000000000000000000000000000000000008152600401808060200182810382528381815181526020019150805190602001908083836000838110156106a357818101518382015260200161068b565b5093925050505600a165627a7a72305820f62f720aa9c139d51b6a1fb5a068ed7cf9e4682150313192cd1fb5371080431e0029",
  "source": "// Modified from https://github.com/OpenZeppelin/openzeppelin-solidity/blob/a9f910d34f0ab33a1ae5e714f69f9596a02b4d91/contracts/token/ERC20/StandardToken.sol\n\npragma solidity 0.4.24;\n\nimport \"@aragon/os/contracts/lib/math/SafeMath.sol\";\n\n\ncontract TokenMock {\n    using SafeMath for uint256;\n    mapping (address => uint256) private balances;\n    mapping (address => mapping (address => uint256)) private allowed;\n    uint256 private totalSupply_;\n    bool private allowTransfer_;\n\n    event Approval(address indexed owner, address indexed spender, uint256 value);\n    event Transfer(address indexed from, address indexed to, uint256 value);\n\n    // Allow us to set the inital balance for an account on construction\n    constructor(address initialAccount, uint256 initialBalance) public {\n        balances[initialAccount] = initialBalance;\n        totalSupply_ = initialBalance;\n        allowTransfer_ = true;\n    }\n\n    function totalSupply() public view returns (uint256) { return totalSupply_; }\n\n    /**\n    * @dev Gets the balance of the specified address.\n    * @param _owner The address to query the the balance of.\n    * @return An uint256 representing the amount owned by the passed address.\n    */\n    function balanceOf(address _owner) public view returns (uint256) {\n        return balances[_owner];\n    }\n\n    /**\n    * @dev Function to check the amount of tokens that an owner allowed to a spender.\n    * @param _owner address The address which owns the funds.\n    * @param _spender address The address which will spend the funds.\n    * @return A uint256 specifying the amount of tokens still available for the spender.\n    */\n    function allowance(address _owner, address _spender) public view returns (uint256) {\n        return allowed[_owner][_spender];\n    }\n\n    /**\n    * @dev Set whether the token is transferable or not\n    * @param _allowTransfer Should token be transferable\n    */\n    function setAllowTransfer(bool _allowTransfer) public {\n        allowTransfer_ = _allowTransfer;\n    }\n\n    /**\n    * @dev Transfer token for a specified address\n    * @param _to The address to transfer to.\n    * @param _value The amount to be transferred.\n    */\n    function transfer(address _to, uint256 _value) public returns (bool) {\n        require(allowTransfer_);\n        require(_value <= balances[msg.sender]);\n        require(_to != address(0));\n\n        balances[msg.sender] = balances[msg.sender].sub(_value);\n        balances[_to] = balances[_to].add(_value);\n        emit Transfer(msg.sender, _to, _value);\n        return true;\n    }\n\n    /**\n    * @dev Approve the passed address to spend the specified amount of tokens on behalf of msg.sender.\n    * Beware that changing an allowance with this method brings the risk that someone may use both the old\n    * and the new allowance by unfortunate transaction ordering. One possible solution to mitigate this\n    * race condition is to first reduce the spender's allowance to 0 and set the desired value afterwards:\n    * https://github.com/ethereum/EIPs/issues/20#issuecomment-263524729\n    * @param _spender The address which will spend the funds.\n    * @param _value The amount of tokens to be spent.\n    */\n    function approve(address _spender, uint256 _value) public returns (bool) {\n        // Assume we want to protect for the race condition\n        require(allowed[msg.sender][_spender] == 0);\n\n        allowed[msg.sender][_spender] = _value;\n        emit Approval(msg.sender, _spender, _value);\n        return true;\n    }\n\n    /**\n    * @dev Transfer tokens from one address to another\n    * @param _from address The address which you want to send tokens from\n    * @param _to address The address which you want to transfer to\n    * @param _value uint256 the amount of tokens to be transferred\n    */\n    function transferFrom(address _from, address _to, uint256 _value) public returns (bool) {\n        require(allowTransfer_);\n        require(_value <= balances[_from]);\n        require(_value <= allowed[_from][msg.sender]);\n        require(_to != address(0));\n\n        balances[_from] = balances[_from].sub(_value);\n        balances[_to] = balances[_to].add(_value);\n        allowed[_from][msg.sender] = allowed[_from][msg.sender].sub(_value);\n        emit Transfer(_from, _to, _value);\n        return true;\n    }\n}\n",
  "sourcePath": "@aragon/test-helpers/contracts/TokenMock.sol",
  "compiler": {
    "name": "solc",
    "version": "0.4.24+commit.e67f0147.Emscripten.clang"
  },
  "schemaVersion": "2.0.1",
  "updatedAt": "2020-02-08T20:29:35.843Z"
}