{
  "contractName": "DepositableStorage",
  "abi": [
    {
      "constant": true,
      "inputs": [],
      "name": "isDepositable",
      "outputs": [
        {
          "name": "",
          "type": "bool"
        }
      ],
      "payable": false,
      "stateMutability": "view",
      "type": "function"
    }
  ],
  "bytecode": "0x608060405234801561001057600080fd5b5060c78061001f6000396000f300608060405260043610603e5763ffffffff7c010000000000000000000000000000000000000000000000000000000060003504166348a0c8dd81146043575b600080fd5b348015604e57600080fd5b5060556069565b604080519115158252519081900360200190f35b600060927f665fd576fbbe6f247aff98f5c94a561e3f71ec2d3c988d56f12d342396c50cea6097565b905090565b54905600a165627a7a723058202f938d3918c40011396d62f1c55138aaf6a0d7a7ac552771ec6c72302966111d0029",
  "source": "pragma solidity 0.4.24;\n\nimport \"./UnstructuredStorage.sol\";\n\n\ncontract DepositableStorage {\n    using UnstructuredStorage for bytes32;\n\n    // keccak256(\"aragonOS.depositableStorage.depositable\")\n    bytes32 internal constant DEPOSITABLE_POSITION = 0x665fd576fbbe6f247aff98f5c94a561e3f71ec2d3c988d56f12d342396c50cea;\n\n    function isDepositable() public view returns (bool) {\n        return DEPOSITABLE_POSITION.getStorageBool();\n    }\n\n    function setDepositable(bool _depositable) internal {\n        DEPOSITABLE_POSITION.setStorageBool(_depositable);\n    }\n}\n",
  "sourcePath": "@aragon/os/contracts/common/DepositableStorage.sol",
  "compiler": {
    "name": "solc",
    "version": "0.4.24+commit.e67f0147.Emscripten.clang"
  },
  "schemaVersion": "2.0.1",
  "updatedAt": "2020-02-07T14:15:25.049Z"
}