{
  "contractName": "ForceSendETH",
  "abi": [
    {
      "constant": false,
      "inputs": [
        {
          "name": "recipient",
          "type": "address"
        }
      ],
      "name": "sendByDying",
      "outputs": [],
      "payable": true,
      "stateMutability": "payable",
      "type": "function"
    }
  ],
  "bytecode": "0x6080604052348015600f57600080fd5b5060a98061001e6000396000f300608060405260043610603e5763ffffffff7c0100000000000000000000000000000000000000000000000000000000600035041663abd9f1ff81146043575b600080fd5b606273ffffffffffffffffffffffffffffffffffffffff600435166064565b005b8073ffffffffffffffffffffffffffffffffffffffff16ff00a165627a7a723058205f27d72ffc90168fe87e2acb66a46d0af16321076a92a48969df4fdbb676c17d0029",
  "source": "pragma solidity 0.4.24;\n\n\ncontract ForceSendETH {\n  // Truffle doesn't support selfdestructing on constructor:\n  // Error: The contract code couldn't be stored, please check your gas amount.\n\n  function sendByDying(address recipient) external payable {\n    selfdestruct(recipient);\n  }\n}\n",
  "sourcePath": "@ablack/fundraising-shared-test-helpers/contracts/ForceSendETH.sol",
  "compiler": {
    "name": "solc",
    "version": "0.4.24+commit.e67f0147.Emscripten.clang"
  },
  "schemaVersion": "2.0.1",
  "updatedAt": "2020-02-07T14:15:25.033Z"
}